{"abi":[{"type":"constructor","inputs":[{"name":"_poll","type":"address","internalType":"address"},{"name":"_verifier","type":"address","internalType":"address"},{"name":"_vkRegistry","type":"address","internalType":"address"},{"name":"_coordinator","type":"address","internalType":"address"}],"stateMutability":"nonpayable"},{"type":"function","name":"completeProcessing","inputs":[],"outputs":[],"stateMutability":"nonpayable"},{"type":"function","name":"coordinator","inputs":[],"outputs":[{"name":"","type":"address","internalType":"address"}],"stateMutability":"view"},{"type":"function","name":"currentStateCommitment","inputs":[],"outputs":[{"name":"","type":"uint256","internalType":"uint256"}],"stateMutability":"view"},{"type":"function","name":"poll","inputs":[],"outputs":[{"name":"","type":"address","internalType":"address"}],"stateMutability":"view"},{"type":"function","name":"processMessages","inputs":[{"name":"_newStateCommitment","type":"uint256","internalType":"uint256"},{"name":"_pA","type":"uint256[2]","internalType":"uint256[2]"},{"name":"_pB","type":"uint256[2][2]","internalType":"uint256[2][2]"},{"name":"_pC","type":"uint256[2]","internalType":"uint256[2]"}],"outputs":[],"stateMutability":"nonpayable"},{"type":"function","name":"processedBatchCount","inputs":[],"outputs":[{"name":"","type":"uint256","internalType":"uint256"}],"stateMutability":"view"},{"type":"function","name":"processingComplete","inputs":[],"outputs":[{"name":"","type":"bool","internalType":"bool"}],"stateMutability":"view"},{"type":"function","name":"verifier","inputs":[],"outputs":[{"name":"","type":"address","internalType":"address"}],"stateMutability":"view"},{"type":"function","name":"vkRegistry","inputs":[],"outputs":[{"name":"","type":"address","internalType":"address"}],"stateMutability":"view"},{"type":"event","name":"MessagesProcessed","inputs":[{"name":"batchIndex","type":"uint256","indexed":true,"internalType":"uint256"},{"name":"newStateCommitment","type":"uint256","indexed":false,"internalType":"uint256"}],"anonymous":false},{"type":"event","name":"ProcessingCompleted","inputs":[{"name":"finalStateCommitment","type":"uint256","indexed":false,"internalType":"uint256"}],"anonymous":false},{"type":"error","name":"NotCoordinator","inputs":[]}],"bytecode":{"object":"0x60e0604052346100785761001d610014610165565b92919091610203565b61002561007d565b6115fb61021c82396080518181816103a201528181610e4201528181610ec401528181610f3b01528181610fcd015261109f015260a0518181816101db01526111b1015260c0518161018201526115fb90f35b610083565b60405190565b5f80fd5b601f801991011690565b634e487b7160e01b5f52604160045260245ffd5b906100af90610087565b810190811060018060401b038211176100c757604052565b610091565b906100df6100d861007d565b92836100a5565b565b5f80fd5b60018060a01b031690565b6100f9906100e5565b90565b610105816100f0565b0361010c57565b5f80fd5b9050519061011d826100fc565b565b60808183031261016057610135825f8301610110565b9261015d6101468460208501610110565b936101548160408601610110565b93606001610110565b90565b6100e1565b61018361181780380380610178816100cc565b92833981019061011f565b90919293565b5f1b90565b9061019f60018060a01b0391610189565b9181191691161790565b90565b6101c06101bb6101c5926100e5565b6101a9565b6100e5565b90565b6101d1906101ac565b90565b6101dd906101c8565b90565b90565b906101f86101f36101ff926101d4565b6101e0565b825461018e565b9055565b9061021993929160805260a05260c0525f6101e3565b56fe60806040526004361015610013575b6104ff565b61001d5f356100ac565b80630a009097146100a757806313fb8932146100a25780632b7ac3f31461009d5780638763d0c4146100985780638edb995214610093578063a11752791461008e578063ae7bddd914610089578063deefd128146100845763ec9289a80361000e576104ca565b610486565b6103f9565b6103c4565b610369565b610294565b6101fd565b6101a4565b61014b565b60e01c90565b60405190565b5f80fd5b5f80fd5b5f9103126100ca57565b6100bc565b1c90565b60018060a01b031690565b6100ee9060086100f393026100cf565b6100d3565b90565b9061010191546100de565b90565b61010f5f5f906100f6565b90565b60018060a01b031690565b61012690610112565b90565b6101329061011d565b9052565b9190610149905f60208501940190610129565b565b3461017b5761015b3660046100c0565b610177610166610104565b61016e6100b2565b91829182610136565b0390f35b6100b8565b7f000000000000000000000000000000000000000000000000000000000000000090565b346101d4576101b43660046100c0565b6101d06101bf610180565b6101c76100b2565b91829182610136565b0390f35b6100b8565b7f000000000000000000000000000000000000000000000000000000000000000090565b3461022d5761020d3660046100c0565b6102296102186101d9565b6102206100b2565b91829182610136565b0390f35b6100b8565b60ff1690565b61024890600861024d93026100cf565b610232565b90565b9061025b9154610238565b90565b61026a60035f90610250565b90565b151590565b61027b9061026d565b9052565b9190610292905f60208501940190610272565b565b346102c4576102a43660046100c0565b6102c06102af61025e565b6102b76100b2565b9182918261027f565b0390f35b6100b8565b90565b6102d5816102c9565b036102dc57565b5f80fd5b905035906102ed826102cc565b565b5f80fd5b9190602060020283011161030357565b6102ef565b9190604060020283011161031857565b6102ef565b6101208183031261035f57610334825f83016102e0565b9261035c61034584602085016102f3565b936103538160608601610308565b9360e0016102f3565b90565b6100bc565b5f0190565b3461039b5761038561037c36600461031d565b9291909161140f565b61038d6100b2565b8061039781610364565b0390f35b6100b8565b7f000000000000000000000000000000000000000000000000000000000000000090565b346103f4576103d43660046100c0565b6103f06103df6103a0565b6103e76100b2565b91829182610136565b0390f35b6100b8565b34610427576104093660046100c0565b6104116115bb565b6104196100b2565b8061042381610364565b0390f35b6100b8565b90565b61043f90600861044493026100cf565b61042c565b90565b90610452915461042f565b90565b61046160015f90610447565b90565b61046d906102c9565b9052565b9190610484905f60208501940190610464565b565b346104b6576104963660046100c0565b6104b26104a1610455565b6104a96100b2565b91829182610471565b0390f35b6100b8565b6104c760025f90610447565b90565b346104fa576104da3660046100c0565b6104f66104e56104bb565b6104ed6100b2565b91829182610471565b0390f35b6100b8565b5f80fd5b5f1c90565b61051461051991610503565b6100d3565b90565b6105269054610508565b90565b9291903361054761054161053c5f61051c565b61011d565b9161011d565b036105575761055593610e33565b565b5f634f6429f360e11b81528061056f60048201610364565b0390fd5b90565b61058a61058561058f92610112565b610573565b610112565b90565b61059b90610576565b90565b6105a790610592565b90565b6105b390610576565b90565b6105bf906105aa565b90565b601f801991011690565b634e487b7160e01b5f52604160045260245ffd5b906105ea906105c2565b810190811067ffffffffffffffff82111761060457604052565b6105cc565b60e01b90565b6106188161026d565b0361061f57565b5f80fd5b905051906106308261060f565b565b9060208282031261064b57610648915f01610623565b90565b6100bc565b6106586100b2565b3d5f823e3d90fd5b60209181520190565b5f7f566f74696e67207374696c6c206f70656e000000000000000000000000000000910152565b61069d6011602092610660565b6106a681610669565b0190565b6106bf9060208101905f818303910152610690565b90565b156106c957565b6106d16100b2565b62461bcd60e51b8152806106e7600482016106aa565b0390fd5b5f7f5374617465204151206e6f74206d657267656400000000000000000000000000910152565b61071f6013602092610660565b610728816106eb565b0190565b6107419060208101905f818303910152610712565b90565b1561074b57565b6107536100b2565b62461bcd60e51b8152806107696004820161072c565b0390fd5b5f7f4d657373616765204151206e6f74206d65726765640000000000000000000000910152565b6107a16015602092610660565b6107aa8161076d565b0190565b6107c39060208101905f818303910152610794565b90565b156107cd57565b6107d56100b2565b62461bcd60e51b8152806107eb600482016107ae565b0390fd5b6107fb61080091610503565b610232565b90565b61080d90546107ef565b90565b5f7f416c726561647920636f6d706c65746500000000000000000000000000000000910152565b6108446010602092610660565b61084d81610810565b0190565b6108669060208101905f818303910152610837565b90565b1561087057565b6108786100b2565b62461bcd60e51b81528061088e60048201610851565b0390fd5b61089b9061011d565b90565b6108a781610892565b036108ae57565b5f80fd5b905051906108bf8261089e565b565b906020828203126108da576108d7915f016108b2565b90565b6100bc565b6108e8906105aa565b90565b6108f490610576565b90565b610900906108eb565b90565b90505190610910826102cc565b565b9060208282031261092b57610928915f01610903565b90565b6100bc565b61093c61094191610503565b61042c565b90565b61094e9054610930565b90565b90565b610960610965916102c9565b610951565b9052565b92610995602061099d9461098d8288610985829b9a8399610954565b018092610954565b018092610954565b018092610954565b0190565b5f1b90565b5190565b905090565b90825f9392825e0152565b6109df6109d6926020926109cd816109a6565b948580936109aa565b938491016109af565b0190565b6109ec916109ba565b90565b610a036109fe610a08926102c9565b610573565b6102c9565b90565b610a17610a1c91610503565b6109ef565b90565b90565b610a36610a31610a3b92610a1f565b610573565b6102c9565b90565b610a677f30644e72e131a029b85045b68181585d2833e84879b9709143e1f593f0000001610a22565b90565b634e487b7160e01b5f52601260045260245ffd5b610a8a610a90916102c9565b916102c9565b908115610a9b570690565b610a6a565b90565b610ab7610ab2610abc92610aa0565b610573565b6102c9565b90565b90610ad2610acb6100b2565b92836105e0565b565b67ffffffffffffffff8111610aec5760208091020190565b6105cc565b90610b03610afe83610ad4565b610abf565b918252565b369037565b90610b32610b1a83610af1565b92602080610b288693610ad4565b9201910390610b08565b565b634e487b7160e01b5f52603260045260245ffd5b5190565b90610b5682610b48565b811015610b67576020809102010190565b610b34565b90565b610b83610b7e610b8892610b6c565b610573565b6102c9565b90565b90610b95906102c9565b9052565b610ba290610576565b90565b610bae90610b99565b90565b610bba906105aa565b90565b9037565b610bcd91604091610bbd565b565b50600290565b905090565b90565b610be991604091610bbd565b565b90610bf881604093610bdd565b0190565b5090565b60400190565b610c22610c1c610c1583610bcf565b8094610bd5565b91610bda565b805f925b848410610c34575050505050565b610c52610c4c600192610c478686610bfc565b610beb565b93610c00565b93019291610c26565b60209181520190565b60200190565b610c73906102c9565b9052565b90610c8481602093610c6a565b0190565b60200190565b90610cab610ca5610c9e84610b48565b8093610c5b565b92610c64565b905f5b818110610cbb5750505090565b909192610cd4610cce6001928651610c77565b94610c88565b9101919091610cae565b9092610d1290610d08610d209694610cfe6101208601975f870190610bc1565b6040850190610c06565b60c0830190610bc1565b610100818403910152610c8e565b90565b5f7f496e76616c69642070726f636573732070726f6f660000000000000000000000910152565b610d576015602092610660565b610d6081610d23565b0190565b610d799060208101905f818303910152610d4a565b90565b15610d8357565b610d8b6100b2565b62461bcd60e51b815280610da160048201610d64565b0390fd5b90610db15f19916109a1565b9181191691161790565b90565b90610dd3610dce610dda926109ef565b610dbb565b8254610da5565b9055565b634e487b7160e01b5f52601160045260245ffd5b610dfb906102c9565b5f198114610e095760010190565b610dde565b610e1d610e23919392936102c9565b926102c9565b8203918211610e2e57565b610dde565b9291610e816020610e6b610e667f000000000000000000000000000000000000000000000000000000000000000061059e565b6105b6565b63fa7f1bae90610e796100b2565b938492610609565b82528180610e9160048201610364565b03915afa90811561140a57610eb791610eb2915f916113dc575b501561026d565b6106c2565b610f036020610eed610ee87f000000000000000000000000000000000000000000000000000000000000000061059e565b6105b6565b63b5f38c8190610efb6100b2565b938492610609565b82528180610f1360048201610364565b03915afa80156113d757610f2e915f916113a9575b50610744565b610f7a6020610f64610f5f7f000000000000000000000000000000000000000000000000000000000000000061059e565b6105b6565b63f32b5ace90610f726100b2565b938492610609565b82528180610f8a60048201610364565b03915afa80156113a457610fa5915f91611376575b506107c6565b610fc0610fbb610fb56003610803565b1561026d565b610869565b61100c6020610ff6610ff17f000000000000000000000000000000000000000000000000000000000000000061059e565b6105b6565b638ae8a05f906110046100b2565b938492610609565b8252818061101c60048201610364565b03915afa80156113715761104d611048611043602093611063955f91611344575b506108df565b6108f7565b6108df565b632ecf52e89061105b6100b2565b938492610609565b8252818061107360048201610364565b03915afa90811561133f575f91611311575b506110de6110936002610944565b918660206110c86110c37f000000000000000000000000000000000000000000000000000000000000000061059e565b6105b6565b630f4cf692906110d66100b2565b958692610609565b825281806110ee60048201610364565b03915afa91821561130c5760209461112461114394611132935f9788926112dd575b506111196100b2565b9586948a8601610969565b8682018103825203826105e0565b61113a6100b2565b918291826109e3565b039060025afa156112d8576020916111f76111776111696111645f516109a1565b610a0b565b611171610a3e565b90610a7e565b916111a661118d6111886001610aa3565b610b0d565b936111a18561119b5f610b6f565b90610b4c565b610b8b565b6112026111da6111d57f0000000000000000000000000000000000000000000000000000000000000000610ba5565b610bb1565b9363c32e370e9295976111eb6100b2565b98899788968796610609565b865260048601610cde565b03915afa80156112d35761121d915f916112a5575b50610d7c565b611228816002610dbe565b61124461123d6112386001610944565b610df2565b6001610dbe565b6112616112516001610944565b61125b6001610aa3565b90610e0e565b6112a061128e7f994255c9a9c732d5b7099f620248cfeffe23b7696e25c0eb8a53c76f8a0bad13926109ef565b926112976100b2565b91829182610471565b0390a2565b6112c6915060203d81116112cc575b6112be81836105e0565b810190610632565b5f611217565b503d6112b4565b610650565b610650565b6112fe919250893d8111611305575b6112f681836105e0565b810190610912565b905f611110565b503d6112ec565b610650565b611332915060203d8111611338575b61132a81836105e0565b810190610912565b5f611085565b503d611320565b610650565b6113649150853d811161136a575b61135c81836105e0565b8101906108c1565b5f61103d565b503d611352565b610650565b611397915060203d811161139d575b61138f81836105e0565b810190610632565b5f610f9f565b503d611385565b610650565b6113ca915060203d81116113d0575b6113c281836105e0565b810190610632565b5f610f28565b503d6113b8565b610650565b6113fd915060203d8111611403575b6113f581836105e0565b810190610632565b5f610eab565b503d6113eb565b610650565b9061141b939291610529565b565b3361143861143261142d5f61051c565b61011d565b9161011d565b036114475761144561152a565b565b5f634f6429f360e11b81528061145f60048201610364565b0390fd5b5f7f4e6f20626174636865732070726f636573736564000000000000000000000000910152565b6114976014602092610660565b6114a081611463565b0190565b6114b99060208101905f81830391015261148a565b90565b156114c357565b6114cb6100b2565b62461bcd60e51b8152806114e1600482016114a4565b0390fd5b906114f160ff916109a1565b9181191691161790565b6115049061026d565b90565b90565b9061151f61151a611526926114fb565b611507565b82546114e5565b9055565b61154561154061153a6003610803565b1561026d565b610869565b61156a6115526001610944565b61156461155e5f610b6f565b916102c9565b116114bc565b6115766001600361150a565b6115806002610944565b6115b67f74fd9a5fe8ca1e2c41d7149b0ee7943d718b57ca506b5c015be094513dd6ca97916115ad6100b2565b91829182610471565b0390a1565b6115c361141d565b56fea26469706673582212204091c71cc088d3fc1a0fe995a413e2809edb411a0bc959264ff8f9721e616e3b64736f6c63430008210033","linkReferences":{}},"methodIdentifiers":{"completeProcessing()":"ae7bddd9","coordinator()":"0a009097","currentStateCommitment()":"ec9289a8","poll()":"a1175279","processMessages(uint256,uint256[2],uint256[2][2],uint256[2])":"8edb9952","processedBatchCount()":"deefd128","processingComplete()":"8763d0c4","verifier()":"2b7ac3f3","vkRegistry()":"13fb8932"},"id":5}