{"abi":[{"type":"constructor","inputs":[{"name":"_poll","type":"address","internalType":"address"},{"name":"_verifier","type":"address","internalType":"address"},{"name":"_vkRegistry","type":"address","internalType":"address"}],"stateMutability":"nonpayable"},{"type":"function","name":"completeProcessing","inputs":[],"outputs":[],"stateMutability":"nonpayable"},{"type":"function","name":"currentStateCommitment","inputs":[],"outputs":[{"name":"","type":"uint256","internalType":"uint256"}],"stateMutability":"view"},{"type":"function","name":"poll","inputs":[],"outputs":[{"name":"","type":"address","internalType":"address"}],"stateMutability":"view"},{"type":"function","name":"processMessages","inputs":[{"name":"_newStateCommitment","type":"uint256","internalType":"uint256"},{"name":"_pA","type":"uint256[2]","internalType":"uint256[2]"},{"name":"_pB","type":"uint256[2][2]","internalType":"uint256[2][2]"},{"name":"_pC","type":"uint256[2]","internalType":"uint256[2]"}],"outputs":[],"stateMutability":"nonpayable"},{"type":"function","name":"processedBatchCount","inputs":[],"outputs":[{"name":"","type":"uint256","internalType":"uint256"}],"stateMutability":"view"},{"type":"function","name":"processingComplete","inputs":[],"outputs":[{"name":"","type":"bool","internalType":"bool"}],"stateMutability":"view"},{"type":"function","name":"verifier","inputs":[],"outputs":[{"name":"","type":"address","internalType":"address"}],"stateMutability":"view"},{"type":"function","name":"vkRegistry","inputs":[],"outputs":[{"name":"","type":"address","internalType":"address"}],"stateMutability":"view"},{"type":"event","name":"MessagesProcessed","inputs":[{"name":"batchIndex","type":"uint256","indexed":true,"internalType":"uint256"},{"name":"newStateCommitment","type":"uint256","indexed":false,"internalType":"uint256"}],"anonymous":false},{"type":"event","name":"ProcessingCompleted","inputs":[{"name":"finalStateCommitment","type":"uint256","indexed":false,"internalType":"uint256"}],"anonymous":false}],"bytecode":{"object":"0x60e0604052346100745761001a610014610155565b91610178565b610022610079565b6114a9610184823960805181818161031e01528181610d5201528181610dd401528181610e4b01528181610edd0152610faf015260a05181818161015301526110c1015260c0518160c101526114a990f35b61007f565b60405190565b5f80fd5b601f801991011690565b634e487b7160e01b5f52604160045260245ffd5b906100ab90610083565b810190811060018060401b038211176100c357604052565b61008d565b906100db6100d4610079565b92836100a1565b565b5f80fd5b60018060a01b031690565b6100f5906100e1565b90565b610101816100ec565b0361010857565b5f80fd5b90505190610119826100f8565b565b90916060828403126101505761014d610136845f850161010c565b93610144816020860161010c565b9360400161010c565b90565b6100dd565b61017361162d80380380610168816100c8565b92833981019061011b565b909192565b60805260a05260c05256fe60806040526004361015610013575b61047a565b61001d5f3561009c565b806313fb8932146100975780632b7ac3f3146100925780638763d0c41461008d5780638edb995214610088578063a117527914610083578063ae7bddd91461007e578063deefd128146100795763ec9289a80361000e57610445565b610401565b610375565b610340565b6102e5565b610210565b610175565b61011c565b60e01c90565b60405190565b5f80fd5b5f80fd5b5f9103126100ba57565b6100ac565b7f000000000000000000000000000000000000000000000000000000000000000090565b60018060a01b031690565b6100f7906100e3565b90565b610103906100ee565b9052565b919061011a905f602085019401906100fa565b565b3461014c5761012c3660046100b0565b6101486101376100bf565b61013f6100a2565b91829182610107565b0390f35b6100a8565b7f000000000000000000000000000000000000000000000000000000000000000090565b346101a5576101853660046100b0565b6101a1610190610151565b6101986100a2565b91829182610107565b0390f35b6100a8565b1c90565b60ff1690565b6101c49060086101c993026101aa565b6101ae565b90565b906101d791546101b4565b90565b6101e660025f906101cc565b90565b151590565b6101f7906101e9565b9052565b919061020e905f602085019401906101ee565b565b34610240576102203660046100b0565b61023c61022b6101da565b6102336100a2565b918291826101fb565b0390f35b6100a8565b90565b61025181610245565b0361025857565b5f80fd5b9050359061026982610248565b565b5f80fd5b9190602060020283011161027f57565b61026b565b9190604060020283011161029457565b61026b565b610120818303126102db576102b0825f830161025c565b926102d86102c1846020850161026f565b936102cf8160608601610284565b9360e00161026f565b90565b6100ac565b5f0190565b34610317576103016102f8366004610299565b92919091610d43565b6103096100a2565b80610313816102e0565b0390f35b6100a8565b7f000000000000000000000000000000000000000000000000000000000000000090565b34610370576103503660046100b0565b61036c61035b61031c565b6103636100a2565b91829182610107565b0390f35b6100a8565b346103a3576103853660046100b0565b61038d6113e3565b6103956100a2565b8061039f816102e0565b0390f35b6100a8565b90565b6103bb9060086103c093026101aa565b6103a8565b90565b906103ce91546103ab565b90565b6103dc5f5f906103c3565b90565b6103e890610245565b9052565b91906103ff905f602085019401906103df565b565b34610431576104113660046100b0565b61042d61041c6103d1565b6104246100a2565b918291826103ec565b0390f35b6100a8565b61044260015f906103c3565b90565b34610475576104553660046100b0565b610471610460610436565b6104686100a2565b918291826103ec565b0390f35b6100a8565b5f80fd5b90565b61049561049061049a926100e3565b61047e565b6100e3565b90565b6104a690610481565b90565b6104b29061049d565b90565b6104be90610481565b90565b6104ca906104b5565b90565b601f801991011690565b634e487b7160e01b5f52604160045260245ffd5b906104f5906104cd565b810190811067ffffffffffffffff82111761050f57604052565b6104d7565b60e01b90565b610523816101e9565b0361052a57565b5f80fd5b9050519061053b8261051a565b565b9060208282031261055657610553915f0161052e565b90565b6100ac565b6105636100a2565b3d5f823e3d90fd5b60209181520190565b5f7f566f74696e67207374696c6c206f70656e000000000000000000000000000000910152565b6105a8601160209261056b565b6105b181610574565b0190565b6105ca9060208101905f81830391015261059b565b90565b156105d457565b6105dc6100a2565b62461bcd60e51b8152806105f2600482016105b5565b0390fd5b5f7f5374617465204151206e6f74206d657267656400000000000000000000000000910152565b61062a601360209261056b565b610633816105f6565b0190565b61064c9060208101905f81830391015261061d565b90565b1561065657565b61065e6100a2565b62461bcd60e51b81528061067460048201610637565b0390fd5b5f7f4d657373616765204151206e6f74206d65726765640000000000000000000000910152565b6106ac601560209261056b565b6106b581610678565b0190565b6106ce9060208101905f81830391015261069f565b90565b156106d857565b6106e06100a2565b62461bcd60e51b8152806106f6600482016106b9565b0390fd5b5f1c90565b61070b610710916106fa565b6101ae565b90565b61071d90546106ff565b90565b5f7f416c726561647920636f6d706c65746500000000000000000000000000000000910152565b610754601060209261056b565b61075d81610720565b0190565b6107769060208101905f818303910152610747565b90565b1561078057565b6107886100a2565b62461bcd60e51b81528061079e60048201610761565b0390fd5b6107ab906100ee565b90565b6107b7816107a2565b036107be57565b5f80fd5b905051906107cf826107ae565b565b906020828203126107ea576107e7915f016107c2565b90565b6100ac565b6107f8906104b5565b90565b61080490610481565b90565b610810906107fb565b90565b9050519061082082610248565b565b9060208282031261083b57610838915f01610813565b90565b6100ac565b61084c610851916106fa565b6103a8565b90565b61085e9054610840565b90565b90565b61087061087591610245565b610861565b9052565b926108a560206108ad9461089d8288610895829b9a8399610864565b018092610864565b018092610864565b018092610864565b0190565b5f1b90565b5190565b905090565b90825f9392825e0152565b6108ef6108e6926020926108dd816108b6565b948580936108ba565b938491016108bf565b0190565b6108fc916108ca565b90565b61091361090e61091892610245565b61047e565b610245565b90565b61092761092c916106fa565b6108ff565b90565b90565b61094661094161094b9261092f565b61047e565b610245565b90565b6109777f30644e72e131a029b85045b68181585d2833e84879b9709143e1f593f0000001610932565b90565b634e487b7160e01b5f52601260045260245ffd5b61099a6109a091610245565b91610245565b9081156109ab570690565b61097a565b90565b6109c76109c26109cc926109b0565b61047e565b610245565b90565b906109e26109db6100a2565b92836104eb565b565b67ffffffffffffffff81116109fc5760208091020190565b6104d7565b90610a13610a0e836109e4565b6109cf565b918252565b369037565b90610a42610a2a83610a01565b92602080610a3886936109e4565b9201910390610a18565b565b634e487b7160e01b5f52603260045260245ffd5b5190565b90610a6682610a58565b811015610a77576020809102010190565b610a44565b90565b610a93610a8e610a9892610a7c565b61047e565b610245565b90565b90610aa590610245565b9052565b610ab290610481565b90565b610abe90610aa9565b90565b610aca906104b5565b90565b9037565b610add91604091610acd565b565b50600290565b905090565b90565b610af991604091610acd565b565b90610b0881604093610aed565b0190565b5090565b60400190565b610b32610b2c610b2583610adf565b8094610ae5565b91610aea565b805f925b848410610b44575050505050565b610b62610b5c600192610b578686610b0c565b610afb565b93610b10565b93019291610b36565b60209181520190565b60200190565b610b8390610245565b9052565b90610b9481602093610b7a565b0190565b60200190565b90610bbb610bb5610bae84610a58565b8093610b6b565b92610b74565b905f5b818110610bcb5750505090565b909192610be4610bde6001928651610b87565b94610b98565b9101919091610bbe565b9092610c2290610c18610c309694610c0e6101208601975f870190610ad1565b6040850190610b16565b60c0830190610ad1565b610100818403910152610b9e565b90565b5f7f496e76616c69642070726f636573732070726f6f660000000000000000000000910152565b610c67601560209261056b565b610c7081610c33565b0190565b610c899060208101905f818303910152610c5a565b90565b15610c9357565b610c9b6100a2565b62461bcd60e51b815280610cb160048201610c74565b0390fd5b90610cc15f19916108b1565b9181191691161790565b90565b90610ce3610cde610cea926108ff565b610ccb565b8254610cb5565b9055565b634e487b7160e01b5f52601160045260245ffd5b610d0b90610245565b5f198114610d195760010190565b610cee565b610d2d610d3391939293610245565b92610245565b8203918211610d3e57565b610cee565b9291610d916020610d7b610d767f00000000000000000000000000000000000000000000000000000000000000006104a9565b6104c1565b63fa7f1bae90610d896100a2565b938492610514565b82528180610da1600482016102e0565b03915afa90811561131757610dc791610dc2915f916112e9575b50156101e9565b6105cd565b610e136020610dfd610df87f00000000000000000000000000000000000000000000000000000000000000006104a9565b6104c1565b63b5f38c8190610e0b6100a2565b938492610514565b82528180610e23600482016102e0565b03915afa80156112e457610e3e915f916112b6575b5061064f565b610e8a6020610e74610e6f7f00000000000000000000000000000000000000000000000000000000000000006104a9565b6104c1565b63f32b5ace90610e826100a2565b938492610514565b82528180610e9a600482016102e0565b03915afa80156112b157610eb5915f91611283575b506106d1565b610ed0610ecb610ec56002610713565b156101e9565b610779565b610f1c6020610f06610f017f00000000000000000000000000000000000000000000000000000000000000006104a9565b6104c1565b638ae8a05f90610f146100a2565b938492610514565b82528180610f2c600482016102e0565b03915afa801561127e57610f5d610f58610f53602093610f73955f91611251575b506107ef565b610807565b6107ef565b632ecf52e890610f6b6100a2565b938492610514565b82528180610f83600482016102e0565b03915afa90811561124c575f9161121e575b50610fee610fa36001610854565b91866020610fd8610fd37f00000000000000000000000000000000000000000000000000000000000000006104a9565b6104c1565b630f4cf69290610fe66100a2565b958692610514565b82528180610ffe600482016102e0565b03915afa9182156112195760209461103461105394611042935f9788926111ea575b506110296100a2565b9586948a8601610879565b8682018103825203826104eb565b61104a6100a2565b918291826108f3565b039060025afa156111e5576020916111076110876110796110745f516108b1565b61091b565b61108161094e565b9061098e565b916110b661109d61109860016109b3565b610a1d565b936110b1856110ab5f610a7f565b90610a5c565b610a9b565b6111126110ea6110e57f0000000000000000000000000000000000000000000000000000000000000000610ab5565b610ac1565b9363c32e370e9295976110fb6100a2565b98899788968796610514565b865260048601610bee565b03915afa80156111e05761112d915f916111b2575b50610c8c565b611138816001610cce565b61115261114c6111475f610854565b610d02565b5f610cce565b61116e61115e5f610854565b61116860016109b3565b90610d1e565b6111ad61119b7f994255c9a9c732d5b7099f620248cfeffe23b7696e25c0eb8a53c76f8a0bad13926108ff565b926111a46100a2565b918291826103ec565b0390a2565b6111d3915060203d81116111d9575b6111cb81836104eb565b81019061053d565b5f611127565b503d6111c1565b61055b565b61055b565b61120b919250893d8111611212575b61120381836104eb565b810190610822565b905f611020565b503d6111f9565b61055b565b61123f915060203d8111611245575b61123781836104eb565b810190610822565b5f610f95565b503d61122d565b61055b565b6112719150853d8111611277575b61126981836104eb565b8101906107d1565b5f610f4d565b503d61125f565b61055b565b6112a4915060203d81116112aa575b61129c81836104eb565b81019061053d565b5f610eaf565b503d611292565b61055b565b6112d7915060203d81116112dd575b6112cf81836104eb565b81019061053d565b5f610e38565b503d6112c5565b61055b565b61130a915060203d8111611310575b61130281836104eb565b81019061053d565b5f610dbb565b503d6112f8565b61055b565b5f7f4e6f20626174636865732070726f636573736564000000000000000000000000910152565b611350601460209261056b565b6113598161131c565b0190565b6113729060208101905f818303910152611343565b90565b1561137c57565b6113846100a2565b62461bcd60e51b81528061139a6004820161135d565b0390fd5b906113aa60ff916108b1565b9181191691161790565b6113bd906101e9565b90565b90565b906113d86113d36113df926113b4565b6113c0565b825461139e565b9055565b6113fe6113f96113f36002610713565b156101e9565b610779565b61142261140a5f610854565b61141c6114165f610a7f565b91610245565b11611375565b61142e600160026113c3565b6114386001610854565b61146e7f74fd9a5fe8ca1e2c41d7149b0ee7943d718b57ca506b5c015be094513dd6ca97916114656100a2565b918291826103ec565b0390a156fea26469706673582212201d3c35de0d3ad35f2ab007ea9602cece65edf23dee65eb6bb16dba847287073a64736f6c63430008210033","linkReferences":{}},"methodIdentifiers":{"completeProcessing()":"ae7bddd9","currentStateCommitment()":"ec9289a8","poll()":"a1175279","processMessages(uint256,uint256[2],uint256[2][2],uint256[2])":"8edb9952","processedBatchCount()":"deefd128","processingComplete()":"8763d0c4","verifier()":"2b7ac3f3","vkRegistry()":"13fb8932"},"id":4}