{"contracts/PrivateVoting.sol":{"PrivateVoting":{"abi":[{"inputs":[{"internalType":"address","name":"_verifier","type":"address"}],"stateMutability":"nonpayable","type":"constructor"},{"inputs":[],"name":"AlreadyRevealed","type":"error"},{"inputs":[],"name":"CommitmentNotFound","type":"error"},{"inputs":[],"name":"InvalidChoice","type":"error"},{"inputs":[],"name":"InvalidMerkleRoot","type":"error"},{"inputs":[],"name":"InvalidProof","type":"error"},{"inputs":[],"name":"InvalidReveal","type":"error"},{"inputs":[],"name":"NotInCommitPhase","type":"error"},{"inputs":[],"name":"NotInRevealPhase","type":"error"},{"inputs":[],"name":"NotProposer","type":"error"},{"inputs":[],"name":"NullifierAlreadyUsed","type":"error"},{"inputs":[],"name":"ProposalHasVotes","type":"error"},{"inputs":[],"name":"ProposalNotFound","type":"error"},{"inputs":[],"name":"ZeroVotingPower","type":"error"},{"anonymous":false,"inputs":[{"indexed":true,"internalType":"uint256","name":"merkleRoot","type":"uint256"},{"indexed":false,"internalType":"uint256","name":"timestamp","type":"uint256"}],"name":"MerkleRootRegistered","type":"event"},{"anonymous":false,"inputs":[{"indexed":true,"internalType":"uint256","name":"proposalId","type":"uint256"},{"indexed":false,"internalType":"string","name":"title","type":"string"},{"indexed":true,"internalType":"address","name":"proposer","type":"address"},{"indexed":false,"internalType":"uint256","name":"merkleRoot","type":"uint256"},{"indexed":false,"internalType":"uint256","name":"endTime","type":"uint256"},{"indexed":false,"internalType":"uint256","name":"revealEndTime","type":"uint256"}],"name":"ProposalCreated","type":"event"},{"anonymous":false,"inputs":[{"indexed":true,"internalType":"uint256","name":"proposalId","type":"uint256"},{"indexed":true,"internalType":"uint256","name":"nullifier","type":"uint256"},{"indexed":false,"internalType":"uint256","name":"commitment","type":"uint256"},{"indexed":false,"internalType":"uint256","name":"votingPower","type":"uint256"}],"name":"VoteCommitted","type":"event"},{"anonymous":false,"inputs":[{"indexed":true,"internalType":"uint256","name":"proposalId","type":"uint256"},{"indexed":true,"internalType":"uint256","name":"nullifier","type":"uint256"},{"indexed":false,"internalType":"uint256","name":"choice","type":"uint256"},{"indexed":false,"internalType":"uint256","name":"votingPower","type":"uint256"}],"name":"VoteRevealed","type":"event"},{"anonymous":false,"inputs":[{"indexed":true,"internalType":"uint256","name":"noteHash","type":"uint256"},{"indexed":false,"internalType":"uint256","name":"timestamp","type":"uint256"}],"name":"VoterRegistered","type":"event"},{"inputs":[],"name":"CHOICE_ABSTAIN","outputs":[{"internalType":"uint256","name":"","type":"uint256"}],"stateMutability":"view","type":"function"},{"inputs":[],"name":"CHOICE_AGAINST","outputs":[{"internalType":"uint256","name":"","type":"uint256"}],"stateMutability":"view","type":"function"},{"inputs":[],"name":"CHOICE_FOR","outputs":[{"internalType":"uint256","name":"","type":"uint256"}],"stateMutability":"view","type":"function"},{"inputs":[{"internalType":"uint256","name":"_proposalId","type":"uint256"},{"internalType":"uint256","name":"_commitment","type":"uint256"},{"internalType":"uint256","name":"_votingPower","type":"uint256"},{"internalType":"uint256","name":"_nullifier","type":"uint256"},{"internalType":"uint256[2]","name":"_pA","type":"uint256[2]"},{"internalType":"uint256[2][2]","name":"_pB","type":"uint256[2][2]"},{"internalType":"uint256[2]","name":"_pC","type":"uint256[2]"}],"name":"commitVote","outputs":[],"stateMutability":"nonpayable","type":"function"},{"inputs":[{"internalType":"uint256","name":"","type":"uint256"},{"internalType":"uint256","name":"","type":"uint256"}],"name":"commitments","outputs":[{"internalType":"uint256","name":"commitment","type":"uint256"},{"internalType":"uint256","name":"votingPower","type":"uint256"},{"internalType":"uint256","name":"nullifier","type":"uint256"},{"internalType":"uint256","name":"timestamp","type":"uint256"},{"internalType":"bool","name":"revealed","type":"bool"},{"internalType":"uint256","name":"revealedChoice","type":"uint256"},{"internalType":"bool","name":"exists","type":"bool"}],"stateMutability":"view","type":"function"},{"inputs":[{"internalType":"string","name":"_title","type":"string"},{"internalType":"string","name":"_description","type":"string"},{"internalType":"uint256","name":"_merkleRoot","type":"uint256"},{"internalType":"uint256","name":"_votingDuration","type":"uint256"},{"internalType":"uint256","name":"_revealDuration","type":"uint256"}],"name":"createProposal","outputs":[{"internalType":"uint256","name":"","type":"uint256"}],"stateMutability":"nonpayable","type":"function"},{"inputs":[{"internalType":"uint256","name":"_proposalId","type":"uint256"}],"name":"deleteProposal","outputs":[],"stateMutability":"nonpayable","type":"function"},{"inputs":[{"internalType":"uint256","name":"_proposalId","type":"uint256"},{"internalType":"uint256","name":"_nullifier","type":"uint256"}],"name":"getCommitment","outputs":[{"internalType":"uint256","name":"commitment","type":"uint256"},{"internalType":"uint256","name":"votingPower","type":"uint256"},{"internalType":"bool","name":"revealed","type":"bool"},{"internalType":"uint256","name":"revealedChoice","type":"uint256"}],"stateMutability":"view","type":"function"},{"inputs":[],"name":"getMerkleRoots","outputs":[{"internalType":"uint256[]","name":"","type":"uint256[]"}],"stateMutability":"view","type":"function"},{"inputs":[{"internalType":"uint256","name":"_proposalId","type":"uint256"}],"name":"getPhase","outputs":[{"internalType":"uint8","name":"","type":"uint8"}],"stateMutability":"view","type":"function"},{"inputs":[{"internalType":"uint256","name":"_proposalId","type":"uint256"}],"name":"getProposal","outputs":[{"internalType":"uint256","name":"id","type":"uint256"},{"internalType":"string","name":"title","type":"string"},{"internalType":"string","name":"description","type":"string"},{"internalType":"address","name":"proposer","type":"address"},{"internalType":"uint256","name":"merkleRoot","type":"uint256"},{"internalType":"uint256","name":"endTime","type":"uint256"},{"internalType":"uint256","name":"revealEndTime","type":"uint256"},{"internalType":"uint256","name":"forVotes","type":"uint256"},{"internalType":"uint256","name":"againstVotes","type":"uint256"},{"internalType":"uint256","name":"abstainVotes","type":"uint256"},{"internalType":"uint256","name":"totalCommitments","type":"uint256"},{"internalType":"uint256","name":"revealedVotes","type":"uint256"},{"internalType":"uint8","name":"phase","type":"uint8"}],"stateMutability":"view","type":"function"},{"inputs":[{"internalType":"uint256","name":"_proposalId","type":"uint256"}],"name":"getProposalVoterSnapshot","outputs":[{"internalType":"uint256[]","name":"","type":"uint256[]"}],"stateMutability":"view","type":"function"},{"inputs":[],"name":"getRegisteredVoters","outputs":[{"internalType":"uint256[]","name":"","type":"uint256[]"}],"stateMutability":"view","type":"function"},{"inputs":[],"name":"getVoterCount","outputs":[{"internalType":"uint256","name":"","type":"uint256"}],"stateMutability":"view","type":"function"},{"inputs":[{"internalType":"uint256","name":"_merkleRoot","type":"uint256"}],"name":"isMerkleRootValid","outputs":[{"internalType":"bool","name":"","type":"bool"}],"stateMutability":"view","type":"function"},{"inputs":[{"internalType":"uint256","name":"_proposalId","type":"uint256"},{"internalType":"uint256","name":"_nullifier","type":"uint256"}],"name":"isNullifierUsed","outputs":[{"internalType":"bool","name":"","type":"bool"}],"stateMutability":"view","type":"function"},{"inputs":[{"internalType":"uint256","name":"","type":"uint256"}],"name":"isVoterRegistered","outputs":[{"internalType":"bool","name":"","type":"bool"}],"stateMutability":"view","type":"function"},{"inputs":[{"internalType":"uint256","name":"","type":"uint256"}],"name":"merkleRootHistory","outputs":[{"internalType":"uint256","name":"","type":"uint256"}],"stateMutability":"view","type":"function"},{"inputs":[{"internalType":"uint256","name":"","type":"uint256"},{"internalType":"uint256","name":"","type":"uint256"}],"name":"nullifierUsed","outputs":[{"internalType":"bool","name":"","type":"bool"}],"stateMutability":"view","type":"function"},{"inputs":[],"name":"proposalCount","outputs":[{"internalType":"uint256","name":"","type":"uint256"}],"stateMutability":"view","type":"function"},{"inputs":[{"internalType":"uint256","name":"","type":"uint256"},{"internalType":"uint256","name":"","type":"uint256"}],"name":"proposalVoterSnapshots","outputs":[{"internalType":"uint256","name":"","type":"uint256"}],"stateMutability":"view","type":"function"},{"inputs":[{"internalType":"uint256","name":"","type":"uint256"}],"name":"proposals","outputs":[{"internalType":"uint256","name":"id","type":"uint256"},{"internalType":"string","name":"title","type":"string"},{"internalType":"string","name":"description","type":"string"},{"internalType":"address","name":"proposer","type":"address"},{"internalType":"uint256","name":"startTime","type":"uint256"},{"internalType":"uint256","name":"endTime","type":"uint256"},{"internalType":"uint256","name":"revealEndTime","type":"uint256"},{"internalType":"uint256","name":"merkleRoot","type":"uint256"},{"internalType":"uint256","name":"forVotes","type":"uint256"},{"internalType":"uint256","name":"againstVotes","type":"uint256"},{"internalType":"uint256","name":"abstainVotes","type":"uint256"},{"internalType":"uint256","name":"totalCommitments","type":"uint256"},{"internalType":"uint256","name":"revealedVotes","type":"uint256"},{"internalType":"bool","name":"exists","type":"bool"}],"stateMutability":"view","type":"function"},{"inputs":[{"internalType":"uint256","name":"_merkleRoot","type":"uint256"}],"name":"registerMerkleRoot","outputs":[],"stateMutability":"nonpayable","type":"function"},{"inputs":[{"internalType":"uint256","name":"_noteHash","type":"uint256"}],"name":"registerVoter","outputs":[],"stateMutability":"nonpayable","type":"function"},{"inputs":[{"internalType":"uint256","name":"","type":"uint256"}],"name":"registeredVoters","outputs":[{"internalType":"uint256","name":"","type":"uint256"}],"stateMutability":"view","type":"function"},{"inputs":[{"internalType":"uint256","name":"_proposalId","type":"uint256"},{"internalType":"uint256","name":"_nullifier","type":"uint256"},{"internalType":"uint256","name":"_choice","type":"uint256"},{"internalType":"uint256","name":"_voteSalt","type":"uint256"}],"name":"revealVote","outputs":[],"stateMutability":"nonpayable","type":"function"},{"inputs":[{"internalType":"uint256","name":"_proposalId","type":"uint256"},{"internalType":"uint256","name":"_newMerkleRoot","type":"uint256"}],"name":"updateProposalVoters","outputs":[],"stateMutability":"nonpayable","type":"function"},{"inputs":[{"internalType":"uint256","name":"","type":"uint256"}],"name":"validMerkleRoots","outputs":[{"internalType":"bool","name":"","type":"bool"}],"stateMutability":"view","type":"function"},{"inputs":[],"name":"verifier","outputs":[{"internalType":"contract IVerifier","name":"","type":"address"}],"stateMutability":"view","type":"function"}],"evm":{"bytecode":{"linkReferences":{"contracts/PoseidonT5.sol":{"PoseidonT5":[{"length":20,"start":1556}]}},"object":"60a03461007357601f6119fb38819003918201601f19168301916001600160401b038311848410176100785780849260209460405283398101031261007357516001600160a01b038116908190036100735760805260405161196c908161008f8239608051818181610b9a01526113650152f35b600080fd5b634e487b7160e01b600052604160045260246000fdfe6080604052600436101561001257600080fd5b60003560e01c8063013cf08b1461140457806311174a29146113e657806316ef376b146113bd5780632436e06b146113945780632b7ac3f31461134f5780632bc4a6e7146112d45780632c5317c01461129557806333423c0614610d975780634a9284fb1461025057806351fce2e614610a785780636d3cba6114610a475780637164f0d6146109ed5780638259d5531461091057806385135a1a1461089557806385c742961461015b5780638ea7a27414610879578063a13f2f8d1461085d578063a4cae8f8146107fb578063aa6098481461070b578063b30c510b14610499578063b5770c331461047d578063b5ad92151461042c578063b7190516146103af578063c7f758a814610281578063cb1bb03314610250578063d13e2e60146101d2578063d90292a3146101b6578063da35c664146101985763e78ffc961461015b57600080fd5b3461019357610169366116df565b906000526003602052604060002090600052602052602060ff604060002054166040519015158152f35b600080fd5b34610193576000366003190112610193576020600054604051908152f35b3461019357600036600319011261019357602060405160028152f35b34610193576101e0366116df565b90600052600260205260406000209060005260205260e060406000208054906001810154906002810154600382015460ff6004840154169160ff6006600586015495015416946040519687526020870152604086015260608501521515608084015260a0830152151560c0820152f35b34610193576020366003190112610193576004356000526004602052602060ff604060002054166040519015158152f35b34610193576020366003190112610193576004356000526001602052604060002060ff600d820154161561039d576005810154428110610382576000905b825491600160a01b600190036003850154169160078501549060068601546008870154600988015490600a89015492600b8a015494600c8b01549660018c0161030790611559565b9b60020161031490611559565b6040519c8d809d6101a09182918152602001528d01610332916115fe565b8c810360408e0152610343916115fe565b9960608c015260808b015260a08a015260c089015260e088015261010087015261012086015261014085015261016084015260ff166101808301520390f35b60068201544211610395576001906102bf565b6002906102bf565b60405163635e873760e01b8152600490fd5b34610193576020806003193601126101935760043560005260086020526040600020906040519081602084549182815201936000526020600020916000905b828210610415576104118561040581890382611537565b604051918291826116a3565b0390f35b8354865294850194600193840193909101906103ee565b34610193576020366003190112610193576004356005548110156101935760209060056000527f036b6384b5eca791c62761152d0c79bb0604c104a5fb6f4eb0703f3154bb3db00154604051908152f35b3461019357600036600319011261019357602060405160008152f35b3461019357608036600319011261019357600435602435906044358160005260016020916001835260406000209260028152604060002086600052815260406000209260ff600d860154161561039d5760058501544211156106f957600685015442116106f95760ff600685015416156106e7576004840160ff8154166106d557600284116106c3576040516080810181811067ffffffffffffffff8211176106ad5760405284815260018601928354858301528860408301526064356060830152604051916321c2736360e21b8352600483016000905b876004831061069b5793505050508160848173__$0daf1669a85ce10529e05b8a030b9567e1$__5af490811561068f57600091610662575b50855403610650577fa8b3b9b1cdff40715f0311250e16b2a920dcd19105796dc1d4258b8163c5a3fa95846005604097600c94600160ff1982541617905501556001851460001461062257825461060560088301918254611789565b90555b016106138154611764565b905554908351928352820152a3005b8461063f57825461063860098301918254611789565b9055610608565b8254610638600a8301918254611789565b604051639ea6d12760e01b8152600490fd5b90508381813d8311610688575b6106798183611537565b810103126101935751896105a9565b503d61066f565b6040513d6000823e3d90fd5b83518252928301929184019101610571565b634e487b7160e01b600052604160045260246000fd5b604051639c45400160e01b8152600490fd5b60405163a89ac15160e01b8152600490fd5b604051635b34156960e11b8152600490fd5b6040516374683d7160e01b8152600490fd5b3461019357610719366116df565b9080600052600190602090600160205260406000209160ff600d840154161561039d57846007859401558160005260089160086020526040600020805460008255806107df575b50506000935b6107a1575b505050505080600052600460205260406000209081549160ff83161561078d57005b600161079f9360ff19161790556117f4565b005b6006548410156107da57848094826000528484526107d360406000206107c68361163e565b90549060031b1c9061183c565b0193610766565b61076b565b6107f4916000526020600020908101906117dd565b8680610760565b34610193576020366003190112610193576004358060005260046020526040600020600160ff19825416179055610831816117f4565b7fcb23ed79d0d407699762f186152925a6b8dd62fc4b2223f50a16534af8c883f86020604051428152a2005b346101935760203660031901126101935761079f6004356118c1565b3461019357600036600319011261019357602060405160018152f35b3461019357600036600319011261019357604051806005549182815260208091019260056000527f036b6384b5eca791c62761152d0c79bb0604c104a5fb6f4eb0703f3154bb3db0916000905b8282106108f9576104118561040581890382611537565b8354865294850194600193840193909101906108e2565b3461019357602036600319011261019357600435806000526001602052604060002060ff600d820154161561039d5760038101546001600160a01b031633036109db57600b01546109c95760005260016020526000600d6040822082815561097a60018201611878565b61098660028201611878565b82600382015582600482015582600582015582600682015582600782015582600882015582600982015582600a82015582600b82015582600c8201550155600080f35b60405163811e73ff60e01b8152600490fd5b604051637d1b73b960e01b8152600490fd5b34610193576109fb366116df565b90600052600260205260406000209060005260205260806040600020805490600181015490600560ff600483015416910154916040519384526020840152151560408301526060820152f35b34610193576020366003190112610193576004356000526007602052602060ff604060002054166040519015158152f35b3461019357610180366003190112610193576064356004356044356024353660c41161019357610144903682116101935736610184116101935783600052600192602084815260406000209360ff600d860154161561039d5760059060058601544211610d85578760005260038352604060002089600052835260ff60406000205416610d73578315610d615760405167ffffffffffffffff929060a08101848111828210176106ad576040528a8152868582015289604082015285606082015260078801546080820152604051926334baeab960e01b845260406084600486013760c460008b604487015b60028310610d4b575050505060409060c4850137600090898661010486015b858510610d36575093508492506101a491508290507f00000000000000000000000000000000000000000000000000000000000000006001600160a01b03165afa90811561068f57600091610d00575b5015610cee578660005260038252604060002088600052825260406000208660ff198254161790556040519460e0860191868310908311176106ad57610cd660409660068a86610cba8e7f816254a0f23b2b8d4a1d9574bd8a5adabe872881137f71912e7c52e0c6f179df9d600b998e528c8752838701908c82528e880190838252606089019242845260808a01946000865260a08b01976000895260c08c0199848b526000526002815260406000209160005252604060002099518a555190890155516002880155516003870155511515600486019060ff801983541691151516179055565b51600584015551151591019060ff801983541691151516179055565b01610ce18154611764565b90558351928352820152a3005b6040516309bde33960e01b8152600490fd5b90508281813d8311610d2f575b610d178183611537565b81010312610193575180151581036101935789610bd3565b503d610d0d565b81908451815201920192019190868b91610b83565b6040818186819437019301910190918c90610b64565b6040516343c891cf60e11b8152600490fd5b604051636569570160e11b8152600490fd5b60405163abfb7dc360e01b8152600490fd5b346101935760a03660031901126101935760043567ffffffffffffffff811161019357610dc89036906004016116f5565b60243567ffffffffffffffff811161019357610de89036906004016116f5565b604435600052600460205260ff604060002054161561128357610e0c600054611764565b9081600055610e1d60643542611789565b610e34608435610e2f60643542611789565b611789565b9160405194856101c081011067ffffffffffffffff6101c0880111176106ad57610e7a916101c08701604052858752610e6e36898b611796565b60208801523691611796565b604085015233606085015242608085015260a084015260c083015260443560e08301526000610100830152600061012083015260006101408301526000610160830152600061018083015260016101a083015280600052600160205260406000209282518455602083015180519067ffffffffffffffff82116106ad57610f0460018701546114fd565b601f811161124e575b50602090601f83116001146111dc57610f3f92916000918361111f575b50508160011b916000199060031b1c19161790565b60018501555b604083015180519067ffffffffffffffff82116106ad57610f6960028701546114fd565b601f811161119c575b50602090601f831160011461112a57610fa392916000918361111f5750508160011b916000199060031b1c19161790565b60028501555b6003946003850160018060a01b036060860151166bffffffffffffffffffffffff60a01b8254161790556080840151600486015560a0840151600586015561105760069560c0860151600682015560e08601516007820155600d6101a060089761010081015160088501556101208101516009850155610140810151600a850155610160810151600b850155610180810151600c8501550151151591019060ff801983541691151516179055565b60005b855481101561109157600190846000528560205261108b604060002061107f8361163e565b9054908b1b1c9061183c565b0161105a565b60208484817f28528fa183090d38f4c35574bb13fb455a547bda31d9bc9520957c9558f52f8e866110c460643542611789565b6110d6608435610e2f60643542611789565b9085604051936080855281608086015260a0850137600060a08785010152604435888401526040830152606082015260a0813395601f80199101168101030190a3604051908152f35b015190508880610f2a565b9190600287016000526020600020906000935b601f1984168510611181576001945083601f19811610611168575b505050811b016002850155610fa9565b015160001960f88460031b161c19169055878080611158565b8181015183556020948501946001909301929091019061113d565b6111cc90600288016000526020600020601f850160051c810191602086106111d2575b601f0160051c01906117dd565b87610f72565b90915081906111bf565b9190600187016000526020600020906000935b601f1984168510611233576001945083601f1981161061121a575b505050811b016001850155610f45565b015160001960f88460031b161c1916905587808061120a565b818101518355602094850194600190930192909101906111ef565b61127d90600188016000526020600020601f850160051c810191602086106111d257601f0160051c01906117dd565b87610f0d565b604051639dd854d360e01b8152600490fd5b34610193576112a3366116df565b90600052600860205260406000208054821015610193576020916112c69161168b565b90546040519160031b1c8152f35b3461019357600036600319011261019357604051806006549182815260208091019260066000527ff652222313e28459528d920b65115c16c04f3efc82aaedc97be59f3f377c0d3f916000905b828210611338576104118561040581890382611537565b835486529485019460019384019390910190611321565b34610193576000366003190112610193576040517f00000000000000000000000000000000000000000000000000000000000000006001600160a01b03168152602090f35b3461019357602036600319011261019357600435600654811015610193576112c660209161163e565b346101935760203660031901126101935760206113db600435611723565b60ff60405191168152f35b34610193576000366003190112610193576020600654604051908152f35b34610193576020366003190112610193576004356000526001602052604060002080546001820161143490611559565b9161144160028201611559565b600160a01b60019003600383015416916004810154600582015460068301546007840154600885015490600986015492600a87015494600b88015496600c89015498600d015460ff16996040519d8e9d8e6101c0918152816020820152016114a8916115fe565b8d810360408f01526114b9916115fe565b9a60608d015260808c015260a08b015260c08a015260e089015261010088015261012087015261014086015261016085015261018084015215156101a08301520390f35b90600182811c9216801561152d575b602083101461151757565b634e487b7160e01b600052602260045260246000fd5b91607f169161150c565b90601f8019910116810190811067ffffffffffffffff8211176106ad57604052565b9060405191826000825461156c816114fd565b908184526020946001916001811690816000146115dc575060011461159d575b50505061159b92500383611537565b565b600090815285812095935091905b8183106115c457505061159b935082010138808061158c565b855488840185015294850194879450918301916115ab565b9250505061159b94925060ff191682840152151560051b82010138808061158c565b919082519283825260005b84811061162a575050826000602080949584010152601f8019910116010190565b602081830181015184830182015201611609565b6006548110156116755760066000527ff652222313e28459528d920b65115c16c04f3efc82aaedc97be59f3f377c0d3f0190600090565b634e487b7160e01b600052603260045260246000fd5b80548210156116755760005260206000200190600090565b602090602060408183019282815285518094520193019160005b8281106116cb575050505090565b8351855293810193928101926001016116bd565b6040906003190112610193576004359060243590565b9181601f840112156101935782359167ffffffffffffffff8311610193576020838186019501011161019357565b6000526001602052604060002060ff600d820154161561039d57600581015442111561175e576006015442111561175957600290565b600190565b50600090565b60001981146117735760010190565b634e487b7160e01b600052601160045260246000fd5b9190820180921161177357565b92919267ffffffffffffffff82116106ad57604051916117c0601f8201601f191660200184611537565b829481845281830111610193578281602093846000960137010152565b8181106117e8575050565b600081556001016117dd565b600554600160401b8110156106ad5760018101806005558110156116755760056000527f036b6384b5eca791c62761152d0c79bb0604c104a5fb6f4eb0703f3154bb3db00155565b90815491600160401b8310156106ad578261185f91600161159b9501815561168b565b90919082549060031b91821b91600019901b1916179055565b61188281546114fd565b908161188c575050565b81601f6000931160011461189e575055565b9080839182526118bd601f60208420940160051c8401600185016117dd565b5555565b8060005260076020526040600020805460ff81166119315760ff19166001179055600654600160401b8110156106ad578161185f826001611905940160065561163e565b7f85238313f6b4aa1ea470340fc24bc06d68e734cd21411160c06714eb547571af6020604051428152a2565b50505056fea2646970667358221220b2e88baf019982be29f68d0ed44f6133851230c5283817c60d825df9229130d364736f6c63430008180033","opcodes":"PUSH1 0xA0 CALLVALUE PUSH2 0x73 JUMPI PUSH1 0x1F PUSH2 0x19FB CODESIZE DUP2 SWAP1 SUB SWAP2 DUP3 ADD PUSH1 0x1F NOT AND DUP4 ADD SWAP2 PUSH1 0x1 PUSH1 0x1 PUSH1 0x40 SHL SUB DUP4 GT DUP5 DUP5 LT OR PUSH2 0x78 JUMPI DUP1 DUP5 SWAP3 PUSH1 0x20 SWAP5 PUSH1 0x40 MSTORE DUP4 CODECOPY DUP2 ADD SUB SLT PUSH2 0x73 JUMPI MLOAD PUSH1 0x1 PUSH1 0x1 PUSH1 0xA0 SHL SUB DUP2 AND SWAP1 DUP2 SWAP1 SUB PUSH2 0x73 JUMPI PUSH1 0x80 MSTORE PUSH1 0x40 MLOAD PUSH2 0x196C SWAP1 DUP2 PUSH2 0x8F DUP3 CODECOPY PUSH1 0x80 MLOAD DUP2 DUP2 DUP2 PUSH2 0xB9A ADD MSTORE PUSH2 0x1365 ADD MSTORE RETURN JUMPDEST PUSH1 0x0 DUP1 REVERT JUMPDEST PUSH4 0x4E487B71 PUSH1 0xE0 SHL PUSH1 0x0 MSTORE PUSH1 0x41 PUSH1 0x4 MSTORE PUSH1 0x24 PUSH1 0x0 REVERT INVALID PUSH1 0x80 PUSH1 0x40 MSTORE PUSH1 0x4 CALLDATASIZE LT ISZERO PUSH2 0x12 JUMPI PUSH1 0x0 DUP1 REVERT JUMPDEST PUSH1 0x0 CALLDATALOAD PUSH1 0xE0 SHR DUP1 PUSH4 0x13CF08B EQ PUSH2 0x1404 JUMPI DUP1 PUSH4 0x11174A29 EQ PUSH2 0x13E6 JUMPI DUP1 PUSH4 0x16EF376B EQ PUSH2 0x13BD JUMPI DUP1 PUSH4 0x2436E06B EQ PUSH2 0x1394 JUMPI DUP1 PUSH4 0x2B7AC3F3 EQ PUSH2 0x134F JUMPI DUP1 PUSH4 0x2BC4A6E7 EQ PUSH2 0x12D4 JUMPI DUP1 PUSH4 0x2C5317C0 EQ PUSH2 0x1295 JUMPI DUP1 PUSH4 0x33423C06 EQ PUSH2 0xD97 JUMPI DUP1 PUSH4 0x4A9284FB EQ PUSH2 0x250 JUMPI DUP1 PUSH4 0x51FCE2E6 EQ PUSH2 0xA78 JUMPI DUP1 PUSH4 0x6D3CBA61 EQ PUSH2 0xA47 JUMPI DUP1 PUSH4 0x7164F0D6 EQ PUSH2 0x9ED JUMPI DUP1 PUSH4 0x8259D553 EQ PUSH2 0x910 JUMPI DUP1 PUSH4 0x85135A1A EQ PUSH2 0x895 JUMPI DUP1 PUSH4 0x85C74296 EQ PUSH2 0x15B JUMPI DUP1 PUSH4 0x8EA7A274 EQ PUSH2 0x879 JUMPI DUP1 PUSH4 0xA13F2F8D EQ PUSH2 0x85D JUMPI DUP1 PUSH4 0xA4CAE8F8 EQ PUSH2 0x7FB JUMPI DUP1 PUSH4 0xAA609848 EQ PUSH2 0x70B JUMPI DUP1 PUSH4 0xB30C510B EQ PUSH2 0x499 JUMPI DUP1 PUSH4 0xB5770C33 EQ PUSH2 0x47D JUMPI DUP1 PUSH4 0xB5AD9215 EQ PUSH2 0x42C JUMPI DUP1 PUSH4 0xB7190516 EQ PUSH2 0x3AF JUMPI DUP1 PUSH4 0xC7F758A8 EQ PUSH2 0x281 JUMPI DUP1 PUSH4 0xCB1BB033 EQ PUSH2 0x250 JUMPI DUP1 PUSH4 0xD13E2E60 EQ PUSH2 0x1D2 JUMPI DUP1 PUSH4 0xD90292A3 EQ PUSH2 0x1B6 JUMPI DUP1 PUSH4 0xDA35C664 EQ PUSH2 0x198 JUMPI PUSH4 0xE78FFC96 EQ PUSH2 0x15B JUMPI PUSH1 0x0 DUP1 REVERT JUMPDEST CALLVALUE PUSH2 0x193 JUMPI PUSH2 0x169 CALLDATASIZE PUSH2 0x16DF JUMP JUMPDEST SWAP1 PUSH1 0x0 MSTORE PUSH1 0x3 PUSH1 0x20 MSTORE PUSH1 0x40 PUSH1 0x0 KECCAK256 SWAP1 PUSH1 0x0 MSTORE PUSH1 0x20 MSTORE PUSH1 0x20 PUSH1 0xFF PUSH1 0x40 PUSH1 0x0 KECCAK256 SLOAD AND PUSH1 0x40 MLOAD SWAP1 ISZERO ISZERO DUP2 MSTORE RETURN JUMPDEST PUSH1 0x0 DUP1 REVERT JUMPDEST CALLVALUE PUSH2 0x193 JUMPI PUSH1 0x0 CALLDATASIZE PUSH1 0x3 NOT ADD SLT PUSH2 0x193 JUMPI PUSH1 0x20 PUSH1 0x0 SLOAD PUSH1 0x40 MLOAD SWAP1 DUP2 MSTORE RETURN JUMPDEST CALLVALUE PUSH2 0x193 JUMPI PUSH1 0x0 CALLDATASIZE PUSH1 0x3 NOT ADD SLT PUSH2 0x193 JUMPI PUSH1 0x20 PUSH1 0x40 MLOAD PUSH1 0x2 DUP2 MSTORE RETURN JUMPDEST CALLVALUE PUSH2 0x193 JUMPI PUSH2 0x1E0 CALLDATASIZE PUSH2 0x16DF JUMP JUMPDEST SWAP1 PUSH1 0x0 MSTORE PUSH1 0x2 PUSH1 0x20 MSTORE PUSH1 0x40 PUSH1 0x0 KECCAK256 SWAP1 PUSH1 0x0 MSTORE PUSH1 0x20 MSTORE PUSH1 0xE0 PUSH1 0x40 PUSH1 0x0 KECCAK256 DUP1 SLOAD SWAP1 PUSH1 0x1 DUP2 ADD SLOAD SWAP1 PUSH1 0x2 DUP2 ADD SLOAD PUSH1 0x3 DUP3 ADD SLOAD PUSH1 0xFF PUSH1 0x4 DUP5 ADD SLOAD AND SWAP2 PUSH1 0xFF PUSH1 0x6 PUSH1 0x5 DUP7 ADD SLOAD SWAP6 ADD SLOAD AND SWAP5 PUSH1 0x40 MLOAD SWAP7 DUP8 MSTORE PUSH1 0x20 DUP8 ADD MSTORE PUSH1 0x40 DUP7 ADD MSTORE PUSH1 0x60 DUP6 ADD MSTORE ISZERO ISZERO PUSH1 0x80 DUP5 ADD MSTORE PUSH1 0xA0 DUP4 ADD MSTORE ISZERO ISZERO PUSH1 0xC0 DUP3 ADD MSTORE RETURN JUMPDEST CALLVALUE PUSH2 0x193 JUMPI PUSH1 0x20 CALLDATASIZE PUSH1 0x3 NOT ADD SLT PUSH2 0x193 JUMPI PUSH1 0x4 CALLDATALOAD PUSH1 0x0 MSTORE PUSH1 0x4 PUSH1 0x20 MSTORE PUSH1 0x20 PUSH1 0xFF PUSH1 0x40 PUSH1 0x0 KECCAK256 SLOAD AND PUSH1 0x40 MLOAD SWAP1 ISZERO ISZERO DUP2 MSTORE RETURN JUMPDEST CALLVALUE PUSH2 0x193 JUMPI PUSH1 0x20 CALLDATASIZE PUSH1 0x3 NOT ADD SLT PUSH2 0x193 JUMPI PUSH1 0x4 CALLDATALOAD PUSH1 0x0 MSTORE PUSH1 0x1 PUSH1 0x20 MSTORE PUSH1 0x40 PUSH1 0x0 KECCAK256 PUSH1 0xFF PUSH1 0xD DUP3 ADD SLOAD AND ISZERO PUSH2 0x39D JUMPI PUSH1 0x5 DUP2 ADD SLOAD TIMESTAMP DUP2 LT PUSH2 0x382 JUMPI PUSH1 0x0 SWAP1 JUMPDEST DUP3 SLOAD SWAP2 PUSH1 0x1 PUSH1 0xA0 SHL PUSH1 0x1 SWAP1 SUB PUSH1 0x3 DUP6 ADD SLOAD AND SWAP2 PUSH1 0x7 DUP6 ADD SLOAD SWAP1 PUSH1 0x6 DUP7 ADD SLOAD PUSH1 0x8 DUP8 ADD SLOAD PUSH1 0x9 DUP9 ADD SLOAD SWAP1 PUSH1 0xA DUP10 ADD SLOAD SWAP3 PUSH1 0xB DUP11 ADD SLOAD SWAP5 PUSH1 0xC DUP12 ADD SLOAD SWAP7 PUSH1 0x1 DUP13 ADD PUSH2 0x307 SWAP1 PUSH2 0x1559 JUMP JUMPDEST SWAP12 PUSH1 0x2 ADD PUSH2 0x314 SWAP1 PUSH2 0x1559 JUMP JUMPDEST PUSH1 0x40 MLOAD SWAP13 DUP14 DUP1 SWAP14 PUSH2 0x1A0 SWAP2 DUP3 SWAP2 DUP2 MSTORE PUSH1 0x20 ADD MSTORE DUP14 ADD PUSH2 0x332 SWAP2 PUSH2 0x15FE JUMP JUMPDEST DUP13 DUP2 SUB PUSH1 0x40 DUP15 ADD MSTORE PUSH2 0x343 SWAP2 PUSH2 0x15FE JUMP JUMPDEST SWAP10 PUSH1 0x60 DUP13 ADD MSTORE PUSH1 0x80 DUP12 ADD MSTORE PUSH1 0xA0 DUP11 ADD MSTORE PUSH1 0xC0 DUP10 ADD MSTORE PUSH1 0xE0 DUP9 ADD MSTORE PUSH2 0x100 DUP8 ADD MSTORE PUSH2 0x120 DUP7 ADD MSTORE PUSH2 0x140 DUP6 ADD MSTORE PUSH2 0x160 DUP5 ADD MSTORE PUSH1 0xFF AND PUSH2 0x180 DUP4 ADD MSTORE SUB SWAP1 RETURN JUMPDEST PUSH1 0x6 DUP3 ADD SLOAD TIMESTAMP GT PUSH2 0x395 JUMPI PUSH1 0x1 SWAP1 PUSH2 0x2BF JUMP JUMPDEST PUSH1 0x2 SWAP1 PUSH2 0x2BF JUMP JUMPDEST PUSH1 0x40 MLOAD PUSH4 0x635E8737 PUSH1 0xE0 SHL DUP2 MSTORE PUSH1 0x4 SWAP1 REVERT JUMPDEST CALLVALUE PUSH2 0x193 JUMPI PUSH1 0x20 DUP1 PUSH1 0x3 NOT CALLDATASIZE ADD SLT PUSH2 0x193 JUMPI PUSH1 0x4 CALLDATALOAD PUSH1 0x0 MSTORE PUSH1 0x8 PUSH1 0x20 MSTORE PUSH1 0x40 PUSH1 0x0 KECCAK256 SWAP1 PUSH1 0x40 MLOAD SWAP1 DUP2 PUSH1 0x20 DUP5 SLOAD SWAP2 DUP3 DUP2 MSTORE ADD SWAP4 PUSH1 0x0 MSTORE PUSH1 0x20 PUSH1 0x0 KECCAK256 SWAP2 PUSH1 0x0 SWAP1 JUMPDEST DUP3 DUP3 LT PUSH2 0x415 JUMPI PUSH2 0x411 DUP6 PUSH2 0x405 DUP2 DUP10 SUB DUP3 PUSH2 0x1537 JUMP JUMPDEST PUSH1 0x40 MLOAD SWAP2 DUP3 SWAP2 DUP3 PUSH2 0x16A3 JUMP JUMPDEST SUB SWAP1 RETURN JUMPDEST DUP4 SLOAD DUP7 MSTORE SWAP5 DUP6 ADD SWAP5 PUSH1 0x1 SWAP4 DUP5 ADD SWAP4 SWAP1 SWAP2 ADD SWAP1 PUSH2 0x3EE JUMP JUMPDEST CALLVALUE PUSH2 0x193 JUMPI PUSH1 0x20 CALLDATASIZE PUSH1 0x3 NOT ADD SLT PUSH2 0x193 JUMPI PUSH1 0x4 CALLDATALOAD PUSH1 0x5 SLOAD DUP2 LT ISZERO PUSH2 0x193 JUMPI PUSH1 0x20 SWAP1 PUSH1 0x5 PUSH1 0x0 MSTORE PUSH32 0x36B6384B5ECA791C62761152D0C79BB0604C104A5FB6F4EB0703F3154BB3DB0 ADD SLOAD PUSH1 0x40 MLOAD SWAP1 DUP2 MSTORE RETURN JUMPDEST CALLVALUE PUSH2 0x193 JUMPI PUSH1 0x0 CALLDATASIZE PUSH1 0x3 NOT ADD SLT PUSH2 0x193 JUMPI PUSH1 0x20 PUSH1 0x40 MLOAD PUSH1 0x0 DUP2 MSTORE RETURN JUMPDEST CALLVALUE PUSH2 0x193 JUMPI PUSH1 0x80 CALLDATASIZE PUSH1 0x3 NOT ADD SLT PUSH2 0x193 JUMPI PUSH1 0x4 CALLDATALOAD PUSH1 0x24 CALLDATALOAD SWAP1 PUSH1 0x44 CALLDATALOAD DUP2 PUSH1 0x0 MSTORE PUSH1 0x1 PUSH1 0x20 SWAP2 PUSH1 0x1 DUP4 MSTORE PUSH1 0x40 PUSH1 0x0 KECCAK256 SWAP3 PUSH1 0x2 DUP2 MSTORE PUSH1 0x40 PUSH1 0x0 KECCAK256 DUP7 PUSH1 0x0 MSTORE DUP2 MSTORE PUSH1 0x40 PUSH1 0x0 KECCAK256 SWAP3 PUSH1 0xFF PUSH1 0xD DUP7 ADD SLOAD AND ISZERO PUSH2 0x39D JUMPI PUSH1 0x5 DUP6 ADD SLOAD TIMESTAMP GT ISZERO PUSH2 0x6F9 JUMPI PUSH1 0x6 DUP6 ADD SLOAD TIMESTAMP GT PUSH2 0x6F9 JUMPI PUSH1 0xFF PUSH1 0x6 DUP6 ADD SLOAD AND ISZERO PUSH2 0x6E7 JUMPI PUSH1 0x4 DUP5 ADD PUSH1 0xFF DUP2 SLOAD AND PUSH2 0x6D5 JUMPI PUSH1 0x2 DUP5 GT PUSH2 0x6C3 JUMPI PUSH1 0x40 MLOAD PUSH1 0x80 DUP2 ADD DUP2 DUP2 LT PUSH8 0xFFFFFFFFFFFFFFFF DUP3 GT OR PUSH2 0x6AD JUMPI PUSH1 0x40 MSTORE DUP5 DUP2 MSTORE PUSH1 0x1 DUP7 ADD SWAP3 DUP4 SLOAD DUP6 DUP4 ADD MSTORE DUP9 PUSH1 0x40 DUP4 ADD MSTORE PUSH1 0x64 CALLDATALOAD PUSH1 0x60 DUP4 ADD MSTORE PUSH1 0x40 MLOAD SWAP2 PUSH4 0x21C27363 PUSH1 0xE2 SHL DUP4 MSTORE PUSH1 0x4 DUP4 ADD PUSH1 0x0 SWAP1 JUMPDEST DUP8 PUSH1 0x4 DUP4 LT PUSH2 0x69B JUMPI SWAP4 POP POP POP POP DUP2 PUSH1 0x84 DUP2 PUSH20 0x0 GAS DELEGATECALL SWAP1 DUP2 ISZERO PUSH2 0x68F JUMPI PUSH1 0x0 SWAP2 PUSH2 0x662 JUMPI JUMPDEST POP DUP6 SLOAD SUB PUSH2 0x650 JUMPI PUSH32 0xA8B3B9B1CDFF40715F0311250E16B2A920DCD19105796DC1D4258B8163C5A3FA SWAP6 DUP5 PUSH1 0x5 PUSH1 0x40 SWAP8 PUSH1 0xC SWAP5 PUSH1 0x1 PUSH1 0xFF NOT DUP3 SLOAD AND OR SWAP1 SSTORE ADD SSTORE PUSH1 0x1 DUP6 EQ PUSH1 0x0 EQ PUSH2 0x622 JUMPI DUP3 SLOAD PUSH2 0x605 PUSH1 0x8 DUP4 ADD SWAP2 DUP3 SLOAD PUSH2 0x1789 JUMP JUMPDEST SWAP1 SSTORE JUMPDEST ADD PUSH2 0x613 DUP2 SLOAD PUSH2 0x1764 JUMP JUMPDEST SWAP1 SSTORE SLOAD SWAP1 DUP4 MLOAD SWAP3 DUP4 MSTORE DUP3 ADD MSTORE LOG3 STOP JUMPDEST DUP5 PUSH2 0x63F JUMPI DUP3 SLOAD PUSH2 0x638 PUSH1 0x9 DUP4 ADD SWAP2 DUP3 SLOAD PUSH2 0x1789 JUMP JUMPDEST SWAP1 SSTORE PUSH2 0x608 JUMP JUMPDEST DUP3 SLOAD PUSH2 0x638 PUSH1 0xA DUP4 ADD SWAP2 DUP3 SLOAD PUSH2 0x1789 JUMP JUMPDEST PUSH1 0x40 MLOAD PUSH4 0x9EA6D127 PUSH1 0xE0 SHL DUP2 MSTORE PUSH1 0x4 SWAP1 REVERT JUMPDEST SWAP1 POP DUP4 DUP2 DUP2 RETURNDATASIZE DUP4 GT PUSH2 0x688 JUMPI JUMPDEST PUSH2 0x679 DUP2 DUP4 PUSH2 0x1537 JUMP JUMPDEST DUP2 ADD SUB SLT PUSH2 0x193 JUMPI MLOAD DUP10 PUSH2 0x5A9 JUMP JUMPDEST POP RETURNDATASIZE PUSH2 0x66F JUMP JUMPDEST PUSH1 0x40 MLOAD RETURNDATASIZE PUSH1 0x0 DUP3 RETURNDATACOPY RETURNDATASIZE SWAP1 REVERT JUMPDEST DUP4 MLOAD DUP3 MSTORE SWAP3 DUP4 ADD SWAP3 SWAP2 DUP5 ADD SWAP2 ADD PUSH2 0x571 JUMP JUMPDEST PUSH4 0x4E487B71 PUSH1 0xE0 SHL PUSH1 0x0 MSTORE PUSH1 0x41 PUSH1 0x4 MSTORE PUSH1 0x24 PUSH1 0x0 REVERT JUMPDEST PUSH1 0x40 MLOAD PUSH4 0x9C454001 PUSH1 0xE0 SHL DUP2 MSTORE PUSH1 0x4 SWAP1 REVERT JUMPDEST PUSH1 0x40 MLOAD PUSH4 0xA89AC151 PUSH1 0xE0 SHL DUP2 MSTORE PUSH1 0x4 SWAP1 REVERT JUMPDEST PUSH1 0x40 MLOAD PUSH4 0x5B341569 PUSH1 0xE1 SHL DUP2 MSTORE PUSH1 0x4 SWAP1 REVERT JUMPDEST PUSH1 0x40 MLOAD PUSH4 0x74683D71 PUSH1 0xE0 SHL DUP2 MSTORE PUSH1 0x4 SWAP1 REVERT JUMPDEST CALLVALUE PUSH2 0x193 JUMPI PUSH2 0x719 CALLDATASIZE PUSH2 0x16DF JUMP JUMPDEST SWAP1 DUP1 PUSH1 0x0 MSTORE PUSH1 0x1 SWAP1 PUSH1 0x20 SWAP1 PUSH1 0x1 PUSH1 0x20 MSTORE PUSH1 0x40 PUSH1 0x0 KECCAK256 SWAP2 PUSH1 0xFF PUSH1 0xD DUP5 ADD SLOAD AND ISZERO PUSH2 0x39D JUMPI DUP5 PUSH1 0x7 DUP6 SWAP5 ADD SSTORE DUP2 PUSH1 0x0 MSTORE PUSH1 0x8 SWAP2 PUSH1 0x8 PUSH1 0x20 MSTORE PUSH1 0x40 PUSH1 0x0 KECCAK256 DUP1 SLOAD PUSH1 0x0 DUP3 SSTORE DUP1 PUSH2 0x7DF JUMPI JUMPDEST POP POP PUSH1 0x0 SWAP4 JUMPDEST PUSH2 0x7A1 JUMPI JUMPDEST POP POP POP POP POP DUP1 PUSH1 0x0 MSTORE PUSH1 0x4 PUSH1 0x20 MSTORE PUSH1 0x40 PUSH1 0x0 KECCAK256 SWAP1 DUP2 SLOAD SWAP2 PUSH1 0xFF DUP4 AND ISZERO PUSH2 0x78D JUMPI STOP JUMPDEST PUSH1 0x1 PUSH2 0x79F SWAP4 PUSH1 0xFF NOT AND OR SWAP1 SSTORE PUSH2 0x17F4 JUMP JUMPDEST STOP JUMPDEST PUSH1 0x6 SLOAD DUP5 LT ISZERO PUSH2 0x7DA JUMPI DUP5 DUP1 SWAP5 DUP3 PUSH1 0x0 MSTORE DUP5 DUP5 MSTORE PUSH2 0x7D3 PUSH1 0x40 PUSH1 0x0 KECCAK256 PUSH2 0x7C6 DUP4 PUSH2 0x163E JUMP JUMPDEST SWAP1 SLOAD SWAP1 PUSH1 0x3 SHL SHR SWAP1 PUSH2 0x183C JUMP JUMPDEST ADD SWAP4 PUSH2 0x766 JUMP JUMPDEST PUSH2 0x76B JUMP JUMPDEST PUSH2 0x7F4 SWAP2 PUSH1 0x0 MSTORE PUSH1 0x20 PUSH1 0x0 KECCAK256 SWAP1 DUP2 ADD SWAP1 PUSH2 0x17DD JUMP JUMPDEST DUP7 DUP1 PUSH2 0x760 JUMP JUMPDEST CALLVALUE PUSH2 0x193 JUMPI PUSH1 0x20 CALLDATASIZE PUSH1 0x3 NOT ADD SLT PUSH2 0x193 JUMPI PUSH1 0x4 CALLDATALOAD DUP1 PUSH1 0x0 MSTORE PUSH1 0x4 PUSH1 0x20 MSTORE PUSH1 0x40 PUSH1 0x0 KECCAK256 PUSH1 0x1 PUSH1 0xFF NOT DUP3 SLOAD AND OR SWAP1 SSTORE PUSH2 0x831 DUP2 PUSH2 0x17F4 JUMP JUMPDEST PUSH32 0xCB23ED79D0D407699762F186152925A6B8DD62FC4B2223F50A16534AF8C883F8 PUSH1 0x20 PUSH1 0x40 MLOAD TIMESTAMP DUP2 MSTORE LOG2 STOP JUMPDEST CALLVALUE PUSH2 0x193 JUMPI PUSH1 0x20 CALLDATASIZE PUSH1 0x3 NOT ADD SLT PUSH2 0x193 JUMPI PUSH2 0x79F PUSH1 0x4 CALLDATALOAD PUSH2 0x18C1 JUMP JUMPDEST CALLVALUE PUSH2 0x193 JUMPI PUSH1 0x0 CALLDATASIZE PUSH1 0x3 NOT ADD SLT PUSH2 0x193 JUMPI PUSH1 0x20 PUSH1 0x40 MLOAD PUSH1 0x1 DUP2 MSTORE RETURN JUMPDEST CALLVALUE PUSH2 0x193 JUMPI PUSH1 0x0 CALLDATASIZE PUSH1 0x3 NOT ADD SLT PUSH2 0x193 JUMPI PUSH1 0x40 MLOAD DUP1 PUSH1 0x5 SLOAD SWAP2 DUP3 DUP2 MSTORE PUSH1 0x20 DUP1 SWAP2 ADD SWAP3 PUSH1 0x5 PUSH1 0x0 MSTORE PUSH32 0x36B6384B5ECA791C62761152D0C79BB0604C104A5FB6F4EB0703F3154BB3DB0 SWAP2 PUSH1 0x0 SWAP1 JUMPDEST DUP3 DUP3 LT PUSH2 0x8F9 JUMPI PUSH2 0x411 DUP6 PUSH2 0x405 DUP2 DUP10 SUB DUP3 PUSH2 0x1537 JUMP JUMPDEST DUP4 SLOAD DUP7 MSTORE SWAP5 DUP6 ADD SWAP5 PUSH1 0x1 SWAP4 DUP5 ADD SWAP4 SWAP1 SWAP2 ADD SWAP1 PUSH2 0x8E2 JUMP JUMPDEST CALLVALUE PUSH2 0x193 JUMPI PUSH1 0x20 CALLDATASIZE PUSH1 0x3 NOT ADD SLT PUSH2 0x193 JUMPI PUSH1 0x4 CALLDATALOAD DUP1 PUSH1 0x0 MSTORE PUSH1 0x1 PUSH1 0x20 MSTORE PUSH1 0x40 PUSH1 0x0 KECCAK256 PUSH1 0xFF PUSH1 0xD DUP3 ADD SLOAD AND ISZERO PUSH2 0x39D JUMPI PUSH1 0x3 DUP2 ADD SLOAD PUSH1 0x1 PUSH1 0x1 PUSH1 0xA0 SHL SUB AND CALLER SUB PUSH2 0x9DB JUMPI PUSH1 0xB ADD SLOAD PUSH2 0x9C9 JUMPI PUSH1 0x0 MSTORE PUSH1 0x1 PUSH1 0x20 MSTORE PUSH1 0x0 PUSH1 0xD PUSH1 0x40 DUP3 KECCAK256 DUP3 DUP2 SSTORE PUSH2 0x97A PUSH1 0x1 DUP3 ADD PUSH2 0x1878 JUMP JUMPDEST PUSH2 0x986 PUSH1 0x2 DUP3 ADD PUSH2 0x1878 JUMP JUMPDEST DUP3 PUSH1 0x3 DUP3 ADD SSTORE DUP3 PUSH1 0x4 DUP3 ADD SSTORE DUP3 PUSH1 0x5 DUP3 ADD SSTORE DUP3 PUSH1 0x6 DUP3 ADD SSTORE DUP3 PUSH1 0x7 DUP3 ADD SSTORE DUP3 PUSH1 0x8 DUP3 ADD SSTORE DUP3 PUSH1 0x9 DUP3 ADD SSTORE DUP3 PUSH1 0xA DUP3 ADD SSTORE DUP3 PUSH1 0xB DUP3 ADD SSTORE DUP3 PUSH1 0xC DUP3 ADD SSTORE ADD SSTORE PUSH1 0x0 DUP1 RETURN JUMPDEST PUSH1 0x40 MLOAD PUSH4 0x811E73FF PUSH1 0xE0 SHL DUP2 MSTORE PUSH1 0x4 SWAP1 REVERT JUMPDEST PUSH1 0x40 MLOAD PUSH4 0x7D1B73B9 PUSH1 0xE0 SHL DUP2 MSTORE PUSH1 0x4 SWAP1 REVERT JUMPDEST CALLVALUE PUSH2 0x193 JUMPI PUSH2 0x9FB CALLDATASIZE PUSH2 0x16DF JUMP JUMPDEST SWAP1 PUSH1 0x0 MSTORE PUSH1 0x2 PUSH1 0x20 MSTORE PUSH1 0x40 PUSH1 0x0 KECCAK256 SWAP1 PUSH1 0x0 MSTORE PUSH1 0x20 MSTORE PUSH1 0x80 PUSH1 0x40 PUSH1 0x0 KECCAK256 DUP1 SLOAD SWAP1 PUSH1 0x1 DUP2 ADD SLOAD SWAP1 PUSH1 0x5 PUSH1 0xFF PUSH1 0x4 DUP4 ADD SLOAD AND SWAP2 ADD SLOAD SWAP2 PUSH1 0x40 MLOAD SWAP4 DUP5 MSTORE PUSH1 0x20 DUP5 ADD MSTORE ISZERO ISZERO PUSH1 0x40 DUP4 ADD MSTORE PUSH1 0x60 DUP3 ADD MSTORE RETURN JUMPDEST CALLVALUE PUSH2 0x193 JUMPI PUSH1 0x20 CALLDATASIZE PUSH1 0x3 NOT ADD SLT PUSH2 0x193 JUMPI PUSH1 0x4 CALLDATALOAD PUSH1 0x0 MSTORE PUSH1 0x7 PUSH1 0x20 MSTORE PUSH1 0x20 PUSH1 0xFF PUSH1 0x40 PUSH1 0x0 KECCAK256 SLOAD AND PUSH1 0x40 MLOAD SWAP1 ISZERO ISZERO DUP2 MSTORE RETURN JUMPDEST CALLVALUE PUSH2 0x193 JUMPI PUSH2 0x180 CALLDATASIZE PUSH1 0x3 NOT ADD SLT PUSH2 0x193 JUMPI PUSH1 0x64 CALLDATALOAD PUSH1 0x4 CALLDATALOAD PUSH1 0x44 CALLDATALOAD PUSH1 0x24 CALLDATALOAD CALLDATASIZE PUSH1 0xC4 GT PUSH2 0x193 JUMPI PUSH2 0x144 SWAP1 CALLDATASIZE DUP3 GT PUSH2 0x193 JUMPI CALLDATASIZE PUSH2 0x184 GT PUSH2 0x193 JUMPI DUP4 PUSH1 0x0 MSTORE PUSH1 0x1 SWAP3 PUSH1 0x20 DUP5 DUP2 MSTORE PUSH1 0x40 PUSH1 0x0 KECCAK256 SWAP4 PUSH1 0xFF PUSH1 0xD DUP7 ADD SLOAD AND ISZERO PUSH2 0x39D JUMPI PUSH1 0x5 SWAP1 PUSH1 0x5 DUP7 ADD SLOAD TIMESTAMP GT PUSH2 0xD85 JUMPI DUP8 PUSH1 0x0 MSTORE PUSH1 0x3 DUP4 MSTORE PUSH1 0x40 PUSH1 0x0 KECCAK256 DUP10 PUSH1 0x0 MSTORE DUP4 MSTORE PUSH1 0xFF PUSH1 0x40 PUSH1 0x0 KECCAK256 SLOAD AND PUSH2 0xD73 JUMPI DUP4 ISZERO PUSH2 0xD61 JUMPI PUSH1 0x40 MLOAD PUSH8 0xFFFFFFFFFFFFFFFF SWAP3 SWAP1 PUSH1 0xA0 DUP2 ADD DUP5 DUP2 GT DUP3 DUP3 LT OR PUSH2 0x6AD JUMPI PUSH1 0x40 MSTORE DUP11 DUP2 MSTORE DUP7 DUP6 DUP3 ADD MSTORE DUP10 PUSH1 0x40 DUP3 ADD MSTORE DUP6 PUSH1 0x60 DUP3 ADD MSTORE PUSH1 0x7 DUP9 ADD SLOAD PUSH1 0x80 DUP3 ADD MSTORE PUSH1 0x40 MLOAD SWAP3 PUSH4 0x34BAEAB9 PUSH1 0xE0 SHL DUP5 MSTORE PUSH1 0x40 PUSH1 0x84 PUSH1 0x4 DUP7 ADD CALLDATACOPY PUSH1 0xC4 PUSH1 0x0 DUP12 PUSH1 0x44 DUP8 ADD JUMPDEST PUSH1 0x2 DUP4 LT PUSH2 0xD4B JUMPI POP POP POP POP PUSH1 0x40 SWAP1 PUSH1 0xC4 DUP6 ADD CALLDATACOPY PUSH1 0x0 SWAP1 DUP10 DUP7 PUSH2 0x104 DUP7 ADD JUMPDEST DUP6 DUP6 LT PUSH2 0xD36 JUMPI POP SWAP4 POP DUP5 SWAP3 POP PUSH2 0x1A4 SWAP2 POP DUP3 SWAP1 POP PUSH32 0x0 PUSH1 0x1 PUSH1 0x1 PUSH1 0xA0 SHL SUB AND GAS STATICCALL SWAP1 DUP2 ISZERO PUSH2 0x68F JUMPI PUSH1 0x0 SWAP2 PUSH2 0xD00 JUMPI JUMPDEST POP ISZERO PUSH2 0xCEE JUMPI DUP7 PUSH1 0x0 MSTORE PUSH1 0x3 DUP3 MSTORE PUSH1 0x40 PUSH1 0x0 KECCAK256 DUP9 PUSH1 0x0 MSTORE DUP3 MSTORE PUSH1 0x40 PUSH1 0x0 KECCAK256 DUP7 PUSH1 0xFF NOT DUP3 SLOAD AND OR SWAP1 SSTORE PUSH1 0x40 MLOAD SWAP5 PUSH1 0xE0 DUP7 ADD SWAP2 DUP7 DUP4 LT SWAP1 DUP4 GT OR PUSH2 0x6AD JUMPI PUSH2 0xCD6 PUSH1 0x40 SWAP7 PUSH1 0x6 DUP11 DUP7 PUSH2 0xCBA DUP15 PUSH32 0x816254A0F23B2B8D4A1D9574BD8A5ADABE872881137F71912E7C52E0C6F179DF SWAP14 PUSH1 0xB SWAP10 DUP15 MSTORE DUP13 DUP8 MSTORE DUP4 DUP8 ADD SWAP1 DUP13 DUP3 MSTORE DUP15 DUP9 ADD SWAP1 DUP4 DUP3 MSTORE PUSH1 0x60 DUP10 ADD SWAP3 TIMESTAMP DUP5 MSTORE PUSH1 0x80 DUP11 ADD SWAP5 PUSH1 0x0 DUP7 MSTORE PUSH1 0xA0 DUP12 ADD SWAP8 PUSH1 0x0 DUP10 MSTORE PUSH1 0xC0 DUP13 ADD SWAP10 DUP5 DUP12 MSTORE PUSH1 0x0 MSTORE PUSH1 0x2 DUP2 MSTORE PUSH1 0x40 PUSH1 0x0 KECCAK256 SWAP2 PUSH1 0x0 MSTORE MSTORE PUSH1 0x40 PUSH1 0x0 KECCAK256 SWAP10 MLOAD DUP11 SSTORE MLOAD SWAP1 DUP10 ADD SSTORE MLOAD PUSH1 0x2 DUP9 ADD SSTORE MLOAD PUSH1 0x3 DUP8 ADD SSTORE MLOAD ISZERO ISZERO PUSH1 0x4 DUP7 ADD SWAP1 PUSH1 0xFF DUP1 NOT DUP4 SLOAD AND SWAP2 ISZERO ISZERO AND OR SWAP1 SSTORE JUMP JUMPDEST MLOAD PUSH1 0x5 DUP5 ADD SSTORE MLOAD ISZERO ISZERO SWAP2 ADD SWAP1 PUSH1 0xFF DUP1 NOT DUP4 SLOAD AND SWAP2 ISZERO ISZERO AND OR SWAP1 SSTORE JUMP JUMPDEST ADD PUSH2 0xCE1 DUP2 SLOAD PUSH2 0x1764 JUMP JUMPDEST SWAP1 SSTORE DUP4 MLOAD SWAP3 DUP4 MSTORE DUP3 ADD MSTORE LOG3 STOP JUMPDEST PUSH1 0x40 MLOAD PUSH4 0x9BDE339 PUSH1 0xE0 SHL DUP2 MSTORE PUSH1 0x4 SWAP1 REVERT JUMPDEST SWAP1 POP DUP3 DUP2 DUP2 RETURNDATASIZE DUP4 GT PUSH2 0xD2F JUMPI JUMPDEST PUSH2 0xD17 DUP2 DUP4 PUSH2 0x1537 JUMP JUMPDEST DUP2 ADD SUB SLT PUSH2 0x193 JUMPI MLOAD DUP1 ISZERO ISZERO DUP2 SUB PUSH2 0x193 JUMPI DUP10 PUSH2 0xBD3 JUMP JUMPDEST POP RETURNDATASIZE PUSH2 0xD0D JUMP JUMPDEST DUP2 SWAP1 DUP5 MLOAD DUP2 MSTORE ADD SWAP3 ADD SWAP3 ADD SWAP2 SWAP1 DUP7 DUP12 SWAP2 PUSH2 0xB83 JUMP JUMPDEST PUSH1 0x40 DUP2 DUP2 DUP7 DUP2 SWAP5 CALLDATACOPY ADD SWAP4 ADD SWAP2 ADD SWAP1 SWAP2 DUP13 SWAP1 PUSH2 0xB64 JUMP JUMPDEST PUSH1 0x40 MLOAD PUSH4 0x43C891CF PUSH1 0xE1 SHL DUP2 MSTORE PUSH1 0x4 SWAP1 REVERT JUMPDEST PUSH1 0x40 MLOAD PUSH4 0x65695701 PUSH1 0xE1 SHL DUP2 MSTORE PUSH1 0x4 SWAP1 REVERT JUMPDEST PUSH1 0x40 MLOAD PUSH4 0xABFB7DC3 PUSH1 0xE0 SHL DUP2 MSTORE PUSH1 0x4 SWAP1 REVERT JUMPDEST CALLVALUE PUSH2 0x193 JUMPI PUSH1 0xA0 CALLDATASIZE PUSH1 0x3 NOT ADD SLT PUSH2 0x193 JUMPI PUSH1 0x4 CALLDATALOAD PUSH8 0xFFFFFFFFFFFFFFFF DUP2 GT PUSH2 0x193 JUMPI PUSH2 0xDC8 SWAP1 CALLDATASIZE SWAP1 PUSH1 0x4 ADD PUSH2 0x16F5 JUMP JUMPDEST PUSH1 0x24 CALLDATALOAD PUSH8 0xFFFFFFFFFFFFFFFF DUP2 GT PUSH2 0x193 JUMPI PUSH2 0xDE8 SWAP1 CALLDATASIZE SWAP1 PUSH1 0x4 ADD PUSH2 0x16F5 JUMP JUMPDEST PUSH1 0x44 CALLDATALOAD PUSH1 0x0 MSTORE PUSH1 0x4 PUSH1 0x20 MSTORE PUSH1 0xFF PUSH1 0x40 PUSH1 0x0 KECCAK256 SLOAD AND ISZERO PUSH2 0x1283 JUMPI PUSH2 0xE0C PUSH1 0x0 SLOAD PUSH2 0x1764 JUMP JUMPDEST SWAP1 DUP2 PUSH1 0x0 SSTORE PUSH2 0xE1D PUSH1 0x64 CALLDATALOAD TIMESTAMP PUSH2 0x1789 JUMP JUMPDEST PUSH2 0xE34 PUSH1 0x84 CALLDATALOAD PUSH2 0xE2F PUSH1 0x64 CALLDATALOAD TIMESTAMP PUSH2 0x1789 JUMP JUMPDEST PUSH2 0x1789 JUMP JUMPDEST SWAP2 PUSH1 0x40 MLOAD SWAP5 DUP6 PUSH2 0x1C0 DUP2 ADD LT PUSH8 0xFFFFFFFFFFFFFFFF PUSH2 0x1C0 DUP9 ADD GT OR PUSH2 0x6AD JUMPI PUSH2 0xE7A SWAP2 PUSH2 0x1C0 DUP8 ADD PUSH1 0x40 MSTORE DUP6 DUP8 MSTORE PUSH2 0xE6E CALLDATASIZE DUP10 DUP12 PUSH2 0x1796 JUMP JUMPDEST PUSH1 0x20 DUP9 ADD MSTORE CALLDATASIZE SWAP2 PUSH2 0x1796 JUMP JUMPDEST PUSH1 0x40 DUP6 ADD MSTORE CALLER PUSH1 0x60 DUP6 ADD MSTORE TIMESTAMP PUSH1 0x80 DUP6 ADD MSTORE PUSH1 0xA0 DUP5 ADD MSTORE PUSH1 0xC0 DUP4 ADD MSTORE PUSH1 0x44 CALLDATALOAD PUSH1 0xE0 DUP4 ADD MSTORE PUSH1 0x0 PUSH2 0x100 DUP4 ADD MSTORE PUSH1 0x0 PUSH2 0x120 DUP4 ADD MSTORE PUSH1 0x0 PUSH2 0x140 DUP4 ADD MSTORE PUSH1 0x0 PUSH2 0x160 DUP4 ADD MSTORE PUSH1 0x0 PUSH2 0x180 DUP4 ADD MSTORE PUSH1 0x1 PUSH2 0x1A0 DUP4 ADD MSTORE DUP1 PUSH1 0x0 MSTORE PUSH1 0x1 PUSH1 0x20 MSTORE PUSH1 0x40 PUSH1 0x0 KECCAK256 SWAP3 DUP3 MLOAD DUP5 SSTORE PUSH1 0x20 DUP4 ADD MLOAD DUP1 MLOAD SWAP1 PUSH8 0xFFFFFFFFFFFFFFFF DUP3 GT PUSH2 0x6AD JUMPI PUSH2 0xF04 PUSH1 0x1 DUP8 ADD SLOAD PUSH2 0x14FD JUMP JUMPDEST PUSH1 0x1F DUP2 GT PUSH2 0x124E JUMPI JUMPDEST POP PUSH1 0x20 SWAP1 PUSH1 0x1F DUP4 GT PUSH1 0x1 EQ PUSH2 0x11DC JUMPI PUSH2 0xF3F SWAP3 SWAP2 PUSH1 0x0 SWAP2 DUP4 PUSH2 0x111F JUMPI JUMPDEST POP POP DUP2 PUSH1 0x1 SHL SWAP2 PUSH1 0x0 NOT SWAP1 PUSH1 0x3 SHL SHR NOT AND OR SWAP1 JUMP JUMPDEST PUSH1 0x1 DUP6 ADD SSTORE JUMPDEST PUSH1 0x40 DUP4 ADD MLOAD DUP1 MLOAD SWAP1 PUSH8 0xFFFFFFFFFFFFFFFF DUP3 GT PUSH2 0x6AD JUMPI PUSH2 0xF69 PUSH1 0x2 DUP8 ADD SLOAD PUSH2 0x14FD JUMP JUMPDEST PUSH1 0x1F DUP2 GT PUSH2 0x119C JUMPI JUMPDEST POP PUSH1 0x20 SWAP1 PUSH1 0x1F DUP4 GT PUSH1 0x1 EQ PUSH2 0x112A JUMPI PUSH2 0xFA3 SWAP3 SWAP2 PUSH1 0x0 SWAP2 DUP4 PUSH2 0x111F JUMPI POP POP DUP2 PUSH1 0x1 SHL SWAP2 PUSH1 0x0 NOT SWAP1 PUSH1 0x3 SHL SHR NOT AND OR SWAP1 JUMP JUMPDEST PUSH1 0x2 DUP6 ADD SSTORE JUMPDEST PUSH1 0x3 SWAP5 PUSH1 0x3 DUP6 ADD PUSH1 0x1 DUP1 PUSH1 0xA0 SHL SUB PUSH1 0x60 DUP7 ADD MLOAD AND PUSH12 0xFFFFFFFFFFFFFFFFFFFFFFFF PUSH1 0xA0 SHL DUP3 SLOAD AND OR SWAP1 SSTORE PUSH1 0x80 DUP5 ADD MLOAD PUSH1 0x4 DUP7 ADD SSTORE PUSH1 0xA0 DUP5 ADD MLOAD PUSH1 0x5 DUP7 ADD SSTORE PUSH2 0x1057 PUSH1 0x6 SWAP6 PUSH1 0xC0 DUP7 ADD MLOAD PUSH1 0x6 DUP3 ADD SSTORE PUSH1 0xE0 DUP7 ADD MLOAD PUSH1 0x7 DUP3 ADD SSTORE PUSH1 0xD PUSH2 0x1A0 PUSH1 0x8 SWAP8 PUSH2 0x100 DUP2 ADD MLOAD PUSH1 0x8 DUP6 ADD SSTORE PUSH2 0x120 DUP2 ADD MLOAD PUSH1 0x9 DUP6 ADD SSTORE PUSH2 0x140 DUP2 ADD MLOAD PUSH1 0xA DUP6 ADD SSTORE PUSH2 0x160 DUP2 ADD MLOAD PUSH1 0xB DUP6 ADD SSTORE PUSH2 0x180 DUP2 ADD MLOAD PUSH1 0xC DUP6 ADD SSTORE ADD MLOAD ISZERO ISZERO SWAP2 ADD SWAP1 PUSH1 0xFF DUP1 NOT DUP4 SLOAD AND SWAP2 ISZERO ISZERO AND OR SWAP1 SSTORE JUMP JUMPDEST PUSH1 0x0 JUMPDEST DUP6 SLOAD DUP2 LT ISZERO PUSH2 0x1091 JUMPI PUSH1 0x1 SWAP1 DUP5 PUSH1 0x0 MSTORE DUP6 PUSH1 0x20 MSTORE PUSH2 0x108B PUSH1 0x40 PUSH1 0x0 KECCAK256 PUSH2 0x107F DUP4 PUSH2 0x163E JUMP JUMPDEST SWAP1 SLOAD SWAP1 DUP12 SHL SHR SWAP1 PUSH2 0x183C JUMP JUMPDEST ADD PUSH2 0x105A JUMP JUMPDEST PUSH1 0x20 DUP5 DUP5 DUP2 PUSH32 0x28528FA183090D38F4C35574BB13FB455A547BDA31D9BC9520957C9558F52F8E DUP7 PUSH2 0x10C4 PUSH1 0x64 CALLDATALOAD TIMESTAMP PUSH2 0x1789 JUMP JUMPDEST PUSH2 0x10D6 PUSH1 0x84 CALLDATALOAD PUSH2 0xE2F PUSH1 0x64 CALLDATALOAD TIMESTAMP PUSH2 0x1789 JUMP JUMPDEST SWAP1 DUP6 PUSH1 0x40 MLOAD SWAP4 PUSH1 0x80 DUP6 MSTORE DUP2 PUSH1 0x80 DUP7 ADD MSTORE PUSH1 0xA0 DUP6 ADD CALLDATACOPY PUSH1 0x0 PUSH1 0xA0 DUP8 DUP6 ADD ADD MSTORE PUSH1 0x44 CALLDATALOAD DUP9 DUP5 ADD MSTORE PUSH1 0x40 DUP4 ADD MSTORE PUSH1 0x60 DUP3 ADD MSTORE PUSH1 0xA0 DUP2 CALLER SWAP6 PUSH1 0x1F DUP1 NOT SWAP2 ADD AND DUP2 ADD SUB ADD SWAP1 LOG3 PUSH1 0x40 MLOAD SWAP1 DUP2 MSTORE RETURN JUMPDEST ADD MLOAD SWAP1 POP DUP9 DUP1 PUSH2 0xF2A JUMP JUMPDEST SWAP2 SWAP1 PUSH1 0x2 DUP8 ADD PUSH1 0x0 MSTORE PUSH1 0x20 PUSH1 0x0 KECCAK256 SWAP1 PUSH1 0x0 SWAP4 JUMPDEST PUSH1 0x1F NOT DUP5 AND DUP6 LT PUSH2 0x1181 JUMPI PUSH1 0x1 SWAP5 POP DUP4 PUSH1 0x1F NOT DUP2 AND LT PUSH2 0x1168 JUMPI JUMPDEST POP POP POP DUP2 SHL ADD PUSH1 0x2 DUP6 ADD SSTORE PUSH2 0xFA9 JUMP JUMPDEST ADD MLOAD PUSH1 0x0 NOT PUSH1 0xF8 DUP5 PUSH1 0x3 SHL AND SHR NOT AND SWAP1 SSTORE DUP8 DUP1 DUP1 PUSH2 0x1158 JUMP JUMPDEST DUP2 DUP2 ADD MLOAD DUP4 SSTORE PUSH1 0x20 SWAP5 DUP6 ADD SWAP5 PUSH1 0x1 SWAP1 SWAP4 ADD SWAP3 SWAP1 SWAP2 ADD SWAP1 PUSH2 0x113D JUMP JUMPDEST PUSH2 0x11CC SWAP1 PUSH1 0x2 DUP9 ADD PUSH1 0x0 MSTORE PUSH1 0x20 PUSH1 0x0 KECCAK256 PUSH1 0x1F DUP6 ADD PUSH1 0x5 SHR DUP2 ADD SWAP2 PUSH1 0x20 DUP7 LT PUSH2 0x11D2 JUMPI JUMPDEST PUSH1 0x1F ADD PUSH1 0x5 SHR ADD SWAP1 PUSH2 0x17DD JUMP JUMPDEST DUP8 PUSH2 0xF72 JUMP JUMPDEST SWAP1 SWAP2 POP DUP2 SWAP1 PUSH2 0x11BF JUMP JUMPDEST SWAP2 SWAP1 PUSH1 0x1 DUP8 ADD PUSH1 0x0 MSTORE PUSH1 0x20 PUSH1 0x0 KECCAK256 SWAP1 PUSH1 0x0 SWAP4 JUMPDEST PUSH1 0x1F NOT DUP5 AND DUP6 LT PUSH2 0x1233 JUMPI PUSH1 0x1 SWAP5 POP DUP4 PUSH1 0x1F NOT DUP2 AND LT PUSH2 0x121A JUMPI JUMPDEST POP POP POP DUP2 SHL ADD PUSH1 0x1 DUP6 ADD SSTORE PUSH2 0xF45 JUMP JUMPDEST ADD MLOAD PUSH1 0x0 NOT PUSH1 0xF8 DUP5 PUSH1 0x3 SHL AND SHR NOT AND SWAP1 SSTORE DUP8 DUP1 DUP1 PUSH2 0x120A JUMP JUMPDEST DUP2 DUP2 ADD MLOAD DUP4 SSTORE PUSH1 0x20 SWAP5 DUP6 ADD SWAP5 PUSH1 0x1 SWAP1 SWAP4 ADD SWAP3 SWAP1 SWAP2 ADD SWAP1 PUSH2 0x11EF JUMP JUMPDEST PUSH2 0x127D SWAP1 PUSH1 0x1 DUP9 ADD PUSH1 0x0 MSTORE PUSH1 0x20 PUSH1 0x0 KECCAK256 PUSH1 0x1F DUP6 ADD PUSH1 0x5 SHR DUP2 ADD SWAP2 PUSH1 0x20 DUP7 LT PUSH2 0x11D2 JUMPI PUSH1 0x1F ADD PUSH1 0x5 SHR ADD SWAP1 PUSH2 0x17DD JUMP JUMPDEST DUP8 PUSH2 0xF0D JUMP JUMPDEST PUSH1 0x40 MLOAD PUSH4 0x9DD854D3 PUSH1 0xE0 SHL DUP2 MSTORE PUSH1 0x4 SWAP1 REVERT JUMPDEST CALLVALUE PUSH2 0x193 JUMPI PUSH2 0x12A3 CALLDATASIZE PUSH2 0x16DF JUMP JUMPDEST SWAP1 PUSH1 0x0 MSTORE PUSH1 0x8 PUSH1 0x20 MSTORE PUSH1 0x40 PUSH1 0x0 KECCAK256 DUP1 SLOAD DUP3 LT ISZERO PUSH2 0x193 JUMPI PUSH1 0x20 SWAP2 PUSH2 0x12C6 SWAP2 PUSH2 0x168B JUMP JUMPDEST SWAP1 SLOAD PUSH1 0x40 MLOAD SWAP2 PUSH1 0x3 SHL SHR DUP2 MSTORE RETURN JUMPDEST CALLVALUE PUSH2 0x193 JUMPI PUSH1 0x0 CALLDATASIZE PUSH1 0x3 NOT ADD SLT PUSH2 0x193 JUMPI PUSH1 0x40 MLOAD DUP1 PUSH1 0x6 SLOAD SWAP2 DUP3 DUP2 MSTORE PUSH1 0x20 DUP1 SWAP2 ADD SWAP3 PUSH1 0x6 PUSH1 0x0 MSTORE PUSH32 0xF652222313E28459528D920B65115C16C04F3EFC82AAEDC97BE59F3F377C0D3F SWAP2 PUSH1 0x0 SWAP1 JUMPDEST DUP3 DUP3 LT PUSH2 0x1338 JUMPI PUSH2 0x411 DUP6 PUSH2 0x405 DUP2 DUP10 SUB DUP3 PUSH2 0x1537 JUMP JUMPDEST DUP4 SLOAD DUP7 MSTORE SWAP5 DUP6 ADD SWAP5 PUSH1 0x1 SWAP4 DUP5 ADD SWAP4 SWAP1 SWAP2 ADD SWAP1 PUSH2 0x1321 JUMP JUMPDEST CALLVALUE PUSH2 0x193 JUMPI PUSH1 0x0 CALLDATASIZE PUSH1 0x3 NOT ADD SLT PUSH2 0x193 JUMPI PUSH1 0x40 MLOAD PUSH32 0x0 PUSH1 0x1 PUSH1 0x1 PUSH1 0xA0 SHL SUB AND DUP2 MSTORE PUSH1 0x20 SWAP1 RETURN JUMPDEST CALLVALUE PUSH2 0x193 JUMPI PUSH1 0x20 CALLDATASIZE PUSH1 0x3 NOT ADD SLT PUSH2 0x193 JUMPI PUSH1 0x4 CALLDATALOAD PUSH1 0x6 SLOAD DUP2 LT ISZERO PUSH2 0x193 JUMPI PUSH2 0x12C6 PUSH1 0x20 SWAP2 PUSH2 0x163E JUMP JUMPDEST CALLVALUE PUSH2 0x193 JUMPI PUSH1 0x20 CALLDATASIZE PUSH1 0x3 NOT ADD SLT PUSH2 0x193 JUMPI PUSH1 0x20 PUSH2 0x13DB PUSH1 0x4 CALLDATALOAD PUSH2 0x1723 JUMP JUMPDEST PUSH1 0xFF PUSH1 0x40 MLOAD SWAP2 AND DUP2 MSTORE RETURN JUMPDEST CALLVALUE PUSH2 0x193 JUMPI PUSH1 0x0 CALLDATASIZE PUSH1 0x3 NOT ADD SLT PUSH2 0x193 JUMPI PUSH1 0x20 PUSH1 0x6 SLOAD PUSH1 0x40 MLOAD SWAP1 DUP2 MSTORE RETURN JUMPDEST CALLVALUE PUSH2 0x193 JUMPI PUSH1 0x20 CALLDATASIZE PUSH1 0x3 NOT ADD SLT PUSH2 0x193 JUMPI PUSH1 0x4 CALLDATALOAD PUSH1 0x0 MSTORE PUSH1 0x1 PUSH1 0x20 MSTORE PUSH1 0x40 PUSH1 0x0 KECCAK256 DUP1 SLOAD PUSH1 0x1 DUP3 ADD PUSH2 0x1434 SWAP1 PUSH2 0x1559 JUMP JUMPDEST SWAP2 PUSH2 0x1441 PUSH1 0x2 DUP3 ADD PUSH2 0x1559 JUMP JUMPDEST PUSH1 0x1 PUSH1 0xA0 SHL PUSH1 0x1 SWAP1 SUB PUSH1 0x3 DUP4 ADD SLOAD AND SWAP2 PUSH1 0x4 DUP2 ADD SLOAD PUSH1 0x5 DUP3 ADD SLOAD PUSH1 0x6 DUP4 ADD SLOAD PUSH1 0x7 DUP5 ADD SLOAD PUSH1 0x8 DUP6 ADD SLOAD SWAP1 PUSH1 0x9 DUP7 ADD SLOAD SWAP3 PUSH1 0xA DUP8 ADD SLOAD SWAP5 PUSH1 0xB DUP9 ADD SLOAD SWAP7 PUSH1 0xC DUP10 ADD SLOAD SWAP9 PUSH1 0xD ADD SLOAD PUSH1 0xFF AND SWAP10 PUSH1 0x40 MLOAD SWAP14 DUP15 SWAP14 DUP15 PUSH2 0x1C0 SWAP2 DUP2 MSTORE DUP2 PUSH1 0x20 DUP3 ADD MSTORE ADD PUSH2 0x14A8 SWAP2 PUSH2 0x15FE JUMP JUMPDEST DUP14 DUP2 SUB PUSH1 0x40 DUP16 ADD MSTORE PUSH2 0x14B9 SWAP2 PUSH2 0x15FE JUMP JUMPDEST SWAP11 PUSH1 0x60 DUP14 ADD MSTORE PUSH1 0x80 DUP13 ADD MSTORE PUSH1 0xA0 DUP12 ADD MSTORE PUSH1 0xC0 DUP11 ADD MSTORE PUSH1 0xE0 DUP10 ADD MSTORE PUSH2 0x100 DUP9 ADD MSTORE PUSH2 0x120 DUP8 ADD MSTORE PUSH2 0x140 DUP7 ADD MSTORE PUSH2 0x160 DUP6 ADD MSTORE PUSH2 0x180 DUP5 ADD MSTORE ISZERO ISZERO PUSH2 0x1A0 DUP4 ADD MSTORE SUB SWAP1 RETURN JUMPDEST SWAP1 PUSH1 0x1 DUP3 DUP2 SHR SWAP3 AND DUP1 ISZERO PUSH2 0x152D JUMPI JUMPDEST PUSH1 0x20 DUP4 LT EQ PUSH2 0x1517 JUMPI JUMP JUMPDEST PUSH4 0x4E487B71 PUSH1 0xE0 SHL PUSH1 0x0 MSTORE PUSH1 0x22 PUSH1 0x4 MSTORE PUSH1 0x24 PUSH1 0x0 REVERT JUMPDEST SWAP2 PUSH1 0x7F AND SWAP2 PUSH2 0x150C JUMP JUMPDEST SWAP1 PUSH1 0x1F DUP1 NOT SWAP2 ADD AND DUP2 ADD SWAP1 DUP2 LT PUSH8 0xFFFFFFFFFFFFFFFF DUP3 GT OR PUSH2 0x6AD JUMPI PUSH1 0x40 MSTORE JUMP JUMPDEST SWAP1 PUSH1 0x40 MLOAD SWAP2 DUP3 PUSH1 0x0 DUP3 SLOAD PUSH2 0x156C DUP2 PUSH2 0x14FD JUMP JUMPDEST SWAP1 DUP2 DUP5 MSTORE PUSH1 0x20 SWAP5 PUSH1 0x1 SWAP2 PUSH1 0x1 DUP2 AND SWAP1 DUP2 PUSH1 0x0 EQ PUSH2 0x15DC JUMPI POP PUSH1 0x1 EQ PUSH2 0x159D JUMPI JUMPDEST POP POP POP PUSH2 0x159B SWAP3 POP SUB DUP4 PUSH2 0x1537 JUMP JUMPDEST JUMP JUMPDEST PUSH1 0x0 SWAP1 DUP2 MSTORE DUP6 DUP2 KECCAK256 SWAP6 SWAP4 POP SWAP2 SWAP1 JUMPDEST DUP2 DUP4 LT PUSH2 0x15C4 JUMPI POP POP PUSH2 0x159B SWAP4 POP DUP3 ADD ADD CODESIZE DUP1 DUP1 PUSH2 0x158C JUMP JUMPDEST DUP6 SLOAD DUP9 DUP5 ADD DUP6 ADD MSTORE SWAP5 DUP6 ADD SWAP5 DUP8 SWAP5 POP SWAP2 DUP4 ADD SWAP2 PUSH2 0x15AB JUMP JUMPDEST SWAP3 POP POP POP PUSH2 0x159B SWAP5 SWAP3 POP PUSH1 0xFF NOT AND DUP3 DUP5 ADD MSTORE ISZERO ISZERO PUSH1 0x5 SHL DUP3 ADD ADD CODESIZE DUP1 DUP1 PUSH2 0x158C JUMP JUMPDEST SWAP2 SWAP1 DUP3 MLOAD SWAP3 DUP4 DUP3 MSTORE PUSH1 0x0 JUMPDEST DUP5 DUP2 LT PUSH2 0x162A JUMPI POP POP DUP3 PUSH1 0x0 PUSH1 0x20 DUP1 SWAP5 SWAP6 DUP5 ADD ADD MSTORE PUSH1 0x1F DUP1 NOT SWAP2 ADD AND ADD ADD SWAP1 JUMP JUMPDEST PUSH1 0x20 DUP2 DUP4 ADD DUP2 ADD MLOAD DUP5 DUP4 ADD DUP3 ADD MSTORE ADD PUSH2 0x1609 JUMP JUMPDEST PUSH1 0x6 SLOAD DUP2 LT ISZERO PUSH2 0x1675 JUMPI PUSH1 0x6 PUSH1 0x0 MSTORE PUSH32 0xF652222313E28459528D920B65115C16C04F3EFC82AAEDC97BE59F3F377C0D3F ADD SWAP1 PUSH1 0x0 SWAP1 JUMP JUMPDEST PUSH4 0x4E487B71 PUSH1 0xE0 SHL PUSH1 0x0 MSTORE PUSH1 0x32 PUSH1 0x4 MSTORE PUSH1 0x24 PUSH1 0x0 REVERT JUMPDEST DUP1 SLOAD DUP3 LT ISZERO PUSH2 0x1675 JUMPI PUSH1 0x0 MSTORE PUSH1 0x20 PUSH1 0x0 KECCAK256 ADD SWAP1 PUSH1 0x0 SWAP1 JUMP JUMPDEST PUSH1 0x20 SWAP1 PUSH1 0x20 PUSH1 0x40 DUP2 DUP4 ADD SWAP3 DUP3 DUP2 MSTORE DUP6 MLOAD DUP1 SWAP5 MSTORE ADD SWAP4 ADD SWAP2 PUSH1 0x0 JUMPDEST DUP3 DUP2 LT PUSH2 0x16CB JUMPI POP POP POP POP SWAP1 JUMP JUMPDEST DUP4 MLOAD DUP6 MSTORE SWAP4 DUP2 ADD SWAP4 SWAP3 DUP2 ADD SWAP3 PUSH1 0x1 ADD PUSH2 0x16BD JUMP JUMPDEST PUSH1 0x40 SWAP1 PUSH1 0x3 NOT ADD SLT PUSH2 0x193 JUMPI PUSH1 0x4 CALLDATALOAD SWAP1 PUSH1 0x24 CALLDATALOAD SWAP1 JUMP JUMPDEST SWAP2 DUP2 PUSH1 0x1F DUP5 ADD SLT ISZERO PUSH2 0x193 JUMPI DUP3 CALLDATALOAD SWAP2 PUSH8 0xFFFFFFFFFFFFFFFF DUP4 GT PUSH2 0x193 JUMPI PUSH1 0x20 DUP4 DUP2 DUP7 ADD SWAP6 ADD ADD GT PUSH2 0x193 JUMPI JUMP JUMPDEST PUSH1 0x0 MSTORE PUSH1 0x1 PUSH1 0x20 MSTORE PUSH1 0x40 PUSH1 0x0 KECCAK256 PUSH1 0xFF PUSH1 0xD DUP3 ADD SLOAD AND ISZERO PUSH2 0x39D JUMPI PUSH1 0x5 DUP2 ADD SLOAD TIMESTAMP GT ISZERO PUSH2 0x175E JUMPI PUSH1 0x6 ADD SLOAD TIMESTAMP GT ISZERO PUSH2 0x1759 JUMPI PUSH1 0x2 SWAP1 JUMP JUMPDEST PUSH1 0x1 SWAP1 JUMP JUMPDEST POP PUSH1 0x0 SWAP1 JUMP JUMPDEST PUSH1 0x0 NOT DUP2 EQ PUSH2 0x1773 JUMPI PUSH1 0x1 ADD SWAP1 JUMP JUMPDEST PUSH4 0x4E487B71 PUSH1 0xE0 SHL PUSH1 0x0 MSTORE PUSH1 0x11 PUSH1 0x4 MSTORE PUSH1 0x24 PUSH1 0x0 REVERT JUMPDEST SWAP2 SWAP1 DUP3 ADD DUP1 SWAP3 GT PUSH2 0x1773 JUMPI JUMP JUMPDEST SWAP3 SWAP2 SWAP3 PUSH8 0xFFFFFFFFFFFFFFFF DUP3 GT PUSH2 0x6AD JUMPI PUSH1 0x40 MLOAD SWAP2 PUSH2 0x17C0 PUSH1 0x1F DUP3 ADD PUSH1 0x1F NOT AND PUSH1 0x20 ADD DUP5 PUSH2 0x1537 JUMP JUMPDEST DUP3 SWAP5 DUP2 DUP5 MSTORE DUP2 DUP4 ADD GT PUSH2 0x193 JUMPI DUP3 DUP2 PUSH1 0x20 SWAP4 DUP5 PUSH1 0x0 SWAP7 ADD CALLDATACOPY ADD ADD MSTORE JUMP JUMPDEST DUP2 DUP2 LT PUSH2 0x17E8 JUMPI POP POP JUMP JUMPDEST PUSH1 0x0 DUP2 SSTORE PUSH1 0x1 ADD PUSH2 0x17DD JUMP JUMPDEST PUSH1 0x5 SLOAD PUSH1 0x1 PUSH1 0x40 SHL DUP2 LT ISZERO PUSH2 0x6AD JUMPI PUSH1 0x1 DUP2 ADD DUP1 PUSH1 0x5 SSTORE DUP2 LT ISZERO PUSH2 0x1675 JUMPI PUSH1 0x5 PUSH1 0x0 MSTORE PUSH32 0x36B6384B5ECA791C62761152D0C79BB0604C104A5FB6F4EB0703F3154BB3DB0 ADD SSTORE JUMP JUMPDEST SWAP1 DUP2 SLOAD SWAP2 PUSH1 0x1 PUSH1 0x40 SHL DUP4 LT ISZERO PUSH2 0x6AD JUMPI DUP3 PUSH2 0x185F SWAP2 PUSH1 0x1 PUSH2 0x159B SWAP6 ADD DUP2 SSTORE PUSH2 0x168B JUMP JUMPDEST SWAP1 SWAP2 SWAP1 DUP3 SLOAD SWAP1 PUSH1 0x3 SHL SWAP2 DUP3 SHL SWAP2 PUSH1 0x0 NOT SWAP1 SHL NOT AND OR SWAP1 SSTORE JUMP JUMPDEST PUSH2 0x1882 DUP2 SLOAD PUSH2 0x14FD JUMP JUMPDEST SWAP1 DUP2 PUSH2 0x188C JUMPI POP POP JUMP JUMPDEST DUP2 PUSH1 0x1F PUSH1 0x0 SWAP4 GT PUSH1 0x1 EQ PUSH2 0x189E JUMPI POP SSTORE JUMP JUMPDEST SWAP1 DUP1 DUP4 SWAP2 DUP3 MSTORE PUSH2 0x18BD PUSH1 0x1F PUSH1 0x20 DUP5 KECCAK256 SWAP5 ADD PUSH1 0x5 SHR DUP5 ADD PUSH1 0x1 DUP6 ADD PUSH2 0x17DD JUMP JUMPDEST SSTORE SSTORE JUMP JUMPDEST DUP1 PUSH1 0x0 MSTORE PUSH1 0x7 PUSH1 0x20 MSTORE PUSH1 0x40 PUSH1 0x0 KECCAK256 DUP1 SLOAD PUSH1 0xFF DUP2 AND PUSH2 0x1931 JUMPI PUSH1 0xFF NOT AND PUSH1 0x1 OR SWAP1 SSTORE PUSH1 0x6 SLOAD PUSH1 0x1 PUSH1 0x40 SHL DUP2 LT ISZERO PUSH2 0x6AD JUMPI DUP2 PUSH2 0x185F DUP3 PUSH1 0x1 PUSH2 0x1905 SWAP5 ADD PUSH1 0x6 SSTORE PUSH2 0x163E JUMP JUMPDEST PUSH32 0x85238313F6B4AA1EA470340FC24BC06D68E734CD21411160C06714EB547571AF PUSH1 0x20 PUSH1 0x40 MLOAD TIMESTAMP DUP2 MSTORE LOG2 JUMP JUMPDEST POP POP POP JUMP INVALID LOG2 PUSH5 0x6970667358 0x22 SLT KECCAK256 0xB2 0xE8 DUP12 0xAF ADD SWAP10 DUP3 0xBE 0x29 0xF6 DUP14 0xE 0xD4 0x4F PUSH2 0x3385 SLT ADDRESS 0xC5 0x28 CODESIZE OR 0xC6 0xD DUP3 TSTORE 0xF9 0x22 SWAP2 ADDRESS 0xD3 PUSH5 0x736F6C6343 STOP ADDMOD XOR STOP CALLER "},"methodIdentifiers":{"CHOICE_ABSTAIN()":"d90292a3","CHOICE_AGAINST()":"b5770c33","CHOICE_FOR()":"8ea7a274","commitVote(uint256,uint256,uint256,uint256,uint256[2],uint256[2][2],uint256[2])":"51fce2e6","commitments(uint256,uint256)":"d13e2e60","createProposal(string,string,uint256,uint256,uint256)":"33423c06","deleteProposal(uint256)":"8259d553","getCommitment(uint256,uint256)":"7164f0d6","getMerkleRoots()":"85135a1a","getPhase(uint256)":"16ef376b","getProposal(uint256)":"c7f758a8","getProposalVoterSnapshot(uint256)":"b7190516","getRegisteredVoters()":"2bc4a6e7","getVoterCount()":"11174a29","isMerkleRootValid(uint256)":"4a9284fb","isNullifierUsed(uint256,uint256)":"85c74296","isVoterRegistered(uint256)":"6d3cba61","merkleRootHistory(uint256)":"b5ad9215","nullifierUsed(uint256,uint256)":"e78ffc96","proposalCount()":"da35c664","proposalVoterSnapshots(uint256,uint256)":"2c5317c0","proposals(uint256)":"013cf08b","registerMerkleRoot(uint256)":"a4cae8f8","registerVoter(uint256)":"a13f2f8d","registeredVoters(uint256)":"2436e06b","revealVote(uint256,uint256,uint256,uint256)":"b30c510b","updateProposalVoters(uint256,uint256)":"aa609848","validMerkleRoots(uint256)":"cb1bb033","verifier()":"2b7ac3f3"}}}}}