{"contracts/Groth16Verifier.sol":{"Groth16Verifier":{"abi":[{"inputs":[{"internalType":"uint256[2]","name":"_pA","type":"uint256[2]"},{"internalType":"uint256[2][2]","name":"_pB","type":"uint256[2][2]"},{"internalType":"uint256[2]","name":"_pC","type":"uint256[2]"},{"internalType":"uint256[5]","name":"_pubSignals","type":"uint256[5]"}],"name":"verifyProof","outputs":[{"internalType":"bool","name":"","type":"bool"}],"stateMutability":"view","type":"function"}],"evm":{"bytecode":{"linkReferences":{},"object":"60808060405234610016576106e8908161001c8239f35b600080fdfe6080604052600436101561001257600080fd5b6000803560e01c6334baeab91461002857600080fd5b346103aa576101a090816003193601126103aa57610045366103ad565b913660c4116103a657610057366103bf565b366101a4116103a257602093849161040060405261011e6101043561007b816103cd565b6101196101243561008b816103cd565b6101146101443561009b816103cd565b61010f61016435936100ac856103cd565b61010a61018435976100bd896103cd565b7f282c3077a1f5b3f1ada651cd0ea7ee8037230848aba1fef72fc9afa3dff3a5f06080527f0cfd8639e44d6dcbf2cacb67433e08232ce9bc73fb40a24c269805fe96039d1160a052610400565b61048a565b610514565b61059e565b610628565b61010093828593358452847f30644e72e131a029b85045b68181585d97816a916871ca8d3c208c16d87cfd479101358103066101205260443561014052606435610160526084356101805260a43590527f2d4d9aa7e302d9df41749d5507949d05dbea33fbb16c643b22f599a2be6df2e26101c0527f14bedd503c37ceb061d8ec60209fe345ce89830a19230301f076caff004d19266101e0527f0967032fcbf776d1afc985f88877f182d38480a653f2decaa9794cbc3bf3060c610200527f0e187847ad4c798374d0d6732bf501847dd68bc0e071241e0213bc7fc13db7ab610220527f304cfbd1e08a704a99f5e847d93f8c3caafddec46b7a0d379da69a4d112346a7610240527f1739c1b1a457a8c7313123d24d2f9192f896b7c63eea05a9d57f06547ad0cec8610260526080516102805260a0516102a0527f198e9393920d483a7260bfb731fb5d25f1aa493335a9e71297e485b7aef312c26102c0527f1800deef121f1e76426a00665e5c4479674322d4f75edadd46debd5cd992f6ed6102e05282610300917f090689d0585ff075ec9e99ad690c3395bc4b313370b38ef355acdadcd122975b83527f12c85ea5db8c6deb4aab71808dcb408fe3d1e7690c43d37b4ce6cc0166fa7daa610320528035610340520135610360527f2abdf33363a050299514463179fcdf0b5132f2d8bdf9408b9d360df804d2bc53610380527f183a4e5277524e95534b993c4a5b11fc0dc4b21becde66f40c2842bedc67d8556103a0527f1de1ab6200a70dd233d5c2ce6c319546dcda2e0db8c611fe74003c20f9ec75d26103c0527f07c8b328bebe338a3f93540e3f07df5ecd3c4818fa7188074ef7f73dc14b537b6103e0528160086107cf195a01fa9051168152f35b8280fd5b5080fd5b80fd5b906004916044116103ba57565b600080fd5b9060c491610104116103ba57565b7f30644e72e131a029b85045b68181585d2833e84879b9709143e1f593f000000111156103f657565b6000805260206000f35b604051907f0529d022b28787b1b41c78150e915e0ac118a86ca388c13af4dda6642ea386ed82527f20bf940fa2b51b53bdd9139d715d63671a072b0dfd7e09116e7df0acf7133daa6020830152604082019081526107cf196040836060816007855a01fa156103f65760409260066080939284938451905260a05160608401525a01fa156103f657565b604051907f15028b1e5937eecdc9ec5909c774f33866a8259907519a2337158a6bab02b5b582527f1fab2b967f590a4652fcf1cb6ec7d2090d289d4b65280fa2d0e4cfa9f924b5ef6020830152604082019081526107cf196040836060816007855a01fa156103f65760409260066080939284938451905260a05160608401525a01fa156103f657565b604051907f25e17f2f1e149466321916bbe0df6ab514a88531101d7ef3a2d760b834d66cbc82527f160f3bbf0f62f2f6fd15874c90835fede2980abad163df5e2c5a6a59e6bb800e6020830152604082019081526107cf196040836060816007855a01fa156103f65760409260066080939284938451905260a05160608401525a01fa156103f657565b604051907f124e6eff0c8efc4c48bf48cb8ee57f4d7d81eab1630359aed6a594a9880a8d1282527f202e849bb9ab3ba7c60db74c400a23934a07ef4a8a199fd63dedc4e793bb765a6020830152604082019081526107cf196040836060816007855a01fa156103f65760409260066080939284938451905260a05160608401525a01fa156103f657565b604051907f1f753ba401e84c8d4336582e931111356ebd68912e1d3790d223eedfce70b58a82527f05943179a01012cffeb816fb6f31e1c750115cfc19dde5a2288a4273a137b6f06020830152604082019081526107cf196040836060816007855a01fa156103f65760409260066080939284938451905260a05160608401525a01fa156103f65756fea2646970667358221220031f3088a1b6522ee738c7b15b94b2824a4212ea9f9b36590fa74e2c698f8e0264736f6c63430008180033","opcodes":"PUSH1 0x80 DUP1 PUSH1 0x40 MSTORE CALLVALUE PUSH2 0x16 JUMPI PUSH2 0x6E8 SWAP1 DUP2 PUSH2 0x1C DUP3 CODECOPY RETURN JUMPDEST PUSH1 0x0 DUP1 REVERT INVALID PUSH1 0x80 PUSH1 0x40 MSTORE PUSH1 0x4 CALLDATASIZE LT ISZERO PUSH2 0x12 JUMPI PUSH1 0x0 DUP1 REVERT JUMPDEST PUSH1 0x0 DUP1 CALLDATALOAD PUSH1 0xE0 SHR PUSH4 0x34BAEAB9 EQ PUSH2 0x28 JUMPI PUSH1 0x0 DUP1 REVERT JUMPDEST CALLVALUE PUSH2 0x3AA JUMPI PUSH2 0x1A0 SWAP1 DUP2 PUSH1 0x3 NOT CALLDATASIZE ADD SLT PUSH2 0x3AA JUMPI PUSH2 0x45 CALLDATASIZE PUSH2 0x3AD JUMP JUMPDEST SWAP2 CALLDATASIZE PUSH1 0xC4 GT PUSH2 0x3A6 JUMPI PUSH2 0x57 CALLDATASIZE PUSH2 0x3BF JUMP JUMPDEST CALLDATASIZE PUSH2 0x1A4 GT PUSH2 0x3A2 JUMPI PUSH1 0x20 SWAP4 DUP5 SWAP2 PUSH2 0x400 PUSH1 0x40 MSTORE PUSH2 0x11E PUSH2 0x104 CALLDATALOAD PUSH2 0x7B DUP2 PUSH2 0x3CD JUMP JUMPDEST PUSH2 0x119 PUSH2 0x124 CALLDATALOAD PUSH2 0x8B DUP2 PUSH2 0x3CD JUMP JUMPDEST PUSH2 0x114 PUSH2 0x144 CALLDATALOAD PUSH2 0x9B DUP2 PUSH2 0x3CD JUMP JUMPDEST PUSH2 0x10F PUSH2 0x164 CALLDATALOAD SWAP4 PUSH2 0xAC DUP6 PUSH2 0x3CD JUMP JUMPDEST PUSH2 0x10A PUSH2 0x184 CALLDATALOAD SWAP8 PUSH2 0xBD DUP10 PUSH2 0x3CD JUMP JUMPDEST PUSH32 0x282C3077A1F5B3F1ADA651CD0EA7EE8037230848ABA1FEF72FC9AFA3DFF3A5F0 PUSH1 0x80 MSTORE PUSH32 0xCFD8639E44D6DCBF2CACB67433E08232CE9BC73FB40A24C269805FE96039D11 PUSH1 0xA0 MSTORE PUSH2 0x400 JUMP JUMPDEST PUSH2 0x48A JUMP JUMPDEST PUSH2 0x514 JUMP JUMPDEST PUSH2 0x59E JUMP JUMPDEST PUSH2 0x628 JUMP JUMPDEST PUSH2 0x100 SWAP4 DUP3 DUP6 SWAP4 CALLDATALOAD DUP5 MSTORE DUP5 PUSH32 0x30644E72E131A029B85045B68181585D97816A916871CA8D3C208C16D87CFD47 SWAP2 ADD CALLDATALOAD DUP2 SUB MOD PUSH2 0x120 MSTORE PUSH1 0x44 CALLDATALOAD PUSH2 0x140 MSTORE PUSH1 0x64 CALLDATALOAD PUSH2 0x160 MSTORE PUSH1 0x84 CALLDATALOAD PUSH2 0x180 MSTORE PUSH1 0xA4 CALLDATALOAD SWAP1 MSTORE PUSH32 0x2D4D9AA7E302D9DF41749D5507949D05DBEA33FBB16C643B22F599A2BE6DF2E2 PUSH2 0x1C0 MSTORE PUSH32 0x14BEDD503C37CEB061D8EC60209FE345CE89830A19230301F076CAFF004D1926 PUSH2 0x1E0 MSTORE PUSH32 0x967032FCBF776D1AFC985F88877F182D38480A653F2DECAA9794CBC3BF3060C PUSH2 0x200 MSTORE PUSH32 0xE187847AD4C798374D0D6732BF501847DD68BC0E071241E0213BC7FC13DB7AB PUSH2 0x220 MSTORE PUSH32 0x304CFBD1E08A704A99F5E847D93F8C3CAAFDDEC46B7A0D379DA69A4D112346A7 PUSH2 0x240 MSTORE PUSH32 0x1739C1B1A457A8C7313123D24D2F9192F896B7C63EEA05A9D57F06547AD0CEC8 PUSH2 0x260 MSTORE PUSH1 0x80 MLOAD PUSH2 0x280 MSTORE PUSH1 0xA0 MLOAD PUSH2 0x2A0 MSTORE PUSH32 0x198E9393920D483A7260BFB731FB5D25F1AA493335A9E71297E485B7AEF312C2 PUSH2 0x2C0 MSTORE PUSH32 0x1800DEEF121F1E76426A00665E5C4479674322D4F75EDADD46DEBD5CD992F6ED PUSH2 0x2E0 MSTORE DUP3 PUSH2 0x300 SWAP2 PUSH32 0x90689D0585FF075EC9E99AD690C3395BC4B313370B38EF355ACDADCD122975B DUP4 MSTORE PUSH32 0x12C85EA5DB8C6DEB4AAB71808DCB408FE3D1E7690C43D37B4CE6CC0166FA7DAA PUSH2 0x320 MSTORE DUP1 CALLDATALOAD PUSH2 0x340 MSTORE ADD CALLDATALOAD PUSH2 0x360 MSTORE PUSH32 0x2ABDF33363A050299514463179FCDF0B5132F2D8BDF9408B9D360DF804D2BC53 PUSH2 0x380 MSTORE PUSH32 0x183A4E5277524E95534B993C4A5B11FC0DC4B21BECDE66F40C2842BEDC67D855 PUSH2 0x3A0 MSTORE PUSH32 0x1DE1AB6200A70DD233D5C2CE6C319546DCDA2E0DB8C611FE74003C20F9EC75D2 PUSH2 0x3C0 MSTORE PUSH32 0x7C8B328BEBE338A3F93540E3F07DF5ECD3C4818FA7188074EF7F73DC14B537B PUSH2 0x3E0 MSTORE DUP2 PUSH1 0x8 PUSH2 0x7CF NOT GAS ADD STATICCALL SWAP1 MLOAD AND DUP2 MSTORE RETURN JUMPDEST DUP3 DUP1 REVERT JUMPDEST POP DUP1 REVERT JUMPDEST DUP1 REVERT JUMPDEST SWAP1 PUSH1 0x4 SWAP2 PUSH1 0x44 GT PUSH2 0x3BA JUMPI JUMP JUMPDEST PUSH1 0x0 DUP1 REVERT JUMPDEST SWAP1 PUSH1 0xC4 SWAP2 PUSH2 0x104 GT PUSH2 0x3BA JUMPI JUMP JUMPDEST PUSH32 0x30644E72E131A029B85045B68181585D2833E84879B9709143E1F593F0000001 GT ISZERO PUSH2 0x3F6 JUMPI JUMP JUMPDEST PUSH1 0x0 DUP1 MSTORE PUSH1 0x20 PUSH1 0x0 RETURN JUMPDEST PUSH1 0x40 MLOAD SWAP1 PUSH32 0x529D022B28787B1B41C78150E915E0AC118A86CA388C13AF4DDA6642EA386ED DUP3 MSTORE PUSH32 0x20BF940FA2B51B53BDD9139D715D63671A072B0DFD7E09116E7DF0ACF7133DAA PUSH1 0x20 DUP4 ADD MSTORE PUSH1 0x40 DUP3 ADD SWAP1 DUP2 MSTORE PUSH2 0x7CF NOT PUSH1 0x40 DUP4 PUSH1 0x60 DUP2 PUSH1 0x7 DUP6 GAS ADD STATICCALL ISZERO PUSH2 0x3F6 JUMPI PUSH1 0x40 SWAP3 PUSH1 0x6 PUSH1 0x80 SWAP4 SWAP3 DUP5 SWAP4 DUP5 MLOAD SWAP1 MSTORE PUSH1 0xA0 MLOAD PUSH1 0x60 DUP5 ADD MSTORE GAS ADD STATICCALL ISZERO PUSH2 0x3F6 JUMPI JUMP JUMPDEST PUSH1 0x40 MLOAD SWAP1 PUSH32 0x15028B1E5937EECDC9EC5909C774F33866A8259907519A2337158A6BAB02B5B5 DUP3 MSTORE PUSH32 0x1FAB2B967F590A4652FCF1CB6EC7D2090D289D4B65280FA2D0E4CFA9F924B5EF PUSH1 0x20 DUP4 ADD MSTORE PUSH1 0x40 DUP3 ADD SWAP1 DUP2 MSTORE PUSH2 0x7CF NOT PUSH1 0x40 DUP4 PUSH1 0x60 DUP2 PUSH1 0x7 DUP6 GAS ADD STATICCALL ISZERO PUSH2 0x3F6 JUMPI PUSH1 0x40 SWAP3 PUSH1 0x6 PUSH1 0x80 SWAP4 SWAP3 DUP5 SWAP4 DUP5 MLOAD SWAP1 MSTORE PUSH1 0xA0 MLOAD PUSH1 0x60 DUP5 ADD MSTORE GAS ADD STATICCALL ISZERO PUSH2 0x3F6 JUMPI JUMP JUMPDEST PUSH1 0x40 MLOAD SWAP1 PUSH32 0x25E17F2F1E149466321916BBE0DF6AB514A88531101D7EF3A2D760B834D66CBC DUP3 MSTORE PUSH32 0x160F3BBF0F62F2F6FD15874C90835FEDE2980ABAD163DF5E2C5A6A59E6BB800E PUSH1 0x20 DUP4 ADD MSTORE PUSH1 0x40 DUP3 ADD SWAP1 DUP2 MSTORE PUSH2 0x7CF NOT PUSH1 0x40 DUP4 PUSH1 0x60 DUP2 PUSH1 0x7 DUP6 GAS ADD STATICCALL ISZERO PUSH2 0x3F6 JUMPI PUSH1 0x40 SWAP3 PUSH1 0x6 PUSH1 0x80 SWAP4 SWAP3 DUP5 SWAP4 DUP5 MLOAD SWAP1 MSTORE PUSH1 0xA0 MLOAD PUSH1 0x60 DUP5 ADD MSTORE GAS ADD STATICCALL ISZERO PUSH2 0x3F6 JUMPI JUMP JUMPDEST PUSH1 0x40 MLOAD SWAP1 PUSH32 0x124E6EFF0C8EFC4C48BF48CB8EE57F4D7D81EAB1630359AED6A594A9880A8D12 DUP3 MSTORE PUSH32 0x202E849BB9AB3BA7C60DB74C400A23934A07EF4A8A199FD63DEDC4E793BB765A PUSH1 0x20 DUP4 ADD MSTORE PUSH1 0x40 DUP3 ADD SWAP1 DUP2 MSTORE PUSH2 0x7CF NOT PUSH1 0x40 DUP4 PUSH1 0x60 DUP2 PUSH1 0x7 DUP6 GAS ADD STATICCALL ISZERO PUSH2 0x3F6 JUMPI PUSH1 0x40 SWAP3 PUSH1 0x6 PUSH1 0x80 SWAP4 SWAP3 DUP5 SWAP4 DUP5 MLOAD SWAP1 MSTORE PUSH1 0xA0 MLOAD PUSH1 0x60 DUP5 ADD MSTORE GAS ADD STATICCALL ISZERO PUSH2 0x3F6 JUMPI JUMP JUMPDEST PUSH1 0x40 MLOAD SWAP1 PUSH32 0x1F753BA401E84C8D4336582E931111356EBD68912E1D3790D223EEDFCE70B58A DUP3 MSTORE PUSH32 0x5943179A01012CFFEB816FB6F31E1C750115CFC19DDE5A2288A4273A137B6F0 PUSH1 0x20 DUP4 ADD MSTORE PUSH1 0x40 DUP3 ADD SWAP1 DUP2 MSTORE PUSH2 0x7CF NOT PUSH1 0x40 DUP4 PUSH1 0x60 DUP2 PUSH1 0x7 DUP6 GAS ADD STATICCALL ISZERO PUSH2 0x3F6 JUMPI PUSH1 0x40 SWAP3 PUSH1 0x6 PUSH1 0x80 SWAP4 SWAP3 DUP5 SWAP4 DUP5 MLOAD SWAP1 MSTORE PUSH1 0xA0 MLOAD PUSH1 0x60 DUP5 ADD MSTORE GAS ADD STATICCALL ISZERO PUSH2 0x3F6 JUMPI JUMP INVALID LOG2 PUSH5 0x6970667358 0x22 SLT KECCAK256 SUB 0x1F ADDRESS DUP9 LOG1 0xB6 MSTORE 0x2E 0xE7 CODESIZE 0xC7 0xB1 JUMPDEST SWAP5 0xB2 DUP3 BLOBBASEFEE TIMESTAMP SLT 0xEA SWAP16 SWAP12 CALLDATASIZE MSIZE 0xF 0xA7 0x4E 0x2C PUSH10 0x8F8E0264736F6C634300 ADDMOD XOR STOP CALLER "},"methodIdentifiers":{"verifyProof(uint256[2],uint256[2][2],uint256[2],uint256[5])":"34baeab9"}}}}}