{"contracts/QuadraticVoting.sol":{"QuadraticVoting":{"abi":[{"inputs":[{"internalType":"address","name":"_verifier","type":"address"}],"stateMutability":"nonpayable","type":"constructor"},{"inputs":[],"name":"AlreadyRevealed","type":"error"},{"inputs":[],"name":"CommitmentNotFound","type":"error"},{"inputs":[],"name":"InsufficientCredits","type":"error"},{"inputs":[],"name":"InvalidChoice","type":"error"},{"inputs":[],"name":"InvalidCreditRoot","type":"error"},{"inputs":[],"name":"InvalidProof","type":"error"},{"inputs":[],"name":"InvalidQuadraticCost","type":"error"},{"inputs":[],"name":"InvalidReveal","type":"error"},{"inputs":[],"name":"NotInCommitPhase","type":"error"},{"inputs":[],"name":"NotInRevealPhase","type":"error"},{"inputs":[],"name":"NullifierAlreadyUsed","type":"error"},{"inputs":[],"name":"ProposalNotFound","type":"error"},{"anonymous":false,"inputs":[{"indexed":true,"internalType":"uint256","name":"creditNoteHash","type":"uint256"},{"indexed":false,"internalType":"uint256","name":"timestamp","type":"uint256"}],"name":"CreditNoteRegistered","type":"event"},{"anonymous":false,"inputs":[{"indexed":true,"internalType":"uint256","name":"creditRoot","type":"uint256"},{"indexed":false,"internalType":"uint256","name":"timestamp","type":"uint256"}],"name":"CreditRootRegistered","type":"event"},{"anonymous":false,"inputs":[{"indexed":true,"internalType":"address","name":"user","type":"address"},{"indexed":false,"internalType":"uint256","name":"amount","type":"uint256"},{"indexed":false,"internalType":"uint256","name":"remaining","type":"uint256"}],"name":"CreditsBurned","type":"event"},{"anonymous":false,"inputs":[{"indexed":true,"internalType":"address","name":"user","type":"address"},{"indexed":false,"internalType":"uint256","name":"credits","type":"uint256"}],"name":"CreditsInitialized","type":"event"},{"anonymous":false,"inputs":[{"indexed":true,"internalType":"uint256","name":"proposalId","type":"uint256"},{"indexed":false,"internalType":"string","name":"title","type":"string"},{"indexed":true,"internalType":"address","name":"proposer","type":"address"},{"indexed":false,"internalType":"uint256","name":"creditRoot","type":"uint256"},{"indexed":false,"internalType":"uint256","name":"endTime","type":"uint256"},{"indexed":false,"internalType":"uint256","name":"revealEndTime","type":"uint256"}],"name":"ProposalCreated","type":"event"},{"anonymous":false,"inputs":[{"indexed":true,"internalType":"uint256","name":"proposalId","type":"uint256"},{"indexed":true,"internalType":"uint256","name":"nullifier","type":"uint256"},{"indexed":false,"internalType":"uint256","name":"commitment","type":"uint256"},{"indexed":false,"internalType":"uint256","name":"numVotes","type":"uint256"},{"indexed":false,"internalType":"uint256","name":"creditsSpent","type":"uint256"}],"name":"VoteCommitted","type":"event"},{"anonymous":false,"inputs":[{"indexed":true,"internalType":"uint256","name":"proposalId","type":"uint256"},{"indexed":true,"internalType":"uint256","name":"nullifier","type":"uint256"},{"indexed":false,"internalType":"uint256","name":"choice","type":"uint256"},{"indexed":false,"internalType":"uint256","name":"numVotes","type":"uint256"},{"indexed":false,"internalType":"uint256","name":"creditsSpent","type":"uint256"}],"name":"VoteRevealed","type":"event"},{"inputs":[],"name":"CHOICE_ABSTAIN","outputs":[{"internalType":"uint256","name":"","type":"uint256"}],"stateMutability":"view","type":"function"},{"inputs":[],"name":"CHOICE_AGAINST","outputs":[{"internalType":"uint256","name":"","type":"uint256"}],"stateMutability":"view","type":"function"},{"inputs":[],"name":"CHOICE_FOR","outputs":[{"internalType":"uint256","name":"","type":"uint256"}],"stateMutability":"view","type":"function"},{"inputs":[],"name":"INITIAL_CREDITS","outputs":[{"internalType":"uint256","name":"","type":"uint256"}],"stateMutability":"view","type":"function"},{"inputs":[{"internalType":"uint256","name":"availableCredits","type":"uint256"}],"name":"calculateMaxVotes","outputs":[{"internalType":"uint256","name":"","type":"uint256"}],"stateMutability":"pure","type":"function"},{"inputs":[{"internalType":"uint256","name":"numVotes","type":"uint256"}],"name":"calculateQuadraticCost","outputs":[{"internalType":"uint256","name":"","type":"uint256"}],"stateMutability":"pure","type":"function"},{"inputs":[{"internalType":"uint256","name":"_proposalId","type":"uint256"},{"internalType":"uint256","name":"_commitment","type":"uint256"},{"internalType":"uint256","name":"_numVotes","type":"uint256"},{"internalType":"uint256","name":"_creditsSpent","type":"uint256"},{"internalType":"uint256","name":"_nullifier","type":"uint256"},{"internalType":"uint256[2]","name":"_pA","type":"uint256[2]"},{"internalType":"uint256[2][2]","name":"_pB","type":"uint256[2][2]"},{"internalType":"uint256[2]","name":"_pC","type":"uint256[2]"}],"name":"commitVoteQuadratic","outputs":[],"stateMutability":"nonpayable","type":"function"},{"inputs":[{"internalType":"uint256","name":"","type":"uint256"},{"internalType":"uint256","name":"","type":"uint256"}],"name":"commitments","outputs":[{"internalType":"uint256","name":"commitment","type":"uint256"},{"internalType":"uint256","name":"creditsSpent","type":"uint256"},{"internalType":"uint256","name":"numVotes","type":"uint256"},{"internalType":"uint256","name":"nullifier","type":"uint256"},{"internalType":"uint256","name":"timestamp","type":"uint256"},{"internalType":"bool","name":"revealed","type":"bool"},{"internalType":"uint256","name":"revealedChoice","type":"uint256"},{"internalType":"bool","name":"exists","type":"bool"}],"stateMutability":"view","type":"function"},{"inputs":[{"internalType":"string","name":"_title","type":"string"},{"internalType":"string","name":"_description","type":"string"},{"internalType":"uint256","name":"_creditRoot","type":"uint256"},{"internalType":"uint256","name":"_votingDuration","type":"uint256"},{"internalType":"uint256","name":"_revealDuration","type":"uint256"}],"name":"createProposal","outputs":[{"internalType":"uint256","name":"","type":"uint256"}],"stateMutability":"nonpayable","type":"function"},{"inputs":[{"internalType":"uint256","name":"","type":"uint256"}],"name":"creditRootHistory","outputs":[{"internalType":"uint256","name":"","type":"uint256"}],"stateMutability":"view","type":"function"},{"inputs":[{"internalType":"address","name":"user","type":"address"}],"name":"getAvailableCredits","outputs":[{"internalType":"uint256","name":"","type":"uint256"}],"stateMutability":"view","type":"function"},{"inputs":[{"internalType":"uint256","name":"_proposalId","type":"uint256"},{"internalType":"uint256","name":"_nullifier","type":"uint256"}],"name":"getCommitment","outputs":[{"internalType":"uint256","name":"commitment","type":"uint256"},{"internalType":"uint256","name":"creditsSpent","type":"uint256"},{"internalType":"uint256","name":"numVotes","type":"uint256"},{"internalType":"bool","name":"revealed","type":"bool"},{"internalType":"uint256","name":"revealedChoice","type":"uint256"}],"stateMutability":"view","type":"function"},{"inputs":[{"internalType":"uint256","name":"_proposalId","type":"uint256"}],"name":"getPhase","outputs":[{"internalType":"uint8","name":"","type":"uint8"}],"stateMutability":"view","type":"function"},{"inputs":[{"internalType":"uint256","name":"_proposalId","type":"uint256"}],"name":"getProposal","outputs":[{"internalType":"uint256","name":"id","type":"uint256"},{"internalType":"string","name":"title","type":"string"},{"internalType":"string","name":"description","type":"string"},{"internalType":"address","name":"proposer","type":"address"},{"internalType":"uint256","name":"creditRoot","type":"uint256"},{"internalType":"uint256","name":"endTime","type":"uint256"},{"internalType":"uint256","name":"revealEndTime","type":"uint256"},{"internalType":"uint256","name":"forVotes","type":"uint256"},{"internalType":"uint256","name":"againstVotes","type":"uint256"},{"internalType":"uint256","name":"abstainVotes","type":"uint256"},{"internalType":"uint256","name":"totalCreditsSpent","type":"uint256"},{"internalType":"uint256","name":"totalCommitments","type":"uint256"},{"internalType":"uint256","name":"revealedVotes","type":"uint256"},{"internalType":"uint8","name":"phase","type":"uint8"}],"stateMutability":"view","type":"function"},{"inputs":[],"name":"getRegisteredCreditNotes","outputs":[{"internalType":"uint256[]","name":"","type":"uint256[]"}],"stateMutability":"view","type":"function"},{"inputs":[],"name":"initializeCredits","outputs":[],"stateMutability":"nonpayable","type":"function"},{"inputs":[{"internalType":"uint256","name":"","type":"uint256"}],"name":"isCreditNoteRegistered","outputs":[{"internalType":"bool","name":"","type":"bool"}],"stateMutability":"view","type":"function"},{"inputs":[{"internalType":"uint256","name":"_creditRoot","type":"uint256"}],"name":"isCreditRootValid","outputs":[{"internalType":"bool","name":"","type":"bool"}],"stateMutability":"view","type":"function"},{"inputs":[{"internalType":"uint256","name":"","type":"uint256"},{"internalType":"uint256","name":"","type":"uint256"}],"name":"nullifierUsed","outputs":[{"internalType":"bool","name":"","type":"bool"}],"stateMutability":"view","type":"function"},{"inputs":[],"name":"proposalCount","outputs":[{"internalType":"uint256","name":"","type":"uint256"}],"stateMutability":"view","type":"function"},{"inputs":[{"internalType":"uint256","name":"","type":"uint256"}],"name":"proposals","outputs":[{"internalType":"uint256","name":"id","type":"uint256"},{"internalType":"string","name":"title","type":"string"},{"internalType":"string","name":"description","type":"string"},{"internalType":"address","name":"proposer","type":"address"},{"internalType":"uint256","name":"startTime","type":"uint256"},{"internalType":"uint256","name":"endTime","type":"uint256"},{"internalType":"uint256","name":"revealEndTime","type":"uint256"},{"internalType":"uint256","name":"creditRoot","type":"uint256"},{"internalType":"uint256","name":"forVotes","type":"uint256"},{"internalType":"uint256","name":"againstVotes","type":"uint256"},{"internalType":"uint256","name":"abstainVotes","type":"uint256"},{"internalType":"uint256","name":"totalCreditsSpent","type":"uint256"},{"internalType":"uint256","name":"totalCommitments","type":"uint256"},{"internalType":"uint256","name":"revealedVotes","type":"uint256"},{"internalType":"bool","name":"exists","type":"bool"}],"stateMutability":"view","type":"function"},{"inputs":[{"internalType":"uint256","name":"_creditNoteHash","type":"uint256"}],"name":"registerCreditNote","outputs":[],"stateMutability":"nonpayable","type":"function"},{"inputs":[{"internalType":"uint256","name":"_creditRoot","type":"uint256"}],"name":"registerCreditRoot","outputs":[],"stateMutability":"nonpayable","type":"function"},{"inputs":[{"internalType":"uint256","name":"","type":"uint256"}],"name":"registeredCreditNotes","outputs":[{"internalType":"uint256","name":"","type":"uint256"}],"stateMutability":"view","type":"function"},{"inputs":[{"internalType":"uint256","name":"_proposalId","type":"uint256"},{"internalType":"uint256","name":"_nullifier","type":"uint256"},{"internalType":"uint256","name":"_choice","type":"uint256"},{"internalType":"uint256","name":"_numVotes","type":"uint256"},{"internalType":"uint256","name":"_voteSalt","type":"uint256"}],"name":"revealVote","outputs":[],"stateMutability":"nonpayable","type":"function"},{"inputs":[{"internalType":"uint256","name":"_proposalId","type":"uint256"},{"internalType":"uint256","name":"_newCreditRoot","type":"uint256"}],"name":"updateProposalCredits","outputs":[],"stateMutability":"nonpayable","type":"function"},{"inputs":[{"internalType":"address","name":"","type":"address"}],"name":"userCredits","outputs":[{"internalType":"uint256","name":"totalCredits","type":"uint256"},{"internalType":"uint256","name":"usedCredits","type":"uint256"},{"internalType":"bool","name":"initialized","type":"bool"}],"stateMutability":"view","type":"function"},{"inputs":[{"internalType":"uint256","name":"","type":"uint256"}],"name":"validCreditRoots","outputs":[{"internalType":"bool","name":"","type":"bool"}],"stateMutability":"view","type":"function"},{"inputs":[],"name":"verifier","outputs":[{"internalType":"contract IVerifierD2","name":"","type":"address"}],"stateMutability":"view","type":"function"}],"evm":{"bytecode":{"linkReferences":{"contracts/PoseidonT5.sol":{"PoseidonT5":[{"length":20,"start":3334}]}},"object":"60a03461007357601f611bae38819003918201601f19168301916001600160401b038311848410176100785780849260209460405283398101031261007357516001600160a01b0381169081900361007357608052604051611b1f908161008f82396080518181816107af015261141d0152f35b600080fd5b634e487b7160e01b600052604160045260246000fdfe6080604052600436101561001257600080fd5b60003560e01c8063013cf08b1461155e578063094243cb146115005780630d70ece8146114cf57806316ef376b146114a657806320babb921461144c5780632b7ac3f3146114075780632bbe44fd146113e95780632c3556d6146113cb57806333423c0614610ea2578063417e70c81461021257806351c38f4014610be7578063697aa8e814610bca5780637164f0d614610b6657806374dd0fea14610b475780638ea7a27414610b2b5780638eb609e614610684578063974f7aa314610633578063a1c7574a1461057d578063a329b3131461052c578063b065a8e5146104f5578063b5770c33146104d9578063c7f758a8146103a1578063d13e2e6014610317578063d5444336146102b5578063d90292a314610299578063da35c6641461027b578063e78ffc9614610243578063ef3a2b39146102125763fb9607d31461015b57600080fd5b3461020d57600036600319011261020d5733600052600660205260ff600260406000200154161561018857005b604051610194816116bc565b6101df612710918281526002602082016000815260408301906001825233600052600660205260406000209351845551600184015551151591019060ff801983541691151516179055565b6040519081527f840108f8f5f45d25a166719fa7440c37016845a955726b639e64fb325f73100760203392a2005b600080fd5b3461020d57602036600319011261020d576004356000526004602052602060ff604060002054166040519015158152f35b3461020d57610251366117df565b906000526003602052604060002090600052602052602060ff604060002054166040519015158152f35b3461020d57600036600319011261020d576020600054604051908152f35b3461020d57600036600319011261020d57602060405160028152f35b3461020d57602036600319011261020d576004358060005260046020526040600020600160ff198254161790556102eb81611823565b7fc437041eca78e842ff32dc1036255a23da98c52b2f3bd3a875923aadb0276b3d6020604051428152a2005b3461020d57610325366117df565b90600052600260205260406000209060005260205261010060406000208054906001810154906002810154600382015460048301549060ff6005850154169260ff6007600687015496015416956040519788526020880152604087015260608601526080850152151560a084015260c0830152151560e0820152f35b3461020d57602036600319011261020d576004356000526001602052604060002060ff600e82015416156104c75760058101544281106104ac576000905b825491600160a01b6001900360038501541691600785015490600686015460088701546009880154600a89015491600b8a015493600c8b015495600d8c01549760018d0161042c906116fa565b9c600201610439906116fa565b6040519d8e9d8e6101c0918152816020820152016104569161179f565b8d810360408f01526104679161179f565b9a60608d015260808c015260a08b015260c08a015260e089015261010088015261012087015261014086015261016085015261018084015260ff166101a08301520390f35b600682015442116104bf576001906103df565b6002906103df565b60405163635e873760e01b8152600490fd5b3461020d57600036600319011261020d57602060405160008152f35b3461020d57602036600319011261020d576004356001600160a01b038116810361020d57610524602091611aaa565b604051908152f35b3461020d57602036600319011261020d5760043560055481101561020d5760209060056000527f036b6384b5eca791c62761152d0c79bb0604c104a5fb6f4eb0703f3154bb3db00154604051908152f35b3461020d57600036600319011261020d57604051806007548083526020809301809160076000527fa66cc928b5edb82af9bd49922954155ab7b0942694bea4ce44661d9a8736c6889060005b8682821061061f5786866105df828803836116d8565b604051928392818401908285525180915260408401929160005b82811061060857505050500390f35b8351855286955093810193928101926001016105f9565b8354855290930192600192830192016105c9565b3461020d57602036600319011261020d5760043560075481101561020d5760209060076000527fa66cc928b5edb82af9bd49922954155ab7b0942694bea4ce44661d9a8736c6880154604051908152f35b3461020d576101a036600319011261020d573660e41161020d57366101641161020d57366101a41161020d576004356000526001602052604060002060ff600e82015416156104c75760058101544211610b19576004356000526003602052604060002060843560005260205260ff60406000205416610b075761070a60443580611a8a565b60643503610af5576040518060a081011067ffffffffffffffff60a0830111176109ee5760a08101604052608435815260243560208201526004356040820152606435606082015260078201546080820152604051906334baeab960e01b8252604060a4600484013760e46000604484015b60028210610adf57505050604061016460c4840137600061010483015b60058210610ac95750602091508290506101a4817f00000000000000000000000000000000000000000000000000000000000000006001600160a01b03165afa908115610abd57600091610a82575b5015610a705733600052600660205260ff6002604060002001541615610a16575b60406000206001815491018054916108218382611a9d565b60643511610a04576108396108419360643590611987565b809255611a9d565b60405190606435825260208201527f380f4b80ac5d183ff04f143a097611558815196006b7297cae774c0b5680a5ee60403392a2600435600052600360205260406000206084356000526020526040600020600160ff1982541617905560405190610100820182811067ffffffffffffffff8211176109ee57600b92610979916040526024358152600760208201606435815260408301604435815261095d6060850160843581526080860142815260a08701916000835260c08801946000865260e08901966001885260043560005260026020526040600020608435600052602052604060002099518a555160018a0155516002890155516003880155516004870155511515600586019060ff801983541691151516179055565b51600684015551151591019060ff801983541691151516179055565b600c81016109878154611a06565b9055016109976064358254611987565b9055604051608435907f9b4d459382e25852cbc474f9f0a4f5bcf6a390587a897b91a8620533941685a560043591806109e9606435604435602435846040919493926060820195825260208201520152565b0390a3005b634e487b7160e01b600052604160045260246000fd5b6040516343fb945360e01b8152600490fd5b610a6b604051610a25816116bc565b61271081526002602082016000815260408301906001825233600052600660205260406000209351845551600184015551151591019060ff801983541691151516179055565b610809565b6040516309bde33960e01b8152600490fd5b90506020813d602011610ab5575b81610a9d602093836116d8565b8101031261020d5751801515810361020d57826107e8565b3d9150610a90565b6040513d6000823e3d90fd5b6020806001928551815201930191019091610799565b604080828186600195370193019101909161077c565b6040516315252a2960e21b8152600490fd5b604051636569570160e11b8152600490fd5b60405163abfb7dc360e01b8152600490fd5b3461020d57600036600319011261020d57602060405160018152f35b3461020d57602036600319011261020d57602061052460043580611a8a565b3461020d57610b74366117df565b90600052600260205260406000209060005260205260a060406000208054906001810154906002810154600660ff6005840154169201549260405194855260208501526040840152151560608301526080820152f35b3461020d57600036600319011261020d5760206040516127108152f35b3461020d5760a036600319011261020d5760043560243590604435606435826000526020916001835260406000209260028152604060002086600052815260406000209060ff600e86015416156104c7576005850154421115610e905760068501544211610e905760ff60078301541615610e7e576005820160ff815416610e6c5760028411610e5a576040519173__$0daf1669a85ce10529e05b8a030b9567e1$__610c93846116a0565b858452868285015260018501938454604082015289606082015260405190838280610ccc6321c2736360e21b9485835260048301611a5c565b0381865af4908115610abd578492600092610e27575b5092610d209360405192610cf5846116a0565b8352608435848401526000604084015260006060840152604051809581948293835260048301611a5c565b03915af4918215610abd57600092610df9575b5050835403610de7577f30a79e72693ce3de4f5d96c7167c1cf349d2520bd766c2cfc8b684ec71ab1802958460066109e995600d94600160ff19825416179055015560018514600014610dbd5760088101610d8f878254611987565b90555b01610d9d8154611a06565b905554604051938493846040919493926060820195825260208201520152565b84610dd85760098101610dd1878254611987565b9055610d92565b600a8101610dd1878254611987565b604051639ea6d12760e01b8152600490fd5b90809250813d8311610e20575b610e1081836116d8565b8101031261020d57518980610d33565b503d610e06565b8381949293503d8311610e53575b610e3f81836116d8565b8101031261020d5790518391610d20610ce2565b503d610e35565b604051639c45400160e01b8152600490fd5b60405163a89ac15160e01b8152600490fd5b604051635b34156960e11b8152600490fd5b6040516374683d7160e01b8152600490fd5b3461020d5760a036600319011261020d5760043567ffffffffffffffff811161020d57610ed39036906004016117f5565b60243567ffffffffffffffff811161020d57610ef39036906004016117f5565b9190604435600052600460205260ff60406000205416156113b957610f19600054611a06565b9283600055610f2a60643542611987565b610f41608435610f3c60643542611987565b611987565b9160405193846101e081011067ffffffffffffffff6101e0870111176109ee57610f87916101e08601604052878652610f7b36888b611a15565b60208701523691611a15565b604084015233606084015242608084015260a083015260c082015260443560e08201526000610100820152600061012082015260006101408201526000610160820152600061018082015260006101a082015260016101c082015282600052600160205260406000209080518255602081015180519067ffffffffffffffff82116109ee57819061101b6001860154611666565b601f8111611366575b50602090601f83116001146112f4576000926112e9575b50508160011b916000199060031b1c19161760018301555b604081015180519067ffffffffffffffff82116109ee576110776002850154611666565b601f81116112a2575b5091859391602097938890601f83116001146112005761118e93837f28528fa183090d38f4c35574bb13fb455a547bda31d9bc9520957c9558f52f8e979694600e946101c0946000926111f5575b50508160011b916000199060031b1c19161760028501555b6003840160018060a01b036060830151166bffffffffffffffffffffffff60a01b8254161790556080810151600485015560a0810151600585015560c0810151600685015560e0810151600785015561010081015160088501556101208101516009850155610140810151600a850155610160810151600b850155610180810151600c8501556101a0810151600d8501550151151591019060ff801983541691151516179055565b61119a60643542611987565b6111ac608435610f3c60643542611987565b9085604051936080855281608086015260a0850137600060a08785010152604435888401526040830152606082015260a0813395601f80199101168101030190a3604051908152f35b015190508d806110ce565b95949392919060028401600052896000209660005b601f19841681106112885750926001837f28528fa183090d38f4c35574bb13fb455a547bda31d9bc9520957c9558f52f8e98996101c09461118e9897600e97601f1981161061126f575b505050811b0160028501556110e6565b015160001960f88460031b161c191690558d808061125f565b8282015189556001909801978a9750918b01918b01611215565b600285016000526020600020601f840160051c8101602085106112e2575b601f830160051c820181106112d6575050611080565b600081556001016112c0565b50806112c0565b01519050878061103b565b9250600185016000526020600020906000935b601f198416851061134b576001945083601f19811610611332575b505050811b016001830155611053565b015160001960f88460031b161c19169055878080611322565b81810151835560209485019460019093019290910190611307565b909150600185016000526020600020601f840160051c8101602085106113b2575b90849392915b601f830160051c820181106113a3575050611024565b6000815585945060010161138d565b5080611387565b604051633398105560e01b8152600490fd5b3461020d57602036600319011261020d5760206105246004356119aa565b3461020d57602036600319011261020d576114056004356118c2565b005b3461020d57600036600319011261020d576040517f00000000000000000000000000000000000000000000000000000000000000006001600160a01b03168152602090f35b3461020d57602036600319011261020d576004356001600160a01b0381169081900361020d5760005260066020526060604060002080549060ff600260018301549201541690604051928352602083015215156040820152f35b3461020d57602036600319011261020d5760206114c4600435611881565b60ff60405191168152f35b3461020d57602036600319011261020d576004356000526008602052602060ff604060002054166040519015158152f35b3461020d5761150e366117df565b906000526001602052604060002060ff600e82015416156104c75760078291015580600052600460205260406000209081549160ff83161561154c57005b60016114059360ff1916179055611823565b3461020d57602036600319011261020d576004356000526001602052604060002080546001820161158e906116fa565b61159a600284016116fa565b92600160a01b600190036003820154169060048101546005820154600683015460078401546008850154600986015491600a87015493600b88015495600c89015497600d8a015499600e015460ff169a6040519e8f9e8f9e8f916101e0908352806020840152820161160b9161179f565b90808203906040015261161d9161179f565b9c6060015260808d015260a08c015260c08b015260e08a01526101008901526101208801526101408701526101608601526101808501526101a084015215156101c08301520390f35b90600182811c92168015611696575b602083101461168057565b634e487b7160e01b600052602260045260246000fd5b91607f1691611675565b6080810190811067ffffffffffffffff8211176109ee57604052565b6060810190811067ffffffffffffffff8211176109ee57604052565b90601f8019910116810190811067ffffffffffffffff8211176109ee57604052565b9060405191826000825461170d81611666565b9081845260209460019160018116908160001461177d575060011461173e575b50505061173c925003836116d8565b565b600090815285812095935091905b81831061176557505061173c935082010138808061172d565b8554888401850152948501948794509183019161174c565b9250505061173c94925060ff191682840152151560051b82010138808061172d565b919082519283825260005b8481106117cb575050826000602080949584010152601f8019910116010190565b6020818301810151848301820152016117aa565b604090600319011261020d576004359060243590565b9181601f8401121561020d5782359167ffffffffffffffff831161020d576020838186019501011161020d57565b600554600160401b8110156109ee57600181018060055581101561186b5760056000527f036b6384b5eca791c62761152d0c79bb0604c104a5fb6f4eb0703f3154bb3db00155565b634e487b7160e01b600052603260045260246000fd5b6000526001602052604060002060ff600e82015416156104c75760058101544211156118bc57600601544211156118b757600290565b600190565b50600090565b90600091808352600860205260408320805460ff81166119805760ff19166001179055600754600160401b81101561196c576001810180600755811015611958576007829394527fa66cc928b5edb82af9bd49922954155ab7b0942694bea4ce44661d9a8736c68801557f1926a241ba9d59467ac0063e2cb861452b93ab650fff5378a82e86befecc27ab6020604051428152a2565b634e487b7160e01b84526032600452602484fd5b634e487b7160e01b84526041600452602484fd5b5050509050565b9190820180921161199457565b634e487b7160e01b600052601160045260246000fd5b80156118bc576001818181018082116119945760011c91905b8383106119d05750505090565b919250908280156119f157806119e891830490611987565b821c91906119c3565b60246000634e487b7160e01b81526012600452fd5b60001981146119945760010190565b92919267ffffffffffffffff82116109ee5760405191611a3f601f8201601f1916602001846116d8565b82948184528183011161020d578281602093846000960137010152565b6080810192916000915b60048310611a7357505050565b600190825181526020809101920192019190611a66565b8181029291811591840414171561199457565b9190820391821161199457565b6001600160a01b03166000908152600660205260409020600281015460ff1615611ae257806001611adf925491015490611a9d565b90565b506127109056fea2646970667358221220cfa3899fe8472c6e59a8ad69a44d577ba5ae30b4e2a863383c648182323c315b64736f6c63430008180033","opcodes":"PUSH1 0xA0 CALLVALUE PUSH2 0x73 JUMPI PUSH1 0x1F PUSH2 0x1BAE CODESIZE DUP2 SWAP1 SUB SWAP2 DUP3 ADD PUSH1 0x1F NOT AND DUP4 ADD SWAP2 PUSH1 0x1 PUSH1 0x1 PUSH1 0x40 SHL SUB DUP4 GT DUP5 DUP5 LT OR PUSH2 0x78 JUMPI DUP1 DUP5 SWAP3 PUSH1 0x20 SWAP5 PUSH1 0x40 MSTORE DUP4 CODECOPY DUP2 ADD SUB SLT PUSH2 0x73 JUMPI MLOAD PUSH1 0x1 PUSH1 0x1 PUSH1 0xA0 SHL SUB DUP2 AND SWAP1 DUP2 SWAP1 SUB PUSH2 0x73 JUMPI PUSH1 0x80 MSTORE PUSH1 0x40 MLOAD PUSH2 0x1B1F SWAP1 DUP2 PUSH2 0x8F DUP3 CODECOPY PUSH1 0x80 MLOAD DUP2 DUP2 DUP2 PUSH2 0x7AF ADD MSTORE PUSH2 0x141D ADD MSTORE RETURN JUMPDEST PUSH1 0x0 DUP1 REVERT JUMPDEST PUSH4 0x4E487B71 PUSH1 0xE0 SHL PUSH1 0x0 MSTORE PUSH1 0x41 PUSH1 0x4 MSTORE PUSH1 0x24 PUSH1 0x0 REVERT INVALID PUSH1 0x80 PUSH1 0x40 MSTORE PUSH1 0x4 CALLDATASIZE LT ISZERO PUSH2 0x12 JUMPI PUSH1 0x0 DUP1 REVERT JUMPDEST PUSH1 0x0 CALLDATALOAD PUSH1 0xE0 SHR DUP1 PUSH4 0x13CF08B EQ PUSH2 0x155E JUMPI DUP1 PUSH4 0x94243CB EQ PUSH2 0x1500 JUMPI DUP1 PUSH4 0xD70ECE8 EQ PUSH2 0x14CF JUMPI DUP1 PUSH4 0x16EF376B EQ PUSH2 0x14A6 JUMPI DUP1 PUSH4 0x20BABB92 EQ PUSH2 0x144C JUMPI DUP1 PUSH4 0x2B7AC3F3 EQ PUSH2 0x1407 JUMPI DUP1 PUSH4 0x2BBE44FD EQ PUSH2 0x13E9 JUMPI DUP1 PUSH4 0x2C3556D6 EQ PUSH2 0x13CB JUMPI DUP1 PUSH4 0x33423C06 EQ PUSH2 0xEA2 JUMPI DUP1 PUSH4 0x417E70C8 EQ PUSH2 0x212 JUMPI DUP1 PUSH4 0x51C38F40 EQ PUSH2 0xBE7 JUMPI DUP1 PUSH4 0x697AA8E8 EQ PUSH2 0xBCA JUMPI DUP1 PUSH4 0x7164F0D6 EQ PUSH2 0xB66 JUMPI DUP1 PUSH4 0x74DD0FEA EQ PUSH2 0xB47 JUMPI DUP1 PUSH4 0x8EA7A274 EQ PUSH2 0xB2B JUMPI DUP1 PUSH4 0x8EB609E6 EQ PUSH2 0x684 JUMPI DUP1 PUSH4 0x974F7AA3 EQ PUSH2 0x633 JUMPI DUP1 PUSH4 0xA1C7574A EQ PUSH2 0x57D JUMPI DUP1 PUSH4 0xA329B313 EQ PUSH2 0x52C JUMPI DUP1 PUSH4 0xB065A8E5 EQ PUSH2 0x4F5 JUMPI DUP1 PUSH4 0xB5770C33 EQ PUSH2 0x4D9 JUMPI DUP1 PUSH4 0xC7F758A8 EQ PUSH2 0x3A1 JUMPI DUP1 PUSH4 0xD13E2E60 EQ PUSH2 0x317 JUMPI DUP1 PUSH4 0xD5444336 EQ PUSH2 0x2B5 JUMPI DUP1 PUSH4 0xD90292A3 EQ PUSH2 0x299 JUMPI DUP1 PUSH4 0xDA35C664 EQ PUSH2 0x27B JUMPI DUP1 PUSH4 0xE78FFC96 EQ PUSH2 0x243 JUMPI DUP1 PUSH4 0xEF3A2B39 EQ PUSH2 0x212 JUMPI PUSH4 0xFB9607D3 EQ PUSH2 0x15B JUMPI PUSH1 0x0 DUP1 REVERT JUMPDEST CALLVALUE PUSH2 0x20D JUMPI PUSH1 0x0 CALLDATASIZE PUSH1 0x3 NOT ADD SLT PUSH2 0x20D JUMPI CALLER PUSH1 0x0 MSTORE PUSH1 0x6 PUSH1 0x20 MSTORE PUSH1 0xFF PUSH1 0x2 PUSH1 0x40 PUSH1 0x0 KECCAK256 ADD SLOAD AND ISZERO PUSH2 0x188 JUMPI STOP JUMPDEST PUSH1 0x40 MLOAD PUSH2 0x194 DUP2 PUSH2 0x16BC JUMP JUMPDEST PUSH2 0x1DF PUSH2 0x2710 SWAP2 DUP3 DUP2 MSTORE PUSH1 0x2 PUSH1 0x20 DUP3 ADD PUSH1 0x0 DUP2 MSTORE PUSH1 0x40 DUP4 ADD SWAP1 PUSH1 0x1 DUP3 MSTORE CALLER PUSH1 0x0 MSTORE PUSH1 0x6 PUSH1 0x20 MSTORE PUSH1 0x40 PUSH1 0x0 KECCAK256 SWAP4 MLOAD DUP5 SSTORE MLOAD PUSH1 0x1 DUP5 ADD SSTORE MLOAD ISZERO ISZERO SWAP2 ADD SWAP1 PUSH1 0xFF DUP1 NOT DUP4 SLOAD AND SWAP2 ISZERO ISZERO AND OR SWAP1 SSTORE JUMP JUMPDEST PUSH1 0x40 MLOAD SWAP1 DUP2 MSTORE PUSH32 0x840108F8F5F45D25A166719FA7440C37016845A955726B639E64FB325F731007 PUSH1 0x20 CALLER SWAP3 LOG2 STOP JUMPDEST PUSH1 0x0 DUP1 REVERT JUMPDEST CALLVALUE PUSH2 0x20D JUMPI PUSH1 0x20 CALLDATASIZE PUSH1 0x3 NOT ADD SLT PUSH2 0x20D JUMPI PUSH1 0x4 CALLDATALOAD PUSH1 0x0 MSTORE PUSH1 0x4 PUSH1 0x20 MSTORE PUSH1 0x20 PUSH1 0xFF PUSH1 0x40 PUSH1 0x0 KECCAK256 SLOAD AND PUSH1 0x40 MLOAD SWAP1 ISZERO ISZERO DUP2 MSTORE RETURN JUMPDEST CALLVALUE PUSH2 0x20D JUMPI PUSH2 0x251 CALLDATASIZE PUSH2 0x17DF JUMP JUMPDEST SWAP1 PUSH1 0x0 MSTORE PUSH1 0x3 PUSH1 0x20 MSTORE PUSH1 0x40 PUSH1 0x0 KECCAK256 SWAP1 PUSH1 0x0 MSTORE PUSH1 0x20 MSTORE PUSH1 0x20 PUSH1 0xFF PUSH1 0x40 PUSH1 0x0 KECCAK256 SLOAD AND PUSH1 0x40 MLOAD SWAP1 ISZERO ISZERO DUP2 MSTORE RETURN JUMPDEST CALLVALUE PUSH2 0x20D JUMPI PUSH1 0x0 CALLDATASIZE PUSH1 0x3 NOT ADD SLT PUSH2 0x20D JUMPI PUSH1 0x20 PUSH1 0x0 SLOAD PUSH1 0x40 MLOAD SWAP1 DUP2 MSTORE RETURN JUMPDEST CALLVALUE PUSH2 0x20D JUMPI PUSH1 0x0 CALLDATASIZE PUSH1 0x3 NOT ADD SLT PUSH2 0x20D JUMPI PUSH1 0x20 PUSH1 0x40 MLOAD PUSH1 0x2 DUP2 MSTORE RETURN JUMPDEST CALLVALUE PUSH2 0x20D JUMPI PUSH1 0x20 CALLDATASIZE PUSH1 0x3 NOT ADD SLT PUSH2 0x20D JUMPI PUSH1 0x4 CALLDATALOAD DUP1 PUSH1 0x0 MSTORE PUSH1 0x4 PUSH1 0x20 MSTORE PUSH1 0x40 PUSH1 0x0 KECCAK256 PUSH1 0x1 PUSH1 0xFF NOT DUP3 SLOAD AND OR SWAP1 SSTORE PUSH2 0x2EB DUP2 PUSH2 0x1823 JUMP JUMPDEST PUSH32 0xC437041ECA78E842FF32DC1036255A23DA98C52B2F3BD3A875923AADB0276B3D PUSH1 0x20 PUSH1 0x40 MLOAD TIMESTAMP DUP2 MSTORE LOG2 STOP JUMPDEST CALLVALUE PUSH2 0x20D JUMPI PUSH2 0x325 CALLDATASIZE PUSH2 0x17DF JUMP JUMPDEST SWAP1 PUSH1 0x0 MSTORE PUSH1 0x2 PUSH1 0x20 MSTORE PUSH1 0x40 PUSH1 0x0 KECCAK256 SWAP1 PUSH1 0x0 MSTORE PUSH1 0x20 MSTORE PUSH2 0x100 PUSH1 0x40 PUSH1 0x0 KECCAK256 DUP1 SLOAD SWAP1 PUSH1 0x1 DUP2 ADD SLOAD SWAP1 PUSH1 0x2 DUP2 ADD SLOAD PUSH1 0x3 DUP3 ADD SLOAD PUSH1 0x4 DUP4 ADD SLOAD SWAP1 PUSH1 0xFF PUSH1 0x5 DUP6 ADD SLOAD AND SWAP3 PUSH1 0xFF PUSH1 0x7 PUSH1 0x6 DUP8 ADD SLOAD SWAP7 ADD SLOAD AND SWAP6 PUSH1 0x40 MLOAD SWAP8 DUP9 MSTORE PUSH1 0x20 DUP9 ADD MSTORE PUSH1 0x40 DUP8 ADD MSTORE PUSH1 0x60 DUP7 ADD MSTORE PUSH1 0x80 DUP6 ADD MSTORE ISZERO ISZERO PUSH1 0xA0 DUP5 ADD MSTORE PUSH1 0xC0 DUP4 ADD MSTORE ISZERO ISZERO PUSH1 0xE0 DUP3 ADD MSTORE RETURN JUMPDEST CALLVALUE PUSH2 0x20D JUMPI PUSH1 0x20 CALLDATASIZE PUSH1 0x3 NOT ADD SLT PUSH2 0x20D JUMPI PUSH1 0x4 CALLDATALOAD PUSH1 0x0 MSTORE PUSH1 0x1 PUSH1 0x20 MSTORE PUSH1 0x40 PUSH1 0x0 KECCAK256 PUSH1 0xFF PUSH1 0xE DUP3 ADD SLOAD AND ISZERO PUSH2 0x4C7 JUMPI PUSH1 0x5 DUP2 ADD SLOAD TIMESTAMP DUP2 LT PUSH2 0x4AC JUMPI PUSH1 0x0 SWAP1 JUMPDEST DUP3 SLOAD SWAP2 PUSH1 0x1 PUSH1 0xA0 SHL PUSH1 0x1 SWAP1 SUB PUSH1 0x3 DUP6 ADD SLOAD AND SWAP2 PUSH1 0x7 DUP6 ADD SLOAD SWAP1 PUSH1 0x6 DUP7 ADD SLOAD PUSH1 0x8 DUP8 ADD SLOAD PUSH1 0x9 DUP9 ADD SLOAD PUSH1 0xA DUP10 ADD SLOAD SWAP2 PUSH1 0xB DUP11 ADD SLOAD SWAP4 PUSH1 0xC DUP12 ADD SLOAD SWAP6 PUSH1 0xD DUP13 ADD SLOAD SWAP8 PUSH1 0x1 DUP14 ADD PUSH2 0x42C SWAP1 PUSH2 0x16FA JUMP JUMPDEST SWAP13 PUSH1 0x2 ADD PUSH2 0x439 SWAP1 PUSH2 0x16FA JUMP JUMPDEST PUSH1 0x40 MLOAD SWAP14 DUP15 SWAP14 DUP15 PUSH2 0x1C0 SWAP2 DUP2 MSTORE DUP2 PUSH1 0x20 DUP3 ADD MSTORE ADD PUSH2 0x456 SWAP2 PUSH2 0x179F JUMP JUMPDEST DUP14 DUP2 SUB PUSH1 0x40 DUP16 ADD MSTORE PUSH2 0x467 SWAP2 PUSH2 0x179F JUMP JUMPDEST SWAP11 PUSH1 0x60 DUP14 ADD MSTORE PUSH1 0x80 DUP13 ADD MSTORE PUSH1 0xA0 DUP12 ADD MSTORE PUSH1 0xC0 DUP11 ADD MSTORE PUSH1 0xE0 DUP10 ADD MSTORE PUSH2 0x100 DUP9 ADD MSTORE PUSH2 0x120 DUP8 ADD MSTORE PUSH2 0x140 DUP7 ADD MSTORE PUSH2 0x160 DUP6 ADD MSTORE PUSH2 0x180 DUP5 ADD MSTORE PUSH1 0xFF AND PUSH2 0x1A0 DUP4 ADD MSTORE SUB SWAP1 RETURN JUMPDEST PUSH1 0x6 DUP3 ADD SLOAD TIMESTAMP GT PUSH2 0x4BF JUMPI PUSH1 0x1 SWAP1 PUSH2 0x3DF JUMP JUMPDEST PUSH1 0x2 SWAP1 PUSH2 0x3DF JUMP JUMPDEST PUSH1 0x40 MLOAD PUSH4 0x635E8737 PUSH1 0xE0 SHL DUP2 MSTORE PUSH1 0x4 SWAP1 REVERT JUMPDEST CALLVALUE PUSH2 0x20D JUMPI PUSH1 0x0 CALLDATASIZE PUSH1 0x3 NOT ADD SLT PUSH2 0x20D JUMPI PUSH1 0x20 PUSH1 0x40 MLOAD PUSH1 0x0 DUP2 MSTORE RETURN JUMPDEST CALLVALUE PUSH2 0x20D JUMPI PUSH1 0x20 CALLDATASIZE PUSH1 0x3 NOT ADD SLT PUSH2 0x20D JUMPI PUSH1 0x4 CALLDATALOAD PUSH1 0x1 PUSH1 0x1 PUSH1 0xA0 SHL SUB DUP2 AND DUP2 SUB PUSH2 0x20D JUMPI PUSH2 0x524 PUSH1 0x20 SWAP2 PUSH2 0x1AAA JUMP JUMPDEST PUSH1 0x40 MLOAD SWAP1 DUP2 MSTORE RETURN JUMPDEST CALLVALUE PUSH2 0x20D JUMPI PUSH1 0x20 CALLDATASIZE PUSH1 0x3 NOT ADD SLT PUSH2 0x20D JUMPI PUSH1 0x4 CALLDATALOAD PUSH1 0x5 SLOAD DUP2 LT ISZERO PUSH2 0x20D JUMPI PUSH1 0x20 SWAP1 PUSH1 0x5 PUSH1 0x0 MSTORE PUSH32 0x36B6384B5ECA791C62761152D0C79BB0604C104A5FB6F4EB0703F3154BB3DB0 ADD SLOAD PUSH1 0x40 MLOAD SWAP1 DUP2 MSTORE RETURN JUMPDEST CALLVALUE PUSH2 0x20D JUMPI PUSH1 0x0 CALLDATASIZE PUSH1 0x3 NOT ADD SLT PUSH2 0x20D JUMPI PUSH1 0x40 MLOAD DUP1 PUSH1 0x7 SLOAD DUP1 DUP4 MSTORE PUSH1 0x20 DUP1 SWAP4 ADD DUP1 SWAP2 PUSH1 0x7 PUSH1 0x0 MSTORE PUSH32 0xA66CC928B5EDB82AF9BD49922954155AB7B0942694BEA4CE44661D9A8736C688 SWAP1 PUSH1 0x0 JUMPDEST DUP7 DUP3 DUP3 LT PUSH2 0x61F JUMPI DUP7 DUP7 PUSH2 0x5DF DUP3 DUP9 SUB DUP4 PUSH2 0x16D8 JUMP JUMPDEST PUSH1 0x40 MLOAD SWAP3 DUP4 SWAP3 DUP2 DUP5 ADD SWAP1 DUP3 DUP6 MSTORE MLOAD DUP1 SWAP2 MSTORE PUSH1 0x40 DUP5 ADD SWAP3 SWAP2 PUSH1 0x0 JUMPDEST DUP3 DUP2 LT PUSH2 0x608 JUMPI POP POP POP POP SUB SWAP1 RETURN JUMPDEST DUP4 MLOAD DUP6 MSTORE DUP7 SWAP6 POP SWAP4 DUP2 ADD SWAP4 SWAP3 DUP2 ADD SWAP3 PUSH1 0x1 ADD PUSH2 0x5F9 JUMP JUMPDEST DUP4 SLOAD DUP6 MSTORE SWAP1 SWAP4 ADD SWAP3 PUSH1 0x1 SWAP3 DUP4 ADD SWAP3 ADD PUSH2 0x5C9 JUMP JUMPDEST CALLVALUE PUSH2 0x20D JUMPI PUSH1 0x20 CALLDATASIZE PUSH1 0x3 NOT ADD SLT PUSH2 0x20D JUMPI PUSH1 0x4 CALLDATALOAD PUSH1 0x7 SLOAD DUP2 LT ISZERO PUSH2 0x20D JUMPI PUSH1 0x20 SWAP1 PUSH1 0x7 PUSH1 0x0 MSTORE PUSH32 0xA66CC928B5EDB82AF9BD49922954155AB7B0942694BEA4CE44661D9A8736C688 ADD SLOAD PUSH1 0x40 MLOAD SWAP1 DUP2 MSTORE RETURN JUMPDEST CALLVALUE PUSH2 0x20D JUMPI PUSH2 0x1A0 CALLDATASIZE PUSH1 0x3 NOT ADD SLT PUSH2 0x20D JUMPI CALLDATASIZE PUSH1 0xE4 GT PUSH2 0x20D JUMPI CALLDATASIZE PUSH2 0x164 GT PUSH2 0x20D JUMPI CALLDATASIZE PUSH2 0x1A4 GT PUSH2 0x20D JUMPI PUSH1 0x4 CALLDATALOAD PUSH1 0x0 MSTORE PUSH1 0x1 PUSH1 0x20 MSTORE PUSH1 0x40 PUSH1 0x0 KECCAK256 PUSH1 0xFF PUSH1 0xE DUP3 ADD SLOAD AND ISZERO PUSH2 0x4C7 JUMPI PUSH1 0x5 DUP2 ADD SLOAD TIMESTAMP GT PUSH2 0xB19 JUMPI PUSH1 0x4 CALLDATALOAD PUSH1 0x0 MSTORE PUSH1 0x3 PUSH1 0x20 MSTORE PUSH1 0x40 PUSH1 0x0 KECCAK256 PUSH1 0x84 CALLDATALOAD PUSH1 0x0 MSTORE PUSH1 0x20 MSTORE PUSH1 0xFF PUSH1 0x40 PUSH1 0x0 KECCAK256 SLOAD AND PUSH2 0xB07 JUMPI PUSH2 0x70A PUSH1 0x44 CALLDATALOAD DUP1 PUSH2 0x1A8A JUMP JUMPDEST PUSH1 0x64 CALLDATALOAD SUB PUSH2 0xAF5 JUMPI PUSH1 0x40 MLOAD DUP1 PUSH1 0xA0 DUP2 ADD LT PUSH8 0xFFFFFFFFFFFFFFFF PUSH1 0xA0 DUP4 ADD GT OR PUSH2 0x9EE JUMPI PUSH1 0xA0 DUP2 ADD PUSH1 0x40 MSTORE PUSH1 0x84 CALLDATALOAD DUP2 MSTORE PUSH1 0x24 CALLDATALOAD PUSH1 0x20 DUP3 ADD MSTORE PUSH1 0x4 CALLDATALOAD PUSH1 0x40 DUP3 ADD MSTORE PUSH1 0x64 CALLDATALOAD PUSH1 0x60 DUP3 ADD MSTORE PUSH1 0x7 DUP3 ADD SLOAD PUSH1 0x80 DUP3 ADD MSTORE PUSH1 0x40 MLOAD SWAP1 PUSH4 0x34BAEAB9 PUSH1 0xE0 SHL DUP3 MSTORE PUSH1 0x40 PUSH1 0xA4 PUSH1 0x4 DUP5 ADD CALLDATACOPY PUSH1 0xE4 PUSH1 0x0 PUSH1 0x44 DUP5 ADD JUMPDEST PUSH1 0x2 DUP3 LT PUSH2 0xADF JUMPI POP POP POP PUSH1 0x40 PUSH2 0x164 PUSH1 0xC4 DUP5 ADD CALLDATACOPY PUSH1 0x0 PUSH2 0x104 DUP4 ADD JUMPDEST PUSH1 0x5 DUP3 LT PUSH2 0xAC9 JUMPI POP PUSH1 0x20 SWAP2 POP DUP3 SWAP1 POP PUSH2 0x1A4 DUP2 PUSH32 0x0 PUSH1 0x1 PUSH1 0x1 PUSH1 0xA0 SHL SUB AND GAS STATICCALL SWAP1 DUP2 ISZERO PUSH2 0xABD JUMPI PUSH1 0x0 SWAP2 PUSH2 0xA82 JUMPI JUMPDEST POP ISZERO PUSH2 0xA70 JUMPI CALLER PUSH1 0x0 MSTORE PUSH1 0x6 PUSH1 0x20 MSTORE PUSH1 0xFF PUSH1 0x2 PUSH1 0x40 PUSH1 0x0 KECCAK256 ADD SLOAD AND ISZERO PUSH2 0xA16 JUMPI JUMPDEST PUSH1 0x40 PUSH1 0x0 KECCAK256 PUSH1 0x1 DUP2 SLOAD SWAP2 ADD DUP1 SLOAD SWAP2 PUSH2 0x821 DUP4 DUP3 PUSH2 0x1A9D JUMP JUMPDEST PUSH1 0x64 CALLDATALOAD GT PUSH2 0xA04 JUMPI PUSH2 0x839 PUSH2 0x841 SWAP4 PUSH1 0x64 CALLDATALOAD SWAP1 PUSH2 0x1987 JUMP JUMPDEST DUP1 SWAP3 SSTORE PUSH2 0x1A9D JUMP JUMPDEST PUSH1 0x40 MLOAD SWAP1 PUSH1 0x64 CALLDATALOAD DUP3 MSTORE PUSH1 0x20 DUP3 ADD MSTORE PUSH32 0x380F4B80AC5D183FF04F143A097611558815196006B7297CAE774C0B5680A5EE PUSH1 0x40 CALLER SWAP3 LOG2 PUSH1 0x4 CALLDATALOAD PUSH1 0x0 MSTORE PUSH1 0x3 PUSH1 0x20 MSTORE PUSH1 0x40 PUSH1 0x0 KECCAK256 PUSH1 0x84 CALLDATALOAD PUSH1 0x0 MSTORE PUSH1 0x20 MSTORE PUSH1 0x40 PUSH1 0x0 KECCAK256 PUSH1 0x1 PUSH1 0xFF NOT DUP3 SLOAD AND OR SWAP1 SSTORE PUSH1 0x40 MLOAD SWAP1 PUSH2 0x100 DUP3 ADD DUP3 DUP2 LT PUSH8 0xFFFFFFFFFFFFFFFF DUP3 GT OR PUSH2 0x9EE JUMPI PUSH1 0xB SWAP3 PUSH2 0x979 SWAP2 PUSH1 0x40 MSTORE PUSH1 0x24 CALLDATALOAD DUP2 MSTORE PUSH1 0x7 PUSH1 0x20 DUP3 ADD PUSH1 0x64 CALLDATALOAD DUP2 MSTORE PUSH1 0x40 DUP4 ADD PUSH1 0x44 CALLDATALOAD DUP2 MSTORE PUSH2 0x95D PUSH1 0x60 DUP6 ADD PUSH1 0x84 CALLDATALOAD DUP2 MSTORE PUSH1 0x80 DUP7 ADD TIMESTAMP DUP2 MSTORE PUSH1 0xA0 DUP8 ADD SWAP2 PUSH1 0x0 DUP4 MSTORE PUSH1 0xC0 DUP9 ADD SWAP5 PUSH1 0x0 DUP7 MSTORE PUSH1 0xE0 DUP10 ADD SWAP7 PUSH1 0x1 DUP9 MSTORE PUSH1 0x4 CALLDATALOAD PUSH1 0x0 MSTORE PUSH1 0x2 PUSH1 0x20 MSTORE PUSH1 0x40 PUSH1 0x0 KECCAK256 PUSH1 0x84 CALLDATALOAD PUSH1 0x0 MSTORE PUSH1 0x20 MSTORE PUSH1 0x40 PUSH1 0x0 KECCAK256 SWAP10 MLOAD DUP11 SSTORE MLOAD PUSH1 0x1 DUP11 ADD SSTORE MLOAD PUSH1 0x2 DUP10 ADD SSTORE MLOAD PUSH1 0x3 DUP9 ADD SSTORE MLOAD PUSH1 0x4 DUP8 ADD SSTORE MLOAD ISZERO ISZERO PUSH1 0x5 DUP7 ADD SWAP1 PUSH1 0xFF DUP1 NOT DUP4 SLOAD AND SWAP2 ISZERO ISZERO AND OR SWAP1 SSTORE JUMP JUMPDEST MLOAD PUSH1 0x6 DUP5 ADD SSTORE MLOAD ISZERO ISZERO SWAP2 ADD SWAP1 PUSH1 0xFF DUP1 NOT DUP4 SLOAD AND SWAP2 ISZERO ISZERO AND OR SWAP1 SSTORE JUMP JUMPDEST PUSH1 0xC DUP2 ADD PUSH2 0x987 DUP2 SLOAD PUSH2 0x1A06 JUMP JUMPDEST SWAP1 SSTORE ADD PUSH2 0x997 PUSH1 0x64 CALLDATALOAD DUP3 SLOAD PUSH2 0x1987 JUMP JUMPDEST SWAP1 SSTORE PUSH1 0x40 MLOAD PUSH1 0x84 CALLDATALOAD SWAP1 PUSH32 0x9B4D459382E25852CBC474F9F0A4F5BCF6A390587A897B91A8620533941685A5 PUSH1 0x4 CALLDATALOAD SWAP2 DUP1 PUSH2 0x9E9 PUSH1 0x64 CALLDATALOAD PUSH1 0x44 CALLDATALOAD PUSH1 0x24 CALLDATALOAD DUP5 PUSH1 0x40 SWAP2 SWAP5 SWAP4 SWAP3 PUSH1 0x60 DUP3 ADD SWAP6 DUP3 MSTORE PUSH1 0x20 DUP3 ADD MSTORE ADD MSTORE JUMP JUMPDEST SUB SWAP1 LOG3 STOP JUMPDEST PUSH4 0x4E487B71 PUSH1 0xE0 SHL PUSH1 0x0 MSTORE PUSH1 0x41 PUSH1 0x4 MSTORE PUSH1 0x24 PUSH1 0x0 REVERT JUMPDEST PUSH1 0x40 MLOAD PUSH4 0x43FB9453 PUSH1 0xE0 SHL DUP2 MSTORE PUSH1 0x4 SWAP1 REVERT JUMPDEST PUSH2 0xA6B PUSH1 0x40 MLOAD PUSH2 0xA25 DUP2 PUSH2 0x16BC JUMP JUMPDEST PUSH2 0x2710 DUP2 MSTORE PUSH1 0x2 PUSH1 0x20 DUP3 ADD PUSH1 0x0 DUP2 MSTORE PUSH1 0x40 DUP4 ADD SWAP1 PUSH1 0x1 DUP3 MSTORE CALLER PUSH1 0x0 MSTORE PUSH1 0x6 PUSH1 0x20 MSTORE PUSH1 0x40 PUSH1 0x0 KECCAK256 SWAP4 MLOAD DUP5 SSTORE MLOAD PUSH1 0x1 DUP5 ADD SSTORE MLOAD ISZERO ISZERO SWAP2 ADD SWAP1 PUSH1 0xFF DUP1 NOT DUP4 SLOAD AND SWAP2 ISZERO ISZERO AND OR SWAP1 SSTORE JUMP JUMPDEST PUSH2 0x809 JUMP JUMPDEST PUSH1 0x40 MLOAD PUSH4 0x9BDE339 PUSH1 0xE0 SHL DUP2 MSTORE PUSH1 0x4 SWAP1 REVERT JUMPDEST SWAP1 POP PUSH1 0x20 DUP2 RETURNDATASIZE PUSH1 0x20 GT PUSH2 0xAB5 JUMPI JUMPDEST DUP2 PUSH2 0xA9D PUSH1 0x20 SWAP4 DUP4 PUSH2 0x16D8 JUMP JUMPDEST DUP2 ADD SUB SLT PUSH2 0x20D JUMPI MLOAD DUP1 ISZERO ISZERO DUP2 SUB PUSH2 0x20D JUMPI DUP3 PUSH2 0x7E8 JUMP JUMPDEST RETURNDATASIZE SWAP2 POP PUSH2 0xA90 JUMP JUMPDEST PUSH1 0x40 MLOAD RETURNDATASIZE PUSH1 0x0 DUP3 RETURNDATACOPY RETURNDATASIZE SWAP1 REVERT JUMPDEST PUSH1 0x20 DUP1 PUSH1 0x1 SWAP3 DUP6 MLOAD DUP2 MSTORE ADD SWAP4 ADD SWAP2 ADD SWAP1 SWAP2 PUSH2 0x799 JUMP JUMPDEST PUSH1 0x40 DUP1 DUP3 DUP2 DUP7 PUSH1 0x1 SWAP6 CALLDATACOPY ADD SWAP4 ADD SWAP2 ADD SWAP1 SWAP2 PUSH2 0x77C JUMP JUMPDEST PUSH1 0x40 MLOAD PUSH4 0x15252A29 PUSH1 0xE2 SHL DUP2 MSTORE PUSH1 0x4 SWAP1 REVERT JUMPDEST PUSH1 0x40 MLOAD PUSH4 0x65695701 PUSH1 0xE1 SHL DUP2 MSTORE PUSH1 0x4 SWAP1 REVERT JUMPDEST PUSH1 0x40 MLOAD PUSH4 0xABFB7DC3 PUSH1 0xE0 SHL DUP2 MSTORE PUSH1 0x4 SWAP1 REVERT JUMPDEST CALLVALUE PUSH2 0x20D JUMPI PUSH1 0x0 CALLDATASIZE PUSH1 0x3 NOT ADD SLT PUSH2 0x20D JUMPI PUSH1 0x20 PUSH1 0x40 MLOAD PUSH1 0x1 DUP2 MSTORE RETURN JUMPDEST CALLVALUE PUSH2 0x20D JUMPI PUSH1 0x20 CALLDATASIZE PUSH1 0x3 NOT ADD SLT PUSH2 0x20D JUMPI PUSH1 0x20 PUSH2 0x524 PUSH1 0x4 CALLDATALOAD DUP1 PUSH2 0x1A8A JUMP JUMPDEST CALLVALUE PUSH2 0x20D JUMPI PUSH2 0xB74 CALLDATASIZE PUSH2 0x17DF JUMP JUMPDEST SWAP1 PUSH1 0x0 MSTORE PUSH1 0x2 PUSH1 0x20 MSTORE PUSH1 0x40 PUSH1 0x0 KECCAK256 SWAP1 PUSH1 0x0 MSTORE PUSH1 0x20 MSTORE PUSH1 0xA0 PUSH1 0x40 PUSH1 0x0 KECCAK256 DUP1 SLOAD SWAP1 PUSH1 0x1 DUP2 ADD SLOAD SWAP1 PUSH1 0x2 DUP2 ADD SLOAD PUSH1 0x6 PUSH1 0xFF PUSH1 0x5 DUP5 ADD SLOAD AND SWAP3 ADD SLOAD SWAP3 PUSH1 0x40 MLOAD SWAP5 DUP6 MSTORE PUSH1 0x20 DUP6 ADD MSTORE PUSH1 0x40 DUP5 ADD MSTORE ISZERO ISZERO PUSH1 0x60 DUP4 ADD MSTORE PUSH1 0x80 DUP3 ADD MSTORE RETURN JUMPDEST CALLVALUE PUSH2 0x20D JUMPI PUSH1 0x0 CALLDATASIZE PUSH1 0x3 NOT ADD SLT PUSH2 0x20D JUMPI PUSH1 0x20 PUSH1 0x40 MLOAD PUSH2 0x2710 DUP2 MSTORE RETURN JUMPDEST CALLVALUE PUSH2 0x20D JUMPI PUSH1 0xA0 CALLDATASIZE PUSH1 0x3 NOT ADD SLT PUSH2 0x20D JUMPI PUSH1 0x4 CALLDATALOAD PUSH1 0x24 CALLDATALOAD SWAP1 PUSH1 0x44 CALLDATALOAD PUSH1 0x64 CALLDATALOAD DUP3 PUSH1 0x0 MSTORE PUSH1 0x20 SWAP2 PUSH1 0x1 DUP4 MSTORE PUSH1 0x40 PUSH1 0x0 KECCAK256 SWAP3 PUSH1 0x2 DUP2 MSTORE PUSH1 0x40 PUSH1 0x0 KECCAK256 DUP7 PUSH1 0x0 MSTORE DUP2 MSTORE PUSH1 0x40 PUSH1 0x0 KECCAK256 SWAP1 PUSH1 0xFF PUSH1 0xE DUP7 ADD SLOAD AND ISZERO PUSH2 0x4C7 JUMPI PUSH1 0x5 DUP6 ADD SLOAD TIMESTAMP GT ISZERO PUSH2 0xE90 JUMPI PUSH1 0x6 DUP6 ADD SLOAD TIMESTAMP GT PUSH2 0xE90 JUMPI PUSH1 0xFF PUSH1 0x7 DUP4 ADD SLOAD AND ISZERO PUSH2 0xE7E JUMPI PUSH1 0x5 DUP3 ADD PUSH1 0xFF DUP2 SLOAD AND PUSH2 0xE6C JUMPI PUSH1 0x2 DUP5 GT PUSH2 0xE5A JUMPI PUSH1 0x40 MLOAD SWAP2 PUSH20 0x0 PUSH2 0xC93 DUP5 PUSH2 0x16A0 JUMP JUMPDEST DUP6 DUP5 MSTORE DUP7 DUP3 DUP6 ADD MSTORE PUSH1 0x1 DUP6 ADD SWAP4 DUP5 SLOAD PUSH1 0x40 DUP3 ADD MSTORE DUP10 PUSH1 0x60 DUP3 ADD MSTORE PUSH1 0x40 MLOAD SWAP1 DUP4 DUP3 DUP1 PUSH2 0xCCC PUSH4 0x21C27363 PUSH1 0xE2 SHL SWAP5 DUP6 DUP4 MSTORE PUSH1 0x4 DUP4 ADD PUSH2 0x1A5C JUMP JUMPDEST SUB DUP2 DUP7 GAS DELEGATECALL SWAP1 DUP2 ISZERO PUSH2 0xABD JUMPI DUP5 SWAP3 PUSH1 0x0 SWAP3 PUSH2 0xE27 JUMPI JUMPDEST POP SWAP3 PUSH2 0xD20 SWAP4 PUSH1 0x40 MLOAD SWAP3 PUSH2 0xCF5 DUP5 PUSH2 0x16A0 JUMP JUMPDEST DUP4 MSTORE PUSH1 0x84 CALLDATALOAD DUP5 DUP5 ADD MSTORE PUSH1 0x0 PUSH1 0x40 DUP5 ADD MSTORE PUSH1 0x0 PUSH1 0x60 DUP5 ADD MSTORE PUSH1 0x40 MLOAD DUP1 SWAP6 DUP2 SWAP5 DUP3 SWAP4 DUP4 MSTORE PUSH1 0x4 DUP4 ADD PUSH2 0x1A5C JUMP JUMPDEST SUB SWAP2 GAS DELEGATECALL SWAP2 DUP3 ISZERO PUSH2 0xABD JUMPI PUSH1 0x0 SWAP3 PUSH2 0xDF9 JUMPI JUMPDEST POP POP DUP4 SLOAD SUB PUSH2 0xDE7 JUMPI PUSH32 0x30A79E72693CE3DE4F5D96C7167C1CF349D2520BD766C2CFC8B684EC71AB1802 SWAP6 DUP5 PUSH1 0x6 PUSH2 0x9E9 SWAP6 PUSH1 0xD SWAP5 PUSH1 0x1 PUSH1 0xFF NOT DUP3 SLOAD AND OR SWAP1 SSTORE ADD SSTORE PUSH1 0x1 DUP6 EQ PUSH1 0x0 EQ PUSH2 0xDBD JUMPI PUSH1 0x8 DUP2 ADD PUSH2 0xD8F DUP8 DUP3 SLOAD PUSH2 0x1987 JUMP JUMPDEST SWAP1 SSTORE JUMPDEST ADD PUSH2 0xD9D DUP2 SLOAD PUSH2 0x1A06 JUMP JUMPDEST SWAP1 SSTORE SLOAD PUSH1 0x40 MLOAD SWAP4 DUP5 SWAP4 DUP5 PUSH1 0x40 SWAP2 SWAP5 SWAP4 SWAP3 PUSH1 0x60 DUP3 ADD SWAP6 DUP3 MSTORE PUSH1 0x20 DUP3 ADD MSTORE ADD MSTORE JUMP JUMPDEST DUP5 PUSH2 0xDD8 JUMPI PUSH1 0x9 DUP2 ADD PUSH2 0xDD1 DUP8 DUP3 SLOAD PUSH2 0x1987 JUMP JUMPDEST SWAP1 SSTORE PUSH2 0xD92 JUMP JUMPDEST PUSH1 0xA DUP2 ADD PUSH2 0xDD1 DUP8 DUP3 SLOAD PUSH2 0x1987 JUMP JUMPDEST PUSH1 0x40 MLOAD PUSH4 0x9EA6D127 PUSH1 0xE0 SHL DUP2 MSTORE PUSH1 0x4 SWAP1 REVERT JUMPDEST SWAP1 DUP1 SWAP3 POP DUP2 RETURNDATASIZE DUP4 GT PUSH2 0xE20 JUMPI JUMPDEST PUSH2 0xE10 DUP2 DUP4 PUSH2 0x16D8 JUMP JUMPDEST DUP2 ADD SUB SLT PUSH2 0x20D JUMPI MLOAD DUP10 DUP1 PUSH2 0xD33 JUMP JUMPDEST POP RETURNDATASIZE PUSH2 0xE06 JUMP JUMPDEST DUP4 DUP2 SWAP5 SWAP3 SWAP4 POP RETURNDATASIZE DUP4 GT PUSH2 0xE53 JUMPI JUMPDEST PUSH2 0xE3F DUP2 DUP4 PUSH2 0x16D8 JUMP JUMPDEST DUP2 ADD SUB SLT PUSH2 0x20D JUMPI SWAP1 MLOAD DUP4 SWAP2 PUSH2 0xD20 PUSH2 0xCE2 JUMP JUMPDEST POP RETURNDATASIZE PUSH2 0xE35 JUMP JUMPDEST PUSH1 0x40 MLOAD PUSH4 0x9C454001 PUSH1 0xE0 SHL DUP2 MSTORE PUSH1 0x4 SWAP1 REVERT JUMPDEST PUSH1 0x40 MLOAD PUSH4 0xA89AC151 PUSH1 0xE0 SHL DUP2 MSTORE PUSH1 0x4 SWAP1 REVERT JUMPDEST PUSH1 0x40 MLOAD PUSH4 0x5B341569 PUSH1 0xE1 SHL DUP2 MSTORE PUSH1 0x4 SWAP1 REVERT JUMPDEST PUSH1 0x40 MLOAD PUSH4 0x74683D71 PUSH1 0xE0 SHL DUP2 MSTORE PUSH1 0x4 SWAP1 REVERT JUMPDEST CALLVALUE PUSH2 0x20D JUMPI PUSH1 0xA0 CALLDATASIZE PUSH1 0x3 NOT ADD SLT PUSH2 0x20D JUMPI PUSH1 0x4 CALLDATALOAD PUSH8 0xFFFFFFFFFFFFFFFF DUP2 GT PUSH2 0x20D JUMPI PUSH2 0xED3 SWAP1 CALLDATASIZE SWAP1 PUSH1 0x4 ADD PUSH2 0x17F5 JUMP JUMPDEST PUSH1 0x24 CALLDATALOAD PUSH8 0xFFFFFFFFFFFFFFFF DUP2 GT PUSH2 0x20D JUMPI PUSH2 0xEF3 SWAP1 CALLDATASIZE SWAP1 PUSH1 0x4 ADD PUSH2 0x17F5 JUMP JUMPDEST SWAP2 SWAP1 PUSH1 0x44 CALLDATALOAD PUSH1 0x0 MSTORE PUSH1 0x4 PUSH1 0x20 MSTORE PUSH1 0xFF PUSH1 0x40 PUSH1 0x0 KECCAK256 SLOAD AND ISZERO PUSH2 0x13B9 JUMPI PUSH2 0xF19 PUSH1 0x0 SLOAD PUSH2 0x1A06 JUMP JUMPDEST SWAP3 DUP4 PUSH1 0x0 SSTORE PUSH2 0xF2A PUSH1 0x64 CALLDATALOAD TIMESTAMP PUSH2 0x1987 JUMP JUMPDEST PUSH2 0xF41 PUSH1 0x84 CALLDATALOAD PUSH2 0xF3C PUSH1 0x64 CALLDATALOAD TIMESTAMP PUSH2 0x1987 JUMP JUMPDEST PUSH2 0x1987 JUMP JUMPDEST SWAP2 PUSH1 0x40 MLOAD SWAP4 DUP5 PUSH2 0x1E0 DUP2 ADD LT PUSH8 0xFFFFFFFFFFFFFFFF PUSH2 0x1E0 DUP8 ADD GT OR PUSH2 0x9EE JUMPI PUSH2 0xF87 SWAP2 PUSH2 0x1E0 DUP7 ADD PUSH1 0x40 MSTORE DUP8 DUP7 MSTORE PUSH2 0xF7B CALLDATASIZE DUP9 DUP12 PUSH2 0x1A15 JUMP JUMPDEST PUSH1 0x20 DUP8 ADD MSTORE CALLDATASIZE SWAP2 PUSH2 0x1A15 JUMP JUMPDEST PUSH1 0x40 DUP5 ADD MSTORE CALLER PUSH1 0x60 DUP5 ADD MSTORE TIMESTAMP PUSH1 0x80 DUP5 ADD MSTORE PUSH1 0xA0 DUP4 ADD MSTORE PUSH1 0xC0 DUP3 ADD MSTORE PUSH1 0x44 CALLDATALOAD PUSH1 0xE0 DUP3 ADD MSTORE PUSH1 0x0 PUSH2 0x100 DUP3 ADD MSTORE PUSH1 0x0 PUSH2 0x120 DUP3 ADD MSTORE PUSH1 0x0 PUSH2 0x140 DUP3 ADD MSTORE PUSH1 0x0 PUSH2 0x160 DUP3 ADD MSTORE PUSH1 0x0 PUSH2 0x180 DUP3 ADD MSTORE PUSH1 0x0 PUSH2 0x1A0 DUP3 ADD MSTORE PUSH1 0x1 PUSH2 0x1C0 DUP3 ADD MSTORE DUP3 PUSH1 0x0 MSTORE PUSH1 0x1 PUSH1 0x20 MSTORE PUSH1 0x40 PUSH1 0x0 KECCAK256 SWAP1 DUP1 MLOAD DUP3 SSTORE PUSH1 0x20 DUP2 ADD MLOAD DUP1 MLOAD SWAP1 PUSH8 0xFFFFFFFFFFFFFFFF DUP3 GT PUSH2 0x9EE JUMPI DUP2 SWAP1 PUSH2 0x101B PUSH1 0x1 DUP7 ADD SLOAD PUSH2 0x1666 JUMP JUMPDEST PUSH1 0x1F DUP2 GT PUSH2 0x1366 JUMPI JUMPDEST POP PUSH1 0x20 SWAP1 PUSH1 0x1F DUP4 GT PUSH1 0x1 EQ PUSH2 0x12F4 JUMPI PUSH1 0x0 SWAP3 PUSH2 0x12E9 JUMPI JUMPDEST POP POP DUP2 PUSH1 0x1 SHL SWAP2 PUSH1 0x0 NOT SWAP1 PUSH1 0x3 SHL SHR NOT AND OR PUSH1 0x1 DUP4 ADD SSTORE JUMPDEST PUSH1 0x40 DUP2 ADD MLOAD DUP1 MLOAD SWAP1 PUSH8 0xFFFFFFFFFFFFFFFF DUP3 GT PUSH2 0x9EE JUMPI PUSH2 0x1077 PUSH1 0x2 DUP6 ADD SLOAD PUSH2 0x1666 JUMP JUMPDEST PUSH1 0x1F DUP2 GT PUSH2 0x12A2 JUMPI JUMPDEST POP SWAP2 DUP6 SWAP4 SWAP2 PUSH1 0x20 SWAP8 SWAP4 DUP9 SWAP1 PUSH1 0x1F DUP4 GT PUSH1 0x1 EQ PUSH2 0x1200 JUMPI PUSH2 0x118E SWAP4 DUP4 PUSH32 0x28528FA183090D38F4C35574BB13FB455A547BDA31D9BC9520957C9558F52F8E SWAP8 SWAP7 SWAP5 PUSH1 0xE SWAP5 PUSH2 0x1C0 SWAP5 PUSH1 0x0 SWAP3 PUSH2 0x11F5 JUMPI JUMPDEST POP POP DUP2 PUSH1 0x1 SHL SWAP2 PUSH1 0x0 NOT SWAP1 PUSH1 0x3 SHL SHR NOT AND OR PUSH1 0x2 DUP6 ADD SSTORE JUMPDEST PUSH1 0x3 DUP5 ADD PUSH1 0x1 DUP1 PUSH1 0xA0 SHL SUB PUSH1 0x60 DUP4 ADD MLOAD AND PUSH12 0xFFFFFFFFFFFFFFFFFFFFFFFF PUSH1 0xA0 SHL DUP3 SLOAD AND OR SWAP1 SSTORE PUSH1 0x80 DUP2 ADD MLOAD PUSH1 0x4 DUP6 ADD SSTORE PUSH1 0xA0 DUP2 ADD MLOAD PUSH1 0x5 DUP6 ADD SSTORE PUSH1 0xC0 DUP2 ADD MLOAD PUSH1 0x6 DUP6 ADD SSTORE PUSH1 0xE0 DUP2 ADD MLOAD PUSH1 0x7 DUP6 ADD SSTORE PUSH2 0x100 DUP2 ADD MLOAD PUSH1 0x8 DUP6 ADD SSTORE PUSH2 0x120 DUP2 ADD MLOAD PUSH1 0x9 DUP6 ADD SSTORE PUSH2 0x140 DUP2 ADD MLOAD PUSH1 0xA DUP6 ADD SSTORE PUSH2 0x160 DUP2 ADD MLOAD PUSH1 0xB DUP6 ADD SSTORE PUSH2 0x180 DUP2 ADD MLOAD PUSH1 0xC DUP6 ADD SSTORE PUSH2 0x1A0 DUP2 ADD MLOAD PUSH1 0xD DUP6 ADD SSTORE ADD MLOAD ISZERO ISZERO SWAP2 ADD SWAP1 PUSH1 0xFF DUP1 NOT DUP4 SLOAD AND SWAP2 ISZERO ISZERO AND OR SWAP1 SSTORE JUMP JUMPDEST PUSH2 0x119A PUSH1 0x64 CALLDATALOAD TIMESTAMP PUSH2 0x1987 JUMP JUMPDEST PUSH2 0x11AC PUSH1 0x84 CALLDATALOAD PUSH2 0xF3C PUSH1 0x64 CALLDATALOAD TIMESTAMP PUSH2 0x1987 JUMP JUMPDEST SWAP1 DUP6 PUSH1 0x40 MLOAD SWAP4 PUSH1 0x80 DUP6 MSTORE DUP2 PUSH1 0x80 DUP7 ADD MSTORE PUSH1 0xA0 DUP6 ADD CALLDATACOPY PUSH1 0x0 PUSH1 0xA0 DUP8 DUP6 ADD ADD MSTORE PUSH1 0x44 CALLDATALOAD DUP9 DUP5 ADD MSTORE PUSH1 0x40 DUP4 ADD MSTORE PUSH1 0x60 DUP3 ADD MSTORE PUSH1 0xA0 DUP2 CALLER SWAP6 PUSH1 0x1F DUP1 NOT SWAP2 ADD AND DUP2 ADD SUB ADD SWAP1 LOG3 PUSH1 0x40 MLOAD SWAP1 DUP2 MSTORE RETURN JUMPDEST ADD MLOAD SWAP1 POP DUP14 DUP1 PUSH2 0x10CE JUMP JUMPDEST SWAP6 SWAP5 SWAP4 SWAP3 SWAP2 SWAP1 PUSH1 0x2 DUP5 ADD PUSH1 0x0 MSTORE DUP10 PUSH1 0x0 KECCAK256 SWAP7 PUSH1 0x0 JUMPDEST PUSH1 0x1F NOT DUP5 AND DUP2 LT PUSH2 0x1288 JUMPI POP SWAP3 PUSH1 0x1 DUP4 PUSH32 0x28528FA183090D38F4C35574BB13FB455A547BDA31D9BC9520957C9558F52F8E SWAP9 SWAP10 PUSH2 0x1C0 SWAP5 PUSH2 0x118E SWAP9 SWAP8 PUSH1 0xE SWAP8 PUSH1 0x1F NOT DUP2 AND LT PUSH2 0x126F JUMPI JUMPDEST POP POP POP DUP2 SHL ADD PUSH1 0x2 DUP6 ADD SSTORE PUSH2 0x10E6 JUMP JUMPDEST ADD MLOAD PUSH1 0x0 NOT PUSH1 0xF8 DUP5 PUSH1 0x3 SHL AND SHR NOT AND SWAP1 SSTORE DUP14 DUP1 DUP1 PUSH2 0x125F JUMP JUMPDEST DUP3 DUP3 ADD MLOAD DUP10 SSTORE PUSH1 0x1 SWAP1 SWAP9 ADD SWAP8 DUP11 SWAP8 POP SWAP2 DUP12 ADD SWAP2 DUP12 ADD PUSH2 0x1215 JUMP JUMPDEST PUSH1 0x2 DUP6 ADD PUSH1 0x0 MSTORE PUSH1 0x20 PUSH1 0x0 KECCAK256 PUSH1 0x1F DUP5 ADD PUSH1 0x5 SHR DUP2 ADD PUSH1 0x20 DUP6 LT PUSH2 0x12E2 JUMPI JUMPDEST PUSH1 0x1F DUP4 ADD PUSH1 0x5 SHR DUP3 ADD DUP2 LT PUSH2 0x12D6 JUMPI POP POP PUSH2 0x1080 JUMP JUMPDEST PUSH1 0x0 DUP2 SSTORE PUSH1 0x1 ADD PUSH2 0x12C0 JUMP JUMPDEST POP DUP1 PUSH2 0x12C0 JUMP JUMPDEST ADD MLOAD SWAP1 POP DUP8 DUP1 PUSH2 0x103B JUMP JUMPDEST SWAP3 POP PUSH1 0x1 DUP6 ADD PUSH1 0x0 MSTORE PUSH1 0x20 PUSH1 0x0 KECCAK256 SWAP1 PUSH1 0x0 SWAP4 JUMPDEST PUSH1 0x1F NOT DUP5 AND DUP6 LT PUSH2 0x134B JUMPI PUSH1 0x1 SWAP5 POP DUP4 PUSH1 0x1F NOT DUP2 AND LT PUSH2 0x1332 JUMPI JUMPDEST POP POP POP DUP2 SHL ADD PUSH1 0x1 DUP4 ADD SSTORE PUSH2 0x1053 JUMP JUMPDEST ADD MLOAD PUSH1 0x0 NOT PUSH1 0xF8 DUP5 PUSH1 0x3 SHL AND SHR NOT AND SWAP1 SSTORE DUP8 DUP1 DUP1 PUSH2 0x1322 JUMP JUMPDEST DUP2 DUP2 ADD MLOAD DUP4 SSTORE PUSH1 0x20 SWAP5 DUP6 ADD SWAP5 PUSH1 0x1 SWAP1 SWAP4 ADD SWAP3 SWAP1 SWAP2 ADD SWAP1 PUSH2 0x1307 JUMP JUMPDEST SWAP1 SWAP2 POP PUSH1 0x1 DUP6 ADD PUSH1 0x0 MSTORE PUSH1 0x20 PUSH1 0x0 KECCAK256 PUSH1 0x1F DUP5 ADD PUSH1 0x5 SHR DUP2 ADD PUSH1 0x20 DUP6 LT PUSH2 0x13B2 JUMPI JUMPDEST SWAP1 DUP5 SWAP4 SWAP3 SWAP2 JUMPDEST PUSH1 0x1F DUP4 ADD PUSH1 0x5 SHR DUP3 ADD DUP2 LT PUSH2 0x13A3 JUMPI POP POP PUSH2 0x1024 JUMP JUMPDEST PUSH1 0x0 DUP2 SSTORE DUP6 SWAP5 POP PUSH1 0x1 ADD PUSH2 0x138D JUMP JUMPDEST POP DUP1 PUSH2 0x1387 JUMP JUMPDEST PUSH1 0x40 MLOAD PUSH4 0x33981055 PUSH1 0xE0 SHL DUP2 MSTORE PUSH1 0x4 SWAP1 REVERT JUMPDEST CALLVALUE PUSH2 0x20D JUMPI PUSH1 0x20 CALLDATASIZE PUSH1 0x3 NOT ADD SLT PUSH2 0x20D JUMPI PUSH1 0x20 PUSH2 0x524 PUSH1 0x4 CALLDATALOAD PUSH2 0x19AA JUMP JUMPDEST CALLVALUE PUSH2 0x20D JUMPI PUSH1 0x20 CALLDATASIZE PUSH1 0x3 NOT ADD SLT PUSH2 0x20D JUMPI PUSH2 0x1405 PUSH1 0x4 CALLDATALOAD PUSH2 0x18C2 JUMP JUMPDEST STOP JUMPDEST CALLVALUE PUSH2 0x20D JUMPI PUSH1 0x0 CALLDATASIZE PUSH1 0x3 NOT ADD SLT PUSH2 0x20D JUMPI PUSH1 0x40 MLOAD PUSH32 0x0 PUSH1 0x1 PUSH1 0x1 PUSH1 0xA0 SHL SUB AND DUP2 MSTORE PUSH1 0x20 SWAP1 RETURN JUMPDEST CALLVALUE PUSH2 0x20D JUMPI PUSH1 0x20 CALLDATASIZE PUSH1 0x3 NOT ADD SLT PUSH2 0x20D JUMPI PUSH1 0x4 CALLDATALOAD PUSH1 0x1 PUSH1 0x1 PUSH1 0xA0 SHL SUB DUP2 AND SWAP1 DUP2 SWAP1 SUB PUSH2 0x20D JUMPI PUSH1 0x0 MSTORE PUSH1 0x6 PUSH1 0x20 MSTORE PUSH1 0x60 PUSH1 0x40 PUSH1 0x0 KECCAK256 DUP1 SLOAD SWAP1 PUSH1 0xFF PUSH1 0x2 PUSH1 0x1 DUP4 ADD SLOAD SWAP3 ADD SLOAD AND SWAP1 PUSH1 0x40 MLOAD SWAP3 DUP4 MSTORE PUSH1 0x20 DUP4 ADD MSTORE ISZERO ISZERO PUSH1 0x40 DUP3 ADD MSTORE RETURN JUMPDEST CALLVALUE PUSH2 0x20D JUMPI PUSH1 0x20 CALLDATASIZE PUSH1 0x3 NOT ADD SLT PUSH2 0x20D JUMPI PUSH1 0x20 PUSH2 0x14C4 PUSH1 0x4 CALLDATALOAD PUSH2 0x1881 JUMP JUMPDEST PUSH1 0xFF PUSH1 0x40 MLOAD SWAP2 AND DUP2 MSTORE RETURN JUMPDEST CALLVALUE PUSH2 0x20D JUMPI PUSH1 0x20 CALLDATASIZE PUSH1 0x3 NOT ADD SLT PUSH2 0x20D JUMPI PUSH1 0x4 CALLDATALOAD PUSH1 0x0 MSTORE PUSH1 0x8 PUSH1 0x20 MSTORE PUSH1 0x20 PUSH1 0xFF PUSH1 0x40 PUSH1 0x0 KECCAK256 SLOAD AND PUSH1 0x40 MLOAD SWAP1 ISZERO ISZERO DUP2 MSTORE RETURN JUMPDEST CALLVALUE PUSH2 0x20D JUMPI PUSH2 0x150E CALLDATASIZE PUSH2 0x17DF JUMP JUMPDEST SWAP1 PUSH1 0x0 MSTORE PUSH1 0x1 PUSH1 0x20 MSTORE PUSH1 0x40 PUSH1 0x0 KECCAK256 PUSH1 0xFF PUSH1 0xE DUP3 ADD SLOAD AND ISZERO PUSH2 0x4C7 JUMPI PUSH1 0x7 DUP3 SWAP2 ADD SSTORE DUP1 PUSH1 0x0 MSTORE PUSH1 0x4 PUSH1 0x20 MSTORE PUSH1 0x40 PUSH1 0x0 KECCAK256 SWAP1 DUP2 SLOAD SWAP2 PUSH1 0xFF DUP4 AND ISZERO PUSH2 0x154C JUMPI STOP JUMPDEST PUSH1 0x1 PUSH2 0x1405 SWAP4 PUSH1 0xFF NOT AND OR SWAP1 SSTORE PUSH2 0x1823 JUMP JUMPDEST CALLVALUE PUSH2 0x20D JUMPI PUSH1 0x20 CALLDATASIZE PUSH1 0x3 NOT ADD SLT PUSH2 0x20D JUMPI PUSH1 0x4 CALLDATALOAD PUSH1 0x0 MSTORE PUSH1 0x1 PUSH1 0x20 MSTORE PUSH1 0x40 PUSH1 0x0 KECCAK256 DUP1 SLOAD PUSH1 0x1 DUP3 ADD PUSH2 0x158E SWAP1 PUSH2 0x16FA JUMP JUMPDEST PUSH2 0x159A PUSH1 0x2 DUP5 ADD PUSH2 0x16FA JUMP JUMPDEST SWAP3 PUSH1 0x1 PUSH1 0xA0 SHL PUSH1 0x1 SWAP1 SUB PUSH1 0x3 DUP3 ADD SLOAD AND SWAP1 PUSH1 0x4 DUP2 ADD SLOAD PUSH1 0x5 DUP3 ADD SLOAD PUSH1 0x6 DUP4 ADD SLOAD PUSH1 0x7 DUP5 ADD SLOAD PUSH1 0x8 DUP6 ADD SLOAD PUSH1 0x9 DUP7 ADD SLOAD SWAP2 PUSH1 0xA DUP8 ADD SLOAD SWAP4 PUSH1 0xB DUP9 ADD SLOAD SWAP6 PUSH1 0xC DUP10 ADD SLOAD SWAP8 PUSH1 0xD DUP11 ADD SLOAD SWAP10 PUSH1 0xE ADD SLOAD PUSH1 0xFF AND SWAP11 PUSH1 0x40 MLOAD SWAP15 DUP16 SWAP15 DUP16 SWAP15 DUP16 SWAP2 PUSH2 0x1E0 SWAP1 DUP4 MSTORE DUP1 PUSH1 0x20 DUP5 ADD MSTORE DUP3 ADD PUSH2 0x160B SWAP2 PUSH2 0x179F JUMP JUMPDEST SWAP1 DUP1 DUP3 SUB SWAP1 PUSH1 0x40 ADD MSTORE PUSH2 0x161D SWAP2 PUSH2 0x179F JUMP JUMPDEST SWAP13 PUSH1 0x60 ADD MSTORE PUSH1 0x80 DUP14 ADD MSTORE PUSH1 0xA0 DUP13 ADD MSTORE PUSH1 0xC0 DUP12 ADD MSTORE PUSH1 0xE0 DUP11 ADD MSTORE PUSH2 0x100 DUP10 ADD MSTORE PUSH2 0x120 DUP9 ADD MSTORE PUSH2 0x140 DUP8 ADD MSTORE PUSH2 0x160 DUP7 ADD MSTORE PUSH2 0x180 DUP6 ADD MSTORE PUSH2 0x1A0 DUP5 ADD MSTORE ISZERO ISZERO PUSH2 0x1C0 DUP4 ADD MSTORE SUB SWAP1 RETURN JUMPDEST SWAP1 PUSH1 0x1 DUP3 DUP2 SHR SWAP3 AND DUP1 ISZERO PUSH2 0x1696 JUMPI JUMPDEST PUSH1 0x20 DUP4 LT EQ PUSH2 0x1680 JUMPI JUMP JUMPDEST PUSH4 0x4E487B71 PUSH1 0xE0 SHL PUSH1 0x0 MSTORE PUSH1 0x22 PUSH1 0x4 MSTORE PUSH1 0x24 PUSH1 0x0 REVERT JUMPDEST SWAP2 PUSH1 0x7F AND SWAP2 PUSH2 0x1675 JUMP JUMPDEST PUSH1 0x80 DUP2 ADD SWAP1 DUP2 LT PUSH8 0xFFFFFFFFFFFFFFFF DUP3 GT OR PUSH2 0x9EE JUMPI PUSH1 0x40 MSTORE JUMP JUMPDEST PUSH1 0x60 DUP2 ADD SWAP1 DUP2 LT PUSH8 0xFFFFFFFFFFFFFFFF DUP3 GT OR PUSH2 0x9EE JUMPI PUSH1 0x40 MSTORE JUMP JUMPDEST SWAP1 PUSH1 0x1F DUP1 NOT SWAP2 ADD AND DUP2 ADD SWAP1 DUP2 LT PUSH8 0xFFFFFFFFFFFFFFFF DUP3 GT OR PUSH2 0x9EE JUMPI PUSH1 0x40 MSTORE JUMP JUMPDEST SWAP1 PUSH1 0x40 MLOAD SWAP2 DUP3 PUSH1 0x0 DUP3 SLOAD PUSH2 0x170D DUP2 PUSH2 0x1666 JUMP JUMPDEST SWAP1 DUP2 DUP5 MSTORE PUSH1 0x20 SWAP5 PUSH1 0x1 SWAP2 PUSH1 0x1 DUP2 AND SWAP1 DUP2 PUSH1 0x0 EQ PUSH2 0x177D JUMPI POP PUSH1 0x1 EQ PUSH2 0x173E JUMPI JUMPDEST POP POP POP PUSH2 0x173C SWAP3 POP SUB DUP4 PUSH2 0x16D8 JUMP JUMPDEST JUMP JUMPDEST PUSH1 0x0 SWAP1 DUP2 MSTORE DUP6 DUP2 KECCAK256 SWAP6 SWAP4 POP SWAP2 SWAP1 JUMPDEST DUP2 DUP4 LT PUSH2 0x1765 JUMPI POP POP PUSH2 0x173C SWAP4 POP DUP3 ADD ADD CODESIZE DUP1 DUP1 PUSH2 0x172D JUMP JUMPDEST DUP6 SLOAD DUP9 DUP5 ADD DUP6 ADD MSTORE SWAP5 DUP6 ADD SWAP5 DUP8 SWAP5 POP SWAP2 DUP4 ADD SWAP2 PUSH2 0x174C JUMP JUMPDEST SWAP3 POP POP POP PUSH2 0x173C SWAP5 SWAP3 POP PUSH1 0xFF NOT AND DUP3 DUP5 ADD MSTORE ISZERO ISZERO PUSH1 0x5 SHL DUP3 ADD ADD CODESIZE DUP1 DUP1 PUSH2 0x172D JUMP JUMPDEST SWAP2 SWAP1 DUP3 MLOAD SWAP3 DUP4 DUP3 MSTORE PUSH1 0x0 JUMPDEST DUP5 DUP2 LT PUSH2 0x17CB JUMPI POP POP DUP3 PUSH1 0x0 PUSH1 0x20 DUP1 SWAP5 SWAP6 DUP5 ADD ADD MSTORE PUSH1 0x1F DUP1 NOT SWAP2 ADD AND ADD ADD SWAP1 JUMP JUMPDEST PUSH1 0x20 DUP2 DUP4 ADD DUP2 ADD MLOAD DUP5 DUP4 ADD DUP3 ADD MSTORE ADD PUSH2 0x17AA JUMP JUMPDEST PUSH1 0x40 SWAP1 PUSH1 0x3 NOT ADD SLT PUSH2 0x20D JUMPI PUSH1 0x4 CALLDATALOAD SWAP1 PUSH1 0x24 CALLDATALOAD SWAP1 JUMP JUMPDEST SWAP2 DUP2 PUSH1 0x1F DUP5 ADD SLT ISZERO PUSH2 0x20D JUMPI DUP3 CALLDATALOAD SWAP2 PUSH8 0xFFFFFFFFFFFFFFFF DUP4 GT PUSH2 0x20D JUMPI PUSH1 0x20 DUP4 DUP2 DUP7 ADD SWAP6 ADD ADD GT PUSH2 0x20D JUMPI JUMP JUMPDEST PUSH1 0x5 SLOAD PUSH1 0x1 PUSH1 0x40 SHL DUP2 LT ISZERO PUSH2 0x9EE JUMPI PUSH1 0x1 DUP2 ADD DUP1 PUSH1 0x5 SSTORE DUP2 LT ISZERO PUSH2 0x186B JUMPI PUSH1 0x5 PUSH1 0x0 MSTORE PUSH32 0x36B6384B5ECA791C62761152D0C79BB0604C104A5FB6F4EB0703F3154BB3DB0 ADD SSTORE JUMP JUMPDEST PUSH4 0x4E487B71 PUSH1 0xE0 SHL PUSH1 0x0 MSTORE PUSH1 0x32 PUSH1 0x4 MSTORE PUSH1 0x24 PUSH1 0x0 REVERT JUMPDEST PUSH1 0x0 MSTORE PUSH1 0x1 PUSH1 0x20 MSTORE PUSH1 0x40 PUSH1 0x0 KECCAK256 PUSH1 0xFF PUSH1 0xE DUP3 ADD SLOAD AND ISZERO PUSH2 0x4C7 JUMPI PUSH1 0x5 DUP2 ADD SLOAD TIMESTAMP GT ISZERO PUSH2 0x18BC JUMPI PUSH1 0x6 ADD SLOAD TIMESTAMP GT ISZERO PUSH2 0x18B7 JUMPI PUSH1 0x2 SWAP1 JUMP JUMPDEST PUSH1 0x1 SWAP1 JUMP JUMPDEST POP PUSH1 0x0 SWAP1 JUMP JUMPDEST SWAP1 PUSH1 0x0 SWAP2 DUP1 DUP4 MSTORE PUSH1 0x8 PUSH1 0x20 MSTORE PUSH1 0x40 DUP4 KECCAK256 DUP1 SLOAD PUSH1 0xFF DUP2 AND PUSH2 0x1980 JUMPI PUSH1 0xFF NOT AND PUSH1 0x1 OR SWAP1 SSTORE PUSH1 0x7 SLOAD PUSH1 0x1 PUSH1 0x40 SHL DUP2 LT ISZERO PUSH2 0x196C JUMPI PUSH1 0x1 DUP2 ADD DUP1 PUSH1 0x7 SSTORE DUP2 LT ISZERO PUSH2 0x1958 JUMPI PUSH1 0x7 DUP3 SWAP4 SWAP5 MSTORE PUSH32 0xA66CC928B5EDB82AF9BD49922954155AB7B0942694BEA4CE44661D9A8736C688 ADD SSTORE PUSH32 0x1926A241BA9D59467AC0063E2CB861452B93AB650FFF5378A82E86BEFECC27AB PUSH1 0x20 PUSH1 0x40 MLOAD TIMESTAMP DUP2 MSTORE LOG2 JUMP JUMPDEST PUSH4 0x4E487B71 PUSH1 0xE0 SHL DUP5 MSTORE PUSH1 0x32 PUSH1 0x4 MSTORE PUSH1 0x24 DUP5 REVERT JUMPDEST PUSH4 0x4E487B71 PUSH1 0xE0 SHL DUP5 MSTORE PUSH1 0x41 PUSH1 0x4 MSTORE PUSH1 0x24 DUP5 REVERT JUMPDEST POP POP POP SWAP1 POP JUMP JUMPDEST SWAP2 SWAP1 DUP3 ADD DUP1 SWAP3 GT PUSH2 0x1994 JUMPI JUMP JUMPDEST PUSH4 0x4E487B71 PUSH1 0xE0 SHL PUSH1 0x0 MSTORE PUSH1 0x11 PUSH1 0x4 MSTORE PUSH1 0x24 PUSH1 0x0 REVERT JUMPDEST DUP1 ISZERO PUSH2 0x18BC JUMPI PUSH1 0x1 DUP2 DUP2 DUP2 ADD DUP1 DUP3 GT PUSH2 0x1994 JUMPI PUSH1 0x1 SHR SWAP2 SWAP1 JUMPDEST DUP4 DUP4 LT PUSH2 0x19D0 JUMPI POP POP POP SWAP1 JUMP JUMPDEST SWAP2 SWAP3 POP SWAP1 DUP3 DUP1 ISZERO PUSH2 0x19F1 JUMPI DUP1 PUSH2 0x19E8 SWAP2 DUP4 DIV SWAP1 PUSH2 0x1987 JUMP JUMPDEST DUP3 SHR SWAP2 SWAP1 PUSH2 0x19C3 JUMP JUMPDEST PUSH1 0x24 PUSH1 0x0 PUSH4 0x4E487B71 PUSH1 0xE0 SHL DUP2 MSTORE PUSH1 0x12 PUSH1 0x4 MSTORE REVERT JUMPDEST PUSH1 0x0 NOT DUP2 EQ PUSH2 0x1994 JUMPI PUSH1 0x1 ADD SWAP1 JUMP JUMPDEST SWAP3 SWAP2 SWAP3 PUSH8 0xFFFFFFFFFFFFFFFF DUP3 GT PUSH2 0x9EE JUMPI PUSH1 0x40 MLOAD SWAP2 PUSH2 0x1A3F PUSH1 0x1F DUP3 ADD PUSH1 0x1F NOT AND PUSH1 0x20 ADD DUP5 PUSH2 0x16D8 JUMP JUMPDEST DUP3 SWAP5 DUP2 DUP5 MSTORE DUP2 DUP4 ADD GT PUSH2 0x20D JUMPI DUP3 DUP2 PUSH1 0x20 SWAP4 DUP5 PUSH1 0x0 SWAP7 ADD CALLDATACOPY ADD ADD MSTORE JUMP JUMPDEST PUSH1 0x80 DUP2 ADD SWAP3 SWAP2 PUSH1 0x0 SWAP2 JUMPDEST PUSH1 0x4 DUP4 LT PUSH2 0x1A73 JUMPI POP POP POP JUMP JUMPDEST PUSH1 0x1 SWAP1 DUP3 MLOAD DUP2 MSTORE PUSH1 0x20 DUP1 SWAP2 ADD SWAP3 ADD SWAP3 ADD SWAP2 SWAP1 PUSH2 0x1A66 JUMP JUMPDEST DUP2 DUP2 MUL SWAP3 SWAP2 DUP2 ISZERO SWAP2 DUP5 DIV EQ OR ISZERO PUSH2 0x1994 JUMPI JUMP JUMPDEST SWAP2 SWAP1 DUP3 SUB SWAP2 DUP3 GT PUSH2 0x1994 JUMPI JUMP JUMPDEST PUSH1 0x1 PUSH1 0x1 PUSH1 0xA0 SHL SUB AND PUSH1 0x0 SWAP1 DUP2 MSTORE PUSH1 0x6 PUSH1 0x20 MSTORE PUSH1 0x40 SWAP1 KECCAK256 PUSH1 0x2 DUP2 ADD SLOAD PUSH1 0xFF AND ISZERO PUSH2 0x1AE2 JUMPI DUP1 PUSH1 0x1 PUSH2 0x1ADF SWAP3 SLOAD SWAP2 ADD SLOAD SWAP1 PUSH2 0x1A9D JUMP JUMPDEST SWAP1 JUMP JUMPDEST POP PUSH2 0x2710 SWAP1 JUMP INVALID LOG2 PUSH5 0x6970667358 0x22 SLT KECCAK256 0xCF LOG3 DUP10 SWAP16 0xE8 SELFBALANCE 0x2C PUSH15 0x59A8AD69A44D577BA5AE30B4E2A863 CODESIZE EXTCODECOPY PUSH5 0x8182323C31 JUMPDEST PUSH5 0x736F6C6343 STOP ADDMOD XOR STOP CALLER "},"methodIdentifiers":{"CHOICE_ABSTAIN()":"d90292a3","CHOICE_AGAINST()":"b5770c33","CHOICE_FOR()":"8ea7a274","INITIAL_CREDITS()":"697aa8e8","calculateMaxVotes(uint256)":"2c3556d6","calculateQuadraticCost(uint256)":"74dd0fea","commitVoteQuadratic(uint256,uint256,uint256,uint256,uint256,uint256[2],uint256[2][2],uint256[2])":"8eb609e6","commitments(uint256,uint256)":"d13e2e60","createProposal(string,string,uint256,uint256,uint256)":"33423c06","creditRootHistory(uint256)":"a329b313","getAvailableCredits(address)":"b065a8e5","getCommitment(uint256,uint256)":"7164f0d6","getPhase(uint256)":"16ef376b","getProposal(uint256)":"c7f758a8","getRegisteredCreditNotes()":"a1c7574a","initializeCredits()":"fb9607d3","isCreditNoteRegistered(uint256)":"0d70ece8","isCreditRootValid(uint256)":"ef3a2b39","nullifierUsed(uint256,uint256)":"e78ffc96","proposalCount()":"da35c664","proposals(uint256)":"013cf08b","registerCreditNote(uint256)":"2bbe44fd","registerCreditRoot(uint256)":"d5444336","registeredCreditNotes(uint256)":"974f7aa3","revealVote(uint256,uint256,uint256,uint256,uint256)":"51c38f40","updateProposalCredits(uint256,uint256)":"094243cb","userCredits(address)":"20babb92","validCreditRoots(uint256)":"417e70c8","verifier()":"2b7ac3f3"}}}}}