{"contracts/ZkVotingFinal.sol":{"ZkVotingFinal":{"abi":[{"inputs":[{"internalType":"address","name":"_verifierD1","type":"address"},{"internalType":"address","name":"_verifierD2","type":"address"},{"internalType":"address","name":"_tonToken","type":"address"},{"internalType":"address","name":"_treasury","type":"address"}],"stateMutability":"nonpayable","type":"constructor"},{"inputs":[],"name":"AlreadyRevealed","type":"error"},{"inputs":[],"name":"CommitmentNotFound","type":"error"},{"inputs":[],"name":"InsufficientCredits","type":"error"},{"inputs":[],"name":"InvalidChoice","type":"error"},{"inputs":[],"name":"InvalidCreditRoot","type":"error"},{"inputs":[],"name":"InvalidMerkleRoot","type":"error"},{"inputs":[],"name":"InvalidProof","type":"error"},{"inputs":[],"name":"InvalidQuadraticCost","type":"error"},{"inputs":[],"name":"InvalidReveal","type":"error"},{"inputs":[],"name":"NotInCommitPhase","type":"error"},{"inputs":[],"name":"NotInRevealPhase","type":"error"},{"inputs":[],"name":"NullifierAlreadyUsed","type":"error"},{"inputs":[],"name":"ProposalNotFound","type":"error"},{"inputs":[],"name":"ZeroVotingPower","type":"error"},{"anonymous":false,"inputs":[{"indexed":true,"internalType":"uint256","name":"creditNoteHash","type":"uint256"},{"indexed":false,"internalType":"uint256","name":"timestamp","type":"uint256"}],"name":"CreditNoteRegistered","type":"event"},{"anonymous":false,"inputs":[{"indexed":true,"internalType":"uint256","name":"creditRoot","type":"uint256"},{"indexed":false,"internalType":"uint256","name":"timestamp","type":"uint256"}],"name":"CreditRootRegistered","type":"event"},{"anonymous":false,"inputs":[{"indexed":true,"internalType":"address","name":"user","type":"address"},{"indexed":false,"internalType":"uint256","name":"amount","type":"uint256"},{"indexed":false,"internalType":"uint256","name":"remaining","type":"uint256"}],"name":"CreditsBurned","type":"event"},{"anonymous":false,"inputs":[{"indexed":true,"internalType":"address","name":"user","type":"address"},{"indexed":false,"internalType":"uint256","name":"credits","type":"uint256"}],"name":"CreditsInitialized","type":"event"},{"anonymous":false,"inputs":[{"indexed":true,"internalType":"address","name":"user","type":"address"},{"indexed":false,"internalType":"uint256","name":"amount","type":"uint256"},{"indexed":false,"internalType":"uint256","name":"total","type":"uint256"}],"name":"CreditsMinted","type":"event"},{"anonymous":false,"inputs":[{"indexed":true,"internalType":"uint256","name":"merkleRoot","type":"uint256"},{"indexed":false,"internalType":"uint256","name":"timestamp","type":"uint256"}],"name":"MerkleRootRegistered","type":"event"},{"anonymous":false,"inputs":[{"indexed":true,"internalType":"uint256","name":"proposalId","type":"uint256"},{"indexed":false,"internalType":"string","name":"title","type":"string"},{"indexed":true,"internalType":"address","name":"proposer","type":"address"},{"indexed":false,"internalType":"uint256","name":"merkleRoot","type":"uint256"},{"indexed":false,"internalType":"uint256","name":"endTime","type":"uint256"},{"indexed":false,"internalType":"uint256","name":"revealEndTime","type":"uint256"}],"name":"ProposalCreatedD1","type":"event"},{"anonymous":false,"inputs":[{"indexed":true,"internalType":"uint256","name":"proposalId","type":"uint256"},{"indexed":false,"internalType":"string","name":"title","type":"string"},{"indexed":true,"internalType":"address","name":"proposer","type":"address"},{"indexed":false,"internalType":"uint256","name":"creditRoot","type":"uint256"},{"indexed":false,"internalType":"uint256","name":"endTime","type":"uint256"},{"indexed":false,"internalType":"uint256","name":"revealEndTime","type":"uint256"}],"name":"ProposalCreatedD2","type":"event"},{"anonymous":false,"inputs":[{"indexed":true,"internalType":"uint256","name":"proposalId","type":"uint256"},{"indexed":true,"internalType":"uint256","name":"nullifier","type":"uint256"},{"indexed":false,"internalType":"uint256","name":"commitment","type":"uint256"},{"indexed":false,"internalType":"uint256","name":"votingPower","type":"uint256"}],"name":"VoteCommittedD1","type":"event"},{"anonymous":false,"inputs":[{"indexed":true,"internalType":"uint256","name":"proposalId","type":"uint256"},{"indexed":true,"internalType":"uint256","name":"nullifier","type":"uint256"},{"indexed":false,"internalType":"uint256","name":"commitment","type":"uint256"},{"indexed":false,"internalType":"uint256","name":"numVotes","type":"uint256"},{"indexed":false,"internalType":"uint256","name":"creditsSpent","type":"uint256"}],"name":"VoteCommittedD2","type":"event"},{"anonymous":false,"inputs":[{"indexed":true,"internalType":"uint256","name":"proposalId","type":"uint256"},{"indexed":true,"internalType":"uint256","name":"nullifier","type":"uint256"},{"indexed":false,"internalType":"uint256","name":"choice","type":"uint256"},{"indexed":false,"internalType":"uint256","name":"votingPower","type":"uint256"}],"name":"VoteRevealedD1","type":"event"},{"anonymous":false,"inputs":[{"indexed":true,"internalType":"uint256","name":"proposalId","type":"uint256"},{"indexed":true,"internalType":"uint256","name":"nullifier","type":"uint256"},{"indexed":false,"internalType":"uint256","name":"choice","type":"uint256"},{"indexed":false,"internalType":"uint256","name":"numVotes","type":"uint256"},{"indexed":false,"internalType":"uint256","name":"creditsSpent","type":"uint256"}],"name":"VoteRevealedD2","type":"event"},{"anonymous":false,"inputs":[{"indexed":true,"internalType":"uint256","name":"noteHash","type":"uint256"},{"indexed":false,"internalType":"uint256","name":"timestamp","type":"uint256"}],"name":"VoterRegistered","type":"event"},{"inputs":[],"name":"CHOICE_ABSTAIN","outputs":[{"internalType":"uint256","name":"","type":"uint256"}],"stateMutability":"view","type":"function"},{"inputs":[],"name":"CHOICE_AGAINST","outputs":[{"internalType":"uint256","name":"","type":"uint256"}],"stateMutability":"view","type":"function"},{"inputs":[],"name":"CHOICE_FOR","outputs":[{"internalType":"uint256","name":"","type":"uint256"}],"stateMutability":"view","type":"function"},{"inputs":[],"name":"INITIAL_CREDITS","outputs":[{"internalType":"uint256","name":"","type":"uint256"}],"stateMutability":"view","type":"function"},{"inputs":[{"internalType":"uint256","name":"numVotes","type":"uint256"}],"name":"calculateQuadraticCost","outputs":[{"internalType":"uint256","name":"","type":"uint256"}],"stateMutability":"pure","type":"function"},{"inputs":[{"internalType":"uint256","name":"_proposalId","type":"uint256"},{"internalType":"uint256","name":"_commitment","type":"uint256"},{"internalType":"uint256","name":"_votingPower","type":"uint256"},{"internalType":"uint256","name":"_nullifier","type":"uint256"},{"internalType":"uint256[2]","name":"_pA","type":"uint256[2]"},{"internalType":"uint256[2][2]","name":"_pB","type":"uint256[2][2]"},{"internalType":"uint256[2]","name":"_pC","type":"uint256[2]"}],"name":"castVoteD1","outputs":[],"stateMutability":"nonpayable","type":"function"},{"inputs":[{"internalType":"uint256","name":"_proposalId","type":"uint256"},{"internalType":"uint256","name":"_commitment","type":"uint256"},{"internalType":"uint256","name":"_numVotes","type":"uint256"},{"internalType":"uint256","name":"_creditsSpent","type":"uint256"},{"internalType":"uint256","name":"_nullifier","type":"uint256"},{"internalType":"uint256[2]","name":"_pA","type":"uint256[2]"},{"internalType":"uint256[2][2]","name":"_pB","type":"uint256[2][2]"},{"internalType":"uint256[2]","name":"_pC","type":"uint256[2]"}],"name":"castVoteD2","outputs":[],"stateMutability":"nonpayable","type":"function"},{"inputs":[{"internalType":"uint256","name":"","type":"uint256"},{"internalType":"uint256","name":"","type":"uint256"}],"name":"commitmentsD1","outputs":[{"internalType":"uint256","name":"commitment","type":"uint256"},{"internalType":"uint256","name":"votingPower","type":"uint256"},{"internalType":"uint256","name":"nullifier","type":"uint256"},{"internalType":"uint256","name":"timestamp","type":"uint256"},{"internalType":"bool","name":"revealed","type":"bool"},{"internalType":"uint256","name":"revealedChoice","type":"uint256"},{"internalType":"bool","name":"exists","type":"bool"}],"stateMutability":"view","type":"function"},{"inputs":[{"internalType":"uint256","name":"","type":"uint256"},{"internalType":"uint256","name":"","type":"uint256"}],"name":"commitmentsD2","outputs":[{"internalType":"uint256","name":"commitment","type":"uint256"},{"internalType":"uint256","name":"creditsSpent","type":"uint256"},{"internalType":"uint256","name":"numVotes","type":"uint256"},{"internalType":"uint256","name":"nullifier","type":"uint256"},{"internalType":"uint256","name":"timestamp","type":"uint256"},{"internalType":"bool","name":"revealed","type":"bool"},{"internalType":"uint256","name":"revealedChoice","type":"uint256"},{"internalType":"bool","name":"exists","type":"bool"}],"stateMutability":"view","type":"function"},{"inputs":[{"internalType":"string","name":"_title","type":"string"},{"internalType":"string","name":"_description","type":"string"},{"internalType":"uint256","name":"_merkleRoot","type":"uint256"},{"internalType":"uint256","name":"_votingDuration","type":"uint256"},{"internalType":"uint256","name":"_revealDuration","type":"uint256"}],"name":"createProposalD1","outputs":[{"internalType":"uint256","name":"","type":"uint256"}],"stateMutability":"nonpayable","type":"function"},{"inputs":[{"internalType":"string","name":"_title","type":"string"},{"internalType":"string","name":"_description","type":"string"},{"internalType":"uint256","name":"_creditRoot","type":"uint256"},{"internalType":"uint256","name":"_votingDuration","type":"uint256"},{"internalType":"uint256","name":"_revealDuration","type":"uint256"}],"name":"createProposalD2","outputs":[{"internalType":"uint256","name":"","type":"uint256"}],"stateMutability":"nonpayable","type":"function"},{"inputs":[{"internalType":"uint256","name":"","type":"uint256"}],"name":"creditRootHistory","outputs":[{"internalType":"uint256","name":"","type":"uint256"}],"stateMutability":"view","type":"function"},{"inputs":[{"internalType":"address","name":"user","type":"address"}],"name":"getAvailableCredits","outputs":[{"internalType":"uint256","name":"","type":"uint256"}],"stateMutability":"view","type":"function"},{"inputs":[{"internalType":"uint256","name":"_proposalId","type":"uint256"}],"name":"getPhaseD2","outputs":[{"internalType":"uint8","name":"","type":"uint8"}],"stateMutability":"view","type":"function"},{"inputs":[{"internalType":"uint256","name":"_proposalId","type":"uint256"}],"name":"getProposalD1","outputs":[{"internalType":"uint256","name":"id","type":"uint256"},{"internalType":"string","name":"title","type":"string"},{"internalType":"string","name":"description","type":"string"},{"internalType":"address","name":"proposer","type":"address"},{"internalType":"uint256","name":"merkleRoot","type":"uint256"},{"internalType":"uint256","name":"endTime","type":"uint256"},{"internalType":"uint256","name":"revealEndTime","type":"uint256"},{"internalType":"uint256","name":"forVotes","type":"uint256"},{"internalType":"uint256","name":"againstVotes","type":"uint256"},{"internalType":"uint256","name":"abstainVotes","type":"uint256"},{"internalType":"uint256","name":"totalCommitments","type":"uint256"},{"internalType":"uint256","name":"revealedVotes","type":"uint256"},{"internalType":"uint8","name":"phase","type":"uint8"}],"stateMutability":"view","type":"function"},{"inputs":[{"internalType":"uint256","name":"_proposalId","type":"uint256"}],"name":"getProposalD2","outputs":[{"internalType":"uint256","name":"id","type":"uint256"},{"internalType":"string","name":"title","type":"string"},{"internalType":"string","name":"description","type":"string"},{"internalType":"address","name":"proposer","type":"address"},{"internalType":"uint256","name":"creditRoot","type":"uint256"},{"internalType":"uint256","name":"endTime","type":"uint256"},{"internalType":"uint256","name":"revealEndTime","type":"uint256"},{"internalType":"uint256","name":"forVotes","type":"uint256"},{"internalType":"uint256","name":"againstVotes","type":"uint256"},{"internalType":"uint256","name":"abstainVotes","type":"uint256"},{"internalType":"uint256","name":"totalCreditsSpent","type":"uint256"},{"internalType":"uint256","name":"totalCommitments","type":"uint256"},{"internalType":"uint256","name":"revealedVotes","type":"uint256"},{"internalType":"uint8","name":"phase","type":"uint8"}],"stateMutability":"view","type":"function"},{"inputs":[],"name":"getRegisteredCreditNotes","outputs":[{"internalType":"uint256[]","name":"","type":"uint256[]"}],"stateMutability":"view","type":"function"},{"inputs":[],"name":"getRegisteredVoters","outputs":[{"internalType":"uint256[]","name":"","type":"uint256[]"}],"stateMutability":"view","type":"function"},{"inputs":[],"name":"getVoterCount","outputs":[{"internalType":"uint256","name":"","type":"uint256"}],"stateMutability":"view","type":"function"},{"inputs":[],"name":"initializeCredits","outputs":[],"stateMutability":"nonpayable","type":"function"},{"inputs":[{"internalType":"uint256","name":"","type":"uint256"}],"name":"isCreditNoteRegistered","outputs":[{"internalType":"bool","name":"","type":"bool"}],"stateMutability":"view","type":"function"},{"inputs":[{"internalType":"uint256","name":"_creditRoot","type":"uint256"}],"name":"isCreditRootValid","outputs":[{"internalType":"bool","name":"","type":"bool"}],"stateMutability":"view","type":"function"},{"inputs":[{"internalType":"uint256","name":"_merkleRoot","type":"uint256"}],"name":"isMerkleRootValid","outputs":[{"internalType":"bool","name":"","type":"bool"}],"stateMutability":"view","type":"function"},{"inputs":[{"internalType":"uint256","name":"","type":"uint256"}],"name":"isVoterRegistered","outputs":[{"internalType":"bool","name":"","type":"bool"}],"stateMutability":"view","type":"function"},{"inputs":[{"internalType":"uint256","name":"","type":"uint256"}],"name":"merkleRootHistory","outputs":[{"internalType":"uint256","name":"","type":"uint256"}],"stateMutability":"view","type":"function"},{"inputs":[{"internalType":"uint256","name":"amount","type":"uint256"}],"name":"mintTestTokens","outputs":[],"stateMutability":"nonpayable","type":"function"},{"inputs":[{"internalType":"uint256","name":"","type":"uint256"},{"internalType":"uint256","name":"","type":"uint256"}],"name":"nullifierUsedD1","outputs":[{"internalType":"bool","name":"","type":"bool"}],"stateMutability":"view","type":"function"},{"inputs":[{"internalType":"uint256","name":"","type":"uint256"},{"internalType":"uint256","name":"","type":"uint256"}],"name":"nullifierUsedD2","outputs":[{"internalType":"bool","name":"","type":"bool"}],"stateMutability":"view","type":"function"},{"inputs":[{"internalType":"address","name":"owner","type":"address"},{"internalType":"address","name":"spender","type":"address"},{"internalType":"uint256","name":"amount","type":"uint256"},{"internalType":"bytes","name":"data","type":"bytes"}],"name":"onApprove","outputs":[{"internalType":"bool","name":"","type":"bool"}],"stateMutability":"nonpayable","type":"function"},{"inputs":[],"name":"proposalCountD1","outputs":[{"internalType":"uint256","name":"","type":"uint256"}],"stateMutability":"view","type":"function"},{"inputs":[],"name":"proposalCountD2","outputs":[{"internalType":"uint256","name":"","type":"uint256"}],"stateMutability":"view","type":"function"},{"inputs":[{"internalType":"uint256","name":"","type":"uint256"},{"internalType":"uint256","name":"","type":"uint256"}],"name":"proposalVoterSnapshots","outputs":[{"internalType":"uint256","name":"","type":"uint256"}],"stateMutability":"view","type":"function"},{"inputs":[{"internalType":"uint256","name":"","type":"uint256"}],"name":"proposalsD1","outputs":[{"internalType":"uint256","name":"id","type":"uint256"},{"internalType":"string","name":"title","type":"string"},{"internalType":"string","name":"description","type":"string"},{"internalType":"address","name":"proposer","type":"address"},{"internalType":"uint256","name":"startTime","type":"uint256"},{"internalType":"uint256","name":"endTime","type":"uint256"},{"internalType":"uint256","name":"revealEndTime","type":"uint256"},{"internalType":"uint256","name":"merkleRoot","type":"uint256"},{"internalType":"uint256","name":"forVotes","type":"uint256"},{"internalType":"uint256","name":"againstVotes","type":"uint256"},{"internalType":"uint256","name":"abstainVotes","type":"uint256"},{"internalType":"uint256","name":"totalCommitments","type":"uint256"},{"internalType":"uint256","name":"revealedVotes","type":"uint256"},{"internalType":"bool","name":"exists","type":"bool"}],"stateMutability":"view","type":"function"},{"inputs":[{"internalType":"uint256","name":"","type":"uint256"}],"name":"proposalsD2","outputs":[{"internalType":"uint256","name":"id","type":"uint256"},{"internalType":"string","name":"title","type":"string"},{"internalType":"string","name":"description","type":"string"},{"internalType":"address","name":"proposer","type":"address"},{"internalType":"uint256","name":"startTime","type":"uint256"},{"internalType":"uint256","name":"endTime","type":"uint256"},{"internalType":"uint256","name":"revealEndTime","type":"uint256"},{"internalType":"uint256","name":"creditRoot","type":"uint256"},{"internalType":"uint256","name":"forVotes","type":"uint256"},{"internalType":"uint256","name":"againstVotes","type":"uint256"},{"internalType":"uint256","name":"abstainVotes","type":"uint256"},{"internalType":"uint256","name":"totalCreditsSpent","type":"uint256"},{"internalType":"uint256","name":"totalCommitments","type":"uint256"},{"internalType":"uint256","name":"revealedVotes","type":"uint256"},{"internalType":"bool","name":"exists","type":"bool"}],"stateMutability":"view","type":"function"},{"inputs":[{"internalType":"uint256","name":"_creditNoteHash","type":"uint256"}],"name":"registerCreditNote","outputs":[],"stateMutability":"nonpayable","type":"function"},{"inputs":[{"internalType":"uint256","name":"_creditRoot","type":"uint256"}],"name":"registerCreditRoot","outputs":[],"stateMutability":"nonpayable","type":"function"},{"inputs":[{"internalType":"uint256","name":"_merkleRoot","type":"uint256"}],"name":"registerMerkleRoot","outputs":[],"stateMutability":"nonpayable","type":"function"},{"inputs":[{"internalType":"uint256","name":"_noteHash","type":"uint256"}],"name":"registerVoter","outputs":[],"stateMutability":"nonpayable","type":"function"},{"inputs":[{"internalType":"uint256","name":"","type":"uint256"}],"name":"registeredCreditNotes","outputs":[{"internalType":"uint256","name":"","type":"uint256"}],"stateMutability":"view","type":"function"},{"inputs":[{"internalType":"uint256","name":"","type":"uint256"}],"name":"registeredVoters","outputs":[{"internalType":"uint256","name":"","type":"uint256"}],"stateMutability":"view","type":"function"},{"inputs":[{"internalType":"uint256","name":"_proposalId","type":"uint256"},{"internalType":"uint256","name":"_nullifier","type":"uint256"},{"internalType":"uint256","name":"_choice","type":"uint256"},{"internalType":"uint256","name":"_voteSalt","type":"uint256"}],"name":"revealVoteD1","outputs":[],"stateMutability":"nonpayable","type":"function"},{"inputs":[{"internalType":"uint256","name":"_proposalId","type":"uint256"},{"internalType":"uint256","name":"_nullifier","type":"uint256"},{"internalType":"uint256","name":"_choice","type":"uint256"},{"internalType":"uint256","name":"_numVotes","type":"uint256"},{"internalType":"uint256","name":"_voteSalt","type":"uint256"}],"name":"revealVoteD2","outputs":[],"stateMutability":"nonpayable","type":"function"},{"inputs":[{"internalType":"bytes4","name":"interfaceId","type":"bytes4"}],"name":"supportsInterface","outputs":[{"internalType":"bool","name":"","type":"bool"}],"stateMutability":"pure","type":"function"},{"inputs":[],"name":"tonToken","outputs":[{"internalType":"contract IERC20","name":"","type":"address"}],"stateMutability":"view","type":"function"},{"inputs":[],"name":"treasury","outputs":[{"internalType":"address","name":"","type":"address"}],"stateMutability":"view","type":"function"},{"inputs":[{"internalType":"uint256","name":"_proposalId","type":"uint256"},{"internalType":"uint256","name":"_newMerkleRoot","type":"uint256"}],"name":"updateProposalVoters","outputs":[],"stateMutability":"nonpayable","type":"function"},{"inputs":[{"internalType":"address","name":"","type":"address"}],"name":"userCredits","outputs":[{"internalType":"uint256","name":"totalCredits","type":"uint256"},{"internalType":"uint256","name":"usedCredits","type":"uint256"},{"internalType":"bool","name":"initialized","type":"bool"}],"stateMutability":"view","type":"function"},{"inputs":[{"internalType":"uint256","name":"","type":"uint256"}],"name":"validCreditRoots","outputs":[{"internalType":"bool","name":"","type":"bool"}],"stateMutability":"view","type":"function"},{"inputs":[{"internalType":"uint256","name":"","type":"uint256"}],"name":"validMerkleRoots","outputs":[{"internalType":"bool","name":"","type":"bool"}],"stateMutability":"view","type":"function"},{"inputs":[],"name":"verifierD1","outputs":[{"internalType":"contract IVerifierD1","name":"","type":"address"}],"stateMutability":"view","type":"function"},{"inputs":[],"name":"verifierD2","outputs":[{"internalType":"contract IVerifierD2","name":"","type":"address"}],"stateMutability":"view","type":"function"}],"evm":{"bytecode":{"linkReferences":{"contracts/PoseidonT5.sol":{"PoseidonT5":[{"length":20,"start":2869},{"length":20,"start":11953}]}},"object":"60e0346200011257601f620036d838819003918201601f19168301916001600160401b03831184841017620001175780849260809460405283398101031262000112576200004d816200012d565b906200005c602082016200012d565b9162000079606062000071604085016200012d565b93016200012d565b6001600160a01b0391821660805292811660a05290811660c052600080546001600160a01b0319169190921617905560405161359590816200014382396080518181816103610152612a24015260a051818181610f62015281816117ea0152612140015260c051818181610fca015281816114dd015281816118ac01528181611f60015281816121c30152818161224501526122a90152f35b600080fd5b634e487b7160e01b600052604160045260246000fd5b51906001600160a01b0382168203620001125756fe608080604052600436101561001357600080fd5b60003560e01c90816301ffc9a714612e845750806303a229f714612e665780630572c80114612c9d5780630d70ece814612c6c57806311174a2914612c4e57806313703e6614612bc457806318dbeb4c1461292757806320babb92146128d15780632436e06b146128a85780632bbe44fd1461288c5780632bc4a6e7146128115780632c5317c0146127d2578063315401c0146126b6578063417e70c8146104895780634273ca1614611f0e5780634275e03114611e905780634a9284fb14610e1d5780634d09b49f14611a4157806352a48c56146119b15780635938862f1461197957806361d027b314611950578063697aa8e8146119335780636d3cba611461190257806374dd0fea146118db578063781a485214611896578063833722c51461185e578063850099cd146118355780638ea7a2741461181957806394ffe6a0146117d4578063974f7aa314611783578063a13f2f8d14611767578063a1c7574a146116dc578063a329b3131461168b578063a4cae8f814611629578063aa6098481461154e578063b065a8e51461149c578063b4e0d6af14611394578063b5770c3314611378578063b5ad921514611327578063badbc2ed14610e4e578063cb1bb03314610e1d578063d544433614610d66578063d54bb70b14610c40578063d55d533e14610962578063d90292a314610946578063db5bd601146104ba578063ef3a2b3914610489578063f025d08214610390578063f58789ae1461034b578063f90587411461032d5763fb9607d31461025057600080fd5b346103285760003660031901126103285733600052601260205260ff600260406000200154161561027d57005b604051606081018181106001600160401b03821117610312576040526102e4612710918281526002602082016000815260408301906001825233600052601260205260406000209351845551600184015551151591019060ff801983541691151516179055565b6040519081527f840108f8f5f45d25a166719fa7440c37016845a955726b639e64fb325f73100760203392a2005b634e487b7160e01b600052604160045260246000fd5b600080fd5b34610328576000366003190112610328576020600154604051908152f35b34610328576000366003190112610328576040517f00000000000000000000000000000000000000000000000000000000000000006001600160a01b03168152602090f35b3461032857602036600319011261032857600435600052600360205260406000208054600182016103c090613119565b916103cd60028201613119565b600160a01b60019003600383015416916004810154600582015460068301546007840154600885015490600986015492600a87015494600b88015496600c89015498600d015460ff16996040519d8e9d8e6101c09181528160208201520161043491612f8e565b8d810360408f015261044591612f8e565b9a60608d015260808c015260a08b015260c08a015260e089015261010088015261012087015261014086015261016085015261018084015215156101a08301520390f35b3461032857602036600319011261032857600435600052600e602052602060ff604060002054166040519015158152f35b34610328576104c836612ffb565b929482600097959793929352600e60205260ff6040600020541615610934576104f26002546131f9565b958660025561050184426131ec565b6105148661050f87426131ec565b6131ec565b91604051998a6101e08101106001600160401b036101e08d01111761031257610559916101e08c016040528a8c5261054d36878c613411565b60208d01523691613411565b60408a01523360608a01524260808a015260a089015260c08801528160e08801526000610100880152600061012088015260006101408801526000610160880152600061018088015260006101a088015260016101c088015285600052600b6020526040600020928751845560208801518051906001600160401b0382116103125781906105ea6001880154613051565b601f81116108ff575b50602090601f831160011461088d57600092610882575b50508160011b916000199060031b1c19161760018501555b6040880151938451986001600160401b038a1161031257602099899661064b6002850154613051565b601f8111610844575b508b90601f831160011461079b5793600e6101c061077695857f4742ce2d5f823dbde60d41925bff9b938299879eba7f67fa0029c8633d92b6549c9d96610762966107859b9a600092610790575b50508160011b916000199060031b1c19161760028501555b6003840160018060a01b036060830151166bffffffffffffffffffffffff60a01b8254161790556080810151600485015560a0810151600585015560c0810151600685015560e0810151600785015561010081015160088501556101208101516009850155610140810151600a850155610160810151600b850155610180810151600c8501556101a0810151600d8501550151151591019060ff801983541691151516179055565b61050f61076f84426131ec565b93426131ec565b9060405194859433998661346e565b0390a3604051908152f35b0151905038806106a2565b6002859493929a95016000528c6000209060005b601f198416811061082a57506101c061078597969460018561077698957f4742ce2d5f823dbde60d41925bff9b938299879eba7f67fa0029c8633d92b6549e9f600e9661076299601f19811610610811575b505050811b0160028501556106ba565b015160001960f88460031b161c19169055388080610801565b818c015183559a8e019a8d9a506001909201918e016107af565b61087290600286016000528d600020601f850160051c8101918f8610610878575b601f0160051c0190613457565b8c610654565b9091508190610865565b015190508a8061060a565b9250600187016000526020600020906000935b601f19841685106108e4576001945083601f198116106108cb575b505050811b016001850155610622565b015160001960f88460031b161c191690558a80806108bb565b818101518355602094850194600190930192909101906108a0565b61092e90600189016000526020600020601f850160051c8101916020861061087857601f0160051c0190613457565b8b6105f3565b604051633398105560e01b8152600490fd5b3461032857600036600319011261032857602060405160028152f35b346103285760a0366003190112610328576004356024359060443560643582600052602091600b8352604060002092600c8152604060002086600052815260406000209060ff600e8601541615610c2e576005850154421115610c1c5760068501544211610c1c5760ff60078301541615610c0a576005820160ff815416610bf85760028411610be6576040519173__$0daf1669a85ce10529e05b8a030b9567e1$__610a0e8461308b565b858452868285015260018501938454604082015289606082015260405190838280610a476321c2736360e21b94858352600483016131be565b0381865af4908115610ba7578492600092610bb3575b5092610a9b9360405192610a708461308b565b83526084358484015260006040840152600060608401526040518095819482938352600483016131be565b03915af4918215610ba757600092610b79575b5050835403610b67577f3c283986862ad16cc4d3240256474e99bfc9df697a62f7351373cbdefb3d14f895846006610b3895600d94600160ff19825416179055015560018514600014610b3d5760088101610b0a8782546131ec565b90555b01610b1881546131f9565b905554604051938493846040919493926060820195825260208201520152565b0390a3005b84610b585760098101610b518782546131ec565b9055610b0d565b600a8101610b518782546131ec565b604051639ea6d12760e01b8152600490fd5b90809250813d8311610ba0575b610b9081836130f8565b8101031261032857518980610aae565b503d610b86565b6040513d6000823e3d90fd5b8381949293503d8311610bdf575b610bcb81836130f8565b810103126103285790518391610a9b610a5d565b503d610bc1565b604051639c45400160e01b8152600490fd5b60405163a89ac15160e01b8152600490fd5b604051635b34156960e11b8152600490fd5b6040516374683d7160e01b8152600490fd5b60405163635e873760e01b8152600490fd5b3461032857602036600319011261032857600435600052600b602052604060002060ff600e8201541615610c2e576005810154428110610d4b576000905b825491600160a01b6001900360038501541691600785015490600686015460088701546009880154600a89015491600b8a015493600c8b015495600d8c01549760018d01610ccb90613119565b9c600201610cd890613119565b6040519d8e9d8e6101c091815281602082015201610cf591612f8e565b8d810360408f0152610d0691612f8e565b9a60608d015260808c015260a08b015260c08a015260e089015261010088015261012087015261014086015261016085015261018084015260ff166101a08301520390f35b60068201544211610d5e57600190610c7e565b600290610c7e565b346103285760203660031901126103285760043580600052600e6020526040600020600160ff19825416179055600f54600160401b811015610312576001810180600f55811015610e07578190600f6000527f8d1108e10bcb7c27dddfc02ed9d693a074039d026cf4ea4240b40f7d581ac80201557fc437041eca78e842ff32dc1036255a23da98c52b2f3bd3a875923aadb0276b3d6020604051428152a2005b634e487b7160e01b600052603260045260246000fd5b34610328576020366003190112610328576004356000526006602052602060ff604060002054166040519015158152f35b34610328576101a0366003190112610328576084356004356064356044356024353660e4116103285761016492368411610328576101a4903682116103285785600052602091600b835260406000209560ff600e8801541615610c2e57600587015442116113155787600052600d8452604060002089600052845260ff6040600020541661130357610ee086806133d6565b83036112f1578360405191610ef4836130a6565b8a835286828401528960408401528460608401526007890154608084015260018060a01b03936040519384926334baeab960e01b8452604060a4600486013760e46000604486015b600282106112cc57505050906040610f5e9260c4860137610104840190613220565b81857f0000000000000000000000000000000000000000000000000000000000000000165afa908115610ba7576000916112af575b501561129d57670de0b6b3a764000090818302908382048314841517156111de576040516370a0823160e01b8152336004820152917f0000000000000000000000000000000000000000000000000000000000000000821691908684602481865afa938415610ba75760009461126e575b5080841061125c57600080546040516323b872dd60e01b815233600482015293166001600160a01b031660248401526044830191909152909186918391908290816064810103925af1908115610ba75760009161122f575b50156111f457048181039081116111de577fbcf4fa36949e1955af2c6b6b628e50db0e23ec473b26480f3a584dd5a5d8953b956111a38960078a610b3897600b9660405190898252828201527f380f4b80ac5d183ff04f143a097611558815196006b7297cae774c0b5680a5ee60403392a281600052600d815260406000208460005281526040600020600160ff1982541617905561118760405194611101866130c1565b8b86528286018a81528d604088019081526060880190838252608089019242845260a08a01946000865260c08b01976000895260e08c019960018b52600052600c815260406000209160005252604060002099518a555160018a0155516002890155516003880155516004870155511515600586019060ff801983541691151516179055565b51600684015551151591019060ff801983541691151516179055565b600c81016111b181546131f9565b9055016111bf8282546131ec565b9055604051938493846040919493926060820195825260208201520152565b634e487b7160e01b600052601160045260246000fd5b60405162461bcd60e51b81526004810185905260136024820152721513d3881d1c985b9cd9995c8819985a5b1959606a1b6044820152606490fd5b61124f9150853d8711611255575b61124781836130f8565b810190613208565b8a61105c565b503d61123d565b6040516343fb945360e01b8152600490fd5b9093508681813d8311611296575b61128681836130f8565b810103126103285751928c611004565b503d61127c565b6040516309bde33960e01b8152600490fd5b6112c69150843d86116112555761124781836130f8565b89610f93565b6040919395975082949650808260019481933701930191019089959391879593610f3c565b6040516315252a2960e21b8152600490fd5b604051636569570160e11b8152600490fd5b60405163abfb7dc360e01b8152600490fd5b34610328576020366003190112610328576004356007548110156103285760209060076000527fa66cc928b5edb82af9bd49922954155ab7b0942694bea4ce44661d9a8736c6880154604051908152f35b3461032857600036600319011261032857602060405160008152f35b3461032857602036600319011261032857600435600052600b60205260406000208054600182016113c490613119565b6113d060028401613119565b92600160a01b600190036003820154169060048101546005820154600683015460078401546008850154600986015491600a87015493600b88015495600c89015497600d8a015499600e015460ff169a6040519e8f9e8f9e8f916101e0908352806020840152820161144191612f8e565b90808203906040015261145391612f8e565b9c6060015260808d015260a08c015260c08b015260e08a01526101008901526101208801526101408701526101608601526101808501526101a084015215156101c08301520390f35b3461032857602080600319360112610328576024816114b9612eed565b6040516370a0823160e01b81526001600160a01b03918216600482015292839182907f0000000000000000000000000000000000000000000000000000000000000000165afa908115610ba757600091611521575b50670de0b6b3a764000060405191048152f35b90508181813d8311611547575b61153881836130f8565b8101031261032857518261150e565b503d61152e565b346103285761155c36612ed7565b8160005260039160206003602052604060002060ff600d8201541615610c2e5760078491015581600052600a91600a60205260406000208054600082558061160d575b505060005b6008548110156115db57600190826000528484526115d560406000206115c983612f03565b9054908a1b1c90613290565b016115a4565b8480600052600660205260406000209081549160ff8316156115f957005b600161160b9360ff1916179055613248565b005b61162291600052602060002090810190613457565b858061159f565b34610328576020366003190112610328576004358060005260066020526040600020600160ff1982541617905561165f81613248565b7fcb23ed79d0d407699762f186152925a6b8dd62fc4b2223f50a16534af8c883f86020604051428152a2005b3461032857602036600319011261032857600435600f5481101561032857602090600f6000527f8d1108e10bcb7c27dddfc02ed9d693a074039d026cf4ea4240b40f7d581ac8020154604051908152f35b3461032857600036600319011261032857604051806010549182815260208091019260106000527f1b6847dc741a1b0cd08d278845f9d819d87b734759afb55fe2de5cb82a9ae672916000905b8282106117505761174c85611740818903826130f8565b60405191829182612f52565b0390f35b835486529485019460019384019390910190611729565b346103285760203660031901126103285761160b6004356134ea565b34610328576020366003190112610328576004356010548110156103285760209060106000527f1b6847dc741a1b0cd08d278845f9d819d87b734759afb55fe2de5cb82a9ae6720154604051908152f35b34610328576000366003190112610328576040517f00000000000000000000000000000000000000000000000000000000000000006001600160a01b03168152602090f35b3461032857600036600319011261032857602060405160018152f35b346103285760203660031901126103285760206118536004356134a9565b60ff60405191168152f35b346103285761186c36612ed7565b90600052600d602052604060002090600052602052602060ff604060002054166040519015158152f35b34610328576000366003190112610328576040517f00000000000000000000000000000000000000000000000000000000000000006001600160a01b03168152602090f35b346103285760203660031901126103285760206118fa600435806133d6565b604051908152f35b34610328576020366003190112610328576004356000526009602052602060ff604060002054166040519015158152f35b346103285760003660031901126103285760206040516127108152f35b34610328576000366003190112610328576000546040516001600160a01b039091168152602090f35b346103285761198736612ed7565b906000526005602052604060002090600052602052602060ff604060002054166040519015158152f35b346103285760203660031901126103285760043533600052601260205260406000206002810160ff81541615600014611a2e5782825560006001830155600160ff198254161790555b5460405191825260208201527fc8bc4842cf61a3f6cbf597029d937fdf158ef4959a9616594587a0fb8c6b871160403392a2005b50611a3a8282546131ec565b81556119fa565b3461032857611a4f36612ffb565b948260009793929752600660205260ff6040600020541615611e7e57611a766001546131f9565b9384600155611a8588426131ec565b611a938861050f8b426131ec565b9160405197886101c08101106001600160401b036101c08b01111761031257611ad8916101c08a01604052888a52611acc36878a613411565b60208b01523691613411565b604088015233606088015242608088015260a087015260c08601528160e08601526000610100860152600061012086015260006101408601526000610160860152600061018086015260016101a08601528360005260036020526040600020958551875560208601518051906001600160401b038211610312578190611b6160018b0154613051565b601f8111611e49575b50602090601f8311600114611dd757600092611dcc575b50508160011b916000199060031b1c19161760018801555b60408601518051906001600160401b038211610312578190611bbe60028b0154613051565b601f8111611d97575b50602090601f8311600114611d2557600092611d1a575b50508160011b916000199060031b1c19161760028801555b6003870160018060a01b036060880151166bffffffffffffffffffffffff60a01b8254161790556080860151600488015560a0860151600588015560c0860151600688015560e08601516007880155611ca160089761010088015160088201556101208801516009820155600d6101a0600a99610140810151600a850155610160810151600b850155610180810151600c8501550151151591019060ff801983541691151516179055565b60005b8754811015611cdc576001908660005287602052611cd66040600020611cc983612f03565b90549060031b1c90613290565b01611ca4565b5060209550917f16356ec948fe2183cece6a7b111beef5be873032e9698d3fbf0e0168d0fc91a89161078589610776889661050f61076f84426131ec565b015190508a80611bde565b925060028a016000526020600020906000935b601f1984168510611d7c576001945083601f19811610611d63575b505050811b016002880155611bf6565b015160001960f88460031b161c191690558a8080611d53565b81810151835560209485019460019093019290910190611d38565b611dc69060028c016000526020600020601f850160051c8101916020861061087857601f0160051c0190613457565b8b611bc7565b015190508a80611b81565b925060018a016000526020600020906000935b601f1984168510611e2e576001945083601f19811610611e15575b505050811b016001880155611b99565b015160001960f88460031b161c191690558a8080611e05565b81810151835560209485019460019093019290910190611dea565b611e789060018c016000526020600020601f850160051c8101916020861061087857601f0160051c0190613457565b8b611b6a565b604051639dd854d360e01b8152600490fd5b3461032857611e9e36612ed7565b90600052600460205260406000209060005260205260e060406000208054906001810154906002810154600382015460ff6004840154169160ff6006600586015495015416946040519687526020870152604086015260608501521515608084015260a0830152151560c0820152f35b3461032857608036600319011261032857611f27612eed565b6024356001600160a01b0381169190829003610328576064356001600160401b03811161032857611f5c903690600401612fce565b90927f00000000000000000000000000000000000000000000000000000000000000006001600160a01b0316330361267157300361263a576101c083828101031261032857611fb081840160c08501613391565b81840161011f850112156103285760405191611fcb836130dd565b82818601610180870111610328576101008601905b6101808701821061261e575050611ffd9085016101808601613391565b918435600052600b60205260406000209260ff600e8501541615610c2e5760058401544211611315578535600052600d6020526040600020608087013560005260205260ff604060002054166113035760a0860135600052600e60205260ff6040600020541615610934576120766040870135806133d6565b6060870135036112f1576060860135670de0b6b3a764000080820282900414901517156111de57670de0b6b3a7640000606087013502604435106125d957604051916120c1836130a6565b6080870135835260208701356020840152863560408401526060870135606084015260a08701356080840152612108604051946334baeab960e01b865260048601906133e9565b6000604485015b600282106125bb575050509061212c6121379260c48501906133e9565b610104830190613220565b6020816101a4817f00000000000000000000000000000000000000000000000000000000000000006001600160a01b03165afa908115610ba75760009161259c575b501561129d576040516323b872dd60e01b81526001600160a01b03831660048201523060248201526060840135670de0b6b3a76400000260448201526020818060648101038160007f00000000000000000000000000000000000000000000000000000000000000006001600160a01b03165af1908115610ba75760009161257d575b5015612538576000805460405163a9059cbb60e01b81526001600160a01b0391821660048201526060860135670de0b6b3a76400000260248201529160209183916044918391907f0000000000000000000000000000000000000000000000000000000000000000165af1908115610ba757600091612519575b50156124d4576040516370a0823160e01b81526001600160a01b03928316600482018190529092602090849060249082907f0000000000000000000000000000000000000000000000000000000000000000165afa928315610ba757600093612480575b507f380f4b80ac5d183ff04f143a097611558815196006b7297cae774c0b5680a5ee6040600b94670de0b6b3a764000082519160608901358352046020820152a28235600052600d602052604060002060808401356000526020526040600020600160ff198254161790556123f7604051612354816130c1565b602085013581526007602082016060870135815260408301604088013581526111876060850160808a013581526080860142815260a08701916000835260c08801946000865260e0890196600188528d35600052600c6020528d60806040600020910135600052602052604060002099518a555160018a0155516002890155516003880155516004870155511515600586019060ff801983541691151516179055565b600c810161240581546131f9565b905501612417606083013582546131ec565b9055604051907fbcf4fa36949e1955af2c6b6b628e50db0e23ec473b26480f3a584dd5a5d8953b6080820135928061247284359460608101359060206040820135910135846040919493926060820195825260208201520152565b0390a3602060405160018152f35b92506020833d6020116124cc575b8161249b602093836130f8565b81010312610328579151917f380f4b80ac5d183ff04f143a097611558815196006b7297cae774c0b5680a5ee6122da565b3d915061248e565b60405162461bcd60e51b815260206004820152601e60248201527f544f4e20666f727761726420746f207472656173757279206661696c656400006044820152606490fd5b612532915060203d6020116112555761124781836130f8565b84612276565b60405162461bcd60e51b815260206004820152601d60248201527f544f4e207472616e736665722066726f6d2075736572206661696c65640000006044820152606490fd5b612596915060203d6020116112555761124781836130f8565b846121fc565b6125b5915060203d6020116112555761124781836130f8565b84612179565b60206040826125cd60019487516133e9565b0193019101909161210f565b60405162461bcd60e51b815260206004820152601c60248201527f496e73756666696369656e7420617070726f76656420616d6f756e74000000006044820152606490fd5b602060409161262f858a0185613391565b815201910190611fe0565b60405162461bcd60e51b815260206004820152600f60248201526e24b73b30b634b21039b832b73232b960891b6044820152606490fd5b60405162461bcd60e51b815260206004820152601760248201527f4f6e6c7920544f4e20746f6b656e2063616e2063616c6c0000000000000000006044820152606490fd5b34610328576020366003190112610328576004356000526003602052604060002060ff600d8201541615610c2e5760058101544281106127b7576000905b825491600160a01b600190036003850154169160078501549060068601546008870154600988015490600a89015492600b8a015494600c8b01549660018c0161273c90613119565b9b60020161274990613119565b6040519c8d809d6101a09182918152602001528d0161276791612f8e565b8c810360408e015261277891612f8e565b9960608c015260808b015260a08a015260c089015260e088015261010087015261012086015261014085015261016084015260ff166101808301520390f35b600682015442116127ca576001906126f4565b6002906126f4565b34610328576127e036612ed7565b90600052600a602052604060002080548210156103285760209161280391612f3a565b90546040519160031b1c8152f35b3461032857600036600319011261032857604051806008549182815260208091019260086000527ff3f7a9fe364faab93b216da50a3214154f22a0a2b415b23a84c8169e8b636ee3916000905b8282106128755761174c85611740818903826130f8565b83548652948501946001938401939091019061285e565b346103285760203660031901126103285761160b6004356132cc565b346103285760203660031901126103285760043560085481101561032857612803602091612f03565b34610328576020366003190112610328576001600160a01b036128f2612eed565b1660005260126020526060604060002080549060ff600260018301549201541690604051928352602083015215156040820152f35b3461032857610180366003190112610328576064356004356024356044353660c411610328576101449136831161032857366101841161032857836000526020916003835260406000209360ff600d8601541615610c2e5760058501544211611315578560005260058452604060002087600052845260ff60406000205416611303578115612bb2576040516129bc816130a6565b878152838582015286604082015282606082015260078601546080820152604051916334baeab960e01b835260406084600485013760c46000604485015b60028210612b9c57505050906040612a1c9260c4850137610104830190613220565b83816101a4817f00000000000000000000000000000000000000000000000000000000000000006001600160a01b03165afa908115610ba757600091612b7f575b501561129d57846000526005835260406000208660005283526040600020600160ff198254161790556040519260e08401938085106001600160401b03861117610312577f049e5146cbefb4fff5586b703de455cb45794712230253d13f2d8c57da85a32395612b67600b9260068a86612b4b8e60409c8d528b86528286018b81528d87018281526060880191428352608089019360008552600460a08b01976000895260c08c019960018b52600052526040600020906000528d528f60002098518955516001890155516002880155516003870155511515600486019060ff801983541691151516179055565b51600584015551151591019060ff801983541691151516179055565b01612b7281546131f9565b90558351928352820152a3005b612b969150843d86116112555761124781836130f8565b87612a5d565b60408082818660019537019301910190916129fa565b6040516343c891cf60e11b8152600490fd5b3461032857612bd236612ed7565b90600052600c60205260406000209060005260205261010060406000208054906001810154906002810154600382015460048301549060ff6005850154169260ff6007600687015496015416956040519788526020880152604087015260608601526080850152151560a084015260c0830152151560e0820152f35b34610328576000366003190112610328576020600854604051908152f35b34610328576020366003190112610328576004356000526011602052602060ff604060002054166040519015158152f35b3461032857608036600319011261032857600435602435906044358160005260206003815260406000209160048252604060002085600052825260406000209160ff600d8501541615610c2e576005840154421115610c1c5760068401544211610c1c5760ff60068401541615610c0a576004830160ff815416610bf85760028311610be65760405190612d308261308b565b838252612d6a8360018701938454828201528960408201526064356060820152604051809381926321c2736360e21b8352600483016131be565b038173__$0daf1669a85ce10529e05b8a030b9567e1$__5af4908115610ba757600091612e39575b50855403610b67577f48b18ffd0d20ac6e0c916dc382bdea3de3108e2b71d66318ff2bdc7aa10a562895846005604097600c94600160ff19825416179055015560018514600014612e0b578254612dee600883019182546131ec565b90555b01612dfc81546131f9565b905554908351928352820152a3005b84612e28578254612e21600983019182546131ec565b9055612df1565b8254612e21600a83019182546131ec565b90508381813d8311612e5f575b612e5081836130f8565b81010312610328575189612d92565b503d612e46565b34610328576000366003190112610328576020600254604051908152f35b34610328576020366003190112610328576004359063ffffffff60e01b821680920361032857602091632139e50b60e11b8114908115612ec6575b5015158152f35b6301ffc9a760e01b14905083612ebf565b6040906003190112610328576004359060243590565b600435906001600160a01b038216820361032857565b600854811015610e075760086000527ff3f7a9fe364faab93b216da50a3214154f22a0a2b415b23a84c8169e8b636ee30190600090565b8054821015610e075760005260206000200190600090565b602090602060408183019282815285518094520193019160005b828110612f7a575050505090565b835185529381019392810192600101612f6c565b919082519283825260005b848110612fba575050826000602080949584010152601f8019910116010190565b602081830181015184830182015201612f99565b9181601f84011215610328578235916001600160401b038311610328576020838186019501011161032857565b60a0600319820112610328576001600160401b0391600435838111610328578261302791600401612fce565b939093926024359182116103285761304191600401612fce565b9091604435906064359060843590565b90600182811c92168015613081575b602083101461306b57565b634e487b7160e01b600052602260045260246000fd5b91607f1691613060565b608081019081106001600160401b0382111761031257604052565b60a081019081106001600160401b0382111761031257604052565b61010081019081106001600160401b0382111761031257604052565b604081019081106001600160401b0382111761031257604052565b90601f801991011681019081106001600160401b0382111761031257604052565b9060405191826000825461312c81613051565b9081845260209460019160018116908160001461319c575060011461315d575b50505061315b925003836130f8565b565b600090815285812095935091905b81831061318457505061315b935082010138808061314c565b8554888401850152948501948794509183019161316b565b9250505061315b94925060ff191682840152151560051b82010138808061314c565b6080810192916000915b600483106131d557505050565b6001908251815260208091019201920191906131c8565b919082018092116111de57565b60001981146111de5760010190565b90816020910312610328575180151581036103285790565b6000915b6005831061323157505050565b600190825181526020809101920192019190613224565b600754600160401b811015610312576001810180600755811015610e075760076000527fa66cc928b5edb82af9bd49922954155ab7b0942694bea4ce44661d9a8736c6880155565b90815491600160401b83101561031257826132b391600161315b95018155612f3a565b90919082549060031b91821b91600019901b1916179055565b90600091808352601160205260408320805460ff811661338a5760ff19166001179055601054600160401b811015613376576001810180601055811015613362576010829394527f1b6847dc741a1b0cd08d278845f9d819d87b734759afb55fe2de5cb82a9ae67201557f1926a241ba9d59467ac0063e2cb861452b93ab650fff5378a82e86befecc27ab6020604051428152a2565b634e487b7160e01b84526032600452602484fd5b634e487b7160e01b84526041600452602484fd5b5050509050565b9080601f8301121561032857604051916133aa836130dd565b82906040810192831161032857905b8282106133c65750505090565b81358152602091820191016133b9565b818102929181159184041417156111de57565b6000915b600283106133fa57505050565b6001908251815260208091019201920191906133ed565b9291926001600160401b038211610312576040519161343a601f8201601f1916602001846130f8565b829481845281830111610328578281602093846000960137010152565b818110613462575050565b60008155600101613457565b918060a0916060959897969360808652816080870152838601376000828286010152601f801991011683010195602083015260408201520152565b600052600b602052604060002060ff600e8201541615610c2e5760058101544211156134e457600601544211156134df57600290565b600190565b50600090565b8060005260096020526040600020805460ff811661355a5760ff19166001179055600854600160401b81101561031257816132b382600161352e9401600855612f03565b7f85238313f6b4aa1ea470340fc24bc06d68e734cd21411160c06714eb547571af6020604051428152a2565b50505056fea2646970667358221220af354e2f12987e8a19b0c17cccbe3cdfb0850ab60acc57502a5d5bae4cf21cf564736f6c63430008180033","opcodes":"PUSH1 0xE0 CALLVALUE PUSH3 0x112 JUMPI PUSH1 0x1F PUSH3 0x36D8 CODESIZE DUP2 SWAP1 SUB SWAP2 DUP3 ADD PUSH1 0x1F NOT AND DUP4 ADD SWAP2 PUSH1 0x1 PUSH1 0x1 PUSH1 0x40 SHL SUB DUP4 GT DUP5 DUP5 LT OR PUSH3 0x117 JUMPI DUP1 DUP5 SWAP3 PUSH1 0x80 SWAP5 PUSH1 0x40 MSTORE DUP4 CODECOPY DUP2 ADD SUB SLT PUSH3 0x112 JUMPI PUSH3 0x4D DUP2 PUSH3 0x12D JUMP JUMPDEST SWAP1 PUSH3 0x5C PUSH1 0x20 DUP3 ADD PUSH3 0x12D JUMP JUMPDEST SWAP2 PUSH3 0x79 PUSH1 0x60 PUSH3 0x71 PUSH1 0x40 DUP6 ADD PUSH3 0x12D JUMP JUMPDEST SWAP4 ADD PUSH3 0x12D JUMP JUMPDEST PUSH1 0x1 PUSH1 0x1 PUSH1 0xA0 SHL SUB SWAP2 DUP3 AND PUSH1 0x80 MSTORE SWAP3 DUP2 AND PUSH1 0xA0 MSTORE SWAP1 DUP2 AND PUSH1 0xC0 MSTORE PUSH1 0x0 DUP1 SLOAD PUSH1 0x1 PUSH1 0x1 PUSH1 0xA0 SHL SUB NOT AND SWAP2 SWAP1 SWAP3 AND OR SWAP1 SSTORE PUSH1 0x40 MLOAD PUSH2 0x3595 SWAP1 DUP2 PUSH3 0x143 DUP3 CODECOPY PUSH1 0x80 MLOAD DUP2 DUP2 DUP2 PUSH2 0x361 ADD MSTORE PUSH2 0x2A24 ADD MSTORE PUSH1 0xA0 MLOAD DUP2 DUP2 DUP2 PUSH2 0xF62 ADD MSTORE DUP2 DUP2 PUSH2 0x17EA ADD MSTORE PUSH2 0x2140 ADD MSTORE PUSH1 0xC0 MLOAD DUP2 DUP2 DUP2 PUSH2 0xFCA ADD MSTORE DUP2 DUP2 PUSH2 0x14DD ADD MSTORE DUP2 DUP2 PUSH2 0x18AC ADD MSTORE DUP2 DUP2 PUSH2 0x1F60 ADD MSTORE DUP2 DUP2 PUSH2 0x21C3 ADD MSTORE DUP2 DUP2 PUSH2 0x2245 ADD MSTORE PUSH2 0x22A9 ADD MSTORE RETURN JUMPDEST PUSH1 0x0 DUP1 REVERT JUMPDEST PUSH4 0x4E487B71 PUSH1 0xE0 SHL PUSH1 0x0 MSTORE PUSH1 0x41 PUSH1 0x4 MSTORE PUSH1 0x24 PUSH1 0x0 REVERT JUMPDEST MLOAD SWAP1 PUSH1 0x1 PUSH1 0x1 PUSH1 0xA0 SHL SUB DUP3 AND DUP3 SUB PUSH3 0x112 JUMPI JUMP INVALID PUSH1 0x80 DUP1 PUSH1 0x40 MSTORE PUSH1 0x4 CALLDATASIZE LT ISZERO PUSH2 0x13 JUMPI PUSH1 0x0 DUP1 REVERT JUMPDEST PUSH1 0x0 CALLDATALOAD PUSH1 0xE0 SHR SWAP1 DUP2 PUSH4 0x1FFC9A7 EQ PUSH2 0x2E84 JUMPI POP DUP1 PUSH4 0x3A229F7 EQ PUSH2 0x2E66 JUMPI DUP1 PUSH4 0x572C801 EQ PUSH2 0x2C9D JUMPI DUP1 PUSH4 0xD70ECE8 EQ PUSH2 0x2C6C JUMPI DUP1 PUSH4 0x11174A29 EQ PUSH2 0x2C4E JUMPI DUP1 PUSH4 0x13703E66 EQ PUSH2 0x2BC4 JUMPI DUP1 PUSH4 0x18DBEB4C EQ PUSH2 0x2927 JUMPI DUP1 PUSH4 0x20BABB92 EQ PUSH2 0x28D1 JUMPI DUP1 PUSH4 0x2436E06B EQ PUSH2 0x28A8 JUMPI DUP1 PUSH4 0x2BBE44FD EQ PUSH2 0x288C JUMPI DUP1 PUSH4 0x2BC4A6E7 EQ PUSH2 0x2811 JUMPI DUP1 PUSH4 0x2C5317C0 EQ PUSH2 0x27D2 JUMPI DUP1 PUSH4 0x315401C0 EQ PUSH2 0x26B6 JUMPI DUP1 PUSH4 0x417E70C8 EQ PUSH2 0x489 JUMPI DUP1 PUSH4 0x4273CA16 EQ PUSH2 0x1F0E JUMPI DUP1 PUSH4 0x4275E031 EQ PUSH2 0x1E90 JUMPI DUP1 PUSH4 0x4A9284FB EQ PUSH2 0xE1D JUMPI DUP1 PUSH4 0x4D09B49F EQ PUSH2 0x1A41 JUMPI DUP1 PUSH4 0x52A48C56 EQ PUSH2 0x19B1 JUMPI DUP1 PUSH4 0x5938862F EQ PUSH2 0x1979 JUMPI DUP1 PUSH4 0x61D027B3 EQ PUSH2 0x1950 JUMPI DUP1 PUSH4 0x697AA8E8 EQ PUSH2 0x1933 JUMPI DUP1 PUSH4 0x6D3CBA61 EQ PUSH2 0x1902 JUMPI DUP1 PUSH4 0x74DD0FEA EQ PUSH2 0x18DB JUMPI DUP1 PUSH4 0x781A4852 EQ PUSH2 0x1896 JUMPI DUP1 PUSH4 0x833722C5 EQ PUSH2 0x185E JUMPI DUP1 PUSH4 0x850099CD EQ PUSH2 0x1835 JUMPI DUP1 PUSH4 0x8EA7A274 EQ PUSH2 0x1819 JUMPI DUP1 PUSH4 0x94FFE6A0 EQ PUSH2 0x17D4 JUMPI DUP1 PUSH4 0x974F7AA3 EQ PUSH2 0x1783 JUMPI DUP1 PUSH4 0xA13F2F8D EQ PUSH2 0x1767 JUMPI DUP1 PUSH4 0xA1C7574A EQ PUSH2 0x16DC JUMPI DUP1 PUSH4 0xA329B313 EQ PUSH2 0x168B JUMPI DUP1 PUSH4 0xA4CAE8F8 EQ PUSH2 0x1629 JUMPI DUP1 PUSH4 0xAA609848 EQ PUSH2 0x154E JUMPI DUP1 PUSH4 0xB065A8E5 EQ PUSH2 0x149C JUMPI DUP1 PUSH4 0xB4E0D6AF EQ PUSH2 0x1394 JUMPI DUP1 PUSH4 0xB5770C33 EQ PUSH2 0x1378 JUMPI DUP1 PUSH4 0xB5AD9215 EQ PUSH2 0x1327 JUMPI DUP1 PUSH4 0xBADBC2ED EQ PUSH2 0xE4E JUMPI DUP1 PUSH4 0xCB1BB033 EQ PUSH2 0xE1D JUMPI DUP1 PUSH4 0xD5444336 EQ PUSH2 0xD66 JUMPI DUP1 PUSH4 0xD54BB70B EQ PUSH2 0xC40 JUMPI DUP1 PUSH4 0xD55D533E EQ PUSH2 0x962 JUMPI DUP1 PUSH4 0xD90292A3 EQ PUSH2 0x946 JUMPI DUP1 PUSH4 0xDB5BD601 EQ PUSH2 0x4BA JUMPI DUP1 PUSH4 0xEF3A2B39 EQ PUSH2 0x489 JUMPI DUP1 PUSH4 0xF025D082 EQ PUSH2 0x390 JUMPI DUP1 PUSH4 0xF58789AE EQ PUSH2 0x34B JUMPI DUP1 PUSH4 0xF9058741 EQ PUSH2 0x32D JUMPI PUSH4 0xFB9607D3 EQ PUSH2 0x250 JUMPI PUSH1 0x0 DUP1 REVERT JUMPDEST CALLVALUE PUSH2 0x328 JUMPI PUSH1 0x0 CALLDATASIZE PUSH1 0x3 NOT ADD SLT PUSH2 0x328 JUMPI CALLER PUSH1 0x0 MSTORE PUSH1 0x12 PUSH1 0x20 MSTORE PUSH1 0xFF PUSH1 0x2 PUSH1 0x40 PUSH1 0x0 KECCAK256 ADD SLOAD AND ISZERO PUSH2 0x27D JUMPI STOP JUMPDEST PUSH1 0x40 MLOAD PUSH1 0x60 DUP2 ADD DUP2 DUP2 LT PUSH1 0x1 PUSH1 0x1 PUSH1 0x40 SHL SUB DUP3 GT OR PUSH2 0x312 JUMPI PUSH1 0x40 MSTORE PUSH2 0x2E4 PUSH2 0x2710 SWAP2 DUP3 DUP2 MSTORE PUSH1 0x2 PUSH1 0x20 DUP3 ADD PUSH1 0x0 DUP2 MSTORE PUSH1 0x40 DUP4 ADD SWAP1 PUSH1 0x1 DUP3 MSTORE CALLER PUSH1 0x0 MSTORE PUSH1 0x12 PUSH1 0x20 MSTORE PUSH1 0x40 PUSH1 0x0 KECCAK256 SWAP4 MLOAD DUP5 SSTORE MLOAD PUSH1 0x1 DUP5 ADD SSTORE MLOAD ISZERO ISZERO SWAP2 ADD SWAP1 PUSH1 0xFF DUP1 NOT DUP4 SLOAD AND SWAP2 ISZERO ISZERO AND OR SWAP1 SSTORE JUMP JUMPDEST PUSH1 0x40 MLOAD SWAP1 DUP2 MSTORE PUSH32 0x840108F8F5F45D25A166719FA7440C37016845A955726B639E64FB325F731007 PUSH1 0x20 CALLER SWAP3 LOG2 STOP JUMPDEST PUSH4 0x4E487B71 PUSH1 0xE0 SHL PUSH1 0x0 MSTORE PUSH1 0x41 PUSH1 0x4 MSTORE PUSH1 0x24 PUSH1 0x0 REVERT JUMPDEST PUSH1 0x0 DUP1 REVERT JUMPDEST CALLVALUE PUSH2 0x328 JUMPI PUSH1 0x0 CALLDATASIZE PUSH1 0x3 NOT ADD SLT PUSH2 0x328 JUMPI PUSH1 0x20 PUSH1 0x1 SLOAD PUSH1 0x40 MLOAD SWAP1 DUP2 MSTORE RETURN JUMPDEST CALLVALUE PUSH2 0x328 JUMPI PUSH1 0x0 CALLDATASIZE PUSH1 0x3 NOT ADD SLT PUSH2 0x328 JUMPI PUSH1 0x40 MLOAD PUSH32 0x0 PUSH1 0x1 PUSH1 0x1 PUSH1 0xA0 SHL SUB AND DUP2 MSTORE PUSH1 0x20 SWAP1 RETURN JUMPDEST CALLVALUE PUSH2 0x328 JUMPI PUSH1 0x20 CALLDATASIZE PUSH1 0x3 NOT ADD SLT PUSH2 0x328 JUMPI PUSH1 0x4 CALLDATALOAD PUSH1 0x0 MSTORE PUSH1 0x3 PUSH1 0x20 MSTORE PUSH1 0x40 PUSH1 0x0 KECCAK256 DUP1 SLOAD PUSH1 0x1 DUP3 ADD PUSH2 0x3C0 SWAP1 PUSH2 0x3119 JUMP JUMPDEST SWAP2 PUSH2 0x3CD PUSH1 0x2 DUP3 ADD PUSH2 0x3119 JUMP JUMPDEST PUSH1 0x1 PUSH1 0xA0 SHL PUSH1 0x1 SWAP1 SUB PUSH1 0x3 DUP4 ADD SLOAD AND SWAP2 PUSH1 0x4 DUP2 ADD SLOAD PUSH1 0x5 DUP3 ADD SLOAD PUSH1 0x6 DUP4 ADD SLOAD PUSH1 0x7 DUP5 ADD SLOAD PUSH1 0x8 DUP6 ADD SLOAD SWAP1 PUSH1 0x9 DUP7 ADD SLOAD SWAP3 PUSH1 0xA DUP8 ADD SLOAD SWAP5 PUSH1 0xB DUP9 ADD SLOAD SWAP7 PUSH1 0xC DUP10 ADD SLOAD SWAP9 PUSH1 0xD ADD SLOAD PUSH1 0xFF AND SWAP10 PUSH1 0x40 MLOAD SWAP14 DUP15 SWAP14 DUP15 PUSH2 0x1C0 SWAP2 DUP2 MSTORE DUP2 PUSH1 0x20 DUP3 ADD MSTORE ADD PUSH2 0x434 SWAP2 PUSH2 0x2F8E JUMP JUMPDEST DUP14 DUP2 SUB PUSH1 0x40 DUP16 ADD MSTORE PUSH2 0x445 SWAP2 PUSH2 0x2F8E JUMP JUMPDEST SWAP11 PUSH1 0x60 DUP14 ADD MSTORE PUSH1 0x80 DUP13 ADD MSTORE PUSH1 0xA0 DUP12 ADD MSTORE PUSH1 0xC0 DUP11 ADD MSTORE PUSH1 0xE0 DUP10 ADD MSTORE PUSH2 0x100 DUP9 ADD MSTORE PUSH2 0x120 DUP8 ADD MSTORE PUSH2 0x140 DUP7 ADD MSTORE PUSH2 0x160 DUP6 ADD MSTORE PUSH2 0x180 DUP5 ADD MSTORE ISZERO ISZERO PUSH2 0x1A0 DUP4 ADD MSTORE SUB SWAP1 RETURN JUMPDEST CALLVALUE PUSH2 0x328 JUMPI PUSH1 0x20 CALLDATASIZE PUSH1 0x3 NOT ADD SLT PUSH2 0x328 JUMPI PUSH1 0x4 CALLDATALOAD PUSH1 0x0 MSTORE PUSH1 0xE PUSH1 0x20 MSTORE PUSH1 0x20 PUSH1 0xFF PUSH1 0x40 PUSH1 0x0 KECCAK256 SLOAD AND PUSH1 0x40 MLOAD SWAP1 ISZERO ISZERO DUP2 MSTORE RETURN JUMPDEST CALLVALUE PUSH2 0x328 JUMPI PUSH2 0x4C8 CALLDATASIZE PUSH2 0x2FFB JUMP JUMPDEST SWAP3 SWAP5 DUP3 PUSH1 0x0 SWAP8 SWAP6 SWAP8 SWAP4 SWAP3 SWAP4 MSTORE PUSH1 0xE PUSH1 0x20 MSTORE PUSH1 0xFF PUSH1 0x40 PUSH1 0x0 KECCAK256 SLOAD AND ISZERO PUSH2 0x934 JUMPI PUSH2 0x4F2 PUSH1 0x2 SLOAD PUSH2 0x31F9 JUMP JUMPDEST SWAP6 DUP7 PUSH1 0x2 SSTORE PUSH2 0x501 DUP5 TIMESTAMP PUSH2 0x31EC JUMP JUMPDEST PUSH2 0x514 DUP7 PUSH2 0x50F DUP8 TIMESTAMP PUSH2 0x31EC JUMP JUMPDEST PUSH2 0x31EC JUMP JUMPDEST SWAP2 PUSH1 0x40 MLOAD SWAP10 DUP11 PUSH2 0x1E0 DUP2 ADD LT PUSH1 0x1 PUSH1 0x1 PUSH1 0x40 SHL SUB PUSH2 0x1E0 DUP14 ADD GT OR PUSH2 0x312 JUMPI PUSH2 0x559 SWAP2 PUSH2 0x1E0 DUP13 ADD PUSH1 0x40 MSTORE DUP11 DUP13 MSTORE PUSH2 0x54D CALLDATASIZE DUP8 DUP13 PUSH2 0x3411 JUMP JUMPDEST PUSH1 0x20 DUP14 ADD MSTORE CALLDATASIZE SWAP2 PUSH2 0x3411 JUMP JUMPDEST PUSH1 0x40 DUP11 ADD MSTORE CALLER PUSH1 0x60 DUP11 ADD MSTORE TIMESTAMP PUSH1 0x80 DUP11 ADD MSTORE PUSH1 0xA0 DUP10 ADD MSTORE PUSH1 0xC0 DUP9 ADD MSTORE DUP2 PUSH1 0xE0 DUP9 ADD MSTORE PUSH1 0x0 PUSH2 0x100 DUP9 ADD MSTORE PUSH1 0x0 PUSH2 0x120 DUP9 ADD MSTORE PUSH1 0x0 PUSH2 0x140 DUP9 ADD MSTORE PUSH1 0x0 PUSH2 0x160 DUP9 ADD MSTORE PUSH1 0x0 PUSH2 0x180 DUP9 ADD MSTORE PUSH1 0x0 PUSH2 0x1A0 DUP9 ADD MSTORE PUSH1 0x1 PUSH2 0x1C0 DUP9 ADD MSTORE DUP6 PUSH1 0x0 MSTORE PUSH1 0xB PUSH1 0x20 MSTORE PUSH1 0x40 PUSH1 0x0 KECCAK256 SWAP3 DUP8 MLOAD DUP5 SSTORE PUSH1 0x20 DUP9 ADD MLOAD DUP1 MLOAD SWAP1 PUSH1 0x1 PUSH1 0x1 PUSH1 0x40 SHL SUB DUP3 GT PUSH2 0x312 JUMPI DUP2 SWAP1 PUSH2 0x5EA PUSH1 0x1 DUP9 ADD SLOAD PUSH2 0x3051 JUMP JUMPDEST PUSH1 0x1F DUP2 GT PUSH2 0x8FF JUMPI JUMPDEST POP PUSH1 0x20 SWAP1 PUSH1 0x1F DUP4 GT PUSH1 0x1 EQ PUSH2 0x88D JUMPI PUSH1 0x0 SWAP3 PUSH2 0x882 JUMPI JUMPDEST POP POP DUP2 PUSH1 0x1 SHL SWAP2 PUSH1 0x0 NOT SWAP1 PUSH1 0x3 SHL SHR NOT AND OR PUSH1 0x1 DUP6 ADD SSTORE JUMPDEST PUSH1 0x40 DUP9 ADD MLOAD SWAP4 DUP5 MLOAD SWAP9 PUSH1 0x1 PUSH1 0x1 PUSH1 0x40 SHL SUB DUP11 GT PUSH2 0x312 JUMPI PUSH1 0x20 SWAP10 DUP10 SWAP7 PUSH2 0x64B PUSH1 0x2 DUP6 ADD SLOAD PUSH2 0x3051 JUMP JUMPDEST PUSH1 0x1F DUP2 GT PUSH2 0x844 JUMPI JUMPDEST POP DUP12 SWAP1 PUSH1 0x1F DUP4 GT PUSH1 0x1 EQ PUSH2 0x79B JUMPI SWAP4 PUSH1 0xE PUSH2 0x1C0 PUSH2 0x776 SWAP6 DUP6 PUSH32 0x4742CE2D5F823DBDE60D41925BFF9B938299879EBA7F67FA0029C8633D92B654 SWAP13 SWAP14 SWAP7 PUSH2 0x762 SWAP7 PUSH2 0x785 SWAP12 SWAP11 PUSH1 0x0 SWAP3 PUSH2 0x790 JUMPI JUMPDEST POP POP DUP2 PUSH1 0x1 SHL SWAP2 PUSH1 0x0 NOT SWAP1 PUSH1 0x3 SHL SHR NOT AND OR PUSH1 0x2 DUP6 ADD SSTORE JUMPDEST PUSH1 0x3 DUP5 ADD PUSH1 0x1 DUP1 PUSH1 0xA0 SHL SUB PUSH1 0x60 DUP4 ADD MLOAD AND PUSH12 0xFFFFFFFFFFFFFFFFFFFFFFFF PUSH1 0xA0 SHL DUP3 SLOAD AND OR SWAP1 SSTORE PUSH1 0x80 DUP2 ADD MLOAD PUSH1 0x4 DUP6 ADD SSTORE PUSH1 0xA0 DUP2 ADD MLOAD PUSH1 0x5 DUP6 ADD SSTORE PUSH1 0xC0 DUP2 ADD MLOAD PUSH1 0x6 DUP6 ADD SSTORE PUSH1 0xE0 DUP2 ADD MLOAD PUSH1 0x7 DUP6 ADD SSTORE PUSH2 0x100 DUP2 ADD MLOAD PUSH1 0x8 DUP6 ADD SSTORE PUSH2 0x120 DUP2 ADD MLOAD PUSH1 0x9 DUP6 ADD SSTORE PUSH2 0x140 DUP2 ADD MLOAD PUSH1 0xA DUP6 ADD SSTORE PUSH2 0x160 DUP2 ADD MLOAD PUSH1 0xB DUP6 ADD SSTORE PUSH2 0x180 DUP2 ADD MLOAD PUSH1 0xC DUP6 ADD SSTORE PUSH2 0x1A0 DUP2 ADD MLOAD PUSH1 0xD DUP6 ADD SSTORE ADD MLOAD ISZERO ISZERO SWAP2 ADD SWAP1 PUSH1 0xFF DUP1 NOT DUP4 SLOAD AND SWAP2 ISZERO ISZERO AND OR SWAP1 SSTORE JUMP JUMPDEST PUSH2 0x50F PUSH2 0x76F DUP5 TIMESTAMP PUSH2 0x31EC JUMP JUMPDEST SWAP4 TIMESTAMP PUSH2 0x31EC JUMP JUMPDEST SWAP1 PUSH1 0x40 MLOAD SWAP5 DUP6 SWAP5 CALLER SWAP10 DUP7 PUSH2 0x346E JUMP JUMPDEST SUB SWAP1 LOG3 PUSH1 0x40 MLOAD SWAP1 DUP2 MSTORE RETURN JUMPDEST ADD MLOAD SWAP1 POP CODESIZE DUP1 PUSH2 0x6A2 JUMP JUMPDEST PUSH1 0x2 DUP6 SWAP5 SWAP4 SWAP3 SWAP11 SWAP6 ADD PUSH1 0x0 MSTORE DUP13 PUSH1 0x0 KECCAK256 SWAP1 PUSH1 0x0 JUMPDEST PUSH1 0x1F NOT DUP5 AND DUP2 LT PUSH2 0x82A JUMPI POP PUSH2 0x1C0 PUSH2 0x785 SWAP8 SWAP7 SWAP5 PUSH1 0x1 DUP6 PUSH2 0x776 SWAP9 SWAP6 PUSH32 0x4742CE2D5F823DBDE60D41925BFF9B938299879EBA7F67FA0029C8633D92B654 SWAP15 SWAP16 PUSH1 0xE SWAP7 PUSH2 0x762 SWAP10 PUSH1 0x1F NOT DUP2 AND LT PUSH2 0x811 JUMPI JUMPDEST POP POP POP DUP2 SHL ADD PUSH1 0x2 DUP6 ADD SSTORE PUSH2 0x6BA JUMP JUMPDEST ADD MLOAD PUSH1 0x0 NOT PUSH1 0xF8 DUP5 PUSH1 0x3 SHL AND SHR NOT AND SWAP1 SSTORE CODESIZE DUP1 DUP1 PUSH2 0x801 JUMP JUMPDEST DUP2 DUP13 ADD MLOAD DUP4 SSTORE SWAP11 DUP15 ADD SWAP11 DUP14 SWAP11 POP PUSH1 0x1 SWAP1 SWAP3 ADD SWAP2 DUP15 ADD PUSH2 0x7AF JUMP JUMPDEST PUSH2 0x872 SWAP1 PUSH1 0x2 DUP7 ADD PUSH1 0x0 MSTORE DUP14 PUSH1 0x0 KECCAK256 PUSH1 0x1F DUP6 ADD PUSH1 0x5 SHR DUP2 ADD SWAP2 DUP16 DUP7 LT PUSH2 0x878 JUMPI JUMPDEST PUSH1 0x1F ADD PUSH1 0x5 SHR ADD SWAP1 PUSH2 0x3457 JUMP JUMPDEST DUP13 PUSH2 0x654 JUMP JUMPDEST SWAP1 SWAP2 POP DUP2 SWAP1 PUSH2 0x865 JUMP JUMPDEST ADD MLOAD SWAP1 POP DUP11 DUP1 PUSH2 0x60A JUMP JUMPDEST SWAP3 POP PUSH1 0x1 DUP8 ADD PUSH1 0x0 MSTORE PUSH1 0x20 PUSH1 0x0 KECCAK256 SWAP1 PUSH1 0x0 SWAP4 JUMPDEST PUSH1 0x1F NOT DUP5 AND DUP6 LT PUSH2 0x8E4 JUMPI PUSH1 0x1 SWAP5 POP DUP4 PUSH1 0x1F NOT DUP2 AND LT PUSH2 0x8CB JUMPI JUMPDEST POP POP POP DUP2 SHL ADD PUSH1 0x1 DUP6 ADD SSTORE PUSH2 0x622 JUMP JUMPDEST ADD MLOAD PUSH1 0x0 NOT PUSH1 0xF8 DUP5 PUSH1 0x3 SHL AND SHR NOT AND SWAP1 SSTORE DUP11 DUP1 DUP1 PUSH2 0x8BB JUMP JUMPDEST DUP2 DUP2 ADD MLOAD DUP4 SSTORE PUSH1 0x20 SWAP5 DUP6 ADD SWAP5 PUSH1 0x1 SWAP1 SWAP4 ADD SWAP3 SWAP1 SWAP2 ADD SWAP1 PUSH2 0x8A0 JUMP JUMPDEST PUSH2 0x92E SWAP1 PUSH1 0x1 DUP10 ADD PUSH1 0x0 MSTORE PUSH1 0x20 PUSH1 0x0 KECCAK256 PUSH1 0x1F DUP6 ADD PUSH1 0x5 SHR DUP2 ADD SWAP2 PUSH1 0x20 DUP7 LT PUSH2 0x878 JUMPI PUSH1 0x1F ADD PUSH1 0x5 SHR ADD SWAP1 PUSH2 0x3457 JUMP JUMPDEST DUP12 PUSH2 0x5F3 JUMP JUMPDEST PUSH1 0x40 MLOAD PUSH4 0x33981055 PUSH1 0xE0 SHL DUP2 MSTORE PUSH1 0x4 SWAP1 REVERT JUMPDEST CALLVALUE PUSH2 0x328 JUMPI PUSH1 0x0 CALLDATASIZE PUSH1 0x3 NOT ADD SLT PUSH2 0x328 JUMPI PUSH1 0x20 PUSH1 0x40 MLOAD PUSH1 0x2 DUP2 MSTORE RETURN JUMPDEST CALLVALUE PUSH2 0x328 JUMPI PUSH1 0xA0 CALLDATASIZE PUSH1 0x3 NOT ADD SLT PUSH2 0x328 JUMPI PUSH1 0x4 CALLDATALOAD PUSH1 0x24 CALLDATALOAD SWAP1 PUSH1 0x44 CALLDATALOAD PUSH1 0x64 CALLDATALOAD DUP3 PUSH1 0x0 MSTORE PUSH1 0x20 SWAP2 PUSH1 0xB DUP4 MSTORE PUSH1 0x40 PUSH1 0x0 KECCAK256 SWAP3 PUSH1 0xC DUP2 MSTORE PUSH1 0x40 PUSH1 0x0 KECCAK256 DUP7 PUSH1 0x0 MSTORE DUP2 MSTORE PUSH1 0x40 PUSH1 0x0 KECCAK256 SWAP1 PUSH1 0xFF PUSH1 0xE DUP7 ADD SLOAD AND ISZERO PUSH2 0xC2E JUMPI PUSH1 0x5 DUP6 ADD SLOAD TIMESTAMP GT ISZERO PUSH2 0xC1C JUMPI PUSH1 0x6 DUP6 ADD SLOAD TIMESTAMP GT PUSH2 0xC1C JUMPI PUSH1 0xFF PUSH1 0x7 DUP4 ADD SLOAD AND ISZERO PUSH2 0xC0A JUMPI PUSH1 0x5 DUP3 ADD PUSH1 0xFF DUP2 SLOAD AND PUSH2 0xBF8 JUMPI PUSH1 0x2 DUP5 GT PUSH2 0xBE6 JUMPI PUSH1 0x40 MLOAD SWAP2 PUSH20 0x0 PUSH2 0xA0E DUP5 PUSH2 0x308B JUMP JUMPDEST DUP6 DUP5 MSTORE DUP7 DUP3 DUP6 ADD MSTORE PUSH1 0x1 DUP6 ADD SWAP4 DUP5 SLOAD PUSH1 0x40 DUP3 ADD MSTORE DUP10 PUSH1 0x60 DUP3 ADD MSTORE PUSH1 0x40 MLOAD SWAP1 DUP4 DUP3 DUP1 PUSH2 0xA47 PUSH4 0x21C27363 PUSH1 0xE2 SHL SWAP5 DUP6 DUP4 MSTORE PUSH1 0x4 DUP4 ADD PUSH2 0x31BE JUMP JUMPDEST SUB DUP2 DUP7 GAS DELEGATECALL SWAP1 DUP2 ISZERO PUSH2 0xBA7 JUMPI DUP5 SWAP3 PUSH1 0x0 SWAP3 PUSH2 0xBB3 JUMPI JUMPDEST POP SWAP3 PUSH2 0xA9B SWAP4 PUSH1 0x40 MLOAD SWAP3 PUSH2 0xA70 DUP5 PUSH2 0x308B JUMP JUMPDEST DUP4 MSTORE PUSH1 0x84 CALLDATALOAD DUP5 DUP5 ADD MSTORE PUSH1 0x0 PUSH1 0x40 DUP5 ADD MSTORE PUSH1 0x0 PUSH1 0x60 DUP5 ADD MSTORE PUSH1 0x40 MLOAD DUP1 SWAP6 DUP2 SWAP5 DUP3 SWAP4 DUP4 MSTORE PUSH1 0x4 DUP4 ADD PUSH2 0x31BE JUMP JUMPDEST SUB SWAP2 GAS DELEGATECALL SWAP2 DUP3 ISZERO PUSH2 0xBA7 JUMPI PUSH1 0x0 SWAP3 PUSH2 0xB79 JUMPI JUMPDEST POP POP DUP4 SLOAD SUB PUSH2 0xB67 JUMPI PUSH32 0x3C283986862AD16CC4D3240256474E99BFC9DF697A62F7351373CBDEFB3D14F8 SWAP6 DUP5 PUSH1 0x6 PUSH2 0xB38 SWAP6 PUSH1 0xD SWAP5 PUSH1 0x1 PUSH1 0xFF NOT DUP3 SLOAD AND OR SWAP1 SSTORE ADD SSTORE PUSH1 0x1 DUP6 EQ PUSH1 0x0 EQ PUSH2 0xB3D JUMPI PUSH1 0x8 DUP2 ADD PUSH2 0xB0A DUP8 DUP3 SLOAD PUSH2 0x31EC JUMP JUMPDEST SWAP1 SSTORE JUMPDEST ADD PUSH2 0xB18 DUP2 SLOAD PUSH2 0x31F9 JUMP JUMPDEST SWAP1 SSTORE SLOAD PUSH1 0x40 MLOAD SWAP4 DUP5 SWAP4 DUP5 PUSH1 0x40 SWAP2 SWAP5 SWAP4 SWAP3 PUSH1 0x60 DUP3 ADD SWAP6 DUP3 MSTORE PUSH1 0x20 DUP3 ADD MSTORE ADD MSTORE JUMP JUMPDEST SUB SWAP1 LOG3 STOP JUMPDEST DUP5 PUSH2 0xB58 JUMPI PUSH1 0x9 DUP2 ADD PUSH2 0xB51 DUP8 DUP3 SLOAD PUSH2 0x31EC JUMP JUMPDEST SWAP1 SSTORE PUSH2 0xB0D JUMP JUMPDEST PUSH1 0xA DUP2 ADD PUSH2 0xB51 DUP8 DUP3 SLOAD PUSH2 0x31EC JUMP JUMPDEST PUSH1 0x40 MLOAD PUSH4 0x9EA6D127 PUSH1 0xE0 SHL DUP2 MSTORE PUSH1 0x4 SWAP1 REVERT JUMPDEST SWAP1 DUP1 SWAP3 POP DUP2 RETURNDATASIZE DUP4 GT PUSH2 0xBA0 JUMPI JUMPDEST PUSH2 0xB90 DUP2 DUP4 PUSH2 0x30F8 JUMP JUMPDEST DUP2 ADD SUB SLT PUSH2 0x328 JUMPI MLOAD DUP10 DUP1 PUSH2 0xAAE JUMP JUMPDEST POP RETURNDATASIZE PUSH2 0xB86 JUMP JUMPDEST PUSH1 0x40 MLOAD RETURNDATASIZE PUSH1 0x0 DUP3 RETURNDATACOPY RETURNDATASIZE SWAP1 REVERT JUMPDEST DUP4 DUP2 SWAP5 SWAP3 SWAP4 POP RETURNDATASIZE DUP4 GT PUSH2 0xBDF JUMPI JUMPDEST PUSH2 0xBCB DUP2 DUP4 PUSH2 0x30F8 JUMP JUMPDEST DUP2 ADD SUB SLT PUSH2 0x328 JUMPI SWAP1 MLOAD DUP4 SWAP2 PUSH2 0xA9B PUSH2 0xA5D JUMP JUMPDEST POP RETURNDATASIZE PUSH2 0xBC1 JUMP JUMPDEST PUSH1 0x40 MLOAD PUSH4 0x9C454001 PUSH1 0xE0 SHL DUP2 MSTORE PUSH1 0x4 SWAP1 REVERT JUMPDEST PUSH1 0x40 MLOAD PUSH4 0xA89AC151 PUSH1 0xE0 SHL DUP2 MSTORE PUSH1 0x4 SWAP1 REVERT JUMPDEST PUSH1 0x40 MLOAD PUSH4 0x5B341569 PUSH1 0xE1 SHL DUP2 MSTORE PUSH1 0x4 SWAP1 REVERT JUMPDEST PUSH1 0x40 MLOAD PUSH4 0x74683D71 PUSH1 0xE0 SHL DUP2 MSTORE PUSH1 0x4 SWAP1 REVERT JUMPDEST PUSH1 0x40 MLOAD PUSH4 0x635E8737 PUSH1 0xE0 SHL DUP2 MSTORE PUSH1 0x4 SWAP1 REVERT JUMPDEST CALLVALUE PUSH2 0x328 JUMPI PUSH1 0x20 CALLDATASIZE PUSH1 0x3 NOT ADD SLT PUSH2 0x328 JUMPI PUSH1 0x4 CALLDATALOAD PUSH1 0x0 MSTORE PUSH1 0xB PUSH1 0x20 MSTORE PUSH1 0x40 PUSH1 0x0 KECCAK256 PUSH1 0xFF PUSH1 0xE DUP3 ADD SLOAD AND ISZERO PUSH2 0xC2E JUMPI PUSH1 0x5 DUP2 ADD SLOAD TIMESTAMP DUP2 LT PUSH2 0xD4B JUMPI PUSH1 0x0 SWAP1 JUMPDEST DUP3 SLOAD SWAP2 PUSH1 0x1 PUSH1 0xA0 SHL PUSH1 0x1 SWAP1 SUB PUSH1 0x3 DUP6 ADD SLOAD AND SWAP2 PUSH1 0x7 DUP6 ADD SLOAD SWAP1 PUSH1 0x6 DUP7 ADD SLOAD PUSH1 0x8 DUP8 ADD SLOAD PUSH1 0x9 DUP9 ADD SLOAD PUSH1 0xA DUP10 ADD SLOAD SWAP2 PUSH1 0xB DUP11 ADD SLOAD SWAP4 PUSH1 0xC DUP12 ADD SLOAD SWAP6 PUSH1 0xD DUP13 ADD SLOAD SWAP8 PUSH1 0x1 DUP14 ADD PUSH2 0xCCB SWAP1 PUSH2 0x3119 JUMP JUMPDEST SWAP13 PUSH1 0x2 ADD PUSH2 0xCD8 SWAP1 PUSH2 0x3119 JUMP JUMPDEST PUSH1 0x40 MLOAD SWAP14 DUP15 SWAP14 DUP15 PUSH2 0x1C0 SWAP2 DUP2 MSTORE DUP2 PUSH1 0x20 DUP3 ADD MSTORE ADD PUSH2 0xCF5 SWAP2 PUSH2 0x2F8E JUMP JUMPDEST DUP14 DUP2 SUB PUSH1 0x40 DUP16 ADD MSTORE PUSH2 0xD06 SWAP2 PUSH2 0x2F8E JUMP JUMPDEST SWAP11 PUSH1 0x60 DUP14 ADD MSTORE PUSH1 0x80 DUP13 ADD MSTORE PUSH1 0xA0 DUP12 ADD MSTORE PUSH1 0xC0 DUP11 ADD MSTORE PUSH1 0xE0 DUP10 ADD MSTORE PUSH2 0x100 DUP9 ADD MSTORE PUSH2 0x120 DUP8 ADD MSTORE PUSH2 0x140 DUP7 ADD MSTORE PUSH2 0x160 DUP6 ADD MSTORE PUSH2 0x180 DUP5 ADD MSTORE PUSH1 0xFF AND PUSH2 0x1A0 DUP4 ADD MSTORE SUB SWAP1 RETURN JUMPDEST PUSH1 0x6 DUP3 ADD SLOAD TIMESTAMP GT PUSH2 0xD5E JUMPI PUSH1 0x1 SWAP1 PUSH2 0xC7E JUMP JUMPDEST PUSH1 0x2 SWAP1 PUSH2 0xC7E JUMP JUMPDEST CALLVALUE PUSH2 0x328 JUMPI PUSH1 0x20 CALLDATASIZE PUSH1 0x3 NOT ADD SLT PUSH2 0x328 JUMPI PUSH1 0x4 CALLDATALOAD DUP1 PUSH1 0x0 MSTORE PUSH1 0xE PUSH1 0x20 MSTORE PUSH1 0x40 PUSH1 0x0 KECCAK256 PUSH1 0x1 PUSH1 0xFF NOT DUP3 SLOAD AND OR SWAP1 SSTORE PUSH1 0xF SLOAD PUSH1 0x1 PUSH1 0x40 SHL DUP2 LT ISZERO PUSH2 0x312 JUMPI PUSH1 0x1 DUP2 ADD DUP1 PUSH1 0xF SSTORE DUP2 LT ISZERO PUSH2 0xE07 JUMPI DUP2 SWAP1 PUSH1 0xF PUSH1 0x0 MSTORE PUSH32 0x8D1108E10BCB7C27DDDFC02ED9D693A074039D026CF4EA4240B40F7D581AC802 ADD SSTORE PUSH32 0xC437041ECA78E842FF32DC1036255A23DA98C52B2F3BD3A875923AADB0276B3D PUSH1 0x20 PUSH1 0x40 MLOAD TIMESTAMP DUP2 MSTORE LOG2 STOP JUMPDEST PUSH4 0x4E487B71 PUSH1 0xE0 SHL PUSH1 0x0 MSTORE PUSH1 0x32 PUSH1 0x4 MSTORE PUSH1 0x24 PUSH1 0x0 REVERT JUMPDEST CALLVALUE PUSH2 0x328 JUMPI PUSH1 0x20 CALLDATASIZE PUSH1 0x3 NOT ADD SLT PUSH2 0x328 JUMPI PUSH1 0x4 CALLDATALOAD PUSH1 0x0 MSTORE PUSH1 0x6 PUSH1 0x20 MSTORE PUSH1 0x20 PUSH1 0xFF PUSH1 0x40 PUSH1 0x0 KECCAK256 SLOAD AND PUSH1 0x40 MLOAD SWAP1 ISZERO ISZERO DUP2 MSTORE RETURN JUMPDEST CALLVALUE PUSH2 0x328 JUMPI PUSH2 0x1A0 CALLDATASIZE PUSH1 0x3 NOT ADD SLT PUSH2 0x328 JUMPI PUSH1 0x84 CALLDATALOAD PUSH1 0x4 CALLDATALOAD PUSH1 0x64 CALLDATALOAD PUSH1 0x44 CALLDATALOAD PUSH1 0x24 CALLDATALOAD CALLDATASIZE PUSH1 0xE4 GT PUSH2 0x328 JUMPI PUSH2 0x164 SWAP3 CALLDATASIZE DUP5 GT PUSH2 0x328 JUMPI PUSH2 0x1A4 SWAP1 CALLDATASIZE DUP3 GT PUSH2 0x328 JUMPI DUP6 PUSH1 0x0 MSTORE PUSH1 0x20 SWAP2 PUSH1 0xB DUP4 MSTORE PUSH1 0x40 PUSH1 0x0 KECCAK256 SWAP6 PUSH1 0xFF PUSH1 0xE DUP9 ADD SLOAD AND ISZERO PUSH2 0xC2E JUMPI PUSH1 0x5 DUP8 ADD SLOAD TIMESTAMP GT PUSH2 0x1315 JUMPI DUP8 PUSH1 0x0 MSTORE PUSH1 0xD DUP5 MSTORE PUSH1 0x40 PUSH1 0x0 KECCAK256 DUP10 PUSH1 0x0 MSTORE DUP5 MSTORE PUSH1 0xFF PUSH1 0x40 PUSH1 0x0 KECCAK256 SLOAD AND PUSH2 0x1303 JUMPI PUSH2 0xEE0 DUP7 DUP1 PUSH2 0x33D6 JUMP JUMPDEST DUP4 SUB PUSH2 0x12F1 JUMPI DUP4 PUSH1 0x40 MLOAD SWAP2 PUSH2 0xEF4 DUP4 PUSH2 0x30A6 JUMP JUMPDEST DUP11 DUP4 MSTORE DUP7 DUP3 DUP5 ADD MSTORE DUP10 PUSH1 0x40 DUP5 ADD MSTORE DUP5 PUSH1 0x60 DUP5 ADD MSTORE PUSH1 0x7 DUP10 ADD SLOAD PUSH1 0x80 DUP5 ADD MSTORE PUSH1 0x1 DUP1 PUSH1 0xA0 SHL SUB SWAP4 PUSH1 0x40 MLOAD SWAP4 DUP5 SWAP3 PUSH4 0x34BAEAB9 PUSH1 0xE0 SHL DUP5 MSTORE PUSH1 0x40 PUSH1 0xA4 PUSH1 0x4 DUP7 ADD CALLDATACOPY PUSH1 0xE4 PUSH1 0x0 PUSH1 0x44 DUP7 ADD JUMPDEST PUSH1 0x2 DUP3 LT PUSH2 0x12CC JUMPI POP POP POP SWAP1 PUSH1 0x40 PUSH2 0xF5E SWAP3 PUSH1 0xC4 DUP7 ADD CALLDATACOPY PUSH2 0x104 DUP5 ADD SWAP1 PUSH2 0x3220 JUMP JUMPDEST DUP2 DUP6 PUSH32 0x0 AND GAS STATICCALL SWAP1 DUP2 ISZERO PUSH2 0xBA7 JUMPI PUSH1 0x0 SWAP2 PUSH2 0x12AF JUMPI JUMPDEST POP ISZERO PUSH2 0x129D JUMPI PUSH8 0xDE0B6B3A7640000 SWAP1 DUP2 DUP4 MUL SWAP1 DUP4 DUP3 DIV DUP4 EQ DUP5 ISZERO OR ISZERO PUSH2 0x11DE JUMPI PUSH1 0x40 MLOAD PUSH4 0x70A08231 PUSH1 0xE0 SHL DUP2 MSTORE CALLER PUSH1 0x4 DUP3 ADD MSTORE SWAP2 PUSH32 0x0 DUP3 AND SWAP2 SWAP1 DUP7 DUP5 PUSH1 0x24 DUP2 DUP7 GAS STATICCALL SWAP4 DUP5 ISZERO PUSH2 0xBA7 JUMPI PUSH1 0x0 SWAP5 PUSH2 0x126E JUMPI JUMPDEST POP DUP1 DUP5 LT PUSH2 0x125C JUMPI PUSH1 0x0 DUP1 SLOAD PUSH1 0x40 MLOAD PUSH4 0x23B872DD PUSH1 0xE0 SHL DUP2 MSTORE CALLER PUSH1 0x4 DUP3 ADD MSTORE SWAP4 AND PUSH1 0x1 PUSH1 0x1 PUSH1 0xA0 SHL SUB AND PUSH1 0x24 DUP5 ADD MSTORE PUSH1 0x44 DUP4 ADD SWAP2 SWAP1 SWAP2 MSTORE SWAP1 SWAP2 DUP7 SWAP2 DUP4 SWAP2 SWAP1 DUP3 SWAP1 DUP2 PUSH1 0x64 DUP2 ADD SUB SWAP3 GAS CALL SWAP1 DUP2 ISZERO PUSH2 0xBA7 JUMPI PUSH1 0x0 SWAP2 PUSH2 0x122F JUMPI JUMPDEST POP ISZERO PUSH2 0x11F4 JUMPI DIV DUP2 DUP2 SUB SWAP1 DUP2 GT PUSH2 0x11DE JUMPI PUSH32 0xBCF4FA36949E1955AF2C6B6B628E50DB0E23EC473B26480F3A584DD5A5D8953B SWAP6 PUSH2 0x11A3 DUP10 PUSH1 0x7 DUP11 PUSH2 0xB38 SWAP8 PUSH1 0xB SWAP7 PUSH1 0x40 MLOAD SWAP1 DUP10 DUP3 MSTORE DUP3 DUP3 ADD MSTORE PUSH32 0x380F4B80AC5D183FF04F143A097611558815196006B7297CAE774C0B5680A5EE PUSH1 0x40 CALLER SWAP3 LOG2 DUP2 PUSH1 0x0 MSTORE PUSH1 0xD DUP2 MSTORE PUSH1 0x40 PUSH1 0x0 KECCAK256 DUP5 PUSH1 0x0 MSTORE DUP2 MSTORE PUSH1 0x40 PUSH1 0x0 KECCAK256 PUSH1 0x1 PUSH1 0xFF NOT DUP3 SLOAD AND OR SWAP1 SSTORE PUSH2 0x1187 PUSH1 0x40 MLOAD SWAP5 PUSH2 0x1101 DUP7 PUSH2 0x30C1 JUMP JUMPDEST DUP12 DUP7 MSTORE DUP3 DUP7 ADD DUP11 DUP2 MSTORE DUP14 PUSH1 0x40 DUP9 ADD SWAP1 DUP2 MSTORE PUSH1 0x60 DUP9 ADD SWAP1 DUP4 DUP3 MSTORE PUSH1 0x80 DUP10 ADD SWAP3 TIMESTAMP DUP5 MSTORE PUSH1 0xA0 DUP11 ADD SWAP5 PUSH1 0x0 DUP7 MSTORE PUSH1 0xC0 DUP12 ADD SWAP8 PUSH1 0x0 DUP10 MSTORE PUSH1 0xE0 DUP13 ADD SWAP10 PUSH1 0x1 DUP12 MSTORE PUSH1 0x0 MSTORE PUSH1 0xC DUP2 MSTORE PUSH1 0x40 PUSH1 0x0 KECCAK256 SWAP2 PUSH1 0x0 MSTORE MSTORE PUSH1 0x40 PUSH1 0x0 KECCAK256 SWAP10 MLOAD DUP11 SSTORE MLOAD PUSH1 0x1 DUP11 ADD SSTORE MLOAD PUSH1 0x2 DUP10 ADD SSTORE MLOAD PUSH1 0x3 DUP9 ADD SSTORE MLOAD PUSH1 0x4 DUP8 ADD SSTORE MLOAD ISZERO ISZERO PUSH1 0x5 DUP7 ADD SWAP1 PUSH1 0xFF DUP1 NOT DUP4 SLOAD AND SWAP2 ISZERO ISZERO AND OR SWAP1 SSTORE JUMP JUMPDEST MLOAD PUSH1 0x6 DUP5 ADD SSTORE MLOAD ISZERO ISZERO SWAP2 ADD SWAP1 PUSH1 0xFF DUP1 NOT DUP4 SLOAD AND SWAP2 ISZERO ISZERO AND OR SWAP1 SSTORE JUMP JUMPDEST PUSH1 0xC DUP2 ADD PUSH2 0x11B1 DUP2 SLOAD PUSH2 0x31F9 JUMP JUMPDEST SWAP1 SSTORE ADD PUSH2 0x11BF DUP3 DUP3 SLOAD PUSH2 0x31EC JUMP JUMPDEST SWAP1 SSTORE PUSH1 0x40 MLOAD SWAP4 DUP5 SWAP4 DUP5 PUSH1 0x40 SWAP2 SWAP5 SWAP4 SWAP3 PUSH1 0x60 DUP3 ADD SWAP6 DUP3 MSTORE PUSH1 0x20 DUP3 ADD MSTORE ADD MSTORE JUMP JUMPDEST PUSH4 0x4E487B71 PUSH1 0xE0 SHL PUSH1 0x0 MSTORE PUSH1 0x11 PUSH1 0x4 MSTORE PUSH1 0x24 PUSH1 0x0 REVERT JUMPDEST PUSH1 0x40 MLOAD PUSH3 0x461BCD PUSH1 0xE5 SHL DUP2 MSTORE PUSH1 0x4 DUP2 ADD DUP6 SWAP1 MSTORE PUSH1 0x13 PUSH1 0x24 DUP3 ADD MSTORE PUSH19 0x1513D3881D1C985B9CD9995C8819985A5B1959 PUSH1 0x6A SHL PUSH1 0x44 DUP3 ADD MSTORE PUSH1 0x64 SWAP1 REVERT JUMPDEST PUSH2 0x124F SWAP2 POP DUP6 RETURNDATASIZE DUP8 GT PUSH2 0x1255 JUMPI JUMPDEST PUSH2 0x1247 DUP2 DUP4 PUSH2 0x30F8 JUMP JUMPDEST DUP2 ADD SWAP1 PUSH2 0x3208 JUMP JUMPDEST DUP11 PUSH2 0x105C JUMP JUMPDEST POP RETURNDATASIZE PUSH2 0x123D JUMP JUMPDEST PUSH1 0x40 MLOAD PUSH4 0x43FB9453 PUSH1 0xE0 SHL DUP2 MSTORE PUSH1 0x4 SWAP1 REVERT JUMPDEST SWAP1 SWAP4 POP DUP7 DUP2 DUP2 RETURNDATASIZE DUP4 GT PUSH2 0x1296 JUMPI JUMPDEST PUSH2 0x1286 DUP2 DUP4 PUSH2 0x30F8 JUMP JUMPDEST DUP2 ADD SUB SLT PUSH2 0x328 JUMPI MLOAD SWAP3 DUP13 PUSH2 0x1004 JUMP JUMPDEST POP RETURNDATASIZE PUSH2 0x127C JUMP JUMPDEST PUSH1 0x40 MLOAD PUSH4 0x9BDE339 PUSH1 0xE0 SHL DUP2 MSTORE PUSH1 0x4 SWAP1 REVERT JUMPDEST PUSH2 0x12C6 SWAP2 POP DUP5 RETURNDATASIZE DUP7 GT PUSH2 0x1255 JUMPI PUSH2 0x1247 DUP2 DUP4 PUSH2 0x30F8 JUMP JUMPDEST DUP10 PUSH2 0xF93 JUMP JUMPDEST PUSH1 0x40 SWAP2 SWAP4 SWAP6 SWAP8 POP DUP3 SWAP5 SWAP7 POP DUP1 DUP3 PUSH1 0x1 SWAP5 DUP2 SWAP4 CALLDATACOPY ADD SWAP4 ADD SWAP2 ADD SWAP1 DUP10 SWAP6 SWAP4 SWAP2 DUP8 SWAP6 SWAP4 PUSH2 0xF3C JUMP JUMPDEST PUSH1 0x40 MLOAD PUSH4 0x15252A29 PUSH1 0xE2 SHL DUP2 MSTORE PUSH1 0x4 SWAP1 REVERT JUMPDEST PUSH1 0x40 MLOAD PUSH4 0x65695701 PUSH1 0xE1 SHL DUP2 MSTORE PUSH1 0x4 SWAP1 REVERT JUMPDEST PUSH1 0x40 MLOAD PUSH4 0xABFB7DC3 PUSH1 0xE0 SHL DUP2 MSTORE PUSH1 0x4 SWAP1 REVERT JUMPDEST CALLVALUE PUSH2 0x328 JUMPI PUSH1 0x20 CALLDATASIZE PUSH1 0x3 NOT ADD SLT PUSH2 0x328 JUMPI PUSH1 0x4 CALLDATALOAD PUSH1 0x7 SLOAD DUP2 LT ISZERO PUSH2 0x328 JUMPI PUSH1 0x20 SWAP1 PUSH1 0x7 PUSH1 0x0 MSTORE PUSH32 0xA66CC928B5EDB82AF9BD49922954155AB7B0942694BEA4CE44661D9A8736C688 ADD SLOAD PUSH1 0x40 MLOAD SWAP1 DUP2 MSTORE RETURN JUMPDEST CALLVALUE PUSH2 0x328 JUMPI PUSH1 0x0 CALLDATASIZE PUSH1 0x3 NOT ADD SLT PUSH2 0x328 JUMPI PUSH1 0x20 PUSH1 0x40 MLOAD PUSH1 0x0 DUP2 MSTORE RETURN JUMPDEST CALLVALUE PUSH2 0x328 JUMPI PUSH1 0x20 CALLDATASIZE PUSH1 0x3 NOT ADD SLT PUSH2 0x328 JUMPI PUSH1 0x4 CALLDATALOAD PUSH1 0x0 MSTORE PUSH1 0xB PUSH1 0x20 MSTORE PUSH1 0x40 PUSH1 0x0 KECCAK256 DUP1 SLOAD PUSH1 0x1 DUP3 ADD PUSH2 0x13C4 SWAP1 PUSH2 0x3119 JUMP JUMPDEST PUSH2 0x13D0 PUSH1 0x2 DUP5 ADD PUSH2 0x3119 JUMP JUMPDEST SWAP3 PUSH1 0x1 PUSH1 0xA0 SHL PUSH1 0x1 SWAP1 SUB PUSH1 0x3 DUP3 ADD SLOAD AND SWAP1 PUSH1 0x4 DUP2 ADD SLOAD PUSH1 0x5 DUP3 ADD SLOAD PUSH1 0x6 DUP4 ADD SLOAD PUSH1 0x7 DUP5 ADD SLOAD PUSH1 0x8 DUP6 ADD SLOAD PUSH1 0x9 DUP7 ADD SLOAD SWAP2 PUSH1 0xA DUP8 ADD SLOAD SWAP4 PUSH1 0xB DUP9 ADD SLOAD SWAP6 PUSH1 0xC DUP10 ADD SLOAD SWAP8 PUSH1 0xD DUP11 ADD SLOAD SWAP10 PUSH1 0xE ADD SLOAD PUSH1 0xFF AND SWAP11 PUSH1 0x40 MLOAD SWAP15 DUP16 SWAP15 DUP16 SWAP15 DUP16 SWAP2 PUSH2 0x1E0 SWAP1 DUP4 MSTORE DUP1 PUSH1 0x20 DUP5 ADD MSTORE DUP3 ADD PUSH2 0x1441 SWAP2 PUSH2 0x2F8E JUMP JUMPDEST SWAP1 DUP1 DUP3 SUB SWAP1 PUSH1 0x40 ADD MSTORE PUSH2 0x1453 SWAP2 PUSH2 0x2F8E JUMP JUMPDEST SWAP13 PUSH1 0x60 ADD MSTORE PUSH1 0x80 DUP14 ADD MSTORE PUSH1 0xA0 DUP13 ADD MSTORE PUSH1 0xC0 DUP12 ADD MSTORE PUSH1 0xE0 DUP11 ADD MSTORE PUSH2 0x100 DUP10 ADD MSTORE PUSH2 0x120 DUP9 ADD MSTORE PUSH2 0x140 DUP8 ADD MSTORE PUSH2 0x160 DUP7 ADD MSTORE PUSH2 0x180 DUP6 ADD MSTORE PUSH2 0x1A0 DUP5 ADD MSTORE ISZERO ISZERO PUSH2 0x1C0 DUP4 ADD MSTORE SUB SWAP1 RETURN JUMPDEST CALLVALUE PUSH2 0x328 JUMPI PUSH1 0x20 DUP1 PUSH1 0x3 NOT CALLDATASIZE ADD SLT PUSH2 0x328 JUMPI PUSH1 0x24 DUP2 PUSH2 0x14B9 PUSH2 0x2EED JUMP JUMPDEST PUSH1 0x40 MLOAD PUSH4 0x70A08231 PUSH1 0xE0 SHL DUP2 MSTORE PUSH1 0x1 PUSH1 0x1 PUSH1 0xA0 SHL SUB SWAP2 DUP3 AND PUSH1 0x4 DUP3 ADD MSTORE SWAP3 DUP4 SWAP2 DUP3 SWAP1 PUSH32 0x0 AND GAS STATICCALL SWAP1 DUP2 ISZERO PUSH2 0xBA7 JUMPI PUSH1 0x0 SWAP2 PUSH2 0x1521 JUMPI JUMPDEST POP PUSH8 0xDE0B6B3A7640000 PUSH1 0x40 MLOAD SWAP2 DIV DUP2 MSTORE RETURN JUMPDEST SWAP1 POP DUP2 DUP2 DUP2 RETURNDATASIZE DUP4 GT PUSH2 0x1547 JUMPI JUMPDEST PUSH2 0x1538 DUP2 DUP4 PUSH2 0x30F8 JUMP JUMPDEST DUP2 ADD SUB SLT PUSH2 0x328 JUMPI MLOAD DUP3 PUSH2 0x150E JUMP JUMPDEST POP RETURNDATASIZE PUSH2 0x152E JUMP JUMPDEST CALLVALUE PUSH2 0x328 JUMPI PUSH2 0x155C CALLDATASIZE PUSH2 0x2ED7 JUMP JUMPDEST DUP2 PUSH1 0x0 MSTORE PUSH1 0x3 SWAP2 PUSH1 0x20 PUSH1 0x3 PUSH1 0x20 MSTORE PUSH1 0x40 PUSH1 0x0 KECCAK256 PUSH1 0xFF PUSH1 0xD DUP3 ADD SLOAD AND ISZERO PUSH2 0xC2E JUMPI PUSH1 0x7 DUP5 SWAP2 ADD SSTORE DUP2 PUSH1 0x0 MSTORE PUSH1 0xA SWAP2 PUSH1 0xA PUSH1 0x20 MSTORE PUSH1 0x40 PUSH1 0x0 KECCAK256 DUP1 SLOAD PUSH1 0x0 DUP3 SSTORE DUP1 PUSH2 0x160D JUMPI JUMPDEST POP POP PUSH1 0x0 JUMPDEST PUSH1 0x8 SLOAD DUP2 LT ISZERO PUSH2 0x15DB JUMPI PUSH1 0x1 SWAP1 DUP3 PUSH1 0x0 MSTORE DUP5 DUP5 MSTORE PUSH2 0x15D5 PUSH1 0x40 PUSH1 0x0 KECCAK256 PUSH2 0x15C9 DUP4 PUSH2 0x2F03 JUMP JUMPDEST SWAP1 SLOAD SWAP1 DUP11 SHL SHR SWAP1 PUSH2 0x3290 JUMP JUMPDEST ADD PUSH2 0x15A4 JUMP JUMPDEST DUP5 DUP1 PUSH1 0x0 MSTORE PUSH1 0x6 PUSH1 0x20 MSTORE PUSH1 0x40 PUSH1 0x0 KECCAK256 SWAP1 DUP2 SLOAD SWAP2 PUSH1 0xFF DUP4 AND ISZERO PUSH2 0x15F9 JUMPI STOP JUMPDEST PUSH1 0x1 PUSH2 0x160B SWAP4 PUSH1 0xFF NOT AND OR SWAP1 SSTORE PUSH2 0x3248 JUMP JUMPDEST STOP JUMPDEST PUSH2 0x1622 SWAP2 PUSH1 0x0 MSTORE PUSH1 0x20 PUSH1 0x0 KECCAK256 SWAP1 DUP2 ADD SWAP1 PUSH2 0x3457 JUMP JUMPDEST DUP6 DUP1 PUSH2 0x159F JUMP JUMPDEST CALLVALUE PUSH2 0x328 JUMPI PUSH1 0x20 CALLDATASIZE PUSH1 0x3 NOT ADD SLT PUSH2 0x328 JUMPI PUSH1 0x4 CALLDATALOAD DUP1 PUSH1 0x0 MSTORE PUSH1 0x6 PUSH1 0x20 MSTORE PUSH1 0x40 PUSH1 0x0 KECCAK256 PUSH1 0x1 PUSH1 0xFF NOT DUP3 SLOAD AND OR SWAP1 SSTORE PUSH2 0x165F DUP2 PUSH2 0x3248 JUMP JUMPDEST PUSH32 0xCB23ED79D0D407699762F186152925A6B8DD62FC4B2223F50A16534AF8C883F8 PUSH1 0x20 PUSH1 0x40 MLOAD TIMESTAMP DUP2 MSTORE LOG2 STOP JUMPDEST CALLVALUE PUSH2 0x328 JUMPI PUSH1 0x20 CALLDATASIZE PUSH1 0x3 NOT ADD SLT PUSH2 0x328 JUMPI PUSH1 0x4 CALLDATALOAD PUSH1 0xF SLOAD DUP2 LT ISZERO PUSH2 0x328 JUMPI PUSH1 0x20 SWAP1 PUSH1 0xF PUSH1 0x0 MSTORE PUSH32 0x8D1108E10BCB7C27DDDFC02ED9D693A074039D026CF4EA4240B40F7D581AC802 ADD SLOAD PUSH1 0x40 MLOAD SWAP1 DUP2 MSTORE RETURN JUMPDEST CALLVALUE PUSH2 0x328 JUMPI PUSH1 0x0 CALLDATASIZE PUSH1 0x3 NOT ADD SLT PUSH2 0x328 JUMPI PUSH1 0x40 MLOAD DUP1 PUSH1 0x10 SLOAD SWAP2 DUP3 DUP2 MSTORE PUSH1 0x20 DUP1 SWAP2 ADD SWAP3 PUSH1 0x10 PUSH1 0x0 MSTORE PUSH32 0x1B6847DC741A1B0CD08D278845F9D819D87B734759AFB55FE2DE5CB82A9AE672 SWAP2 PUSH1 0x0 SWAP1 JUMPDEST DUP3 DUP3 LT PUSH2 0x1750 JUMPI PUSH2 0x174C DUP6 PUSH2 0x1740 DUP2 DUP10 SUB DUP3 PUSH2 0x30F8 JUMP JUMPDEST PUSH1 0x40 MLOAD SWAP2 DUP3 SWAP2 DUP3 PUSH2 0x2F52 JUMP JUMPDEST SUB SWAP1 RETURN JUMPDEST DUP4 SLOAD DUP7 MSTORE SWAP5 DUP6 ADD SWAP5 PUSH1 0x1 SWAP4 DUP5 ADD SWAP4 SWAP1 SWAP2 ADD SWAP1 PUSH2 0x1729 JUMP JUMPDEST CALLVALUE PUSH2 0x328 JUMPI PUSH1 0x20 CALLDATASIZE PUSH1 0x3 NOT ADD SLT PUSH2 0x328 JUMPI PUSH2 0x160B PUSH1 0x4 CALLDATALOAD PUSH2 0x34EA JUMP JUMPDEST CALLVALUE PUSH2 0x328 JUMPI PUSH1 0x20 CALLDATASIZE PUSH1 0x3 NOT ADD SLT PUSH2 0x328 JUMPI PUSH1 0x4 CALLDATALOAD PUSH1 0x10 SLOAD DUP2 LT ISZERO PUSH2 0x328 JUMPI PUSH1 0x20 SWAP1 PUSH1 0x10 PUSH1 0x0 MSTORE PUSH32 0x1B6847DC741A1B0CD08D278845F9D819D87B734759AFB55FE2DE5CB82A9AE672 ADD SLOAD PUSH1 0x40 MLOAD SWAP1 DUP2 MSTORE RETURN JUMPDEST CALLVALUE PUSH2 0x328 JUMPI PUSH1 0x0 CALLDATASIZE PUSH1 0x3 NOT ADD SLT PUSH2 0x328 JUMPI PUSH1 0x40 MLOAD PUSH32 0x0 PUSH1 0x1 PUSH1 0x1 PUSH1 0xA0 SHL SUB AND DUP2 MSTORE PUSH1 0x20 SWAP1 RETURN JUMPDEST CALLVALUE PUSH2 0x328 JUMPI PUSH1 0x0 CALLDATASIZE PUSH1 0x3 NOT ADD SLT PUSH2 0x328 JUMPI PUSH1 0x20 PUSH1 0x40 MLOAD PUSH1 0x1 DUP2 MSTORE RETURN JUMPDEST CALLVALUE PUSH2 0x328 JUMPI PUSH1 0x20 CALLDATASIZE PUSH1 0x3 NOT ADD SLT PUSH2 0x328 JUMPI PUSH1 0x20 PUSH2 0x1853 PUSH1 0x4 CALLDATALOAD PUSH2 0x34A9 JUMP JUMPDEST PUSH1 0xFF PUSH1 0x40 MLOAD SWAP2 AND DUP2 MSTORE RETURN JUMPDEST CALLVALUE PUSH2 0x328 JUMPI PUSH2 0x186C CALLDATASIZE PUSH2 0x2ED7 JUMP JUMPDEST SWAP1 PUSH1 0x0 MSTORE PUSH1 0xD PUSH1 0x20 MSTORE PUSH1 0x40 PUSH1 0x0 KECCAK256 SWAP1 PUSH1 0x0 MSTORE PUSH1 0x20 MSTORE PUSH1 0x20 PUSH1 0xFF PUSH1 0x40 PUSH1 0x0 KECCAK256 SLOAD AND PUSH1 0x40 MLOAD SWAP1 ISZERO ISZERO DUP2 MSTORE RETURN JUMPDEST CALLVALUE PUSH2 0x328 JUMPI PUSH1 0x0 CALLDATASIZE PUSH1 0x3 NOT ADD SLT PUSH2 0x328 JUMPI PUSH1 0x40 MLOAD PUSH32 0x0 PUSH1 0x1 PUSH1 0x1 PUSH1 0xA0 SHL SUB AND DUP2 MSTORE PUSH1 0x20 SWAP1 RETURN JUMPDEST CALLVALUE PUSH2 0x328 JUMPI PUSH1 0x20 CALLDATASIZE PUSH1 0x3 NOT ADD SLT PUSH2 0x328 JUMPI PUSH1 0x20 PUSH2 0x18FA PUSH1 0x4 CALLDATALOAD DUP1 PUSH2 0x33D6 JUMP JUMPDEST PUSH1 0x40 MLOAD SWAP1 DUP2 MSTORE RETURN JUMPDEST CALLVALUE PUSH2 0x328 JUMPI PUSH1 0x20 CALLDATASIZE PUSH1 0x3 NOT ADD SLT PUSH2 0x328 JUMPI PUSH1 0x4 CALLDATALOAD PUSH1 0x0 MSTORE PUSH1 0x9 PUSH1 0x20 MSTORE PUSH1 0x20 PUSH1 0xFF PUSH1 0x40 PUSH1 0x0 KECCAK256 SLOAD AND PUSH1 0x40 MLOAD SWAP1 ISZERO ISZERO DUP2 MSTORE RETURN JUMPDEST CALLVALUE PUSH2 0x328 JUMPI PUSH1 0x0 CALLDATASIZE PUSH1 0x3 NOT ADD SLT PUSH2 0x328 JUMPI PUSH1 0x20 PUSH1 0x40 MLOAD PUSH2 0x2710 DUP2 MSTORE RETURN JUMPDEST CALLVALUE PUSH2 0x328 JUMPI PUSH1 0x0 CALLDATASIZE PUSH1 0x3 NOT ADD SLT PUSH2 0x328 JUMPI PUSH1 0x0 SLOAD PUSH1 0x40 MLOAD PUSH1 0x1 PUSH1 0x1 PUSH1 0xA0 SHL SUB SWAP1 SWAP2 AND DUP2 MSTORE PUSH1 0x20 SWAP1 RETURN JUMPDEST CALLVALUE PUSH2 0x328 JUMPI PUSH2 0x1987 CALLDATASIZE PUSH2 0x2ED7 JUMP JUMPDEST SWAP1 PUSH1 0x0 MSTORE PUSH1 0x5 PUSH1 0x20 MSTORE PUSH1 0x40 PUSH1 0x0 KECCAK256 SWAP1 PUSH1 0x0 MSTORE PUSH1 0x20 MSTORE PUSH1 0x20 PUSH1 0xFF PUSH1 0x40 PUSH1 0x0 KECCAK256 SLOAD AND PUSH1 0x40 MLOAD SWAP1 ISZERO ISZERO DUP2 MSTORE RETURN JUMPDEST CALLVALUE PUSH2 0x328 JUMPI PUSH1 0x20 CALLDATASIZE PUSH1 0x3 NOT ADD SLT PUSH2 0x328 JUMPI PUSH1 0x4 CALLDATALOAD CALLER PUSH1 0x0 MSTORE PUSH1 0x12 PUSH1 0x20 MSTORE PUSH1 0x40 PUSH1 0x0 KECCAK256 PUSH1 0x2 DUP2 ADD PUSH1 0xFF DUP2 SLOAD AND ISZERO PUSH1 0x0 EQ PUSH2 0x1A2E JUMPI DUP3 DUP3 SSTORE PUSH1 0x0 PUSH1 0x1 DUP4 ADD SSTORE PUSH1 0x1 PUSH1 0xFF NOT DUP3 SLOAD AND OR SWAP1 SSTORE JUMPDEST SLOAD PUSH1 0x40 MLOAD SWAP2 DUP3 MSTORE PUSH1 0x20 DUP3 ADD MSTORE PUSH32 0xC8BC4842CF61A3F6CBF597029D937FDF158EF4959A9616594587A0FB8C6B8711 PUSH1 0x40 CALLER SWAP3 LOG2 STOP JUMPDEST POP PUSH2 0x1A3A DUP3 DUP3 SLOAD PUSH2 0x31EC JUMP JUMPDEST DUP2 SSTORE PUSH2 0x19FA JUMP JUMPDEST CALLVALUE PUSH2 0x328 JUMPI PUSH2 0x1A4F CALLDATASIZE PUSH2 0x2FFB JUMP JUMPDEST SWAP5 DUP3 PUSH1 0x0 SWAP8 SWAP4 SWAP3 SWAP8 MSTORE PUSH1 0x6 PUSH1 0x20 MSTORE PUSH1 0xFF PUSH1 0x40 PUSH1 0x0 KECCAK256 SLOAD AND ISZERO PUSH2 0x1E7E JUMPI PUSH2 0x1A76 PUSH1 0x1 SLOAD PUSH2 0x31F9 JUMP JUMPDEST SWAP4 DUP5 PUSH1 0x1 SSTORE PUSH2 0x1A85 DUP9 TIMESTAMP PUSH2 0x31EC JUMP JUMPDEST PUSH2 0x1A93 DUP9 PUSH2 0x50F DUP12 TIMESTAMP PUSH2 0x31EC JUMP JUMPDEST SWAP2 PUSH1 0x40 MLOAD SWAP8 DUP9 PUSH2 0x1C0 DUP2 ADD LT PUSH1 0x1 PUSH1 0x1 PUSH1 0x40 SHL SUB PUSH2 0x1C0 DUP12 ADD GT OR PUSH2 0x312 JUMPI PUSH2 0x1AD8 SWAP2 PUSH2 0x1C0 DUP11 ADD PUSH1 0x40 MSTORE DUP9 DUP11 MSTORE PUSH2 0x1ACC CALLDATASIZE DUP8 DUP11 PUSH2 0x3411 JUMP JUMPDEST PUSH1 0x20 DUP12 ADD MSTORE CALLDATASIZE SWAP2 PUSH2 0x3411 JUMP JUMPDEST PUSH1 0x40 DUP9 ADD MSTORE CALLER PUSH1 0x60 DUP9 ADD MSTORE TIMESTAMP PUSH1 0x80 DUP9 ADD MSTORE PUSH1 0xA0 DUP8 ADD MSTORE PUSH1 0xC0 DUP7 ADD MSTORE DUP2 PUSH1 0xE0 DUP7 ADD MSTORE PUSH1 0x0 PUSH2 0x100 DUP7 ADD MSTORE PUSH1 0x0 PUSH2 0x120 DUP7 ADD MSTORE PUSH1 0x0 PUSH2 0x140 DUP7 ADD MSTORE PUSH1 0x0 PUSH2 0x160 DUP7 ADD MSTORE PUSH1 0x0 PUSH2 0x180 DUP7 ADD MSTORE PUSH1 0x1 PUSH2 0x1A0 DUP7 ADD MSTORE DUP4 PUSH1 0x0 MSTORE PUSH1 0x3 PUSH1 0x20 MSTORE PUSH1 0x40 PUSH1 0x0 KECCAK256 SWAP6 DUP6 MLOAD DUP8 SSTORE PUSH1 0x20 DUP7 ADD MLOAD DUP1 MLOAD SWAP1 PUSH1 0x1 PUSH1 0x1 PUSH1 0x40 SHL SUB DUP3 GT PUSH2 0x312 JUMPI DUP2 SWAP1 PUSH2 0x1B61 PUSH1 0x1 DUP12 ADD SLOAD PUSH2 0x3051 JUMP JUMPDEST PUSH1 0x1F DUP2 GT PUSH2 0x1E49 JUMPI JUMPDEST POP PUSH1 0x20 SWAP1 PUSH1 0x1F DUP4 GT PUSH1 0x1 EQ PUSH2 0x1DD7 JUMPI PUSH1 0x0 SWAP3 PUSH2 0x1DCC JUMPI JUMPDEST POP POP DUP2 PUSH1 0x1 SHL SWAP2 PUSH1 0x0 NOT SWAP1 PUSH1 0x3 SHL SHR NOT AND OR PUSH1 0x1 DUP9 ADD SSTORE JUMPDEST PUSH1 0x40 DUP7 ADD MLOAD DUP1 MLOAD SWAP1 PUSH1 0x1 PUSH1 0x1 PUSH1 0x40 SHL SUB DUP3 GT PUSH2 0x312 JUMPI DUP2 SWAP1 PUSH2 0x1BBE PUSH1 0x2 DUP12 ADD SLOAD PUSH2 0x3051 JUMP JUMPDEST PUSH1 0x1F DUP2 GT PUSH2 0x1D97 JUMPI JUMPDEST POP PUSH1 0x20 SWAP1 PUSH1 0x1F DUP4 GT PUSH1 0x1 EQ PUSH2 0x1D25 JUMPI PUSH1 0x0 SWAP3 PUSH2 0x1D1A JUMPI JUMPDEST POP POP DUP2 PUSH1 0x1 SHL SWAP2 PUSH1 0x0 NOT SWAP1 PUSH1 0x3 SHL SHR NOT AND OR PUSH1 0x2 DUP9 ADD SSTORE JUMPDEST PUSH1 0x3 DUP8 ADD PUSH1 0x1 DUP1 PUSH1 0xA0 SHL SUB PUSH1 0x60 DUP9 ADD MLOAD AND PUSH12 0xFFFFFFFFFFFFFFFFFFFFFFFF PUSH1 0xA0 SHL DUP3 SLOAD AND OR SWAP1 SSTORE PUSH1 0x80 DUP7 ADD MLOAD PUSH1 0x4 DUP9 ADD SSTORE PUSH1 0xA0 DUP7 ADD MLOAD PUSH1 0x5 DUP9 ADD SSTORE PUSH1 0xC0 DUP7 ADD MLOAD PUSH1 0x6 DUP9 ADD SSTORE PUSH1 0xE0 DUP7 ADD MLOAD PUSH1 0x7 DUP9 ADD SSTORE PUSH2 0x1CA1 PUSH1 0x8 SWAP8 PUSH2 0x100 DUP9 ADD MLOAD PUSH1 0x8 DUP3 ADD SSTORE PUSH2 0x120 DUP9 ADD MLOAD PUSH1 0x9 DUP3 ADD SSTORE PUSH1 0xD PUSH2 0x1A0 PUSH1 0xA SWAP10 PUSH2 0x140 DUP2 ADD MLOAD PUSH1 0xA DUP6 ADD SSTORE PUSH2 0x160 DUP2 ADD MLOAD PUSH1 0xB DUP6 ADD SSTORE PUSH2 0x180 DUP2 ADD MLOAD PUSH1 0xC DUP6 ADD SSTORE ADD MLOAD ISZERO ISZERO SWAP2 ADD SWAP1 PUSH1 0xFF DUP1 NOT DUP4 SLOAD AND SWAP2 ISZERO ISZERO AND OR SWAP1 SSTORE JUMP JUMPDEST PUSH1 0x0 JUMPDEST DUP8 SLOAD DUP2 LT ISZERO PUSH2 0x1CDC JUMPI PUSH1 0x1 SWAP1 DUP7 PUSH1 0x0 MSTORE DUP8 PUSH1 0x20 MSTORE PUSH2 0x1CD6 PUSH1 0x40 PUSH1 0x0 KECCAK256 PUSH2 0x1CC9 DUP4 PUSH2 0x2F03 JUMP JUMPDEST SWAP1 SLOAD SWAP1 PUSH1 0x3 SHL SHR SWAP1 PUSH2 0x3290 JUMP JUMPDEST ADD PUSH2 0x1CA4 JUMP JUMPDEST POP PUSH1 0x20 SWAP6 POP SWAP2 PUSH32 0x16356EC948FE2183CECE6A7B111BEEF5BE873032E9698D3FBF0E0168D0FC91A8 SWAP2 PUSH2 0x785 DUP10 PUSH2 0x776 DUP9 SWAP7 PUSH2 0x50F PUSH2 0x76F DUP5 TIMESTAMP PUSH2 0x31EC JUMP JUMPDEST ADD MLOAD SWAP1 POP DUP11 DUP1 PUSH2 0x1BDE JUMP JUMPDEST SWAP3 POP PUSH1 0x2 DUP11 ADD PUSH1 0x0 MSTORE PUSH1 0x20 PUSH1 0x0 KECCAK256 SWAP1 PUSH1 0x0 SWAP4 JUMPDEST PUSH1 0x1F NOT DUP5 AND DUP6 LT PUSH2 0x1D7C JUMPI PUSH1 0x1 SWAP5 POP DUP4 PUSH1 0x1F NOT DUP2 AND LT PUSH2 0x1D63 JUMPI JUMPDEST POP POP POP DUP2 SHL ADD PUSH1 0x2 DUP9 ADD SSTORE PUSH2 0x1BF6 JUMP JUMPDEST ADD MLOAD PUSH1 0x0 NOT PUSH1 0xF8 DUP5 PUSH1 0x3 SHL AND SHR NOT AND SWAP1 SSTORE DUP11 DUP1 DUP1 PUSH2 0x1D53 JUMP JUMPDEST DUP2 DUP2 ADD MLOAD DUP4 SSTORE PUSH1 0x20 SWAP5 DUP6 ADD SWAP5 PUSH1 0x1 SWAP1 SWAP4 ADD SWAP3 SWAP1 SWAP2 ADD SWAP1 PUSH2 0x1D38 JUMP JUMPDEST PUSH2 0x1DC6 SWAP1 PUSH1 0x2 DUP13 ADD PUSH1 0x0 MSTORE PUSH1 0x20 PUSH1 0x0 KECCAK256 PUSH1 0x1F DUP6 ADD PUSH1 0x5 SHR DUP2 ADD SWAP2 PUSH1 0x20 DUP7 LT PUSH2 0x878 JUMPI PUSH1 0x1F ADD PUSH1 0x5 SHR ADD SWAP1 PUSH2 0x3457 JUMP JUMPDEST DUP12 PUSH2 0x1BC7 JUMP JUMPDEST ADD MLOAD SWAP1 POP DUP11 DUP1 PUSH2 0x1B81 JUMP JUMPDEST SWAP3 POP PUSH1 0x1 DUP11 ADD PUSH1 0x0 MSTORE PUSH1 0x20 PUSH1 0x0 KECCAK256 SWAP1 PUSH1 0x0 SWAP4 JUMPDEST PUSH1 0x1F NOT DUP5 AND DUP6 LT PUSH2 0x1E2E JUMPI PUSH1 0x1 SWAP5 POP DUP4 PUSH1 0x1F NOT DUP2 AND LT PUSH2 0x1E15 JUMPI JUMPDEST POP POP POP DUP2 SHL ADD PUSH1 0x1 DUP9 ADD SSTORE PUSH2 0x1B99 JUMP JUMPDEST ADD MLOAD PUSH1 0x0 NOT PUSH1 0xF8 DUP5 PUSH1 0x3 SHL AND SHR NOT AND SWAP1 SSTORE DUP11 DUP1 DUP1 PUSH2 0x1E05 JUMP JUMPDEST DUP2 DUP2 ADD MLOAD DUP4 SSTORE PUSH1 0x20 SWAP5 DUP6 ADD SWAP5 PUSH1 0x1 SWAP1 SWAP4 ADD SWAP3 SWAP1 SWAP2 ADD SWAP1 PUSH2 0x1DEA JUMP JUMPDEST PUSH2 0x1E78 SWAP1 PUSH1 0x1 DUP13 ADD PUSH1 0x0 MSTORE PUSH1 0x20 PUSH1 0x0 KECCAK256 PUSH1 0x1F DUP6 ADD PUSH1 0x5 SHR DUP2 ADD SWAP2 PUSH1 0x20 DUP7 LT PUSH2 0x878 JUMPI PUSH1 0x1F ADD PUSH1 0x5 SHR ADD SWAP1 PUSH2 0x3457 JUMP JUMPDEST DUP12 PUSH2 0x1B6A JUMP JUMPDEST PUSH1 0x40 MLOAD PUSH4 0x9DD854D3 PUSH1 0xE0 SHL DUP2 MSTORE PUSH1 0x4 SWAP1 REVERT JUMPDEST CALLVALUE PUSH2 0x328 JUMPI PUSH2 0x1E9E CALLDATASIZE PUSH2 0x2ED7 JUMP JUMPDEST SWAP1 PUSH1 0x0 MSTORE PUSH1 0x4 PUSH1 0x20 MSTORE PUSH1 0x40 PUSH1 0x0 KECCAK256 SWAP1 PUSH1 0x0 MSTORE PUSH1 0x20 MSTORE PUSH1 0xE0 PUSH1 0x40 PUSH1 0x0 KECCAK256 DUP1 SLOAD SWAP1 PUSH1 0x1 DUP2 ADD SLOAD SWAP1 PUSH1 0x2 DUP2 ADD SLOAD PUSH1 0x3 DUP3 ADD SLOAD PUSH1 0xFF PUSH1 0x4 DUP5 ADD SLOAD AND SWAP2 PUSH1 0xFF PUSH1 0x6 PUSH1 0x5 DUP7 ADD SLOAD SWAP6 ADD SLOAD AND SWAP5 PUSH1 0x40 MLOAD SWAP7 DUP8 MSTORE PUSH1 0x20 DUP8 ADD MSTORE PUSH1 0x40 DUP7 ADD MSTORE PUSH1 0x60 DUP6 ADD MSTORE ISZERO ISZERO PUSH1 0x80 DUP5 ADD MSTORE PUSH1 0xA0 DUP4 ADD MSTORE ISZERO ISZERO PUSH1 0xC0 DUP3 ADD MSTORE RETURN JUMPDEST CALLVALUE PUSH2 0x328 JUMPI PUSH1 0x80 CALLDATASIZE PUSH1 0x3 NOT ADD SLT PUSH2 0x328 JUMPI PUSH2 0x1F27 PUSH2 0x2EED JUMP JUMPDEST PUSH1 0x24 CALLDATALOAD PUSH1 0x1 PUSH1 0x1 PUSH1 0xA0 SHL SUB DUP2 AND SWAP2 SWAP1 DUP3 SWAP1 SUB PUSH2 0x328 JUMPI PUSH1 0x64 CALLDATALOAD PUSH1 0x1 PUSH1 0x1 PUSH1 0x40 SHL SUB DUP2 GT PUSH2 0x328 JUMPI PUSH2 0x1F5C SWAP1 CALLDATASIZE SWAP1 PUSH1 0x4 ADD PUSH2 0x2FCE JUMP JUMPDEST SWAP1 SWAP3 PUSH32 0x0 PUSH1 0x1 PUSH1 0x1 PUSH1 0xA0 SHL SUB AND CALLER SUB PUSH2 0x2671 JUMPI ADDRESS SUB PUSH2 0x263A JUMPI PUSH2 0x1C0 DUP4 DUP3 DUP2 ADD SUB SLT PUSH2 0x328 JUMPI PUSH2 0x1FB0 DUP2 DUP5 ADD PUSH1 0xC0 DUP6 ADD PUSH2 0x3391 JUMP JUMPDEST DUP2 DUP5 ADD PUSH2 0x11F DUP6 ADD SLT ISZERO PUSH2 0x328 JUMPI PUSH1 0x40 MLOAD SWAP2 PUSH2 0x1FCB DUP4 PUSH2 0x30DD JUMP JUMPDEST DUP3 DUP2 DUP7 ADD PUSH2 0x180 DUP8 ADD GT PUSH2 0x328 JUMPI PUSH2 0x100 DUP7 ADD SWAP1 JUMPDEST PUSH2 0x180 DUP8 ADD DUP3 LT PUSH2 0x261E JUMPI POP POP PUSH2 0x1FFD SWAP1 DUP6 ADD PUSH2 0x180 DUP7 ADD PUSH2 0x3391 JUMP JUMPDEST SWAP2 DUP5 CALLDATALOAD PUSH1 0x0 MSTORE PUSH1 0xB PUSH1 0x20 MSTORE PUSH1 0x40 PUSH1 0x0 KECCAK256 SWAP3 PUSH1 0xFF PUSH1 0xE DUP6 ADD SLOAD AND ISZERO PUSH2 0xC2E JUMPI PUSH1 0x5 DUP5 ADD SLOAD TIMESTAMP GT PUSH2 0x1315 JUMPI DUP6 CALLDATALOAD PUSH1 0x0 MSTORE PUSH1 0xD PUSH1 0x20 MSTORE PUSH1 0x40 PUSH1 0x0 KECCAK256 PUSH1 0x80 DUP8 ADD CALLDATALOAD PUSH1 0x0 MSTORE PUSH1 0x20 MSTORE PUSH1 0xFF PUSH1 0x40 PUSH1 0x0 KECCAK256 SLOAD AND PUSH2 0x1303 JUMPI PUSH1 0xA0 DUP7 ADD CALLDATALOAD PUSH1 0x0 MSTORE PUSH1 0xE PUSH1 0x20 MSTORE PUSH1 0xFF PUSH1 0x40 PUSH1 0x0 KECCAK256 SLOAD AND ISZERO PUSH2 0x934 JUMPI PUSH2 0x2076 PUSH1 0x40 DUP8 ADD CALLDATALOAD DUP1 PUSH2 0x33D6 JUMP JUMPDEST PUSH1 0x60 DUP8 ADD CALLDATALOAD SUB PUSH2 0x12F1 JUMPI PUSH1 0x60 DUP7 ADD CALLDATALOAD PUSH8 0xDE0B6B3A7640000 DUP1 DUP3 MUL DUP3 SWAP1 DIV EQ SWAP1 ISZERO OR ISZERO PUSH2 0x11DE JUMPI PUSH8 0xDE0B6B3A7640000 PUSH1 0x60 DUP8 ADD CALLDATALOAD MUL PUSH1 0x44 CALLDATALOAD LT PUSH2 0x25D9 JUMPI PUSH1 0x40 MLOAD SWAP2 PUSH2 0x20C1 DUP4 PUSH2 0x30A6 JUMP JUMPDEST PUSH1 0x80 DUP8 ADD CALLDATALOAD DUP4 MSTORE PUSH1 0x20 DUP8 ADD CALLDATALOAD PUSH1 0x20 DUP5 ADD MSTORE DUP7 CALLDATALOAD PUSH1 0x40 DUP5 ADD MSTORE PUSH1 0x60 DUP8 ADD CALLDATALOAD PUSH1 0x60 DUP5 ADD MSTORE PUSH1 0xA0 DUP8 ADD CALLDATALOAD PUSH1 0x80 DUP5 ADD MSTORE PUSH2 0x2108 PUSH1 0x40 MLOAD SWAP5 PUSH4 0x34BAEAB9 PUSH1 0xE0 SHL DUP7 MSTORE PUSH1 0x4 DUP7 ADD SWAP1 PUSH2 0x33E9 JUMP JUMPDEST PUSH1 0x0 PUSH1 0x44 DUP6 ADD JUMPDEST PUSH1 0x2 DUP3 LT PUSH2 0x25BB JUMPI POP POP POP SWAP1 PUSH2 0x212C PUSH2 0x2137 SWAP3 PUSH1 0xC4 DUP6 ADD SWAP1 PUSH2 0x33E9 JUMP JUMPDEST PUSH2 0x104 DUP4 ADD SWAP1 PUSH2 0x3220 JUMP JUMPDEST PUSH1 0x20 DUP2 PUSH2 0x1A4 DUP2 PUSH32 0x0 PUSH1 0x1 PUSH1 0x1 PUSH1 0xA0 SHL SUB AND GAS STATICCALL SWAP1 DUP2 ISZERO PUSH2 0xBA7 JUMPI PUSH1 0x0 SWAP2 PUSH2 0x259C JUMPI JUMPDEST POP ISZERO PUSH2 0x129D JUMPI PUSH1 0x40 MLOAD PUSH4 0x23B872DD PUSH1 0xE0 SHL DUP2 MSTORE PUSH1 0x1 PUSH1 0x1 PUSH1 0xA0 SHL SUB DUP4 AND PUSH1 0x4 DUP3 ADD MSTORE ADDRESS PUSH1 0x24 DUP3 ADD MSTORE PUSH1 0x60 DUP5 ADD CALLDATALOAD PUSH8 0xDE0B6B3A7640000 MUL PUSH1 0x44 DUP3 ADD MSTORE PUSH1 0x20 DUP2 DUP1 PUSH1 0x64 DUP2 ADD SUB DUP2 PUSH1 0x0 PUSH32 0x0 PUSH1 0x1 PUSH1 0x1 PUSH1 0xA0 SHL SUB AND GAS CALL SWAP1 DUP2 ISZERO PUSH2 0xBA7 JUMPI PUSH1 0x0 SWAP2 PUSH2 0x257D JUMPI JUMPDEST POP ISZERO PUSH2 0x2538 JUMPI PUSH1 0x0 DUP1 SLOAD PUSH1 0x40 MLOAD PUSH4 0xA9059CBB PUSH1 0xE0 SHL DUP2 MSTORE PUSH1 0x1 PUSH1 0x1 PUSH1 0xA0 SHL SUB SWAP2 DUP3 AND PUSH1 0x4 DUP3 ADD MSTORE PUSH1 0x60 DUP7 ADD CALLDATALOAD PUSH8 0xDE0B6B3A7640000 MUL PUSH1 0x24 DUP3 ADD MSTORE SWAP2 PUSH1 0x20 SWAP2 DUP4 SWAP2 PUSH1 0x44 SWAP2 DUP4 SWAP2 SWAP1 PUSH32 0x0 AND GAS CALL SWAP1 DUP2 ISZERO PUSH2 0xBA7 JUMPI PUSH1 0x0 SWAP2 PUSH2 0x2519 JUMPI JUMPDEST POP ISZERO PUSH2 0x24D4 JUMPI PUSH1 0x40 MLOAD PUSH4 0x70A08231 PUSH1 0xE0 SHL DUP2 MSTORE PUSH1 0x1 PUSH1 0x1 PUSH1 0xA0 SHL SUB SWAP3 DUP4 AND PUSH1 0x4 DUP3 ADD DUP2 SWAP1 MSTORE SWAP1 SWAP3 PUSH1 0x20 SWAP1 DUP5 SWAP1 PUSH1 0x24 SWAP1 DUP3 SWAP1 PUSH32 0x0 AND GAS STATICCALL SWAP3 DUP4 ISZERO PUSH2 0xBA7 JUMPI PUSH1 0x0 SWAP4 PUSH2 0x2480 JUMPI JUMPDEST POP PUSH32 0x380F4B80AC5D183FF04F143A097611558815196006B7297CAE774C0B5680A5EE PUSH1 0x40 PUSH1 0xB SWAP5 PUSH8 0xDE0B6B3A7640000 DUP3 MLOAD SWAP2 PUSH1 0x60 DUP10 ADD CALLDATALOAD DUP4 MSTORE DIV PUSH1 0x20 DUP3 ADD MSTORE LOG2 DUP3 CALLDATALOAD PUSH1 0x0 MSTORE PUSH1 0xD PUSH1 0x20 MSTORE PUSH1 0x40 PUSH1 0x0 KECCAK256 PUSH1 0x80 DUP5 ADD CALLDATALOAD PUSH1 0x0 MSTORE PUSH1 0x20 MSTORE PUSH1 0x40 PUSH1 0x0 KECCAK256 PUSH1 0x1 PUSH1 0xFF NOT DUP3 SLOAD AND OR SWAP1 SSTORE PUSH2 0x23F7 PUSH1 0x40 MLOAD PUSH2 0x2354 DUP2 PUSH2 0x30C1 JUMP JUMPDEST PUSH1 0x20 DUP6 ADD CALLDATALOAD DUP2 MSTORE PUSH1 0x7 PUSH1 0x20 DUP3 ADD PUSH1 0x60 DUP8 ADD CALLDATALOAD DUP2 MSTORE PUSH1 0x40 DUP4 ADD PUSH1 0x40 DUP9 ADD CALLDATALOAD DUP2 MSTORE PUSH2 0x1187 PUSH1 0x60 DUP6 ADD PUSH1 0x80 DUP11 ADD CALLDATALOAD DUP2 MSTORE PUSH1 0x80 DUP7 ADD TIMESTAMP DUP2 MSTORE PUSH1 0xA0 DUP8 ADD SWAP2 PUSH1 0x0 DUP4 MSTORE PUSH1 0xC0 DUP9 ADD SWAP5 PUSH1 0x0 DUP7 MSTORE PUSH1 0xE0 DUP10 ADD SWAP7 PUSH1 0x1 DUP9 MSTORE DUP14 CALLDATALOAD PUSH1 0x0 MSTORE PUSH1 0xC PUSH1 0x20 MSTORE DUP14 PUSH1 0x80 PUSH1 0x40 PUSH1 0x0 KECCAK256 SWAP2 ADD CALLDATALOAD PUSH1 0x0 MSTORE PUSH1 0x20 MSTORE PUSH1 0x40 PUSH1 0x0 KECCAK256 SWAP10 MLOAD DUP11 SSTORE MLOAD PUSH1 0x1 DUP11 ADD SSTORE MLOAD PUSH1 0x2 DUP10 ADD SSTORE MLOAD PUSH1 0x3 DUP9 ADD SSTORE MLOAD PUSH1 0x4 DUP8 ADD SSTORE MLOAD ISZERO ISZERO PUSH1 0x5 DUP7 ADD SWAP1 PUSH1 0xFF DUP1 NOT DUP4 SLOAD AND SWAP2 ISZERO ISZERO AND OR SWAP1 SSTORE JUMP JUMPDEST PUSH1 0xC DUP2 ADD PUSH2 0x2405 DUP2 SLOAD PUSH2 0x31F9 JUMP JUMPDEST SWAP1 SSTORE ADD PUSH2 0x2417 PUSH1 0x60 DUP4 ADD CALLDATALOAD DUP3 SLOAD PUSH2 0x31EC JUMP JUMPDEST SWAP1 SSTORE PUSH1 0x40 MLOAD SWAP1 PUSH32 0xBCF4FA36949E1955AF2C6B6B628E50DB0E23EC473B26480F3A584DD5A5D8953B PUSH1 0x80 DUP3 ADD CALLDATALOAD SWAP3 DUP1 PUSH2 0x2472 DUP5 CALLDATALOAD SWAP5 PUSH1 0x60 DUP2 ADD CALLDATALOAD SWAP1 PUSH1 0x20 PUSH1 0x40 DUP3 ADD CALLDATALOAD SWAP2 ADD CALLDATALOAD DUP5 PUSH1 0x40 SWAP2 SWAP5 SWAP4 SWAP3 PUSH1 0x60 DUP3 ADD SWAP6 DUP3 MSTORE PUSH1 0x20 DUP3 ADD MSTORE ADD MSTORE JUMP JUMPDEST SUB SWAP1 LOG3 PUSH1 0x20 PUSH1 0x40 MLOAD PUSH1 0x1 DUP2 MSTORE RETURN JUMPDEST SWAP3 POP PUSH1 0x20 DUP4 RETURNDATASIZE PUSH1 0x20 GT PUSH2 0x24CC JUMPI JUMPDEST DUP2 PUSH2 0x249B PUSH1 0x20 SWAP4 DUP4 PUSH2 0x30F8 JUMP JUMPDEST DUP2 ADD SUB SLT PUSH2 0x328 JUMPI SWAP2 MLOAD SWAP2 PUSH32 0x380F4B80AC5D183FF04F143A097611558815196006B7297CAE774C0B5680A5EE PUSH2 0x22DA JUMP JUMPDEST RETURNDATASIZE SWAP2 POP PUSH2 0x248E JUMP JUMPDEST PUSH1 0x40 MLOAD PUSH3 0x461BCD PUSH1 0xE5 SHL DUP2 MSTORE PUSH1 0x20 PUSH1 0x4 DUP3 ADD MSTORE PUSH1 0x1E PUSH1 0x24 DUP3 ADD MSTORE PUSH32 0x544F4E20666F727761726420746F207472656173757279206661696C65640000 PUSH1 0x44 DUP3 ADD MSTORE PUSH1 0x64 SWAP1 REVERT JUMPDEST PUSH2 0x2532 SWAP2 POP PUSH1 0x20 RETURNDATASIZE PUSH1 0x20 GT PUSH2 0x1255 JUMPI PUSH2 0x1247 DUP2 DUP4 PUSH2 0x30F8 JUMP JUMPDEST DUP5 PUSH2 0x2276 JUMP JUMPDEST PUSH1 0x40 MLOAD PUSH3 0x461BCD PUSH1 0xE5 SHL DUP2 MSTORE PUSH1 0x20 PUSH1 0x4 DUP3 ADD MSTORE PUSH1 0x1D PUSH1 0x24 DUP3 ADD MSTORE PUSH32 0x544F4E207472616E736665722066726F6D2075736572206661696C6564000000 PUSH1 0x44 DUP3 ADD MSTORE PUSH1 0x64 SWAP1 REVERT JUMPDEST PUSH2 0x2596 SWAP2 POP PUSH1 0x20 RETURNDATASIZE PUSH1 0x20 GT PUSH2 0x1255 JUMPI PUSH2 0x1247 DUP2 DUP4 PUSH2 0x30F8 JUMP JUMPDEST DUP5 PUSH2 0x21FC JUMP JUMPDEST PUSH2 0x25B5 SWAP2 POP PUSH1 0x20 RETURNDATASIZE PUSH1 0x20 GT PUSH2 0x1255 JUMPI PUSH2 0x1247 DUP2 DUP4 PUSH2 0x30F8 JUMP JUMPDEST DUP5 PUSH2 0x2179 JUMP JUMPDEST PUSH1 0x20 PUSH1 0x40 DUP3 PUSH2 0x25CD PUSH1 0x1 SWAP5 DUP8 MLOAD PUSH2 0x33E9 JUMP JUMPDEST ADD SWAP4 ADD SWAP2 ADD SWAP1 SWAP2 PUSH2 0x210F JUMP JUMPDEST PUSH1 0x40 MLOAD PUSH3 0x461BCD PUSH1 0xE5 SHL DUP2 MSTORE PUSH1 0x20 PUSH1 0x4 DUP3 ADD MSTORE PUSH1 0x1C PUSH1 0x24 DUP3 ADD MSTORE PUSH32 0x496E73756666696369656E7420617070726F76656420616D6F756E7400000000 PUSH1 0x44 DUP3 ADD MSTORE PUSH1 0x64 SWAP1 REVERT JUMPDEST PUSH1 0x20 PUSH1 0x40 SWAP2 PUSH2 0x262F DUP6 DUP11 ADD DUP6 PUSH2 0x3391 JUMP JUMPDEST DUP2 MSTORE ADD SWAP2 ADD SWAP1 PUSH2 0x1FE0 JUMP JUMPDEST PUSH1 0x40 MLOAD PUSH3 0x461BCD PUSH1 0xE5 SHL DUP2 MSTORE PUSH1 0x20 PUSH1 0x4 DUP3 ADD MSTORE PUSH1 0xF PUSH1 0x24 DUP3 ADD MSTORE PUSH15 0x24B73B30B634B21039B832B73232B9 PUSH1 0x89 SHL PUSH1 0x44 DUP3 ADD MSTORE PUSH1 0x64 SWAP1 REVERT JUMPDEST PUSH1 0x40 MLOAD PUSH3 0x461BCD PUSH1 0xE5 SHL DUP2 MSTORE PUSH1 0x20 PUSH1 0x4 DUP3 ADD MSTORE PUSH1 0x17 PUSH1 0x24 DUP3 ADD MSTORE PUSH32 0x4F6E6C7920544F4E20746F6B656E2063616E2063616C6C000000000000000000 PUSH1 0x44 DUP3 ADD MSTORE PUSH1 0x64 SWAP1 REVERT JUMPDEST CALLVALUE PUSH2 0x328 JUMPI PUSH1 0x20 CALLDATASIZE PUSH1 0x3 NOT ADD SLT PUSH2 0x328 JUMPI PUSH1 0x4 CALLDATALOAD PUSH1 0x0 MSTORE PUSH1 0x3 PUSH1 0x20 MSTORE PUSH1 0x40 PUSH1 0x0 KECCAK256 PUSH1 0xFF PUSH1 0xD DUP3 ADD SLOAD AND ISZERO PUSH2 0xC2E JUMPI PUSH1 0x5 DUP2 ADD SLOAD TIMESTAMP DUP2 LT PUSH2 0x27B7 JUMPI PUSH1 0x0 SWAP1 JUMPDEST DUP3 SLOAD SWAP2 PUSH1 0x1 PUSH1 0xA0 SHL PUSH1 0x1 SWAP1 SUB PUSH1 0x3 DUP6 ADD SLOAD AND SWAP2 PUSH1 0x7 DUP6 ADD SLOAD SWAP1 PUSH1 0x6 DUP7 ADD SLOAD PUSH1 0x8 DUP8 ADD SLOAD PUSH1 0x9 DUP9 ADD SLOAD SWAP1 PUSH1 0xA DUP10 ADD SLOAD SWAP3 PUSH1 0xB DUP11 ADD SLOAD SWAP5 PUSH1 0xC DUP12 ADD SLOAD SWAP7 PUSH1 0x1 DUP13 ADD PUSH2 0x273C SWAP1 PUSH2 0x3119 JUMP JUMPDEST SWAP12 PUSH1 0x2 ADD PUSH2 0x2749 SWAP1 PUSH2 0x3119 JUMP JUMPDEST PUSH1 0x40 MLOAD SWAP13 DUP14 DUP1 SWAP14 PUSH2 0x1A0 SWAP2 DUP3 SWAP2 DUP2 MSTORE PUSH1 0x20 ADD MSTORE DUP14 ADD PUSH2 0x2767 SWAP2 PUSH2 0x2F8E JUMP JUMPDEST DUP13 DUP2 SUB PUSH1 0x40 DUP15 ADD MSTORE PUSH2 0x2778 SWAP2 PUSH2 0x2F8E JUMP JUMPDEST SWAP10 PUSH1 0x60 DUP13 ADD MSTORE PUSH1 0x80 DUP12 ADD MSTORE PUSH1 0xA0 DUP11 ADD MSTORE PUSH1 0xC0 DUP10 ADD MSTORE PUSH1 0xE0 DUP9 ADD MSTORE PUSH2 0x100 DUP8 ADD MSTORE PUSH2 0x120 DUP7 ADD MSTORE PUSH2 0x140 DUP6 ADD MSTORE PUSH2 0x160 DUP5 ADD MSTORE PUSH1 0xFF AND PUSH2 0x180 DUP4 ADD MSTORE SUB SWAP1 RETURN JUMPDEST PUSH1 0x6 DUP3 ADD SLOAD TIMESTAMP GT PUSH2 0x27CA JUMPI PUSH1 0x1 SWAP1 PUSH2 0x26F4 JUMP JUMPDEST PUSH1 0x2 SWAP1 PUSH2 0x26F4 JUMP JUMPDEST CALLVALUE PUSH2 0x328 JUMPI PUSH2 0x27E0 CALLDATASIZE PUSH2 0x2ED7 JUMP JUMPDEST SWAP1 PUSH1 0x0 MSTORE PUSH1 0xA PUSH1 0x20 MSTORE PUSH1 0x40 PUSH1 0x0 KECCAK256 DUP1 SLOAD DUP3 LT ISZERO PUSH2 0x328 JUMPI PUSH1 0x20 SWAP2 PUSH2 0x2803 SWAP2 PUSH2 0x2F3A JUMP JUMPDEST SWAP1 SLOAD PUSH1 0x40 MLOAD SWAP2 PUSH1 0x3 SHL SHR DUP2 MSTORE RETURN JUMPDEST CALLVALUE PUSH2 0x328 JUMPI PUSH1 0x0 CALLDATASIZE PUSH1 0x3 NOT ADD SLT PUSH2 0x328 JUMPI PUSH1 0x40 MLOAD DUP1 PUSH1 0x8 SLOAD SWAP2 DUP3 DUP2 MSTORE PUSH1 0x20 DUP1 SWAP2 ADD SWAP3 PUSH1 0x8 PUSH1 0x0 MSTORE PUSH32 0xF3F7A9FE364FAAB93B216DA50A3214154F22A0A2B415B23A84C8169E8B636EE3 SWAP2 PUSH1 0x0 SWAP1 JUMPDEST DUP3 DUP3 LT PUSH2 0x2875 JUMPI PUSH2 0x174C DUP6 PUSH2 0x1740 DUP2 DUP10 SUB DUP3 PUSH2 0x30F8 JUMP JUMPDEST DUP4 SLOAD DUP7 MSTORE SWAP5 DUP6 ADD SWAP5 PUSH1 0x1 SWAP4 DUP5 ADD SWAP4 SWAP1 SWAP2 ADD SWAP1 PUSH2 0x285E JUMP JUMPDEST CALLVALUE PUSH2 0x328 JUMPI PUSH1 0x20 CALLDATASIZE PUSH1 0x3 NOT ADD SLT PUSH2 0x328 JUMPI PUSH2 0x160B PUSH1 0x4 CALLDATALOAD PUSH2 0x32CC JUMP JUMPDEST CALLVALUE PUSH2 0x328 JUMPI PUSH1 0x20 CALLDATASIZE PUSH1 0x3 NOT ADD SLT PUSH2 0x328 JUMPI PUSH1 0x4 CALLDATALOAD PUSH1 0x8 SLOAD DUP2 LT ISZERO PUSH2 0x328 JUMPI PUSH2 0x2803 PUSH1 0x20 SWAP2 PUSH2 0x2F03 JUMP JUMPDEST CALLVALUE PUSH2 0x328 JUMPI PUSH1 0x20 CALLDATASIZE PUSH1 0x3 NOT ADD SLT PUSH2 0x328 JUMPI PUSH1 0x1 PUSH1 0x1 PUSH1 0xA0 SHL SUB PUSH2 0x28F2 PUSH2 0x2EED JUMP JUMPDEST AND PUSH1 0x0 MSTORE PUSH1 0x12 PUSH1 0x20 MSTORE PUSH1 0x60 PUSH1 0x40 PUSH1 0x0 KECCAK256 DUP1 SLOAD SWAP1 PUSH1 0xFF PUSH1 0x2 PUSH1 0x1 DUP4 ADD SLOAD SWAP3 ADD SLOAD AND SWAP1 PUSH1 0x40 MLOAD SWAP3 DUP4 MSTORE PUSH1 0x20 DUP4 ADD MSTORE ISZERO ISZERO PUSH1 0x40 DUP3 ADD MSTORE RETURN JUMPDEST CALLVALUE PUSH2 0x328 JUMPI PUSH2 0x180 CALLDATASIZE PUSH1 0x3 NOT ADD SLT PUSH2 0x328 JUMPI PUSH1 0x64 CALLDATALOAD PUSH1 0x4 CALLDATALOAD PUSH1 0x24 CALLDATALOAD PUSH1 0x44 CALLDATALOAD CALLDATASIZE PUSH1 0xC4 GT PUSH2 0x328 JUMPI PUSH2 0x144 SWAP2 CALLDATASIZE DUP4 GT PUSH2 0x328 JUMPI CALLDATASIZE PUSH2 0x184 GT PUSH2 0x328 JUMPI DUP4 PUSH1 0x0 MSTORE PUSH1 0x20 SWAP2 PUSH1 0x3 DUP4 MSTORE PUSH1 0x40 PUSH1 0x0 KECCAK256 SWAP4 PUSH1 0xFF PUSH1 0xD DUP7 ADD SLOAD AND ISZERO PUSH2 0xC2E JUMPI PUSH1 0x5 DUP6 ADD SLOAD TIMESTAMP GT PUSH2 0x1315 JUMPI DUP6 PUSH1 0x0 MSTORE PUSH1 0x5 DUP5 MSTORE PUSH1 0x40 PUSH1 0x0 KECCAK256 DUP8 PUSH1 0x0 MSTORE DUP5 MSTORE PUSH1 0xFF PUSH1 0x40 PUSH1 0x0 KECCAK256 SLOAD AND PUSH2 0x1303 JUMPI DUP2 ISZERO PUSH2 0x2BB2 JUMPI PUSH1 0x40 MLOAD PUSH2 0x29BC DUP2 PUSH2 0x30A6 JUMP JUMPDEST DUP8 DUP2 MSTORE DUP4 DUP6 DUP3 ADD MSTORE DUP7 PUSH1 0x40 DUP3 ADD MSTORE DUP3 PUSH1 0x60 DUP3 ADD MSTORE PUSH1 0x7 DUP7 ADD SLOAD PUSH1 0x80 DUP3 ADD MSTORE PUSH1 0x40 MLOAD SWAP2 PUSH4 0x34BAEAB9 PUSH1 0xE0 SHL DUP4 MSTORE PUSH1 0x40 PUSH1 0x84 PUSH1 0x4 DUP6 ADD CALLDATACOPY PUSH1 0xC4 PUSH1 0x0 PUSH1 0x44 DUP6 ADD JUMPDEST PUSH1 0x2 DUP3 LT PUSH2 0x2B9C JUMPI POP POP POP SWAP1 PUSH1 0x40 PUSH2 0x2A1C SWAP3 PUSH1 0xC4 DUP6 ADD CALLDATACOPY PUSH2 0x104 DUP4 ADD SWAP1 PUSH2 0x3220 JUMP JUMPDEST DUP4 DUP2 PUSH2 0x1A4 DUP2 PUSH32 0x0 PUSH1 0x1 PUSH1 0x1 PUSH1 0xA0 SHL SUB AND GAS STATICCALL SWAP1 DUP2 ISZERO PUSH2 0xBA7 JUMPI PUSH1 0x0 SWAP2 PUSH2 0x2B7F JUMPI JUMPDEST POP ISZERO PUSH2 0x129D JUMPI DUP5 PUSH1 0x0 MSTORE PUSH1 0x5 DUP4 MSTORE PUSH1 0x40 PUSH1 0x0 KECCAK256 DUP7 PUSH1 0x0 MSTORE DUP4 MSTORE PUSH1 0x40 PUSH1 0x0 KECCAK256 PUSH1 0x1 PUSH1 0xFF NOT DUP3 SLOAD AND OR SWAP1 SSTORE PUSH1 0x40 MLOAD SWAP3 PUSH1 0xE0 DUP5 ADD SWAP4 DUP1 DUP6 LT PUSH1 0x1 PUSH1 0x1 PUSH1 0x40 SHL SUB DUP7 GT OR PUSH2 0x312 JUMPI PUSH32 0x49E5146CBEFB4FFF5586B703DE455CB45794712230253D13F2D8C57DA85A323 SWAP6 PUSH2 0x2B67 PUSH1 0xB SWAP3 PUSH1 0x6 DUP11 DUP7 PUSH2 0x2B4B DUP15 PUSH1 0x40 SWAP13 DUP14 MSTORE DUP12 DUP7 MSTORE DUP3 DUP7 ADD DUP12 DUP2 MSTORE DUP14 DUP8 ADD DUP3 DUP2 MSTORE PUSH1 0x60 DUP9 ADD SWAP2 TIMESTAMP DUP4 MSTORE PUSH1 0x80 DUP10 ADD SWAP4 PUSH1 0x0 DUP6 MSTORE PUSH1 0x4 PUSH1 0xA0 DUP12 ADD SWAP8 PUSH1 0x0 DUP10 MSTORE PUSH1 0xC0 DUP13 ADD SWAP10 PUSH1 0x1 DUP12 MSTORE PUSH1 0x0 MSTORE MSTORE PUSH1 0x40 PUSH1 0x0 KECCAK256 SWAP1 PUSH1 0x0 MSTORE DUP14 MSTORE DUP16 PUSH1 0x0 KECCAK256 SWAP9 MLOAD DUP10 SSTORE MLOAD PUSH1 0x1 DUP10 ADD SSTORE MLOAD PUSH1 0x2 DUP9 ADD SSTORE MLOAD PUSH1 0x3 DUP8 ADD SSTORE MLOAD ISZERO ISZERO PUSH1 0x4 DUP7 ADD SWAP1 PUSH1 0xFF DUP1 NOT DUP4 SLOAD AND SWAP2 ISZERO ISZERO AND OR SWAP1 SSTORE JUMP JUMPDEST MLOAD PUSH1 0x5 DUP5 ADD SSTORE MLOAD ISZERO ISZERO SWAP2 ADD SWAP1 PUSH1 0xFF DUP1 NOT DUP4 SLOAD AND SWAP2 ISZERO ISZERO AND OR SWAP1 SSTORE JUMP JUMPDEST ADD PUSH2 0x2B72 DUP2 SLOAD PUSH2 0x31F9 JUMP JUMPDEST SWAP1 SSTORE DUP4 MLOAD SWAP3 DUP4 MSTORE DUP3 ADD MSTORE LOG3 STOP JUMPDEST PUSH2 0x2B96 SWAP2 POP DUP5 RETURNDATASIZE DUP7 GT PUSH2 0x1255 JUMPI PUSH2 0x1247 DUP2 DUP4 PUSH2 0x30F8 JUMP JUMPDEST DUP8 PUSH2 0x2A5D JUMP JUMPDEST PUSH1 0x40 DUP1 DUP3 DUP2 DUP7 PUSH1 0x1 SWAP6 CALLDATACOPY ADD SWAP4 ADD SWAP2 ADD SWAP1 SWAP2 PUSH2 0x29FA JUMP JUMPDEST PUSH1 0x40 MLOAD PUSH4 0x43C891CF PUSH1 0xE1 SHL DUP2 MSTORE PUSH1 0x4 SWAP1 REVERT JUMPDEST CALLVALUE PUSH2 0x328 JUMPI PUSH2 0x2BD2 CALLDATASIZE PUSH2 0x2ED7 JUMP JUMPDEST SWAP1 PUSH1 0x0 MSTORE PUSH1 0xC PUSH1 0x20 MSTORE PUSH1 0x40 PUSH1 0x0 KECCAK256 SWAP1 PUSH1 0x0 MSTORE PUSH1 0x20 MSTORE PUSH2 0x100 PUSH1 0x40 PUSH1 0x0 KECCAK256 DUP1 SLOAD SWAP1 PUSH1 0x1 DUP2 ADD SLOAD SWAP1 PUSH1 0x2 DUP2 ADD SLOAD PUSH1 0x3 DUP3 ADD SLOAD PUSH1 0x4 DUP4 ADD SLOAD SWAP1 PUSH1 0xFF PUSH1 0x5 DUP6 ADD SLOAD AND SWAP3 PUSH1 0xFF PUSH1 0x7 PUSH1 0x6 DUP8 ADD SLOAD SWAP7 ADD SLOAD AND SWAP6 PUSH1 0x40 MLOAD SWAP8 DUP9 MSTORE PUSH1 0x20 DUP9 ADD MSTORE PUSH1 0x40 DUP8 ADD MSTORE PUSH1 0x60 DUP7 ADD MSTORE PUSH1 0x80 DUP6 ADD MSTORE ISZERO ISZERO PUSH1 0xA0 DUP5 ADD MSTORE PUSH1 0xC0 DUP4 ADD MSTORE ISZERO ISZERO PUSH1 0xE0 DUP3 ADD MSTORE RETURN JUMPDEST CALLVALUE PUSH2 0x328 JUMPI PUSH1 0x0 CALLDATASIZE PUSH1 0x3 NOT ADD SLT PUSH2 0x328 JUMPI PUSH1 0x20 PUSH1 0x8 SLOAD PUSH1 0x40 MLOAD SWAP1 DUP2 MSTORE RETURN JUMPDEST CALLVALUE PUSH2 0x328 JUMPI PUSH1 0x20 CALLDATASIZE PUSH1 0x3 NOT ADD SLT PUSH2 0x328 JUMPI PUSH1 0x4 CALLDATALOAD PUSH1 0x0 MSTORE PUSH1 0x11 PUSH1 0x20 MSTORE PUSH1 0x20 PUSH1 0xFF PUSH1 0x40 PUSH1 0x0 KECCAK256 SLOAD AND PUSH1 0x40 MLOAD SWAP1 ISZERO ISZERO DUP2 MSTORE RETURN JUMPDEST CALLVALUE PUSH2 0x328 JUMPI PUSH1 0x80 CALLDATASIZE PUSH1 0x3 NOT ADD SLT PUSH2 0x328 JUMPI PUSH1 0x4 CALLDATALOAD PUSH1 0x24 CALLDATALOAD SWAP1 PUSH1 0x44 CALLDATALOAD DUP2 PUSH1 0x0 MSTORE PUSH1 0x20 PUSH1 0x3 DUP2 MSTORE PUSH1 0x40 PUSH1 0x0 KECCAK256 SWAP2 PUSH1 0x4 DUP3 MSTORE PUSH1 0x40 PUSH1 0x0 KECCAK256 DUP6 PUSH1 0x0 MSTORE DUP3 MSTORE PUSH1 0x40 PUSH1 0x0 KECCAK256 SWAP2 PUSH1 0xFF PUSH1 0xD DUP6 ADD SLOAD AND ISZERO PUSH2 0xC2E JUMPI PUSH1 0x5 DUP5 ADD SLOAD TIMESTAMP GT ISZERO PUSH2 0xC1C JUMPI PUSH1 0x6 DUP5 ADD SLOAD TIMESTAMP GT PUSH2 0xC1C JUMPI PUSH1 0xFF PUSH1 0x6 DUP5 ADD SLOAD AND ISZERO PUSH2 0xC0A JUMPI PUSH1 0x4 DUP4 ADD PUSH1 0xFF DUP2 SLOAD AND PUSH2 0xBF8 JUMPI PUSH1 0x2 DUP4 GT PUSH2 0xBE6 JUMPI PUSH1 0x40 MLOAD SWAP1 PUSH2 0x2D30 DUP3 PUSH2 0x308B JUMP JUMPDEST DUP4 DUP3 MSTORE PUSH2 0x2D6A DUP4 PUSH1 0x1 DUP8 ADD SWAP4 DUP5 SLOAD DUP3 DUP3 ADD MSTORE DUP10 PUSH1 0x40 DUP3 ADD MSTORE PUSH1 0x64 CALLDATALOAD PUSH1 0x60 DUP3 ADD MSTORE PUSH1 0x40 MLOAD DUP1 SWAP4 DUP2 SWAP3 PUSH4 0x21C27363 PUSH1 0xE2 SHL DUP4 MSTORE PUSH1 0x4 DUP4 ADD PUSH2 0x31BE JUMP JUMPDEST SUB DUP2 PUSH20 0x0 GAS DELEGATECALL SWAP1 DUP2 ISZERO PUSH2 0xBA7 JUMPI PUSH1 0x0 SWAP2 PUSH2 0x2E39 JUMPI JUMPDEST POP DUP6 SLOAD SUB PUSH2 0xB67 JUMPI PUSH32 0x48B18FFD0D20AC6E0C916DC382BDEA3DE3108E2B71D66318FF2BDC7AA10A5628 SWAP6 DUP5 PUSH1 0x5 PUSH1 0x40 SWAP8 PUSH1 0xC SWAP5 PUSH1 0x1 PUSH1 0xFF NOT DUP3 SLOAD AND OR SWAP1 SSTORE ADD SSTORE PUSH1 0x1 DUP6 EQ PUSH1 0x0 EQ PUSH2 0x2E0B JUMPI DUP3 SLOAD PUSH2 0x2DEE PUSH1 0x8 DUP4 ADD SWAP2 DUP3 SLOAD PUSH2 0x31EC JUMP JUMPDEST SWAP1 SSTORE JUMPDEST ADD PUSH2 0x2DFC DUP2 SLOAD PUSH2 0x31F9 JUMP JUMPDEST SWAP1 SSTORE SLOAD SWAP1 DUP4 MLOAD SWAP3 DUP4 MSTORE DUP3 ADD MSTORE LOG3 STOP JUMPDEST DUP5 PUSH2 0x2E28 JUMPI DUP3 SLOAD PUSH2 0x2E21 PUSH1 0x9 DUP4 ADD SWAP2 DUP3 SLOAD PUSH2 0x31EC JUMP JUMPDEST SWAP1 SSTORE PUSH2 0x2DF1 JUMP JUMPDEST DUP3 SLOAD PUSH2 0x2E21 PUSH1 0xA DUP4 ADD SWAP2 DUP3 SLOAD PUSH2 0x31EC JUMP JUMPDEST SWAP1 POP DUP4 DUP2 DUP2 RETURNDATASIZE DUP4 GT PUSH2 0x2E5F JUMPI JUMPDEST PUSH2 0x2E50 DUP2 DUP4 PUSH2 0x30F8 JUMP JUMPDEST DUP2 ADD SUB SLT PUSH2 0x328 JUMPI MLOAD DUP10 PUSH2 0x2D92 JUMP JUMPDEST POP RETURNDATASIZE PUSH2 0x2E46 JUMP JUMPDEST CALLVALUE PUSH2 0x328 JUMPI PUSH1 0x0 CALLDATASIZE PUSH1 0x3 NOT ADD SLT PUSH2 0x328 JUMPI PUSH1 0x20 PUSH1 0x2 SLOAD PUSH1 0x40 MLOAD SWAP1 DUP2 MSTORE RETURN JUMPDEST CALLVALUE PUSH2 0x328 JUMPI PUSH1 0x20 CALLDATASIZE PUSH1 0x3 NOT ADD SLT PUSH2 0x328 JUMPI PUSH1 0x4 CALLDATALOAD SWAP1 PUSH4 0xFFFFFFFF PUSH1 0xE0 SHL DUP3 AND DUP1 SWAP3 SUB PUSH2 0x328 JUMPI PUSH1 0x20 SWAP2 PUSH4 0x2139E50B PUSH1 0xE1 SHL DUP2 EQ SWAP1 DUP2 ISZERO PUSH2 0x2EC6 JUMPI JUMPDEST POP ISZERO ISZERO DUP2 MSTORE RETURN JUMPDEST PUSH4 0x1FFC9A7 PUSH1 0xE0 SHL EQ SWAP1 POP DUP4 PUSH2 0x2EBF JUMP JUMPDEST PUSH1 0x40 SWAP1 PUSH1 0x3 NOT ADD SLT PUSH2 0x328 JUMPI PUSH1 0x4 CALLDATALOAD SWAP1 PUSH1 0x24 CALLDATALOAD SWAP1 JUMP JUMPDEST PUSH1 0x4 CALLDATALOAD SWAP1 PUSH1 0x1 PUSH1 0x1 PUSH1 0xA0 SHL SUB DUP3 AND DUP3 SUB PUSH2 0x328 JUMPI JUMP JUMPDEST PUSH1 0x8 SLOAD DUP2 LT ISZERO PUSH2 0xE07 JUMPI PUSH1 0x8 PUSH1 0x0 MSTORE PUSH32 0xF3F7A9FE364FAAB93B216DA50A3214154F22A0A2B415B23A84C8169E8B636EE3 ADD SWAP1 PUSH1 0x0 SWAP1 JUMP JUMPDEST DUP1 SLOAD DUP3 LT ISZERO PUSH2 0xE07 JUMPI PUSH1 0x0 MSTORE PUSH1 0x20 PUSH1 0x0 KECCAK256 ADD SWAP1 PUSH1 0x0 SWAP1 JUMP JUMPDEST PUSH1 0x20 SWAP1 PUSH1 0x20 PUSH1 0x40 DUP2 DUP4 ADD SWAP3 DUP3 DUP2 MSTORE DUP6 MLOAD DUP1 SWAP5 MSTORE ADD SWAP4 ADD SWAP2 PUSH1 0x0 JUMPDEST DUP3 DUP2 LT PUSH2 0x2F7A JUMPI POP POP POP POP SWAP1 JUMP JUMPDEST DUP4 MLOAD DUP6 MSTORE SWAP4 DUP2 ADD SWAP4 SWAP3 DUP2 ADD SWAP3 PUSH1 0x1 ADD PUSH2 0x2F6C JUMP JUMPDEST SWAP2 SWAP1 DUP3 MLOAD SWAP3 DUP4 DUP3 MSTORE PUSH1 0x0 JUMPDEST DUP5 DUP2 LT PUSH2 0x2FBA JUMPI POP POP DUP3 PUSH1 0x0 PUSH1 0x20 DUP1 SWAP5 SWAP6 DUP5 ADD ADD MSTORE PUSH1 0x1F DUP1 NOT SWAP2 ADD AND ADD ADD SWAP1 JUMP JUMPDEST PUSH1 0x20 DUP2 DUP4 ADD DUP2 ADD MLOAD DUP5 DUP4 ADD DUP3 ADD MSTORE ADD PUSH2 0x2F99 JUMP JUMPDEST SWAP2 DUP2 PUSH1 0x1F DUP5 ADD SLT ISZERO PUSH2 0x328 JUMPI DUP3 CALLDATALOAD SWAP2 PUSH1 0x1 PUSH1 0x1 PUSH1 0x40 SHL SUB DUP4 GT PUSH2 0x328 JUMPI PUSH1 0x20 DUP4 DUP2 DUP7 ADD SWAP6 ADD ADD GT PUSH2 0x328 JUMPI JUMP JUMPDEST PUSH1 0xA0 PUSH1 0x3 NOT DUP3 ADD SLT PUSH2 0x328 JUMPI PUSH1 0x1 PUSH1 0x1 PUSH1 0x40 SHL SUB SWAP2 PUSH1 0x4 CALLDATALOAD DUP4 DUP2 GT PUSH2 0x328 JUMPI DUP3 PUSH2 0x3027 SWAP2 PUSH1 0x4 ADD PUSH2 0x2FCE JUMP JUMPDEST SWAP4 SWAP1 SWAP4 SWAP3 PUSH1 0x24 CALLDATALOAD SWAP2 DUP3 GT PUSH2 0x328 JUMPI PUSH2 0x3041 SWAP2 PUSH1 0x4 ADD PUSH2 0x2FCE JUMP JUMPDEST SWAP1 SWAP2 PUSH1 0x44 CALLDATALOAD SWAP1 PUSH1 0x64 CALLDATALOAD SWAP1 PUSH1 0x84 CALLDATALOAD SWAP1 JUMP JUMPDEST SWAP1 PUSH1 0x1 DUP3 DUP2 SHR SWAP3 AND DUP1 ISZERO PUSH2 0x3081 JUMPI JUMPDEST PUSH1 0x20 DUP4 LT EQ PUSH2 0x306B JUMPI JUMP JUMPDEST PUSH4 0x4E487B71 PUSH1 0xE0 SHL PUSH1 0x0 MSTORE PUSH1 0x22 PUSH1 0x4 MSTORE PUSH1 0x24 PUSH1 0x0 REVERT JUMPDEST SWAP2 PUSH1 0x7F AND SWAP2 PUSH2 0x3060 JUMP JUMPDEST PUSH1 0x80 DUP2 ADD SWAP1 DUP2 LT PUSH1 0x1 PUSH1 0x1 PUSH1 0x40 SHL SUB DUP3 GT OR PUSH2 0x312 JUMPI PUSH1 0x40 MSTORE JUMP JUMPDEST PUSH1 0xA0 DUP2 ADD SWAP1 DUP2 LT PUSH1 0x1 PUSH1 0x1 PUSH1 0x40 SHL SUB DUP3 GT OR PUSH2 0x312 JUMPI PUSH1 0x40 MSTORE JUMP JUMPDEST PUSH2 0x100 DUP2 ADD SWAP1 DUP2 LT PUSH1 0x1 PUSH1 0x1 PUSH1 0x40 SHL SUB DUP3 GT OR PUSH2 0x312 JUMPI PUSH1 0x40 MSTORE JUMP JUMPDEST PUSH1 0x40 DUP2 ADD SWAP1 DUP2 LT PUSH1 0x1 PUSH1 0x1 PUSH1 0x40 SHL SUB DUP3 GT OR PUSH2 0x312 JUMPI PUSH1 0x40 MSTORE JUMP JUMPDEST SWAP1 PUSH1 0x1F DUP1 NOT SWAP2 ADD AND DUP2 ADD SWAP1 DUP2 LT PUSH1 0x1 PUSH1 0x1 PUSH1 0x40 SHL SUB DUP3 GT OR PUSH2 0x312 JUMPI PUSH1 0x40 MSTORE JUMP JUMPDEST SWAP1 PUSH1 0x40 MLOAD SWAP2 DUP3 PUSH1 0x0 DUP3 SLOAD PUSH2 0x312C DUP2 PUSH2 0x3051 JUMP JUMPDEST SWAP1 DUP2 DUP5 MSTORE PUSH1 0x20 SWAP5 PUSH1 0x1 SWAP2 PUSH1 0x1 DUP2 AND SWAP1 DUP2 PUSH1 0x0 EQ PUSH2 0x319C JUMPI POP PUSH1 0x1 EQ PUSH2 0x315D JUMPI JUMPDEST POP POP POP PUSH2 0x315B SWAP3 POP SUB DUP4 PUSH2 0x30F8 JUMP JUMPDEST JUMP JUMPDEST PUSH1 0x0 SWAP1 DUP2 MSTORE DUP6 DUP2 KECCAK256 SWAP6 SWAP4 POP SWAP2 SWAP1 JUMPDEST DUP2 DUP4 LT PUSH2 0x3184 JUMPI POP POP PUSH2 0x315B SWAP4 POP DUP3 ADD ADD CODESIZE DUP1 DUP1 PUSH2 0x314C JUMP JUMPDEST DUP6 SLOAD DUP9 DUP5 ADD DUP6 ADD MSTORE SWAP5 DUP6 ADD SWAP5 DUP8 SWAP5 POP SWAP2 DUP4 ADD SWAP2 PUSH2 0x316B JUMP JUMPDEST SWAP3 POP POP POP PUSH2 0x315B SWAP5 SWAP3 POP PUSH1 0xFF NOT AND DUP3 DUP5 ADD MSTORE ISZERO ISZERO PUSH1 0x5 SHL DUP3 ADD ADD CODESIZE DUP1 DUP1 PUSH2 0x314C JUMP JUMPDEST PUSH1 0x80 DUP2 ADD SWAP3 SWAP2 PUSH1 0x0 SWAP2 JUMPDEST PUSH1 0x4 DUP4 LT PUSH2 0x31D5 JUMPI POP POP POP JUMP JUMPDEST PUSH1 0x1 SWAP1 DUP3 MLOAD DUP2 MSTORE PUSH1 0x20 DUP1 SWAP2 ADD SWAP3 ADD SWAP3 ADD SWAP2 SWAP1 PUSH2 0x31C8 JUMP JUMPDEST SWAP2 SWAP1 DUP3 ADD DUP1 SWAP3 GT PUSH2 0x11DE JUMPI JUMP JUMPDEST PUSH1 0x0 NOT DUP2 EQ PUSH2 0x11DE JUMPI PUSH1 0x1 ADD SWAP1 JUMP JUMPDEST SWAP1 DUP2 PUSH1 0x20 SWAP2 SUB SLT PUSH2 0x328 JUMPI MLOAD DUP1 ISZERO ISZERO DUP2 SUB PUSH2 0x328 JUMPI SWAP1 JUMP JUMPDEST PUSH1 0x0 SWAP2 JUMPDEST PUSH1 0x5 DUP4 LT PUSH2 0x3231 JUMPI POP POP POP JUMP JUMPDEST PUSH1 0x1 SWAP1 DUP3 MLOAD DUP2 MSTORE PUSH1 0x20 DUP1 SWAP2 ADD SWAP3 ADD SWAP3 ADD SWAP2 SWAP1 PUSH2 0x3224 JUMP JUMPDEST PUSH1 0x7 SLOAD PUSH1 0x1 PUSH1 0x40 SHL DUP2 LT ISZERO PUSH2 0x312 JUMPI PUSH1 0x1 DUP2 ADD DUP1 PUSH1 0x7 SSTORE DUP2 LT ISZERO PUSH2 0xE07 JUMPI PUSH1 0x7 PUSH1 0x0 MSTORE PUSH32 0xA66CC928B5EDB82AF9BD49922954155AB7B0942694BEA4CE44661D9A8736C688 ADD SSTORE JUMP JUMPDEST SWAP1 DUP2 SLOAD SWAP2 PUSH1 0x1 PUSH1 0x40 SHL DUP4 LT ISZERO PUSH2 0x312 JUMPI DUP3 PUSH2 0x32B3 SWAP2 PUSH1 0x1 PUSH2 0x315B SWAP6 ADD DUP2 SSTORE PUSH2 0x2F3A JUMP JUMPDEST SWAP1 SWAP2 SWAP1 DUP3 SLOAD SWAP1 PUSH1 0x3 SHL SWAP2 DUP3 SHL SWAP2 PUSH1 0x0 NOT SWAP1 SHL NOT AND OR SWAP1 SSTORE JUMP JUMPDEST SWAP1 PUSH1 0x0 SWAP2 DUP1 DUP4 MSTORE PUSH1 0x11 PUSH1 0x20 MSTORE PUSH1 0x40 DUP4 KECCAK256 DUP1 SLOAD PUSH1 0xFF DUP2 AND PUSH2 0x338A JUMPI PUSH1 0xFF NOT AND PUSH1 0x1 OR SWAP1 SSTORE PUSH1 0x10 SLOAD PUSH1 0x1 PUSH1 0x40 SHL DUP2 LT ISZERO PUSH2 0x3376 JUMPI PUSH1 0x1 DUP2 ADD DUP1 PUSH1 0x10 SSTORE DUP2 LT ISZERO PUSH2 0x3362 JUMPI PUSH1 0x10 DUP3 SWAP4 SWAP5 MSTORE PUSH32 0x1B6847DC741A1B0CD08D278845F9D819D87B734759AFB55FE2DE5CB82A9AE672 ADD SSTORE PUSH32 0x1926A241BA9D59467AC0063E2CB861452B93AB650FFF5378A82E86BEFECC27AB PUSH1 0x20 PUSH1 0x40 MLOAD TIMESTAMP DUP2 MSTORE LOG2 JUMP JUMPDEST PUSH4 0x4E487B71 PUSH1 0xE0 SHL DUP5 MSTORE PUSH1 0x32 PUSH1 0x4 MSTORE PUSH1 0x24 DUP5 REVERT JUMPDEST PUSH4 0x4E487B71 PUSH1 0xE0 SHL DUP5 MSTORE PUSH1 0x41 PUSH1 0x4 MSTORE PUSH1 0x24 DUP5 REVERT JUMPDEST POP POP POP SWAP1 POP JUMP JUMPDEST SWAP1 DUP1 PUSH1 0x1F DUP4 ADD SLT ISZERO PUSH2 0x328 JUMPI PUSH1 0x40 MLOAD SWAP2 PUSH2 0x33AA DUP4 PUSH2 0x30DD JUMP JUMPDEST DUP3 SWAP1 PUSH1 0x40 DUP2 ADD SWAP3 DUP4 GT PUSH2 0x328 JUMPI SWAP1 JUMPDEST DUP3 DUP3 LT PUSH2 0x33C6 JUMPI POP POP POP SWAP1 JUMP JUMPDEST DUP2 CALLDATALOAD DUP2 MSTORE PUSH1 0x20 SWAP2 DUP3 ADD SWAP2 ADD PUSH2 0x33B9 JUMP JUMPDEST DUP2 DUP2 MUL SWAP3 SWAP2 DUP2 ISZERO SWAP2 DUP5 DIV EQ OR ISZERO PUSH2 0x11DE JUMPI JUMP JUMPDEST PUSH1 0x0 SWAP2 JUMPDEST PUSH1 0x2 DUP4 LT PUSH2 0x33FA JUMPI POP POP POP JUMP JUMPDEST PUSH1 0x1 SWAP1 DUP3 MLOAD DUP2 MSTORE PUSH1 0x20 DUP1 SWAP2 ADD SWAP3 ADD SWAP3 ADD SWAP2 SWAP1 PUSH2 0x33ED JUMP JUMPDEST SWAP3 SWAP2 SWAP3 PUSH1 0x1 PUSH1 0x1 PUSH1 0x40 SHL SUB DUP3 GT PUSH2 0x312 JUMPI PUSH1 0x40 MLOAD SWAP2 PUSH2 0x343A PUSH1 0x1F DUP3 ADD PUSH1 0x1F NOT AND PUSH1 0x20 ADD DUP5 PUSH2 0x30F8 JUMP JUMPDEST DUP3 SWAP5 DUP2 DUP5 MSTORE DUP2 DUP4 ADD GT PUSH2 0x328 JUMPI DUP3 DUP2 PUSH1 0x20 SWAP4 DUP5 PUSH1 0x0 SWAP7 ADD CALLDATACOPY ADD ADD MSTORE JUMP JUMPDEST DUP2 DUP2 LT PUSH2 0x3462 JUMPI POP POP JUMP JUMPDEST PUSH1 0x0 DUP2 SSTORE PUSH1 0x1 ADD PUSH2 0x3457 JUMP JUMPDEST SWAP2 DUP1 PUSH1 0xA0 SWAP2 PUSH1 0x60 SWAP6 SWAP9 SWAP8 SWAP7 SWAP4 PUSH1 0x80 DUP7 MSTORE DUP2 PUSH1 0x80 DUP8 ADD MSTORE DUP4 DUP7 ADD CALLDATACOPY PUSH1 0x0 DUP3 DUP3 DUP7 ADD ADD MSTORE PUSH1 0x1F DUP1 NOT SWAP2 ADD AND DUP4 ADD ADD SWAP6 PUSH1 0x20 DUP4 ADD MSTORE PUSH1 0x40 DUP3 ADD MSTORE ADD MSTORE JUMP JUMPDEST PUSH1 0x0 MSTORE PUSH1 0xB PUSH1 0x20 MSTORE PUSH1 0x40 PUSH1 0x0 KECCAK256 PUSH1 0xFF PUSH1 0xE DUP3 ADD SLOAD AND ISZERO PUSH2 0xC2E JUMPI PUSH1 0x5 DUP2 ADD SLOAD TIMESTAMP GT ISZERO PUSH2 0x34E4 JUMPI PUSH1 0x6 ADD SLOAD TIMESTAMP GT ISZERO PUSH2 0x34DF JUMPI PUSH1 0x2 SWAP1 JUMP JUMPDEST PUSH1 0x1 SWAP1 JUMP JUMPDEST POP PUSH1 0x0 SWAP1 JUMP JUMPDEST DUP1 PUSH1 0x0 MSTORE PUSH1 0x9 PUSH1 0x20 MSTORE PUSH1 0x40 PUSH1 0x0 KECCAK256 DUP1 SLOAD PUSH1 0xFF DUP2 AND PUSH2 0x355A JUMPI PUSH1 0xFF NOT AND PUSH1 0x1 OR SWAP1 SSTORE PUSH1 0x8 SLOAD PUSH1 0x1 PUSH1 0x40 SHL DUP2 LT ISZERO PUSH2 0x312 JUMPI DUP2 PUSH2 0x32B3 DUP3 PUSH1 0x1 PUSH2 0x352E SWAP5 ADD PUSH1 0x8 SSTORE PUSH2 0x2F03 JUMP JUMPDEST PUSH32 0x85238313F6B4AA1EA470340FC24BC06D68E734CD21411160C06714EB547571AF PUSH1 0x20 PUSH1 0x40 MLOAD TIMESTAMP DUP2 MSTORE LOG2 JUMP JUMPDEST POP POP POP JUMP INVALID LOG2 PUSH5 0x6970667358 0x22 SLT KECCAK256 0xAF CALLDATALOAD 0x4E 0x2F SLT SWAP9 PUSH31 0x8A19B0C17CCCBE3CDFB0850AB60ACC57502A5D5BAE4CF21CF564736F6C6343 STOP ADDMOD XOR STOP CALLER "},"methodIdentifiers":{"CHOICE_ABSTAIN()":"d90292a3","CHOICE_AGAINST()":"b5770c33","CHOICE_FOR()":"8ea7a274","INITIAL_CREDITS()":"697aa8e8","calculateQuadraticCost(uint256)":"74dd0fea","castVoteD1(uint256,uint256,uint256,uint256,uint256[2],uint256[2][2],uint256[2])":"18dbeb4c","castVoteD2(uint256,uint256,uint256,uint256,uint256,uint256[2],uint256[2][2],uint256[2])":"badbc2ed","commitmentsD1(uint256,uint256)":"4275e031","commitmentsD2(uint256,uint256)":"13703e66","createProposalD1(string,string,uint256,uint256,uint256)":"4d09b49f","createProposalD2(string,string,uint256,uint256,uint256)":"db5bd601","creditRootHistory(uint256)":"a329b313","getAvailableCredits(address)":"b065a8e5","getPhaseD2(uint256)":"850099cd","getProposalD1(uint256)":"315401c0","getProposalD2(uint256)":"d54bb70b","getRegisteredCreditNotes()":"a1c7574a","getRegisteredVoters()":"2bc4a6e7","getVoterCount()":"11174a29","initializeCredits()":"fb9607d3","isCreditNoteRegistered(uint256)":"0d70ece8","isCreditRootValid(uint256)":"ef3a2b39","isMerkleRootValid(uint256)":"4a9284fb","isVoterRegistered(uint256)":"6d3cba61","merkleRootHistory(uint256)":"b5ad9215","mintTestTokens(uint256)":"52a48c56","nullifierUsedD1(uint256,uint256)":"5938862f","nullifierUsedD2(uint256,uint256)":"833722c5","onApprove(address,address,uint256,bytes)":"4273ca16","proposalCountD1()":"f9058741","proposalCountD2()":"03a229f7","proposalVoterSnapshots(uint256,uint256)":"2c5317c0","proposalsD1(uint256)":"f025d082","proposalsD2(uint256)":"b4e0d6af","registerCreditNote(uint256)":"2bbe44fd","registerCreditRoot(uint256)":"d5444336","registerMerkleRoot(uint256)":"a4cae8f8","registerVoter(uint256)":"a13f2f8d","registeredCreditNotes(uint256)":"974f7aa3","registeredVoters(uint256)":"2436e06b","revealVoteD1(uint256,uint256,uint256,uint256)":"0572c801","revealVoteD2(uint256,uint256,uint256,uint256,uint256)":"d55d533e","supportsInterface(bytes4)":"01ffc9a7","tonToken()":"781a4852","treasury()":"61d027b3","updateProposalVoters(uint256,uint256)":"aa609848","userCredits(address)":"20babb92","validCreditRoots(uint256)":"417e70c8","validMerkleRoots(uint256)":"cb1bb033","verifierD1()":"f58789ae","verifierD2()":"94ffe6a0"}}}}}