{"contracts/PoseidonT5.sol":{"PoseidonT5":{"abi":[{"inputs":[{"internalType":"uint256[4]","name":"","type":"uint256[4]"}],"name":"hash","outputs":[{"internalType":"uint256","name":"","type":"uint256"}],"stateMutability":"pure","type":"function"}],"evm":{"bytecode":{"linkReferences":{},"object":"608080604052346200001c5761cb4b908162000022823930815050f35b600080fdfe600436101561000d57600080fd5b6000803560e01c638709cd8c1461002357600080fd5b6080366003190112610069573660231215610069576101006040526080906084903660841161006957506004915b8183101561bb3c578235815260209283019201610051565b80fd5b6000517f0a01776bb22f4b6b8eccff33e76fded3144fb7e3ac14e846a91e64afb1500eff016020517f2b7b5674aaecc3cbf34d3f275066d549a4f33ae8c15cf827f7936440810ace4301906080517f29d299b80cd4489e4cf75779ed54b48c60b042257b78fc004c1b803381a3bdfd0160a0517f1c46831d9a74529357641c219d721a74a427110032b5e1dd19dde30424be401e019260c0517f06d7626c953ccb72f37141dc34d578e036296c0657674f80739ae1d883e912690160008051602061c936833981519152808080808089818082819d09800909958a82808060008051602061c9d683398151915285099260008051602061c8b683398151915290098160008051602061ca568339815191528d098260008051602061c9768339815191528d098360008051602061ca968339815191528d0901010106016000528a82808060008051602061caf683398151915285099260008051602061c8d683398151915290098160008051602061ca168339815191528d098260008051602061cab68339815191528d098360008051602061c8568339815191528d0901010106016020528a82808060008051602061c83683398151915285099260008051602061c9b683398151915290098160008051602061c9568339815191528d098260008051602061c9168339815191528d098360008051602061c7d68339815191528d0901010106016080528a82808060008051602061c7f683398151915285099260008051602061c8f683398151915290098160008051602061c8968339815191528d098260008051602061ca768339815191528d098360008051602061cad68339815191528d09010101060160a05260008051602061c87683398151915290099860008051602061c81683398151915290099560008051602061c99683398151915290099360008051602061ca3683398151915290099160008051602061c9f68339815191529009010101060160c052565b6000517f28ffddc86f18c136c54002748e0c410edc5c440a3022cd960f108c71cda2930c016020517f2e67f7ee5e4aa295f85deed09e400b17be67f1b7ed2ab6adb8ec0619f6fbc5e901906080517f26ce38fa636c90630e97f25114a79a2dca56859ef759e53ce7abf22c24e80f270160a0517f2e6e07c3c95bf7c34dd7a01d00a7ffec42cb3d16a1f72721afacb4c4cfd35db1019260c0517f2aa74f7597f0c9f45f91d7961c3a54fb8890d276612e1246384b1470da24d8cc0160008051602061c936833981519152808080808089818082819d09800909958a82808060008051602061c9d683398151915285099260008051602061c8b683398151915290098160008051602061ca568339815191528d098260008051602061c9768339815191528d098360008051602061ca968339815191528d0901010106016000528a82808060008051602061caf683398151915285099260008051602061c8d683398151915290098160008051602061ca168339815191528d098260008051602061cab68339815191528d098360008051602061c8568339815191528d0901010106016020528a82808060008051602061c83683398151915285099260008051602061c9b683398151915290098160008051602061c9568339815191528d098260008051602061c9168339815191528d098360008051602061c7d68339815191528d0901010106016080528a82808060008051602061c7f683398151915285099260008051602061c8f683398151915290098160008051602061c8968339815191528d098260008051602061ca768339815191528d098360008051602061cad68339815191528d09010101060160a05260008051602061c87683398151915290099860008051602061c81683398151915290099560008051602061c99683398151915290099360008051602061ca3683398151915290099160008051602061c9f68339815191529009010101060160c052565b6000517f287d681a46a2faae2c7c090f668ab45b8a71313c1509183e2ec0ca639b7f73fe016020517f212bd19df812eaaef4a40600528f3d7da5d3106ff565aa3b11e29f3305e73c0401906080517f1154f7cf519186bf1aafb14b350eb860f97fd9740926dab93809c284047135040160a0517f1dff6385cb31f1c24637810a4bd1b16fbf5152905be36583da747e79661fc207019260c0517f0e444582d22b4e76c081d34c44c18e424011a34d5476252863ea3c606b551e5c0160008051602061c936833981519152808080808089818082819d09800909958a82808060008051602061c9d683398151915285099260008051602061c8b683398151915290098160008051602061ca568339815191528d098260008051602061c9768339815191528d098360008051602061ca968339815191528d0901010106016000528a82808060008051602061caf683398151915285099260008051602061c8d683398151915290098160008051602061ca168339815191528d098260008051602061cab68339815191528d098360008051602061c8568339815191528d0901010106016020528a82808060008051602061c83683398151915285099260008051602061c9b683398151915290098160008051602061c9568339815191528d098260008051602061c9168339815191528d098360008051602061c7d68339815191528d0901010106016080528a82808060008051602061c7f683398151915285099260008051602061c8f683398151915290098160008051602061c8968339815191528d098260008051602061ca768339815191528d098360008051602061cad68339815191528d09010101060160a05260008051602061c87683398151915290099860008051602061c81683398151915290099560008051602061c99683398151915290099360008051602061ca3683398151915290099160008051602061c9f68339815191529009010101060160c052565b6000517f0323c9e433ba66c4abab6638328f02f1815773e9c2846323ff72d3aab7e4eff8016020517f12746bbd71791059193bba79cdec448f25b8cf002740112db70f2c6876a9c29d01906080517f1173b7d112c2a798fd9b9d3751842c75d466c837cf50d73efd049eb4438a22400160a0517f13d51c1090a1ad4876d1e555d7fed13da8e5713b25026ebe5fdb4808703243da019260c0517e874c1344a4ad51ff8dcb7cbd2d9743cb72743f0394efe7f4a58ebeb956baa10160008051602061c936833981519152808080808089818082819d09800909958a82808060008051602061c9d683398151915285099260008051602061c8b683398151915290098160008051602061ca568339815191528d098260008051602061c9768339815191528d098360008051602061ca968339815191528d0901010106016000528a82808060008051602061caf683398151915285099260008051602061c8d683398151915290098160008051602061ca168339815191528d098260008051602061cab68339815191528d098360008051602061c8568339815191528d0901010106016020528a82808060008051602061c83683398151915285099260008051602061c9b683398151915290098160008051602061c9568339815191528d098260008051602061c9168339815191528d098360008051602061c7d68339815191528d0901010106016080528a82808060008051602061c7f683398151915285099260008051602061c8f683398151915290098160008051602061c8968339815191528d098260008051602061ca768339815191528d098360008051602061cad68339815191528d09010101060160a05260008051602061c87683398151915290099860008051602061c81683398151915290099560008051602061c99683398151915290099360008051602061ca3683398151915290099160008051602061c9f68339815191529009010101060160c052565b6000517f22df22131aaab85865ce236b07f244fa0eea48d3546e97d6a32a562074fef08f016020517f0bf964d2dbd25b908708b437a445fc3e984524a59101e6c18bf5eb05a919f15501906080517f09b18d9b917a55bca302be1f7f181e0e640b9d73a9ab298c69b435b5fc502f320160a0517f094f5534444fae36a4bfc1d5bf3dc05bfbbbc70a6365366dd6745a5067289e43019260c0517f2999bab1a5f25210519fa6622af53a15a3e240c0da5701cb784fddc0dc23f01f0160008051602061c936833981519152808080808089818082819d09800909958a82808060008051602061c9d683398151915285099260008051602061c8b683398151915290098160008051602061ca568339815191528d098260008051602061c9768339815191528d098360008051602061ca968339815191528d0901010106016000528a82808060008051602061caf683398151915285099260008051602061c8d683398151915290098160008051602061ca168339815191528d098260008051602061cab68339815191528d098360008051602061c8568339815191528d0901010106016020528a82808060008051602061c83683398151915285099260008051602061c9b683398151915290098160008051602061c9568339815191528d098260008051602061c9168339815191528d098360008051602061c7d68339815191528d0901010106016080528a82808060008051602061c7f683398151915285099260008051602061c8f683398151915290098160008051602061c8968339815191528d098260008051602061ca768339815191528d098360008051602061cad68339815191528d09010101060160a05260008051602061c87683398151915290099860008051602061c81683398151915290099560008051602061c99683398151915290099360008051602061ca3683398151915290099160008051602061c9f68339815191529009010101060160c052565b6000517f2f6898c07581f6371ca94db73710e88084301bce8a93d13669575a11b03a3d23016020517f07268eaaba08bc19ec16d7e1318a4740565deb1e8e5742f862174b1a6866fccb01906080517f186279b003454db01339ff77113bc9eb62603e078e1c6689a6c9582c41a0529f0160a0517f18a3f736509197d6e4915bdd04d3e5ddb67e2cc5de9a22750768e5524737172c019260c0517f0a21fa1988cf38d877cc1e2ed24c808c725e2d4bcb2d3a007b5987b87085671d0160008051602061c936833981519152808080808089818082819d09800909958a82808060008051602061c9d683398151915285099260008051602061c8b683398151915290098160008051602061ca568339815191528d098260008051602061c9768339815191528d098360008051602061ca968339815191528d0901010106016000528a82808060008051602061caf683398151915285099260008051602061c8d683398151915290098160008051602061ca168339815191528d098260008051602061cab68339815191528d098360008051602061c8568339815191528d0901010106016020528a82808060008051602061c83683398151915285099260008051602061c9b683398151915290098160008051602061c9568339815191528d098260008051602061c9168339815191528d098360008051602061c7d68339815191528d0901010106016080528a82808060008051602061c7f683398151915285099260008051602061c8f683398151915290098160008051602061c8968339815191528d098260008051602061ca768339815191528d098360008051602061cad68339815191528d09010101060160a05260008051602061c87683398151915290099860008051602061c81683398151915290099560008051602061c99683398151915290099360008051602061ca3683398151915290099160008051602061c9f68339815191529009010101060160c052565b6000517f15b285cbe26c467f1faf5ef6a64625228328c184a2c43bc00b36a135e785fba2016020517f164b7062c4671cf08c08b8c3f9806d560b7775b7c902f5788cd28de3e779f16101906080517f0890ba0819ac0a6f86d9865fe7e50ef361c61d3d43b6e65d7a24f651249baa700160a0517f2fbea4d65d7ed425a42712e5a721e4eaa627ac5cb0eb878ccc2ee0aed543e922019260c0517f0492bf383c36fa55540303a3b536f85e7b70a58e854ab9b9103d7f5f379abaaa0160008051602061c936833981519152808080808089818082819d09800909958a82808060008051602061c9d683398151915285099260008051602061c8b683398151915290098160008051602061ca568339815191528d098260008051602061c9768339815191528d098360008051602061ca968339815191528d0901010106016000528a82808060008051602061caf683398151915285099260008051602061c8d683398151915290098160008051602061ca168339815191528d098260008051602061cab68339815191528d098360008051602061c8568339815191528d0901010106016020528a82808060008051602061c83683398151915285099260008051602061c9b683398151915290098160008051602061c9568339815191528d098260008051602061c9168339815191528d098360008051602061c7d68339815191528d0901010106016080528a82808060008051602061c7f683398151915285099260008051602061c8f683398151915290098160008051602061c8968339815191528d098260008051602061ca768339815191528d098360008051602061cad68339815191528d09010101060160a05260008051602061c87683398151915290099860008051602061c81683398151915290099560008051602061c99683398151915290099360008051602061ca3683398151915290099160008051602061c9f68339815191529009010101060160c052565b6000517f05e91fe944e944104e20251c565142d61d6185a9ce85675f6a969d56292dc24e016020517f12fe5c2029e4b33893d463cb041acad0995b9621e6e49c3b7e380a76e36e6c1c01906080517f024154adf0255d47958f7723921474131f2629fadc89496906cd01dc6fa0784e0160a0517f18824a09e6afaf4a36ed2462a86bd0bad798815644f2bbde8813c13457a45550019260c0517f0c8b482dba0ad51be9f255de0c3dbddddf84a630af68d50bbb06983e3d5d58a50160008051602061c936833981519152808080808089818082819d09800909958a82808060008051602061c9d683398151915285099260008051602061c8b683398151915290098160008051602061ca568339815191528d098260008051602061c9768339815191528d098360008051602061ca968339815191528d0901010106016000528a82808060008051602061caf683398151915285099260008051602061c8d683398151915290098160008051602061ca168339815191528d098260008051602061cab68339815191528d098360008051602061c8568339815191528d0901010106016020528a82808060008051602061c83683398151915285099260008051602061c9b683398151915290098160008051602061c9568339815191528d098260008051602061c9168339815191528d098360008051602061c7d68339815191528d0901010106016080528a82808060008051602061c7f683398151915285099260008051602061c8f683398151915290098160008051602061c8968339815191528d098260008051602061ca768339815191528d098360008051602061cad68339815191528d09010101060160a05260008051602061c87683398151915290099860008051602061c81683398151915290099560008051602061c99683398151915290099360008051602061ca3683398151915290099160008051602061c9f68339815191529009010101060160c052565b6000517f17325fd0ab635871363e0a1667d3b67c5a4fa67fcd6aaf86441392878fdb05e6016020517f050ae95f6d2f1519122f5af67b690f31e550773fa8d18bf71cc6d0e911fa402e01906080517f0f0d139a0e81e943038cb288d62636764bbb6295f07569885771ec84edc50c400160a0517f1c0f8697795689cdf70fd2f2c0f93d1a79b39ebc7a1b1c549dbbca7b8e747cd6019260c0517f2bd0f940ad936b796d2bc2e048bc979e49be23a4b13598f9fe536a16dc1d81e60160008051602061c936833981519152808080808089818082819d09800909958a82808060008051602061c9d683398151915285099260008051602061c8b683398151915290098160008051602061ca568339815191528d098260008051602061c9768339815191528d098360008051602061ca968339815191528d0901010106016000528a82808060008051602061caf683398151915285099260008051602061c8d683398151915290098160008051602061ca168339815191528d098260008051602061cab68339815191528d098360008051602061c8568339815191528d0901010106016020528a82808060008051602061c83683398151915285099260008051602061c9b683398151915290098160008051602061c9568339815191528d098260008051602061c9168339815191528d098360008051602061c7d68339815191528d0901010106016080528a82808060008051602061c7f683398151915285099260008051602061c8f683398151915290098160008051602061c8968339815191528d098260008051602061ca768339815191528d098360008051602061cad68339815191528d09010101060160a05260008051602061c87683398151915290099860008051602061c81683398151915290099560008051602061c99683398151915290099360008051602061ca3683398151915290099160008051602061c9f68339815191529009010101060160c052565b6000517f27eb1be27c9c4e934778c09a0053337fa06ebb275e096d167ce54d1e96ee62cb016020517f2e4889d830a67e5a8f96bdd3155a7ca3284fbd307d1f71b0f151be62548e2aea01906080517f193fe3db0ab47d3c5d2ec5e9c5bd9983c9891f2cadc165db6064bbe6fcc1e3050160a0517f2bf3086e96c36c7bce415907ad0c40ed6e9661c009679e4e37cb13027c83e525019260c0517f12f16e2de6d4ad46a98cdb697c6cad5dd5e7e413f741ccf29ff2ea486e59bb280160008051602061c936833981519152808080808089818082819d09800909958a82808060008051602061c9d683398151915285099260008051602061c8b683398151915290098160008051602061ca568339815191528d098260008051602061c9768339815191528d098360008051602061ca968339815191528d0901010106016000528a82808060008051602061caf683398151915285099260008051602061c8d683398151915290098160008051602061ca168339815191528d098260008051602061cab68339815191528d098360008051602061c8568339815191528d0901010106016020528a82808060008051602061c83683398151915285099260008051602061c9b683398151915290098160008051602061c9568339815191528d098260008051602061c9168339815191528d098360008051602061c7d68339815191528d0901010106016080528a82808060008051602061c7f683398151915285099260008051602061c8f683398151915290098160008051602061c8968339815191528d098260008051602061ca768339815191528d098360008051602061cad68339815191528d09010101060160a05260008051602061c87683398151915290099860008051602061c81683398151915290099560008051602061c99683398151915290099360008051602061ca3683398151915290099160008051602061c9f68339815191529009010101060160c052565b6000517f2a72147d230119f3a0262e3653ddd19f33f3d5d6ec6c4bf0ad919b0343b92d2f016020517f21be0e2c4bfd64e56dc47f957806dc5f0a2d9bcc26412e2977df79acc10ba97401906080517f0e2d7e1dc946d70b2749a3b54367b25a71b84fb911aa57ae137fd4b6c21b444a0160a0517f2667f7fb5a4fa1246170a745d8a4188cc31adb0eae3325dc9f3f07d4b92b3e2e019260c0517f2ccc6f431fb7400730a783b66064697a1550c12b08dfeb72830e107da78e34050160008051602061c936833981519152808080808089818082819d09800909958a82808060008051602061c9d683398151915285099260008051602061c8b683398151915290098160008051602061ca568339815191528d098260008051602061c9768339815191528d098360008051602061ca968339815191528d0901010106016000528a82808060008051602061caf683398151915285099260008051602061c8d683398151915290098160008051602061ca168339815191528d098260008051602061cab68339815191528d098360008051602061c8568339815191528d0901010106016020528a82808060008051602061c83683398151915285099260008051602061c9b683398151915290098160008051602061c9568339815191528d098260008051602061c9168339815191528d098360008051602061c7d68339815191528d0901010106016080528a82808060008051602061c7f683398151915285099260008051602061c8f683398151915290098160008051602061c8968339815191528d098260008051602061ca768339815191528d098360008051602061cad68339815191528d09010101060160a05260008051602061c87683398151915290099860008051602061c81683398151915290099560008051602061c99683398151915290099360008051602061ca3683398151915290099160008051602061c9f68339815191529009010101060160c052565b6000517f08888a94fc5a2ca34f0201462420001fae6dbee9e8ca0c242ec50621e38e6e5d016020517f02977b34eeaa3cb6ad40dd42c9b6fdd7a0d2fbe753af88b36acfcd3ccbc53f2a01906080517f120ccce13d28b75cfd6fb6c9ea13a648bfcfe0d7e6ff8e9610b5e9f971e16b9a0160a0517f09fad2269c4a8e93c81e1b9770ea098c92787a4575b2bd73a0bf2af32f86ff3c019260c0517f026091fd3d4c44d50a4b310e4ac6f0fa0debdb70775eeb8af630cffb60092d6f0160008051602061c936833981519152808080808089818082819d09800909958a82808060008051602061c9d683398151915285099260008051602061c8b683398151915290098160008051602061ca568339815191528d098260008051602061c9768339815191528d098360008051602061ca968339815191528d0901010106016000528a82808060008051602061caf683398151915285099260008051602061c8d683398151915290098160008051602061ca168339815191528d098260008051602061cab68339815191528d098360008051602061c8568339815191528d0901010106016020528a82808060008051602061c83683398151915285099260008051602061c9b683398151915290098160008051602061c9568339815191528d098260008051602061c9168339815191528d098360008051602061c7d68339815191528d0901010106016080528a82808060008051602061c7f683398151915285099260008051602061c8f683398151915290098160008051602061c8968339815191528d098260008051602061ca768339815191528d098360008051602061cad68339815191528d09010101060160a05260008051602061c87683398151915290099860008051602061c81683398151915290099560008051602061c99683398151915290099360008051602061ca3683398151915290099160008051602061c9f68339815191529009010101060160c052565b6000517f29404aa2ba565b77bb7fba9dfb6fc3212543cc56afad6afcb904fd2bca893994016020517f2749475c399aaf39d4e87c2548695b4ef1ffd86590e0827de7201351b7c883f901906080517f098c842322479f7239912b50424685cba2ebe2dc2e4da70ac7557dab65ffa2220160a0517f18cef581222b647e31238e57fead7d5c758ace14c93c4da40191d0c053b51936019260c0517f13177839c68a5080d4e746745e43711d3cbc0ca4a108f98d63b2aa681698de600160008051602061c936833981519152808080808089818082819d09800909958a82808060008051602061c9d683398151915285099260008051602061c8b683398151915290098160008051602061ca568339815191528d098260008051602061c9768339815191528d098360008051602061ca968339815191528d0901010106016000528a82808060008051602061caf683398151915285099260008051602061c8d683398151915290098160008051602061ca168339815191528d098260008051602061cab68339815191528d098360008051602061c8568339815191528d0901010106016020528a82808060008051602061c83683398151915285099260008051602061c9b683398151915290098160008051602061c9568339815191528d098260008051602061c9168339815191528d098360008051602061c7d68339815191528d0901010106016080528a82808060008051602061c7f683398151915285099260008051602061c8f683398151915290098160008051602061c8968339815191528d098260008051602061ca768339815191528d098360008051602061cad68339815191528d09010101060160a05260008051602061c87683398151915290099860008051602061c81683398151915290099560008051602061c99683398151915290099360008051602061ca3683398151915290099160008051602061c9f68339815191529009010101060160c052565b6000517f020ca696f531e43ec088f56f4b74325626cc4df712c0e5f0a907d88e5f0deffd016020517f27230eede9cccfc9fa805a30fc548db693d13708c646841d16e028387c7ac02201906080517f01645911c1198b01d64fde34a342a1786497c05969a015439057d2fe75bb281c0160a0517f2c323fe16481bf496e439c88341ce25f198971e14487056cfdca4a451a5d8643019260c0517f0fc082dfe70728e8450bd2074c3e22e1b022c124d3bffe8b5af88ae6db5085c80160008051602061c936833981519152808080808089818082819d09800909958a82808060008051602061c9d683398151915285099260008051602061c8b683398151915290098160008051602061ca568339815191528d098260008051602061c9768339815191528d098360008051602061ca968339815191528d0901010106016000528a82808060008051602061caf683398151915285099260008051602061c8d683398151915290098160008051602061ca168339815191528d098260008051602061cab68339815191528d098360008051602061c8568339815191528d0901010106016020528a82808060008051602061c83683398151915285099260008051602061c9b683398151915290098160008051602061c9568339815191528d098260008051602061c9168339815191528d098360008051602061c7d68339815191528d0901010106016080528a82808060008051602061c7f683398151915285099260008051602061c8f683398151915290098160008051602061c8968339815191528d098260008051602061ca768339815191528d098360008051602061cad68339815191528d09010101060160a05260008051602061c87683398151915290099860008051602061c81683398151915290099560008051602061c99683398151915290099360008051602061ca3683398151915290099160008051602061c9f68339815191529009010101060160c052565b6000517f2052c174800db209d8cdca568dcc25b3be9642116ac4c77efe8a488b423521ee016020517f28e420e10df2fbb5af96d621d55423190be351ce8129065a8dd9fd05b3ece9c001906080517f25698ca5e24a1b799f783c4462a24db655d6ae1bdacd1cb549d6e0bc3ae5069a0160a0517f160a9981a5c89a57cf8ffbfa57d51049a297b61074422ac134d9b857d6984d35019260c0517f21c91a39e145c3bc34d9b694b843f3bf8b7cebf59ddbb0a064642b069997f3d40160008051602061c936833981519152808080808089818082819d09800909958a82808060008051602061c9d683398151915285099260008051602061c8b683398151915290098160008051602061ca568339815191528d098260008051602061c9768339815191528d098360008051602061ca968339815191528d0901010106016000528a82808060008051602061caf683398151915285099260008051602061c8d683398151915290098160008051602061ca168339815191528d098260008051602061cab68339815191528d098360008051602061c8568339815191528d0901010106016020528a82808060008051602061c83683398151915285099260008051602061c9b683398151915290098160008051602061c9568339815191528d098260008051602061c9168339815191528d098360008051602061c7d68339815191528d0901010106016080528a82808060008051602061c7f683398151915285099260008051602061c8f683398151915290098160008051602061c8968339815191528d098260008051602061ca768339815191528d098360008051602061cad68339815191528d09010101060160a05260008051602061c87683398151915290099860008051602061c81683398151915290099560008051602061c99683398151915290099360008051602061ca3683398151915290099160008051602061c9f68339815191529009010101060160c052565b6000517f1ac8d80dcd5ee876d2b09345ef112345d6eaa029d93f03b6d10975461e41734c016020517f0ab3e6ad0ecf8b8e7c1662a4174c52225d822895e2755544b8dbcea5657ce02c01906080517f1c675182512620ae27e3b0b917b3a21ca52ef3ef5909b4e1c5b2237cbdab33770160a0517f2cdbc998dfd7affd3d948d0c85bad2e2e37a4a3e07a7d75d0c8a9092ac2bed45019260c0517f23b584a56e2117b0774bf67cc0dee33324337350309dff833e491a133bb63b2e0160008051602061c936833981519152808080808089818082819d09800909958a82808060008051602061c9d683398151915285099260008051602061c8b683398151915290098160008051602061ca568339815191528d098260008051602061c9768339815191528d098360008051602061ca968339815191528d0901010106016000528a82808060008051602061caf683398151915285099260008051602061c8d683398151915290098160008051602061ca168339815191528d098260008051602061cab68339815191528d098360008051602061c8568339815191528d0901010106016020528a82808060008051602061c83683398151915285099260008051602061c9b683398151915290098160008051602061c9568339815191528d098260008051602061c9168339815191528d098360008051602061c7d68339815191528d0901010106016080528a82808060008051602061c7f683398151915285099260008051602061c8f683398151915290098160008051602061c8968339815191528d098260008051602061ca768339815191528d098360008051602061cad68339815191528d09010101060160a05260008051602061c87683398151915290099860008051602061c81683398151915290099560008051602061c99683398151915290099360008051602061ca3683398151915290099160008051602061c9f68339815191529009010101060160c052565b6000517f1e9e2b310f60ba9f8cb73030a3c9d2a10d133bc6ba4ec1152f3d20de1465e9a5016020517f0e01e365ba5b3031abc3e720140ae746c9ab5dab987520c460bcd4f1fa5b22db01906080517f040884cdcfc64bfc7b7127340498d5c443382011b61c9a4b1387d85bc1264e680160a0517f190b1ee1205eb9500c74a3998f2bea36353f1724d6067ed0a0a17de311ef9668019260c0517f1647c72aec6c4388d04f52fc23cd9c08c1dfcf65ce61e165fc28d1f832bd3b2c0160008051602061c936833981519152808080808089818082819d09800909958a82808060008051602061c9d683398151915285099260008051602061c8b683398151915290098160008051602061ca568339815191528d098260008051602061c9768339815191528d098360008051602061ca968339815191528d0901010106016000528a82808060008051602061caf683398151915285099260008051602061c8d683398151915290098160008051602061ca168339815191528d098260008051602061cab68339815191528d098360008051602061c8568339815191528d0901010106016020528a82808060008051602061c83683398151915285099260008051602061c9b683398151915290098160008051602061c9568339815191528d098260008051602061c9168339815191528d098360008051602061c7d68339815191528d0901010106016080528a82808060008051602061c7f683398151915285099260008051602061c8f683398151915290098160008051602061c8968339815191528d098260008051602061ca768339815191528d098360008051602061cad68339815191528d09010101060160a05260008051602061c87683398151915290099860008051602061c81683398151915290099560008051602061c99683398151915290099360008051602061ca3683398151915290099160008051602061c9f68339815191529009010101060160c052565b6000517f2430006346a0145f799880cc4c8736269f5494d89fb48b02842e595b71e4541d016020517f177b9a08343917e1365107a3da3ae7f69d853902bb16bacb3221850252b757af01906080517f04a420e642b11ae94e58862a68f5e32609cd53d0ae29423439b11d04666df4f80160a0517f25d0e0f739fb39fc105a88fab0afd810de2461858e956ccccdfabeddb6a25c8f019260c0517f04476d91b7eff2fd85905cbf58651edc320cb15610eaed452c4d4ffa0c740a270160008051602061c936833981519152808080808089818082819d09800909958a82808060008051602061c9d683398151915285099260008051602061c8b683398151915290098160008051602061ca568339815191528d098260008051602061c9768339815191528d098360008051602061ca968339815191528d0901010106016000528a82808060008051602061caf683398151915285099260008051602061c8d683398151915290098160008051602061ca168339815191528d098260008051602061cab68339815191528d098360008051602061c8568339815191528d0901010106016020528a82808060008051602061c83683398151915285099260008051602061c9b683398151915290098160008051602061c9568339815191528d098260008051602061c9168339815191528d098360008051602061c7d68339815191528d0901010106016080528a82808060008051602061c7f683398151915285099260008051602061c8f683398151915290098160008051602061c8968339815191528d098260008051602061ca768339815191528d098360008051602061cad68339815191528d09010101060160a05260008051602061c87683398151915290099860008051602061c81683398151915290099560008051602061c99683398151915290099360008051602061ca3683398151915290099160008051602061c9f68339815191529009010101060160c052565b6000517f1090c0b68b3d7d7b8bc9ca2419eb8dea1c28f6d5e1250cb5e9780fd9ca286fae016020517f25393ce3b9256d50448a725c5c7cd5ad376f2d435855c10ebf2899cb5c6617be01906080517f25931c0c7371f4f1fc862f306e6e5830ed824388d6b9342697d144f0fab466300160a0517f2396cb501700bbe6c82aad51b0fb79cf8a4d353185d5808203f73f22afbf62f6019260c0517f26a363483348b58954ea748a7129a7b0a3dc9068c3cca7b5b3f0ce03b87248840160008051602061c936833981519152808080808089818082819d09800909958a82808060008051602061c9d683398151915285099260008051602061c8b683398151915290098160008051602061ca568339815191528d098260008051602061c9768339815191528d098360008051602061ca968339815191528d0901010106016000528a82808060008051602061caf683398151915285099260008051602061c8d683398151915290098160008051602061ca168339815191528d098260008051602061cab68339815191528d098360008051602061c8568339815191528d0901010106016020528a82808060008051602061c83683398151915285099260008051602061c9b683398151915290098160008051602061c9568339815191528d098260008051602061c9168339815191528d098360008051602061c7d68339815191528d0901010106016080528a82808060008051602061c7f683398151915285099260008051602061c8f683398151915290098160008051602061c8968339815191528d098260008051602061ca768339815191528d098360008051602061cad68339815191528d09010101060160a05260008051602061c87683398151915290099860008051602061c81683398151915290099560008051602061c99683398151915290099360008051602061ca3683398151915290099160008051602061c9f68339815191529009010101060160c052565b6000517f27ca107ca204f2a18d6f1535b92c5478c99b893334215f6ba7a0e5b45fcd6897016020517f26da28fc097ed77ce4662bde326b2cceac15f7301178581d8d2d02b3b2d9105601906080517f056ab351691d8bb3703e3055070ac9cc655774c1bb35d57572971ba56ee0cb890160a0517f2638b57f23b754aec76d109a2f481aa3c22547a11ffc50152d729af632376a90019260c0517f304754bb8c57d60732f492c2605184fdc33e46a532bdec80ea7bc5519ede7cef0160008051602061c936833981519152808080808089818082819d09800909958a82808060008051602061c9d683398151915285099260008051602061c8b683398151915290098160008051602061ca568339815191528d098260008051602061c9768339815191528d098360008051602061ca968339815191528d0901010106016000528a82808060008051602061caf683398151915285099260008051602061c8d683398151915290098160008051602061ca168339815191528d098260008051602061cab68339815191528d098360008051602061c8568339815191528d0901010106016020528a82808060008051602061c83683398151915285099260008051602061c9b683398151915290098160008051602061c9568339815191528d098260008051602061c9168339815191528d098360008051602061c7d68339815191528d0901010106016080528a82808060008051602061c7f683398151915285099260008051602061c8f683398151915290098160008051602061c8968339815191528d098260008051602061ca768339815191528d098360008051602061cad68339815191528d09010101060160a05260008051602061c87683398151915290099860008051602061c81683398151915290099560008051602061c99683398151915290099360008051602061ca3683398151915290099160008051602061c9f68339815191529009010101060160c052565b6000517ed1727f8457ee03514f155b5806cbf748ec6857fc554010752ac93a9b7619ac016020517eee1f3c66fbc05c43ba295a303c72fab5bca86805ec9419c588e50947761fa301906080517f0afafadcf5b4dd4a4a76b5a1d82415fd10a19fbcfc59078c61f9297eb675d9720160a0517f0b2449f39746085e86ce45e8eed108ee65a234835a0a6a5ea8996d124dd04d0a019260c0517f206b0ce2f1b2c5b7c9f37b0045227095f6c6f071ec3bdda76a7ddf4823dd5dd60160008051602061c936833981519152808080808089818082819d09800909958a82808060008051602061c9d683398151915285099260008051602061c8b683398151915290098160008051602061ca568339815191528d098260008051602061c9768339815191528d098360008051602061ca968339815191528d0901010106016000528a82808060008051602061caf683398151915285099260008051602061c8d683398151915290098160008051602061ca168339815191528d098260008051602061cab68339815191528d098360008051602061c8568339815191528d0901010106016020528a82808060008051602061c83683398151915285099260008051602061c9b683398151915290098160008051602061c9568339815191528d098260008051602061c9168339815191528d098360008051602061c7d68339815191528d0901010106016080528a82808060008051602061c7f683398151915285099260008051602061c8f683398151915290098160008051602061c8968339815191528d098260008051602061ca768339815191528d098360008051602061cad68339815191528d09010101060160a05260008051602061c87683398151915290099860008051602061c81683398151915290099560008051602061c99683398151915290099360008051602061ca3683398151915290099160008051602061c9f68339815191529009010101060160c052565b6000517f0feba4fb87834c7cb696e67433628cd6caffc3a4ef20fea852c7e1029459409c016020517f254dbfac74c49b0b8926752e084e02513b06f1315e6d70e18173e972336e55d301906080517f0addb1372cee4e164655168c367559e19606c5bd17910aeb37719edfa0ca87620160a0517f26b25b7e257f3e97c799024fb019f65c6ca4d8d81b1ae16221a589d68831d759019260c0517f090995b79acec240413b8d4c658787e5a4657b9ab00bdb5b1960b1059e113ba30160008051602061c936833981519152808080808089818082819d09800909958a82808060008051602061c9d683398151915285099260008051602061c8b683398151915290098160008051602061ca568339815191528d098260008051602061c9768339815191528d098360008051602061ca968339815191528d0901010106016000528a82808060008051602061caf683398151915285099260008051602061c8d683398151915290098160008051602061ca168339815191528d098260008051602061cab68339815191528d098360008051602061c8568339815191528d0901010106016020528a82808060008051602061c83683398151915285099260008051602061c9b683398151915290098160008051602061c9568339815191528d098260008051602061c9168339815191528d098360008051602061c7d68339815191528d0901010106016080528a82808060008051602061c7f683398151915285099260008051602061c8f683398151915290098160008051602061c8968339815191528d098260008051602061ca768339815191528d098360008051602061cad68339815191528d09010101060160a05260008051602061c87683398151915290099860008051602061c81683398151915290099560008051602061c99683398151915290099360008051602061ca3683398151915290099160008051602061c9f68339815191529009010101060160c052565b6000517f08dbdc2e21ef11f2c57299687843cea3eb0d8e40e99131f42974178d44f73b7b016020517f09e8aba671481197679faf752a0f78e342fe9c491596ab6758f170939785179f01906080517f1deb05180e833e45659052a7ebaf816c7efd12a7f9eec94b7bc7c683f1363d5c0160a0517f19a70ec6bdfc9098a926efbcc04aa9ee248997e8b2c24af335fd6523e5250879019260c0517f21d773660adafb8a879986f9aab4890566353a3777d8a3f1eb93abe10bbf1f640160008051602061c936833981519152808080808089818082819d09800909958a82808060008051602061c9d683398151915285099260008051602061c8b683398151915290098160008051602061ca568339815191528d098260008051602061c9768339815191528d098360008051602061ca968339815191528d0901010106016000528a82808060008051602061caf683398151915285099260008051602061c8d683398151915290098160008051602061ca168339815191528d098260008051602061cab68339815191528d098360008051602061c8568339815191528d0901010106016020528a82808060008051602061c83683398151915285099260008051602061c9b683398151915290098160008051602061c9568339815191528d098260008051602061c9168339815191528d098360008051602061c7d68339815191528d0901010106016080528a82808060008051602061c7f683398151915285099260008051602061c8f683398151915290098160008051602061c8968339815191528d098260008051602061ca768339815191528d098360008051602061cad68339815191528d09010101060160a05260008051602061c87683398151915290099860008051602061c81683398151915290099560008051602061c99683398151915290099360008051602061ca3683398151915290099160008051602061c9f68339815191529009010101060160c052565b6000517f09f1890f72e9dc713e20ba637b89d5d397a6b01fcd667347f6f46617841c3901016020517f05af459361eb454d2a300c61e446998d48fa1f897bf219d608c2145c33b111c301906080517f0fa1a1d6829f0345664a66dc75a657335f336f15f340756cfa12fc850cc8b5130160a0517f02e47a35bcc0c3a0bda0b1c0307ad543f4280fcf87f636f853655cf97a628bb0019260c0517f14f773e9834c6bdeb8f90e78bf4c24b7203411460112491036621895204d0f120160008051602061c936833981519152808080808089818082819d09800909958a82808060008051602061c9d683398151915285099260008051602061c8b683398151915290098160008051602061ca568339815191528d098260008051602061c9768339815191528d098360008051602061ca968339815191528d0901010106016000528a82808060008051602061caf683398151915285099260008051602061c8d683398151915290098160008051602061ca168339815191528d098260008051602061cab68339815191528d098360008051602061c8568339815191528d0901010106016020528a82808060008051602061c83683398151915285099260008051602061c9b683398151915290098160008051602061c9568339815191528d098260008051602061c9168339815191528d098360008051602061c7d68339815191528d0901010106016080528a82808060008051602061c7f683398151915285099260008051602061c8f683398151915290098160008051602061c8968339815191528d098260008051602061ca768339815191528d098360008051602061cad68339815191528d09010101060160a05260008051602061c87683398151915290099860008051602061c81683398151915290099560008051602061c99683398151915290099360008051602061ca3683398151915290099160008051602061c9f68339815191529009010101060160c052565b6000517f102d98cf502ed843255cf19d29bc7d8e642abe7cfd639992ffb091962fc8f7cc016020517f043dd5f4aa5a76dd4c47f6c65da7ca2320d4c73ad3294738cba686a7e91373c201906080517f21833819c3337194a6c0d29a48d4f2676f0e7c79743a306f4cfdb2b26bd11efa0160a0517f0f281925cf5ee649b474a6819d116ca3eb4eca246c311ecadc53262a3cff2b53019260c0517f0d3e2477a7b10beb44709c7746d6824edf625dd60504d5dc93ce662f15c238d60160008051602061c936833981519152808080808089818082819d09800909958a82808060008051602061c9d683398151915285099260008051602061c8b683398151915290098160008051602061ca568339815191528d098260008051602061c9768339815191528d098360008051602061ca968339815191528d0901010106016000528a82808060008051602061caf683398151915285099260008051602061c8d683398151915290098160008051602061ca168339815191528d098260008051602061cab68339815191528d098360008051602061c8568339815191528d0901010106016020528a82808060008051602061c83683398151915285099260008051602061c9b683398151915290098160008051602061c9568339815191528d098260008051602061c9168339815191528d098360008051602061c7d68339815191528d0901010106016080528a82808060008051602061c7f683398151915285099260008051602061c8f683398151915290098160008051602061c8968339815191528d098260008051602061ca768339815191528d098360008051602061cad68339815191528d09010101060160a05260008051602061c87683398151915290099860008051602061c81683398151915290099560008051602061c99683398151915290099360008051602061ca3683398151915290099160008051602061c9f68339815191529009010101060160c052565b6000517f2cd7f641bedbf66956ff8a01be9cde35d80f80ab51e73b49acbfc3eff5aefc44016020517f29e95b492bf2f95f4d09380f98b74e389149d24045811d7a86dd861310463cf801906080517f22da66bc62e8f011266efca86a6c810f9ae4c51af6ffeb57f8b3c50df83cc13e0160a0517f0fe6d30de7a82d163023491794f4aca3220db79e8129df3643072d841925554a019260c0517e50e842a1299909123c46eff185c23ad312d03fef1adfecc7e07ecb298fd67f0160008051602061c936833981519152808080808089818082819d09800909958a82808060008051602061c9d683398151915285099260008051602061c8b683398151915290098160008051602061ca568339815191528d098260008051602061c9768339815191528d098360008051602061ca968339815191528d0901010106016000528a82808060008051602061caf683398151915285099260008051602061c8d683398151915290098160008051602061ca168339815191528d098260008051602061cab68339815191528d098360008051602061c8568339815191528d0901010106016020528a82808060008051602061c83683398151915285099260008051602061c9b683398151915290098160008051602061c9568339815191528d098260008051602061c9168339815191528d098360008051602061c7d68339815191528d0901010106016080528a82808060008051602061c7f683398151915285099260008051602061c8f683398151915290098160008051602061c8968339815191528d098260008051602061ca768339815191528d098360008051602061cad68339815191528d09010101060160a05260008051602061c87683398151915290099860008051602061c81683398151915290099560008051602061c99683398151915290099360008051602061ca3683398151915290099160008051602061c9f68339815191529009010101060160c052565b6000517f2130a3a7b3221222be34cc53a42d7733666f9ddf714ed7c5885cbbdb63108c21016020517f2df9ee294edf99e3d8d5883fe0566c24aa66731f34a93280e1d328e67b33c9fa01906080517f1bf7d6e489ad8c0cf26eb68cc21ff54158132396dc250aeba4b6fc5fc33727620160a0517f0c602fa155be958761eaf739617ab136cf7b807728bf7fe35d4778d311780e54019260c0517f2e50e2c5b36aa20532407d86b8d22d7d5154080a24972faeb63faf0121ed7f210160008051602061c936833981519152808080808089818082819d09800909958a82808060008051602061c9d683398151915285099260008051602061c8b683398151915290098160008051602061ca568339815191528d098260008051602061c9768339815191528d098360008051602061ca968339815191528d0901010106016000528a82808060008051602061caf683398151915285099260008051602061c8d683398151915290098160008051602061ca168339815191528d098260008051602061cab68339815191528d098360008051602061c8568339815191528d0901010106016020528a82808060008051602061c83683398151915285099260008051602061c9b683398151915290098160008051602061c9568339815191528d098260008051602061c9168339815191528d098360008051602061c7d68339815191528d0901010106016080528a82808060008051602061c7f683398151915285099260008051602061c8f683398151915290098160008051602061c8968339815191528d098260008051602061ca768339815191528d098360008051602061cad68339815191528d09010101060160a05260008051602061c87683398151915290099860008051602061c81683398151915290099560008051602061c99683398151915290099360008051602061ca3683398151915290099160008051602061c9f68339815191529009010101060160c052565b6000517f17c2510982a7b5825710d6290ec4f782f674995ee8409b42b459123b180332e1016020517f0b0d52f03c8af7276803ecf2465b885b21337b538eabd2f6b2ab255f376b42a801906080517f0f5633df1972b9455953d88a63f80647a9ac77c6c0f85d4561972dd8fab8bd140160a0517f0ebf7ad29ca13804e1422e939681155124780ff43e76e929035498130a7f1572019260c0517f1aff13c81bda47e80b02962173bba343e18f94bee27c8a57661b1103a720ffe20160008051602061c936833981519152808080808089818082819d09800909958a82808060008051602061c9d683398151915285099260008051602061c8b683398151915290098160008051602061ca568339815191528d098260008051602061c9768339815191528d098360008051602061ca968339815191528d0901010106016000528a82808060008051602061caf683398151915285099260008051602061c8d683398151915290098160008051602061ca168339815191528d098260008051602061cab68339815191528d098360008051602061c8568339815191528d0901010106016020528a82808060008051602061c83683398151915285099260008051602061c9b683398151915290098160008051602061c9568339815191528d098260008051602061c9168339815191528d098360008051602061c7d68339815191528d0901010106016080528a82808060008051602061c7f683398151915285099260008051602061c8f683398151915290098160008051602061c8968339815191528d098260008051602061ca768339815191528d098360008051602061cad68339815191528d09010101060160a05260008051602061c87683398151915290099860008051602061c81683398151915290099560008051602061c99683398151915290099360008051602061ca3683398151915290099160008051602061c9f68339815191529009010101060160c052565b6000517f210449dbf5cf3061da2465be85505862d3f31de1a3b58ff35713be57efac6c07016020517f088230c2794e50c57d75cd6d3c7b9dbe19d1e2f1d3001044b93ad1c3ee62981701906080517f1c408c256490b0a1da08dc464138dfc78cce9a9e16c7705617a4d6dbb20e7e3a0160a0517f074517e081eb4c1f22d1771200fb07658f7c77654d58440490dd6f557e9e3903019260c0517f02d04e9c21df1dbd88524bdb203691b4cee5530559d6cf0fa05adf61e12fdcbf0160008051602061c936833981519152808080808089818082819d09800909958a82808060008051602061c9d683398151915285099260008051602061c8b683398151915290098160008051602061ca568339815191528d098260008051602061c9768339815191528d098360008051602061ca968339815191528d0901010106016000528a82808060008051602061caf683398151915285099260008051602061c8d683398151915290098160008051602061ca168339815191528d098260008051602061cab68339815191528d098360008051602061c8568339815191528d0901010106016020528a82808060008051602061c83683398151915285099260008051602061c9b683398151915290098160008051602061c9568339815191528d098260008051602061c9168339815191528d098360008051602061c7d68339815191528d0901010106016080528a82808060008051602061c7f683398151915285099260008051602061c8f683398151915290098160008051602061c8968339815191528d098260008051602061ca768339815191528d098360008051602061cad68339815191528d09010101060160a05260008051602061c87683398151915290099860008051602061c81683398151915290099560008051602061c99683398151915290099360008051602061ca3683398151915290099160008051602061c9f68339815191529009010101060160c052565b6000517f2eb7a011b8bce91082e13ebd75de3b58eb9b4650dae9f11aa81db32cf1b67b13016020517f2efda77ed35f4af0299f75d6e8a849b54d2ac6bf95368304e6030c18f0cf17b501906080517f09199dcafd50ce642eddbeda65206d4f61a73d10852b8114c51b2440192ae0640160a0517f268c5cfc446d399c4dd319db666a75b5cb655d8c1797e9fa76181cb4216e1562019260c0517f2303a652c949071826b0e9a36c80578697b44e912cce6687012854eda11a18dc0160008051602061c936833981519152808080808089818082819d09800909958a82808060008051602061c9d683398151915285099260008051602061c8b683398151915290098160008051602061ca568339815191528d098260008051602061c9768339815191528d098360008051602061ca968339815191528d0901010106016000528a82808060008051602061caf683398151915285099260008051602061c8d683398151915290098160008051602061ca168339815191528d098260008051602061cab68339815191528d098360008051602061c8568339815191528d0901010106016020528a82808060008051602061c83683398151915285099260008051602061c9b683398151915290098160008051602061c9568339815191528d098260008051602061c9168339815191528d098360008051602061c7d68339815191528d0901010106016080528a82808060008051602061c7f683398151915285099260008051602061c8f683398151915290098160008051602061c8968339815191528d098260008051602061ca768339815191528d098360008051602061cad68339815191528d09010101060160a05260008051602061c87683398151915290099860008051602061c81683398151915290099560008051602061c99683398151915290099360008051602061ca3683398151915290099160008051602061c9f68339815191529009010101060160c052565b6000517f27c53563b12a6ee2c3f041f31dc45922bc5353eb110868d237073f4efb35fbdf016020517f1201a87eaf4ae618f02bd82d0a5109049969b5248cfe90f42c278f22615d2b0e01906080517f2c43169439fcd69ead8214997bb069becafcb1ba2c51e5706cb4b43dab2a443d0160a0517f0683597315359040ea03c45d6984c6894f46cbb36d702e3c4fb9847e6304d944019260c0517f03545706706eab36afb93b128febd16fb0425e158314197b77795ad3a798d1830160008051602061c936833981519152808080808089818082819d09800909958a82808060008051602061c9d683398151915285099260008051602061c8b683398151915290098160008051602061ca568339815191528d098260008051602061c9768339815191528d098360008051602061ca968339815191528d0901010106016000528a82808060008051602061caf683398151915285099260008051602061c8d683398151915290098160008051602061ca168339815191528d098260008051602061cab68339815191528d098360008051602061c8568339815191528d0901010106016020528a82808060008051602061c83683398151915285099260008051602061c9b683398151915290098160008051602061c9568339815191528d098260008051602061c9168339815191528d098360008051602061c7d68339815191528d0901010106016080528a82808060008051602061c7f683398151915285099260008051602061c8f683398151915290098160008051602061c8968339815191528d098260008051602061ca768339815191528d098360008051602061cad68339815191528d09010101060160a05260008051602061c87683398151915290099860008051602061c81683398151915290099560008051602061c99683398151915290099360008051602061ca3683398151915290099160008051602061c9f68339815191529009010101060160c052565b6000517f1a33c254ec117619d35f1fc051b31728740bed23a6a37870edb393b71a0c0e6b016020517f1ffe6968a4470cd567b0c002281caf996e88f71e759b87e6f338e517f1690c7801906080517f0fd66e03ba8808ffecb059c899fd80f4140ddd5d2a5c4483107f4e02e355b3930160a0517f263ab69f13b966f8197394552906b17e6c8617a7bdd5d74a7be3396b7fe013ab019260c0517f16a425e47d1110625054d5a165de413e3bd87d5aa3958fdd6eb7e03e39ba40460160008051602061c936833981519152808080808089818082819d09800909958a82808060008051602061c9d683398151915285099260008051602061c8b683398151915290098160008051602061ca568339815191528d098260008051602061c9768339815191528d098360008051602061ca968339815191528d0901010106016000528a82808060008051602061caf683398151915285099260008051602061c8d683398151915290098160008051602061ca168339815191528d098260008051602061cab68339815191528d098360008051602061c8568339815191528d0901010106016020528a82808060008051602061c83683398151915285099260008051602061c9b683398151915290098160008051602061c9568339815191528d098260008051602061c9168339815191528d098360008051602061c7d68339815191528d0901010106016080528a82808060008051602061c7f683398151915285099260008051602061c8f683398151915290098160008051602061c8968339815191528d098260008051602061ca768339815191528d098360008051602061cad68339815191528d09010101060160a05260008051602061c87683398151915290099860008051602061c81683398151915290099560008051602061c99683398151915290099360008051602061ca3683398151915290099160008051602061c9f68339815191529009010101060160c052565b6000517f2dc510a4719ec10cad752f03c673f0e253cc31d13e39e909fcc5f73af9138d9a016020517f24df8e8d856c5b5e1bd1cad23d07dda3423c5179329b7a82cb4aa709a94576e501906080517f2bcc94ff4fc3c76f3cd5c68915a042e87628249a01b09561bdf24a6cdce5620f0160a0517f076c1e88dc540c8d8de54e343df7c429d3295f52c38cffe6b48be86852da97df019260c0517f09b5f209a451ac431c051fb12d9a5e4fe40ee1601120947da990fb8e12cb46e10160008051602061c936833981519152808080808089818082819d09800909958a82808060008051602061c9d683398151915285099260008051602061c8b683398151915290098160008051602061ca568339815191528d098260008051602061c9768339815191528d098360008051602061ca968339815191528d0901010106016000528a82808060008051602061caf683398151915285099260008051602061c8d683398151915290098160008051602061ca168339815191528d098260008051602061cab68339815191528d098360008051602061c8568339815191528d0901010106016020528a82808060008051602061c83683398151915285099260008051602061c9b683398151915290098160008051602061c9568339815191528d098260008051602061c9168339815191528d098360008051602061c7d68339815191528d0901010106016080528a82808060008051602061c7f683398151915285099260008051602061c8f683398151915290098160008051602061c8968339815191528d098260008051602061ca768339815191528d098360008051602061cad68339815191528d09010101060160a05260008051602061c87683398151915290099860008051602061c81683398151915290099560008051602061c99683398151915290099360008051602061ca3683398151915290099160008051602061c9f68339815191529009010101060160c052565b6000517f205f17b0d8729e2eaa88d6a44135a6ab64e9424f55b0f1ea0683af75eb677c07016020517f281c5c688836f6cf912638c38be046cd091681f0a41761720cdd1edf9f23702901906080517f1a053e6878e900f45f4d67448c471cf3009a44e7a02ea50e4afa44f2592621f50160a0517f100dc7d426debe3007fb7ceac84e4f5468efcb897e7bbee981742839d59e064c019260c0517f17022672a016a957bb87e2cfadc8b75fb28905bdb62c82c80b1cb31b411e49c80160008051602061c936833981519152808080808089818082819d09800909958a82808060008051602061c9d683398151915285099260008051602061c8b683398151915290098160008051602061ca568339815191528d098260008051602061c9768339815191528d098360008051602061ca968339815191528d0901010106016000528a82808060008051602061caf683398151915285099260008051602061c8d683398151915290098160008051602061ca168339815191528d098260008051602061cab68339815191528d098360008051602061c8568339815191528d0901010106016020528a82808060008051602061c83683398151915285099260008051602061c9b683398151915290098160008051602061c9568339815191528d098260008051602061c9168339815191528d098360008051602061c7d68339815191528d0901010106016080528a82808060008051602061c7f683398151915285099260008051602061c8f683398151915290098160008051602061c8968339815191528d098260008051602061ca768339815191528d098360008051602061cad68339815191528d09010101060160a05260008051602061c87683398151915290099860008051602061c81683398151915290099560008051602061c99683398151915290099360008051602061ca3683398151915290099160008051602061c9f68339815191529009010101060160c052565b6000517f1086db7e2760fc8b71053a87ebe151239fb8b547182b170de0c27203f954f4d2016020517f15384fe39d73b63302460ae4c2942fac2b41fb65a185536fb85dd24fd758406401906080517f2ebb599fe9136d424bf4abc5342c6c7447b1a853205fcfb5519e5513577090080160a0517f1b4b5e87cfb9262cfec3c0f0542e4c5a4cf278292b4ce3eed996fac6f4d37288019260c0517f2465053ae50b6885801f3f82e302cafbbb4a7581bb4fba60b637febe659e50570160008051602061c936833981519152808080808089818082819d09800909958a82808060008051602061c9d683398151915285099260008051602061c8b683398151915290098160008051602061ca568339815191528d098260008051602061c9768339815191528d098360008051602061ca968339815191528d0901010106016000528a82808060008051602061caf683398151915285099260008051602061c8d683398151915290098160008051602061ca168339815191528d098260008051602061cab68339815191528d098360008051602061c8568339815191528d0901010106016020528a82808060008051602061c83683398151915285099260008051602061c9b683398151915290098160008051602061c9568339815191528d098260008051602061c9168339815191528d098360008051602061c7d68339815191528d0901010106016080528a82808060008051602061c7f683398151915285099260008051602061c8f683398151915290098160008051602061c8968339815191528d098260008051602061ca768339815191528d098360008051602061cad68339815191528d09010101060160a05260008051602061c87683398151915290099860008051602061c81683398151915290099560008051602061c99683398151915290099360008051602061ca3683398151915290099160008051602061c9f68339815191529009010101060160c052565b6000517f114f32edcdea09cd095c5bb5d38f1b97da9f05e18b3708bf6e0ab9d3d54859ef016020517f2bc70dfeb2baab2f6b387cd77be779ac2e5e5519f3d18123ee28d8c2543c714801906080517f01c9bf7a203ce22b775e3a61ad7e77b6a78348b9f6ec68a412e49bfe32c054150160a0517f0514b0fe5909ea887bedb0295fbbcec355cfb575ff6a97cd9f4ad00ccb57ee9b019260c0517f267c76ec81934cc81a132a8b058910a12092520b12a201af03e3202d7b6c1b7e0160008051602061c936833981519152808080808089818082819d09800909958a82808060008051602061c9d683398151915285099260008051602061c8b683398151915290098160008051602061ca568339815191528d098260008051602061c9768339815191528d098360008051602061ca968339815191528d0901010106016000528a82808060008051602061caf683398151915285099260008051602061c8d683398151915290098160008051602061ca168339815191528d098260008051602061cab68339815191528d098360008051602061c8568339815191528d0901010106016020528a82808060008051602061c83683398151915285099260008051602061c9b683398151915290098160008051602061c9568339815191528d098260008051602061c9168339815191528d098360008051602061c7d68339815191528d0901010106016080528a82808060008051602061c7f683398151915285099260008051602061c8f683398151915290098160008051602061c8968339815191528d098260008051602061ca768339815191528d098360008051602061cad68339815191528d09010101060160a05260008051602061c87683398151915290099860008051602061c81683398151915290099560008051602061c99683398151915290099360008051602061ca3683398151915290099160008051602061c9f68339815191529009010101060160c052565b6000517f29170e3322b3d8d5c78c84babbb470adf1622493ce83e95cfb151cf757bde5d6016020517f019f6a8124b19e33af33e5d3873f9c335c6f09a45486cab536dd596ca41d951901906080517f1904aa4d6908544a8b348e9db1981c27009ed8ea171518ae5405d036242b60e90160a0517f26f17873949bc679f7f043956694e422b3cee1de9dd6f6473b932a476455ff1a019260c0517f1ac668f612b8243c193b33720b8aa54040c476031197131ebdcac9b18bc48f750160008051602061c936833981519152808080808089818082819d09800909958a82808060008051602061c9d683398151915285099260008051602061c8b683398151915290098160008051602061ca568339815191528d098260008051602061c9768339815191528d098360008051602061ca968339815191528d0901010106016000528a82808060008051602061caf683398151915285099260008051602061c8d683398151915290098160008051602061ca168339815191528d098260008051602061cab68339815191528d098360008051602061c8568339815191528d0901010106016020528a82808060008051602061c83683398151915285099260008051602061c9b683398151915290098160008051602061c9568339815191528d098260008051602061c9168339815191528d098360008051602061c7d68339815191528d0901010106016080528a82808060008051602061c7f683398151915285099260008051602061c8f683398151915290098160008051602061c8968339815191528d098260008051602061ca768339815191528d098360008051602061cad68339815191528d09010101060160a05260008051602061c87683398151915290099860008051602061c81683398151915290099560008051602061c99683398151915290099360008051602061ca3683398151915290099160008051602061c9f68339815191529009010101060160c052565b6000517f0996d961a75c0d07196dae45bf624766ccfbf8555be9796da52f81568ef0663d016020517f030c97e1b8cad1d4fd50d1b4383fbe6674d171f99c63febb5425b395c24fc81901906080517f06e3ad6a46900e2d3953370255b68f89b3e523f1fe502642ee226f2d8bd0848f0160a0517f1d6b3755331cd0216b6880e42f9880f565cb94b0e0455153a329890588cc916e019260c0517f28e4dcba4b96f12a59b041535e730ac8c35189dc0b85ac033dd38c08bae531f20160008051602061c936833981519152808080808089818082819d09800909958a82808060008051602061c9d683398151915285099260008051602061c8b683398151915290098160008051602061ca568339815191528d098260008051602061c9768339815191528d098360008051602061ca968339815191528d0901010106016000528a82808060008051602061caf683398151915285099260008051602061c8d683398151915290098160008051602061ca168339815191528d098260008051602061cab68339815191528d098360008051602061c8568339815191528d0901010106016020528a82808060008051602061c83683398151915285099260008051602061c9b683398151915290098160008051602061c9568339815191528d098260008051602061c9168339815191528d098360008051602061c7d68339815191528d0901010106016080528a82808060008051602061c7f683398151915285099260008051602061c8f683398151915290098160008051602061c8968339815191528d098260008051602061ca768339815191528d098360008051602061cad68339815191528d09010101060160a05260008051602061c87683398151915290099860008051602061c81683398151915290099560008051602061c99683398151915290099360008051602061ca3683398151915290099160008051602061c9f68339815191529009010101060160c052565b6000517f08b6086046a835508ccf484f2974b6a6b0712a476260376c7a3b3e4bc4a47a14016020517f162cd2ca7fe3b5f1444bcec97812019bb6fd85fba6a0536a89643e15b9bb3b5201906080517f28f1e03baaea9bbc05af5b11937e4f5cb5c9a9c1192063d1998c01c64d483a760160a0517f1bdb062778d7c15da395af2734c25faa0127d2aab4aa71366031a0bb6791ce10019260c0517f2375839502e09890cb2914e829627e0e0fc98870b2324a8b50329ebdd24749cb0160008051602061c936833981519152808080808089818082819d09800909958a82808060008051602061c9d683398151915285099260008051602061c8b683398151915290098160008051602061ca568339815191528d098260008051602061c9768339815191528d098360008051602061ca968339815191528d0901010106016000528a82808060008051602061caf683398151915285099260008051602061c8d683398151915290098160008051602061ca168339815191528d098260008051602061cab68339815191528d098360008051602061c8568339815191528d0901010106016020528a82808060008051602061c83683398151915285099260008051602061c9b683398151915290098160008051602061c9568339815191528d098260008051602061c9168339815191528d098360008051602061c7d68339815191528d0901010106016080528a82808060008051602061c7f683398151915285099260008051602061c8f683398151915290098160008051602061c8968339815191528d098260008051602061ca768339815191528d098360008051602061cad68339815191528d09010101060160a05260008051602061c87683398151915290099860008051602061c81683398151915290099560008051602061c99683398151915290099360008051602061ca3683398151915290099160008051602061c9f68339815191529009010101060160c052565b6000517f1fa8662fbcb61fb3ad7c55668dc9423a332dc87cfb2df456e92d33611ed7bb50016020517f1e4fad2dd6b0a6f1f8707f721716c8a446e2fb2c47a5138f3f7f9736079d769401906080517f211256d16c7269fd6df6f5fcdd1fa788ba3bd050059f53d261b0f5f13731ffe70160a0517f2e49084b336eceaa4f8e2a2e6af08318f42060e574dda341f4a1079b12bcc5a5019260c0517f0ce19f54cdc39f7f3bf35192ac6808211aecea08dfe14cab758d25891fb00bb90160008051602061c936833981519152808080808089818082819d09800909958a82808060008051602061c9d683398151915285099260008051602061c8b683398151915290098160008051602061ca568339815191528d098260008051602061c9768339815191528d098360008051602061ca968339815191528d0901010106016000528a82808060008051602061caf683398151915285099260008051602061c8d683398151915290098160008051602061ca168339815191528d098260008051602061cab68339815191528d098360008051602061c8568339815191528d0901010106016020528a82808060008051602061c83683398151915285099260008051602061c9b683398151915290098160008051602061c9568339815191528d098260008051602061c9168339815191528d098360008051602061c7d68339815191528d0901010106016080528a82808060008051602061c7f683398151915285099260008051602061c8f683398151915290098160008051602061c8968339815191528d098260008051602061ca768339815191528d098360008051602061cad68339815191528d09010101060160a05260008051602061c87683398151915290099860008051602061c81683398151915290099560008051602061c99683398151915290099360008051602061ca3683398151915290099160008051602061c9f68339815191529009010101060160c052565b6000517e11c5d56c390e893cc394221261d8748dc60451e4ae4e1c84a8468bab2c14cb016020517f17d79ff06b63ac2a8a9e05ee6af3dbb7ca60e17bfa39b47514a8cd8051579b4c01906080517f19a7d3a446cb5393dc74560093592b06b1a8b35cd6416a2ecab00173639015fa0160a0517f030c00a0933dcdba2a808b2e1b9282f331f04596d8928da7aa6c3c97237037a6019260c0517f16bcb447ce2d50f3ae25ad080695382e935d2d00184c4acc9370be8aab64139c0160008051602061c936833981519152808080808089818082819d09800909958a82808060008051602061c9d683398151915285099260008051602061c8b683398151915290098160008051602061ca568339815191528d098260008051602061c9768339815191528d098360008051602061ca968339815191528d0901010106016000528a82808060008051602061caf683398151915285099260008051602061c8d683398151915290098160008051602061ca168339815191528d098260008051602061cab68339815191528d098360008051602061c8568339815191528d0901010106016020528a82808060008051602061c83683398151915285099260008051602061c9b683398151915290098160008051602061c9568339815191528d098260008051602061c9168339815191528d098360008051602061c7d68339815191528d0901010106016080528a82808060008051602061c7f683398151915285099260008051602061c8f683398151915290098160008051602061c8968339815191528d098260008051602061ca768339815191528d098360008051602061cad68339815191528d09010101060160a05260008051602061c87683398151915290099860008051602061c81683398151915290099560008051602061c99683398151915290099360008051602061ca3683398151915290099160008051602061c9f68339815191529009010101060160c052565b6000517f12341b46b0150aa25ea4ec8715312997e62124f37cab7b6d39255b7cd66feb1d016020517f0e86d13917f44050b72a97b2bf610c84002fc28e296d1044dc89212db6a49ff401906080517f08e6eb4089d37d66d357e00b53d7f30d1052a181f8f2eb14d059025b110c72620160a0517f2ea123856245f6c84738d15dd1481a0c0415ccb351a1e0cee10c48ce97ca7b18019260c0517f2dca72b2ebcab8c23446e00330b163104195789025413abf664db0f9c84dfa6f0160008051602061c936833981519152808080808089818082819d09800909958a82808060008051602061c9d683398151915285099260008051602061c8b683398151915290098160008051602061ca568339815191528d098260008051602061c9768339815191528d098360008051602061ca968339815191528d0901010106016000528a82808060008051602061caf683398151915285099260008051602061c8d683398151915290098160008051602061ca168339815191528d098260008051602061cab68339815191528d098360008051602061c8568339815191528d0901010106016020528a82808060008051602061c83683398151915285099260008051602061c9b683398151915290098160008051602061c9568339815191528d098260008051602061c9168339815191528d098360008051602061c7d68339815191528d0901010106016080528a82808060008051602061c7f683398151915285099260008051602061c8f683398151915290098160008051602061c8968339815191528d098260008051602061ca768339815191528d098360008051602061cad68339815191528d09010101060160a05260008051602061c87683398151915290099860008051602061c81683398151915290099560008051602061c99683398151915290099360008051602061ca3683398151915290099160008051602061c9f68339815191529009010101060160c052565b6000517f06ff9ed50d327e8463329f585ec924b3f2f6b4235f036fa4c64a26cbd42b6a6b016020517f246a10b7e3e0089947f7c9bda3d54df8e2a60e0cca84ea2ac630a4535afbf73001906080517f22a63501c5f04b9018719ed99d700ee52f846a715ae67ad75c96b39d688b66910160a0517f2f4c50477f7fd9c671799ac5d2e224cdb9164f58351d8aa140ec07e514fae937019260c0517f10ffb7aad1f51c7d13b17f4d876d9a1e38f0ba8a4a23d4b50cda32cad851567e0160008051602061c936833981519152808080808089818082819d09800909958a82808060008051602061c9d683398151915285099260008051602061c8b683398151915290098160008051602061ca568339815191528d098260008051602061c9768339815191528d098360008051602061ca968339815191528d0901010106016000528a82808060008051602061caf683398151915285099260008051602061c8d683398151915290098160008051602061ca168339815191528d098260008051602061cab68339815191528d098360008051602061c8568339815191528d0901010106016020528a82808060008051602061c83683398151915285099260008051602061c9b683398151915290098160008051602061c9568339815191528d098260008051602061c9168339815191528d098360008051602061c7d68339815191528d0901010106016080528a82808060008051602061c7f683398151915285099260008051602061c8f683398151915290098160008051602061c8968339815191528d098260008051602061ca768339815191528d098360008051602061cad68339815191528d09010101060160a05260008051602061c87683398151915290099860008051602061c81683398151915290099560008051602061c99683398151915290099360008051602061ca3683398151915290099160008051602061c9f68339815191529009010101060160c052565b6000517f0e9cefddc3c2d3bea4d39722532d5420784027352187e7af1a056935c35803ae016020517f07af84a4d3141e7ac23352e6dc6ea4afa1656f96a33c8978a3e83bdd4ba62b4101906080517f2d9e31a10aebc761f8de00d14b1e566d1a39323d6e89b638e940f3ec8a22c3c50160a0517f27f19a6532e66b5333db1afd592f66f1d36034b314dad8447656747be27e64c7019260c0517e58fa3c8454d63354b2024c3b4a577a180ed99f8f3155cd7e4d617d47d07ffd0160008051602061c936833981519152808080808089818082819d09800909958a82808060008051602061c9d683398151915285099260008051602061c8b683398151915290098160008051602061ca568339815191528d098260008051602061c9768339815191528d098360008051602061ca968339815191528d0901010106016000528a82808060008051602061caf683398151915285099260008051602061c8d683398151915290098160008051602061ca168339815191528d098260008051602061cab68339815191528d098360008051602061c8568339815191528d0901010106016020528a82808060008051602061c83683398151915285099260008051602061c9b683398151915290098160008051602061c9568339815191528d098260008051602061c9168339815191528d098360008051602061c7d68339815191528d0901010106016080528a82808060008051602061c7f683398151915285099260008051602061c8f683398151915290098160008051602061c8968339815191528d098260008051602061ca768339815191528d098360008051602061cad68339815191528d09010101060160a05260008051602061c87683398151915290099860008051602061c81683398151915290099560008051602061c99683398151915290099360008051602061ca3683398151915290099160008051602061c9f68339815191529009010101060160c052565b6000517f041627b6715b780967957c080699343eb0414a205d3a175d708964956816a5d5016020517e6ac49dd9253edc7f632e57b958ccecd98201471cf1f66589888f12b727c52d01906080517f0131adffd8bd7254b1d8c3616bbe3386ec0c9c0d6d25a9a4ec46a6bf183013980160a0517f1c4a6f52c9fccf7a4138e413ef62a28377977ad7e25e49a3cf030e1cd8f9f5b6019260c0517f03f2a6be51ec677f946551b3860ea479fee048ae2078aeb7d1f7958d2c2645f60160008051602061c936833981519152808080808089818082819d09800909958a82808060008051602061c9d683398151915285099260008051602061c8b683398151915290098160008051602061ca568339815191528d098260008051602061c9768339815191528d098360008051602061ca968339815191528d0901010106016000528a82808060008051602061caf683398151915285099260008051602061c8d683398151915290098160008051602061ca168339815191528d098260008051602061cab68339815191528d098360008051602061c8568339815191528d0901010106016020528a82808060008051602061c83683398151915285099260008051602061c9b683398151915290098160008051602061c9568339815191528d098260008051602061c9168339815191528d098360008051602061c7d68339815191528d0901010106016080528a82808060008051602061c7f683398151915285099260008051602061c8f683398151915290098160008051602061c8968339815191528d098260008051602061ca768339815191528d098360008051602061cad68339815191528d09010101060160a05260008051602061c87683398151915290099860008051602061c81683398151915290099560008051602061c99683398151915290099360008051602061ca3683398151915290099160008051602061c9f68339815191529009010101060160c052565b6000517f2da770aad2c2eb09391a0cb78ef3a9648a1372d8543119564d7376396b8ddc62016020517f15278463665f74cddc1802febfab02cec9d45fe866c359c738062afb75d64a0301906080517f12fe278aa36544eac9731027090518d434e38ea966a08a6f8d580638ac54c7730160a0517f149b9c802182558a4c45d119d3f4cc7fd8587604ca4f0d6e21b06ff30b6a23b6019260c0517f0812e7b4d847bc8517d19319772f3c9855e044fd60dbac9a0adc4959b691dfe40160008051602061c936833981519152808080808089818082819d09800909958a82808060008051602061c9d683398151915285099260008051602061c8b683398151915290098160008051602061ca568339815191528d098260008051602061c9768339815191528d098360008051602061ca968339815191528d0901010106016000528a82808060008051602061caf683398151915285099260008051602061c8d683398151915290098160008051602061ca168339815191528d098260008051602061cab68339815191528d098360008051602061c8568339815191528d0901010106016020528a82808060008051602061c83683398151915285099260008051602061c9b683398151915290098160008051602061c9568339815191528d098260008051602061c9168339815191528d098360008051602061c7d68339815191528d0901010106016080528a82808060008051602061c7f683398151915285099260008051602061c8f683398151915290098160008051602061c8968339815191528d098260008051602061ca768339815191528d098360008051602061cad68339815191528d09010101060160a05260008051602061c87683398151915290099860008051602061c81683398151915290099560008051602061c99683398151915290099360008051602061ca3683398151915290099160008051602061c9f68339815191529009010101060160c052565b6000517f02ed8d8ddeafe3d9d8df7f28a0bfaa7f555813c7e7503aea2a66973703a0c61b016020517f0ebd073ba0537b514deb6029f921029e55e5e4d9a03d6b6ba1304038662d4db801906080517f15c754d5b14b2c4205c6ba8d2ccd028255b3e792c6afa08b44ee75b62eff9f590160a0517f169515c89ac5479db0ed8fa6fa311b391cc1235270f4cbc5c29e7cbc30e8732a019260c0517f25479fbfb3a68f982388f2621001101608bdc29f6ff037696d9161f5cd9a4fef0160008051602061c936833981519152808080808089818082819d09800909958a82808060008051602061c9d683398151915285099260008051602061c8b683398151915290098160008051602061ca568339815191528d098260008051602061c9768339815191528d098360008051602061ca968339815191528d0901010106016000528a82808060008051602061caf683398151915285099260008051602061c8d683398151915290098160008051602061ca168339815191528d098260008051602061cab68339815191528d098360008051602061c8568339815191528d0901010106016020528a82808060008051602061c83683398151915285099260008051602061c9b683398151915290098160008051602061c9568339815191528d098260008051602061c9168339815191528d098360008051602061c7d68339815191528d0901010106016080528a82808060008051602061c7f683398151915285099260008051602061c8f683398151915290098160008051602061c8968339815191528d098260008051602061ca768339815191528d098360008051602061cad68339815191528d09010101060160a05260008051602061c87683398151915290099860008051602061c81683398151915290099560008051602061c99683398151915290099360008051602061ca3683398151915290099160008051602061c9f68339815191529009010101060160c052565b6000517f14475c4bd520451f3c852cb0311a578ca7f8e6e972182196ce09486e94be6071016020517f045a691066cc66bec9baf2798833a1dfd3a847502aec8d5f5c4e73363d09779901906080517f26029c0c267c799fb833ac8a11e3a3f0147a8ca037221b90013b8bcb37eba6830160a0517f163facb34ff572fbf7c946969c1c260873ce12a6a94a3e45b8101d5b948d1641019260c0517f2c714e96e1913b351d969320cc69d5ec13e06a6275e58688af8ee00c4240ee280160008051602061c936833981519152808080808089818082819d09800909958a82808060008051602061c9d683398151915285099260008051602061c8b683398151915290098160008051602061ca568339815191528d098260008051602061c9768339815191528d098360008051602061ca968339815191528d0901010106016000528a82808060008051602061caf683398151915285099260008051602061c8d683398151915290098160008051602061ca168339815191528d098260008051602061cab68339815191528d098360008051602061c8568339815191528d0901010106016020528a82808060008051602061c83683398151915285099260008051602061c9b683398151915290098160008051602061c9568339815191528d098260008051602061c9168339815191528d098360008051602061c7d68339815191528d0901010106016080528a82808060008051602061c7f683398151915285099260008051602061c8f683398151915290098160008051602061c8968339815191528d098260008051602061ca768339815191528d098360008051602061cad68339815191528d09010101060160a05260008051602061c87683398151915290099860008051602061c81683398151915290099560008051602061c99683398151915290099360008051602061ca3683398151915290099160008051602061c9f68339815191529009010101060160c052565b6000517f1c1661e2a7ce74b75aba84665ecd2bf9ddd6268f06debfe2d52b804eff1d5fa6016020517f06a69ae795ee9bfe5e5af3e6619a47d26635b34c2a0889fea8c3c068b7dc2c7101906080517f113d58535d892115c5d28b4c19a3609374dbdbadf54195c731416c85d731d46a0160a0517f2ab89102e2b8d5e638ff97d761da6042e534f1ff47f7917a2ca1a74063b46101019260c0517f03c11ca79e41fdfe962730c45e699546349031893da2b4fd39804fd6a15ad1b30160008051602061c936833981519152808080808089818082819d09800909958a82808060008051602061c9d683398151915285099260008051602061c8b683398151915290098160008051602061ca568339815191528d098260008051602061c9768339815191528d098360008051602061ca968339815191528d0901010106016000528a82808060008051602061caf683398151915285099260008051602061c8d683398151915290098160008051602061ca168339815191528d098260008051602061cab68339815191528d098360008051602061c8568339815191528d0901010106016020528a82808060008051602061c83683398151915285099260008051602061c9b683398151915290098160008051602061c9568339815191528d098260008051602061c9168339815191528d098360008051602061c7d68339815191528d0901010106016080528a82808060008051602061c7f683398151915285099260008051602061c8f683398151915290098160008051602061c8968339815191528d098260008051602061ca768339815191528d098360008051602061cad68339815191528d09010101060160a05260008051602061c87683398151915290099860008051602061c81683398151915290099560008051602061c99683398151915290099360008051602061ca3683398151915290099160008051602061c9f68339815191529009010101060160c052565b6000517f27096c672621403888014ddbbbfc9da1f7f67b4d4cfe846c6adf040faaf2669c016020517f2de32ad15497aef4d504d4deeb53b13c66db790ce486130caa9dc2b57ef5be0d01906080517f0dc108f2b0a280d2fd5d341310722a2d28c738dddaec9f3d255754448eefd0010160a0517f1869f3b763fe8164c96858a1bb9efad5bcdc3eebc409be7c7d34ca50365d832f019260c0517f022ed3a2d9ff31cbf82559fe6a911843b616945e16a568d48c6d33767129682d0160008051602061c936833981519152808080808089818082819d09800909958a82808060008051602061c9d683398151915285099260008051602061c8b683398151915290098160008051602061ca568339815191528d098260008051602061c9768339815191528d098360008051602061ca968339815191528d0901010106016000528a82808060008051602061caf683398151915285099260008051602061c8d683398151915290098160008051602061ca168339815191528d098260008051602061cab68339815191528d098360008051602061c8568339815191528d0901010106016020528a82808060008051602061c83683398151915285099260008051602061c9b683398151915290098160008051602061c9568339815191528d098260008051602061c9168339815191528d098360008051602061c7d68339815191528d0901010106016080528a82808060008051602061c7f683398151915285099260008051602061c8f683398151915290098160008051602061c8968339815191528d098260008051602061ca768339815191528d098360008051602061cad68339815191528d09010101060160a05260008051602061c87683398151915290099860008051602061c81683398151915290099560008051602061c99683398151915290099360008051602061ca3683398151915290099160008051602061c9f68339815191529009010101060160c052565b6000517f2155d6005210169e3944ed1365bd0e7292fca1f27c19c26610c6aec077d026bc016020517f0de1ba7a562a8f7acae93263f5f1b4bbec0c0556c91af3db3ea5928c8caeae8501906080517f05dbb4406024beabcfce5bf46ec7da38126f740bce8d637b6351dfa7da9025630160a0517f05d4149baac413bed4d8dc8ad778d32c00e789e3fcd72dccc97e5427a368fd5e019260c0517f01cdf8b452d97c2b9be5046e7397e76ff0b6802fa941c7879212e22172c27b2e0160008051602061c936833981519152808080808089818082819d09800909958a82808060008051602061c9d683398151915285099260008051602061c8b683398151915290098160008051602061ca568339815191528d098260008051602061c9768339815191528d098360008051602061ca968339815191528d0901010106016000528a82808060008051602061caf683398151915285099260008051602061c8d683398151915290098160008051602061ca168339815191528d098260008051602061cab68339815191528d098360008051602061c8568339815191528d0901010106016020528a82808060008051602061c83683398151915285099260008051602061c9b683398151915290098160008051602061c9568339815191528d098260008051602061c9168339815191528d098360008051602061c7d68339815191528d0901010106016080528a82808060008051602061c7f683398151915285099260008051602061c8f683398151915290098160008051602061c8968339815191528d098260008051602061ca768339815191528d098360008051602061cad68339815191528d09010101060160a05260008051602061c87683398151915290099860008051602061c81683398151915290099560008051602061c99683398151915290099360008051602061ca3683398151915290099160008051602061c9f68339815191529009010101060160c052565b6000517f1fc6a71867027f56af8085ff81adce33c4d7c5015eced8c71b0a22279d46c07c016020517f1040bef4c642d0345d4d59a5a7a3a42ba9e185b75306d9c3568e0fda96aaafc201906080517f16b79c3a6bf316e0ff2c91b289334a4d2b21e95676431918a8081475ab8fad0d0160a0517f20dff1bc30f6db6b434b3a1387e3c8c6a34070e52b601fc13cbe1cdcd59f474e019260c0517f0212ac2ab7a6eaaec254955030a970f8062dd4171a726a8bdfb7fd8512ae060d0160008051602061c936833981519152808080808089818082819d09800909958a82808060008051602061c9d683398151915285099260008051602061c8b683398151915290098160008051602061ca568339815191528d098260008051602061c9768339815191528d098360008051602061ca968339815191528d0901010106016000528a82808060008051602061caf683398151915285099260008051602061c8d683398151915290098160008051602061ca168339815191528d098260008051602061cab68339815191528d098360008051602061c8568339815191528d0901010106016020528a82808060008051602061c83683398151915285099260008051602061c9b683398151915290098160008051602061c9568339815191528d098260008051602061c9168339815191528d098360008051602061c7d68339815191528d0901010106016080528a82808060008051602061c7f683398151915285099260008051602061c8f683398151915290098160008051602061c8968339815191528d098260008051602061ca768339815191528d098360008051602061cad68339815191528d09010101060160a05260008051602061c87683398151915290099860008051602061c81683398151915290099560008051602061c99683398151915290099360008051602061ca3683398151915290099160008051602061c9f68339815191529009010101060160c052565b6000517f2f29377491474442869a109c9215637cb02dc03134f0044213c8119f6996ae09016020517f0984ca6a5f9185d525ec93c33fea603273be9f3866aa284c5837d9f32d814bfa01906080517f0d080a6b6b3b60700d299bd6fa81220de491361c8a6bd19ceb0ee9294b24f0280160a0517f0e65cd99e84b052f6789530638cb0ad821acc85b6400264dce929ed7c85a4544019260c0517f2e208875bc7ac1224808f72c716cd05ee30e3d20380ff6a655975da12736920b0160008051602061c936833981519152808080808089818082819d09800909958a82808060008051602061c9d683398151915285099260008051602061c8b683398151915290098160008051602061ca568339815191528d098260008051602061c9768339815191528d098360008051602061ca968339815191528d0901010106016000528a82808060008051602061caf683398151915285099260008051602061c8d683398151915290098160008051602061ca168339815191528d098260008051602061cab68339815191528d098360008051602061c8568339815191528d0901010106016020528a82808060008051602061c83683398151915285099260008051602061c9b683398151915290098160008051602061c9568339815191528d098260008051602061c9168339815191528d098360008051602061c7d68339815191528d0901010106016080528a82808060008051602061c7f683398151915285099260008051602061c8f683398151915290098160008051602061c8968339815191528d098260008051602061ca768339815191528d098360008051602061cad68339815191528d09010101060160a05260008051602061c87683398151915290099860008051602061c81683398151915290099560008051602061c99683398151915290099360008051602061ca3683398151915290099160008051602061c9f68339815191529009010101060160c052565b6000517f2989f3ae477c2fd376a0b0ff3d7dfac1ae2e3b894afd29f64a60d1aa8592bad5016020517f11361ce544e941379222d101e6fac0ce918106a463290a3e3a74c3cea718945901906080517f1e8d014b86cb5a7da539e10c173f6a75d122a822b8fb366c34c8bd05a20614380160a0517f173f65adec8deee27ba812ad29558e23a0c2324167ef6c91212ee2c28ee98733019260c0517f01c36daaf9f01f1bafee8bd0c779ac3e5da5df7ad45499d0991bd695310eddd90160008051602061c936833981519152808080808089818082819d09800909958a82808060008051602061c9d683398151915285099260008051602061c8b683398151915290098160008051602061ca568339815191528d098260008051602061c9768339815191528d098360008051602061ca968339815191528d0901010106016000528a82808060008051602061caf683398151915285099260008051602061c8d683398151915290098160008051602061ca168339815191528d098260008051602061cab68339815191528d098360008051602061c8568339815191528d0901010106016020528a82808060008051602061c83683398151915285099260008051602061c9b683398151915290098160008051602061c9568339815191528d098260008051602061c9168339815191528d098360008051602061c7d68339815191528d0901010106016080528a82808060008051602061c7f683398151915285099260008051602061c8f683398151915290098160008051602061c8968339815191528d098260008051602061ca768339815191528d098360008051602061cad68339815191528d09010101060160a05260008051602061c87683398151915290099860008051602061c81683398151915290099560008051602061c99683398151915290099360008051602061ca3683398151915290099160008051602061c9f68339815191529009010101060160c052565b6000517f1353acb08c05adb4aa9ab1c485bb85fff277d1a3f2fc89944a6f5741f381e562016020517f2e5abd2537207cad1860e71ea1188ee4009d33deb4f93aeb20f1c87a3b064d3401906080517f191d5c5edaef42d3d02eedbb7ab8562513deb4eb34913a13421726ba8f69455c0160a0517f11d7f8d1f269264282a263fea6d7599d82a04c74c127de9dee7939dd2dcd089e019260c0517f04218fde366829ed90f79ad5e67997973445cb4cd6bc6f951bad085286cac9710160008051602061c936833981519152808080808089818082819d09800909958a82808060008051602061c9d683398151915285099260008051602061c8b683398151915290098160008051602061ca568339815191528d098260008051602061c9768339815191528d098360008051602061ca968339815191528d0901010106016000528a82808060008051602061caf683398151915285099260008051602061c8d683398151915290098160008051602061ca168339815191528d098260008051602061cab68339815191528d098360008051602061c8568339815191528d0901010106016020528a82808060008051602061c83683398151915285099260008051602061c9b683398151915290098160008051602061c9568339815191528d098260008051602061c9168339815191528d098360008051602061c7d68339815191528d0901010106016080528a82808060008051602061c7f683398151915285099260008051602061c8f683398151915290098160008051602061c8968339815191528d098260008051602061ca768339815191528d098360008051602061cad68339815191528d09010101060160a05260008051602061c87683398151915290099860008051602061c81683398151915290099560008051602061c99683398151915290099360008051602061ca3683398151915290099160008051602061c9f68339815191529009010101060160c052565b6000517e70772f7cf52453048397ca5f47a202027b73b489301c3227b71c730d76d6dd016020517f038a389baef5d9a7c865b065687a1d9b67681a98cd051634c1dc04dbe3d2b86101906080517f09a5eefab8b36a80cda446b2b4b59ccd0f39d00966a50beaf19860789015a6e50160a0517f01b588848b8b47c8b969c145109b4b583d9ec99edfacb7489d16212c7584cd8c019260c0517f0b846e4a390e560f6e1af6dfc3341419545e5abfa323d817fed91e30d42954a60160008051602061c936833981519152808080808089818082819d09800909958a82808060008051602061c9d683398151915285099260008051602061c8b683398151915290098160008051602061ca568339815191528d098260008051602061c9768339815191528d098360008051602061ca968339815191528d0901010106016000528a82808060008051602061caf683398151915285099260008051602061c8d683398151915290098160008051602061ca168339815191528d098260008051602061cab68339815191528d098360008051602061c8568339815191528d0901010106016020528a82808060008051602061c83683398151915285099260008051602061c9b683398151915290098160008051602061c9568339815191528d098260008051602061c9168339815191528d098360008051602061c7d68339815191528d0901010106016080528a82808060008051602061c7f683398151915285099260008051602061c8f683398151915290098160008051602061c8968339815191528d098260008051602061ca768339815191528d098360008051602061cad68339815191528d09010101060160a05260008051602061c87683398151915290099860008051602061c81683398151915290099560008051602061c99683398151915290099360008051602061ca3683398151915290099160008051602061c9f68339815191529009010101060160c052565b6000517f23a6679c7d9adb660d43a02ddb900040eb1513bc394fc4f985cabfe85ce72fe3016020517f2e0374a699197e343e5caa35f1351e9f4c3402fb7c85ecccf72f31d6fe08925401906080517f0752cd899e52dc4d7f7a08af4cde3ff64b8cc0b1176bb9ec37d41913a7a27b480160a0517f068f8813127299dac349a2b6d57397a50275142b664b802c99e2873dd7ae55a7019260c0517f2ba70a102355d549677574167434b3f986872d04a295b5b8b374330f2da202b50160008051602061c936833981519152808080808089818082819d09800909958a82808060008051602061c9d683398151915285099260008051602061c8b683398151915290098160008051602061ca568339815191528d098260008051602061c9768339815191528d098360008051602061ca968339815191528d0901010106016000528a82808060008051602061caf683398151915285099260008051602061c8d683398151915290098160008051602061ca168339815191528d098260008051602061cab68339815191528d098360008051602061c8568339815191528d0901010106016020528a82808060008051602061c83683398151915285099260008051602061c9b683398151915290098160008051602061c9568339815191528d098260008051602061c9168339815191528d098360008051602061c7d68339815191528d0901010106016080528a82808060008051602061c7f683398151915285099260008051602061c8f683398151915290098160008051602061c8968339815191528d098260008051602061ca768339815191528d098360008051602061cad68339815191528d09010101060160a05260008051602061c87683398151915290099860008051602061c81683398151915290099560008051602061c99683398151915290099360008051602061ca3683398151915290099160008051602061c9f68339815191529009010101060160c052565b6000517f2c467af88748abf6a334d1df03b5521309f9099b825dd289b8609e70a0b50828016020517f05c5f20bef1bd82701009a2b448ae881e3a52c2d1a31957296d29e5763e8f49701906080517f0dc6385fdc567be5842a381f6006e2c60cd083a2c649d9f23ac8c9fe61b738710160a0517f142d3983f3dc7f7e19d49911b8670fa70378d5b84150d25ed255baa8114b369c019260c0517f29a01efb2f6aa894fd7e6d98c96a0fa0f36f86a7a99aa35c00fa18c1b2df67bf0160008051602061c936833981519152808080808089818082819d09800909958a82808060008051602061c9d683398151915285099260008051602061c8b683398151915290098160008051602061ca568339815191528d098260008051602061c9768339815191528d098360008051602061ca968339815191528d0901010106016000528a82808060008051602061caf683398151915285099260008051602061c8d683398151915290098160008051602061ca168339815191528d098260008051602061cab68339815191528d098360008051602061c8568339815191528d0901010106016020528a82808060008051602061c83683398151915285099260008051602061c9b683398151915290098160008051602061c9568339815191528d098260008051602061c9168339815191528d098360008051602061c7d68339815191528d0901010106016080528a82808060008051602061c7f683398151915285099260008051602061c8f683398151915290098160008051602061c8968339815191528d098260008051602061ca768339815191528d098360008051602061cad68339815191528d09010101060160a05260008051602061c87683398151915290099860008051602061c81683398151915290099560008051602061c99683398151915290099360008051602061ca3683398151915290099160008051602061c9f68339815191529009010101060160c052565b6000517f0525ffee737d605138c4a5066644ec630ab9e8afc64555b7d2a1af04eb613a76016020517f1e807dca81d79581f076677ca0e822767e164f614910264ef177cf4238301dc801906080517f0385fb3f89c74dc993510816472474d34c0223e0f733a52fdba56082dbd8757c0160a0517f037640dc1afc0143e1a6298e53cae59fcfabd7016fd6ef1af558f337bab0ea01019260c0517f1341999a1ed86919f12a6c5260829eee5fd56cf031da8050b7e4c0de896074b40160008051602061c936833981519152808080808089818082819d09800909958a82808060008051602061c9d683398151915285099260008051602061c8b683398151915290098160008051602061ca568339815191528d098260008051602061c9768339815191528d098360008051602061ca968339815191528d0901010106016000528a82808060008051602061caf683398151915285099260008051602061c8d683398151915290098160008051602061ca168339815191528d098260008051602061cab68339815191528d098360008051602061c8568339815191528d0901010106016020528a82808060008051602061c83683398151915285099260008051602061c9b683398151915290098160008051602061c9568339815191528d098260008051602061c9168339815191528d098360008051602061c7d68339815191528d0901010106016080528a82808060008051602061c7f683398151915285099260008051602061c8f683398151915290098160008051602061c8968339815191528d098260008051602061ca768339815191528d098360008051602061cad68339815191528d09010101060160a05260008051602061c87683398151915290099860008051602061c81683398151915290099560008051602061c99683398151915290099360008051602061ca3683398151915290099160008051602061c9f68339815191529009010101060160c052565b6000517f069eb075866b0af356906d4bafb10ad773afd642efdcc5657b244f65bed8ece7016020517f171c0b81e62136e395b38e8e08b3e646d2726101d3afaa02ea1909a61903369601906080517f2c81814c9453f51cb6eb55c311753e84cbbdcb39bfe696f95575107502acced80160a0517f29d843c0415d35d9e3b33fadcf274b2ab04b39032adca92ce39b8a86a7c3a604019260c0517f085d6a1070f3513d8436bccdabb78750d8e15ea5947f2cdaa7669cf3fae7728b0160008051602061c936833981519152808080808089818082819d09800909958a82808060008051602061c9d683398151915285099260008051602061c8b683398151915290098160008051602061ca568339815191528d098260008051602061c9768339815191528d098360008051602061ca968339815191528d0901010106016000528a82808060008051602061caf683398151915285099260008051602061c8d683398151915290098160008051602061ca168339815191528d098260008051602061cab68339815191528d098360008051602061c8568339815191528d0901010106016020528a82808060008051602061c83683398151915285099260008051602061c9b683398151915290098160008051602061c9568339815191528d098260008051602061c9168339815191528d098360008051602061c7d68339815191528d0901010106016080528a82808060008051602061c7f683398151915285099260008051602061c8f683398151915290098160008051602061c8968339815191528d098260008051602061ca768339815191528d098360008051602061cad68339815191528d09010101060160a05260008051602061c87683398151915290099860008051602061c81683398151915290099560008051602061c99683398151915290099360008051602061ca3683398151915290099160008051602061c9f68339815191529009010101060160c052565b6000517f2eb4f99c69f966ebf8a42192de7ff61621c7bb47b93750c2b9ea08d18446c122016020517f224a28e5a35385a7c5198169e405d9ea0fc7da8b93ee13b6d5f7d099e299520e01906080517f0f7411b465e600eed8afdd6afca49c3036f33ecbd9a0f97823796b993bbd82f70160a0517f0f9d0d5aad2c9555a2be7150392d8d9819b208ae3370f99a0626f9ff5d90e4e3019060c0517f1e9a96dc8292bb596f52a59538d329229732b25259cf744b6a12d30702d6fba0019360008051602061c9368339815191528080808080808080808d819e82818192098009099981808280098009099981808280098009099981808280098009099a81808280098009098a82808060008051602061c9d683398151915285099260008051602061c8b683398151915290098160008051602061ca568339815191528d098260008051602061c9768339815191528d098360008051602061ca968339815191528d0901010106016000528a82808060008051602061caf683398151915285099260008051602061c8d683398151915290098160008051602061ca168339815191528d098260008051602061cab68339815191528d098360008051602061c8568339815191528d0901010106016020528a82808060008051602061c83683398151915285099260008051602061c9b683398151915290098160008051602061c9568339815191528d098260008051602061c9168339815191528d098360008051602061c7d68339815191528d0901010106016080528a82808060008051602061c7f683398151915285099260008051602061c8f683398151915290098160008051602061c8968339815191528d098260008051602061ca768339815191528d098360008051602061cad68339815191528d09010101060160a05260008051602061c87683398151915290099860008051602061c81683398151915290099560008051602061c99683398151915290099360008051602061ca3683398151915290099160008051602061c9f68339815191529009010101060160c052565b6000517f08780514ccd90380887d578c45555e593cfe52eab4b945c6c2cd4d528fb3fe3c016020517f272498fced686c7ac8149fa3f73ef8c2ced64717e3556d5a59f119d629ccb5fc01906080517f01ef8f9dd7c93aac4b7cb80930bd06eb45bd350aff585f10e3d0ef8a782ef7df0160a0517f045b9f59b6595e614dc08f222b469b138e886e64bf3c40aa97ea0ae754934d30019060c0517f0ac1e91c57d9da919fd6f59d2a40ff8ea3e41e24e247a387adf2584295d61c66019360008051602061c9368339815191528080808080808080808d819e82818192098009099981808280098009099981808280098009099981808280098009099a81808280098009098a82808060008051602061c9d683398151915285099260008051602061c8b683398151915290098160008051602061ca568339815191528d098260008051602061c9768339815191528d098360008051602061ca968339815191528d0901010106016000528a82808060008051602061caf683398151915285099260008051602061c8d683398151915290098160008051602061ca168339815191528d098260008051602061cab68339815191528d098360008051602061c8568339815191528d0901010106016020528a82808060008051602061c83683398151915285099260008051602061c9b683398151915290098160008051602061c9568339815191528d098260008051602061c9168339815191528d098360008051602061c7d68339815191528d0901010106016080528a82808060008051602061c7f683398151915285099260008051602061c8f683398151915290098160008051602061c8968339815191528d098260008051602061ca768339815191528d098360008051602061cad68339815191528d09010101060160a05260008051602061c87683398151915290099860008051602061c81683398151915290099560008051602061c99683398151915290099360008051602061ca3683398151915290099160008051602061c9f68339815191529009010101060160c052565b6000517f028a1621a94054b0c7f9a421353cd89d0fd67061aee99979d12e68f04e62d134016020517f26b41802c071ea4c9632647ed059236e50c19c3fb3c96d09d02aae2a0dcd9dbc01906080517f2fb5dda8072bb72cbaac2f63e468215e05c9de06758db6a94af34384aedb462b0160a0517f2212d3a0f5fccaf244ff3547fd823249ad8ab8ba2a18d383dd05c56ee894d850019060c0517f1b041ad5b2f0684258e4dfaeea09be56a3276fdb19f44c015cd0c7eed465e2e3019360008051602061c9368339815191528080808080808080808d819e82818192098009099981808280098009099981808280098009099981808280098009099a81808280098009098a82808060008051602061c9d683398151915285099260008051602061c8b683398151915290098160008051602061ca568339815191528d098260008051602061c9768339815191528d098360008051602061ca968339815191528d0901010106016000528a82808060008051602061caf683398151915285099260008051602061c8d683398151915290098160008051602061ca168339815191528d098260008051602061cab68339815191528d098360008051602061c8568339815191528d0901010106016020528a82808060008051602061c83683398151915285099260008051602061c9b683398151915290098160008051602061c9568339815191528d098260008051602061c9168339815191528d098360008051602061c7d68339815191528d0901010106016080528a82808060008051602061c7f683398151915285099260008051602061c8f683398151915290098160008051602061c8968339815191528d098260008051602061ca768339815191528d098360008051602061cad68339815191528d09010101060160a05260008051602061c87683398151915290099860008051602061c81683398151915290099560008051602061c99683398151915290099360008051602061ca3683398151915290099160008051602061c9f68339815191529009010101060160c052565b6000517f11820363ed541daa10a44ba665bf302cdbf1dd4e6706b02c9e2a5cda412fc394016020517f201935a58f5c57fc02b60d61a83785bddfd3150e05f1df5d105840b751a1631701906080517f0a8c2820c56971aae27a952abd33a03d46794eedd686cd8ecfed610e87c02e9a0160a0517f180638ff301a64ca04abd6d0bd7500b6650b65ff33e6be1fd50dbc163a281877019060c0517f095c716266f1de59044f97114a4158a3f85ca8a937cfbec63e9b321a812dd36b019360008051602061c9368339815191528080808080808080808d819e82818192098009099981808280098009099981808280098009099981808280098009099a81808280098009098a82808060008051602061c9d683398151915285099260008051602061c8b683398151915290098160008051602061ca568339815191528d098260008051602061c9768339815191528d098360008051602061ca968339815191528d0901010106016000528a82808060008051602061caf683398151915285099260008051602061c8d683398151915290098160008051602061ca168339815191528d098260008051602061cab68339815191528d098360008051602061c8568339815191528d0901010106016020528a82808060008051602061c83683398151915285099260008051602061c9b683398151915290098160008051602061c9568339815191528d098260008051602061c9168339815191528d098360008051602061c7d68339815191528d0901010106016080528a82808060008051602061c7f683398151915285099260008051602061c8f683398151915290098160008051602061c8968339815191528d098260008051602061ca768339815191528d098360008051602061cad68339815191528d09010101060160a05260008051602061c87683398151915290099860008051602061c81683398151915290099560008051602061c99683398151915290099360008051602061ca3683398151915290099160008051602061c9f68339815191529009010101060160c052565b6000517f17c31ea02fbc378320d86ffed6c7ca1583b618c5c1a687818d4087a497d73490016020517f05b86c4bb8ef318b6a7227e4192d149d3c17a9764ccd660de4d50a77f192a91b01906080517f265bc95df4a4c4876ff70d7ea2fde2c7ab15f4a6ae0d237cd6ce74ba986c7a7b0160a0517f24752b47bc6c6bc8d9bbe48f5fef2f6908701739c5f5b4b3d6c886d4715c7929019060c0517f14814a1e0f492a4ea0d86e527a96482178d624b98da96ee5e583b9324d974efe019360008051602061c9368339815191528080808080808080808d819e82818192098009099981808280098009099981808280098009099981808280098009099a81808280098009098a82808060008051602061c9d683398151915285099260008051602061c8b683398151915290098160008051602061ca568339815191528d098260008051602061c9768339815191528d098360008051602061ca968339815191528d0901010106016000528a82808060008051602061caf683398151915285099260008051602061c8d683398151915290098160008051602061ca168339815191528d098260008051602061cab68339815191528d098360008051602061c8568339815191528d0901010106016020528a82808060008051602061c83683398151915285099260008051602061c9b683398151915290098160008051602061c9568339815191528d098260008051602061c9168339815191528d098360008051602061c7d68339815191528d0901010106016080528a82808060008051602061c7f683398151915285099260008051602061c8f683398151915290098160008051602061c8968339815191528d098260008051602061ca768339815191528d098360008051602061cad68339815191528d09010101060160a05260008051602061c87683398151915290099860008051602061c81683398151915290099560008051602061c99683398151915290099360008051602061ca3683398151915290099160008051602061c9f68339815191529009010101060160c052565b6000517f10def931073b6479bd60577378f29381997c8e041d3cfb3dc7523bca906f00bd016020517f14f7ae770bf7e95f7f706c0d8ab4ed03fa0b880d28c69d031b4592c98610175f01906080517f1aef50a0cee751b59f926af40e8035d19decc9d428ebe4e775c5cc9dce1ce5890160a0517f041935607172f68eba65ca60068dfe3b086c2a2d57d09602951214b57e73cf5a019060c0517f26863e9dd24255d1573bd083959b856c0493fbefe83c819837a151d3bf452cb8019360008051602061c9368339815191528080808080808080808d819e82818192098009099981808280098009099981808280098009099981808280098009099a81808280098009098a82808060008051602061c9d683398151915285099260008051602061c8b683398151915290098160008051602061ca568339815191528d098260008051602061c9768339815191528d098360008051602061ca968339815191528d0901010106016000528a82808060008051602061caf683398151915285099260008051602061c8d683398151915290098160008051602061ca168339815191528d098260008051602061cab68339815191528d098360008051602061c8568339815191528d0901010106016020528a82808060008051602061c83683398151915285099260008051602061c9b683398151915290098160008051602061c9568339815191528d098260008051602061c9168339815191528d098360008051602061c7d68339815191528d0901010106016080528a82808060008051602061c7f683398151915285099260008051602061c8f683398151915290098160008051602061c8968339815191528d098260008051602061ca768339815191528d098360008051602061cad68339815191528d09010101060160a05260008051602061c87683398151915290099860008051602061c81683398151915290099560008051602061c99683398151915290099360008051602061ca3683398151915290099160008051602061c9f68339815191529009010101060160c052565b60805160008051602061c93683398151915290067f0554d736315b8662f02fdba7dd737fbca197aeb12ea64713ba733f28475128cb0160a05160008051602061c93683398151915290067f2f83b9df259b2b68bcd748056307c37754907df0c0fb0035f5087c58d5e8c2d40160c05160008051602061c93683398151915290067f2ca70e2e8d7f39a12447ac83052451b461f15f8b41a75ef31915208f5aba9683019060e05160008051602061c93683398151915290067f1cb5f9319be6a45e91b04d7222271c94994196f12ed22c5d4ec719cb83ecfea9019260008051602061c9368339815191528180099160008051602061c9368339815191528180099360008051602061c9368339815191528180099560008051602061c9368339815191528180098160008051602061c9368339815191528280099060008051602061c936833981519152910960008051602061c9d683398151915260008051602061c93683398151915291098360008051602061c9368339815191528a80099060008051602061c936833981519152910960008051602061c8b683398151915260008051602061c93683398151915291098560008051602061c9368339815191528a80099060008051602061c936833981519152910960008051602061ca5683398151915260008051602061c93683398151915291098760008051602061c9368339815191528a80099060008051602061c936833981519152910960008051602061c97683398151915260008051602061c936833981519152910901017f1282bc78005ba97a80ccae28ce172790ca301e19e52354333993891b9fd27bd40160008051602061c9368339815191529006016000528160008051602061c9368339815191528280099060008051602061c936833981519152910960008051602061caf683398151915260008051602061c93683398151915291098360008051602061c9368339815191528a80099060008051602061c936833981519152910960008051602061c8d683398151915260008051602061c93683398151915291098560008051602061c9368339815191528a80099060008051602061c936833981519152910960008051602061ca1683398151915260008051602061c93683398151915291098760008051602061c9368339815191528a80099060008051602061c936833981519152910960008051602061cab683398151915260008051602061c936833981519152910901017f25ce673773c90bcab91ecf14a691cbc59aeff5abfff4cfc7c6a85d51a79468fa0160008051602061c9368339815191529006016020528160008051602061c9368339815191528280099060008051602061c936833981519152910960008051602061c83683398151915260008051602061c93683398151915291098360008051602061c9368339815191528a80099060008051602061c936833981519152910960008051602061c9b683398151915260008051602061c93683398151915291098560008051602061c9368339815191528a80099060008051602061c936833981519152910960008051602061c95683398151915260008051602061c93683398151915291098760008051602061c9368339815191528a80099060008051602061c936833981519152910960008051602061c91683398151915260008051602061c936833981519152910901017f2933f130a05a81186977481f40b428b2fa98c4a8f2561aad43098fb380f746b70160008051602061c9368339815191529006016080528160008051602061c9368339815191528280099060008051602061c936833981519152910960008051602061c7f683398151915260008051602061c93683398151915291098360008051602061c9368339815191528a80099060008051602061c936833981519152910960008051602061c8f683398151915260008051602061c93683398151915291098560008051602061c9368339815191528a80099060008051602061c936833981519152910960008051602061c89683398151915260008051602061c93683398151915291098760008051602061c9368339815191528a80099060008051602061c936833981519152910960008051602061ca7683398151915260008051602061c936833981519152910901017f178f5c848248d8ae30d9d4e6c27ec06995bba97b9d0ab13bb7b63e121958133e0160008051602061c93683398151915290060160a0528060008051602061c93683398151915291099060008051602061c936833981519152910960008051602061c87683398151915260008051602061c9368339815191529109958060008051602061c93683398151915291099060008051602061c936833981519152910960008051602061c81683398151915260008051602061c9368339815191529109938060008051602061c93683398151915291099060008051602061c936833981519152910960008051602061c99683398151915260008051602061c9368339815191529109918060008051602061c93683398151915291099060008051602061c936833981519152910960008051602061ca3683398151915260008051602061c936833981519152910901017f1f52dac6047456323348e214a18a3aad024561b12c7ca045cd2484b9d4ffe3c00160008051602061c93683398151915290060160c05261c2e961a960565b61c2f161ac5a565b61c2f961af54565b61c30161006c565b61c30961033d565b61c31161060e565b61c3196108df565b61c321610baf565b61c329610e80565b61c331611151565b61c339611422565b61c3416116f3565b61c3496119c4565b61c351611c95565b61c359611f66565b61c361612237565b61c369612508565b61c3716127d9565b61c379612aaa565b61c381612d7b565b61c38961304c565b61c39161331d565b61c3996135ee565b61c3a16138bf565b61c3a9613b8e565b61c3b1613e5f565b61c3b9614130565b61c3c1614401565b61c3c96146d2565b61c3d16149a2565b61c3d9614c73565b61c3e1614f44565b61c3e9615215565b61c3f16154e6565b61c3f96157b7565b61c401615a88565b61c409615d59565b61c41161602a565b61c4196162fb565b61c4216165cc565b61c42961689d565b61c431616b6e565b61c439616e3f565b61c441617110565b61c4496173e0565b61c4516176b1565b61c459617982565b61c461617c52565b61c469617f22565b61c4716181f3565b61c4796184c4565b61c481618795565b61c489618a66565b61c491618d37565b61c499619008565b61c4a16192d9565b61c4a96195aa565b61c4b161987b565b61c4b9619b4c565b61c4c1619e1c565b61c4c961a0ed565b61c4d161a3be565b61c4d961a68f565b61c4e161b24e565b61c4e961b548565b61c4f161b842565b6000517f2036efb6f9830965eb3d7a068bd087c9f5adf251ba62052c652738e63ff8b3af016020517f0c712a975b74dc9d766b639a029969ca30be4f75a753f854b00fa4f1b4f4ee9b016080517f08014dab3cd1667e27afc99bfac1e6807afdff6456492ca3375731d387539699019060a0517f198d07192db4fac2a82a4a79839d6a2b97c4dd4d37b4e8f3b53009f79b34e6a4019260c0517f29eb1de42a3ad381b23b4131426897a32709b29d53bb946dfd15784d1f63e5720160008051602061c9368339815191528180098060008051602061c93683398151915291099060008051602061c936833981519152910960008051602061c9d683398151915260008051602061c93683398151915291099360008051602061c93683398151915281800960008051602061c9368339815191528280099060008051602061c93683398151915291099060008051602061c936833981519152910960008051602061c8b683398151915260008051602061c93683398151915291099260008051602061c93683398151915281800960008051602061c9368339815191528280099060008051602061c93683398151915291099060008051602061c936833981519152910960008051602061ca5683398151915260008051602061c93683398151915291099160008051602061c93683398151915281800960008051602061c9368339815191528280099060008051602061c93683398151915291099060008051602061c936833981519152910960008051602061c97683398151915260008051602061c93683398151915291099060008051602061c93683398151915281800960008051602061c9368339815191528280099060008051602061c93683398151915291099060008051602061c936833981519152910960008051602061ca9683398151915260008051602061c936833981519152910901010160008051602061c93683398151915290060160008051602061c936833981519152900660005260206000f3fe2f69a7198e1fbcc7dea43265306a37ed55b91bff652ad69aa4fa8478970d401d07f017a7ebd56dd086f7cd4fd710c509ed7ef8e300b9a8bb9fb9f28af710251f2d3a1aea2e6d44466808f88c9ba903d3bdcb6b58ba40441ed4ebcf11bbe1e37b2efc2b90d688134849018222e7b8922eaf67ce79816ef468531ec2de53bbd1672a70b9f1d4bbccdbc03e17c1d1dcdb02052903dc6609ea6969f661b2eb74c83914074bb14c982c81c9ad171e4f35fe49b39c4a7a72dbb6d9c98d803bfed65e641c482a25a729f5df20225815034b196098364a11f4d988fb7cc75cf32d8136fa104d0295ab00c85e960111ac25da474366599e575a9b7edf6145f14ba6d3c1c421888041e6febd546d427c890b1883bb9b626d8cb4dc18dcc4ec8fa75e530a132625ce48a7b39a4252732624e4ab94360812ac2fc9a14a5fb8b607ae9fd8514a001c1edd62645b73ad931ab80e37bbb267ba312b34140e716d6a3747594d305230644e72e131a029b85045b68181585d2833e84879b9709143e1f593f000000115b98ce93e47bc64ce2f2c96c69663c439c40c603049466fa7f9a4b228bfc32b25fb50b65acf4fb047cbd3b1c17d97c7fe26ea9ca238d6e348550486e91c776502ecac687ef5b4b568002bd9d1b96b4bef357a69e3e86b5561b9299b82d69c8e12c7e2adfa524e5958f65be2fbac809fcba8458b28e44d9265051de33163cf9c0aaa35e2c84baf117dea3e336cd96a39792b3813954fe9bf3ed5b90f2f69c9772a20e3a4a0e57d92f97c9d6186c6c3ea7c5e55c20146259be2f78c2ccc2e359528c2be2f8264f95f0b53c732134efa338ccd8fdb9ee2b45fb86a894f7db36c371049f8210566b51faafb1e9a5d63c0ee701673aed820d9c4403b01feb727a549293d617d7da72102355f39ebf62f91b06deb5325f367a4556ea1e31ed57678330dec54e6dbf75205fa75ba7992bd34f08b2efe2ecd424a73eda7784320a1a36e251e7fdf99591080080b0af133b9e4369f22e57ace3cd7f64fc6fdbcf38d7da1281154651c921e746315a9934f1b8a1bba9f92ad8ef4b979115b8e2e991ccd7a0c3f050a6bf5af151981e55e3e1a29a13c3ffa4550bd2514f1afd6c5f721f83014ddb5fada0171db80195b9592d8cf2be810930e3ea4574a350d65e2cbff4941a26469706673582212203b415e1b9964fa038e8224b73abdcd9a82dfaef7820cd51b1ddc9ebac13e5e6b64736f6c63430008180033","opcodes":"PUSH1 0x80 DUP1 PUSH1 0x40 MSTORE CALLVALUE PUSH3 0x1C JUMPI PUSH2 0xCB4B SWAP1 DUP2 PUSH3 0x22 DUP3 CODECOPY ADDRESS DUP2 POP POP RETURN JUMPDEST PUSH1 0x0 DUP1 REVERT INVALID PUSH1 0x4 CALLDATASIZE LT ISZERO PUSH2 0xD JUMPI PUSH1 0x0 DUP1 REVERT JUMPDEST PUSH1 0x0 DUP1 CALLDATALOAD PUSH1 0xE0 SHR PUSH4 0x8709CD8C EQ PUSH2 0x23 JUMPI PUSH1 0x0 DUP1 REVERT JUMPDEST PUSH1 0x80 CALLDATASIZE PUSH1 0x3 NOT ADD SLT PUSH2 0x69 JUMPI CALLDATASIZE PUSH1 0x23 SLT ISZERO PUSH2 0x69 JUMPI PUSH2 0x100 PUSH1 0x40 MSTORE PUSH1 0x80 SWAP1 PUSH1 0x84 SWAP1 CALLDATASIZE PUSH1 0x84 GT PUSH2 0x69 JUMPI POP PUSH1 0x4 SWAP2 JUMPDEST DUP2 DUP4 LT ISZERO PUSH2 0xBB3C JUMPI DUP3 CALLDATALOAD DUP2 MSTORE PUSH1 0x20 SWAP3 DUP4 ADD SWAP3 ADD PUSH2 0x51 JUMP JUMPDEST DUP1 REVERT JUMPDEST PUSH1 0x0 MLOAD PUSH32 0xA01776BB22F4B6B8ECCFF33E76FDED3144FB7E3AC14E846A91E64AFB1500EFF ADD PUSH1 0x20 MLOAD PUSH32 0x2B7B5674AAECC3CBF34D3F275066D549A4F33AE8C15CF827F7936440810ACE43 ADD SWAP1 PUSH1 0x80 MLOAD PUSH32 0x29D299B80CD4489E4CF75779ED54B48C60B042257B78FC004C1B803381A3BDFD ADD PUSH1 0xA0 MLOAD PUSH32 0x1C46831D9A74529357641C219D721A74A427110032B5E1DD19DDE30424BE401E ADD SWAP3 PUSH1 0xC0 MLOAD PUSH32 0x6D7626C953CCB72F37141DC34D578E036296C0657674F80739AE1D883E91269 ADD PUSH1 0x0 DUP1 MLOAD PUSH1 0x20 PUSH2 0xC936 DUP4 CODECOPY DUP2 MLOAD SWAP2 MSTORE DUP1 DUP1 DUP1 DUP1 DUP1 DUP10 DUP2 DUP1 DUP3 DUP2 SWAP14 MULMOD DUP1 MULMOD MULMOD SWAP6 DUP11 DUP3 DUP1 DUP1 PUSH1 0x0 DUP1 MLOAD PUSH1 0x20 PUSH2 0xC9D6 DUP4 CODECOPY DUP2 MLOAD SWAP2 MSTORE DUP6 MULMOD SWAP3 PUSH1 0x0 DUP1 MLOAD PUSH1 0x20 PUSH2 0xC8B6 DUP4 CODECOPY DUP2 MLOAD SWAP2 MSTORE SWAP1 MULMOD DUP2 PUSH1 0x0 DUP1 MLOAD PUSH1 0x20 PUSH2 0xCA56 DUP4 CODECOPY DUP2 MLOAD SWAP2 MSTORE DUP14 MULMOD DUP3 PUSH1 0x0 DUP1 MLOAD PUSH1 0x20 PUSH2 0xC976 DUP4 CODECOPY DUP2 MLOAD SWAP2 MSTORE DUP14 MULMOD DUP4 PUSH1 0x0 DUP1 MLOAD PUSH1 0x20 PUSH2 0xCA96 DUP4 CODECOPY DUP2 MLOAD SWAP2 MSTORE DUP14 MULMOD ADD ADD ADD MOD ADD PUSH1 0x0 MSTORE DUP11 DUP3 DUP1 DUP1 PUSH1 0x0 DUP1 MLOAD PUSH1 0x20 PUSH2 0xCAF6 DUP4 CODECOPY DUP2 MLOAD SWAP2 MSTORE DUP6 MULMOD SWAP3 PUSH1 0x0 DUP1 MLOAD PUSH1 0x20 PUSH2 0xC8D6 DUP4 CODECOPY DUP2 MLOAD SWAP2 MSTORE SWAP1 MULMOD DUP2 PUSH1 0x0 DUP1 MLOAD PUSH1 0x20 PUSH2 0xCA16 DUP4 CODECOPY DUP2 MLOAD SWAP2 MSTORE DUP14 MULMOD DUP3 PUSH1 0x0 DUP1 MLOAD PUSH1 0x20 PUSH2 0xCAB6 DUP4 CODECOPY DUP2 MLOAD SWAP2 MSTORE DUP14 MULMOD DUP4 PUSH1 0x0 DUP1 MLOAD PUSH1 0x20 PUSH2 0xC856 DUP4 CODECOPY DUP2 MLOAD SWAP2 MSTORE DUP14 MULMOD ADD ADD ADD MOD ADD PUSH1 0x20 MSTORE DUP11 DUP3 DUP1 DUP1 PUSH1 0x0 DUP1 MLOAD PUSH1 0x20 PUSH2 0xC836 DUP4 CODECOPY DUP2 MLOAD SWAP2 MSTORE DUP6 MULMOD SWAP3 PUSH1 0x0 DUP1 MLOAD PUSH1 0x20 PUSH2 0xC9B6 DUP4 CODECOPY DUP2 MLOAD SWAP2 MSTORE SWAP1 MULMOD DUP2 PUSH1 0x0 DUP1 MLOAD PUSH1 0x20 PUSH2 0xC956 DUP4 CODECOPY DUP2 MLOAD SWAP2 MSTORE DUP14 MULMOD DUP3 PUSH1 0x0 DUP1 MLOAD PUSH1 0x20 PUSH2 0xC916 DUP4 CODECOPY DUP2 MLOAD SWAP2 MSTORE DUP14 MULMOD DUP4 PUSH1 0x0 DUP1 MLOAD PUSH1 0x20 PUSH2 0xC7D6 DUP4 CODECOPY DUP2 MLOAD SWAP2 MSTORE DUP14 MULMOD ADD ADD ADD MOD ADD PUSH1 0x80 MSTORE DUP11 DUP3 DUP1 DUP1 PUSH1 0x0 DUP1 MLOAD PUSH1 0x20 PUSH2 0xC7F6 DUP4 CODECOPY DUP2 MLOAD SWAP2 MSTORE DUP6 MULMOD SWAP3 PUSH1 0x0 DUP1 MLOAD PUSH1 0x20 PUSH2 0xC8F6 DUP4 CODECOPY DUP2 MLOAD SWAP2 MSTORE SWAP1 MULMOD DUP2 PUSH1 0x0 DUP1 MLOAD PUSH1 0x20 PUSH2 0xC896 DUP4 CODECOPY DUP2 MLOAD SWAP2 MSTORE DUP14 MULMOD DUP3 PUSH1 0x0 DUP1 MLOAD PUSH1 0x20 PUSH2 0xCA76 DUP4 CODECOPY DUP2 MLOAD SWAP2 MSTORE DUP14 MULMOD DUP4 PUSH1 0x0 DUP1 MLOAD PUSH1 0x20 PUSH2 0xCAD6 DUP4 CODECOPY DUP2 MLOAD SWAP2 MSTORE DUP14 MULMOD ADD ADD ADD MOD ADD PUSH1 0xA0 MSTORE PUSH1 0x0 DUP1 MLOAD PUSH1 0x20 PUSH2 0xC876 DUP4 CODECOPY DUP2 MLOAD SWAP2 MSTORE SWAP1 MULMOD SWAP9 PUSH1 0x0 DUP1 MLOAD PUSH1 0x20 PUSH2 0xC816 DUP4 CODECOPY DUP2 MLOAD SWAP2 MSTORE SWAP1 MULMOD SWAP6 PUSH1 0x0 DUP1 MLOAD PUSH1 0x20 PUSH2 0xC996 DUP4 CODECOPY DUP2 MLOAD SWAP2 MSTORE SWAP1 MULMOD SWAP4 PUSH1 0x0 DUP1 MLOAD PUSH1 0x20 PUSH2 0xCA36 DUP4 CODECOPY DUP2 MLOAD SWAP2 MSTORE SWAP1 MULMOD SWAP2 PUSH1 0x0 DUP1 MLOAD PUSH1 0x20 PUSH2 0xC9F6 DUP4 CODECOPY DUP2 MLOAD SWAP2 MSTORE SWAP1 MULMOD ADD ADD ADD MOD ADD PUSH1 0xC0 MSTORE JUMP JUMPDEST PUSH1 0x0 MLOAD PUSH32 0x28FFDDC86F18C136C54002748E0C410EDC5C440A3022CD960F108C71CDA2930C ADD PUSH1 0x20 MLOAD PUSH32 0x2E67F7EE5E4AA295F85DEED09E400B17BE67F1B7ED2AB6ADB8EC0619F6FBC5E9 ADD SWAP1 PUSH1 0x80 MLOAD PUSH32 0x26CE38FA636C90630E97F25114A79A2DCA56859EF759E53CE7ABF22C24E80F27 ADD PUSH1 0xA0 MLOAD PUSH32 0x2E6E07C3C95BF7C34DD7A01D00A7FFEC42CB3D16A1F72721AFACB4C4CFD35DB1 ADD SWAP3 PUSH1 0xC0 MLOAD PUSH32 0x2AA74F7597F0C9F45F91D7961C3A54FB8890D276612E1246384B1470DA24D8CC ADD PUSH1 0x0 DUP1 MLOAD PUSH1 0x20 PUSH2 0xC936 DUP4 CODECOPY DUP2 MLOAD SWAP2 MSTORE DUP1 DUP1 DUP1 DUP1 DUP1 DUP10 DUP2 DUP1 DUP3 DUP2 SWAP14 MULMOD DUP1 MULMOD MULMOD SWAP6 DUP11 DUP3 DUP1 DUP1 PUSH1 0x0 DUP1 MLOAD PUSH1 0x20 PUSH2 0xC9D6 DUP4 CODECOPY DUP2 MLOAD SWAP2 MSTORE DUP6 MULMOD SWAP3 PUSH1 0x0 DUP1 MLOAD PUSH1 0x20 PUSH2 0xC8B6 DUP4 CODECOPY DUP2 MLOAD SWAP2 MSTORE SWAP1 MULMOD DUP2 PUSH1 0x0 DUP1 MLOAD PUSH1 0x20 PUSH2 0xCA56 DUP4 CODECOPY DUP2 MLOAD SWAP2 MSTORE DUP14 MULMOD DUP3 PUSH1 0x0 DUP1 MLOAD PUSH1 0x20 PUSH2 0xC976 DUP4 CODECOPY DUP2 MLOAD SWAP2 MSTORE DUP14 MULMOD DUP4 PUSH1 0x0 DUP1 MLOAD PUSH1 0x20 PUSH2 0xCA96 DUP4 CODECOPY DUP2 MLOAD SWAP2 MSTORE DUP14 MULMOD ADD ADD ADD MOD ADD PUSH1 0x0 MSTORE DUP11 DUP3 DUP1 DUP1 PUSH1 0x0 DUP1 MLOAD PUSH1 0x20 PUSH2 0xCAF6 DUP4 CODECOPY DUP2 MLOAD SWAP2 MSTORE DUP6 MULMOD SWAP3 PUSH1 0x0 DUP1 MLOAD PUSH1 0x20 PUSH2 0xC8D6 DUP4 CODECOPY DUP2 MLOAD SWAP2 MSTORE SWAP1 MULMOD DUP2 PUSH1 0x0 DUP1 MLOAD PUSH1 0x20 PUSH2 0xCA16 DUP4 CODECOPY DUP2 MLOAD SWAP2 MSTORE DUP14 MULMOD DUP3 PUSH1 0x0 DUP1 MLOAD PUSH1 0x20 PUSH2 0xCAB6 DUP4 CODECOPY DUP2 MLOAD SWAP2 MSTORE DUP14 MULMOD DUP4 PUSH1 0x0 DUP1 MLOAD PUSH1 0x20 PUSH2 0xC856 DUP4 CODECOPY DUP2 MLOAD SWAP2 MSTORE DUP14 MULMOD ADD ADD ADD MOD ADD PUSH1 0x20 MSTORE DUP11 DUP3 DUP1 DUP1 PUSH1 0x0 DUP1 MLOAD PUSH1 0x20 PUSH2 0xC836 DUP4 CODECOPY DUP2 MLOAD SWAP2 MSTORE DUP6 MULMOD SWAP3 PUSH1 0x0 DUP1 MLOAD PUSH1 0x20 PUSH2 0xC9B6 DUP4 CODECOPY DUP2 MLOAD SWAP2 MSTORE SWAP1 MULMOD DUP2 PUSH1 0x0 DUP1 MLOAD PUSH1 0x20 PUSH2 0xC956 DUP4 CODECOPY DUP2 MLOAD SWAP2 MSTORE DUP14 MULMOD DUP3 PUSH1 0x0 DUP1 MLOAD PUSH1 0x20 PUSH2 0xC916 DUP4 CODECOPY DUP2 MLOAD SWAP2 MSTORE DUP14 MULMOD DUP4 PUSH1 0x0 DUP1 MLOAD PUSH1 0x20 PUSH2 0xC7D6 DUP4 CODECOPY DUP2 MLOAD SWAP2 MSTORE DUP14 MULMOD ADD ADD ADD MOD ADD PUSH1 0x80 MSTORE DUP11 DUP3 DUP1 DUP1 PUSH1 0x0 DUP1 MLOAD PUSH1 0x20 PUSH2 0xC7F6 DUP4 CODECOPY DUP2 MLOAD SWAP2 MSTORE DUP6 MULMOD SWAP3 PUSH1 0x0 DUP1 MLOAD PUSH1 0x20 PUSH2 0xC8F6 DUP4 CODECOPY DUP2 MLOAD SWAP2 MSTORE SWAP1 MULMOD DUP2 PUSH1 0x0 DUP1 MLOAD PUSH1 0x20 PUSH2 0xC896 DUP4 CODECOPY DUP2 MLOAD SWAP2 MSTORE DUP14 MULMOD DUP3 PUSH1 0x0 DUP1 MLOAD PUSH1 0x20 PUSH2 0xCA76 DUP4 CODECOPY DUP2 MLOAD SWAP2 MSTORE DUP14 MULMOD DUP4 PUSH1 0x0 DUP1 MLOAD PUSH1 0x20 PUSH2 0xCAD6 DUP4 CODECOPY DUP2 MLOAD SWAP2 MSTORE DUP14 MULMOD ADD ADD ADD MOD ADD PUSH1 0xA0 MSTORE PUSH1 0x0 DUP1 MLOAD PUSH1 0x20 PUSH2 0xC876 DUP4 CODECOPY DUP2 MLOAD SWAP2 MSTORE SWAP1 MULMOD SWAP9 PUSH1 0x0 DUP1 MLOAD PUSH1 0x20 PUSH2 0xC816 DUP4 CODECOPY DUP2 MLOAD SWAP2 MSTORE SWAP1 MULMOD SWAP6 PUSH1 0x0 DUP1 MLOAD PUSH1 0x20 PUSH2 0xC996 DUP4 CODECOPY DUP2 MLOAD SWAP2 MSTORE SWAP1 MULMOD SWAP4 PUSH1 0x0 DUP1 MLOAD PUSH1 0x20 PUSH2 0xCA36 DUP4 CODECOPY DUP2 MLOAD SWAP2 MSTORE SWAP1 MULMOD SWAP2 PUSH1 0x0 DUP1 MLOAD PUSH1 0x20 PUSH2 0xC9F6 DUP4 CODECOPY DUP2 MLOAD SWAP2 MSTORE SWAP1 MULMOD ADD ADD ADD MOD ADD PUSH1 0xC0 MSTORE JUMP JUMPDEST PUSH1 0x0 MLOAD PUSH32 0x287D681A46A2FAAE2C7C090F668AB45B8A71313C1509183E2EC0CA639B7F73FE ADD PUSH1 0x20 MLOAD PUSH32 0x212BD19DF812EAAEF4A40600528F3D7DA5D3106FF565AA3B11E29F3305E73C04 ADD SWAP1 PUSH1 0x80 MLOAD PUSH32 0x1154F7CF519186BF1AAFB14B350EB860F97FD9740926DAB93809C28404713504 ADD PUSH1 0xA0 MLOAD PUSH32 0x1DFF6385CB31F1C24637810A4BD1B16FBF5152905BE36583DA747E79661FC207 ADD SWAP3 PUSH1 0xC0 MLOAD PUSH32 0xE444582D22B4E76C081D34C44C18E424011A34D5476252863EA3C606B551E5C ADD PUSH1 0x0 DUP1 MLOAD PUSH1 0x20 PUSH2 0xC936 DUP4 CODECOPY DUP2 MLOAD SWAP2 MSTORE DUP1 DUP1 DUP1 DUP1 DUP1 DUP10 DUP2 DUP1 DUP3 DUP2 SWAP14 MULMOD DUP1 MULMOD MULMOD SWAP6 DUP11 DUP3 DUP1 DUP1 PUSH1 0x0 DUP1 MLOAD PUSH1 0x20 PUSH2 0xC9D6 DUP4 CODECOPY DUP2 MLOAD SWAP2 MSTORE DUP6 MULMOD SWAP3 PUSH1 0x0 DUP1 MLOAD PUSH1 0x20 PUSH2 0xC8B6 DUP4 CODECOPY DUP2 MLOAD SWAP2 MSTORE SWAP1 MULMOD DUP2 PUSH1 0x0 DUP1 MLOAD PUSH1 0x20 PUSH2 0xCA56 DUP4 CODECOPY DUP2 MLOAD SWAP2 MSTORE DUP14 MULMOD DUP3 PUSH1 0x0 DUP1 MLOAD PUSH1 0x20 PUSH2 0xC976 DUP4 CODECOPY DUP2 MLOAD SWAP2 MSTORE DUP14 MULMOD DUP4 PUSH1 0x0 DUP1 MLOAD PUSH1 0x20 PUSH2 0xCA96 DUP4 CODECOPY DUP2 MLOAD SWAP2 MSTORE DUP14 MULMOD ADD ADD ADD MOD ADD PUSH1 0x0 MSTORE DUP11 DUP3 DUP1 DUP1 PUSH1 0x0 DUP1 MLOAD PUSH1 0x20 PUSH2 0xCAF6 DUP4 CODECOPY DUP2 MLOAD SWAP2 MSTORE DUP6 MULMOD SWAP3 PUSH1 0x0 DUP1 MLOAD PUSH1 0x20 PUSH2 0xC8D6 DUP4 CODECOPY DUP2 MLOAD SWAP2 MSTORE SWAP1 MULMOD DUP2 PUSH1 0x0 DUP1 MLOAD PUSH1 0x20 PUSH2 0xCA16 DUP4 CODECOPY DUP2 MLOAD SWAP2 MSTORE DUP14 MULMOD DUP3 PUSH1 0x0 DUP1 MLOAD PUSH1 0x20 PUSH2 0xCAB6 DUP4 CODECOPY DUP2 MLOAD SWAP2 MSTORE DUP14 MULMOD DUP4 PUSH1 0x0 DUP1 MLOAD PUSH1 0x20 PUSH2 0xC856 DUP4 CODECOPY DUP2 MLOAD SWAP2 MSTORE DUP14 MULMOD ADD ADD ADD MOD ADD PUSH1 0x20 MSTORE DUP11 DUP3 DUP1 DUP1 PUSH1 0x0 DUP1 MLOAD PUSH1 0x20 PUSH2 0xC836 DUP4 CODECOPY DUP2 MLOAD SWAP2 MSTORE DUP6 MULMOD SWAP3 PUSH1 0x0 DUP1 MLOAD PUSH1 0x20 PUSH2 0xC9B6 DUP4 CODECOPY DUP2 MLOAD SWAP2 MSTORE SWAP1 MULMOD DUP2 PUSH1 0x0 DUP1 MLOAD PUSH1 0x20 PUSH2 0xC956 DUP4 CODECOPY DUP2 MLOAD SWAP2 MSTORE DUP14 MULMOD DUP3 PUSH1 0x0 DUP1 MLOAD PUSH1 0x20 PUSH2 0xC916 DUP4 CODECOPY DUP2 MLOAD SWAP2 MSTORE DUP14 MULMOD DUP4 PUSH1 0x0 DUP1 MLOAD PUSH1 0x20 PUSH2 0xC7D6 DUP4 CODECOPY DUP2 MLOAD SWAP2 MSTORE DUP14 MULMOD ADD ADD ADD MOD ADD PUSH1 0x80 MSTORE DUP11 DUP3 DUP1 DUP1 PUSH1 0x0 DUP1 MLOAD PUSH1 0x20 PUSH2 0xC7F6 DUP4 CODECOPY DUP2 MLOAD SWAP2 MSTORE DUP6 MULMOD SWAP3 PUSH1 0x0 DUP1 MLOAD PUSH1 0x20 PUSH2 0xC8F6 DUP4 CODECOPY DUP2 MLOAD SWAP2 MSTORE SWAP1 MULMOD DUP2 PUSH1 0x0 DUP1 MLOAD PUSH1 0x20 PUSH2 0xC896 DUP4 CODECOPY DUP2 MLOAD SWAP2 MSTORE DUP14 MULMOD DUP3 PUSH1 0x0 DUP1 MLOAD PUSH1 0x20 PUSH2 0xCA76 DUP4 CODECOPY DUP2 MLOAD SWAP2 MSTORE DUP14 MULMOD DUP4 PUSH1 0x0 DUP1 MLOAD PUSH1 0x20 PUSH2 0xCAD6 DUP4 CODECOPY DUP2 MLOAD SWAP2 MSTORE DUP14 MULMOD ADD ADD ADD MOD ADD PUSH1 0xA0 MSTORE PUSH1 0x0 DUP1 MLOAD PUSH1 0x20 PUSH2 0xC876 DUP4 CODECOPY DUP2 MLOAD SWAP2 MSTORE SWAP1 MULMOD SWAP9 PUSH1 0x0 DUP1 MLOAD PUSH1 0x20 PUSH2 0xC816 DUP4 CODECOPY DUP2 MLOAD SWAP2 MSTORE SWAP1 MULMOD SWAP6 PUSH1 0x0 DUP1 MLOAD PUSH1 0x20 PUSH2 0xC996 DUP4 CODECOPY DUP2 MLOAD SWAP2 MSTORE SWAP1 MULMOD SWAP4 PUSH1 0x0 DUP1 MLOAD PUSH1 0x20 PUSH2 0xCA36 DUP4 CODECOPY DUP2 MLOAD SWAP2 MSTORE SWAP1 MULMOD SWAP2 PUSH1 0x0 DUP1 MLOAD PUSH1 0x20 PUSH2 0xC9F6 DUP4 CODECOPY DUP2 MLOAD SWAP2 MSTORE SWAP1 MULMOD ADD ADD ADD MOD ADD PUSH1 0xC0 MSTORE JUMP JUMPDEST PUSH1 0x0 MLOAD PUSH32 0x323C9E433BA66C4ABAB6638328F02F1815773E9C2846323FF72D3AAB7E4EFF8 ADD PUSH1 0x20 MLOAD PUSH32 0x12746BBD71791059193BBA79CDEC448F25B8CF002740112DB70F2C6876A9C29D ADD SWAP1 PUSH1 0x80 MLOAD PUSH32 0x1173B7D112C2A798FD9B9D3751842C75D466C837CF50D73EFD049EB4438A2240 ADD PUSH1 0xA0 MLOAD PUSH32 0x13D51C1090A1AD4876D1E555D7FED13DA8E5713B25026EBE5FDB4808703243DA ADD SWAP3 PUSH1 0xC0 MLOAD PUSH31 0x874C1344A4AD51FF8DCB7CBD2D9743CB72743F0394EFE7F4A58EBEB956BAA1 ADD PUSH1 0x0 DUP1 MLOAD PUSH1 0x20 PUSH2 0xC936 DUP4 CODECOPY DUP2 MLOAD SWAP2 MSTORE DUP1 DUP1 DUP1 DUP1 DUP1 DUP10 DUP2 DUP1 DUP3 DUP2 SWAP14 MULMOD DUP1 MULMOD MULMOD SWAP6 DUP11 DUP3 DUP1 DUP1 PUSH1 0x0 DUP1 MLOAD PUSH1 0x20 PUSH2 0xC9D6 DUP4 CODECOPY DUP2 MLOAD SWAP2 MSTORE DUP6 MULMOD SWAP3 PUSH1 0x0 DUP1 MLOAD PUSH1 0x20 PUSH2 0xC8B6 DUP4 CODECOPY DUP2 MLOAD SWAP2 MSTORE SWAP1 MULMOD DUP2 PUSH1 0x0 DUP1 MLOAD PUSH1 0x20 PUSH2 0xCA56 DUP4 CODECOPY DUP2 MLOAD SWAP2 MSTORE DUP14 MULMOD DUP3 PUSH1 0x0 DUP1 MLOAD PUSH1 0x20 PUSH2 0xC976 DUP4 CODECOPY DUP2 MLOAD SWAP2 MSTORE DUP14 MULMOD DUP4 PUSH1 0x0 DUP1 MLOAD PUSH1 0x20 PUSH2 0xCA96 DUP4 CODECOPY DUP2 MLOAD SWAP2 MSTORE DUP14 MULMOD ADD ADD ADD MOD ADD PUSH1 0x0 MSTORE DUP11 DUP3 DUP1 DUP1 PUSH1 0x0 DUP1 MLOAD PUSH1 0x20 PUSH2 0xCAF6 DUP4 CODECOPY DUP2 MLOAD SWAP2 MSTORE DUP6 MULMOD SWAP3 PUSH1 0x0 DUP1 MLOAD PUSH1 0x20 PUSH2 0xC8D6 DUP4 CODECOPY DUP2 MLOAD SWAP2 MSTORE SWAP1 MULMOD DUP2 PUSH1 0x0 DUP1 MLOAD PUSH1 0x20 PUSH2 0xCA16 DUP4 CODECOPY DUP2 MLOAD SWAP2 MSTORE DUP14 MULMOD DUP3 PUSH1 0x0 DUP1 MLOAD PUSH1 0x20 PUSH2 0xCAB6 DUP4 CODECOPY DUP2 MLOAD SWAP2 MSTORE DUP14 MULMOD DUP4 PUSH1 0x0 DUP1 MLOAD PUSH1 0x20 PUSH2 0xC856 DUP4 CODECOPY DUP2 MLOAD SWAP2 MSTORE DUP14 MULMOD ADD ADD ADD MOD ADD PUSH1 0x20 MSTORE DUP11 DUP3 DUP1 DUP1 PUSH1 0x0 DUP1 MLOAD PUSH1 0x20 PUSH2 0xC836 DUP4 CODECOPY DUP2 MLOAD SWAP2 MSTORE DUP6 MULMOD SWAP3 PUSH1 0x0 DUP1 MLOAD PUSH1 0x20 PUSH2 0xC9B6 DUP4 CODECOPY DUP2 MLOAD SWAP2 MSTORE SWAP1 MULMOD DUP2 PUSH1 0x0 DUP1 MLOAD PUSH1 0x20 PUSH2 0xC956 DUP4 CODECOPY DUP2 MLOAD SWAP2 MSTORE DUP14 MULMOD DUP3 PUSH1 0x0 DUP1 MLOAD PUSH1 0x20 PUSH2 0xC916 DUP4 CODECOPY DUP2 MLOAD SWAP2 MSTORE DUP14 MULMOD DUP4 PUSH1 0x0 DUP1 MLOAD PUSH1 0x20 PUSH2 0xC7D6 DUP4 CODECOPY DUP2 MLOAD SWAP2 MSTORE DUP14 MULMOD ADD ADD ADD MOD ADD PUSH1 0x80 MSTORE DUP11 DUP3 DUP1 DUP1 PUSH1 0x0 DUP1 MLOAD PUSH1 0x20 PUSH2 0xC7F6 DUP4 CODECOPY DUP2 MLOAD SWAP2 MSTORE DUP6 MULMOD SWAP3 PUSH1 0x0 DUP1 MLOAD PUSH1 0x20 PUSH2 0xC8F6 DUP4 CODECOPY DUP2 MLOAD SWAP2 MSTORE SWAP1 MULMOD DUP2 PUSH1 0x0 DUP1 MLOAD PUSH1 0x20 PUSH2 0xC896 DUP4 CODECOPY DUP2 MLOAD SWAP2 MSTORE DUP14 MULMOD DUP3 PUSH1 0x0 DUP1 MLOAD PUSH1 0x20 PUSH2 0xCA76 DUP4 CODECOPY DUP2 MLOAD SWAP2 MSTORE DUP14 MULMOD DUP4 PUSH1 0x0 DUP1 MLOAD PUSH1 0x20 PUSH2 0xCAD6 DUP4 CODECOPY DUP2 MLOAD SWAP2 MSTORE DUP14 MULMOD ADD ADD ADD MOD ADD PUSH1 0xA0 MSTORE PUSH1 0x0 DUP1 MLOAD PUSH1 0x20 PUSH2 0xC876 DUP4 CODECOPY DUP2 MLOAD SWAP2 MSTORE SWAP1 MULMOD SWAP9 PUSH1 0x0 DUP1 MLOAD PUSH1 0x20 PUSH2 0xC816 DUP4 CODECOPY DUP2 MLOAD SWAP2 MSTORE SWAP1 MULMOD SWAP6 PUSH1 0x0 DUP1 MLOAD PUSH1 0x20 PUSH2 0xC996 DUP4 CODECOPY DUP2 MLOAD SWAP2 MSTORE SWAP1 MULMOD SWAP4 PUSH1 0x0 DUP1 MLOAD PUSH1 0x20 PUSH2 0xCA36 DUP4 CODECOPY DUP2 MLOAD SWAP2 MSTORE SWAP1 MULMOD SWAP2 PUSH1 0x0 DUP1 MLOAD PUSH1 0x20 PUSH2 0xC9F6 DUP4 CODECOPY DUP2 MLOAD SWAP2 MSTORE SWAP1 MULMOD ADD ADD ADD MOD ADD PUSH1 0xC0 MSTORE JUMP JUMPDEST PUSH1 0x0 MLOAD PUSH32 0x22DF22131AAAB85865CE236B07F244FA0EEA48D3546E97D6A32A562074FEF08F ADD PUSH1 0x20 MLOAD PUSH32 0xBF964D2DBD25B908708B437A445FC3E984524A59101E6C18BF5EB05A919F155 ADD SWAP1 PUSH1 0x80 MLOAD PUSH32 0x9B18D9B917A55BCA302BE1F7F181E0E640B9D73A9AB298C69B435B5FC502F32 ADD PUSH1 0xA0 MLOAD PUSH32 0x94F5534444FAE36A4BFC1D5BF3DC05BFBBBC70A6365366DD6745A5067289E43 ADD SWAP3 PUSH1 0xC0 MLOAD PUSH32 0x2999BAB1A5F25210519FA6622AF53A15A3E240C0DA5701CB784FDDC0DC23F01F ADD PUSH1 0x0 DUP1 MLOAD PUSH1 0x20 PUSH2 0xC936 DUP4 CODECOPY DUP2 MLOAD SWAP2 MSTORE DUP1 DUP1 DUP1 DUP1 DUP1 DUP10 DUP2 DUP1 DUP3 DUP2 SWAP14 MULMOD DUP1 MULMOD MULMOD SWAP6 DUP11 DUP3 DUP1 DUP1 PUSH1 0x0 DUP1 MLOAD PUSH1 0x20 PUSH2 0xC9D6 DUP4 CODECOPY DUP2 MLOAD SWAP2 MSTORE DUP6 MULMOD SWAP3 PUSH1 0x0 DUP1 MLOAD PUSH1 0x20 PUSH2 0xC8B6 DUP4 CODECOPY DUP2 MLOAD SWAP2 MSTORE SWAP1 MULMOD DUP2 PUSH1 0x0 DUP1 MLOAD PUSH1 0x20 PUSH2 0xCA56 DUP4 CODECOPY DUP2 MLOAD SWAP2 MSTORE DUP14 MULMOD DUP3 PUSH1 0x0 DUP1 MLOAD PUSH1 0x20 PUSH2 0xC976 DUP4 CODECOPY DUP2 MLOAD SWAP2 MSTORE DUP14 MULMOD DUP4 PUSH1 0x0 DUP1 MLOAD PUSH1 0x20 PUSH2 0xCA96 DUP4 CODECOPY DUP2 MLOAD SWAP2 MSTORE DUP14 MULMOD ADD ADD ADD MOD ADD PUSH1 0x0 MSTORE DUP11 DUP3 DUP1 DUP1 PUSH1 0x0 DUP1 MLOAD PUSH1 0x20 PUSH2 0xCAF6 DUP4 CODECOPY DUP2 MLOAD SWAP2 MSTORE DUP6 MULMOD SWAP3 PUSH1 0x0 DUP1 MLOAD PUSH1 0x20 PUSH2 0xC8D6 DUP4 CODECOPY DUP2 MLOAD SWAP2 MSTORE SWAP1 MULMOD DUP2 PUSH1 0x0 DUP1 MLOAD PUSH1 0x20 PUSH2 0xCA16 DUP4 CODECOPY DUP2 MLOAD SWAP2 MSTORE DUP14 MULMOD DUP3 PUSH1 0x0 DUP1 MLOAD PUSH1 0x20 PUSH2 0xCAB6 DUP4 CODECOPY DUP2 MLOAD SWAP2 MSTORE DUP14 MULMOD DUP4 PUSH1 0x0 DUP1 MLOAD PUSH1 0x20 PUSH2 0xC856 DUP4 CODECOPY DUP2 MLOAD SWAP2 MSTORE DUP14 MULMOD ADD ADD ADD MOD ADD PUSH1 0x20 MSTORE DUP11 DUP3 DUP1 DUP1 PUSH1 0x0 DUP1 MLOAD PUSH1 0x20 PUSH2 0xC836 DUP4 CODECOPY DUP2 MLOAD SWAP2 MSTORE DUP6 MULMOD SWAP3 PUSH1 0x0 DUP1 MLOAD PUSH1 0x20 PUSH2 0xC9B6 DUP4 CODECOPY DUP2 MLOAD SWAP2 MSTORE SWAP1 MULMOD DUP2 PUSH1 0x0 DUP1 MLOAD PUSH1 0x20 PUSH2 0xC956 DUP4 CODECOPY DUP2 MLOAD SWAP2 MSTORE DUP14 MULMOD DUP3 PUSH1 0x0 DUP1 MLOAD PUSH1 0x20 PUSH2 0xC916 DUP4 CODECOPY DUP2 MLOAD SWAP2 MSTORE DUP14 MULMOD DUP4 PUSH1 0x0 DUP1 MLOAD PUSH1 0x20 PUSH2 0xC7D6 DUP4 CODECOPY DUP2 MLOAD SWAP2 MSTORE DUP14 MULMOD ADD ADD ADD MOD ADD PUSH1 0x80 MSTORE DUP11 DUP3 DUP1 DUP1 PUSH1 0x0 DUP1 MLOAD PUSH1 0x20 PUSH2 0xC7F6 DUP4 CODECOPY DUP2 MLOAD SWAP2 MSTORE DUP6 MULMOD SWAP3 PUSH1 0x0 DUP1 MLOAD PUSH1 0x20 PUSH2 0xC8F6 DUP4 CODECOPY DUP2 MLOAD SWAP2 MSTORE SWAP1 MULMOD DUP2 PUSH1 0x0 DUP1 MLOAD PUSH1 0x20 PUSH2 0xC896 DUP4 CODECOPY DUP2 MLOAD SWAP2 MSTORE DUP14 MULMOD DUP3 PUSH1 0x0 DUP1 MLOAD PUSH1 0x20 PUSH2 0xCA76 DUP4 CODECOPY DUP2 MLOAD SWAP2 MSTORE DUP14 MULMOD DUP4 PUSH1 0x0 DUP1 MLOAD PUSH1 0x20 PUSH2 0xCAD6 DUP4 CODECOPY DUP2 MLOAD SWAP2 MSTORE DUP14 MULMOD ADD ADD ADD MOD ADD PUSH1 0xA0 MSTORE PUSH1 0x0 DUP1 MLOAD PUSH1 0x20 PUSH2 0xC876 DUP4 CODECOPY DUP2 MLOAD SWAP2 MSTORE SWAP1 MULMOD SWAP9 PUSH1 0x0 DUP1 MLOAD PUSH1 0x20 PUSH2 0xC816 DUP4 CODECOPY DUP2 MLOAD SWAP2 MSTORE SWAP1 MULMOD SWAP6 PUSH1 0x0 DUP1 MLOAD PUSH1 0x20 PUSH2 0xC996 DUP4 CODECOPY DUP2 MLOAD SWAP2 MSTORE SWAP1 MULMOD SWAP4 PUSH1 0x0 DUP1 MLOAD PUSH1 0x20 PUSH2 0xCA36 DUP4 CODECOPY DUP2 MLOAD SWAP2 MSTORE SWAP1 MULMOD SWAP2 PUSH1 0x0 DUP1 MLOAD PUSH1 0x20 PUSH2 0xC9F6 DUP4 CODECOPY DUP2 MLOAD SWAP2 MSTORE SWAP1 MULMOD ADD ADD ADD MOD ADD PUSH1 0xC0 MSTORE JUMP JUMPDEST PUSH1 0x0 MLOAD PUSH32 0x2F6898C07581F6371CA94DB73710E88084301BCE8A93D13669575A11B03A3D23 ADD PUSH1 0x20 MLOAD PUSH32 0x7268EAABA08BC19EC16D7E1318A4740565DEB1E8E5742F862174B1A6866FCCB ADD SWAP1 PUSH1 0x80 MLOAD PUSH32 0x186279B003454DB01339FF77113BC9EB62603E078E1C6689A6C9582C41A0529F ADD PUSH1 0xA0 MLOAD PUSH32 0x18A3F736509197D6E4915BDD04D3E5DDB67E2CC5DE9A22750768E5524737172C ADD SWAP3 PUSH1 0xC0 MLOAD PUSH32 0xA21FA1988CF38D877CC1E2ED24C808C725E2D4BCB2D3A007B5987B87085671D ADD PUSH1 0x0 DUP1 MLOAD PUSH1 0x20 PUSH2 0xC936 DUP4 CODECOPY DUP2 MLOAD SWAP2 MSTORE DUP1 DUP1 DUP1 DUP1 DUP1 DUP10 DUP2 DUP1 DUP3 DUP2 SWAP14 MULMOD DUP1 MULMOD MULMOD SWAP6 DUP11 DUP3 DUP1 DUP1 PUSH1 0x0 DUP1 MLOAD PUSH1 0x20 PUSH2 0xC9D6 DUP4 CODECOPY DUP2 MLOAD SWAP2 MSTORE DUP6 MULMOD SWAP3 PUSH1 0x0 DUP1 MLOAD PUSH1 0x20 PUSH2 0xC8B6 DUP4 CODECOPY DUP2 MLOAD SWAP2 MSTORE SWAP1 MULMOD DUP2 PUSH1 0x0 DUP1 MLOAD PUSH1 0x20 PUSH2 0xCA56 DUP4 CODECOPY DUP2 MLOAD SWAP2 MSTORE DUP14 MULMOD DUP3 PUSH1 0x0 DUP1 MLOAD PUSH1 0x20 PUSH2 0xC976 DUP4 CODECOPY DUP2 MLOAD SWAP2 MSTORE DUP14 MULMOD DUP4 PUSH1 0x0 DUP1 MLOAD PUSH1 0x20 PUSH2 0xCA96 DUP4 CODECOPY DUP2 MLOAD SWAP2 MSTORE DUP14 MULMOD ADD ADD ADD MOD ADD PUSH1 0x0 MSTORE DUP11 DUP3 DUP1 DUP1 PUSH1 0x0 DUP1 MLOAD PUSH1 0x20 PUSH2 0xCAF6 DUP4 CODECOPY DUP2 MLOAD SWAP2 MSTORE DUP6 MULMOD SWAP3 PUSH1 0x0 DUP1 MLOAD PUSH1 0x20 PUSH2 0xC8D6 DUP4 CODECOPY DUP2 MLOAD SWAP2 MSTORE SWAP1 MULMOD DUP2 PUSH1 0x0 DUP1 MLOAD PUSH1 0x20 PUSH2 0xCA16 DUP4 CODECOPY DUP2 MLOAD SWAP2 MSTORE DUP14 MULMOD DUP3 PUSH1 0x0 DUP1 MLOAD PUSH1 0x20 PUSH2 0xCAB6 DUP4 CODECOPY DUP2 MLOAD SWAP2 MSTORE DUP14 MULMOD DUP4 PUSH1 0x0 DUP1 MLOAD PUSH1 0x20 PUSH2 0xC856 DUP4 CODECOPY DUP2 MLOAD SWAP2 MSTORE DUP14 MULMOD ADD ADD ADD MOD ADD PUSH1 0x20 MSTORE DUP11 DUP3 DUP1 DUP1 PUSH1 0x0 DUP1 MLOAD PUSH1 0x20 PUSH2 0xC836 DUP4 CODECOPY DUP2 MLOAD SWAP2 MSTORE DUP6 MULMOD SWAP3 PUSH1 0x0 DUP1 MLOAD PUSH1 0x20 PUSH2 0xC9B6 DUP4 CODECOPY DUP2 MLOAD SWAP2 MSTORE SWAP1 MULMOD DUP2 PUSH1 0x0 DUP1 MLOAD PUSH1 0x20 PUSH2 0xC956 DUP4 CODECOPY DUP2 MLOAD SWAP2 MSTORE DUP14 MULMOD DUP3 PUSH1 0x0 DUP1 MLOAD PUSH1 0x20 PUSH2 0xC916 DUP4 CODECOPY DUP2 MLOAD SWAP2 MSTORE DUP14 MULMOD DUP4 PUSH1 0x0 DUP1 MLOAD PUSH1 0x20 PUSH2 0xC7D6 DUP4 CODECOPY DUP2 MLOAD SWAP2 MSTORE DUP14 MULMOD ADD ADD ADD MOD ADD PUSH1 0x80 MSTORE DUP11 DUP3 DUP1 DUP1 PUSH1 0x0 DUP1 MLOAD PUSH1 0x20 PUSH2 0xC7F6 DUP4 CODECOPY DUP2 MLOAD SWAP2 MSTORE DUP6 MULMOD SWAP3 PUSH1 0x0 DUP1 MLOAD PUSH1 0x20 PUSH2 0xC8F6 DUP4 CODECOPY DUP2 MLOAD SWAP2 MSTORE SWAP1 MULMOD DUP2 PUSH1 0x0 DUP1 MLOAD PUSH1 0x20 PUSH2 0xC896 DUP4 CODECOPY DUP2 MLOAD SWAP2 MSTORE DUP14 MULMOD DUP3 PUSH1 0x0 DUP1 MLOAD PUSH1 0x20 PUSH2 0xCA76 DUP4 CODECOPY DUP2 MLOAD SWAP2 MSTORE DUP14 MULMOD DUP4 PUSH1 0x0 DUP1 MLOAD PUSH1 0x20 PUSH2 0xCAD6 DUP4 CODECOPY DUP2 MLOAD SWAP2 MSTORE DUP14 MULMOD ADD ADD ADD MOD ADD PUSH1 0xA0 MSTORE PUSH1 0x0 DUP1 MLOAD PUSH1 0x20 PUSH2 0xC876 DUP4 CODECOPY DUP2 MLOAD SWAP2 MSTORE SWAP1 MULMOD SWAP9 PUSH1 0x0 DUP1 MLOAD PUSH1 0x20 PUSH2 0xC816 DUP4 CODECOPY DUP2 MLOAD SWAP2 MSTORE SWAP1 MULMOD SWAP6 PUSH1 0x0 DUP1 MLOAD PUSH1 0x20 PUSH2 0xC996 DUP4 CODECOPY DUP2 MLOAD SWAP2 MSTORE SWAP1 MULMOD SWAP4 PUSH1 0x0 DUP1 MLOAD PUSH1 0x20 PUSH2 0xCA36 DUP4 CODECOPY DUP2 MLOAD SWAP2 MSTORE SWAP1 MULMOD SWAP2 PUSH1 0x0 DUP1 MLOAD PUSH1 0x20 PUSH2 0xC9F6 DUP4 CODECOPY DUP2 MLOAD SWAP2 MSTORE SWAP1 MULMOD ADD ADD ADD MOD ADD PUSH1 0xC0 MSTORE JUMP JUMPDEST PUSH1 0x0 MLOAD PUSH32 0x15B285CBE26C467F1FAF5EF6A64625228328C184A2C43BC00B36A135E785FBA2 ADD PUSH1 0x20 MLOAD PUSH32 0x164B7062C4671CF08C08B8C3F9806D560B7775B7C902F5788CD28DE3E779F161 ADD SWAP1 PUSH1 0x80 MLOAD PUSH32 0x890BA0819AC0A6F86D9865FE7E50EF361C61D3D43B6E65D7A24F651249BAA70 ADD PUSH1 0xA0 MLOAD PUSH32 0x2FBEA4D65D7ED425A42712E5A721E4EAA627AC5CB0EB878CCC2EE0AED543E922 ADD SWAP3 PUSH1 0xC0 MLOAD PUSH32 0x492BF383C36FA55540303A3B536F85E7B70A58E854AB9B9103D7F5F379ABAAA ADD PUSH1 0x0 DUP1 MLOAD PUSH1 0x20 PUSH2 0xC936 DUP4 CODECOPY DUP2 MLOAD SWAP2 MSTORE DUP1 DUP1 DUP1 DUP1 DUP1 DUP10 DUP2 DUP1 DUP3 DUP2 SWAP14 MULMOD DUP1 MULMOD MULMOD SWAP6 DUP11 DUP3 DUP1 DUP1 PUSH1 0x0 DUP1 MLOAD PUSH1 0x20 PUSH2 0xC9D6 DUP4 CODECOPY DUP2 MLOAD SWAP2 MSTORE DUP6 MULMOD SWAP3 PUSH1 0x0 DUP1 MLOAD PUSH1 0x20 PUSH2 0xC8B6 DUP4 CODECOPY DUP2 MLOAD SWAP2 MSTORE SWAP1 MULMOD DUP2 PUSH1 0x0 DUP1 MLOAD PUSH1 0x20 PUSH2 0xCA56 DUP4 CODECOPY DUP2 MLOAD SWAP2 MSTORE DUP14 MULMOD DUP3 PUSH1 0x0 DUP1 MLOAD PUSH1 0x20 PUSH2 0xC976 DUP4 CODECOPY DUP2 MLOAD SWAP2 MSTORE DUP14 MULMOD DUP4 PUSH1 0x0 DUP1 MLOAD PUSH1 0x20 PUSH2 0xCA96 DUP4 CODECOPY DUP2 MLOAD SWAP2 MSTORE DUP14 MULMOD ADD ADD ADD MOD ADD PUSH1 0x0 MSTORE DUP11 DUP3 DUP1 DUP1 PUSH1 0x0 DUP1 MLOAD PUSH1 0x20 PUSH2 0xCAF6 DUP4 CODECOPY DUP2 MLOAD SWAP2 MSTORE DUP6 MULMOD SWAP3 PUSH1 0x0 DUP1 MLOAD PUSH1 0x20 PUSH2 0xC8D6 DUP4 CODECOPY DUP2 MLOAD SWAP2 MSTORE SWAP1 MULMOD DUP2 PUSH1 0x0 DUP1 MLOAD PUSH1 0x20 PUSH2 0xCA16 DUP4 CODECOPY DUP2 MLOAD SWAP2 MSTORE DUP14 MULMOD DUP3 PUSH1 0x0 DUP1 MLOAD PUSH1 0x20 PUSH2 0xCAB6 DUP4 CODECOPY DUP2 MLOAD SWAP2 MSTORE DUP14 MULMOD DUP4 PUSH1 0x0 DUP1 MLOAD PUSH1 0x20 PUSH2 0xC856 DUP4 CODECOPY DUP2 MLOAD SWAP2 MSTORE DUP14 MULMOD ADD ADD ADD MOD ADD PUSH1 0x20 MSTORE DUP11 DUP3 DUP1 DUP1 PUSH1 0x0 DUP1 MLOAD PUSH1 0x20 PUSH2 0xC836 DUP4 CODECOPY DUP2 MLOAD SWAP2 MSTORE DUP6 MULMOD SWAP3 PUSH1 0x0 DUP1 MLOAD PUSH1 0x20 PUSH2 0xC9B6 DUP4 CODECOPY DUP2 MLOAD SWAP2 MSTORE SWAP1 MULMOD DUP2 PUSH1 0x0 DUP1 MLOAD PUSH1 0x20 PUSH2 0xC956 DUP4 CODECOPY DUP2 MLOAD SWAP2 MSTORE DUP14 MULMOD DUP3 PUSH1 0x0 DUP1 MLOAD PUSH1 0x20 PUSH2 0xC916 DUP4 CODECOPY DUP2 MLOAD SWAP2 MSTORE DUP14 MULMOD DUP4 PUSH1 0x0 DUP1 MLOAD PUSH1 0x20 PUSH2 0xC7D6 DUP4 CODECOPY DUP2 MLOAD SWAP2 MSTORE DUP14 MULMOD ADD ADD ADD MOD ADD PUSH1 0x80 MSTORE DUP11 DUP3 DUP1 DUP1 PUSH1 0x0 DUP1 MLOAD PUSH1 0x20 PUSH2 0xC7F6 DUP4 CODECOPY DUP2 MLOAD SWAP2 MSTORE DUP6 MULMOD SWAP3 PUSH1 0x0 DUP1 MLOAD PUSH1 0x20 PUSH2 0xC8F6 DUP4 CODECOPY DUP2 MLOAD SWAP2 MSTORE SWAP1 MULMOD DUP2 PUSH1 0x0 DUP1 MLOAD PUSH1 0x20 PUSH2 0xC896 DUP4 CODECOPY DUP2 MLOAD SWAP2 MSTORE DUP14 MULMOD DUP3 PUSH1 0x0 DUP1 MLOAD PUSH1 0x20 PUSH2 0xCA76 DUP4 CODECOPY DUP2 MLOAD SWAP2 MSTORE DUP14 MULMOD DUP4 PUSH1 0x0 DUP1 MLOAD PUSH1 0x20 PUSH2 0xCAD6 DUP4 CODECOPY DUP2 MLOAD SWAP2 MSTORE DUP14 MULMOD ADD ADD ADD MOD ADD PUSH1 0xA0 MSTORE PUSH1 0x0 DUP1 MLOAD PUSH1 0x20 PUSH2 0xC876 DUP4 CODECOPY DUP2 MLOAD SWAP2 MSTORE SWAP1 MULMOD SWAP9 PUSH1 0x0 DUP1 MLOAD PUSH1 0x20 PUSH2 0xC816 DUP4 CODECOPY DUP2 MLOAD SWAP2 MSTORE SWAP1 MULMOD SWAP6 PUSH1 0x0 DUP1 MLOAD PUSH1 0x20 PUSH2 0xC996 DUP4 CODECOPY DUP2 MLOAD SWAP2 MSTORE SWAP1 MULMOD SWAP4 PUSH1 0x0 DUP1 MLOAD PUSH1 0x20 PUSH2 0xCA36 DUP4 CODECOPY DUP2 MLOAD SWAP2 MSTORE SWAP1 MULMOD SWAP2 PUSH1 0x0 DUP1 MLOAD PUSH1 0x20 PUSH2 0xC9F6 DUP4 CODECOPY DUP2 MLOAD SWAP2 MSTORE SWAP1 MULMOD ADD ADD ADD MOD ADD PUSH1 0xC0 MSTORE JUMP JUMPDEST PUSH1 0x0 MLOAD PUSH32 0x5E91FE944E944104E20251C565142D61D6185A9CE85675F6A969D56292DC24E ADD PUSH1 0x20 MLOAD PUSH32 0x12FE5C2029E4B33893D463CB041ACAD0995B9621E6E49C3B7E380A76E36E6C1C ADD SWAP1 PUSH1 0x80 MLOAD PUSH32 0x24154ADF0255D47958F7723921474131F2629FADC89496906CD01DC6FA0784E ADD PUSH1 0xA0 MLOAD PUSH32 0x18824A09E6AFAF4A36ED2462A86BD0BAD798815644F2BBDE8813C13457A45550 ADD SWAP3 PUSH1 0xC0 MLOAD PUSH32 0xC8B482DBA0AD51BE9F255DE0C3DBDDDDF84A630AF68D50BBB06983E3D5D58A5 ADD PUSH1 0x0 DUP1 MLOAD PUSH1 0x20 PUSH2 0xC936 DUP4 CODECOPY DUP2 MLOAD SWAP2 MSTORE DUP1 DUP1 DUP1 DUP1 DUP1 DUP10 DUP2 DUP1 DUP3 DUP2 SWAP14 MULMOD DUP1 MULMOD MULMOD SWAP6 DUP11 DUP3 DUP1 DUP1 PUSH1 0x0 DUP1 MLOAD PUSH1 0x20 PUSH2 0xC9D6 DUP4 CODECOPY DUP2 MLOAD SWAP2 MSTORE DUP6 MULMOD SWAP3 PUSH1 0x0 DUP1 MLOAD PUSH1 0x20 PUSH2 0xC8B6 DUP4 CODECOPY DUP2 MLOAD SWAP2 MSTORE SWAP1 MULMOD DUP2 PUSH1 0x0 DUP1 MLOAD PUSH1 0x20 PUSH2 0xCA56 DUP4 CODECOPY DUP2 MLOAD SWAP2 MSTORE DUP14 MULMOD DUP3 PUSH1 0x0 DUP1 MLOAD PUSH1 0x20 PUSH2 0xC976 DUP4 CODECOPY DUP2 MLOAD SWAP2 MSTORE DUP14 MULMOD DUP4 PUSH1 0x0 DUP1 MLOAD PUSH1 0x20 PUSH2 0xCA96 DUP4 CODECOPY DUP2 MLOAD SWAP2 MSTORE DUP14 MULMOD ADD ADD ADD MOD ADD PUSH1 0x0 MSTORE DUP11 DUP3 DUP1 DUP1 PUSH1 0x0 DUP1 MLOAD PUSH1 0x20 PUSH2 0xCAF6 DUP4 CODECOPY DUP2 MLOAD SWAP2 MSTORE DUP6 MULMOD SWAP3 PUSH1 0x0 DUP1 MLOAD PUSH1 0x20 PUSH2 0xC8D6 DUP4 CODECOPY DUP2 MLOAD SWAP2 MSTORE SWAP1 MULMOD DUP2 PUSH1 0x0 DUP1 MLOAD PUSH1 0x20 PUSH2 0xCA16 DUP4 CODECOPY DUP2 MLOAD SWAP2 MSTORE DUP14 MULMOD DUP3 PUSH1 0x0 DUP1 MLOAD PUSH1 0x20 PUSH2 0xCAB6 DUP4 CODECOPY DUP2 MLOAD SWAP2 MSTORE DUP14 MULMOD DUP4 PUSH1 0x0 DUP1 MLOAD PUSH1 0x20 PUSH2 0xC856 DUP4 CODECOPY DUP2 MLOAD SWAP2 MSTORE DUP14 MULMOD ADD ADD ADD MOD ADD PUSH1 0x20 MSTORE DUP11 DUP3 DUP1 DUP1 PUSH1 0x0 DUP1 MLOAD PUSH1 0x20 PUSH2 0xC836 DUP4 CODECOPY DUP2 MLOAD SWAP2 MSTORE DUP6 MULMOD SWAP3 PUSH1 0x0 DUP1 MLOAD PUSH1 0x20 PUSH2 0xC9B6 DUP4 CODECOPY DUP2 MLOAD SWAP2 MSTORE SWAP1 MULMOD DUP2 PUSH1 0x0 DUP1 MLOAD PUSH1 0x20 PUSH2 0xC956 DUP4 CODECOPY DUP2 MLOAD SWAP2 MSTORE DUP14 MULMOD DUP3 PUSH1 0x0 DUP1 MLOAD PUSH1 0x20 PUSH2 0xC916 DUP4 CODECOPY DUP2 MLOAD SWAP2 MSTORE DUP14 MULMOD DUP4 PUSH1 0x0 DUP1 MLOAD PUSH1 0x20 PUSH2 0xC7D6 DUP4 CODECOPY DUP2 MLOAD SWAP2 MSTORE DUP14 MULMOD ADD ADD ADD MOD ADD PUSH1 0x80 MSTORE DUP11 DUP3 DUP1 DUP1 PUSH1 0x0 DUP1 MLOAD PUSH1 0x20 PUSH2 0xC7F6 DUP4 CODECOPY DUP2 MLOAD SWAP2 MSTORE DUP6 MULMOD SWAP3 PUSH1 0x0 DUP1 MLOAD PUSH1 0x20 PUSH2 0xC8F6 DUP4 CODECOPY DUP2 MLOAD SWAP2 MSTORE SWAP1 MULMOD DUP2 PUSH1 0x0 DUP1 MLOAD PUSH1 0x20 PUSH2 0xC896 DUP4 CODECOPY DUP2 MLOAD SWAP2 MSTORE DUP14 MULMOD DUP3 PUSH1 0x0 DUP1 MLOAD PUSH1 0x20 PUSH2 0xCA76 DUP4 CODECOPY DUP2 MLOAD SWAP2 MSTORE DUP14 MULMOD DUP4 PUSH1 0x0 DUP1 MLOAD PUSH1 0x20 PUSH2 0xCAD6 DUP4 CODECOPY DUP2 MLOAD SWAP2 MSTORE DUP14 MULMOD ADD ADD ADD MOD ADD PUSH1 0xA0 MSTORE PUSH1 0x0 DUP1 MLOAD PUSH1 0x20 PUSH2 0xC876 DUP4 CODECOPY DUP2 MLOAD SWAP2 MSTORE SWAP1 MULMOD SWAP9 PUSH1 0x0 DUP1 MLOAD PUSH1 0x20 PUSH2 0xC816 DUP4 CODECOPY DUP2 MLOAD SWAP2 MSTORE SWAP1 MULMOD SWAP6 PUSH1 0x0 DUP1 MLOAD PUSH1 0x20 PUSH2 0xC996 DUP4 CODECOPY DUP2 MLOAD SWAP2 MSTORE SWAP1 MULMOD SWAP4 PUSH1 0x0 DUP1 MLOAD PUSH1 0x20 PUSH2 0xCA36 DUP4 CODECOPY DUP2 MLOAD SWAP2 MSTORE SWAP1 MULMOD SWAP2 PUSH1 0x0 DUP1 MLOAD PUSH1 0x20 PUSH2 0xC9F6 DUP4 CODECOPY DUP2 MLOAD SWAP2 MSTORE SWAP1 MULMOD ADD ADD ADD MOD ADD PUSH1 0xC0 MSTORE JUMP JUMPDEST PUSH1 0x0 MLOAD PUSH32 0x17325FD0AB635871363E0A1667D3B67C5A4FA67FCD6AAF86441392878FDB05E6 ADD PUSH1 0x20 MLOAD PUSH32 0x50AE95F6D2F1519122F5AF67B690F31E550773FA8D18BF71CC6D0E911FA402E ADD SWAP1 PUSH1 0x80 MLOAD PUSH32 0xF0D139A0E81E943038CB288D62636764BBB6295F07569885771EC84EDC50C40 ADD PUSH1 0xA0 MLOAD PUSH32 0x1C0F8697795689CDF70FD2F2C0F93D1A79B39EBC7A1B1C549DBBCA7B8E747CD6 ADD SWAP3 PUSH1 0xC0 MLOAD PUSH32 0x2BD0F940AD936B796D2BC2E048BC979E49BE23A4B13598F9FE536A16DC1D81E6 ADD PUSH1 0x0 DUP1 MLOAD PUSH1 0x20 PUSH2 0xC936 DUP4 CODECOPY DUP2 MLOAD SWAP2 MSTORE DUP1 DUP1 DUP1 DUP1 DUP1 DUP10 DUP2 DUP1 DUP3 DUP2 SWAP14 MULMOD DUP1 MULMOD MULMOD SWAP6 DUP11 DUP3 DUP1 DUP1 PUSH1 0x0 DUP1 MLOAD PUSH1 0x20 PUSH2 0xC9D6 DUP4 CODECOPY DUP2 MLOAD SWAP2 MSTORE DUP6 MULMOD SWAP3 PUSH1 0x0 DUP1 MLOAD PUSH1 0x20 PUSH2 0xC8B6 DUP4 CODECOPY DUP2 MLOAD SWAP2 MSTORE SWAP1 MULMOD DUP2 PUSH1 0x0 DUP1 MLOAD PUSH1 0x20 PUSH2 0xCA56 DUP4 CODECOPY DUP2 MLOAD SWAP2 MSTORE DUP14 MULMOD DUP3 PUSH1 0x0 DUP1 MLOAD PUSH1 0x20 PUSH2 0xC976 DUP4 CODECOPY DUP2 MLOAD SWAP2 MSTORE DUP14 MULMOD DUP4 PUSH1 0x0 DUP1 MLOAD PUSH1 0x20 PUSH2 0xCA96 DUP4 CODECOPY DUP2 MLOAD SWAP2 MSTORE DUP14 MULMOD ADD ADD ADD MOD ADD PUSH1 0x0 MSTORE DUP11 DUP3 DUP1 DUP1 PUSH1 0x0 DUP1 MLOAD PUSH1 0x20 PUSH2 0xCAF6 DUP4 CODECOPY DUP2 MLOAD SWAP2 MSTORE DUP6 MULMOD SWAP3 PUSH1 0x0 DUP1 MLOAD PUSH1 0x20 PUSH2 0xC8D6 DUP4 CODECOPY DUP2 MLOAD SWAP2 MSTORE SWAP1 MULMOD DUP2 PUSH1 0x0 DUP1 MLOAD PUSH1 0x20 PUSH2 0xCA16 DUP4 CODECOPY DUP2 MLOAD SWAP2 MSTORE DUP14 MULMOD DUP3 PUSH1 0x0 DUP1 MLOAD PUSH1 0x20 PUSH2 0xCAB6 DUP4 CODECOPY DUP2 MLOAD SWAP2 MSTORE DUP14 MULMOD DUP4 PUSH1 0x0 DUP1 MLOAD PUSH1 0x20 PUSH2 0xC856 DUP4 CODECOPY DUP2 MLOAD SWAP2 MSTORE DUP14 MULMOD ADD ADD ADD MOD ADD PUSH1 0x20 MSTORE DUP11 DUP3 DUP1 DUP1 PUSH1 0x0 DUP1 MLOAD PUSH1 0x20 PUSH2 0xC836 DUP4 CODECOPY DUP2 MLOAD SWAP2 MSTORE DUP6 MULMOD SWAP3 PUSH1 0x0 DUP1 MLOAD PUSH1 0x20 PUSH2 0xC9B6 DUP4 CODECOPY DUP2 MLOAD SWAP2 MSTORE SWAP1 MULMOD DUP2 PUSH1 0x0 DUP1 MLOAD PUSH1 0x20 PUSH2 0xC956 DUP4 CODECOPY DUP2 MLOAD SWAP2 MSTORE DUP14 MULMOD DUP3 PUSH1 0x0 DUP1 MLOAD PUSH1 0x20 PUSH2 0xC916 DUP4 CODECOPY DUP2 MLOAD SWAP2 MSTORE DUP14 MULMOD DUP4 PUSH1 0x0 DUP1 MLOAD PUSH1 0x20 PUSH2 0xC7D6 DUP4 CODECOPY DUP2 MLOAD SWAP2 MSTORE DUP14 MULMOD ADD ADD ADD MOD ADD PUSH1 0x80 MSTORE DUP11 DUP3 DUP1 DUP1 PUSH1 0x0 DUP1 MLOAD PUSH1 0x20 PUSH2 0xC7F6 DUP4 CODECOPY DUP2 MLOAD SWAP2 MSTORE DUP6 MULMOD SWAP3 PUSH1 0x0 DUP1 MLOAD PUSH1 0x20 PUSH2 0xC8F6 DUP4 CODECOPY DUP2 MLOAD SWAP2 MSTORE SWAP1 MULMOD DUP2 PUSH1 0x0 DUP1 MLOAD PUSH1 0x20 PUSH2 0xC896 DUP4 CODECOPY DUP2 MLOAD SWAP2 MSTORE DUP14 MULMOD DUP3 PUSH1 0x0 DUP1 MLOAD PUSH1 0x20 PUSH2 0xCA76 DUP4 CODECOPY DUP2 MLOAD SWAP2 MSTORE DUP14 MULMOD DUP4 PUSH1 0x0 DUP1 MLOAD PUSH1 0x20 PUSH2 0xCAD6 DUP4 CODECOPY DUP2 MLOAD SWAP2 MSTORE DUP14 MULMOD ADD ADD ADD MOD ADD PUSH1 0xA0 MSTORE PUSH1 0x0 DUP1 MLOAD PUSH1 0x20 PUSH2 0xC876 DUP4 CODECOPY DUP2 MLOAD SWAP2 MSTORE SWAP1 MULMOD SWAP9 PUSH1 0x0 DUP1 MLOAD PUSH1 0x20 PUSH2 0xC816 DUP4 CODECOPY DUP2 MLOAD SWAP2 MSTORE SWAP1 MULMOD SWAP6 PUSH1 0x0 DUP1 MLOAD PUSH1 0x20 PUSH2 0xC996 DUP4 CODECOPY DUP2 MLOAD SWAP2 MSTORE SWAP1 MULMOD SWAP4 PUSH1 0x0 DUP1 MLOAD PUSH1 0x20 PUSH2 0xCA36 DUP4 CODECOPY DUP2 MLOAD SWAP2 MSTORE SWAP1 MULMOD SWAP2 PUSH1 0x0 DUP1 MLOAD PUSH1 0x20 PUSH2 0xC9F6 DUP4 CODECOPY DUP2 MLOAD SWAP2 MSTORE SWAP1 MULMOD ADD ADD ADD MOD ADD PUSH1 0xC0 MSTORE JUMP JUMPDEST PUSH1 0x0 MLOAD PUSH32 0x27EB1BE27C9C4E934778C09A0053337FA06EBB275E096D167CE54D1E96EE62CB ADD PUSH1 0x20 MLOAD PUSH32 0x2E4889D830A67E5A8F96BDD3155A7CA3284FBD307D1F71B0F151BE62548E2AEA ADD SWAP1 PUSH1 0x80 MLOAD PUSH32 0x193FE3DB0AB47D3C5D2EC5E9C5BD9983C9891F2CADC165DB6064BBE6FCC1E305 ADD PUSH1 0xA0 MLOAD PUSH32 0x2BF3086E96C36C7BCE415907AD0C40ED6E9661C009679E4E37CB13027C83E525 ADD SWAP3 PUSH1 0xC0 MLOAD PUSH32 0x12F16E2DE6D4AD46A98CDB697C6CAD5DD5E7E413F741CCF29FF2EA486E59BB28 ADD PUSH1 0x0 DUP1 MLOAD PUSH1 0x20 PUSH2 0xC936 DUP4 CODECOPY DUP2 MLOAD SWAP2 MSTORE DUP1 DUP1 DUP1 DUP1 DUP1 DUP10 DUP2 DUP1 DUP3 DUP2 SWAP14 MULMOD DUP1 MULMOD MULMOD SWAP6 DUP11 DUP3 DUP1 DUP1 PUSH1 0x0 DUP1 MLOAD PUSH1 0x20 PUSH2 0xC9D6 DUP4 CODECOPY DUP2 MLOAD SWAP2 MSTORE DUP6 MULMOD SWAP3 PUSH1 0x0 DUP1 MLOAD PUSH1 0x20 PUSH2 0xC8B6 DUP4 CODECOPY DUP2 MLOAD SWAP2 MSTORE SWAP1 MULMOD DUP2 PUSH1 0x0 DUP1 MLOAD PUSH1 0x20 PUSH2 0xCA56 DUP4 CODECOPY DUP2 MLOAD SWAP2 MSTORE DUP14 MULMOD DUP3 PUSH1 0x0 DUP1 MLOAD PUSH1 0x20 PUSH2 0xC976 DUP4 CODECOPY DUP2 MLOAD SWAP2 MSTORE DUP14 MULMOD DUP4 PUSH1 0x0 DUP1 MLOAD PUSH1 0x20 PUSH2 0xCA96 DUP4 CODECOPY DUP2 MLOAD SWAP2 MSTORE DUP14 MULMOD ADD ADD ADD MOD ADD PUSH1 0x0 MSTORE DUP11 DUP3 DUP1 DUP1 PUSH1 0x0 DUP1 MLOAD PUSH1 0x20 PUSH2 0xCAF6 DUP4 CODECOPY DUP2 MLOAD SWAP2 MSTORE DUP6 MULMOD SWAP3 PUSH1 0x0 DUP1 MLOAD PUSH1 0x20 PUSH2 0xC8D6 DUP4 CODECOPY DUP2 MLOAD SWAP2 MSTORE SWAP1 MULMOD DUP2 PUSH1 0x0 DUP1 MLOAD PUSH1 0x20 PUSH2 0xCA16 DUP4 CODECOPY DUP2 MLOAD SWAP2 MSTORE DUP14 MULMOD DUP3 PUSH1 0x0 DUP1 MLOAD PUSH1 0x20 PUSH2 0xCAB6 DUP4 CODECOPY DUP2 MLOAD SWAP2 MSTORE DUP14 MULMOD DUP4 PUSH1 0x0 DUP1 MLOAD PUSH1 0x20 PUSH2 0xC856 DUP4 CODECOPY DUP2 MLOAD SWAP2 MSTORE DUP14 MULMOD ADD ADD ADD MOD ADD PUSH1 0x20 MSTORE DUP11 DUP3 DUP1 DUP1 PUSH1 0x0 DUP1 MLOAD PUSH1 0x20 PUSH2 0xC836 DUP4 CODECOPY DUP2 MLOAD SWAP2 MSTORE DUP6 MULMOD SWAP3 PUSH1 0x0 DUP1 MLOAD PUSH1 0x20 PUSH2 0xC9B6 DUP4 CODECOPY DUP2 MLOAD SWAP2 MSTORE SWAP1 MULMOD DUP2 PUSH1 0x0 DUP1 MLOAD PUSH1 0x20 PUSH2 0xC956 DUP4 CODECOPY DUP2 MLOAD SWAP2 MSTORE DUP14 MULMOD DUP3 PUSH1 0x0 DUP1 MLOAD PUSH1 0x20 PUSH2 0xC916 DUP4 CODECOPY DUP2 MLOAD SWAP2 MSTORE DUP14 MULMOD DUP4 PUSH1 0x0 DUP1 MLOAD PUSH1 0x20 PUSH2 0xC7D6 DUP4 CODECOPY DUP2 MLOAD SWAP2 MSTORE DUP14 MULMOD ADD ADD ADD MOD ADD PUSH1 0x80 MSTORE DUP11 DUP3 DUP1 DUP1 PUSH1 0x0 DUP1 MLOAD PUSH1 0x20 PUSH2 0xC7F6 DUP4 CODECOPY DUP2 MLOAD SWAP2 MSTORE DUP6 MULMOD SWAP3 PUSH1 0x0 DUP1 MLOAD PUSH1 0x20 PUSH2 0xC8F6 DUP4 CODECOPY DUP2 MLOAD SWAP2 MSTORE SWAP1 MULMOD DUP2 PUSH1 0x0 DUP1 MLOAD PUSH1 0x20 PUSH2 0xC896 DUP4 CODECOPY DUP2 MLOAD SWAP2 MSTORE DUP14 MULMOD DUP3 PUSH1 0x0 DUP1 MLOAD PUSH1 0x20 PUSH2 0xCA76 DUP4 CODECOPY DUP2 MLOAD SWAP2 MSTORE DUP14 MULMOD DUP4 PUSH1 0x0 DUP1 MLOAD PUSH1 0x20 PUSH2 0xCAD6 DUP4 CODECOPY DUP2 MLOAD SWAP2 MSTORE DUP14 MULMOD ADD ADD ADD MOD ADD PUSH1 0xA0 MSTORE PUSH1 0x0 DUP1 MLOAD PUSH1 0x20 PUSH2 0xC876 DUP4 CODECOPY DUP2 MLOAD SWAP2 MSTORE SWAP1 MULMOD SWAP9 PUSH1 0x0 DUP1 MLOAD PUSH1 0x20 PUSH2 0xC816 DUP4 CODECOPY DUP2 MLOAD SWAP2 MSTORE SWAP1 MULMOD SWAP6 PUSH1 0x0 DUP1 MLOAD PUSH1 0x20 PUSH2 0xC996 DUP4 CODECOPY DUP2 MLOAD SWAP2 MSTORE SWAP1 MULMOD SWAP4 PUSH1 0x0 DUP1 MLOAD PUSH1 0x20 PUSH2 0xCA36 DUP4 CODECOPY DUP2 MLOAD SWAP2 MSTORE SWAP1 MULMOD SWAP2 PUSH1 0x0 DUP1 MLOAD PUSH1 0x20 PUSH2 0xC9F6 DUP4 CODECOPY DUP2 MLOAD SWAP2 MSTORE SWAP1 MULMOD ADD ADD ADD MOD ADD PUSH1 0xC0 MSTORE JUMP JUMPDEST PUSH1 0x0 MLOAD PUSH32 0x2A72147D230119F3A0262E3653DDD19F33F3D5D6EC6C4BF0AD919B0343B92D2F ADD PUSH1 0x20 MLOAD PUSH32 0x21BE0E2C4BFD64E56DC47F957806DC5F0A2D9BCC26412E2977DF79ACC10BA974 ADD SWAP1 PUSH1 0x80 MLOAD PUSH32 0xE2D7E1DC946D70B2749A3B54367B25A71B84FB911AA57AE137FD4B6C21B444A ADD PUSH1 0xA0 MLOAD PUSH32 0x2667F7FB5A4FA1246170A745D8A4188CC31ADB0EAE3325DC9F3F07D4B92B3E2E ADD SWAP3 PUSH1 0xC0 MLOAD PUSH32 0x2CCC6F431FB7400730A783B66064697A1550C12B08DFEB72830E107DA78E3405 ADD PUSH1 0x0 DUP1 MLOAD PUSH1 0x20 PUSH2 0xC936 DUP4 CODECOPY DUP2 MLOAD SWAP2 MSTORE DUP1 DUP1 DUP1 DUP1 DUP1 DUP10 DUP2 DUP1 DUP3 DUP2 SWAP14 MULMOD DUP1 MULMOD MULMOD SWAP6 DUP11 DUP3 DUP1 DUP1 PUSH1 0x0 DUP1 MLOAD PUSH1 0x20 PUSH2 0xC9D6 DUP4 CODECOPY DUP2 MLOAD SWAP2 MSTORE DUP6 MULMOD SWAP3 PUSH1 0x0 DUP1 MLOAD PUSH1 0x20 PUSH2 0xC8B6 DUP4 CODECOPY DUP2 MLOAD SWAP2 MSTORE SWAP1 MULMOD DUP2 PUSH1 0x0 DUP1 MLOAD PUSH1 0x20 PUSH2 0xCA56 DUP4 CODECOPY DUP2 MLOAD SWAP2 MSTORE DUP14 MULMOD DUP3 PUSH1 0x0 DUP1 MLOAD PUSH1 0x20 PUSH2 0xC976 DUP4 CODECOPY DUP2 MLOAD SWAP2 MSTORE DUP14 MULMOD DUP4 PUSH1 0x0 DUP1 MLOAD PUSH1 0x20 PUSH2 0xCA96 DUP4 CODECOPY DUP2 MLOAD SWAP2 MSTORE DUP14 MULMOD ADD ADD ADD MOD ADD PUSH1 0x0 MSTORE DUP11 DUP3 DUP1 DUP1 PUSH1 0x0 DUP1 MLOAD PUSH1 0x20 PUSH2 0xCAF6 DUP4 CODECOPY DUP2 MLOAD SWAP2 MSTORE DUP6 MULMOD SWAP3 PUSH1 0x0 DUP1 MLOAD PUSH1 0x20 PUSH2 0xC8D6 DUP4 CODECOPY DUP2 MLOAD SWAP2 MSTORE SWAP1 MULMOD DUP2 PUSH1 0x0 DUP1 MLOAD PUSH1 0x20 PUSH2 0xCA16 DUP4 CODECOPY DUP2 MLOAD SWAP2 MSTORE DUP14 MULMOD DUP3 PUSH1 0x0 DUP1 MLOAD PUSH1 0x20 PUSH2 0xCAB6 DUP4 CODECOPY DUP2 MLOAD SWAP2 MSTORE DUP14 MULMOD DUP4 PUSH1 0x0 DUP1 MLOAD PUSH1 0x20 PUSH2 0xC856 DUP4 CODECOPY DUP2 MLOAD SWAP2 MSTORE DUP14 MULMOD ADD ADD ADD MOD ADD PUSH1 0x20 MSTORE DUP11 DUP3 DUP1 DUP1 PUSH1 0x0 DUP1 MLOAD PUSH1 0x20 PUSH2 0xC836 DUP4 CODECOPY DUP2 MLOAD SWAP2 MSTORE DUP6 MULMOD SWAP3 PUSH1 0x0 DUP1 MLOAD PUSH1 0x20 PUSH2 0xC9B6 DUP4 CODECOPY DUP2 MLOAD SWAP2 MSTORE SWAP1 MULMOD DUP2 PUSH1 0x0 DUP1 MLOAD PUSH1 0x20 PUSH2 0xC956 DUP4 CODECOPY DUP2 MLOAD SWAP2 MSTORE DUP14 MULMOD DUP3 PUSH1 0x0 DUP1 MLOAD PUSH1 0x20 PUSH2 0xC916 DUP4 CODECOPY DUP2 MLOAD SWAP2 MSTORE DUP14 MULMOD DUP4 PUSH1 0x0 DUP1 MLOAD PUSH1 0x20 PUSH2 0xC7D6 DUP4 CODECOPY DUP2 MLOAD SWAP2 MSTORE DUP14 MULMOD ADD ADD ADD MOD ADD PUSH1 0x80 MSTORE DUP11 DUP3 DUP1 DUP1 PUSH1 0x0 DUP1 MLOAD PUSH1 0x20 PUSH2 0xC7F6 DUP4 CODECOPY DUP2 MLOAD SWAP2 MSTORE DUP6 MULMOD SWAP3 PUSH1 0x0 DUP1 MLOAD PUSH1 0x20 PUSH2 0xC8F6 DUP4 CODECOPY DUP2 MLOAD SWAP2 MSTORE SWAP1 MULMOD DUP2 PUSH1 0x0 DUP1 MLOAD PUSH1 0x20 PUSH2 0xC896 DUP4 CODECOPY DUP2 MLOAD SWAP2 MSTORE DUP14 MULMOD DUP3 PUSH1 0x0 DUP1 MLOAD PUSH1 0x20 PUSH2 0xCA76 DUP4 CODECOPY DUP2 MLOAD SWAP2 MSTORE DUP14 MULMOD DUP4 PUSH1 0x0 DUP1 MLOAD PUSH1 0x20 PUSH2 0xCAD6 DUP4 CODECOPY DUP2 MLOAD SWAP2 MSTORE DUP14 MULMOD ADD ADD ADD MOD ADD PUSH1 0xA0 MSTORE PUSH1 0x0 DUP1 MLOAD PUSH1 0x20 PUSH2 0xC876 DUP4 CODECOPY DUP2 MLOAD SWAP2 MSTORE SWAP1 MULMOD SWAP9 PUSH1 0x0 DUP1 MLOAD PUSH1 0x20 PUSH2 0xC816 DUP4 CODECOPY DUP2 MLOAD SWAP2 MSTORE SWAP1 MULMOD SWAP6 PUSH1 0x0 DUP1 MLOAD PUSH1 0x20 PUSH2 0xC996 DUP4 CODECOPY DUP2 MLOAD SWAP2 MSTORE SWAP1 MULMOD SWAP4 PUSH1 0x0 DUP1 MLOAD PUSH1 0x20 PUSH2 0xCA36 DUP4 CODECOPY DUP2 MLOAD SWAP2 MSTORE SWAP1 MULMOD SWAP2 PUSH1 0x0 DUP1 MLOAD PUSH1 0x20 PUSH2 0xC9F6 DUP4 CODECOPY DUP2 MLOAD SWAP2 MSTORE SWAP1 MULMOD ADD ADD ADD MOD ADD PUSH1 0xC0 MSTORE JUMP JUMPDEST PUSH1 0x0 MLOAD PUSH32 0x8888A94FC5A2CA34F0201462420001FAE6DBEE9E8CA0C242EC50621E38E6E5D ADD PUSH1 0x20 MLOAD PUSH32 0x2977B34EEAA3CB6AD40DD42C9B6FDD7A0D2FBE753AF88B36ACFCD3CCBC53F2A ADD SWAP1 PUSH1 0x80 MLOAD PUSH32 0x120CCCE13D28B75CFD6FB6C9EA13A648BFCFE0D7E6FF8E9610B5E9F971E16B9A ADD PUSH1 0xA0 MLOAD PUSH32 0x9FAD2269C4A8E93C81E1B9770EA098C92787A4575B2BD73A0BF2AF32F86FF3C ADD SWAP3 PUSH1 0xC0 MLOAD PUSH32 0x26091FD3D4C44D50A4B310E4AC6F0FA0DEBDB70775EEB8AF630CFFB60092D6F ADD PUSH1 0x0 DUP1 MLOAD PUSH1 0x20 PUSH2 0xC936 DUP4 CODECOPY DUP2 MLOAD SWAP2 MSTORE DUP1 DUP1 DUP1 DUP1 DUP1 DUP10 DUP2 DUP1 DUP3 DUP2 SWAP14 MULMOD DUP1 MULMOD MULMOD SWAP6 DUP11 DUP3 DUP1 DUP1 PUSH1 0x0 DUP1 MLOAD PUSH1 0x20 PUSH2 0xC9D6 DUP4 CODECOPY DUP2 MLOAD SWAP2 MSTORE DUP6 MULMOD SWAP3 PUSH1 0x0 DUP1 MLOAD PUSH1 0x20 PUSH2 0xC8B6 DUP4 CODECOPY DUP2 MLOAD SWAP2 MSTORE SWAP1 MULMOD DUP2 PUSH1 0x0 DUP1 MLOAD PUSH1 0x20 PUSH2 0xCA56 DUP4 CODECOPY DUP2 MLOAD SWAP2 MSTORE DUP14 MULMOD DUP3 PUSH1 0x0 DUP1 MLOAD PUSH1 0x20 PUSH2 0xC976 DUP4 CODECOPY DUP2 MLOAD SWAP2 MSTORE DUP14 MULMOD DUP4 PUSH1 0x0 DUP1 MLOAD PUSH1 0x20 PUSH2 0xCA96 DUP4 CODECOPY DUP2 MLOAD SWAP2 MSTORE DUP14 MULMOD ADD ADD ADD MOD ADD PUSH1 0x0 MSTORE DUP11 DUP3 DUP1 DUP1 PUSH1 0x0 DUP1 MLOAD PUSH1 0x20 PUSH2 0xCAF6 DUP4 CODECOPY DUP2 MLOAD SWAP2 MSTORE DUP6 MULMOD SWAP3 PUSH1 0x0 DUP1 MLOAD PUSH1 0x20 PUSH2 0xC8D6 DUP4 CODECOPY DUP2 MLOAD SWAP2 MSTORE SWAP1 MULMOD DUP2 PUSH1 0x0 DUP1 MLOAD PUSH1 0x20 PUSH2 0xCA16 DUP4 CODECOPY DUP2 MLOAD SWAP2 MSTORE DUP14 MULMOD DUP3 PUSH1 0x0 DUP1 MLOAD PUSH1 0x20 PUSH2 0xCAB6 DUP4 CODECOPY DUP2 MLOAD SWAP2 MSTORE DUP14 MULMOD DUP4 PUSH1 0x0 DUP1 MLOAD PUSH1 0x20 PUSH2 0xC856 DUP4 CODECOPY DUP2 MLOAD SWAP2 MSTORE DUP14 MULMOD ADD ADD ADD MOD ADD PUSH1 0x20 MSTORE DUP11 DUP3 DUP1 DUP1 PUSH1 0x0 DUP1 MLOAD PUSH1 0x20 PUSH2 0xC836 DUP4 CODECOPY DUP2 MLOAD SWAP2 MSTORE DUP6 MULMOD SWAP3 PUSH1 0x0 DUP1 MLOAD PUSH1 0x20 PUSH2 0xC9B6 DUP4 CODECOPY DUP2 MLOAD SWAP2 MSTORE SWAP1 MULMOD DUP2 PUSH1 0x0 DUP1 MLOAD PUSH1 0x20 PUSH2 0xC956 DUP4 CODECOPY DUP2 MLOAD SWAP2 MSTORE DUP14 MULMOD DUP3 PUSH1 0x0 DUP1 MLOAD PUSH1 0x20 PUSH2 0xC916 DUP4 CODECOPY DUP2 MLOAD SWAP2 MSTORE DUP14 MULMOD DUP4 PUSH1 0x0 DUP1 MLOAD PUSH1 0x20 PUSH2 0xC7D6 DUP4 CODECOPY DUP2 MLOAD SWAP2 MSTORE DUP14 MULMOD ADD ADD ADD MOD ADD PUSH1 0x80 MSTORE DUP11 DUP3 DUP1 DUP1 PUSH1 0x0 DUP1 MLOAD PUSH1 0x20 PUSH2 0xC7F6 DUP4 CODECOPY DUP2 MLOAD SWAP2 MSTORE DUP6 MULMOD SWAP3 PUSH1 0x0 DUP1 MLOAD PUSH1 0x20 PUSH2 0xC8F6 DUP4 CODECOPY DUP2 MLOAD SWAP2 MSTORE SWAP1 MULMOD DUP2 PUSH1 0x0 DUP1 MLOAD PUSH1 0x20 PUSH2 0xC896 DUP4 CODECOPY DUP2 MLOAD SWAP2 MSTORE DUP14 MULMOD DUP3 PUSH1 0x0 DUP1 MLOAD PUSH1 0x20 PUSH2 0xCA76 DUP4 CODECOPY DUP2 MLOAD SWAP2 MSTORE DUP14 MULMOD DUP4 PUSH1 0x0 DUP1 MLOAD PUSH1 0x20 PUSH2 0xCAD6 DUP4 CODECOPY DUP2 MLOAD SWAP2 MSTORE DUP14 MULMOD ADD ADD ADD MOD ADD PUSH1 0xA0 MSTORE PUSH1 0x0 DUP1 MLOAD PUSH1 0x20 PUSH2 0xC876 DUP4 CODECOPY DUP2 MLOAD SWAP2 MSTORE SWAP1 MULMOD SWAP9 PUSH1 0x0 DUP1 MLOAD PUSH1 0x20 PUSH2 0xC816 DUP4 CODECOPY DUP2 MLOAD SWAP2 MSTORE SWAP1 MULMOD SWAP6 PUSH1 0x0 DUP1 MLOAD PUSH1 0x20 PUSH2 0xC996 DUP4 CODECOPY DUP2 MLOAD SWAP2 MSTORE SWAP1 MULMOD SWAP4 PUSH1 0x0 DUP1 MLOAD PUSH1 0x20 PUSH2 0xCA36 DUP4 CODECOPY DUP2 MLOAD SWAP2 MSTORE SWAP1 MULMOD SWAP2 PUSH1 0x0 DUP1 MLOAD PUSH1 0x20 PUSH2 0xC9F6 DUP4 CODECOPY DUP2 MLOAD SWAP2 MSTORE SWAP1 MULMOD ADD ADD ADD MOD ADD PUSH1 0xC0 MSTORE JUMP JUMPDEST PUSH1 0x0 MLOAD PUSH32 0x29404AA2BA565B77BB7FBA9DFB6FC3212543CC56AFAD6AFCB904FD2BCA893994 ADD PUSH1 0x20 MLOAD PUSH32 0x2749475C399AAF39D4E87C2548695B4EF1FFD86590E0827DE7201351B7C883F9 ADD SWAP1 PUSH1 0x80 MLOAD PUSH32 0x98C842322479F7239912B50424685CBA2EBE2DC2E4DA70AC7557DAB65FFA222 ADD PUSH1 0xA0 MLOAD PUSH32 0x18CEF581222B647E31238E57FEAD7D5C758ACE14C93C4DA40191D0C053B51936 ADD SWAP3 PUSH1 0xC0 MLOAD PUSH32 0x13177839C68A5080D4E746745E43711D3CBC0CA4A108F98D63B2AA681698DE60 ADD PUSH1 0x0 DUP1 MLOAD PUSH1 0x20 PUSH2 0xC936 DUP4 CODECOPY DUP2 MLOAD SWAP2 MSTORE DUP1 DUP1 DUP1 DUP1 DUP1 DUP10 DUP2 DUP1 DUP3 DUP2 SWAP14 MULMOD DUP1 MULMOD MULMOD SWAP6 DUP11 DUP3 DUP1 DUP1 PUSH1 0x0 DUP1 MLOAD PUSH1 0x20 PUSH2 0xC9D6 DUP4 CODECOPY DUP2 MLOAD SWAP2 MSTORE DUP6 MULMOD SWAP3 PUSH1 0x0 DUP1 MLOAD PUSH1 0x20 PUSH2 0xC8B6 DUP4 CODECOPY DUP2 MLOAD SWAP2 MSTORE SWAP1 MULMOD DUP2 PUSH1 0x0 DUP1 MLOAD PUSH1 0x20 PUSH2 0xCA56 DUP4 CODECOPY DUP2 MLOAD SWAP2 MSTORE DUP14 MULMOD DUP3 PUSH1 0x0 DUP1 MLOAD PUSH1 0x20 PUSH2 0xC976 DUP4 CODECOPY DUP2 MLOAD SWAP2 MSTORE DUP14 MULMOD DUP4 PUSH1 0x0 DUP1 MLOAD PUSH1 0x20 PUSH2 0xCA96 DUP4 CODECOPY DUP2 MLOAD SWAP2 MSTORE DUP14 MULMOD ADD ADD ADD MOD ADD PUSH1 0x0 MSTORE DUP11 DUP3 DUP1 DUP1 PUSH1 0x0 DUP1 MLOAD PUSH1 0x20 PUSH2 0xCAF6 DUP4 CODECOPY DUP2 MLOAD SWAP2 MSTORE DUP6 MULMOD SWAP3 PUSH1 0x0 DUP1 MLOAD PUSH1 0x20 PUSH2 0xC8D6 DUP4 CODECOPY DUP2 MLOAD SWAP2 MSTORE SWAP1 MULMOD DUP2 PUSH1 0x0 DUP1 MLOAD PUSH1 0x20 PUSH2 0xCA16 DUP4 CODECOPY DUP2 MLOAD SWAP2 MSTORE DUP14 MULMOD DUP3 PUSH1 0x0 DUP1 MLOAD PUSH1 0x20 PUSH2 0xCAB6 DUP4 CODECOPY DUP2 MLOAD SWAP2 MSTORE DUP14 MULMOD DUP4 PUSH1 0x0 DUP1 MLOAD PUSH1 0x20 PUSH2 0xC856 DUP4 CODECOPY DUP2 MLOAD SWAP2 MSTORE DUP14 MULMOD ADD ADD ADD MOD ADD PUSH1 0x20 MSTORE DUP11 DUP3 DUP1 DUP1 PUSH1 0x0 DUP1 MLOAD PUSH1 0x20 PUSH2 0xC836 DUP4 CODECOPY DUP2 MLOAD SWAP2 MSTORE DUP6 MULMOD SWAP3 PUSH1 0x0 DUP1 MLOAD PUSH1 0x20 PUSH2 0xC9B6 DUP4 CODECOPY DUP2 MLOAD SWAP2 MSTORE SWAP1 MULMOD DUP2 PUSH1 0x0 DUP1 MLOAD PUSH1 0x20 PUSH2 0xC956 DUP4 CODECOPY DUP2 MLOAD SWAP2 MSTORE DUP14 MULMOD DUP3 PUSH1 0x0 DUP1 MLOAD PUSH1 0x20 PUSH2 0xC916 DUP4 CODECOPY DUP2 MLOAD SWAP2 MSTORE DUP14 MULMOD DUP4 PUSH1 0x0 DUP1 MLOAD PUSH1 0x20 PUSH2 0xC7D6 DUP4 CODECOPY DUP2 MLOAD SWAP2 MSTORE DUP14 MULMOD ADD ADD ADD MOD ADD PUSH1 0x80 MSTORE DUP11 DUP3 DUP1 DUP1 PUSH1 0x0 DUP1 MLOAD PUSH1 0x20 PUSH2 0xC7F6 DUP4 CODECOPY DUP2 MLOAD SWAP2 MSTORE DUP6 MULMOD SWAP3 PUSH1 0x0 DUP1 MLOAD PUSH1 0x20 PUSH2 0xC8F6 DUP4 CODECOPY DUP2 MLOAD SWAP2 MSTORE SWAP1 MULMOD DUP2 PUSH1 0x0 DUP1 MLOAD PUSH1 0x20 PUSH2 0xC896 DUP4 CODECOPY DUP2 MLOAD SWAP2 MSTORE DUP14 MULMOD DUP3 PUSH1 0x0 DUP1 MLOAD PUSH1 0x20 PUSH2 0xCA76 DUP4 CODECOPY DUP2 MLOAD SWAP2 MSTORE DUP14 MULMOD DUP4 PUSH1 0x0 DUP1 MLOAD PUSH1 0x20 PUSH2 0xCAD6 DUP4 CODECOPY DUP2 MLOAD SWAP2 MSTORE DUP14 MULMOD ADD ADD ADD MOD ADD PUSH1 0xA0 MSTORE PUSH1 0x0 DUP1 MLOAD PUSH1 0x20 PUSH2 0xC876 DUP4 CODECOPY DUP2 MLOAD SWAP2 MSTORE SWAP1 MULMOD SWAP9 PUSH1 0x0 DUP1 MLOAD PUSH1 0x20 PUSH2 0xC816 DUP4 CODECOPY DUP2 MLOAD SWAP2 MSTORE SWAP1 MULMOD SWAP6 PUSH1 0x0 DUP1 MLOAD PUSH1 0x20 PUSH2 0xC996 DUP4 CODECOPY DUP2 MLOAD SWAP2 MSTORE SWAP1 MULMOD SWAP4 PUSH1 0x0 DUP1 MLOAD PUSH1 0x20 PUSH2 0xCA36 DUP4 CODECOPY DUP2 MLOAD SWAP2 MSTORE SWAP1 MULMOD SWAP2 PUSH1 0x0 DUP1 MLOAD PUSH1 0x20 PUSH2 0xC9F6 DUP4 CODECOPY DUP2 MLOAD SWAP2 MSTORE SWAP1 MULMOD ADD ADD ADD MOD ADD PUSH1 0xC0 MSTORE JUMP JUMPDEST PUSH1 0x0 MLOAD PUSH32 0x20CA696F531E43EC088F56F4B74325626CC4DF712C0E5F0A907D88E5F0DEFFD ADD PUSH1 0x20 MLOAD PUSH32 0x27230EEDE9CCCFC9FA805A30FC548DB693D13708C646841D16E028387C7AC022 ADD SWAP1 PUSH1 0x80 MLOAD PUSH32 0x1645911C1198B01D64FDE34A342A1786497C05969A015439057D2FE75BB281C ADD PUSH1 0xA0 MLOAD PUSH32 0x2C323FE16481BF496E439C88341CE25F198971E14487056CFDCA4A451A5D8643 ADD SWAP3 PUSH1 0xC0 MLOAD PUSH32 0xFC082DFE70728E8450BD2074C3E22E1B022C124D3BFFE8B5AF88AE6DB5085C8 ADD PUSH1 0x0 DUP1 MLOAD PUSH1 0x20 PUSH2 0xC936 DUP4 CODECOPY DUP2 MLOAD SWAP2 MSTORE DUP1 DUP1 DUP1 DUP1 DUP1 DUP10 DUP2 DUP1 DUP3 DUP2 SWAP14 MULMOD DUP1 MULMOD MULMOD SWAP6 DUP11 DUP3 DUP1 DUP1 PUSH1 0x0 DUP1 MLOAD PUSH1 0x20 PUSH2 0xC9D6 DUP4 CODECOPY DUP2 MLOAD SWAP2 MSTORE DUP6 MULMOD SWAP3 PUSH1 0x0 DUP1 MLOAD PUSH1 0x20 PUSH2 0xC8B6 DUP4 CODECOPY DUP2 MLOAD SWAP2 MSTORE SWAP1 MULMOD DUP2 PUSH1 0x0 DUP1 MLOAD PUSH1 0x20 PUSH2 0xCA56 DUP4 CODECOPY DUP2 MLOAD SWAP2 MSTORE DUP14 MULMOD DUP3 PUSH1 0x0 DUP1 MLOAD PUSH1 0x20 PUSH2 0xC976 DUP4 CODECOPY DUP2 MLOAD SWAP2 MSTORE DUP14 MULMOD DUP4 PUSH1 0x0 DUP1 MLOAD PUSH1 0x20 PUSH2 0xCA96 DUP4 CODECOPY DUP2 MLOAD SWAP2 MSTORE DUP14 MULMOD ADD ADD ADD MOD ADD PUSH1 0x0 MSTORE DUP11 DUP3 DUP1 DUP1 PUSH1 0x0 DUP1 MLOAD PUSH1 0x20 PUSH2 0xCAF6 DUP4 CODECOPY DUP2 MLOAD SWAP2 MSTORE DUP6 MULMOD SWAP3 PUSH1 0x0 DUP1 MLOAD PUSH1 0x20 PUSH2 0xC8D6 DUP4 CODECOPY DUP2 MLOAD SWAP2 MSTORE SWAP1 MULMOD DUP2 PUSH1 0x0 DUP1 MLOAD PUSH1 0x20 PUSH2 0xCA16 DUP4 CODECOPY DUP2 MLOAD SWAP2 MSTORE DUP14 MULMOD DUP3 PUSH1 0x0 DUP1 MLOAD PUSH1 0x20 PUSH2 0xCAB6 DUP4 CODECOPY DUP2 MLOAD SWAP2 MSTORE DUP14 MULMOD DUP4 PUSH1 0x0 DUP1 MLOAD PUSH1 0x20 PUSH2 0xC856 DUP4 CODECOPY DUP2 MLOAD SWAP2 MSTORE DUP14 MULMOD ADD ADD ADD MOD ADD PUSH1 0x20 MSTORE DUP11 DUP3 DUP1 DUP1 PUSH1 0x0 DUP1 MLOAD PUSH1 0x20 PUSH2 0xC836 DUP4 CODECOPY DUP2 MLOAD SWAP2 MSTORE DUP6 MULMOD SWAP3 PUSH1 0x0 DUP1 MLOAD PUSH1 0x20 PUSH2 0xC9B6 DUP4 CODECOPY DUP2 MLOAD SWAP2 MSTORE SWAP1 MULMOD DUP2 PUSH1 0x0 DUP1 MLOAD PUSH1 0x20 PUSH2 0xC956 DUP4 CODECOPY DUP2 MLOAD SWAP2 MSTORE DUP14 MULMOD DUP3 PUSH1 0x0 DUP1 MLOAD PUSH1 0x20 PUSH2 0xC916 DUP4 CODECOPY DUP2 MLOAD SWAP2 MSTORE DUP14 MULMOD DUP4 PUSH1 0x0 DUP1 MLOAD PUSH1 0x20 PUSH2 0xC7D6 DUP4 CODECOPY DUP2 MLOAD SWAP2 MSTORE DUP14 MULMOD ADD ADD ADD MOD ADD PUSH1 0x80 MSTORE DUP11 DUP3 DUP1 DUP1 PUSH1 0x0 DUP1 MLOAD PUSH1 0x20 PUSH2 0xC7F6 DUP4 CODECOPY DUP2 MLOAD SWAP2 MSTORE DUP6 MULMOD SWAP3 PUSH1 0x0 DUP1 MLOAD PUSH1 0x20 PUSH2 0xC8F6 DUP4 CODECOPY DUP2 MLOAD SWAP2 MSTORE SWAP1 MULMOD DUP2 PUSH1 0x0 DUP1 MLOAD PUSH1 0x20 PUSH2 0xC896 DUP4 CODECOPY DUP2 MLOAD SWAP2 MSTORE DUP14 MULMOD DUP3 PUSH1 0x0 DUP1 MLOAD PUSH1 0x20 PUSH2 0xCA76 DUP4 CODECOPY DUP2 MLOAD SWAP2 MSTORE DUP14 MULMOD DUP4 PUSH1 0x0 DUP1 MLOAD PUSH1 0x20 PUSH2 0xCAD6 DUP4 CODECOPY DUP2 MLOAD SWAP2 MSTORE DUP14 MULMOD ADD ADD ADD MOD ADD PUSH1 0xA0 MSTORE PUSH1 0x0 DUP1 MLOAD PUSH1 0x20 PUSH2 0xC876 DUP4 CODECOPY DUP2 MLOAD SWAP2 MSTORE SWAP1 MULMOD SWAP9 PUSH1 0x0 DUP1 MLOAD PUSH1 0x20 PUSH2 0xC816 DUP4 CODECOPY DUP2 MLOAD SWAP2 MSTORE SWAP1 MULMOD SWAP6 PUSH1 0x0 DUP1 MLOAD PUSH1 0x20 PUSH2 0xC996 DUP4 CODECOPY DUP2 MLOAD SWAP2 MSTORE SWAP1 MULMOD SWAP4 PUSH1 0x0 DUP1 MLOAD PUSH1 0x20 PUSH2 0xCA36 DUP4 CODECOPY DUP2 MLOAD SWAP2 MSTORE SWAP1 MULMOD SWAP2 PUSH1 0x0 DUP1 MLOAD PUSH1 0x20 PUSH2 0xC9F6 DUP4 CODECOPY DUP2 MLOAD SWAP2 MSTORE SWAP1 MULMOD ADD ADD ADD MOD ADD PUSH1 0xC0 MSTORE JUMP JUMPDEST PUSH1 0x0 MLOAD PUSH32 0x2052C174800DB209D8CDCA568DCC25B3BE9642116AC4C77EFE8A488B423521EE ADD PUSH1 0x20 MLOAD PUSH32 0x28E420E10DF2FBB5AF96D621D55423190BE351CE8129065A8DD9FD05B3ECE9C0 ADD SWAP1 PUSH1 0x80 MLOAD PUSH32 0x25698CA5E24A1B799F783C4462A24DB655D6AE1BDACD1CB549D6E0BC3AE5069A ADD PUSH1 0xA0 MLOAD PUSH32 0x160A9981A5C89A57CF8FFBFA57D51049A297B61074422AC134D9B857D6984D35 ADD SWAP3 PUSH1 0xC0 MLOAD PUSH32 0x21C91A39E145C3BC34D9B694B843F3BF8B7CEBF59DDBB0A064642B069997F3D4 ADD PUSH1 0x0 DUP1 MLOAD PUSH1 0x20 PUSH2 0xC936 DUP4 CODECOPY DUP2 MLOAD SWAP2 MSTORE DUP1 DUP1 DUP1 DUP1 DUP1 DUP10 DUP2 DUP1 DUP3 DUP2 SWAP14 MULMOD DUP1 MULMOD MULMOD SWAP6 DUP11 DUP3 DUP1 DUP1 PUSH1 0x0 DUP1 MLOAD PUSH1 0x20 PUSH2 0xC9D6 DUP4 CODECOPY DUP2 MLOAD SWAP2 MSTORE DUP6 MULMOD SWAP3 PUSH1 0x0 DUP1 MLOAD PUSH1 0x20 PUSH2 0xC8B6 DUP4 CODECOPY DUP2 MLOAD SWAP2 MSTORE SWAP1 MULMOD DUP2 PUSH1 0x0 DUP1 MLOAD PUSH1 0x20 PUSH2 0xCA56 DUP4 CODECOPY DUP2 MLOAD SWAP2 MSTORE DUP14 MULMOD DUP3 PUSH1 0x0 DUP1 MLOAD PUSH1 0x20 PUSH2 0xC976 DUP4 CODECOPY DUP2 MLOAD SWAP2 MSTORE DUP14 MULMOD DUP4 PUSH1 0x0 DUP1 MLOAD PUSH1 0x20 PUSH2 0xCA96 DUP4 CODECOPY DUP2 MLOAD SWAP2 MSTORE DUP14 MULMOD ADD ADD ADD MOD ADD PUSH1 0x0 MSTORE DUP11 DUP3 DUP1 DUP1 PUSH1 0x0 DUP1 MLOAD PUSH1 0x20 PUSH2 0xCAF6 DUP4 CODECOPY DUP2 MLOAD SWAP2 MSTORE DUP6 MULMOD SWAP3 PUSH1 0x0 DUP1 MLOAD PUSH1 0x20 PUSH2 0xC8D6 DUP4 CODECOPY DUP2 MLOAD SWAP2 MSTORE SWAP1 MULMOD DUP2 PUSH1 0x0 DUP1 MLOAD PUSH1 0x20 PUSH2 0xCA16 DUP4 CODECOPY DUP2 MLOAD SWAP2 MSTORE DUP14 MULMOD DUP3 PUSH1 0x0 DUP1 MLOAD PUSH1 0x20 PUSH2 0xCAB6 DUP4 CODECOPY DUP2 MLOAD SWAP2 MSTORE DUP14 MULMOD DUP4 PUSH1 0x0 DUP1 MLOAD PUSH1 0x20 PUSH2 0xC856 DUP4 CODECOPY DUP2 MLOAD SWAP2 MSTORE DUP14 MULMOD ADD ADD ADD MOD ADD PUSH1 0x20 MSTORE DUP11 DUP3 DUP1 DUP1 PUSH1 0x0 DUP1 MLOAD PUSH1 0x20 PUSH2 0xC836 DUP4 CODECOPY DUP2 MLOAD SWAP2 MSTORE DUP6 MULMOD SWAP3 PUSH1 0x0 DUP1 MLOAD PUSH1 0x20 PUSH2 0xC9B6 DUP4 CODECOPY DUP2 MLOAD SWAP2 MSTORE SWAP1 MULMOD DUP2 PUSH1 0x0 DUP1 MLOAD PUSH1 0x20 PUSH2 0xC956 DUP4 CODECOPY DUP2 MLOAD SWAP2 MSTORE DUP14 MULMOD DUP3 PUSH1 0x0 DUP1 MLOAD PUSH1 0x20 PUSH2 0xC916 DUP4 CODECOPY DUP2 MLOAD SWAP2 MSTORE DUP14 MULMOD DUP4 PUSH1 0x0 DUP1 MLOAD PUSH1 0x20 PUSH2 0xC7D6 DUP4 CODECOPY DUP2 MLOAD SWAP2 MSTORE DUP14 MULMOD ADD ADD ADD MOD ADD PUSH1 0x80 MSTORE DUP11 DUP3 DUP1 DUP1 PUSH1 0x0 DUP1 MLOAD PUSH1 0x20 PUSH2 0xC7F6 DUP4 CODECOPY DUP2 MLOAD SWAP2 MSTORE DUP6 MULMOD SWAP3 PUSH1 0x0 DUP1 MLOAD PUSH1 0x20 PUSH2 0xC8F6 DUP4 CODECOPY DUP2 MLOAD SWAP2 MSTORE SWAP1 MULMOD DUP2 PUSH1 0x0 DUP1 MLOAD PUSH1 0x20 PUSH2 0xC896 DUP4 CODECOPY DUP2 MLOAD SWAP2 MSTORE DUP14 MULMOD DUP3 PUSH1 0x0 DUP1 MLOAD PUSH1 0x20 PUSH2 0xCA76 DUP4 CODECOPY DUP2 MLOAD SWAP2 MSTORE DUP14 MULMOD DUP4 PUSH1 0x0 DUP1 MLOAD PUSH1 0x20 PUSH2 0xCAD6 DUP4 CODECOPY DUP2 MLOAD SWAP2 MSTORE DUP14 MULMOD ADD ADD ADD MOD ADD PUSH1 0xA0 MSTORE PUSH1 0x0 DUP1 MLOAD PUSH1 0x20 PUSH2 0xC876 DUP4 CODECOPY DUP2 MLOAD SWAP2 MSTORE SWAP1 MULMOD SWAP9 PUSH1 0x0 DUP1 MLOAD PUSH1 0x20 PUSH2 0xC816 DUP4 CODECOPY DUP2 MLOAD SWAP2 MSTORE SWAP1 MULMOD SWAP6 PUSH1 0x0 DUP1 MLOAD PUSH1 0x20 PUSH2 0xC996 DUP4 CODECOPY DUP2 MLOAD SWAP2 MSTORE SWAP1 MULMOD SWAP4 PUSH1 0x0 DUP1 MLOAD PUSH1 0x20 PUSH2 0xCA36 DUP4 CODECOPY DUP2 MLOAD SWAP2 MSTORE SWAP1 MULMOD SWAP2 PUSH1 0x0 DUP1 MLOAD PUSH1 0x20 PUSH2 0xC9F6 DUP4 CODECOPY DUP2 MLOAD SWAP2 MSTORE SWAP1 MULMOD ADD ADD ADD MOD ADD PUSH1 0xC0 MSTORE JUMP JUMPDEST PUSH1 0x0 MLOAD PUSH32 0x1AC8D80DCD5EE876D2B09345EF112345D6EAA029D93F03B6D10975461E41734C ADD PUSH1 0x20 MLOAD PUSH32 0xAB3E6AD0ECF8B8E7C1662A4174C52225D822895E2755544B8DBCEA5657CE02C ADD SWAP1 PUSH1 0x80 MLOAD PUSH32 0x1C675182512620AE27E3B0B917B3A21CA52EF3EF5909B4E1C5B2237CBDAB3377 ADD PUSH1 0xA0 MLOAD PUSH32 0x2CDBC998DFD7AFFD3D948D0C85BAD2E2E37A4A3E07A7D75D0C8A9092AC2BED45 ADD SWAP3 PUSH1 0xC0 MLOAD PUSH32 0x23B584A56E2117B0774BF67CC0DEE33324337350309DFF833E491A133BB63B2E ADD PUSH1 0x0 DUP1 MLOAD PUSH1 0x20 PUSH2 0xC936 DUP4 CODECOPY DUP2 MLOAD SWAP2 MSTORE DUP1 DUP1 DUP1 DUP1 DUP1 DUP10 DUP2 DUP1 DUP3 DUP2 SWAP14 MULMOD DUP1 MULMOD MULMOD SWAP6 DUP11 DUP3 DUP1 DUP1 PUSH1 0x0 DUP1 MLOAD PUSH1 0x20 PUSH2 0xC9D6 DUP4 CODECOPY DUP2 MLOAD SWAP2 MSTORE DUP6 MULMOD SWAP3 PUSH1 0x0 DUP1 MLOAD PUSH1 0x20 PUSH2 0xC8B6 DUP4 CODECOPY DUP2 MLOAD SWAP2 MSTORE SWAP1 MULMOD DUP2 PUSH1 0x0 DUP1 MLOAD PUSH1 0x20 PUSH2 0xCA56 DUP4 CODECOPY DUP2 MLOAD SWAP2 MSTORE DUP14 MULMOD DUP3 PUSH1 0x0 DUP1 MLOAD PUSH1 0x20 PUSH2 0xC976 DUP4 CODECOPY DUP2 MLOAD SWAP2 MSTORE DUP14 MULMOD DUP4 PUSH1 0x0 DUP1 MLOAD PUSH1 0x20 PUSH2 0xCA96 DUP4 CODECOPY DUP2 MLOAD SWAP2 MSTORE DUP14 MULMOD ADD ADD ADD MOD ADD PUSH1 0x0 MSTORE DUP11 DUP3 DUP1 DUP1 PUSH1 0x0 DUP1 MLOAD PUSH1 0x20 PUSH2 0xCAF6 DUP4 CODECOPY DUP2 MLOAD SWAP2 MSTORE DUP6 MULMOD SWAP3 PUSH1 0x0 DUP1 MLOAD PUSH1 0x20 PUSH2 0xC8D6 DUP4 CODECOPY DUP2 MLOAD SWAP2 MSTORE SWAP1 MULMOD DUP2 PUSH1 0x0 DUP1 MLOAD PUSH1 0x20 PUSH2 0xCA16 DUP4 CODECOPY DUP2 MLOAD SWAP2 MSTORE DUP14 MULMOD DUP3 PUSH1 0x0 DUP1 MLOAD PUSH1 0x20 PUSH2 0xCAB6 DUP4 CODECOPY DUP2 MLOAD SWAP2 MSTORE DUP14 MULMOD DUP4 PUSH1 0x0 DUP1 MLOAD PUSH1 0x20 PUSH2 0xC856 DUP4 CODECOPY DUP2 MLOAD SWAP2 MSTORE DUP14 MULMOD ADD ADD ADD MOD ADD PUSH1 0x20 MSTORE DUP11 DUP3 DUP1 DUP1 PUSH1 0x0 DUP1 MLOAD PUSH1 0x20 PUSH2 0xC836 DUP4 CODECOPY DUP2 MLOAD SWAP2 MSTORE DUP6 MULMOD SWAP3 PUSH1 0x0 DUP1 MLOAD PUSH1 0x20 PUSH2 0xC9B6 DUP4 CODECOPY DUP2 MLOAD SWAP2 MSTORE SWAP1 MULMOD DUP2 PUSH1 0x0 DUP1 MLOAD PUSH1 0x20 PUSH2 0xC956 DUP4 CODECOPY DUP2 MLOAD SWAP2 MSTORE DUP14 MULMOD DUP3 PUSH1 0x0 DUP1 MLOAD PUSH1 0x20 PUSH2 0xC916 DUP4 CODECOPY DUP2 MLOAD SWAP2 MSTORE DUP14 MULMOD DUP4 PUSH1 0x0 DUP1 MLOAD PUSH1 0x20 PUSH2 0xC7D6 DUP4 CODECOPY DUP2 MLOAD SWAP2 MSTORE DUP14 MULMOD ADD ADD ADD MOD ADD PUSH1 0x80 MSTORE DUP11 DUP3 DUP1 DUP1 PUSH1 0x0 DUP1 MLOAD PUSH1 0x20 PUSH2 0xC7F6 DUP4 CODECOPY DUP2 MLOAD SWAP2 MSTORE DUP6 MULMOD SWAP3 PUSH1 0x0 DUP1 MLOAD PUSH1 0x20 PUSH2 0xC8F6 DUP4 CODECOPY DUP2 MLOAD SWAP2 MSTORE SWAP1 MULMOD DUP2 PUSH1 0x0 DUP1 MLOAD PUSH1 0x20 PUSH2 0xC896 DUP4 CODECOPY DUP2 MLOAD SWAP2 MSTORE DUP14 MULMOD DUP3 PUSH1 0x0 DUP1 MLOAD PUSH1 0x20 PUSH2 0xCA76 DUP4 CODECOPY DUP2 MLOAD SWAP2 MSTORE DUP14 MULMOD DUP4 PUSH1 0x0 DUP1 MLOAD PUSH1 0x20 PUSH2 0xCAD6 DUP4 CODECOPY DUP2 MLOAD SWAP2 MSTORE DUP14 MULMOD ADD ADD ADD MOD ADD PUSH1 0xA0 MSTORE PUSH1 0x0 DUP1 MLOAD PUSH1 0x20 PUSH2 0xC876 DUP4 CODECOPY DUP2 MLOAD SWAP2 MSTORE SWAP1 MULMOD SWAP9 PUSH1 0x0 DUP1 MLOAD PUSH1 0x20 PUSH2 0xC816 DUP4 CODECOPY DUP2 MLOAD SWAP2 MSTORE SWAP1 MULMOD SWAP6 PUSH1 0x0 DUP1 MLOAD PUSH1 0x20 PUSH2 0xC996 DUP4 CODECOPY DUP2 MLOAD SWAP2 MSTORE SWAP1 MULMOD SWAP4 PUSH1 0x0 DUP1 MLOAD PUSH1 0x20 PUSH2 0xCA36 DUP4 CODECOPY DUP2 MLOAD SWAP2 MSTORE SWAP1 MULMOD SWAP2 PUSH1 0x0 DUP1 MLOAD PUSH1 0x20 PUSH2 0xC9F6 DUP4 CODECOPY DUP2 MLOAD SWAP2 MSTORE SWAP1 MULMOD ADD ADD ADD MOD ADD PUSH1 0xC0 MSTORE JUMP JUMPDEST PUSH1 0x0 MLOAD PUSH32 0x1E9E2B310F60BA9F8CB73030A3C9D2A10D133BC6BA4EC1152F3D20DE1465E9A5 ADD PUSH1 0x20 MLOAD PUSH32 0xE01E365BA5B3031ABC3E720140AE746C9AB5DAB987520C460BCD4F1FA5B22DB ADD SWAP1 PUSH1 0x80 MLOAD PUSH32 0x40884CDCFC64BFC7B7127340498D5C443382011B61C9A4B1387D85BC1264E68 ADD PUSH1 0xA0 MLOAD PUSH32 0x190B1EE1205EB9500C74A3998F2BEA36353F1724D6067ED0A0A17DE311EF9668 ADD SWAP3 PUSH1 0xC0 MLOAD PUSH32 0x1647C72AEC6C4388D04F52FC23CD9C08C1DFCF65CE61E165FC28D1F832BD3B2C ADD PUSH1 0x0 DUP1 MLOAD PUSH1 0x20 PUSH2 0xC936 DUP4 CODECOPY DUP2 MLOAD SWAP2 MSTORE DUP1 DUP1 DUP1 DUP1 DUP1 DUP10 DUP2 DUP1 DUP3 DUP2 SWAP14 MULMOD DUP1 MULMOD MULMOD SWAP6 DUP11 DUP3 DUP1 DUP1 PUSH1 0x0 DUP1 MLOAD PUSH1 0x20 PUSH2 0xC9D6 DUP4 CODECOPY DUP2 MLOAD SWAP2 MSTORE DUP6 MULMOD SWAP3 PUSH1 0x0 DUP1 MLOAD PUSH1 0x20 PUSH2 0xC8B6 DUP4 CODECOPY DUP2 MLOAD SWAP2 MSTORE SWAP1 MULMOD DUP2 PUSH1 0x0 DUP1 MLOAD PUSH1 0x20 PUSH2 0xCA56 DUP4 CODECOPY DUP2 MLOAD SWAP2 MSTORE DUP14 MULMOD DUP3 PUSH1 0x0 DUP1 MLOAD PUSH1 0x20 PUSH2 0xC976 DUP4 CODECOPY DUP2 MLOAD SWAP2 MSTORE DUP14 MULMOD DUP4 PUSH1 0x0 DUP1 MLOAD PUSH1 0x20 PUSH2 0xCA96 DUP4 CODECOPY DUP2 MLOAD SWAP2 MSTORE DUP14 MULMOD ADD ADD ADD MOD ADD PUSH1 0x0 MSTORE DUP11 DUP3 DUP1 DUP1 PUSH1 0x0 DUP1 MLOAD PUSH1 0x20 PUSH2 0xCAF6 DUP4 CODECOPY DUP2 MLOAD SWAP2 MSTORE DUP6 MULMOD SWAP3 PUSH1 0x0 DUP1 MLOAD PUSH1 0x20 PUSH2 0xC8D6 DUP4 CODECOPY DUP2 MLOAD SWAP2 MSTORE SWAP1 MULMOD DUP2 PUSH1 0x0 DUP1 MLOAD PUSH1 0x20 PUSH2 0xCA16 DUP4 CODECOPY DUP2 MLOAD SWAP2 MSTORE DUP14 MULMOD DUP3 PUSH1 0x0 DUP1 MLOAD PUSH1 0x20 PUSH2 0xCAB6 DUP4 CODECOPY DUP2 MLOAD SWAP2 MSTORE DUP14 MULMOD DUP4 PUSH1 0x0 DUP1 MLOAD PUSH1 0x20 PUSH2 0xC856 DUP4 CODECOPY DUP2 MLOAD SWAP2 MSTORE DUP14 MULMOD ADD ADD ADD MOD ADD PUSH1 0x20 MSTORE DUP11 DUP3 DUP1 DUP1 PUSH1 0x0 DUP1 MLOAD PUSH1 0x20 PUSH2 0xC836 DUP4 CODECOPY DUP2 MLOAD SWAP2 MSTORE DUP6 MULMOD SWAP3 PUSH1 0x0 DUP1 MLOAD PUSH1 0x20 PUSH2 0xC9B6 DUP4 CODECOPY DUP2 MLOAD SWAP2 MSTORE SWAP1 MULMOD DUP2 PUSH1 0x0 DUP1 MLOAD PUSH1 0x20 PUSH2 0xC956 DUP4 CODECOPY DUP2 MLOAD SWAP2 MSTORE DUP14 MULMOD DUP3 PUSH1 0x0 DUP1 MLOAD PUSH1 0x20 PUSH2 0xC916 DUP4 CODECOPY DUP2 MLOAD SWAP2 MSTORE DUP14 MULMOD DUP4 PUSH1 0x0 DUP1 MLOAD PUSH1 0x20 PUSH2 0xC7D6 DUP4 CODECOPY DUP2 MLOAD SWAP2 MSTORE DUP14 MULMOD ADD ADD ADD MOD ADD PUSH1 0x80 MSTORE DUP11 DUP3 DUP1 DUP1 PUSH1 0x0 DUP1 MLOAD PUSH1 0x20 PUSH2 0xC7F6 DUP4 CODECOPY DUP2 MLOAD SWAP2 MSTORE DUP6 MULMOD SWAP3 PUSH1 0x0 DUP1 MLOAD PUSH1 0x20 PUSH2 0xC8F6 DUP4 CODECOPY DUP2 MLOAD SWAP2 MSTORE SWAP1 MULMOD DUP2 PUSH1 0x0 DUP1 MLOAD PUSH1 0x20 PUSH2 0xC896 DUP4 CODECOPY DUP2 MLOAD SWAP2 MSTORE DUP14 MULMOD DUP3 PUSH1 0x0 DUP1 MLOAD PUSH1 0x20 PUSH2 0xCA76 DUP4 CODECOPY DUP2 MLOAD SWAP2 MSTORE DUP14 MULMOD DUP4 PUSH1 0x0 DUP1 MLOAD PUSH1 0x20 PUSH2 0xCAD6 DUP4 CODECOPY DUP2 MLOAD SWAP2 MSTORE DUP14 MULMOD ADD ADD ADD MOD ADD PUSH1 0xA0 MSTORE PUSH1 0x0 DUP1 MLOAD PUSH1 0x20 PUSH2 0xC876 DUP4 CODECOPY DUP2 MLOAD SWAP2 MSTORE SWAP1 MULMOD SWAP9 PUSH1 0x0 DUP1 MLOAD PUSH1 0x20 PUSH2 0xC816 DUP4 CODECOPY DUP2 MLOAD SWAP2 MSTORE SWAP1 MULMOD SWAP6 PUSH1 0x0 DUP1 MLOAD PUSH1 0x20 PUSH2 0xC996 DUP4 CODECOPY DUP2 MLOAD SWAP2 MSTORE SWAP1 MULMOD SWAP4 PUSH1 0x0 DUP1 MLOAD PUSH1 0x20 PUSH2 0xCA36 DUP4 CODECOPY DUP2 MLOAD SWAP2 MSTORE SWAP1 MULMOD SWAP2 PUSH1 0x0 DUP1 MLOAD PUSH1 0x20 PUSH2 0xC9F6 DUP4 CODECOPY DUP2 MLOAD SWAP2 MSTORE SWAP1 MULMOD ADD ADD ADD MOD ADD PUSH1 0xC0 MSTORE JUMP JUMPDEST PUSH1 0x0 MLOAD PUSH32 0x2430006346A0145F799880CC4C8736269F5494D89FB48B02842E595B71E4541D ADD PUSH1 0x20 MLOAD PUSH32 0x177B9A08343917E1365107A3DA3AE7F69D853902BB16BACB3221850252B757AF ADD SWAP1 PUSH1 0x80 MLOAD PUSH32 0x4A420E642B11AE94E58862A68F5E32609CD53D0AE29423439B11D04666DF4F8 ADD PUSH1 0xA0 MLOAD PUSH32 0x25D0E0F739FB39FC105A88FAB0AFD810DE2461858E956CCCCDFABEDDB6A25C8F ADD SWAP3 PUSH1 0xC0 MLOAD PUSH32 0x4476D91B7EFF2FD85905CBF58651EDC320CB15610EAED452C4D4FFA0C740A27 ADD PUSH1 0x0 DUP1 MLOAD PUSH1 0x20 PUSH2 0xC936 DUP4 CODECOPY DUP2 MLOAD SWAP2 MSTORE DUP1 DUP1 DUP1 DUP1 DUP1 DUP10 DUP2 DUP1 DUP3 DUP2 SWAP14 MULMOD DUP1 MULMOD MULMOD SWAP6 DUP11 DUP3 DUP1 DUP1 PUSH1 0x0 DUP1 MLOAD PUSH1 0x20 PUSH2 0xC9D6 DUP4 CODECOPY DUP2 MLOAD SWAP2 MSTORE DUP6 MULMOD SWAP3 PUSH1 0x0 DUP1 MLOAD PUSH1 0x20 PUSH2 0xC8B6 DUP4 CODECOPY DUP2 MLOAD SWAP2 MSTORE SWAP1 MULMOD DUP2 PUSH1 0x0 DUP1 MLOAD PUSH1 0x20 PUSH2 0xCA56 DUP4 CODECOPY DUP2 MLOAD SWAP2 MSTORE DUP14 MULMOD DUP3 PUSH1 0x0 DUP1 MLOAD PUSH1 0x20 PUSH2 0xC976 DUP4 CODECOPY DUP2 MLOAD SWAP2 MSTORE DUP14 MULMOD DUP4 PUSH1 0x0 DUP1 MLOAD PUSH1 0x20 PUSH2 0xCA96 DUP4 CODECOPY DUP2 MLOAD SWAP2 MSTORE DUP14 MULMOD ADD ADD ADD MOD ADD PUSH1 0x0 MSTORE DUP11 DUP3 DUP1 DUP1 PUSH1 0x0 DUP1 MLOAD PUSH1 0x20 PUSH2 0xCAF6 DUP4 CODECOPY DUP2 MLOAD SWAP2 MSTORE DUP6 MULMOD SWAP3 PUSH1 0x0 DUP1 MLOAD PUSH1 0x20 PUSH2 0xC8D6 DUP4 CODECOPY DUP2 MLOAD SWAP2 MSTORE SWAP1 MULMOD DUP2 PUSH1 0x0 DUP1 MLOAD PUSH1 0x20 PUSH2 0xCA16 DUP4 CODECOPY DUP2 MLOAD SWAP2 MSTORE DUP14 MULMOD DUP3 PUSH1 0x0 DUP1 MLOAD PUSH1 0x20 PUSH2 0xCAB6 DUP4 CODECOPY DUP2 MLOAD SWAP2 MSTORE DUP14 MULMOD DUP4 PUSH1 0x0 DUP1 MLOAD PUSH1 0x20 PUSH2 0xC856 DUP4 CODECOPY DUP2 MLOAD SWAP2 MSTORE DUP14 MULMOD ADD ADD ADD MOD ADD PUSH1 0x20 MSTORE DUP11 DUP3 DUP1 DUP1 PUSH1 0x0 DUP1 MLOAD PUSH1 0x20 PUSH2 0xC836 DUP4 CODECOPY DUP2 MLOAD SWAP2 MSTORE DUP6 MULMOD SWAP3 PUSH1 0x0 DUP1 MLOAD PUSH1 0x20 PUSH2 0xC9B6 DUP4 CODECOPY DUP2 MLOAD SWAP2 MSTORE SWAP1 MULMOD DUP2 PUSH1 0x0 DUP1 MLOAD PUSH1 0x20 PUSH2 0xC956 DUP4 CODECOPY DUP2 MLOAD SWAP2 MSTORE DUP14 MULMOD DUP3 PUSH1 0x0 DUP1 MLOAD PUSH1 0x20 PUSH2 0xC916 DUP4 CODECOPY DUP2 MLOAD SWAP2 MSTORE DUP14 MULMOD DUP4 PUSH1 0x0 DUP1 MLOAD PUSH1 0x20 PUSH2 0xC7D6 DUP4 CODECOPY DUP2 MLOAD SWAP2 MSTORE DUP14 MULMOD ADD ADD ADD MOD ADD PUSH1 0x80 MSTORE DUP11 DUP3 DUP1 DUP1 PUSH1 0x0 DUP1 MLOAD PUSH1 0x20 PUSH2 0xC7F6 DUP4 CODECOPY DUP2 MLOAD SWAP2 MSTORE DUP6 MULMOD SWAP3 PUSH1 0x0 DUP1 MLOAD PUSH1 0x20 PUSH2 0xC8F6 DUP4 CODECOPY DUP2 MLOAD SWAP2 MSTORE SWAP1 MULMOD DUP2 PUSH1 0x0 DUP1 MLOAD PUSH1 0x20 PUSH2 0xC896 DUP4 CODECOPY DUP2 MLOAD SWAP2 MSTORE DUP14 MULMOD DUP3 PUSH1 0x0 DUP1 MLOAD PUSH1 0x20 PUSH2 0xCA76 DUP4 CODECOPY DUP2 MLOAD SWAP2 MSTORE DUP14 MULMOD DUP4 PUSH1 0x0 DUP1 MLOAD PUSH1 0x20 PUSH2 0xCAD6 DUP4 CODECOPY DUP2 MLOAD SWAP2 MSTORE DUP14 MULMOD ADD ADD ADD MOD ADD PUSH1 0xA0 MSTORE PUSH1 0x0 DUP1 MLOAD PUSH1 0x20 PUSH2 0xC876 DUP4 CODECOPY DUP2 MLOAD SWAP2 MSTORE SWAP1 MULMOD SWAP9 PUSH1 0x0 DUP1 MLOAD PUSH1 0x20 PUSH2 0xC816 DUP4 CODECOPY DUP2 MLOAD SWAP2 MSTORE SWAP1 MULMOD SWAP6 PUSH1 0x0 DUP1 MLOAD PUSH1 0x20 PUSH2 0xC996 DUP4 CODECOPY DUP2 MLOAD SWAP2 MSTORE SWAP1 MULMOD SWAP4 PUSH1 0x0 DUP1 MLOAD PUSH1 0x20 PUSH2 0xCA36 DUP4 CODECOPY DUP2 MLOAD SWAP2 MSTORE SWAP1 MULMOD SWAP2 PUSH1 0x0 DUP1 MLOAD PUSH1 0x20 PUSH2 0xC9F6 DUP4 CODECOPY DUP2 MLOAD SWAP2 MSTORE SWAP1 MULMOD ADD ADD ADD MOD ADD PUSH1 0xC0 MSTORE JUMP JUMPDEST PUSH1 0x0 MLOAD PUSH32 0x1090C0B68B3D7D7B8BC9CA2419EB8DEA1C28F6D5E1250CB5E9780FD9CA286FAE ADD PUSH1 0x20 MLOAD PUSH32 0x25393CE3B9256D50448A725C5C7CD5AD376F2D435855C10EBF2899CB5C6617BE ADD SWAP1 PUSH1 0x80 MLOAD PUSH32 0x25931C0C7371F4F1FC862F306E6E5830ED824388D6B9342697D144F0FAB46630 ADD PUSH1 0xA0 MLOAD PUSH32 0x2396CB501700BBE6C82AAD51B0FB79CF8A4D353185D5808203F73F22AFBF62F6 ADD SWAP3 PUSH1 0xC0 MLOAD PUSH32 0x26A363483348B58954EA748A7129A7B0A3DC9068C3CCA7B5B3F0CE03B8724884 ADD PUSH1 0x0 DUP1 MLOAD PUSH1 0x20 PUSH2 0xC936 DUP4 CODECOPY DUP2 MLOAD SWAP2 MSTORE DUP1 DUP1 DUP1 DUP1 DUP1 DUP10 DUP2 DUP1 DUP3 DUP2 SWAP14 MULMOD DUP1 MULMOD MULMOD SWAP6 DUP11 DUP3 DUP1 DUP1 PUSH1 0x0 DUP1 MLOAD PUSH1 0x20 PUSH2 0xC9D6 DUP4 CODECOPY DUP2 MLOAD SWAP2 MSTORE DUP6 MULMOD SWAP3 PUSH1 0x0 DUP1 MLOAD PUSH1 0x20 PUSH2 0xC8B6 DUP4 CODECOPY DUP2 MLOAD SWAP2 MSTORE SWAP1 MULMOD DUP2 PUSH1 0x0 DUP1 MLOAD PUSH1 0x20 PUSH2 0xCA56 DUP4 CODECOPY DUP2 MLOAD SWAP2 MSTORE DUP14 MULMOD DUP3 PUSH1 0x0 DUP1 MLOAD PUSH1 0x20 PUSH2 0xC976 DUP4 CODECOPY DUP2 MLOAD SWAP2 MSTORE DUP14 MULMOD DUP4 PUSH1 0x0 DUP1 MLOAD PUSH1 0x20 PUSH2 0xCA96 DUP4 CODECOPY DUP2 MLOAD SWAP2 MSTORE DUP14 MULMOD ADD ADD ADD MOD ADD PUSH1 0x0 MSTORE DUP11 DUP3 DUP1 DUP1 PUSH1 0x0 DUP1 MLOAD PUSH1 0x20 PUSH2 0xCAF6 DUP4 CODECOPY DUP2 MLOAD SWAP2 MSTORE DUP6 MULMOD SWAP3 PUSH1 0x0 DUP1 MLOAD PUSH1 0x20 PUSH2 0xC8D6 DUP4 CODECOPY DUP2 MLOAD SWAP2 MSTORE SWAP1 MULMOD DUP2 PUSH1 0x0 DUP1 MLOAD PUSH1 0x20 PUSH2 0xCA16 DUP4 CODECOPY DUP2 MLOAD SWAP2 MSTORE DUP14 MULMOD DUP3 PUSH1 0x0 DUP1 MLOAD PUSH1 0x20 PUSH2 0xCAB6 DUP4 CODECOPY DUP2 MLOAD SWAP2 MSTORE DUP14 MULMOD DUP4 PUSH1 0x0 DUP1 MLOAD PUSH1 0x20 PUSH2 0xC856 DUP4 CODECOPY DUP2 MLOAD SWAP2 MSTORE DUP14 MULMOD ADD ADD ADD MOD ADD PUSH1 0x20 MSTORE DUP11 DUP3 DUP1 DUP1 PUSH1 0x0 DUP1 MLOAD PUSH1 0x20 PUSH2 0xC836 DUP4 CODECOPY DUP2 MLOAD SWAP2 MSTORE DUP6 MULMOD SWAP3 PUSH1 0x0 DUP1 MLOAD PUSH1 0x20 PUSH2 0xC9B6 DUP4 CODECOPY DUP2 MLOAD SWAP2 MSTORE SWAP1 MULMOD DUP2 PUSH1 0x0 DUP1 MLOAD PUSH1 0x20 PUSH2 0xC956 DUP4 CODECOPY DUP2 MLOAD SWAP2 MSTORE DUP14 MULMOD DUP3 PUSH1 0x0 DUP1 MLOAD PUSH1 0x20 PUSH2 0xC916 DUP4 CODECOPY DUP2 MLOAD SWAP2 MSTORE DUP14 MULMOD DUP4 PUSH1 0x0 DUP1 MLOAD PUSH1 0x20 PUSH2 0xC7D6 DUP4 CODECOPY DUP2 MLOAD SWAP2 MSTORE DUP14 MULMOD ADD ADD ADD MOD ADD PUSH1 0x80 MSTORE DUP11 DUP3 DUP1 DUP1 PUSH1 0x0 DUP1 MLOAD PUSH1 0x20 PUSH2 0xC7F6 DUP4 CODECOPY DUP2 MLOAD SWAP2 MSTORE DUP6 MULMOD SWAP3 PUSH1 0x0 DUP1 MLOAD PUSH1 0x20 PUSH2 0xC8F6 DUP4 CODECOPY DUP2 MLOAD SWAP2 MSTORE SWAP1 MULMOD DUP2 PUSH1 0x0 DUP1 MLOAD PUSH1 0x20 PUSH2 0xC896 DUP4 CODECOPY DUP2 MLOAD SWAP2 MSTORE DUP14 MULMOD DUP3 PUSH1 0x0 DUP1 MLOAD PUSH1 0x20 PUSH2 0xCA76 DUP4 CODECOPY DUP2 MLOAD SWAP2 MSTORE DUP14 MULMOD DUP4 PUSH1 0x0 DUP1 MLOAD PUSH1 0x20 PUSH2 0xCAD6 DUP4 CODECOPY DUP2 MLOAD SWAP2 MSTORE DUP14 MULMOD ADD ADD ADD MOD ADD PUSH1 0xA0 MSTORE PUSH1 0x0 DUP1 MLOAD PUSH1 0x20 PUSH2 0xC876 DUP4 CODECOPY DUP2 MLOAD SWAP2 MSTORE SWAP1 MULMOD SWAP9 PUSH1 0x0 DUP1 MLOAD PUSH1 0x20 PUSH2 0xC816 DUP4 CODECOPY DUP2 MLOAD SWAP2 MSTORE SWAP1 MULMOD SWAP6 PUSH1 0x0 DUP1 MLOAD PUSH1 0x20 PUSH2 0xC996 DUP4 CODECOPY DUP2 MLOAD SWAP2 MSTORE SWAP1 MULMOD SWAP4 PUSH1 0x0 DUP1 MLOAD PUSH1 0x20 PUSH2 0xCA36 DUP4 CODECOPY DUP2 MLOAD SWAP2 MSTORE SWAP1 MULMOD SWAP2 PUSH1 0x0 DUP1 MLOAD PUSH1 0x20 PUSH2 0xC9F6 DUP4 CODECOPY DUP2 MLOAD SWAP2 MSTORE SWAP1 MULMOD ADD ADD ADD MOD ADD PUSH1 0xC0 MSTORE JUMP JUMPDEST PUSH1 0x0 MLOAD PUSH32 0x27CA107CA204F2A18D6F1535B92C5478C99B893334215F6BA7A0E5B45FCD6897 ADD PUSH1 0x20 MLOAD PUSH32 0x26DA28FC097ED77CE4662BDE326B2CCEAC15F7301178581D8D2D02B3B2D91056 ADD SWAP1 PUSH1 0x80 MLOAD PUSH32 0x56AB351691D8BB3703E3055070AC9CC655774C1BB35D57572971BA56EE0CB89 ADD PUSH1 0xA0 MLOAD PUSH32 0x2638B57F23B754AEC76D109A2F481AA3C22547A11FFC50152D729AF632376A90 ADD SWAP3 PUSH1 0xC0 MLOAD PUSH32 0x304754BB8C57D60732F492C2605184FDC33E46A532BDEC80EA7BC5519EDE7CEF ADD PUSH1 0x0 DUP1 MLOAD PUSH1 0x20 PUSH2 0xC936 DUP4 CODECOPY DUP2 MLOAD SWAP2 MSTORE DUP1 DUP1 DUP1 DUP1 DUP1 DUP10 DUP2 DUP1 DUP3 DUP2 SWAP14 MULMOD DUP1 MULMOD MULMOD SWAP6 DUP11 DUP3 DUP1 DUP1 PUSH1 0x0 DUP1 MLOAD PUSH1 0x20 PUSH2 0xC9D6 DUP4 CODECOPY DUP2 MLOAD SWAP2 MSTORE DUP6 MULMOD SWAP3 PUSH1 0x0 DUP1 MLOAD PUSH1 0x20 PUSH2 0xC8B6 DUP4 CODECOPY DUP2 MLOAD SWAP2 MSTORE SWAP1 MULMOD DUP2 PUSH1 0x0 DUP1 MLOAD PUSH1 0x20 PUSH2 0xCA56 DUP4 CODECOPY DUP2 MLOAD SWAP2 MSTORE DUP14 MULMOD DUP3 PUSH1 0x0 DUP1 MLOAD PUSH1 0x20 PUSH2 0xC976 DUP4 CODECOPY DUP2 MLOAD SWAP2 MSTORE DUP14 MULMOD DUP4 PUSH1 0x0 DUP1 MLOAD PUSH1 0x20 PUSH2 0xCA96 DUP4 CODECOPY DUP2 MLOAD SWAP2 MSTORE DUP14 MULMOD ADD ADD ADD MOD ADD PUSH1 0x0 MSTORE DUP11 DUP3 DUP1 DUP1 PUSH1 0x0 DUP1 MLOAD PUSH1 0x20 PUSH2 0xCAF6 DUP4 CODECOPY DUP2 MLOAD SWAP2 MSTORE DUP6 MULMOD SWAP3 PUSH1 0x0 DUP1 MLOAD PUSH1 0x20 PUSH2 0xC8D6 DUP4 CODECOPY DUP2 MLOAD SWAP2 MSTORE SWAP1 MULMOD DUP2 PUSH1 0x0 DUP1 MLOAD PUSH1 0x20 PUSH2 0xCA16 DUP4 CODECOPY DUP2 MLOAD SWAP2 MSTORE DUP14 MULMOD DUP3 PUSH1 0x0 DUP1 MLOAD PUSH1 0x20 PUSH2 0xCAB6 DUP4 CODECOPY DUP2 MLOAD SWAP2 MSTORE DUP14 MULMOD DUP4 PUSH1 0x0 DUP1 MLOAD PUSH1 0x20 PUSH2 0xC856 DUP4 CODECOPY DUP2 MLOAD SWAP2 MSTORE DUP14 MULMOD ADD ADD ADD MOD ADD PUSH1 0x20 MSTORE DUP11 DUP3 DUP1 DUP1 PUSH1 0x0 DUP1 MLOAD PUSH1 0x20 PUSH2 0xC836 DUP4 CODECOPY DUP2 MLOAD SWAP2 MSTORE DUP6 MULMOD SWAP3 PUSH1 0x0 DUP1 MLOAD PUSH1 0x20 PUSH2 0xC9B6 DUP4 CODECOPY DUP2 MLOAD SWAP2 MSTORE SWAP1 MULMOD DUP2 PUSH1 0x0 DUP1 MLOAD PUSH1 0x20 PUSH2 0xC956 DUP4 CODECOPY DUP2 MLOAD SWAP2 MSTORE DUP14 MULMOD DUP3 PUSH1 0x0 DUP1 MLOAD PUSH1 0x20 PUSH2 0xC916 DUP4 CODECOPY DUP2 MLOAD SWAP2 MSTORE DUP14 MULMOD DUP4 PUSH1 0x0 DUP1 MLOAD PUSH1 0x20 PUSH2 0xC7D6 DUP4 CODECOPY DUP2 MLOAD SWAP2 MSTORE DUP14 MULMOD ADD ADD ADD MOD ADD PUSH1 0x80 MSTORE DUP11 DUP3 DUP1 DUP1 PUSH1 0x0 DUP1 MLOAD PUSH1 0x20 PUSH2 0xC7F6 DUP4 CODECOPY DUP2 MLOAD SWAP2 MSTORE DUP6 MULMOD SWAP3 PUSH1 0x0 DUP1 MLOAD PUSH1 0x20 PUSH2 0xC8F6 DUP4 CODECOPY DUP2 MLOAD SWAP2 MSTORE SWAP1 MULMOD DUP2 PUSH1 0x0 DUP1 MLOAD PUSH1 0x20 PUSH2 0xC896 DUP4 CODECOPY DUP2 MLOAD SWAP2 MSTORE DUP14 MULMOD DUP3 PUSH1 0x0 DUP1 MLOAD PUSH1 0x20 PUSH2 0xCA76 DUP4 CODECOPY DUP2 MLOAD SWAP2 MSTORE DUP14 MULMOD DUP4 PUSH1 0x0 DUP1 MLOAD PUSH1 0x20 PUSH2 0xCAD6 DUP4 CODECOPY DUP2 MLOAD SWAP2 MSTORE DUP14 MULMOD ADD ADD ADD MOD ADD PUSH1 0xA0 MSTORE PUSH1 0x0 DUP1 MLOAD PUSH1 0x20 PUSH2 0xC876 DUP4 CODECOPY DUP2 MLOAD SWAP2 MSTORE SWAP1 MULMOD SWAP9 PUSH1 0x0 DUP1 MLOAD PUSH1 0x20 PUSH2 0xC816 DUP4 CODECOPY DUP2 MLOAD SWAP2 MSTORE SWAP1 MULMOD SWAP6 PUSH1 0x0 DUP1 MLOAD PUSH1 0x20 PUSH2 0xC996 DUP4 CODECOPY DUP2 MLOAD SWAP2 MSTORE SWAP1 MULMOD SWAP4 PUSH1 0x0 DUP1 MLOAD PUSH1 0x20 PUSH2 0xCA36 DUP4 CODECOPY DUP2 MLOAD SWAP2 MSTORE SWAP1 MULMOD SWAP2 PUSH1 0x0 DUP1 MLOAD PUSH1 0x20 PUSH2 0xC9F6 DUP4 CODECOPY DUP2 MLOAD SWAP2 MSTORE SWAP1 MULMOD ADD ADD ADD MOD ADD PUSH1 0xC0 MSTORE JUMP JUMPDEST PUSH1 0x0 MLOAD PUSH31 0xD1727F8457EE03514F155B5806CBF748EC6857FC554010752AC93A9B7619AC ADD PUSH1 0x20 MLOAD PUSH31 0xEE1F3C66FBC05C43BA295A303C72FAB5BCA86805EC9419C588E50947761FA3 ADD SWAP1 PUSH1 0x80 MLOAD PUSH32 0xAFAFADCF5B4DD4A4A76B5A1D82415FD10A19FBCFC59078C61F9297EB675D972 ADD PUSH1 0xA0 MLOAD PUSH32 0xB2449F39746085E86CE45E8EED108EE65A234835A0A6A5EA8996D124DD04D0A ADD SWAP3 PUSH1 0xC0 MLOAD PUSH32 0x206B0CE2F1B2C5B7C9F37B0045227095F6C6F071EC3BDDA76A7DDF4823DD5DD6 ADD PUSH1 0x0 DUP1 MLOAD PUSH1 0x20 PUSH2 0xC936 DUP4 CODECOPY DUP2 MLOAD SWAP2 MSTORE DUP1 DUP1 DUP1 DUP1 DUP1 DUP10 DUP2 DUP1 DUP3 DUP2 SWAP14 MULMOD DUP1 MULMOD MULMOD SWAP6 DUP11 DUP3 DUP1 DUP1 PUSH1 0x0 DUP1 MLOAD PUSH1 0x20 PUSH2 0xC9D6 DUP4 CODECOPY DUP2 MLOAD SWAP2 MSTORE DUP6 MULMOD SWAP3 PUSH1 0x0 DUP1 MLOAD PUSH1 0x20 PUSH2 0xC8B6 DUP4 CODECOPY DUP2 MLOAD SWAP2 MSTORE SWAP1 MULMOD DUP2 PUSH1 0x0 DUP1 MLOAD PUSH1 0x20 PUSH2 0xCA56 DUP4 CODECOPY DUP2 MLOAD SWAP2 MSTORE DUP14 MULMOD DUP3 PUSH1 0x0 DUP1 MLOAD PUSH1 0x20 PUSH2 0xC976 DUP4 CODECOPY DUP2 MLOAD SWAP2 MSTORE DUP14 MULMOD DUP4 PUSH1 0x0 DUP1 MLOAD PUSH1 0x20 PUSH2 0xCA96 DUP4 CODECOPY DUP2 MLOAD SWAP2 MSTORE DUP14 MULMOD ADD ADD ADD MOD ADD PUSH1 0x0 MSTORE DUP11 DUP3 DUP1 DUP1 PUSH1 0x0 DUP1 MLOAD PUSH1 0x20 PUSH2 0xCAF6 DUP4 CODECOPY DUP2 MLOAD SWAP2 MSTORE DUP6 MULMOD SWAP3 PUSH1 0x0 DUP1 MLOAD PUSH1 0x20 PUSH2 0xC8D6 DUP4 CODECOPY DUP2 MLOAD SWAP2 MSTORE SWAP1 MULMOD DUP2 PUSH1 0x0 DUP1 MLOAD PUSH1 0x20 PUSH2 0xCA16 DUP4 CODECOPY DUP2 MLOAD SWAP2 MSTORE DUP14 MULMOD DUP3 PUSH1 0x0 DUP1 MLOAD PUSH1 0x20 PUSH2 0xCAB6 DUP4 CODECOPY DUP2 MLOAD SWAP2 MSTORE DUP14 MULMOD DUP4 PUSH1 0x0 DUP1 MLOAD PUSH1 0x20 PUSH2 0xC856 DUP4 CODECOPY DUP2 MLOAD SWAP2 MSTORE DUP14 MULMOD ADD ADD ADD MOD ADD PUSH1 0x20 MSTORE DUP11 DUP3 DUP1 DUP1 PUSH1 0x0 DUP1 MLOAD PUSH1 0x20 PUSH2 0xC836 DUP4 CODECOPY DUP2 MLOAD SWAP2 MSTORE DUP6 MULMOD SWAP3 PUSH1 0x0 DUP1 MLOAD PUSH1 0x20 PUSH2 0xC9B6 DUP4 CODECOPY DUP2 MLOAD SWAP2 MSTORE SWAP1 MULMOD DUP2 PUSH1 0x0 DUP1 MLOAD PUSH1 0x20 PUSH2 0xC956 DUP4 CODECOPY DUP2 MLOAD SWAP2 MSTORE DUP14 MULMOD DUP3 PUSH1 0x0 DUP1 MLOAD PUSH1 0x20 PUSH2 0xC916 DUP4 CODECOPY DUP2 MLOAD SWAP2 MSTORE DUP14 MULMOD DUP4 PUSH1 0x0 DUP1 MLOAD PUSH1 0x20 PUSH2 0xC7D6 DUP4 CODECOPY DUP2 MLOAD SWAP2 MSTORE DUP14 MULMOD ADD ADD ADD MOD ADD PUSH1 0x80 MSTORE DUP11 DUP3 DUP1 DUP1 PUSH1 0x0 DUP1 MLOAD PUSH1 0x20 PUSH2 0xC7F6 DUP4 CODECOPY DUP2 MLOAD SWAP2 MSTORE DUP6 MULMOD SWAP3 PUSH1 0x0 DUP1 MLOAD PUSH1 0x20 PUSH2 0xC8F6 DUP4 CODECOPY DUP2 MLOAD SWAP2 MSTORE SWAP1 MULMOD DUP2 PUSH1 0x0 DUP1 MLOAD PUSH1 0x20 PUSH2 0xC896 DUP4 CODECOPY DUP2 MLOAD SWAP2 MSTORE DUP14 MULMOD DUP3 PUSH1 0x0 DUP1 MLOAD PUSH1 0x20 PUSH2 0xCA76 DUP4 CODECOPY DUP2 MLOAD SWAP2 MSTORE DUP14 MULMOD DUP4 PUSH1 0x0 DUP1 MLOAD PUSH1 0x20 PUSH2 0xCAD6 DUP4 CODECOPY DUP2 MLOAD SWAP2 MSTORE DUP14 MULMOD ADD ADD ADD MOD ADD PUSH1 0xA0 MSTORE PUSH1 0x0 DUP1 MLOAD PUSH1 0x20 PUSH2 0xC876 DUP4 CODECOPY DUP2 MLOAD SWAP2 MSTORE SWAP1 MULMOD SWAP9 PUSH1 0x0 DUP1 MLOAD PUSH1 0x20 PUSH2 0xC816 DUP4 CODECOPY DUP2 MLOAD SWAP2 MSTORE SWAP1 MULMOD SWAP6 PUSH1 0x0 DUP1 MLOAD PUSH1 0x20 PUSH2 0xC996 DUP4 CODECOPY DUP2 MLOAD SWAP2 MSTORE SWAP1 MULMOD SWAP4 PUSH1 0x0 DUP1 MLOAD PUSH1 0x20 PUSH2 0xCA36 DUP4 CODECOPY DUP2 MLOAD SWAP2 MSTORE SWAP1 MULMOD SWAP2 PUSH1 0x0 DUP1 MLOAD PUSH1 0x20 PUSH2 0xC9F6 DUP4 CODECOPY DUP2 MLOAD SWAP2 MSTORE SWAP1 MULMOD ADD ADD ADD MOD ADD PUSH1 0xC0 MSTORE JUMP JUMPDEST PUSH1 0x0 MLOAD PUSH32 0xFEBA4FB87834C7CB696E67433628CD6CAFFC3A4EF20FEA852C7E1029459409C ADD PUSH1 0x20 MLOAD PUSH32 0x254DBFAC74C49B0B8926752E084E02513B06F1315E6D70E18173E972336E55D3 ADD SWAP1 PUSH1 0x80 MLOAD PUSH32 0xADDB1372CEE4E164655168C367559E19606C5BD17910AEB37719EDFA0CA8762 ADD PUSH1 0xA0 MLOAD PUSH32 0x26B25B7E257F3E97C799024FB019F65C6CA4D8D81B1AE16221A589D68831D759 ADD SWAP3 PUSH1 0xC0 MLOAD PUSH32 0x90995B79ACEC240413B8D4C658787E5A4657B9AB00BDB5B1960B1059E113BA3 ADD PUSH1 0x0 DUP1 MLOAD PUSH1 0x20 PUSH2 0xC936 DUP4 CODECOPY DUP2 MLOAD SWAP2 MSTORE DUP1 DUP1 DUP1 DUP1 DUP1 DUP10 DUP2 DUP1 DUP3 DUP2 SWAP14 MULMOD DUP1 MULMOD MULMOD SWAP6 DUP11 DUP3 DUP1 DUP1 PUSH1 0x0 DUP1 MLOAD PUSH1 0x20 PUSH2 0xC9D6 DUP4 CODECOPY DUP2 MLOAD SWAP2 MSTORE DUP6 MULMOD SWAP3 PUSH1 0x0 DUP1 MLOAD PUSH1 0x20 PUSH2 0xC8B6 DUP4 CODECOPY DUP2 MLOAD SWAP2 MSTORE SWAP1 MULMOD DUP2 PUSH1 0x0 DUP1 MLOAD PUSH1 0x20 PUSH2 0xCA56 DUP4 CODECOPY DUP2 MLOAD SWAP2 MSTORE DUP14 MULMOD DUP3 PUSH1 0x0 DUP1 MLOAD PUSH1 0x20 PUSH2 0xC976 DUP4 CODECOPY DUP2 MLOAD SWAP2 MSTORE DUP14 MULMOD DUP4 PUSH1 0x0 DUP1 MLOAD PUSH1 0x20 PUSH2 0xCA96 DUP4 CODECOPY DUP2 MLOAD SWAP2 MSTORE DUP14 MULMOD ADD ADD ADD MOD ADD PUSH1 0x0 MSTORE DUP11 DUP3 DUP1 DUP1 PUSH1 0x0 DUP1 MLOAD PUSH1 0x20 PUSH2 0xCAF6 DUP4 CODECOPY DUP2 MLOAD SWAP2 MSTORE DUP6 MULMOD SWAP3 PUSH1 0x0 DUP1 MLOAD PUSH1 0x20 PUSH2 0xC8D6 DUP4 CODECOPY DUP2 MLOAD SWAP2 MSTORE SWAP1 MULMOD DUP2 PUSH1 0x0 DUP1 MLOAD PUSH1 0x20 PUSH2 0xCA16 DUP4 CODECOPY DUP2 MLOAD SWAP2 MSTORE DUP14 MULMOD DUP3 PUSH1 0x0 DUP1 MLOAD PUSH1 0x20 PUSH2 0xCAB6 DUP4 CODECOPY DUP2 MLOAD SWAP2 MSTORE DUP14 MULMOD DUP4 PUSH1 0x0 DUP1 MLOAD PUSH1 0x20 PUSH2 0xC856 DUP4 CODECOPY DUP2 MLOAD SWAP2 MSTORE DUP14 MULMOD ADD ADD ADD MOD ADD PUSH1 0x20 MSTORE DUP11 DUP3 DUP1 DUP1 PUSH1 0x0 DUP1 MLOAD PUSH1 0x20 PUSH2 0xC836 DUP4 CODECOPY DUP2 MLOAD SWAP2 MSTORE DUP6 MULMOD SWAP3 PUSH1 0x0 DUP1 MLOAD PUSH1 0x20 PUSH2 0xC9B6 DUP4 CODECOPY DUP2 MLOAD SWAP2 MSTORE SWAP1 MULMOD DUP2 PUSH1 0x0 DUP1 MLOAD PUSH1 0x20 PUSH2 0xC956 DUP4 CODECOPY DUP2 MLOAD SWAP2 MSTORE DUP14 MULMOD DUP3 PUSH1 0x0 DUP1 MLOAD PUSH1 0x20 PUSH2 0xC916 DUP4 CODECOPY DUP2 MLOAD SWAP2 MSTORE DUP14 MULMOD DUP4 PUSH1 0x0 DUP1 MLOAD PUSH1 0x20 PUSH2 0xC7D6 DUP4 CODECOPY DUP2 MLOAD SWAP2 MSTORE DUP14 MULMOD ADD ADD ADD MOD ADD PUSH1 0x80 MSTORE DUP11 DUP3 DUP1 DUP1 PUSH1 0x0 DUP1 MLOAD PUSH1 0x20 PUSH2 0xC7F6 DUP4 CODECOPY DUP2 MLOAD SWAP2 MSTORE DUP6 MULMOD SWAP3 PUSH1 0x0 DUP1 MLOAD PUSH1 0x20 PUSH2 0xC8F6 DUP4 CODECOPY DUP2 MLOAD SWAP2 MSTORE SWAP1 MULMOD DUP2 PUSH1 0x0 DUP1 MLOAD PUSH1 0x20 PUSH2 0xC896 DUP4 CODECOPY DUP2 MLOAD SWAP2 MSTORE DUP14 MULMOD DUP3 PUSH1 0x0 DUP1 MLOAD PUSH1 0x20 PUSH2 0xCA76 DUP4 CODECOPY DUP2 MLOAD SWAP2 MSTORE DUP14 MULMOD DUP4 PUSH1 0x0 DUP1 MLOAD PUSH1 0x20 PUSH2 0xCAD6 DUP4 CODECOPY DUP2 MLOAD SWAP2 MSTORE DUP14 MULMOD ADD ADD ADD MOD ADD PUSH1 0xA0 MSTORE PUSH1 0x0 DUP1 MLOAD PUSH1 0x20 PUSH2 0xC876 DUP4 CODECOPY DUP2 MLOAD SWAP2 MSTORE SWAP1 MULMOD SWAP9 PUSH1 0x0 DUP1 MLOAD PUSH1 0x20 PUSH2 0xC816 DUP4 CODECOPY DUP2 MLOAD SWAP2 MSTORE SWAP1 MULMOD SWAP6 PUSH1 0x0 DUP1 MLOAD PUSH1 0x20 PUSH2 0xC996 DUP4 CODECOPY DUP2 MLOAD SWAP2 MSTORE SWAP1 MULMOD SWAP4 PUSH1 0x0 DUP1 MLOAD PUSH1 0x20 PUSH2 0xCA36 DUP4 CODECOPY DUP2 MLOAD SWAP2 MSTORE SWAP1 MULMOD SWAP2 PUSH1 0x0 DUP1 MLOAD PUSH1 0x20 PUSH2 0xC9F6 DUP4 CODECOPY DUP2 MLOAD SWAP2 MSTORE SWAP1 MULMOD ADD ADD ADD MOD ADD PUSH1 0xC0 MSTORE JUMP JUMPDEST PUSH1 0x0 MLOAD PUSH32 0x8DBDC2E21EF11F2C57299687843CEA3EB0D8E40E99131F42974178D44F73B7B ADD PUSH1 0x20 MLOAD PUSH32 0x9E8ABA671481197679FAF752A0F78E342FE9C491596AB6758F170939785179F ADD SWAP1 PUSH1 0x80 MLOAD PUSH32 0x1DEB05180E833E45659052A7EBAF816C7EFD12A7F9EEC94B7BC7C683F1363D5C ADD PUSH1 0xA0 MLOAD PUSH32 0x19A70EC6BDFC9098A926EFBCC04AA9EE248997E8B2C24AF335FD6523E5250879 ADD SWAP3 PUSH1 0xC0 MLOAD PUSH32 0x21D773660ADAFB8A879986F9AAB4890566353A3777D8A3F1EB93ABE10BBF1F64 ADD PUSH1 0x0 DUP1 MLOAD PUSH1 0x20 PUSH2 0xC936 DUP4 CODECOPY DUP2 MLOAD SWAP2 MSTORE DUP1 DUP1 DUP1 DUP1 DUP1 DUP10 DUP2 DUP1 DUP3 DUP2 SWAP14 MULMOD DUP1 MULMOD MULMOD SWAP6 DUP11 DUP3 DUP1 DUP1 PUSH1 0x0 DUP1 MLOAD PUSH1 0x20 PUSH2 0xC9D6 DUP4 CODECOPY DUP2 MLOAD SWAP2 MSTORE DUP6 MULMOD SWAP3 PUSH1 0x0 DUP1 MLOAD PUSH1 0x20 PUSH2 0xC8B6 DUP4 CODECOPY DUP2 MLOAD SWAP2 MSTORE SWAP1 MULMOD DUP2 PUSH1 0x0 DUP1 MLOAD PUSH1 0x20 PUSH2 0xCA56 DUP4 CODECOPY DUP2 MLOAD SWAP2 MSTORE DUP14 MULMOD DUP3 PUSH1 0x0 DUP1 MLOAD PUSH1 0x20 PUSH2 0xC976 DUP4 CODECOPY DUP2 MLOAD SWAP2 MSTORE DUP14 MULMOD DUP4 PUSH1 0x0 DUP1 MLOAD PUSH1 0x20 PUSH2 0xCA96 DUP4 CODECOPY DUP2 MLOAD SWAP2 MSTORE DUP14 MULMOD ADD ADD ADD MOD ADD PUSH1 0x0 MSTORE DUP11 DUP3 DUP1 DUP1 PUSH1 0x0 DUP1 MLOAD PUSH1 0x20 PUSH2 0xCAF6 DUP4 CODECOPY DUP2 MLOAD SWAP2 MSTORE DUP6 MULMOD SWAP3 PUSH1 0x0 DUP1 MLOAD PUSH1 0x20 PUSH2 0xC8D6 DUP4 CODECOPY DUP2 MLOAD SWAP2 MSTORE SWAP1 MULMOD DUP2 PUSH1 0x0 DUP1 MLOAD PUSH1 0x20 PUSH2 0xCA16 DUP4 CODECOPY DUP2 MLOAD SWAP2 MSTORE DUP14 MULMOD DUP3 PUSH1 0x0 DUP1 MLOAD PUSH1 0x20 PUSH2 0xCAB6 DUP4 CODECOPY DUP2 MLOAD SWAP2 MSTORE DUP14 MULMOD DUP4 PUSH1 0x0 DUP1 MLOAD PUSH1 0x20 PUSH2 0xC856 DUP4 CODECOPY DUP2 MLOAD SWAP2 MSTORE DUP14 MULMOD ADD ADD ADD MOD ADD PUSH1 0x20 MSTORE DUP11 DUP3 DUP1 DUP1 PUSH1 0x0 DUP1 MLOAD PUSH1 0x20 PUSH2 0xC836 DUP4 CODECOPY DUP2 MLOAD SWAP2 MSTORE DUP6 MULMOD SWAP3 PUSH1 0x0 DUP1 MLOAD PUSH1 0x20 PUSH2 0xC9B6 DUP4 CODECOPY DUP2 MLOAD SWAP2 MSTORE SWAP1 MULMOD DUP2 PUSH1 0x0 DUP1 MLOAD PUSH1 0x20 PUSH2 0xC956 DUP4 CODECOPY DUP2 MLOAD SWAP2 MSTORE DUP14 MULMOD DUP3 PUSH1 0x0 DUP1 MLOAD PUSH1 0x20 PUSH2 0xC916 DUP4 CODECOPY DUP2 MLOAD SWAP2 MSTORE DUP14 MULMOD DUP4 PUSH1 0x0 DUP1 MLOAD PUSH1 0x20 PUSH2 0xC7D6 DUP4 CODECOPY DUP2 MLOAD SWAP2 MSTORE DUP14 MULMOD ADD ADD ADD MOD ADD PUSH1 0x80 MSTORE DUP11 DUP3 DUP1 DUP1 PUSH1 0x0 DUP1 MLOAD PUSH1 0x20 PUSH2 0xC7F6 DUP4 CODECOPY DUP2 MLOAD SWAP2 MSTORE DUP6 MULMOD SWAP3 PUSH1 0x0 DUP1 MLOAD PUSH1 0x20 PUSH2 0xC8F6 DUP4 CODECOPY DUP2 MLOAD SWAP2 MSTORE SWAP1 MULMOD DUP2 PUSH1 0x0 DUP1 MLOAD PUSH1 0x20 PUSH2 0xC896 DUP4 CODECOPY DUP2 MLOAD SWAP2 MSTORE DUP14 MULMOD DUP3 PUSH1 0x0 DUP1 MLOAD PUSH1 0x20 PUSH2 0xCA76 DUP4 CODECOPY DUP2 MLOAD SWAP2 MSTORE DUP14 MULMOD DUP4 PUSH1 0x0 DUP1 MLOAD PUSH1 0x20 PUSH2 0xCAD6 DUP4 CODECOPY DUP2 MLOAD SWAP2 MSTORE DUP14 MULMOD ADD ADD ADD MOD ADD PUSH1 0xA0 MSTORE PUSH1 0x0 DUP1 MLOAD PUSH1 0x20 PUSH2 0xC876 DUP4 CODECOPY DUP2 MLOAD SWAP2 MSTORE SWAP1 MULMOD SWAP9 PUSH1 0x0 DUP1 MLOAD PUSH1 0x20 PUSH2 0xC816 DUP4 CODECOPY DUP2 MLOAD SWAP2 MSTORE SWAP1 MULMOD SWAP6 PUSH1 0x0 DUP1 MLOAD PUSH1 0x20 PUSH2 0xC996 DUP4 CODECOPY DUP2 MLOAD SWAP2 MSTORE SWAP1 MULMOD SWAP4 PUSH1 0x0 DUP1 MLOAD PUSH1 0x20 PUSH2 0xCA36 DUP4 CODECOPY DUP2 MLOAD SWAP2 MSTORE SWAP1 MULMOD SWAP2 PUSH1 0x0 DUP1 MLOAD PUSH1 0x20 PUSH2 0xC9F6 DUP4 CODECOPY DUP2 MLOAD SWAP2 MSTORE SWAP1 MULMOD ADD ADD ADD MOD ADD PUSH1 0xC0 MSTORE JUMP JUMPDEST PUSH1 0x0 MLOAD PUSH32 0x9F1890F72E9DC713E20BA637B89D5D397A6B01FCD667347F6F46617841C3901 ADD PUSH1 0x20 MLOAD PUSH32 0x5AF459361EB454D2A300C61E446998D48FA1F897BF219D608C2145C33B111C3 ADD SWAP1 PUSH1 0x80 MLOAD PUSH32 0xFA1A1D6829F0345664A66DC75A657335F336F15F340756CFA12FC850CC8B513 ADD PUSH1 0xA0 MLOAD PUSH32 0x2E47A35BCC0C3A0BDA0B1C0307AD543F4280FCF87F636F853655CF97A628BB0 ADD SWAP3 PUSH1 0xC0 MLOAD PUSH32 0x14F773E9834C6BDEB8F90E78BF4C24B7203411460112491036621895204D0F12 ADD PUSH1 0x0 DUP1 MLOAD PUSH1 0x20 PUSH2 0xC936 DUP4 CODECOPY DUP2 MLOAD SWAP2 MSTORE DUP1 DUP1 DUP1 DUP1 DUP1 DUP10 DUP2 DUP1 DUP3 DUP2 SWAP14 MULMOD DUP1 MULMOD MULMOD SWAP6 DUP11 DUP3 DUP1 DUP1 PUSH1 0x0 DUP1 MLOAD PUSH1 0x20 PUSH2 0xC9D6 DUP4 CODECOPY DUP2 MLOAD SWAP2 MSTORE DUP6 MULMOD SWAP3 PUSH1 0x0 DUP1 MLOAD PUSH1 0x20 PUSH2 0xC8B6 DUP4 CODECOPY DUP2 MLOAD SWAP2 MSTORE SWAP1 MULMOD DUP2 PUSH1 0x0 DUP1 MLOAD PUSH1 0x20 PUSH2 0xCA56 DUP4 CODECOPY DUP2 MLOAD SWAP2 MSTORE DUP14 MULMOD DUP3 PUSH1 0x0 DUP1 MLOAD PUSH1 0x20 PUSH2 0xC976 DUP4 CODECOPY DUP2 MLOAD SWAP2 MSTORE DUP14 MULMOD DUP4 PUSH1 0x0 DUP1 MLOAD PUSH1 0x20 PUSH2 0xCA96 DUP4 CODECOPY DUP2 MLOAD SWAP2 MSTORE DUP14 MULMOD ADD ADD ADD MOD ADD PUSH1 0x0 MSTORE DUP11 DUP3 DUP1 DUP1 PUSH1 0x0 DUP1 MLOAD PUSH1 0x20 PUSH2 0xCAF6 DUP4 CODECOPY DUP2 MLOAD SWAP2 MSTORE DUP6 MULMOD SWAP3 PUSH1 0x0 DUP1 MLOAD PUSH1 0x20 PUSH2 0xC8D6 DUP4 CODECOPY DUP2 MLOAD SWAP2 MSTORE SWAP1 MULMOD DUP2 PUSH1 0x0 DUP1 MLOAD PUSH1 0x20 PUSH2 0xCA16 DUP4 CODECOPY DUP2 MLOAD SWAP2 MSTORE DUP14 MULMOD DUP3 PUSH1 0x0 DUP1 MLOAD PUSH1 0x20 PUSH2 0xCAB6 DUP4 CODECOPY DUP2 MLOAD SWAP2 MSTORE DUP14 MULMOD DUP4 PUSH1 0x0 DUP1 MLOAD PUSH1 0x20 PUSH2 0xC856 DUP4 CODECOPY DUP2 MLOAD SWAP2 MSTORE DUP14 MULMOD ADD ADD ADD MOD ADD PUSH1 0x20 MSTORE DUP11 DUP3 DUP1 DUP1 PUSH1 0x0 DUP1 MLOAD PUSH1 0x20 PUSH2 0xC836 DUP4 CODECOPY DUP2 MLOAD SWAP2 MSTORE DUP6 MULMOD SWAP3 PUSH1 0x0 DUP1 MLOAD PUSH1 0x20 PUSH2 0xC9B6 DUP4 CODECOPY DUP2 MLOAD SWAP2 MSTORE SWAP1 MULMOD DUP2 PUSH1 0x0 DUP1 MLOAD PUSH1 0x20 PUSH2 0xC956 DUP4 CODECOPY DUP2 MLOAD SWAP2 MSTORE DUP14 MULMOD DUP3 PUSH1 0x0 DUP1 MLOAD PUSH1 0x20 PUSH2 0xC916 DUP4 CODECOPY DUP2 MLOAD SWAP2 MSTORE DUP14 MULMOD DUP4 PUSH1 0x0 DUP1 MLOAD PUSH1 0x20 PUSH2 0xC7D6 DUP4 CODECOPY DUP2 MLOAD SWAP2 MSTORE DUP14 MULMOD ADD ADD ADD MOD ADD PUSH1 0x80 MSTORE DUP11 DUP3 DUP1 DUP1 PUSH1 0x0 DUP1 MLOAD PUSH1 0x20 PUSH2 0xC7F6 DUP4 CODECOPY DUP2 MLOAD SWAP2 MSTORE DUP6 MULMOD SWAP3 PUSH1 0x0 DUP1 MLOAD PUSH1 0x20 PUSH2 0xC8F6 DUP4 CODECOPY DUP2 MLOAD SWAP2 MSTORE SWAP1 MULMOD DUP2 PUSH1 0x0 DUP1 MLOAD PUSH1 0x20 PUSH2 0xC896 DUP4 CODECOPY DUP2 MLOAD SWAP2 MSTORE DUP14 MULMOD DUP3 PUSH1 0x0 DUP1 MLOAD PUSH1 0x20 PUSH2 0xCA76 DUP4 CODECOPY DUP2 MLOAD SWAP2 MSTORE DUP14 MULMOD DUP4 PUSH1 0x0 DUP1 MLOAD PUSH1 0x20 PUSH2 0xCAD6 DUP4 CODECOPY DUP2 MLOAD SWAP2 MSTORE DUP14 MULMOD ADD ADD ADD MOD ADD PUSH1 0xA0 MSTORE PUSH1 0x0 DUP1 MLOAD PUSH1 0x20 PUSH2 0xC876 DUP4 CODECOPY DUP2 MLOAD SWAP2 MSTORE SWAP1 MULMOD SWAP9 PUSH1 0x0 DUP1 MLOAD PUSH1 0x20 PUSH2 0xC816 DUP4 CODECOPY DUP2 MLOAD SWAP2 MSTORE SWAP1 MULMOD SWAP6 PUSH1 0x0 DUP1 MLOAD PUSH1 0x20 PUSH2 0xC996 DUP4 CODECOPY DUP2 MLOAD SWAP2 MSTORE SWAP1 MULMOD SWAP4 PUSH1 0x0 DUP1 MLOAD PUSH1 0x20 PUSH2 0xCA36 DUP4 CODECOPY DUP2 MLOAD SWAP2 MSTORE SWAP1 MULMOD SWAP2 PUSH1 0x0 DUP1 MLOAD PUSH1 0x20 PUSH2 0xC9F6 DUP4 CODECOPY DUP2 MLOAD SWAP2 MSTORE SWAP1 MULMOD ADD ADD ADD MOD ADD PUSH1 0xC0 MSTORE JUMP JUMPDEST PUSH1 0x0 MLOAD PUSH32 0x102D98CF502ED843255CF19D29BC7D8E642ABE7CFD639992FFB091962FC8F7CC ADD PUSH1 0x20 MLOAD PUSH32 0x43DD5F4AA5A76DD4C47F6C65DA7CA2320D4C73AD3294738CBA686A7E91373C2 ADD SWAP1 PUSH1 0x80 MLOAD PUSH32 0x21833819C3337194A6C0D29A48D4F2676F0E7C79743A306F4CFDB2B26BD11EFA ADD PUSH1 0xA0 MLOAD PUSH32 0xF281925CF5EE649B474A6819D116CA3EB4ECA246C311ECADC53262A3CFF2B53 ADD SWAP3 PUSH1 0xC0 MLOAD PUSH32 0xD3E2477A7B10BEB44709C7746D6824EDF625DD60504D5DC93CE662F15C238D6 ADD PUSH1 0x0 DUP1 MLOAD PUSH1 0x20 PUSH2 0xC936 DUP4 CODECOPY DUP2 MLOAD SWAP2 MSTORE DUP1 DUP1 DUP1 DUP1 DUP1 DUP10 DUP2 DUP1 DUP3 DUP2 SWAP14 MULMOD DUP1 MULMOD MULMOD SWAP6 DUP11 DUP3 DUP1 DUP1 PUSH1 0x0 DUP1 MLOAD PUSH1 0x20 PUSH2 0xC9D6 DUP4 CODECOPY DUP2 MLOAD SWAP2 MSTORE DUP6 MULMOD SWAP3 PUSH1 0x0 DUP1 MLOAD PUSH1 0x20 PUSH2 0xC8B6 DUP4 CODECOPY DUP2 MLOAD SWAP2 MSTORE SWAP1 MULMOD DUP2 PUSH1 0x0 DUP1 MLOAD PUSH1 0x20 PUSH2 0xCA56 DUP4 CODECOPY DUP2 MLOAD SWAP2 MSTORE DUP14 MULMOD DUP3 PUSH1 0x0 DUP1 MLOAD PUSH1 0x20 PUSH2 0xC976 DUP4 CODECOPY DUP2 MLOAD SWAP2 MSTORE DUP14 MULMOD DUP4 PUSH1 0x0 DUP1 MLOAD PUSH1 0x20 PUSH2 0xCA96 DUP4 CODECOPY DUP2 MLOAD SWAP2 MSTORE DUP14 MULMOD ADD ADD ADD MOD ADD PUSH1 0x0 MSTORE DUP11 DUP3 DUP1 DUP1 PUSH1 0x0 DUP1 MLOAD PUSH1 0x20 PUSH2 0xCAF6 DUP4 CODECOPY DUP2 MLOAD SWAP2 MSTORE DUP6 MULMOD SWAP3 PUSH1 0x0 DUP1 MLOAD PUSH1 0x20 PUSH2 0xC8D6 DUP4 CODECOPY DUP2 MLOAD SWAP2 MSTORE SWAP1 MULMOD DUP2 PUSH1 0x0 DUP1 MLOAD PUSH1 0x20 PUSH2 0xCA16 DUP4 CODECOPY DUP2 MLOAD SWAP2 MSTORE DUP14 MULMOD DUP3 PUSH1 0x0 DUP1 MLOAD PUSH1 0x20 PUSH2 0xCAB6 DUP4 CODECOPY DUP2 MLOAD SWAP2 MSTORE DUP14 MULMOD DUP4 PUSH1 0x0 DUP1 MLOAD PUSH1 0x20 PUSH2 0xC856 DUP4 CODECOPY DUP2 MLOAD SWAP2 MSTORE DUP14 MULMOD ADD ADD ADD MOD ADD PUSH1 0x20 MSTORE DUP11 DUP3 DUP1 DUP1 PUSH1 0x0 DUP1 MLOAD PUSH1 0x20 PUSH2 0xC836 DUP4 CODECOPY DUP2 MLOAD SWAP2 MSTORE DUP6 MULMOD SWAP3 PUSH1 0x0 DUP1 MLOAD PUSH1 0x20 PUSH2 0xC9B6 DUP4 CODECOPY DUP2 MLOAD SWAP2 MSTORE SWAP1 MULMOD DUP2 PUSH1 0x0 DUP1 MLOAD PUSH1 0x20 PUSH2 0xC956 DUP4 CODECOPY DUP2 MLOAD SWAP2 MSTORE DUP14 MULMOD DUP3 PUSH1 0x0 DUP1 MLOAD PUSH1 0x20 PUSH2 0xC916 DUP4 CODECOPY DUP2 MLOAD SWAP2 MSTORE DUP14 MULMOD DUP4 PUSH1 0x0 DUP1 MLOAD PUSH1 0x20 PUSH2 0xC7D6 DUP4 CODECOPY DUP2 MLOAD SWAP2 MSTORE DUP14 MULMOD ADD ADD ADD MOD ADD PUSH1 0x80 MSTORE DUP11 DUP3 DUP1 DUP1 PUSH1 0x0 DUP1 MLOAD PUSH1 0x20 PUSH2 0xC7F6 DUP4 CODECOPY DUP2 MLOAD SWAP2 MSTORE DUP6 MULMOD SWAP3 PUSH1 0x0 DUP1 MLOAD PUSH1 0x20 PUSH2 0xC8F6 DUP4 CODECOPY DUP2 MLOAD SWAP2 MSTORE SWAP1 MULMOD DUP2 PUSH1 0x0 DUP1 MLOAD PUSH1 0x20 PUSH2 0xC896 DUP4 CODECOPY DUP2 MLOAD SWAP2 MSTORE DUP14 MULMOD DUP3 PUSH1 0x0 DUP1 MLOAD PUSH1 0x20 PUSH2 0xCA76 DUP4 CODECOPY DUP2 MLOAD SWAP2 MSTORE DUP14 MULMOD DUP4 PUSH1 0x0 DUP1 MLOAD PUSH1 0x20 PUSH2 0xCAD6 DUP4 CODECOPY DUP2 MLOAD SWAP2 MSTORE DUP14 MULMOD ADD ADD ADD MOD ADD PUSH1 0xA0 MSTORE PUSH1 0x0 DUP1 MLOAD PUSH1 0x20 PUSH2 0xC876 DUP4 CODECOPY DUP2 MLOAD SWAP2 MSTORE SWAP1 MULMOD SWAP9 PUSH1 0x0 DUP1 MLOAD PUSH1 0x20 PUSH2 0xC816 DUP4 CODECOPY DUP2 MLOAD SWAP2 MSTORE SWAP1 MULMOD SWAP6 PUSH1 0x0 DUP1 MLOAD PUSH1 0x20 PUSH2 0xC996 DUP4 CODECOPY DUP2 MLOAD SWAP2 MSTORE SWAP1 MULMOD SWAP4 PUSH1 0x0 DUP1 MLOAD PUSH1 0x20 PUSH2 0xCA36 DUP4 CODECOPY DUP2 MLOAD SWAP2 MSTORE SWAP1 MULMOD SWAP2 PUSH1 0x0 DUP1 MLOAD PUSH1 0x20 PUSH2 0xC9F6 DUP4 CODECOPY DUP2 MLOAD SWAP2 MSTORE SWAP1 MULMOD ADD ADD ADD MOD ADD PUSH1 0xC0 MSTORE JUMP JUMPDEST PUSH1 0x0 MLOAD PUSH32 0x2CD7F641BEDBF66956FF8A01BE9CDE35D80F80AB51E73B49ACBFC3EFF5AEFC44 ADD PUSH1 0x20 MLOAD PUSH32 0x29E95B492BF2F95F4D09380F98B74E389149D24045811D7A86DD861310463CF8 ADD SWAP1 PUSH1 0x80 MLOAD PUSH32 0x22DA66BC62E8F011266EFCA86A6C810F9AE4C51AF6FFEB57F8B3C50DF83CC13E ADD PUSH1 0xA0 MLOAD PUSH32 0xFE6D30DE7A82D163023491794F4ACA3220DB79E8129DF3643072D841925554A ADD SWAP3 PUSH1 0xC0 MLOAD PUSH31 0x50E842A1299909123C46EFF185C23AD312D03FEF1ADFECC7E07ECB298FD67F ADD PUSH1 0x0 DUP1 MLOAD PUSH1 0x20 PUSH2 0xC936 DUP4 CODECOPY DUP2 MLOAD SWAP2 MSTORE DUP1 DUP1 DUP1 DUP1 DUP1 DUP10 DUP2 DUP1 DUP3 DUP2 SWAP14 MULMOD DUP1 MULMOD MULMOD SWAP6 DUP11 DUP3 DUP1 DUP1 PUSH1 0x0 DUP1 MLOAD PUSH1 0x20 PUSH2 0xC9D6 DUP4 CODECOPY DUP2 MLOAD SWAP2 MSTORE DUP6 MULMOD SWAP3 PUSH1 0x0 DUP1 MLOAD PUSH1 0x20 PUSH2 0xC8B6 DUP4 CODECOPY DUP2 MLOAD SWAP2 MSTORE SWAP1 MULMOD DUP2 PUSH1 0x0 DUP1 MLOAD PUSH1 0x20 PUSH2 0xCA56 DUP4 CODECOPY DUP2 MLOAD SWAP2 MSTORE DUP14 MULMOD DUP3 PUSH1 0x0 DUP1 MLOAD PUSH1 0x20 PUSH2 0xC976 DUP4 CODECOPY DUP2 MLOAD SWAP2 MSTORE DUP14 MULMOD DUP4 PUSH1 0x0 DUP1 MLOAD PUSH1 0x20 PUSH2 0xCA96 DUP4 CODECOPY DUP2 MLOAD SWAP2 MSTORE DUP14 MULMOD ADD ADD ADD MOD ADD PUSH1 0x0 MSTORE DUP11 DUP3 DUP1 DUP1 PUSH1 0x0 DUP1 MLOAD PUSH1 0x20 PUSH2 0xCAF6 DUP4 CODECOPY DUP2 MLOAD SWAP2 MSTORE DUP6 MULMOD SWAP3 PUSH1 0x0 DUP1 MLOAD PUSH1 0x20 PUSH2 0xC8D6 DUP4 CODECOPY DUP2 MLOAD SWAP2 MSTORE SWAP1 MULMOD DUP2 PUSH1 0x0 DUP1 MLOAD PUSH1 0x20 PUSH2 0xCA16 DUP4 CODECOPY DUP2 MLOAD SWAP2 MSTORE DUP14 MULMOD DUP3 PUSH1 0x0 DUP1 MLOAD PUSH1 0x20 PUSH2 0xCAB6 DUP4 CODECOPY DUP2 MLOAD SWAP2 MSTORE DUP14 MULMOD DUP4 PUSH1 0x0 DUP1 MLOAD PUSH1 0x20 PUSH2 0xC856 DUP4 CODECOPY DUP2 MLOAD SWAP2 MSTORE DUP14 MULMOD ADD ADD ADD MOD ADD PUSH1 0x20 MSTORE DUP11 DUP3 DUP1 DUP1 PUSH1 0x0 DUP1 MLOAD PUSH1 0x20 PUSH2 0xC836 DUP4 CODECOPY DUP2 MLOAD SWAP2 MSTORE DUP6 MULMOD SWAP3 PUSH1 0x0 DUP1 MLOAD PUSH1 0x20 PUSH2 0xC9B6 DUP4 CODECOPY DUP2 MLOAD SWAP2 MSTORE SWAP1 MULMOD DUP2 PUSH1 0x0 DUP1 MLOAD PUSH1 0x20 PUSH2 0xC956 DUP4 CODECOPY DUP2 MLOAD SWAP2 MSTORE DUP14 MULMOD DUP3 PUSH1 0x0 DUP1 MLOAD PUSH1 0x20 PUSH2 0xC916 DUP4 CODECOPY DUP2 MLOAD SWAP2 MSTORE DUP14 MULMOD DUP4 PUSH1 0x0 DUP1 MLOAD PUSH1 0x20 PUSH2 0xC7D6 DUP4 CODECOPY DUP2 MLOAD SWAP2 MSTORE DUP14 MULMOD ADD ADD ADD MOD ADD PUSH1 0x80 MSTORE DUP11 DUP3 DUP1 DUP1 PUSH1 0x0 DUP1 MLOAD PUSH1 0x20 PUSH2 0xC7F6 DUP4 CODECOPY DUP2 MLOAD SWAP2 MSTORE DUP6 MULMOD SWAP3 PUSH1 0x0 DUP1 MLOAD PUSH1 0x20 PUSH2 0xC8F6 DUP4 CODECOPY DUP2 MLOAD SWAP2 MSTORE SWAP1 MULMOD DUP2 PUSH1 0x0 DUP1 MLOAD PUSH1 0x20 PUSH2 0xC896 DUP4 CODECOPY DUP2 MLOAD SWAP2 MSTORE DUP14 MULMOD DUP3 PUSH1 0x0 DUP1 MLOAD PUSH1 0x20 PUSH2 0xCA76 DUP4 CODECOPY DUP2 MLOAD SWAP2 MSTORE DUP14 MULMOD DUP4 PUSH1 0x0 DUP1 MLOAD PUSH1 0x20 PUSH2 0xCAD6 DUP4 CODECOPY DUP2 MLOAD SWAP2 MSTORE DUP14 MULMOD ADD ADD ADD MOD ADD PUSH1 0xA0 MSTORE PUSH1 0x0 DUP1 MLOAD PUSH1 0x20 PUSH2 0xC876 DUP4 CODECOPY DUP2 MLOAD SWAP2 MSTORE SWAP1 MULMOD SWAP9 PUSH1 0x0 DUP1 MLOAD PUSH1 0x20 PUSH2 0xC816 DUP4 CODECOPY DUP2 MLOAD SWAP2 MSTORE SWAP1 MULMOD SWAP6 PUSH1 0x0 DUP1 MLOAD PUSH1 0x20 PUSH2 0xC996 DUP4 CODECOPY DUP2 MLOAD SWAP2 MSTORE SWAP1 MULMOD SWAP4 PUSH1 0x0 DUP1 MLOAD PUSH1 0x20 PUSH2 0xCA36 DUP4 CODECOPY DUP2 MLOAD SWAP2 MSTORE SWAP1 MULMOD SWAP2 PUSH1 0x0 DUP1 MLOAD PUSH1 0x20 PUSH2 0xC9F6 DUP4 CODECOPY DUP2 MLOAD SWAP2 MSTORE SWAP1 MULMOD ADD ADD ADD MOD ADD PUSH1 0xC0 MSTORE JUMP JUMPDEST PUSH1 0x0 MLOAD PUSH32 0x2130A3A7B3221222BE34CC53A42D7733666F9DDF714ED7C5885CBBDB63108C21 ADD PUSH1 0x20 MLOAD PUSH32 0x2DF9EE294EDF99E3D8D5883FE0566C24AA66731F34A93280E1D328E67B33C9FA ADD SWAP1 PUSH1 0x80 MLOAD PUSH32 0x1BF7D6E489AD8C0CF26EB68CC21FF54158132396DC250AEBA4B6FC5FC3372762 ADD PUSH1 0xA0 MLOAD PUSH32 0xC602FA155BE958761EAF739617AB136CF7B807728BF7FE35D4778D311780E54 ADD SWAP3 PUSH1 0xC0 MLOAD PUSH32 0x2E50E2C5B36AA20532407D86B8D22D7D5154080A24972FAEB63FAF0121ED7F21 ADD PUSH1 0x0 DUP1 MLOAD PUSH1 0x20 PUSH2 0xC936 DUP4 CODECOPY DUP2 MLOAD SWAP2 MSTORE DUP1 DUP1 DUP1 DUP1 DUP1 DUP10 DUP2 DUP1 DUP3 DUP2 SWAP14 MULMOD DUP1 MULMOD MULMOD SWAP6 DUP11 DUP3 DUP1 DUP1 PUSH1 0x0 DUP1 MLOAD PUSH1 0x20 PUSH2 0xC9D6 DUP4 CODECOPY DUP2 MLOAD SWAP2 MSTORE DUP6 MULMOD SWAP3 PUSH1 0x0 DUP1 MLOAD PUSH1 0x20 PUSH2 0xC8B6 DUP4 CODECOPY DUP2 MLOAD SWAP2 MSTORE SWAP1 MULMOD DUP2 PUSH1 0x0 DUP1 MLOAD PUSH1 0x20 PUSH2 0xCA56 DUP4 CODECOPY DUP2 MLOAD SWAP2 MSTORE DUP14 MULMOD DUP3 PUSH1 0x0 DUP1 MLOAD PUSH1 0x20 PUSH2 0xC976 DUP4 CODECOPY DUP2 MLOAD SWAP2 MSTORE DUP14 MULMOD DUP4 PUSH1 0x0 DUP1 MLOAD PUSH1 0x20 PUSH2 0xCA96 DUP4 CODECOPY DUP2 MLOAD SWAP2 MSTORE DUP14 MULMOD ADD ADD ADD MOD ADD PUSH1 0x0 MSTORE DUP11 DUP3 DUP1 DUP1 PUSH1 0x0 DUP1 MLOAD PUSH1 0x20 PUSH2 0xCAF6 DUP4 CODECOPY DUP2 MLOAD SWAP2 MSTORE DUP6 MULMOD SWAP3 PUSH1 0x0 DUP1 MLOAD PUSH1 0x20 PUSH2 0xC8D6 DUP4 CODECOPY DUP2 MLOAD SWAP2 MSTORE SWAP1 MULMOD DUP2 PUSH1 0x0 DUP1 MLOAD PUSH1 0x20 PUSH2 0xCA16 DUP4 CODECOPY DUP2 MLOAD SWAP2 MSTORE DUP14 MULMOD DUP3 PUSH1 0x0 DUP1 MLOAD PUSH1 0x20 PUSH2 0xCAB6 DUP4 CODECOPY DUP2 MLOAD SWAP2 MSTORE DUP14 MULMOD DUP4 PUSH1 0x0 DUP1 MLOAD PUSH1 0x20 PUSH2 0xC856 DUP4 CODECOPY DUP2 MLOAD SWAP2 MSTORE DUP14 MULMOD ADD ADD ADD MOD ADD PUSH1 0x20 MSTORE DUP11 DUP3 DUP1 DUP1 PUSH1 0x0 DUP1 MLOAD PUSH1 0x20 PUSH2 0xC836 DUP4 CODECOPY DUP2 MLOAD SWAP2 MSTORE DUP6 MULMOD SWAP3 PUSH1 0x0 DUP1 MLOAD PUSH1 0x20 PUSH2 0xC9B6 DUP4 CODECOPY DUP2 MLOAD SWAP2 MSTORE SWAP1 MULMOD DUP2 PUSH1 0x0 DUP1 MLOAD PUSH1 0x20 PUSH2 0xC956 DUP4 CODECOPY DUP2 MLOAD SWAP2 MSTORE DUP14 MULMOD DUP3 PUSH1 0x0 DUP1 MLOAD PUSH1 0x20 PUSH2 0xC916 DUP4 CODECOPY DUP2 MLOAD SWAP2 MSTORE DUP14 MULMOD DUP4 PUSH1 0x0 DUP1 MLOAD PUSH1 0x20 PUSH2 0xC7D6 DUP4 CODECOPY DUP2 MLOAD SWAP2 MSTORE DUP14 MULMOD ADD ADD ADD MOD ADD PUSH1 0x80 MSTORE DUP11 DUP3 DUP1 DUP1 PUSH1 0x0 DUP1 MLOAD PUSH1 0x20 PUSH2 0xC7F6 DUP4 CODECOPY DUP2 MLOAD SWAP2 MSTORE DUP6 MULMOD SWAP3 PUSH1 0x0 DUP1 MLOAD PUSH1 0x20 PUSH2 0xC8F6 DUP4 CODECOPY DUP2 MLOAD SWAP2 MSTORE SWAP1 MULMOD DUP2 PUSH1 0x0 DUP1 MLOAD PUSH1 0x20 PUSH2 0xC896 DUP4 CODECOPY DUP2 MLOAD SWAP2 MSTORE DUP14 MULMOD DUP3 PUSH1 0x0 DUP1 MLOAD PUSH1 0x20 PUSH2 0xCA76 DUP4 CODECOPY DUP2 MLOAD SWAP2 MSTORE DUP14 MULMOD DUP4 PUSH1 0x0 DUP1 MLOAD PUSH1 0x20 PUSH2 0xCAD6 DUP4 CODECOPY DUP2 MLOAD SWAP2 MSTORE DUP14 MULMOD ADD ADD ADD MOD ADD PUSH1 0xA0 MSTORE PUSH1 0x0 DUP1 MLOAD PUSH1 0x20 PUSH2 0xC876 DUP4 CODECOPY DUP2 MLOAD SWAP2 MSTORE SWAP1 MULMOD SWAP9 PUSH1 0x0 DUP1 MLOAD PUSH1 0x20 PUSH2 0xC816 DUP4 CODECOPY DUP2 MLOAD SWAP2 MSTORE SWAP1 MULMOD SWAP6 PUSH1 0x0 DUP1 MLOAD PUSH1 0x20 PUSH2 0xC996 DUP4 CODECOPY DUP2 MLOAD SWAP2 MSTORE SWAP1 MULMOD SWAP4 PUSH1 0x0 DUP1 MLOAD PUSH1 0x20 PUSH2 0xCA36 DUP4 CODECOPY DUP2 MLOAD SWAP2 MSTORE SWAP1 MULMOD SWAP2 PUSH1 0x0 DUP1 MLOAD PUSH1 0x20 PUSH2 0xC9F6 DUP4 CODECOPY DUP2 MLOAD SWAP2 MSTORE SWAP1 MULMOD ADD ADD ADD MOD ADD PUSH1 0xC0 MSTORE JUMP JUMPDEST PUSH1 0x0 MLOAD PUSH32 0x17C2510982A7B5825710D6290EC4F782F674995EE8409B42B459123B180332E1 ADD PUSH1 0x20 MLOAD PUSH32 0xB0D52F03C8AF7276803ECF2465B885B21337B538EABD2F6B2AB255F376B42A8 ADD SWAP1 PUSH1 0x80 MLOAD PUSH32 0xF5633DF1972B9455953D88A63F80647A9AC77C6C0F85D4561972DD8FAB8BD14 ADD PUSH1 0xA0 MLOAD PUSH32 0xEBF7AD29CA13804E1422E939681155124780FF43E76E929035498130A7F1572 ADD SWAP3 PUSH1 0xC0 MLOAD PUSH32 0x1AFF13C81BDA47E80B02962173BBA343E18F94BEE27C8A57661B1103A720FFE2 ADD PUSH1 0x0 DUP1 MLOAD PUSH1 0x20 PUSH2 0xC936 DUP4 CODECOPY DUP2 MLOAD SWAP2 MSTORE DUP1 DUP1 DUP1 DUP1 DUP1 DUP10 DUP2 DUP1 DUP3 DUP2 SWAP14 MULMOD DUP1 MULMOD MULMOD SWAP6 DUP11 DUP3 DUP1 DUP1 PUSH1 0x0 DUP1 MLOAD PUSH1 0x20 PUSH2 0xC9D6 DUP4 CODECOPY DUP2 MLOAD SWAP2 MSTORE DUP6 MULMOD SWAP3 PUSH1 0x0 DUP1 MLOAD PUSH1 0x20 PUSH2 0xC8B6 DUP4 CODECOPY DUP2 MLOAD SWAP2 MSTORE SWAP1 MULMOD DUP2 PUSH1 0x0 DUP1 MLOAD PUSH1 0x20 PUSH2 0xCA56 DUP4 CODECOPY DUP2 MLOAD SWAP2 MSTORE DUP14 MULMOD DUP3 PUSH1 0x0 DUP1 MLOAD PUSH1 0x20 PUSH2 0xC976 DUP4 CODECOPY DUP2 MLOAD SWAP2 MSTORE DUP14 MULMOD DUP4 PUSH1 0x0 DUP1 MLOAD PUSH1 0x20 PUSH2 0xCA96 DUP4 CODECOPY DUP2 MLOAD SWAP2 MSTORE DUP14 MULMOD ADD ADD ADD MOD ADD PUSH1 0x0 MSTORE DUP11 DUP3 DUP1 DUP1 PUSH1 0x0 DUP1 MLOAD PUSH1 0x20 PUSH2 0xCAF6 DUP4 CODECOPY DUP2 MLOAD SWAP2 MSTORE DUP6 MULMOD SWAP3 PUSH1 0x0 DUP1 MLOAD PUSH1 0x20 PUSH2 0xC8D6 DUP4 CODECOPY DUP2 MLOAD SWAP2 MSTORE SWAP1 MULMOD DUP2 PUSH1 0x0 DUP1 MLOAD PUSH1 0x20 PUSH2 0xCA16 DUP4 CODECOPY DUP2 MLOAD SWAP2 MSTORE DUP14 MULMOD DUP3 PUSH1 0x0 DUP1 MLOAD PUSH1 0x20 PUSH2 0xCAB6 DUP4 CODECOPY DUP2 MLOAD SWAP2 MSTORE DUP14 MULMOD DUP4 PUSH1 0x0 DUP1 MLOAD PUSH1 0x20 PUSH2 0xC856 DUP4 CODECOPY DUP2 MLOAD SWAP2 MSTORE DUP14 MULMOD ADD ADD ADD MOD ADD PUSH1 0x20 MSTORE DUP11 DUP3 DUP1 DUP1 PUSH1 0x0 DUP1 MLOAD PUSH1 0x20 PUSH2 0xC836 DUP4 CODECOPY DUP2 MLOAD SWAP2 MSTORE DUP6 MULMOD SWAP3 PUSH1 0x0 DUP1 MLOAD PUSH1 0x20 PUSH2 0xC9B6 DUP4 CODECOPY DUP2 MLOAD SWAP2 MSTORE SWAP1 MULMOD DUP2 PUSH1 0x0 DUP1 MLOAD PUSH1 0x20 PUSH2 0xC956 DUP4 CODECOPY DUP2 MLOAD SWAP2 MSTORE DUP14 MULMOD DUP3 PUSH1 0x0 DUP1 MLOAD PUSH1 0x20 PUSH2 0xC916 DUP4 CODECOPY DUP2 MLOAD SWAP2 MSTORE DUP14 MULMOD DUP4 PUSH1 0x0 DUP1 MLOAD PUSH1 0x20 PUSH2 0xC7D6 DUP4 CODECOPY DUP2 MLOAD SWAP2 MSTORE DUP14 MULMOD ADD ADD ADD MOD ADD PUSH1 0x80 MSTORE DUP11 DUP3 DUP1 DUP1 PUSH1 0x0 DUP1 MLOAD PUSH1 0x20 PUSH2 0xC7F6 DUP4 CODECOPY DUP2 MLOAD SWAP2 MSTORE DUP6 MULMOD SWAP3 PUSH1 0x0 DUP1 MLOAD PUSH1 0x20 PUSH2 0xC8F6 DUP4 CODECOPY DUP2 MLOAD SWAP2 MSTORE SWAP1 MULMOD DUP2 PUSH1 0x0 DUP1 MLOAD PUSH1 0x20 PUSH2 0xC896 DUP4 CODECOPY DUP2 MLOAD SWAP2 MSTORE DUP14 MULMOD DUP3 PUSH1 0x0 DUP1 MLOAD PUSH1 0x20 PUSH2 0xCA76 DUP4 CODECOPY DUP2 MLOAD SWAP2 MSTORE DUP14 MULMOD DUP4 PUSH1 0x0 DUP1 MLOAD PUSH1 0x20 PUSH2 0xCAD6 DUP4 CODECOPY DUP2 MLOAD SWAP2 MSTORE DUP14 MULMOD ADD ADD ADD MOD ADD PUSH1 0xA0 MSTORE PUSH1 0x0 DUP1 MLOAD PUSH1 0x20 PUSH2 0xC876 DUP4 CODECOPY DUP2 MLOAD SWAP2 MSTORE SWAP1 MULMOD SWAP9 PUSH1 0x0 DUP1 MLOAD PUSH1 0x20 PUSH2 0xC816 DUP4 CODECOPY DUP2 MLOAD SWAP2 MSTORE SWAP1 MULMOD SWAP6 PUSH1 0x0 DUP1 MLOAD PUSH1 0x20 PUSH2 0xC996 DUP4 CODECOPY DUP2 MLOAD SWAP2 MSTORE SWAP1 MULMOD SWAP4 PUSH1 0x0 DUP1 MLOAD PUSH1 0x20 PUSH2 0xCA36 DUP4 CODECOPY DUP2 MLOAD SWAP2 MSTORE SWAP1 MULMOD SWAP2 PUSH1 0x0 DUP1 MLOAD PUSH1 0x20 PUSH2 0xC9F6 DUP4 CODECOPY DUP2 MLOAD SWAP2 MSTORE SWAP1 MULMOD ADD ADD ADD MOD ADD PUSH1 0xC0 MSTORE JUMP JUMPDEST PUSH1 0x0 MLOAD PUSH32 0x210449DBF5CF3061DA2465BE85505862D3F31DE1A3B58FF35713BE57EFAC6C07 ADD PUSH1 0x20 MLOAD PUSH32 0x88230C2794E50C57D75CD6D3C7B9DBE19D1E2F1D3001044B93AD1C3EE629817 ADD SWAP1 PUSH1 0x80 MLOAD PUSH32 0x1C408C256490B0A1DA08DC464138DFC78CCE9A9E16C7705617A4D6DBB20E7E3A ADD PUSH1 0xA0 MLOAD PUSH32 0x74517E081EB4C1F22D1771200FB07658F7C77654D58440490DD6F557E9E3903 ADD SWAP3 PUSH1 0xC0 MLOAD PUSH32 0x2D04E9C21DF1DBD88524BDB203691B4CEE5530559D6CF0FA05ADF61E12FDCBF ADD PUSH1 0x0 DUP1 MLOAD PUSH1 0x20 PUSH2 0xC936 DUP4 CODECOPY DUP2 MLOAD SWAP2 MSTORE DUP1 DUP1 DUP1 DUP1 DUP1 DUP10 DUP2 DUP1 DUP3 DUP2 SWAP14 MULMOD DUP1 MULMOD MULMOD SWAP6 DUP11 DUP3 DUP1 DUP1 PUSH1 0x0 DUP1 MLOAD PUSH1 0x20 PUSH2 0xC9D6 DUP4 CODECOPY DUP2 MLOAD SWAP2 MSTORE DUP6 MULMOD SWAP3 PUSH1 0x0 DUP1 MLOAD PUSH1 0x20 PUSH2 0xC8B6 DUP4 CODECOPY DUP2 MLOAD SWAP2 MSTORE SWAP1 MULMOD DUP2 PUSH1 0x0 DUP1 MLOAD PUSH1 0x20 PUSH2 0xCA56 DUP4 CODECOPY DUP2 MLOAD SWAP2 MSTORE DUP14 MULMOD DUP3 PUSH1 0x0 DUP1 MLOAD PUSH1 0x20 PUSH2 0xC976 DUP4 CODECOPY DUP2 MLOAD SWAP2 MSTORE DUP14 MULMOD DUP4 PUSH1 0x0 DUP1 MLOAD PUSH1 0x20 PUSH2 0xCA96 DUP4 CODECOPY DUP2 MLOAD SWAP2 MSTORE DUP14 MULMOD ADD ADD ADD MOD ADD PUSH1 0x0 MSTORE DUP11 DUP3 DUP1 DUP1 PUSH1 0x0 DUP1 MLOAD PUSH1 0x20 PUSH2 0xCAF6 DUP4 CODECOPY DUP2 MLOAD SWAP2 MSTORE DUP6 MULMOD SWAP3 PUSH1 0x0 DUP1 MLOAD PUSH1 0x20 PUSH2 0xC8D6 DUP4 CODECOPY DUP2 MLOAD SWAP2 MSTORE SWAP1 MULMOD DUP2 PUSH1 0x0 DUP1 MLOAD PUSH1 0x20 PUSH2 0xCA16 DUP4 CODECOPY DUP2 MLOAD SWAP2 MSTORE DUP14 MULMOD DUP3 PUSH1 0x0 DUP1 MLOAD PUSH1 0x20 PUSH2 0xCAB6 DUP4 CODECOPY DUP2 MLOAD SWAP2 MSTORE DUP14 MULMOD DUP4 PUSH1 0x0 DUP1 MLOAD PUSH1 0x20 PUSH2 0xC856 DUP4 CODECOPY DUP2 MLOAD SWAP2 MSTORE DUP14 MULMOD ADD ADD ADD MOD ADD PUSH1 0x20 MSTORE DUP11 DUP3 DUP1 DUP1 PUSH1 0x0 DUP1 MLOAD PUSH1 0x20 PUSH2 0xC836 DUP4 CODECOPY DUP2 MLOAD SWAP2 MSTORE DUP6 MULMOD SWAP3 PUSH1 0x0 DUP1 MLOAD PUSH1 0x20 PUSH2 0xC9B6 DUP4 CODECOPY DUP2 MLOAD SWAP2 MSTORE SWAP1 MULMOD DUP2 PUSH1 0x0 DUP1 MLOAD PUSH1 0x20 PUSH2 0xC956 DUP4 CODECOPY DUP2 MLOAD SWAP2 MSTORE DUP14 MULMOD DUP3 PUSH1 0x0 DUP1 MLOAD PUSH1 0x20 PUSH2 0xC916 DUP4 CODECOPY DUP2 MLOAD SWAP2 MSTORE DUP14 MULMOD DUP4 PUSH1 0x0 DUP1 MLOAD PUSH1 0x20 PUSH2 0xC7D6 DUP4 CODECOPY DUP2 MLOAD SWAP2 MSTORE DUP14 MULMOD ADD ADD ADD MOD ADD PUSH1 0x80 MSTORE DUP11 DUP3 DUP1 DUP1 PUSH1 0x0 DUP1 MLOAD PUSH1 0x20 PUSH2 0xC7F6 DUP4 CODECOPY DUP2 MLOAD SWAP2 MSTORE DUP6 MULMOD SWAP3 PUSH1 0x0 DUP1 MLOAD PUSH1 0x20 PUSH2 0xC8F6 DUP4 CODECOPY DUP2 MLOAD SWAP2 MSTORE SWAP1 MULMOD DUP2 PUSH1 0x0 DUP1 MLOAD PUSH1 0x20 PUSH2 0xC896 DUP4 CODECOPY DUP2 MLOAD SWAP2 MSTORE DUP14 MULMOD DUP3 PUSH1 0x0 DUP1 MLOAD PUSH1 0x20 PUSH2 0xCA76 DUP4 CODECOPY DUP2 MLOAD SWAP2 MSTORE DUP14 MULMOD DUP4 PUSH1 0x0 DUP1 MLOAD PUSH1 0x20 PUSH2 0xCAD6 DUP4 CODECOPY DUP2 MLOAD SWAP2 MSTORE DUP14 MULMOD ADD ADD ADD MOD ADD PUSH1 0xA0 MSTORE PUSH1 0x0 DUP1 MLOAD PUSH1 0x20 PUSH2 0xC876 DUP4 CODECOPY DUP2 MLOAD SWAP2 MSTORE SWAP1 MULMOD SWAP9 PUSH1 0x0 DUP1 MLOAD PUSH1 0x20 PUSH2 0xC816 DUP4 CODECOPY DUP2 MLOAD SWAP2 MSTORE SWAP1 MULMOD SWAP6 PUSH1 0x0 DUP1 MLOAD PUSH1 0x20 PUSH2 0xC996 DUP4 CODECOPY DUP2 MLOAD SWAP2 MSTORE SWAP1 MULMOD SWAP4 PUSH1 0x0 DUP1 MLOAD PUSH1 0x20 PUSH2 0xCA36 DUP4 CODECOPY DUP2 MLOAD SWAP2 MSTORE SWAP1 MULMOD SWAP2 PUSH1 0x0 DUP1 MLOAD PUSH1 0x20 PUSH2 0xC9F6 DUP4 CODECOPY DUP2 MLOAD SWAP2 MSTORE SWAP1 MULMOD ADD ADD ADD MOD ADD PUSH1 0xC0 MSTORE JUMP JUMPDEST PUSH1 0x0 MLOAD PUSH32 0x2EB7A011B8BCE91082E13EBD75DE3B58EB9B4650DAE9F11AA81DB32CF1B67B13 ADD PUSH1 0x20 MLOAD PUSH32 0x2EFDA77ED35F4AF0299F75D6E8A849B54D2AC6BF95368304E6030C18F0CF17B5 ADD SWAP1 PUSH1 0x80 MLOAD PUSH32 0x9199DCAFD50CE642EDDBEDA65206D4F61A73D10852B8114C51B2440192AE064 ADD PUSH1 0xA0 MLOAD PUSH32 0x268C5CFC446D399C4DD319DB666A75B5CB655D8C1797E9FA76181CB4216E1562 ADD SWAP3 PUSH1 0xC0 MLOAD PUSH32 0x2303A652C949071826B0E9A36C80578697B44E912CCE6687012854EDA11A18DC ADD PUSH1 0x0 DUP1 MLOAD PUSH1 0x20 PUSH2 0xC936 DUP4 CODECOPY DUP2 MLOAD SWAP2 MSTORE DUP1 DUP1 DUP1 DUP1 DUP1 DUP10 DUP2 DUP1 DUP3 DUP2 SWAP14 MULMOD DUP1 MULMOD MULMOD SWAP6 DUP11 DUP3 DUP1 DUP1 PUSH1 0x0 DUP1 MLOAD PUSH1 0x20 PUSH2 0xC9D6 DUP4 CODECOPY DUP2 MLOAD SWAP2 MSTORE DUP6 MULMOD SWAP3 PUSH1 0x0 DUP1 MLOAD PUSH1 0x20 PUSH2 0xC8B6 DUP4 CODECOPY DUP2 MLOAD SWAP2 MSTORE SWAP1 MULMOD DUP2 PUSH1 0x0 DUP1 MLOAD PUSH1 0x20 PUSH2 0xCA56 DUP4 CODECOPY DUP2 MLOAD SWAP2 MSTORE DUP14 MULMOD DUP3 PUSH1 0x0 DUP1 MLOAD PUSH1 0x20 PUSH2 0xC976 DUP4 CODECOPY DUP2 MLOAD SWAP2 MSTORE DUP14 MULMOD DUP4 PUSH1 0x0 DUP1 MLOAD PUSH1 0x20 PUSH2 0xCA96 DUP4 CODECOPY DUP2 MLOAD SWAP2 MSTORE DUP14 MULMOD ADD ADD ADD MOD ADD PUSH1 0x0 MSTORE DUP11 DUP3 DUP1 DUP1 PUSH1 0x0 DUP1 MLOAD PUSH1 0x20 PUSH2 0xCAF6 DUP4 CODECOPY DUP2 MLOAD SWAP2 MSTORE DUP6 MULMOD SWAP3 PUSH1 0x0 DUP1 MLOAD PUSH1 0x20 PUSH2 0xC8D6 DUP4 CODECOPY DUP2 MLOAD SWAP2 MSTORE SWAP1 MULMOD DUP2 PUSH1 0x0 DUP1 MLOAD PUSH1 0x20 PUSH2 0xCA16 DUP4 CODECOPY DUP2 MLOAD SWAP2 MSTORE DUP14 MULMOD DUP3 PUSH1 0x0 DUP1 MLOAD PUSH1 0x20 PUSH2 0xCAB6 DUP4 CODECOPY DUP2 MLOAD SWAP2 MSTORE DUP14 MULMOD DUP4 PUSH1 0x0 DUP1 MLOAD PUSH1 0x20 PUSH2 0xC856 DUP4 CODECOPY DUP2 MLOAD SWAP2 MSTORE DUP14 MULMOD ADD ADD ADD MOD ADD PUSH1 0x20 MSTORE DUP11 DUP3 DUP1 DUP1 PUSH1 0x0 DUP1 MLOAD PUSH1 0x20 PUSH2 0xC836 DUP4 CODECOPY DUP2 MLOAD SWAP2 MSTORE DUP6 MULMOD SWAP3 PUSH1 0x0 DUP1 MLOAD PUSH1 0x20 PUSH2 0xC9B6 DUP4 CODECOPY DUP2 MLOAD SWAP2 MSTORE SWAP1 MULMOD DUP2 PUSH1 0x0 DUP1 MLOAD PUSH1 0x20 PUSH2 0xC956 DUP4 CODECOPY DUP2 MLOAD SWAP2 MSTORE DUP14 MULMOD DUP3 PUSH1 0x0 DUP1 MLOAD PUSH1 0x20 PUSH2 0xC916 DUP4 CODECOPY DUP2 MLOAD SWAP2 MSTORE DUP14 MULMOD DUP4 PUSH1 0x0 DUP1 MLOAD PUSH1 0x20 PUSH2 0xC7D6 DUP4 CODECOPY DUP2 MLOAD SWAP2 MSTORE DUP14 MULMOD ADD ADD ADD MOD ADD PUSH1 0x80 MSTORE DUP11 DUP3 DUP1 DUP1 PUSH1 0x0 DUP1 MLOAD PUSH1 0x20 PUSH2 0xC7F6 DUP4 CODECOPY DUP2 MLOAD SWAP2 MSTORE DUP6 MULMOD SWAP3 PUSH1 0x0 DUP1 MLOAD PUSH1 0x20 PUSH2 0xC8F6 DUP4 CODECOPY DUP2 MLOAD SWAP2 MSTORE SWAP1 MULMOD DUP2 PUSH1 0x0 DUP1 MLOAD PUSH1 0x20 PUSH2 0xC896 DUP4 CODECOPY DUP2 MLOAD SWAP2 MSTORE DUP14 MULMOD DUP3 PUSH1 0x0 DUP1 MLOAD PUSH1 0x20 PUSH2 0xCA76 DUP4 CODECOPY DUP2 MLOAD SWAP2 MSTORE DUP14 MULMOD DUP4 PUSH1 0x0 DUP1 MLOAD PUSH1 0x20 PUSH2 0xCAD6 DUP4 CODECOPY DUP2 MLOAD SWAP2 MSTORE DUP14 MULMOD ADD ADD ADD MOD ADD PUSH1 0xA0 MSTORE PUSH1 0x0 DUP1 MLOAD PUSH1 0x20 PUSH2 0xC876 DUP4 CODECOPY DUP2 MLOAD SWAP2 MSTORE SWAP1 MULMOD SWAP9 PUSH1 0x0 DUP1 MLOAD PUSH1 0x20 PUSH2 0xC816 DUP4 CODECOPY DUP2 MLOAD SWAP2 MSTORE SWAP1 MULMOD SWAP6 PUSH1 0x0 DUP1 MLOAD PUSH1 0x20 PUSH2 0xC996 DUP4 CODECOPY DUP2 MLOAD SWAP2 MSTORE SWAP1 MULMOD SWAP4 PUSH1 0x0 DUP1 MLOAD PUSH1 0x20 PUSH2 0xCA36 DUP4 CODECOPY DUP2 MLOAD SWAP2 MSTORE SWAP1 MULMOD SWAP2 PUSH1 0x0 DUP1 MLOAD PUSH1 0x20 PUSH2 0xC9F6 DUP4 CODECOPY DUP2 MLOAD SWAP2 MSTORE SWAP1 MULMOD ADD ADD ADD MOD ADD PUSH1 0xC0 MSTORE JUMP JUMPDEST PUSH1 0x0 MLOAD PUSH32 0x27C53563B12A6EE2C3F041F31DC45922BC5353EB110868D237073F4EFB35FBDF ADD PUSH1 0x20 MLOAD PUSH32 0x1201A87EAF4AE618F02BD82D0A5109049969B5248CFE90F42C278F22615D2B0E ADD SWAP1 PUSH1 0x80 MLOAD PUSH32 0x2C43169439FCD69EAD8214997BB069BECAFCB1BA2C51E5706CB4B43DAB2A443D ADD PUSH1 0xA0 MLOAD PUSH32 0x683597315359040EA03C45D6984C6894F46CBB36D702E3C4FB9847E6304D944 ADD SWAP3 PUSH1 0xC0 MLOAD PUSH32 0x3545706706EAB36AFB93B128FEBD16FB0425E158314197B77795AD3A798D183 ADD PUSH1 0x0 DUP1 MLOAD PUSH1 0x20 PUSH2 0xC936 DUP4 CODECOPY DUP2 MLOAD SWAP2 MSTORE DUP1 DUP1 DUP1 DUP1 DUP1 DUP10 DUP2 DUP1 DUP3 DUP2 SWAP14 MULMOD DUP1 MULMOD MULMOD SWAP6 DUP11 DUP3 DUP1 DUP1 PUSH1 0x0 DUP1 MLOAD PUSH1 0x20 PUSH2 0xC9D6 DUP4 CODECOPY DUP2 MLOAD SWAP2 MSTORE DUP6 MULMOD SWAP3 PUSH1 0x0 DUP1 MLOAD PUSH1 0x20 PUSH2 0xC8B6 DUP4 CODECOPY DUP2 MLOAD SWAP2 MSTORE SWAP1 MULMOD DUP2 PUSH1 0x0 DUP1 MLOAD PUSH1 0x20 PUSH2 0xCA56 DUP4 CODECOPY DUP2 MLOAD SWAP2 MSTORE DUP14 MULMOD DUP3 PUSH1 0x0 DUP1 MLOAD PUSH1 0x20 PUSH2 0xC976 DUP4 CODECOPY DUP2 MLOAD SWAP2 MSTORE DUP14 MULMOD DUP4 PUSH1 0x0 DUP1 MLOAD PUSH1 0x20 PUSH2 0xCA96 DUP4 CODECOPY DUP2 MLOAD SWAP2 MSTORE DUP14 MULMOD ADD ADD ADD MOD ADD PUSH1 0x0 MSTORE DUP11 DUP3 DUP1 DUP1 PUSH1 0x0 DUP1 MLOAD PUSH1 0x20 PUSH2 0xCAF6 DUP4 CODECOPY DUP2 MLOAD SWAP2 MSTORE DUP6 MULMOD SWAP3 PUSH1 0x0 DUP1 MLOAD PUSH1 0x20 PUSH2 0xC8D6 DUP4 CODECOPY DUP2 MLOAD SWAP2 MSTORE SWAP1 MULMOD DUP2 PUSH1 0x0 DUP1 MLOAD PUSH1 0x20 PUSH2 0xCA16 DUP4 CODECOPY DUP2 MLOAD SWAP2 MSTORE DUP14 MULMOD DUP3 PUSH1 0x0 DUP1 MLOAD PUSH1 0x20 PUSH2 0xCAB6 DUP4 CODECOPY DUP2 MLOAD SWAP2 MSTORE DUP14 MULMOD DUP4 PUSH1 0x0 DUP1 MLOAD PUSH1 0x20 PUSH2 0xC856 DUP4 CODECOPY DUP2 MLOAD SWAP2 MSTORE DUP14 MULMOD ADD ADD ADD MOD ADD PUSH1 0x20 MSTORE DUP11 DUP3 DUP1 DUP1 PUSH1 0x0 DUP1 MLOAD PUSH1 0x20 PUSH2 0xC836 DUP4 CODECOPY DUP2 MLOAD SWAP2 MSTORE DUP6 MULMOD SWAP3 PUSH1 0x0 DUP1 MLOAD PUSH1 0x20 PUSH2 0xC9B6 DUP4 CODECOPY DUP2 MLOAD SWAP2 MSTORE SWAP1 MULMOD DUP2 PUSH1 0x0 DUP1 MLOAD PUSH1 0x20 PUSH2 0xC956 DUP4 CODECOPY DUP2 MLOAD SWAP2 MSTORE DUP14 MULMOD DUP3 PUSH1 0x0 DUP1 MLOAD PUSH1 0x20 PUSH2 0xC916 DUP4 CODECOPY DUP2 MLOAD SWAP2 MSTORE DUP14 MULMOD DUP4 PUSH1 0x0 DUP1 MLOAD PUSH1 0x20 PUSH2 0xC7D6 DUP4 CODECOPY DUP2 MLOAD SWAP2 MSTORE DUP14 MULMOD ADD ADD ADD MOD ADD PUSH1 0x80 MSTORE DUP11 DUP3 DUP1 DUP1 PUSH1 0x0 DUP1 MLOAD PUSH1 0x20 PUSH2 0xC7F6 DUP4 CODECOPY DUP2 MLOAD SWAP2 MSTORE DUP6 MULMOD SWAP3 PUSH1 0x0 DUP1 MLOAD PUSH1 0x20 PUSH2 0xC8F6 DUP4 CODECOPY DUP2 MLOAD SWAP2 MSTORE SWAP1 MULMOD DUP2 PUSH1 0x0 DUP1 MLOAD PUSH1 0x20 PUSH2 0xC896 DUP4 CODECOPY DUP2 MLOAD SWAP2 MSTORE DUP14 MULMOD DUP3 PUSH1 0x0 DUP1 MLOAD PUSH1 0x20 PUSH2 0xCA76 DUP4 CODECOPY DUP2 MLOAD SWAP2 MSTORE DUP14 MULMOD DUP4 PUSH1 0x0 DUP1 MLOAD PUSH1 0x20 PUSH2 0xCAD6 DUP4 CODECOPY DUP2 MLOAD SWAP2 MSTORE DUP14 MULMOD ADD ADD ADD MOD ADD PUSH1 0xA0 MSTORE PUSH1 0x0 DUP1 MLOAD PUSH1 0x20 PUSH2 0xC876 DUP4 CODECOPY DUP2 MLOAD SWAP2 MSTORE SWAP1 MULMOD SWAP9 PUSH1 0x0 DUP1 MLOAD PUSH1 0x20 PUSH2 0xC816 DUP4 CODECOPY DUP2 MLOAD SWAP2 MSTORE SWAP1 MULMOD SWAP6 PUSH1 0x0 DUP1 MLOAD PUSH1 0x20 PUSH2 0xC996 DUP4 CODECOPY DUP2 MLOAD SWAP2 MSTORE SWAP1 MULMOD SWAP4 PUSH1 0x0 DUP1 MLOAD PUSH1 0x20 PUSH2 0xCA36 DUP4 CODECOPY DUP2 MLOAD SWAP2 MSTORE SWAP1 MULMOD SWAP2 PUSH1 0x0 DUP1 MLOAD PUSH1 0x20 PUSH2 0xC9F6 DUP4 CODECOPY DUP2 MLOAD SWAP2 MSTORE SWAP1 MULMOD ADD ADD ADD MOD ADD PUSH1 0xC0 MSTORE JUMP JUMPDEST PUSH1 0x0 MLOAD PUSH32 0x1A33C254EC117619D35F1FC051B31728740BED23A6A37870EDB393B71A0C0E6B ADD PUSH1 0x20 MLOAD PUSH32 0x1FFE6968A4470CD567B0C002281CAF996E88F71E759B87E6F338E517F1690C78 ADD SWAP1 PUSH1 0x80 MLOAD PUSH32 0xFD66E03BA8808FFECB059C899FD80F4140DDD5D2A5C4483107F4E02E355B393 ADD PUSH1 0xA0 MLOAD PUSH32 0x263AB69F13B966F8197394552906B17E6C8617A7BDD5D74A7BE3396B7FE013AB ADD SWAP3 PUSH1 0xC0 MLOAD PUSH32 0x16A425E47D1110625054D5A165DE413E3BD87D5AA3958FDD6EB7E03E39BA4046 ADD PUSH1 0x0 DUP1 MLOAD PUSH1 0x20 PUSH2 0xC936 DUP4 CODECOPY DUP2 MLOAD SWAP2 MSTORE DUP1 DUP1 DUP1 DUP1 DUP1 DUP10 DUP2 DUP1 DUP3 DUP2 SWAP14 MULMOD DUP1 MULMOD MULMOD SWAP6 DUP11 DUP3 DUP1 DUP1 PUSH1 0x0 DUP1 MLOAD PUSH1 0x20 PUSH2 0xC9D6 DUP4 CODECOPY DUP2 MLOAD SWAP2 MSTORE DUP6 MULMOD SWAP3 PUSH1 0x0 DUP1 MLOAD PUSH1 0x20 PUSH2 0xC8B6 DUP4 CODECOPY DUP2 MLOAD SWAP2 MSTORE SWAP1 MULMOD DUP2 PUSH1 0x0 DUP1 MLOAD PUSH1 0x20 PUSH2 0xCA56 DUP4 CODECOPY DUP2 MLOAD SWAP2 MSTORE DUP14 MULMOD DUP3 PUSH1 0x0 DUP1 MLOAD PUSH1 0x20 PUSH2 0xC976 DUP4 CODECOPY DUP2 MLOAD SWAP2 MSTORE DUP14 MULMOD DUP4 PUSH1 0x0 DUP1 MLOAD PUSH1 0x20 PUSH2 0xCA96 DUP4 CODECOPY DUP2 MLOAD SWAP2 MSTORE DUP14 MULMOD ADD ADD ADD MOD ADD PUSH1 0x0 MSTORE DUP11 DUP3 DUP1 DUP1 PUSH1 0x0 DUP1 MLOAD PUSH1 0x20 PUSH2 0xCAF6 DUP4 CODECOPY DUP2 MLOAD SWAP2 MSTORE DUP6 MULMOD SWAP3 PUSH1 0x0 DUP1 MLOAD PUSH1 0x20 PUSH2 0xC8D6 DUP4 CODECOPY DUP2 MLOAD SWAP2 MSTORE SWAP1 MULMOD DUP2 PUSH1 0x0 DUP1 MLOAD PUSH1 0x20 PUSH2 0xCA16 DUP4 CODECOPY DUP2 MLOAD SWAP2 MSTORE DUP14 MULMOD DUP3 PUSH1 0x0 DUP1 MLOAD PUSH1 0x20 PUSH2 0xCAB6 DUP4 CODECOPY DUP2 MLOAD SWAP2 MSTORE DUP14 MULMOD DUP4 PUSH1 0x0 DUP1 MLOAD PUSH1 0x20 PUSH2 0xC856 DUP4 CODECOPY DUP2 MLOAD SWAP2 MSTORE DUP14 MULMOD ADD ADD ADD MOD ADD PUSH1 0x20 MSTORE DUP11 DUP3 DUP1 DUP1 PUSH1 0x0 DUP1 MLOAD PUSH1 0x20 PUSH2 0xC836 DUP4 CODECOPY DUP2 MLOAD SWAP2 MSTORE DUP6 MULMOD SWAP3 PUSH1 0x0 DUP1 MLOAD PUSH1 0x20 PUSH2 0xC9B6 DUP4 CODECOPY DUP2 MLOAD SWAP2 MSTORE SWAP1 MULMOD DUP2 PUSH1 0x0 DUP1 MLOAD PUSH1 0x20 PUSH2 0xC956 DUP4 CODECOPY DUP2 MLOAD SWAP2 MSTORE DUP14 MULMOD DUP3 PUSH1 0x0 DUP1 MLOAD PUSH1 0x20 PUSH2 0xC916 DUP4 CODECOPY DUP2 MLOAD SWAP2 MSTORE DUP14 MULMOD DUP4 PUSH1 0x0 DUP1 MLOAD PUSH1 0x20 PUSH2 0xC7D6 DUP4 CODECOPY DUP2 MLOAD SWAP2 MSTORE DUP14 MULMOD ADD ADD ADD MOD ADD PUSH1 0x80 MSTORE DUP11 DUP3 DUP1 DUP1 PUSH1 0x0 DUP1 MLOAD PUSH1 0x20 PUSH2 0xC7F6 DUP4 CODECOPY DUP2 MLOAD SWAP2 MSTORE DUP6 MULMOD SWAP3 PUSH1 0x0 DUP1 MLOAD PUSH1 0x20 PUSH2 0xC8F6 DUP4 CODECOPY DUP2 MLOAD SWAP2 MSTORE SWAP1 MULMOD DUP2 PUSH1 0x0 DUP1 MLOAD PUSH1 0x20 PUSH2 0xC896 DUP4 CODECOPY DUP2 MLOAD SWAP2 MSTORE DUP14 MULMOD DUP3 PUSH1 0x0 DUP1 MLOAD PUSH1 0x20 PUSH2 0xCA76 DUP4 CODECOPY DUP2 MLOAD SWAP2 MSTORE DUP14 MULMOD DUP4 PUSH1 0x0 DUP1 MLOAD PUSH1 0x20 PUSH2 0xCAD6 DUP4 CODECOPY DUP2 MLOAD SWAP2 MSTORE DUP14 MULMOD ADD ADD ADD MOD ADD PUSH1 0xA0 MSTORE PUSH1 0x0 DUP1 MLOAD PUSH1 0x20 PUSH2 0xC876 DUP4 CODECOPY DUP2 MLOAD SWAP2 MSTORE SWAP1 MULMOD SWAP9 PUSH1 0x0 DUP1 MLOAD PUSH1 0x20 PUSH2 0xC816 DUP4 CODECOPY DUP2 MLOAD SWAP2 MSTORE SWAP1 MULMOD SWAP6 PUSH1 0x0 DUP1 MLOAD PUSH1 0x20 PUSH2 0xC996 DUP4 CODECOPY DUP2 MLOAD SWAP2 MSTORE SWAP1 MULMOD SWAP4 PUSH1 0x0 DUP1 MLOAD PUSH1 0x20 PUSH2 0xCA36 DUP4 CODECOPY DUP2 MLOAD SWAP2 MSTORE SWAP1 MULMOD SWAP2 PUSH1 0x0 DUP1 MLOAD PUSH1 0x20 PUSH2 0xC9F6 DUP4 CODECOPY DUP2 MLOAD SWAP2 MSTORE SWAP1 MULMOD ADD ADD ADD MOD ADD PUSH1 0xC0 MSTORE JUMP JUMPDEST PUSH1 0x0 MLOAD PUSH32 0x2DC510A4719EC10CAD752F03C673F0E253CC31D13E39E909FCC5F73AF9138D9A ADD PUSH1 0x20 MLOAD PUSH32 0x24DF8E8D856C5B5E1BD1CAD23D07DDA3423C5179329B7A82CB4AA709A94576E5 ADD SWAP1 PUSH1 0x80 MLOAD PUSH32 0x2BCC94FF4FC3C76F3CD5C68915A042E87628249A01B09561BDF24A6CDCE5620F ADD PUSH1 0xA0 MLOAD PUSH32 0x76C1E88DC540C8D8DE54E343DF7C429D3295F52C38CFFE6B48BE86852DA97DF ADD SWAP3 PUSH1 0xC0 MLOAD PUSH32 0x9B5F209A451AC431C051FB12D9A5E4FE40EE1601120947DA990FB8E12CB46E1 ADD PUSH1 0x0 DUP1 MLOAD PUSH1 0x20 PUSH2 0xC936 DUP4 CODECOPY DUP2 MLOAD SWAP2 MSTORE DUP1 DUP1 DUP1 DUP1 DUP1 DUP10 DUP2 DUP1 DUP3 DUP2 SWAP14 MULMOD DUP1 MULMOD MULMOD SWAP6 DUP11 DUP3 DUP1 DUP1 PUSH1 0x0 DUP1 MLOAD PUSH1 0x20 PUSH2 0xC9D6 DUP4 CODECOPY DUP2 MLOAD SWAP2 MSTORE DUP6 MULMOD SWAP3 PUSH1 0x0 DUP1 MLOAD PUSH1 0x20 PUSH2 0xC8B6 DUP4 CODECOPY DUP2 MLOAD SWAP2 MSTORE SWAP1 MULMOD DUP2 PUSH1 0x0 DUP1 MLOAD PUSH1 0x20 PUSH2 0xCA56 DUP4 CODECOPY DUP2 MLOAD SWAP2 MSTORE DUP14 MULMOD DUP3 PUSH1 0x0 DUP1 MLOAD PUSH1 0x20 PUSH2 0xC976 DUP4 CODECOPY DUP2 MLOAD SWAP2 MSTORE DUP14 MULMOD DUP4 PUSH1 0x0 DUP1 MLOAD PUSH1 0x20 PUSH2 0xCA96 DUP4 CODECOPY DUP2 MLOAD SWAP2 MSTORE DUP14 MULMOD ADD ADD ADD MOD ADD PUSH1 0x0 MSTORE DUP11 DUP3 DUP1 DUP1 PUSH1 0x0 DUP1 MLOAD PUSH1 0x20 PUSH2 0xCAF6 DUP4 CODECOPY DUP2 MLOAD SWAP2 MSTORE DUP6 MULMOD SWAP3 PUSH1 0x0 DUP1 MLOAD PUSH1 0x20 PUSH2 0xC8D6 DUP4 CODECOPY DUP2 MLOAD SWAP2 MSTORE SWAP1 MULMOD DUP2 PUSH1 0x0 DUP1 MLOAD PUSH1 0x20 PUSH2 0xCA16 DUP4 CODECOPY DUP2 MLOAD SWAP2 MSTORE DUP14 MULMOD DUP3 PUSH1 0x0 DUP1 MLOAD PUSH1 0x20 PUSH2 0xCAB6 DUP4 CODECOPY DUP2 MLOAD SWAP2 MSTORE DUP14 MULMOD DUP4 PUSH1 0x0 DUP1 MLOAD PUSH1 0x20 PUSH2 0xC856 DUP4 CODECOPY DUP2 MLOAD SWAP2 MSTORE DUP14 MULMOD ADD ADD ADD MOD ADD PUSH1 0x20 MSTORE DUP11 DUP3 DUP1 DUP1 PUSH1 0x0 DUP1 MLOAD PUSH1 0x20 PUSH2 0xC836 DUP4 CODECOPY DUP2 MLOAD SWAP2 MSTORE DUP6 MULMOD SWAP3 PUSH1 0x0 DUP1 MLOAD PUSH1 0x20 PUSH2 0xC9B6 DUP4 CODECOPY DUP2 MLOAD SWAP2 MSTORE SWAP1 MULMOD DUP2 PUSH1 0x0 DUP1 MLOAD PUSH1 0x20 PUSH2 0xC956 DUP4 CODECOPY DUP2 MLOAD SWAP2 MSTORE DUP14 MULMOD DUP3 PUSH1 0x0 DUP1 MLOAD PUSH1 0x20 PUSH2 0xC916 DUP4 CODECOPY DUP2 MLOAD SWAP2 MSTORE DUP14 MULMOD DUP4 PUSH1 0x0 DUP1 MLOAD PUSH1 0x20 PUSH2 0xC7D6 DUP4 CODECOPY DUP2 MLOAD SWAP2 MSTORE DUP14 MULMOD ADD ADD ADD MOD ADD PUSH1 0x80 MSTORE DUP11 DUP3 DUP1 DUP1 PUSH1 0x0 DUP1 MLOAD PUSH1 0x20 PUSH2 0xC7F6 DUP4 CODECOPY DUP2 MLOAD SWAP2 MSTORE DUP6 MULMOD SWAP3 PUSH1 0x0 DUP1 MLOAD PUSH1 0x20 PUSH2 0xC8F6 DUP4 CODECOPY DUP2 MLOAD SWAP2 MSTORE SWAP1 MULMOD DUP2 PUSH1 0x0 DUP1 MLOAD PUSH1 0x20 PUSH2 0xC896 DUP4 CODECOPY DUP2 MLOAD SWAP2 MSTORE DUP14 MULMOD DUP3 PUSH1 0x0 DUP1 MLOAD PUSH1 0x20 PUSH2 0xCA76 DUP4 CODECOPY DUP2 MLOAD SWAP2 MSTORE DUP14 MULMOD DUP4 PUSH1 0x0 DUP1 MLOAD PUSH1 0x20 PUSH2 0xCAD6 DUP4 CODECOPY DUP2 MLOAD SWAP2 MSTORE DUP14 MULMOD ADD ADD ADD MOD ADD PUSH1 0xA0 MSTORE PUSH1 0x0 DUP1 MLOAD PUSH1 0x20 PUSH2 0xC876 DUP4 CODECOPY DUP2 MLOAD SWAP2 MSTORE SWAP1 MULMOD SWAP9 PUSH1 0x0 DUP1 MLOAD PUSH1 0x20 PUSH2 0xC816 DUP4 CODECOPY DUP2 MLOAD SWAP2 MSTORE SWAP1 MULMOD SWAP6 PUSH1 0x0 DUP1 MLOAD PUSH1 0x20 PUSH2 0xC996 DUP4 CODECOPY DUP2 MLOAD SWAP2 MSTORE SWAP1 MULMOD SWAP4 PUSH1 0x0 DUP1 MLOAD PUSH1 0x20 PUSH2 0xCA36 DUP4 CODECOPY DUP2 MLOAD SWAP2 MSTORE SWAP1 MULMOD SWAP2 PUSH1 0x0 DUP1 MLOAD PUSH1 0x20 PUSH2 0xC9F6 DUP4 CODECOPY DUP2 MLOAD SWAP2 MSTORE SWAP1 MULMOD ADD ADD ADD MOD ADD PUSH1 0xC0 MSTORE JUMP JUMPDEST PUSH1 0x0 MLOAD PUSH32 0x205F17B0D8729E2EAA88D6A44135A6AB64E9424F55B0F1EA0683AF75EB677C07 ADD PUSH1 0x20 MLOAD PUSH32 0x281C5C688836F6CF912638C38BE046CD091681F0A41761720CDD1EDF9F237029 ADD SWAP1 PUSH1 0x80 MLOAD PUSH32 0x1A053E6878E900F45F4D67448C471CF3009A44E7A02EA50E4AFA44F2592621F5 ADD PUSH1 0xA0 MLOAD PUSH32 0x100DC7D426DEBE3007FB7CEAC84E4F5468EFCB897E7BBEE981742839D59E064C ADD SWAP3 PUSH1 0xC0 MLOAD PUSH32 0x17022672A016A957BB87E2CFADC8B75FB28905BDB62C82C80B1CB31B411E49C8 ADD PUSH1 0x0 DUP1 MLOAD PUSH1 0x20 PUSH2 0xC936 DUP4 CODECOPY DUP2 MLOAD SWAP2 MSTORE DUP1 DUP1 DUP1 DUP1 DUP1 DUP10 DUP2 DUP1 DUP3 DUP2 SWAP14 MULMOD DUP1 MULMOD MULMOD SWAP6 DUP11 DUP3 DUP1 DUP1 PUSH1 0x0 DUP1 MLOAD PUSH1 0x20 PUSH2 0xC9D6 DUP4 CODECOPY DUP2 MLOAD SWAP2 MSTORE DUP6 MULMOD SWAP3 PUSH1 0x0 DUP1 MLOAD PUSH1 0x20 PUSH2 0xC8B6 DUP4 CODECOPY DUP2 MLOAD SWAP2 MSTORE SWAP1 MULMOD DUP2 PUSH1 0x0 DUP1 MLOAD PUSH1 0x20 PUSH2 0xCA56 DUP4 CODECOPY DUP2 MLOAD SWAP2 MSTORE DUP14 MULMOD DUP3 PUSH1 0x0 DUP1 MLOAD PUSH1 0x20 PUSH2 0xC976 DUP4 CODECOPY DUP2 MLOAD SWAP2 MSTORE DUP14 MULMOD DUP4 PUSH1 0x0 DUP1 MLOAD PUSH1 0x20 PUSH2 0xCA96 DUP4 CODECOPY DUP2 MLOAD SWAP2 MSTORE DUP14 MULMOD ADD ADD ADD MOD ADD PUSH1 0x0 MSTORE DUP11 DUP3 DUP1 DUP1 PUSH1 0x0 DUP1 MLOAD PUSH1 0x20 PUSH2 0xCAF6 DUP4 CODECOPY DUP2 MLOAD SWAP2 MSTORE DUP6 MULMOD SWAP3 PUSH1 0x0 DUP1 MLOAD PUSH1 0x20 PUSH2 0xC8D6 DUP4 CODECOPY DUP2 MLOAD SWAP2 MSTORE SWAP1 MULMOD DUP2 PUSH1 0x0 DUP1 MLOAD PUSH1 0x20 PUSH2 0xCA16 DUP4 CODECOPY DUP2 MLOAD SWAP2 MSTORE DUP14 MULMOD DUP3 PUSH1 0x0 DUP1 MLOAD PUSH1 0x20 PUSH2 0xCAB6 DUP4 CODECOPY DUP2 MLOAD SWAP2 MSTORE DUP14 MULMOD DUP4 PUSH1 0x0 DUP1 MLOAD PUSH1 0x20 PUSH2 0xC856 DUP4 CODECOPY DUP2 MLOAD SWAP2 MSTORE DUP14 MULMOD ADD ADD ADD MOD ADD PUSH1 0x20 MSTORE DUP11 DUP3 DUP1 DUP1 PUSH1 0x0 DUP1 MLOAD PUSH1 0x20 PUSH2 0xC836 DUP4 CODECOPY DUP2 MLOAD SWAP2 MSTORE DUP6 MULMOD SWAP3 PUSH1 0x0 DUP1 MLOAD PUSH1 0x20 PUSH2 0xC9B6 DUP4 CODECOPY DUP2 MLOAD SWAP2 MSTORE SWAP1 MULMOD DUP2 PUSH1 0x0 DUP1 MLOAD PUSH1 0x20 PUSH2 0xC956 DUP4 CODECOPY DUP2 MLOAD SWAP2 MSTORE DUP14 MULMOD DUP3 PUSH1 0x0 DUP1 MLOAD PUSH1 0x20 PUSH2 0xC916 DUP4 CODECOPY DUP2 MLOAD SWAP2 MSTORE DUP14 MULMOD DUP4 PUSH1 0x0 DUP1 MLOAD PUSH1 0x20 PUSH2 0xC7D6 DUP4 CODECOPY DUP2 MLOAD SWAP2 MSTORE DUP14 MULMOD ADD ADD ADD MOD ADD PUSH1 0x80 MSTORE DUP11 DUP3 DUP1 DUP1 PUSH1 0x0 DUP1 MLOAD PUSH1 0x20 PUSH2 0xC7F6 DUP4 CODECOPY DUP2 MLOAD SWAP2 MSTORE DUP6 MULMOD SWAP3 PUSH1 0x0 DUP1 MLOAD PUSH1 0x20 PUSH2 0xC8F6 DUP4 CODECOPY DUP2 MLOAD SWAP2 MSTORE SWAP1 MULMOD DUP2 PUSH1 0x0 DUP1 MLOAD PUSH1 0x20 PUSH2 0xC896 DUP4 CODECOPY DUP2 MLOAD SWAP2 MSTORE DUP14 MULMOD DUP3 PUSH1 0x0 DUP1 MLOAD PUSH1 0x20 PUSH2 0xCA76 DUP4 CODECOPY DUP2 MLOAD SWAP2 MSTORE DUP14 MULMOD DUP4 PUSH1 0x0 DUP1 MLOAD PUSH1 0x20 PUSH2 0xCAD6 DUP4 CODECOPY DUP2 MLOAD SWAP2 MSTORE DUP14 MULMOD ADD ADD ADD MOD ADD PUSH1 0xA0 MSTORE PUSH1 0x0 DUP1 MLOAD PUSH1 0x20 PUSH2 0xC876 DUP4 CODECOPY DUP2 MLOAD SWAP2 MSTORE SWAP1 MULMOD SWAP9 PUSH1 0x0 DUP1 MLOAD PUSH1 0x20 PUSH2 0xC816 DUP4 CODECOPY DUP2 MLOAD SWAP2 MSTORE SWAP1 MULMOD SWAP6 PUSH1 0x0 DUP1 MLOAD PUSH1 0x20 PUSH2 0xC996 DUP4 CODECOPY DUP2 MLOAD SWAP2 MSTORE SWAP1 MULMOD SWAP4 PUSH1 0x0 DUP1 MLOAD PUSH1 0x20 PUSH2 0xCA36 DUP4 CODECOPY DUP2 MLOAD SWAP2 MSTORE SWAP1 MULMOD SWAP2 PUSH1 0x0 DUP1 MLOAD PUSH1 0x20 PUSH2 0xC9F6 DUP4 CODECOPY DUP2 MLOAD SWAP2 MSTORE SWAP1 MULMOD ADD ADD ADD MOD ADD PUSH1 0xC0 MSTORE JUMP JUMPDEST PUSH1 0x0 MLOAD PUSH32 0x1086DB7E2760FC8B71053A87EBE151239FB8B547182B170DE0C27203F954F4D2 ADD PUSH1 0x20 MLOAD PUSH32 0x15384FE39D73B63302460AE4C2942FAC2B41FB65A185536FB85DD24FD7584064 ADD SWAP1 PUSH1 0x80 MLOAD PUSH32 0x2EBB599FE9136D424BF4ABC5342C6C7447B1A853205FCFB5519E551357709008 ADD PUSH1 0xA0 MLOAD PUSH32 0x1B4B5E87CFB9262CFEC3C0F0542E4C5A4CF278292B4CE3EED996FAC6F4D37288 ADD SWAP3 PUSH1 0xC0 MLOAD PUSH32 0x2465053AE50B6885801F3F82E302CAFBBB4A7581BB4FBA60B637FEBE659E5057 ADD PUSH1 0x0 DUP1 MLOAD PUSH1 0x20 PUSH2 0xC936 DUP4 CODECOPY DUP2 MLOAD SWAP2 MSTORE DUP1 DUP1 DUP1 DUP1 DUP1 DUP10 DUP2 DUP1 DUP3 DUP2 SWAP14 MULMOD DUP1 MULMOD MULMOD SWAP6 DUP11 DUP3 DUP1 DUP1 PUSH1 0x0 DUP1 MLOAD PUSH1 0x20 PUSH2 0xC9D6 DUP4 CODECOPY DUP2 MLOAD SWAP2 MSTORE DUP6 MULMOD SWAP3 PUSH1 0x0 DUP1 MLOAD PUSH1 0x20 PUSH2 0xC8B6 DUP4 CODECOPY DUP2 MLOAD SWAP2 MSTORE SWAP1 MULMOD DUP2 PUSH1 0x0 DUP1 MLOAD PUSH1 0x20 PUSH2 0xCA56 DUP4 CODECOPY DUP2 MLOAD SWAP2 MSTORE DUP14 MULMOD DUP3 PUSH1 0x0 DUP1 MLOAD PUSH1 0x20 PUSH2 0xC976 DUP4 CODECOPY DUP2 MLOAD SWAP2 MSTORE DUP14 MULMOD DUP4 PUSH1 0x0 DUP1 MLOAD PUSH1 0x20 PUSH2 0xCA96 DUP4 CODECOPY DUP2 MLOAD SWAP2 MSTORE DUP14 MULMOD ADD ADD ADD MOD ADD PUSH1 0x0 MSTORE DUP11 DUP3 DUP1 DUP1 PUSH1 0x0 DUP1 MLOAD PUSH1 0x20 PUSH2 0xCAF6 DUP4 CODECOPY DUP2 MLOAD SWAP2 MSTORE DUP6 MULMOD SWAP3 PUSH1 0x0 DUP1 MLOAD PUSH1 0x20 PUSH2 0xC8D6 DUP4 CODECOPY DUP2 MLOAD SWAP2 MSTORE SWAP1 MULMOD DUP2 PUSH1 0x0 DUP1 MLOAD PUSH1 0x20 PUSH2 0xCA16 DUP4 CODECOPY DUP2 MLOAD SWAP2 MSTORE DUP14 MULMOD DUP3 PUSH1 0x0 DUP1 MLOAD PUSH1 0x20 PUSH2 0xCAB6 DUP4 CODECOPY DUP2 MLOAD SWAP2 MSTORE DUP14 MULMOD DUP4 PUSH1 0x0 DUP1 MLOAD PUSH1 0x20 PUSH2 0xC856 DUP4 CODECOPY DUP2 MLOAD SWAP2 MSTORE DUP14 MULMOD ADD ADD ADD MOD ADD PUSH1 0x20 MSTORE DUP11 DUP3 DUP1 DUP1 PUSH1 0x0 DUP1 MLOAD PUSH1 0x20 PUSH2 0xC836 DUP4 CODECOPY DUP2 MLOAD SWAP2 MSTORE DUP6 MULMOD SWAP3 PUSH1 0x0 DUP1 MLOAD PUSH1 0x20 PUSH2 0xC9B6 DUP4 CODECOPY DUP2 MLOAD SWAP2 MSTORE SWAP1 MULMOD DUP2 PUSH1 0x0 DUP1 MLOAD PUSH1 0x20 PUSH2 0xC956 DUP4 CODECOPY DUP2 MLOAD SWAP2 MSTORE DUP14 MULMOD DUP3 PUSH1 0x0 DUP1 MLOAD PUSH1 0x20 PUSH2 0xC916 DUP4 CODECOPY DUP2 MLOAD SWAP2 MSTORE DUP14 MULMOD DUP4 PUSH1 0x0 DUP1 MLOAD PUSH1 0x20 PUSH2 0xC7D6 DUP4 CODECOPY DUP2 MLOAD SWAP2 MSTORE DUP14 MULMOD ADD ADD ADD MOD ADD PUSH1 0x80 MSTORE DUP11 DUP3 DUP1 DUP1 PUSH1 0x0 DUP1 MLOAD PUSH1 0x20 PUSH2 0xC7F6 DUP4 CODECOPY DUP2 MLOAD SWAP2 MSTORE DUP6 MULMOD SWAP3 PUSH1 0x0 DUP1 MLOAD PUSH1 0x20 PUSH2 0xC8F6 DUP4 CODECOPY DUP2 MLOAD SWAP2 MSTORE SWAP1 MULMOD DUP2 PUSH1 0x0 DUP1 MLOAD PUSH1 0x20 PUSH2 0xC896 DUP4 CODECOPY DUP2 MLOAD SWAP2 MSTORE DUP14 MULMOD DUP3 PUSH1 0x0 DUP1 MLOAD PUSH1 0x20 PUSH2 0xCA76 DUP4 CODECOPY DUP2 MLOAD SWAP2 MSTORE DUP14 MULMOD DUP4 PUSH1 0x0 DUP1 MLOAD PUSH1 0x20 PUSH2 0xCAD6 DUP4 CODECOPY DUP2 MLOAD SWAP2 MSTORE DUP14 MULMOD ADD ADD ADD MOD ADD PUSH1 0xA0 MSTORE PUSH1 0x0 DUP1 MLOAD PUSH1 0x20 PUSH2 0xC876 DUP4 CODECOPY DUP2 MLOAD SWAP2 MSTORE SWAP1 MULMOD SWAP9 PUSH1 0x0 DUP1 MLOAD PUSH1 0x20 PUSH2 0xC816 DUP4 CODECOPY DUP2 MLOAD SWAP2 MSTORE SWAP1 MULMOD SWAP6 PUSH1 0x0 DUP1 MLOAD PUSH1 0x20 PUSH2 0xC996 DUP4 CODECOPY DUP2 MLOAD SWAP2 MSTORE SWAP1 MULMOD SWAP4 PUSH1 0x0 DUP1 MLOAD PUSH1 0x20 PUSH2 0xCA36 DUP4 CODECOPY DUP2 MLOAD SWAP2 MSTORE SWAP1 MULMOD SWAP2 PUSH1 0x0 DUP1 MLOAD PUSH1 0x20 PUSH2 0xC9F6 DUP4 CODECOPY DUP2 MLOAD SWAP2 MSTORE SWAP1 MULMOD ADD ADD ADD MOD ADD PUSH1 0xC0 MSTORE JUMP JUMPDEST PUSH1 0x0 MLOAD PUSH32 0x114F32EDCDEA09CD095C5BB5D38F1B97DA9F05E18B3708BF6E0AB9D3D54859EF ADD PUSH1 0x20 MLOAD PUSH32 0x2BC70DFEB2BAAB2F6B387CD77BE779AC2E5E5519F3D18123EE28D8C2543C7148 ADD SWAP1 PUSH1 0x80 MLOAD PUSH32 0x1C9BF7A203CE22B775E3A61AD7E77B6A78348B9F6EC68A412E49BFE32C05415 ADD PUSH1 0xA0 MLOAD PUSH32 0x514B0FE5909EA887BEDB0295FBBCEC355CFB575FF6A97CD9F4AD00CCB57EE9B ADD SWAP3 PUSH1 0xC0 MLOAD PUSH32 0x267C76EC81934CC81A132A8B058910A12092520B12A201AF03E3202D7B6C1B7E ADD PUSH1 0x0 DUP1 MLOAD PUSH1 0x20 PUSH2 0xC936 DUP4 CODECOPY DUP2 MLOAD SWAP2 MSTORE DUP1 DUP1 DUP1 DUP1 DUP1 DUP10 DUP2 DUP1 DUP3 DUP2 SWAP14 MULMOD DUP1 MULMOD MULMOD SWAP6 DUP11 DUP3 DUP1 DUP1 PUSH1 0x0 DUP1 MLOAD PUSH1 0x20 PUSH2 0xC9D6 DUP4 CODECOPY DUP2 MLOAD SWAP2 MSTORE DUP6 MULMOD SWAP3 PUSH1 0x0 DUP1 MLOAD PUSH1 0x20 PUSH2 0xC8B6 DUP4 CODECOPY DUP2 MLOAD SWAP2 MSTORE SWAP1 MULMOD DUP2 PUSH1 0x0 DUP1 MLOAD PUSH1 0x20 PUSH2 0xCA56 DUP4 CODECOPY DUP2 MLOAD SWAP2 MSTORE DUP14 MULMOD DUP3 PUSH1 0x0 DUP1 MLOAD PUSH1 0x20 PUSH2 0xC976 DUP4 CODECOPY DUP2 MLOAD SWAP2 MSTORE DUP14 MULMOD DUP4 PUSH1 0x0 DUP1 MLOAD PUSH1 0x20 PUSH2 0xCA96 DUP4 CODECOPY DUP2 MLOAD SWAP2 MSTORE DUP14 MULMOD ADD ADD ADD MOD ADD PUSH1 0x0 MSTORE DUP11 DUP3 DUP1 DUP1 PUSH1 0x0 DUP1 MLOAD PUSH1 0x20 PUSH2 0xCAF6 DUP4 CODECOPY DUP2 MLOAD SWAP2 MSTORE DUP6 MULMOD SWAP3 PUSH1 0x0 DUP1 MLOAD PUSH1 0x20 PUSH2 0xC8D6 DUP4 CODECOPY DUP2 MLOAD SWAP2 MSTORE SWAP1 MULMOD DUP2 PUSH1 0x0 DUP1 MLOAD PUSH1 0x20 PUSH2 0xCA16 DUP4 CODECOPY DUP2 MLOAD SWAP2 MSTORE DUP14 MULMOD DUP3 PUSH1 0x0 DUP1 MLOAD PUSH1 0x20 PUSH2 0xCAB6 DUP4 CODECOPY DUP2 MLOAD SWAP2 MSTORE DUP14 MULMOD DUP4 PUSH1 0x0 DUP1 MLOAD PUSH1 0x20 PUSH2 0xC856 DUP4 CODECOPY DUP2 MLOAD SWAP2 MSTORE DUP14 MULMOD ADD ADD ADD MOD ADD PUSH1 0x20 MSTORE DUP11 DUP3 DUP1 DUP1 PUSH1 0x0 DUP1 MLOAD PUSH1 0x20 PUSH2 0xC836 DUP4 CODECOPY DUP2 MLOAD SWAP2 MSTORE DUP6 MULMOD SWAP3 PUSH1 0x0 DUP1 MLOAD PUSH1 0x20 PUSH2 0xC9B6 DUP4 CODECOPY DUP2 MLOAD SWAP2 MSTORE SWAP1 MULMOD DUP2 PUSH1 0x0 DUP1 MLOAD PUSH1 0x20 PUSH2 0xC956 DUP4 CODECOPY DUP2 MLOAD SWAP2 MSTORE DUP14 MULMOD DUP3 PUSH1 0x0 DUP1 MLOAD PUSH1 0x20 PUSH2 0xC916 DUP4 CODECOPY DUP2 MLOAD SWAP2 MSTORE DUP14 MULMOD DUP4 PUSH1 0x0 DUP1 MLOAD PUSH1 0x20 PUSH2 0xC7D6 DUP4 CODECOPY DUP2 MLOAD SWAP2 MSTORE DUP14 MULMOD ADD ADD ADD MOD ADD PUSH1 0x80 MSTORE DUP11 DUP3 DUP1 DUP1 PUSH1 0x0 DUP1 MLOAD PUSH1 0x20 PUSH2 0xC7F6 DUP4 CODECOPY DUP2 MLOAD SWAP2 MSTORE DUP6 MULMOD SWAP3 PUSH1 0x0 DUP1 MLOAD PUSH1 0x20 PUSH2 0xC8F6 DUP4 CODECOPY DUP2 MLOAD SWAP2 MSTORE SWAP1 MULMOD DUP2 PUSH1 0x0 DUP1 MLOAD PUSH1 0x20 PUSH2 0xC896 DUP4 CODECOPY DUP2 MLOAD SWAP2 MSTORE DUP14 MULMOD DUP3 PUSH1 0x0 DUP1 MLOAD PUSH1 0x20 PUSH2 0xCA76 DUP4 CODECOPY DUP2 MLOAD SWAP2 MSTORE DUP14 MULMOD DUP4 PUSH1 0x0 DUP1 MLOAD PUSH1 0x20 PUSH2 0xCAD6 DUP4 CODECOPY DUP2 MLOAD SWAP2 MSTORE DUP14 MULMOD ADD ADD ADD MOD ADD PUSH1 0xA0 MSTORE PUSH1 0x0 DUP1 MLOAD PUSH1 0x20 PUSH2 0xC876 DUP4 CODECOPY DUP2 MLOAD SWAP2 MSTORE SWAP1 MULMOD SWAP9 PUSH1 0x0 DUP1 MLOAD PUSH1 0x20 PUSH2 0xC816 DUP4 CODECOPY DUP2 MLOAD SWAP2 MSTORE SWAP1 MULMOD SWAP6 PUSH1 0x0 DUP1 MLOAD PUSH1 0x20 PUSH2 0xC996 DUP4 CODECOPY DUP2 MLOAD SWAP2 MSTORE SWAP1 MULMOD SWAP4 PUSH1 0x0 DUP1 MLOAD PUSH1 0x20 PUSH2 0xCA36 DUP4 CODECOPY DUP2 MLOAD SWAP2 MSTORE SWAP1 MULMOD SWAP2 PUSH1 0x0 DUP1 MLOAD PUSH1 0x20 PUSH2 0xC9F6 DUP4 CODECOPY DUP2 MLOAD SWAP2 MSTORE SWAP1 MULMOD ADD ADD ADD MOD ADD PUSH1 0xC0 MSTORE JUMP JUMPDEST PUSH1 0x0 MLOAD PUSH32 0x29170E3322B3D8D5C78C84BABBB470ADF1622493CE83E95CFB151CF757BDE5D6 ADD PUSH1 0x20 MLOAD PUSH32 0x19F6A8124B19E33AF33E5D3873F9C335C6F09A45486CAB536DD596CA41D9519 ADD SWAP1 PUSH1 0x80 MLOAD PUSH32 0x1904AA4D6908544A8B348E9DB1981C27009ED8EA171518AE5405D036242B60E9 ADD PUSH1 0xA0 MLOAD PUSH32 0x26F17873949BC679F7F043956694E422B3CEE1DE9DD6F6473B932A476455FF1A ADD SWAP3 PUSH1 0xC0 MLOAD PUSH32 0x1AC668F612B8243C193B33720B8AA54040C476031197131EBDCAC9B18BC48F75 ADD PUSH1 0x0 DUP1 MLOAD PUSH1 0x20 PUSH2 0xC936 DUP4 CODECOPY DUP2 MLOAD SWAP2 MSTORE DUP1 DUP1 DUP1 DUP1 DUP1 DUP10 DUP2 DUP1 DUP3 DUP2 SWAP14 MULMOD DUP1 MULMOD MULMOD SWAP6 DUP11 DUP3 DUP1 DUP1 PUSH1 0x0 DUP1 MLOAD PUSH1 0x20 PUSH2 0xC9D6 DUP4 CODECOPY DUP2 MLOAD SWAP2 MSTORE DUP6 MULMOD SWAP3 PUSH1 0x0 DUP1 MLOAD PUSH1 0x20 PUSH2 0xC8B6 DUP4 CODECOPY DUP2 MLOAD SWAP2 MSTORE SWAP1 MULMOD DUP2 PUSH1 0x0 DUP1 MLOAD PUSH1 0x20 PUSH2 0xCA56 DUP4 CODECOPY DUP2 MLOAD SWAP2 MSTORE DUP14 MULMOD DUP3 PUSH1 0x0 DUP1 MLOAD PUSH1 0x20 PUSH2 0xC976 DUP4 CODECOPY DUP2 MLOAD SWAP2 MSTORE DUP14 MULMOD DUP4 PUSH1 0x0 DUP1 MLOAD PUSH1 0x20 PUSH2 0xCA96 DUP4 CODECOPY DUP2 MLOAD SWAP2 MSTORE DUP14 MULMOD ADD ADD ADD MOD ADD PUSH1 0x0 MSTORE DUP11 DUP3 DUP1 DUP1 PUSH1 0x0 DUP1 MLOAD PUSH1 0x20 PUSH2 0xCAF6 DUP4 CODECOPY DUP2 MLOAD SWAP2 MSTORE DUP6 MULMOD SWAP3 PUSH1 0x0 DUP1 MLOAD PUSH1 0x20 PUSH2 0xC8D6 DUP4 CODECOPY DUP2 MLOAD SWAP2 MSTORE SWAP1 MULMOD DUP2 PUSH1 0x0 DUP1 MLOAD PUSH1 0x20 PUSH2 0xCA16 DUP4 CODECOPY DUP2 MLOAD SWAP2 MSTORE DUP14 MULMOD DUP3 PUSH1 0x0 DUP1 MLOAD PUSH1 0x20 PUSH2 0xCAB6 DUP4 CODECOPY DUP2 MLOAD SWAP2 MSTORE DUP14 MULMOD DUP4 PUSH1 0x0 DUP1 MLOAD PUSH1 0x20 PUSH2 0xC856 DUP4 CODECOPY DUP2 MLOAD SWAP2 MSTORE DUP14 MULMOD ADD ADD ADD MOD ADD PUSH1 0x20 MSTORE DUP11 DUP3 DUP1 DUP1 PUSH1 0x0 DUP1 MLOAD PUSH1 0x20 PUSH2 0xC836 DUP4 CODECOPY DUP2 MLOAD SWAP2 MSTORE DUP6 MULMOD SWAP3 PUSH1 0x0 DUP1 MLOAD PUSH1 0x20 PUSH2 0xC9B6 DUP4 CODECOPY DUP2 MLOAD SWAP2 MSTORE SWAP1 MULMOD DUP2 PUSH1 0x0 DUP1 MLOAD PUSH1 0x20 PUSH2 0xC956 DUP4 CODECOPY DUP2 MLOAD SWAP2 MSTORE DUP14 MULMOD DUP3 PUSH1 0x0 DUP1 MLOAD PUSH1 0x20 PUSH2 0xC916 DUP4 CODECOPY DUP2 MLOAD SWAP2 MSTORE DUP14 MULMOD DUP4 PUSH1 0x0 DUP1 MLOAD PUSH1 0x20 PUSH2 0xC7D6 DUP4 CODECOPY DUP2 MLOAD SWAP2 MSTORE DUP14 MULMOD ADD ADD ADD MOD ADD PUSH1 0x80 MSTORE DUP11 DUP3 DUP1 DUP1 PUSH1 0x0 DUP1 MLOAD PUSH1 0x20 PUSH2 0xC7F6 DUP4 CODECOPY DUP2 MLOAD SWAP2 MSTORE DUP6 MULMOD SWAP3 PUSH1 0x0 DUP1 MLOAD PUSH1 0x20 PUSH2 0xC8F6 DUP4 CODECOPY DUP2 MLOAD SWAP2 MSTORE SWAP1 MULMOD DUP2 PUSH1 0x0 DUP1 MLOAD PUSH1 0x20 PUSH2 0xC896 DUP4 CODECOPY DUP2 MLOAD SWAP2 MSTORE DUP14 MULMOD DUP3 PUSH1 0x0 DUP1 MLOAD PUSH1 0x20 PUSH2 0xCA76 DUP4 CODECOPY DUP2 MLOAD SWAP2 MSTORE DUP14 MULMOD DUP4 PUSH1 0x0 DUP1 MLOAD PUSH1 0x20 PUSH2 0xCAD6 DUP4 CODECOPY DUP2 MLOAD SWAP2 MSTORE DUP14 MULMOD ADD ADD ADD MOD ADD PUSH1 0xA0 MSTORE PUSH1 0x0 DUP1 MLOAD PUSH1 0x20 PUSH2 0xC876 DUP4 CODECOPY DUP2 MLOAD SWAP2 MSTORE SWAP1 MULMOD SWAP9 PUSH1 0x0 DUP1 MLOAD PUSH1 0x20 PUSH2 0xC816 DUP4 CODECOPY DUP2 MLOAD SWAP2 MSTORE SWAP1 MULMOD SWAP6 PUSH1 0x0 DUP1 MLOAD PUSH1 0x20 PUSH2 0xC996 DUP4 CODECOPY DUP2 MLOAD SWAP2 MSTORE SWAP1 MULMOD SWAP4 PUSH1 0x0 DUP1 MLOAD PUSH1 0x20 PUSH2 0xCA36 DUP4 CODECOPY DUP2 MLOAD SWAP2 MSTORE SWAP1 MULMOD SWAP2 PUSH1 0x0 DUP1 MLOAD PUSH1 0x20 PUSH2 0xC9F6 DUP4 CODECOPY DUP2 MLOAD SWAP2 MSTORE SWAP1 MULMOD ADD ADD ADD MOD ADD PUSH1 0xC0 MSTORE JUMP JUMPDEST PUSH1 0x0 MLOAD PUSH32 0x996D961A75C0D07196DAE45BF624766CCFBF8555BE9796DA52F81568EF0663D ADD PUSH1 0x20 MLOAD PUSH32 0x30C97E1B8CAD1D4FD50D1B4383FBE6674D171F99C63FEBB5425B395C24FC819 ADD SWAP1 PUSH1 0x80 MLOAD PUSH32 0x6E3AD6A46900E2D3953370255B68F89B3E523F1FE502642EE226F2D8BD0848F ADD PUSH1 0xA0 MLOAD PUSH32 0x1D6B3755331CD0216B6880E42F9880F565CB94B0E0455153A329890588CC916E ADD SWAP3 PUSH1 0xC0 MLOAD PUSH32 0x28E4DCBA4B96F12A59B041535E730AC8C35189DC0B85AC033DD38C08BAE531F2 ADD PUSH1 0x0 DUP1 MLOAD PUSH1 0x20 PUSH2 0xC936 DUP4 CODECOPY DUP2 MLOAD SWAP2 MSTORE DUP1 DUP1 DUP1 DUP1 DUP1 DUP10 DUP2 DUP1 DUP3 DUP2 SWAP14 MULMOD DUP1 MULMOD MULMOD SWAP6 DUP11 DUP3 DUP1 DUP1 PUSH1 0x0 DUP1 MLOAD PUSH1 0x20 PUSH2 0xC9D6 DUP4 CODECOPY DUP2 MLOAD SWAP2 MSTORE DUP6 MULMOD SWAP3 PUSH1 0x0 DUP1 MLOAD PUSH1 0x20 PUSH2 0xC8B6 DUP4 CODECOPY DUP2 MLOAD SWAP2 MSTORE SWAP1 MULMOD DUP2 PUSH1 0x0 DUP1 MLOAD PUSH1 0x20 PUSH2 0xCA56 DUP4 CODECOPY DUP2 MLOAD SWAP2 MSTORE DUP14 MULMOD DUP3 PUSH1 0x0 DUP1 MLOAD PUSH1 0x20 PUSH2 0xC976 DUP4 CODECOPY DUP2 MLOAD SWAP2 MSTORE DUP14 MULMOD DUP4 PUSH1 0x0 DUP1 MLOAD PUSH1 0x20 PUSH2 0xCA96 DUP4 CODECOPY DUP2 MLOAD SWAP2 MSTORE DUP14 MULMOD ADD ADD ADD MOD ADD PUSH1 0x0 MSTORE DUP11 DUP3 DUP1 DUP1 PUSH1 0x0 DUP1 MLOAD PUSH1 0x20 PUSH2 0xCAF6 DUP4 CODECOPY DUP2 MLOAD SWAP2 MSTORE DUP6 MULMOD SWAP3 PUSH1 0x0 DUP1 MLOAD PUSH1 0x20 PUSH2 0xC8D6 DUP4 CODECOPY DUP2 MLOAD SWAP2 MSTORE SWAP1 MULMOD DUP2 PUSH1 0x0 DUP1 MLOAD PUSH1 0x20 PUSH2 0xCA16 DUP4 CODECOPY DUP2 MLOAD SWAP2 MSTORE DUP14 MULMOD DUP3 PUSH1 0x0 DUP1 MLOAD PUSH1 0x20 PUSH2 0xCAB6 DUP4 CODECOPY DUP2 MLOAD SWAP2 MSTORE DUP14 MULMOD DUP4 PUSH1 0x0 DUP1 MLOAD PUSH1 0x20 PUSH2 0xC856 DUP4 CODECOPY DUP2 MLOAD SWAP2 MSTORE DUP14 MULMOD ADD ADD ADD MOD ADD PUSH1 0x20 MSTORE DUP11 DUP3 DUP1 DUP1 PUSH1 0x0 DUP1 MLOAD PUSH1 0x20 PUSH2 0xC836 DUP4 CODECOPY DUP2 MLOAD SWAP2 MSTORE DUP6 MULMOD SWAP3 PUSH1 0x0 DUP1 MLOAD PUSH1 0x20 PUSH2 0xC9B6 DUP4 CODECOPY DUP2 MLOAD SWAP2 MSTORE SWAP1 MULMOD DUP2 PUSH1 0x0 DUP1 MLOAD PUSH1 0x20 PUSH2 0xC956 DUP4 CODECOPY DUP2 MLOAD SWAP2 MSTORE DUP14 MULMOD DUP3 PUSH1 0x0 DUP1 MLOAD PUSH1 0x20 PUSH2 0xC916 DUP4 CODECOPY DUP2 MLOAD SWAP2 MSTORE DUP14 MULMOD DUP4 PUSH1 0x0 DUP1 MLOAD PUSH1 0x20 PUSH2 0xC7D6 DUP4 CODECOPY DUP2 MLOAD SWAP2 MSTORE DUP14 MULMOD ADD ADD ADD MOD ADD PUSH1 0x80 MSTORE DUP11 DUP3 DUP1 DUP1 PUSH1 0x0 DUP1 MLOAD PUSH1 0x20 PUSH2 0xC7F6 DUP4 CODECOPY DUP2 MLOAD SWAP2 MSTORE DUP6 MULMOD SWAP3 PUSH1 0x0 DUP1 MLOAD PUSH1 0x20 PUSH2 0xC8F6 DUP4 CODECOPY DUP2 MLOAD SWAP2 MSTORE SWAP1 MULMOD DUP2 PUSH1 0x0 DUP1 MLOAD PUSH1 0x20 PUSH2 0xC896 DUP4 CODECOPY DUP2 MLOAD SWAP2 MSTORE DUP14 MULMOD DUP3 PUSH1 0x0 DUP1 MLOAD PUSH1 0x20 PUSH2 0xCA76 DUP4 CODECOPY DUP2 MLOAD SWAP2 MSTORE DUP14 MULMOD DUP4 PUSH1 0x0 DUP1 MLOAD PUSH1 0x20 PUSH2 0xCAD6 DUP4 CODECOPY DUP2 MLOAD SWAP2 MSTORE DUP14 MULMOD ADD ADD ADD MOD ADD PUSH1 0xA0 MSTORE PUSH1 0x0 DUP1 MLOAD PUSH1 0x20 PUSH2 0xC876 DUP4 CODECOPY DUP2 MLOAD SWAP2 MSTORE SWAP1 MULMOD SWAP9 PUSH1 0x0 DUP1 MLOAD PUSH1 0x20 PUSH2 0xC816 DUP4 CODECOPY DUP2 MLOAD SWAP2 MSTORE SWAP1 MULMOD SWAP6 PUSH1 0x0 DUP1 MLOAD PUSH1 0x20 PUSH2 0xC996 DUP4 CODECOPY DUP2 MLOAD SWAP2 MSTORE SWAP1 MULMOD SWAP4 PUSH1 0x0 DUP1 MLOAD PUSH1 0x20 PUSH2 0xCA36 DUP4 CODECOPY DUP2 MLOAD SWAP2 MSTORE SWAP1 MULMOD SWAP2 PUSH1 0x0 DUP1 MLOAD PUSH1 0x20 PUSH2 0xC9F6 DUP4 CODECOPY DUP2 MLOAD SWAP2 MSTORE SWAP1 MULMOD ADD ADD ADD MOD ADD PUSH1 0xC0 MSTORE JUMP JUMPDEST PUSH1 0x0 MLOAD PUSH32 0x8B6086046A835508CCF484F2974B6A6B0712A476260376C7A3B3E4BC4A47A14 ADD PUSH1 0x20 MLOAD PUSH32 0x162CD2CA7FE3B5F1444BCEC97812019BB6FD85FBA6A0536A89643E15B9BB3B52 ADD SWAP1 PUSH1 0x80 MLOAD PUSH32 0x28F1E03BAAEA9BBC05AF5B11937E4F5CB5C9A9C1192063D1998C01C64D483A76 ADD PUSH1 0xA0 MLOAD PUSH32 0x1BDB062778D7C15DA395AF2734C25FAA0127D2AAB4AA71366031A0BB6791CE10 ADD SWAP3 PUSH1 0xC0 MLOAD PUSH32 0x2375839502E09890CB2914E829627E0E0FC98870B2324A8B50329EBDD24749CB ADD PUSH1 0x0 DUP1 MLOAD PUSH1 0x20 PUSH2 0xC936 DUP4 CODECOPY DUP2 MLOAD SWAP2 MSTORE DUP1 DUP1 DUP1 DUP1 DUP1 DUP10 DUP2 DUP1 DUP3 DUP2 SWAP14 MULMOD DUP1 MULMOD MULMOD SWAP6 DUP11 DUP3 DUP1 DUP1 PUSH1 0x0 DUP1 MLOAD PUSH1 0x20 PUSH2 0xC9D6 DUP4 CODECOPY DUP2 MLOAD SWAP2 MSTORE DUP6 MULMOD SWAP3 PUSH1 0x0 DUP1 MLOAD PUSH1 0x20 PUSH2 0xC8B6 DUP4 CODECOPY DUP2 MLOAD SWAP2 MSTORE SWAP1 MULMOD DUP2 PUSH1 0x0 DUP1 MLOAD PUSH1 0x20 PUSH2 0xCA56 DUP4 CODECOPY DUP2 MLOAD SWAP2 MSTORE DUP14 MULMOD DUP3 PUSH1 0x0 DUP1 MLOAD PUSH1 0x20 PUSH2 0xC976 DUP4 CODECOPY DUP2 MLOAD SWAP2 MSTORE DUP14 MULMOD DUP4 PUSH1 0x0 DUP1 MLOAD PUSH1 0x20 PUSH2 0xCA96 DUP4 CODECOPY DUP2 MLOAD SWAP2 MSTORE DUP14 MULMOD ADD ADD ADD MOD ADD PUSH1 0x0 MSTORE DUP11 DUP3 DUP1 DUP1 PUSH1 0x0 DUP1 MLOAD PUSH1 0x20 PUSH2 0xCAF6 DUP4 CODECOPY DUP2 MLOAD SWAP2 MSTORE DUP6 MULMOD SWAP3 PUSH1 0x0 DUP1 MLOAD PUSH1 0x20 PUSH2 0xC8D6 DUP4 CODECOPY DUP2 MLOAD SWAP2 MSTORE SWAP1 MULMOD DUP2 PUSH1 0x0 DUP1 MLOAD PUSH1 0x20 PUSH2 0xCA16 DUP4 CODECOPY DUP2 MLOAD SWAP2 MSTORE DUP14 MULMOD DUP3 PUSH1 0x0 DUP1 MLOAD PUSH1 0x20 PUSH2 0xCAB6 DUP4 CODECOPY DUP2 MLOAD SWAP2 MSTORE DUP14 MULMOD DUP4 PUSH1 0x0 DUP1 MLOAD PUSH1 0x20 PUSH2 0xC856 DUP4 CODECOPY DUP2 MLOAD SWAP2 MSTORE DUP14 MULMOD ADD ADD ADD MOD ADD PUSH1 0x20 MSTORE DUP11 DUP3 DUP1 DUP1 PUSH1 0x0 DUP1 MLOAD PUSH1 0x20 PUSH2 0xC836 DUP4 CODECOPY DUP2 MLOAD SWAP2 MSTORE DUP6 MULMOD SWAP3 PUSH1 0x0 DUP1 MLOAD PUSH1 0x20 PUSH2 0xC9B6 DUP4 CODECOPY DUP2 MLOAD SWAP2 MSTORE SWAP1 MULMOD DUP2 PUSH1 0x0 DUP1 MLOAD PUSH1 0x20 PUSH2 0xC956 DUP4 CODECOPY DUP2 MLOAD SWAP2 MSTORE DUP14 MULMOD DUP3 PUSH1 0x0 DUP1 MLOAD PUSH1 0x20 PUSH2 0xC916 DUP4 CODECOPY DUP2 MLOAD SWAP2 MSTORE DUP14 MULMOD DUP4 PUSH1 0x0 DUP1 MLOAD PUSH1 0x20 PUSH2 0xC7D6 DUP4 CODECOPY DUP2 MLOAD SWAP2 MSTORE DUP14 MULMOD ADD ADD ADD MOD ADD PUSH1 0x80 MSTORE DUP11 DUP3 DUP1 DUP1 PUSH1 0x0 DUP1 MLOAD PUSH1 0x20 PUSH2 0xC7F6 DUP4 CODECOPY DUP2 MLOAD SWAP2 MSTORE DUP6 MULMOD SWAP3 PUSH1 0x0 DUP1 MLOAD PUSH1 0x20 PUSH2 0xC8F6 DUP4 CODECOPY DUP2 MLOAD SWAP2 MSTORE SWAP1 MULMOD DUP2 PUSH1 0x0 DUP1 MLOAD PUSH1 0x20 PUSH2 0xC896 DUP4 CODECOPY DUP2 MLOAD SWAP2 MSTORE DUP14 MULMOD DUP3 PUSH1 0x0 DUP1 MLOAD PUSH1 0x20 PUSH2 0xCA76 DUP4 CODECOPY DUP2 MLOAD SWAP2 MSTORE DUP14 MULMOD DUP4 PUSH1 0x0 DUP1 MLOAD PUSH1 0x20 PUSH2 0xCAD6 DUP4 CODECOPY DUP2 MLOAD SWAP2 MSTORE DUP14 MULMOD ADD ADD ADD MOD ADD PUSH1 0xA0 MSTORE PUSH1 0x0 DUP1 MLOAD PUSH1 0x20 PUSH2 0xC876 DUP4 CODECOPY DUP2 MLOAD SWAP2 MSTORE SWAP1 MULMOD SWAP9 PUSH1 0x0 DUP1 MLOAD PUSH1 0x20 PUSH2 0xC816 DUP4 CODECOPY DUP2 MLOAD SWAP2 MSTORE SWAP1 MULMOD SWAP6 PUSH1 0x0 DUP1 MLOAD PUSH1 0x20 PUSH2 0xC996 DUP4 CODECOPY DUP2 MLOAD SWAP2 MSTORE SWAP1 MULMOD SWAP4 PUSH1 0x0 DUP1 MLOAD PUSH1 0x20 PUSH2 0xCA36 DUP4 CODECOPY DUP2 MLOAD SWAP2 MSTORE SWAP1 MULMOD SWAP2 PUSH1 0x0 DUP1 MLOAD PUSH1 0x20 PUSH2 0xC9F6 DUP4 CODECOPY DUP2 MLOAD SWAP2 MSTORE SWAP1 MULMOD ADD ADD ADD MOD ADD PUSH1 0xC0 MSTORE JUMP JUMPDEST PUSH1 0x0 MLOAD PUSH32 0x1FA8662FBCB61FB3AD7C55668DC9423A332DC87CFB2DF456E92D33611ED7BB50 ADD PUSH1 0x20 MLOAD PUSH32 0x1E4FAD2DD6B0A6F1F8707F721716C8A446E2FB2C47A5138F3F7F9736079D7694 ADD SWAP1 PUSH1 0x80 MLOAD PUSH32 0x211256D16C7269FD6DF6F5FCDD1FA788BA3BD050059F53D261B0F5F13731FFE7 ADD PUSH1 0xA0 MLOAD PUSH32 0x2E49084B336ECEAA4F8E2A2E6AF08318F42060E574DDA341F4A1079B12BCC5A5 ADD SWAP3 PUSH1 0xC0 MLOAD PUSH32 0xCE19F54CDC39F7F3BF35192AC6808211AECEA08DFE14CAB758D25891FB00BB9 ADD PUSH1 0x0 DUP1 MLOAD PUSH1 0x20 PUSH2 0xC936 DUP4 CODECOPY DUP2 MLOAD SWAP2 MSTORE DUP1 DUP1 DUP1 DUP1 DUP1 DUP10 DUP2 DUP1 DUP3 DUP2 SWAP14 MULMOD DUP1 MULMOD MULMOD SWAP6 DUP11 DUP3 DUP1 DUP1 PUSH1 0x0 DUP1 MLOAD PUSH1 0x20 PUSH2 0xC9D6 DUP4 CODECOPY DUP2 MLOAD SWAP2 MSTORE DUP6 MULMOD SWAP3 PUSH1 0x0 DUP1 MLOAD PUSH1 0x20 PUSH2 0xC8B6 DUP4 CODECOPY DUP2 MLOAD SWAP2 MSTORE SWAP1 MULMOD DUP2 PUSH1 0x0 DUP1 MLOAD PUSH1 0x20 PUSH2 0xCA56 DUP4 CODECOPY DUP2 MLOAD SWAP2 MSTORE DUP14 MULMOD DUP3 PUSH1 0x0 DUP1 MLOAD PUSH1 0x20 PUSH2 0xC976 DUP4 CODECOPY DUP2 MLOAD SWAP2 MSTORE DUP14 MULMOD DUP4 PUSH1 0x0 DUP1 MLOAD PUSH1 0x20 PUSH2 0xCA96 DUP4 CODECOPY DUP2 MLOAD SWAP2 MSTORE DUP14 MULMOD ADD ADD ADD MOD ADD PUSH1 0x0 MSTORE DUP11 DUP3 DUP1 DUP1 PUSH1 0x0 DUP1 MLOAD PUSH1 0x20 PUSH2 0xCAF6 DUP4 CODECOPY DUP2 MLOAD SWAP2 MSTORE DUP6 MULMOD SWAP3 PUSH1 0x0 DUP1 MLOAD PUSH1 0x20 PUSH2 0xC8D6 DUP4 CODECOPY DUP2 MLOAD SWAP2 MSTORE SWAP1 MULMOD DUP2 PUSH1 0x0 DUP1 MLOAD PUSH1 0x20 PUSH2 0xCA16 DUP4 CODECOPY DUP2 MLOAD SWAP2 MSTORE DUP14 MULMOD DUP3 PUSH1 0x0 DUP1 MLOAD PUSH1 0x20 PUSH2 0xCAB6 DUP4 CODECOPY DUP2 MLOAD SWAP2 MSTORE DUP14 MULMOD DUP4 PUSH1 0x0 DUP1 MLOAD PUSH1 0x20 PUSH2 0xC856 DUP4 CODECOPY DUP2 MLOAD SWAP2 MSTORE DUP14 MULMOD ADD ADD ADD MOD ADD PUSH1 0x20 MSTORE DUP11 DUP3 DUP1 DUP1 PUSH1 0x0 DUP1 MLOAD PUSH1 0x20 PUSH2 0xC836 DUP4 CODECOPY DUP2 MLOAD SWAP2 MSTORE DUP6 MULMOD SWAP3 PUSH1 0x0 DUP1 MLOAD PUSH1 0x20 PUSH2 0xC9B6 DUP4 CODECOPY DUP2 MLOAD SWAP2 MSTORE SWAP1 MULMOD DUP2 PUSH1 0x0 DUP1 MLOAD PUSH1 0x20 PUSH2 0xC956 DUP4 CODECOPY DUP2 MLOAD SWAP2 MSTORE DUP14 MULMOD DUP3 PUSH1 0x0 DUP1 MLOAD PUSH1 0x20 PUSH2 0xC916 DUP4 CODECOPY DUP2 MLOAD SWAP2 MSTORE DUP14 MULMOD DUP4 PUSH1 0x0 DUP1 MLOAD PUSH1 0x20 PUSH2 0xC7D6 DUP4 CODECOPY DUP2 MLOAD SWAP2 MSTORE DUP14 MULMOD ADD ADD ADD MOD ADD PUSH1 0x80 MSTORE DUP11 DUP3 DUP1 DUP1 PUSH1 0x0 DUP1 MLOAD PUSH1 0x20 PUSH2 0xC7F6 DUP4 CODECOPY DUP2 MLOAD SWAP2 MSTORE DUP6 MULMOD SWAP3 PUSH1 0x0 DUP1 MLOAD PUSH1 0x20 PUSH2 0xC8F6 DUP4 CODECOPY DUP2 MLOAD SWAP2 MSTORE SWAP1 MULMOD DUP2 PUSH1 0x0 DUP1 MLOAD PUSH1 0x20 PUSH2 0xC896 DUP4 CODECOPY DUP2 MLOAD SWAP2 MSTORE DUP14 MULMOD DUP3 PUSH1 0x0 DUP1 MLOAD PUSH1 0x20 PUSH2 0xCA76 DUP4 CODECOPY DUP2 MLOAD SWAP2 MSTORE DUP14 MULMOD DUP4 PUSH1 0x0 DUP1 MLOAD PUSH1 0x20 PUSH2 0xCAD6 DUP4 CODECOPY DUP2 MLOAD SWAP2 MSTORE DUP14 MULMOD ADD ADD ADD MOD ADD PUSH1 0xA0 MSTORE PUSH1 0x0 DUP1 MLOAD PUSH1 0x20 PUSH2 0xC876 DUP4 CODECOPY DUP2 MLOAD SWAP2 MSTORE SWAP1 MULMOD SWAP9 PUSH1 0x0 DUP1 MLOAD PUSH1 0x20 PUSH2 0xC816 DUP4 CODECOPY DUP2 MLOAD SWAP2 MSTORE SWAP1 MULMOD SWAP6 PUSH1 0x0 DUP1 MLOAD PUSH1 0x20 PUSH2 0xC996 DUP4 CODECOPY DUP2 MLOAD SWAP2 MSTORE SWAP1 MULMOD SWAP4 PUSH1 0x0 DUP1 MLOAD PUSH1 0x20 PUSH2 0xCA36 DUP4 CODECOPY DUP2 MLOAD SWAP2 MSTORE SWAP1 MULMOD SWAP2 PUSH1 0x0 DUP1 MLOAD PUSH1 0x20 PUSH2 0xC9F6 DUP4 CODECOPY DUP2 MLOAD SWAP2 MSTORE SWAP1 MULMOD ADD ADD ADD MOD ADD PUSH1 0xC0 MSTORE JUMP JUMPDEST PUSH1 0x0 MLOAD PUSH31 0x11C5D56C390E893CC394221261D8748DC60451E4AE4E1C84A8468BAB2C14CB ADD PUSH1 0x20 MLOAD PUSH32 0x17D79FF06B63AC2A8A9E05EE6AF3DBB7CA60E17BFA39B47514A8CD8051579B4C ADD SWAP1 PUSH1 0x80 MLOAD PUSH32 0x19A7D3A446CB5393DC74560093592B06B1A8B35CD6416A2ECAB00173639015FA ADD PUSH1 0xA0 MLOAD PUSH32 0x30C00A0933DCDBA2A808B2E1B9282F331F04596D8928DA7AA6C3C97237037A6 ADD SWAP3 PUSH1 0xC0 MLOAD PUSH32 0x16BCB447CE2D50F3AE25AD080695382E935D2D00184C4ACC9370BE8AAB64139C ADD PUSH1 0x0 DUP1 MLOAD PUSH1 0x20 PUSH2 0xC936 DUP4 CODECOPY DUP2 MLOAD SWAP2 MSTORE DUP1 DUP1 DUP1 DUP1 DUP1 DUP10 DUP2 DUP1 DUP3 DUP2 SWAP14 MULMOD DUP1 MULMOD MULMOD SWAP6 DUP11 DUP3 DUP1 DUP1 PUSH1 0x0 DUP1 MLOAD PUSH1 0x20 PUSH2 0xC9D6 DUP4 CODECOPY DUP2 MLOAD SWAP2 MSTORE DUP6 MULMOD SWAP3 PUSH1 0x0 DUP1 MLOAD PUSH1 0x20 PUSH2 0xC8B6 DUP4 CODECOPY DUP2 MLOAD SWAP2 MSTORE SWAP1 MULMOD DUP2 PUSH1 0x0 DUP1 MLOAD PUSH1 0x20 PUSH2 0xCA56 DUP4 CODECOPY DUP2 MLOAD SWAP2 MSTORE DUP14 MULMOD DUP3 PUSH1 0x0 DUP1 MLOAD PUSH1 0x20 PUSH2 0xC976 DUP4 CODECOPY DUP2 MLOAD SWAP2 MSTORE DUP14 MULMOD DUP4 PUSH1 0x0 DUP1 MLOAD PUSH1 0x20 PUSH2 0xCA96 DUP4 CODECOPY DUP2 MLOAD SWAP2 MSTORE DUP14 MULMOD ADD ADD ADD MOD ADD PUSH1 0x0 MSTORE DUP11 DUP3 DUP1 DUP1 PUSH1 0x0 DUP1 MLOAD PUSH1 0x20 PUSH2 0xCAF6 DUP4 CODECOPY DUP2 MLOAD SWAP2 MSTORE DUP6 MULMOD SWAP3 PUSH1 0x0 DUP1 MLOAD PUSH1 0x20 PUSH2 0xC8D6 DUP4 CODECOPY DUP2 MLOAD SWAP2 MSTORE SWAP1 MULMOD DUP2 PUSH1 0x0 DUP1 MLOAD PUSH1 0x20 PUSH2 0xCA16 DUP4 CODECOPY DUP2 MLOAD SWAP2 MSTORE DUP14 MULMOD DUP3 PUSH1 0x0 DUP1 MLOAD PUSH1 0x20 PUSH2 0xCAB6 DUP4 CODECOPY DUP2 MLOAD SWAP2 MSTORE DUP14 MULMOD DUP4 PUSH1 0x0 DUP1 MLOAD PUSH1 0x20 PUSH2 0xC856 DUP4 CODECOPY DUP2 MLOAD SWAP2 MSTORE DUP14 MULMOD ADD ADD ADD MOD ADD PUSH1 0x20 MSTORE DUP11 DUP3 DUP1 DUP1 PUSH1 0x0 DUP1 MLOAD PUSH1 0x20 PUSH2 0xC836 DUP4 CODECOPY DUP2 MLOAD SWAP2 MSTORE DUP6 MULMOD SWAP3 PUSH1 0x0 DUP1 MLOAD PUSH1 0x20 PUSH2 0xC9B6 DUP4 CODECOPY DUP2 MLOAD SWAP2 MSTORE SWAP1 MULMOD DUP2 PUSH1 0x0 DUP1 MLOAD PUSH1 0x20 PUSH2 0xC956 DUP4 CODECOPY DUP2 MLOAD SWAP2 MSTORE DUP14 MULMOD DUP3 PUSH1 0x0 DUP1 MLOAD PUSH1 0x20 PUSH2 0xC916 DUP4 CODECOPY DUP2 MLOAD SWAP2 MSTORE DUP14 MULMOD DUP4 PUSH1 0x0 DUP1 MLOAD PUSH1 0x20 PUSH2 0xC7D6 DUP4 CODECOPY DUP2 MLOAD SWAP2 MSTORE DUP14 MULMOD ADD ADD ADD MOD ADD PUSH1 0x80 MSTORE DUP11 DUP3 DUP1 DUP1 PUSH1 0x0 DUP1 MLOAD PUSH1 0x20 PUSH2 0xC7F6 DUP4 CODECOPY DUP2 MLOAD SWAP2 MSTORE DUP6 MULMOD SWAP3 PUSH1 0x0 DUP1 MLOAD PUSH1 0x20 PUSH2 0xC8F6 DUP4 CODECOPY DUP2 MLOAD SWAP2 MSTORE SWAP1 MULMOD DUP2 PUSH1 0x0 DUP1 MLOAD PUSH1 0x20 PUSH2 0xC896 DUP4 CODECOPY DUP2 MLOAD SWAP2 MSTORE DUP14 MULMOD DUP3 PUSH1 0x0 DUP1 MLOAD PUSH1 0x20 PUSH2 0xCA76 DUP4 CODECOPY DUP2 MLOAD SWAP2 MSTORE DUP14 MULMOD DUP4 PUSH1 0x0 DUP1 MLOAD PUSH1 0x20 PUSH2 0xCAD6 DUP4 CODECOPY DUP2 MLOAD SWAP2 MSTORE DUP14 MULMOD ADD ADD ADD MOD ADD PUSH1 0xA0 MSTORE PUSH1 0x0 DUP1 MLOAD PUSH1 0x20 PUSH2 0xC876 DUP4 CODECOPY DUP2 MLOAD SWAP2 MSTORE SWAP1 MULMOD SWAP9 PUSH1 0x0 DUP1 MLOAD PUSH1 0x20 PUSH2 0xC816 DUP4 CODECOPY DUP2 MLOAD SWAP2 MSTORE SWAP1 MULMOD SWAP6 PUSH1 0x0 DUP1 MLOAD PUSH1 0x20 PUSH2 0xC996 DUP4 CODECOPY DUP2 MLOAD SWAP2 MSTORE SWAP1 MULMOD SWAP4 PUSH1 0x0 DUP1 MLOAD PUSH1 0x20 PUSH2 0xCA36 DUP4 CODECOPY DUP2 MLOAD SWAP2 MSTORE SWAP1 MULMOD SWAP2 PUSH1 0x0 DUP1 MLOAD PUSH1 0x20 PUSH2 0xC9F6 DUP4 CODECOPY DUP2 MLOAD SWAP2 MSTORE SWAP1 MULMOD ADD ADD ADD MOD ADD PUSH1 0xC0 MSTORE JUMP JUMPDEST PUSH1 0x0 MLOAD PUSH32 0x12341B46B0150AA25EA4EC8715312997E62124F37CAB7B6D39255B7CD66FEB1D ADD PUSH1 0x20 MLOAD PUSH32 0xE86D13917F44050B72A97B2BF610C84002FC28E296D1044DC89212DB6A49FF4 ADD SWAP1 PUSH1 0x80 MLOAD PUSH32 0x8E6EB4089D37D66D357E00B53D7F30D1052A181F8F2EB14D059025B110C7262 ADD PUSH1 0xA0 MLOAD PUSH32 0x2EA123856245F6C84738D15DD1481A0C0415CCB351A1E0CEE10C48CE97CA7B18 ADD SWAP3 PUSH1 0xC0 MLOAD PUSH32 0x2DCA72B2EBCAB8C23446E00330B163104195789025413ABF664DB0F9C84DFA6F ADD PUSH1 0x0 DUP1 MLOAD PUSH1 0x20 PUSH2 0xC936 DUP4 CODECOPY DUP2 MLOAD SWAP2 MSTORE DUP1 DUP1 DUP1 DUP1 DUP1 DUP10 DUP2 DUP1 DUP3 DUP2 SWAP14 MULMOD DUP1 MULMOD MULMOD SWAP6 DUP11 DUP3 DUP1 DUP1 PUSH1 0x0 DUP1 MLOAD PUSH1 0x20 PUSH2 0xC9D6 DUP4 CODECOPY DUP2 MLOAD SWAP2 MSTORE DUP6 MULMOD SWAP3 PUSH1 0x0 DUP1 MLOAD PUSH1 0x20 PUSH2 0xC8B6 DUP4 CODECOPY DUP2 MLOAD SWAP2 MSTORE SWAP1 MULMOD DUP2 PUSH1 0x0 DUP1 MLOAD PUSH1 0x20 PUSH2 0xCA56 DUP4 CODECOPY DUP2 MLOAD SWAP2 MSTORE DUP14 MULMOD DUP3 PUSH1 0x0 DUP1 MLOAD PUSH1 0x20 PUSH2 0xC976 DUP4 CODECOPY DUP2 MLOAD SWAP2 MSTORE DUP14 MULMOD DUP4 PUSH1 0x0 DUP1 MLOAD PUSH1 0x20 PUSH2 0xCA96 DUP4 CODECOPY DUP2 MLOAD SWAP2 MSTORE DUP14 MULMOD ADD ADD ADD MOD ADD PUSH1 0x0 MSTORE DUP11 DUP3 DUP1 DUP1 PUSH1 0x0 DUP1 MLOAD PUSH1 0x20 PUSH2 0xCAF6 DUP4 CODECOPY DUP2 MLOAD SWAP2 MSTORE DUP6 MULMOD SWAP3 PUSH1 0x0 DUP1 MLOAD PUSH1 0x20 PUSH2 0xC8D6 DUP4 CODECOPY DUP2 MLOAD SWAP2 MSTORE SWAP1 MULMOD DUP2 PUSH1 0x0 DUP1 MLOAD PUSH1 0x20 PUSH2 0xCA16 DUP4 CODECOPY DUP2 MLOAD SWAP2 MSTORE DUP14 MULMOD DUP3 PUSH1 0x0 DUP1 MLOAD PUSH1 0x20 PUSH2 0xCAB6 DUP4 CODECOPY DUP2 MLOAD SWAP2 MSTORE DUP14 MULMOD DUP4 PUSH1 0x0 DUP1 MLOAD PUSH1 0x20 PUSH2 0xC856 DUP4 CODECOPY DUP2 MLOAD SWAP2 MSTORE DUP14 MULMOD ADD ADD ADD MOD ADD PUSH1 0x20 MSTORE DUP11 DUP3 DUP1 DUP1 PUSH1 0x0 DUP1 MLOAD PUSH1 0x20 PUSH2 0xC836 DUP4 CODECOPY DUP2 MLOAD SWAP2 MSTORE DUP6 MULMOD SWAP3 PUSH1 0x0 DUP1 MLOAD PUSH1 0x20 PUSH2 0xC9B6 DUP4 CODECOPY DUP2 MLOAD SWAP2 MSTORE SWAP1 MULMOD DUP2 PUSH1 0x0 DUP1 MLOAD PUSH1 0x20 PUSH2 0xC956 DUP4 CODECOPY DUP2 MLOAD SWAP2 MSTORE DUP14 MULMOD DUP3 PUSH1 0x0 DUP1 MLOAD PUSH1 0x20 PUSH2 0xC916 DUP4 CODECOPY DUP2 MLOAD SWAP2 MSTORE DUP14 MULMOD DUP4 PUSH1 0x0 DUP1 MLOAD PUSH1 0x20 PUSH2 0xC7D6 DUP4 CODECOPY DUP2 MLOAD SWAP2 MSTORE DUP14 MULMOD ADD ADD ADD MOD ADD PUSH1 0x80 MSTORE DUP11 DUP3 DUP1 DUP1 PUSH1 0x0 DUP1 MLOAD PUSH1 0x20 PUSH2 0xC7F6 DUP4 CODECOPY DUP2 MLOAD SWAP2 MSTORE DUP6 MULMOD SWAP3 PUSH1 0x0 DUP1 MLOAD PUSH1 0x20 PUSH2 0xC8F6 DUP4 CODECOPY DUP2 MLOAD SWAP2 MSTORE SWAP1 MULMOD DUP2 PUSH1 0x0 DUP1 MLOAD PUSH1 0x20 PUSH2 0xC896 DUP4 CODECOPY DUP2 MLOAD SWAP2 MSTORE DUP14 MULMOD DUP3 PUSH1 0x0 DUP1 MLOAD PUSH1 0x20 PUSH2 0xCA76 DUP4 CODECOPY DUP2 MLOAD SWAP2 MSTORE DUP14 MULMOD DUP4 PUSH1 0x0 DUP1 MLOAD PUSH1 0x20 PUSH2 0xCAD6 DUP4 CODECOPY DUP2 MLOAD SWAP2 MSTORE DUP14 MULMOD ADD ADD ADD MOD ADD PUSH1 0xA0 MSTORE PUSH1 0x0 DUP1 MLOAD PUSH1 0x20 PUSH2 0xC876 DUP4 CODECOPY DUP2 MLOAD SWAP2 MSTORE SWAP1 MULMOD SWAP9 PUSH1 0x0 DUP1 MLOAD PUSH1 0x20 PUSH2 0xC816 DUP4 CODECOPY DUP2 MLOAD SWAP2 MSTORE SWAP1 MULMOD SWAP6 PUSH1 0x0 DUP1 MLOAD PUSH1 0x20 PUSH2 0xC996 DUP4 CODECOPY DUP2 MLOAD SWAP2 MSTORE SWAP1 MULMOD SWAP4 PUSH1 0x0 DUP1 MLOAD PUSH1 0x20 PUSH2 0xCA36 DUP4 CODECOPY DUP2 MLOAD SWAP2 MSTORE SWAP1 MULMOD SWAP2 PUSH1 0x0 DUP1 MLOAD PUSH1 0x20 PUSH2 0xC9F6 DUP4 CODECOPY DUP2 MLOAD SWAP2 MSTORE SWAP1 MULMOD ADD ADD ADD MOD ADD PUSH1 0xC0 MSTORE JUMP JUMPDEST PUSH1 0x0 MLOAD PUSH32 0x6FF9ED50D327E8463329F585EC924B3F2F6B4235F036FA4C64A26CBD42B6A6B ADD PUSH1 0x20 MLOAD PUSH32 0x246A10B7E3E0089947F7C9BDA3D54DF8E2A60E0CCA84EA2AC630A4535AFBF730 ADD SWAP1 PUSH1 0x80 MLOAD PUSH32 0x22A63501C5F04B9018719ED99D700EE52F846A715AE67AD75C96B39D688B6691 ADD PUSH1 0xA0 MLOAD PUSH32 0x2F4C50477F7FD9C671799AC5D2E224CDB9164F58351D8AA140EC07E514FAE937 ADD SWAP3 PUSH1 0xC0 MLOAD PUSH32 0x10FFB7AAD1F51C7D13B17F4D876D9A1E38F0BA8A4A23D4B50CDA32CAD851567E ADD PUSH1 0x0 DUP1 MLOAD PUSH1 0x20 PUSH2 0xC936 DUP4 CODECOPY DUP2 MLOAD SWAP2 MSTORE DUP1 DUP1 DUP1 DUP1 DUP1 DUP10 DUP2 DUP1 DUP3 DUP2 SWAP14 MULMOD DUP1 MULMOD MULMOD SWAP6 DUP11 DUP3 DUP1 DUP1 PUSH1 0x0 DUP1 MLOAD PUSH1 0x20 PUSH2 0xC9D6 DUP4 CODECOPY DUP2 MLOAD SWAP2 MSTORE DUP6 MULMOD SWAP3 PUSH1 0x0 DUP1 MLOAD PUSH1 0x20 PUSH2 0xC8B6 DUP4 CODECOPY DUP2 MLOAD SWAP2 MSTORE SWAP1 MULMOD DUP2 PUSH1 0x0 DUP1 MLOAD PUSH1 0x20 PUSH2 0xCA56 DUP4 CODECOPY DUP2 MLOAD SWAP2 MSTORE DUP14 MULMOD DUP3 PUSH1 0x0 DUP1 MLOAD PUSH1 0x20 PUSH2 0xC976 DUP4 CODECOPY DUP2 MLOAD SWAP2 MSTORE DUP14 MULMOD DUP4 PUSH1 0x0 DUP1 MLOAD PUSH1 0x20 PUSH2 0xCA96 DUP4 CODECOPY DUP2 MLOAD SWAP2 MSTORE DUP14 MULMOD ADD ADD ADD MOD ADD PUSH1 0x0 MSTORE DUP11 DUP3 DUP1 DUP1 PUSH1 0x0 DUP1 MLOAD PUSH1 0x20 PUSH2 0xCAF6 DUP4 CODECOPY DUP2 MLOAD SWAP2 MSTORE DUP6 MULMOD SWAP3 PUSH1 0x0 DUP1 MLOAD PUSH1 0x20 PUSH2 0xC8D6 DUP4 CODECOPY DUP2 MLOAD SWAP2 MSTORE SWAP1 MULMOD DUP2 PUSH1 0x0 DUP1 MLOAD PUSH1 0x20 PUSH2 0xCA16 DUP4 CODECOPY DUP2 MLOAD SWAP2 MSTORE DUP14 MULMOD DUP3 PUSH1 0x0 DUP1 MLOAD PUSH1 0x20 PUSH2 0xCAB6 DUP4 CODECOPY DUP2 MLOAD SWAP2 MSTORE DUP14 MULMOD DUP4 PUSH1 0x0 DUP1 MLOAD PUSH1 0x20 PUSH2 0xC856 DUP4 CODECOPY DUP2 MLOAD SWAP2 MSTORE DUP14 MULMOD ADD ADD ADD MOD ADD PUSH1 0x20 MSTORE DUP11 DUP3 DUP1 DUP1 PUSH1 0x0 DUP1 MLOAD PUSH1 0x20 PUSH2 0xC836 DUP4 CODECOPY DUP2 MLOAD SWAP2 MSTORE DUP6 MULMOD SWAP3 PUSH1 0x0 DUP1 MLOAD PUSH1 0x20 PUSH2 0xC9B6 DUP4 CODECOPY DUP2 MLOAD SWAP2 MSTORE SWAP1 MULMOD DUP2 PUSH1 0x0 DUP1 MLOAD PUSH1 0x20 PUSH2 0xC956 DUP4 CODECOPY DUP2 MLOAD SWAP2 MSTORE DUP14 MULMOD DUP3 PUSH1 0x0 DUP1 MLOAD PUSH1 0x20 PUSH2 0xC916 DUP4 CODECOPY DUP2 MLOAD SWAP2 MSTORE DUP14 MULMOD DUP4 PUSH1 0x0 DUP1 MLOAD PUSH1 0x20 PUSH2 0xC7D6 DUP4 CODECOPY DUP2 MLOAD SWAP2 MSTORE DUP14 MULMOD ADD ADD ADD MOD ADD PUSH1 0x80 MSTORE DUP11 DUP3 DUP1 DUP1 PUSH1 0x0 DUP1 MLOAD PUSH1 0x20 PUSH2 0xC7F6 DUP4 CODECOPY DUP2 MLOAD SWAP2 MSTORE DUP6 MULMOD SWAP3 PUSH1 0x0 DUP1 MLOAD PUSH1 0x20 PUSH2 0xC8F6 DUP4 CODECOPY DUP2 MLOAD SWAP2 MSTORE SWAP1 MULMOD DUP2 PUSH1 0x0 DUP1 MLOAD PUSH1 0x20 PUSH2 0xC896 DUP4 CODECOPY DUP2 MLOAD SWAP2 MSTORE DUP14 MULMOD DUP3 PUSH1 0x0 DUP1 MLOAD PUSH1 0x20 PUSH2 0xCA76 DUP4 CODECOPY DUP2 MLOAD SWAP2 MSTORE DUP14 MULMOD DUP4 PUSH1 0x0 DUP1 MLOAD PUSH1 0x20 PUSH2 0xCAD6 DUP4 CODECOPY DUP2 MLOAD SWAP2 MSTORE DUP14 MULMOD ADD ADD ADD MOD ADD PUSH1 0xA0 MSTORE PUSH1 0x0 DUP1 MLOAD PUSH1 0x20 PUSH2 0xC876 DUP4 CODECOPY DUP2 MLOAD SWAP2 MSTORE SWAP1 MULMOD SWAP9 PUSH1 0x0 DUP1 MLOAD PUSH1 0x20 PUSH2 0xC816 DUP4 CODECOPY DUP2 MLOAD SWAP2 MSTORE SWAP1 MULMOD SWAP6 PUSH1 0x0 DUP1 MLOAD PUSH1 0x20 PUSH2 0xC996 DUP4 CODECOPY DUP2 MLOAD SWAP2 MSTORE SWAP1 MULMOD SWAP4 PUSH1 0x0 DUP1 MLOAD PUSH1 0x20 PUSH2 0xCA36 DUP4 CODECOPY DUP2 MLOAD SWAP2 MSTORE SWAP1 MULMOD SWAP2 PUSH1 0x0 DUP1 MLOAD PUSH1 0x20 PUSH2 0xC9F6 DUP4 CODECOPY DUP2 MLOAD SWAP2 MSTORE SWAP1 MULMOD ADD ADD ADD MOD ADD PUSH1 0xC0 MSTORE JUMP JUMPDEST PUSH1 0x0 MLOAD PUSH32 0xE9CEFDDC3C2D3BEA4D39722532D5420784027352187E7AF1A056935C35803AE ADD PUSH1 0x20 MLOAD PUSH32 0x7AF84A4D3141E7AC23352E6DC6EA4AFA1656F96A33C8978A3E83BDD4BA62B41 ADD SWAP1 PUSH1 0x80 MLOAD PUSH32 0x2D9E31A10AEBC761F8DE00D14B1E566D1A39323D6E89B638E940F3EC8A22C3C5 ADD PUSH1 0xA0 MLOAD PUSH32 0x27F19A6532E66B5333DB1AFD592F66F1D36034B314DAD8447656747BE27E64C7 ADD SWAP3 PUSH1 0xC0 MLOAD PUSH31 0x58FA3C8454D63354B2024C3B4A577A180ED99F8F3155CD7E4D617D47D07FFD ADD PUSH1 0x0 DUP1 MLOAD PUSH1 0x20 PUSH2 0xC936 DUP4 CODECOPY DUP2 MLOAD SWAP2 MSTORE DUP1 DUP1 DUP1 DUP1 DUP1 DUP10 DUP2 DUP1 DUP3 DUP2 SWAP14 MULMOD DUP1 MULMOD MULMOD SWAP6 DUP11 DUP3 DUP1 DUP1 PUSH1 0x0 DUP1 MLOAD PUSH1 0x20 PUSH2 0xC9D6 DUP4 CODECOPY DUP2 MLOAD SWAP2 MSTORE DUP6 MULMOD SWAP3 PUSH1 0x0 DUP1 MLOAD PUSH1 0x20 PUSH2 0xC8B6 DUP4 CODECOPY DUP2 MLOAD SWAP2 MSTORE SWAP1 MULMOD DUP2 PUSH1 0x0 DUP1 MLOAD PUSH1 0x20 PUSH2 0xCA56 DUP4 CODECOPY DUP2 MLOAD SWAP2 MSTORE DUP14 MULMOD DUP3 PUSH1 0x0 DUP1 MLOAD PUSH1 0x20 PUSH2 0xC976 DUP4 CODECOPY DUP2 MLOAD SWAP2 MSTORE DUP14 MULMOD DUP4 PUSH1 0x0 DUP1 MLOAD PUSH1 0x20 PUSH2 0xCA96 DUP4 CODECOPY DUP2 MLOAD SWAP2 MSTORE DUP14 MULMOD ADD ADD ADD MOD ADD PUSH1 0x0 MSTORE DUP11 DUP3 DUP1 DUP1 PUSH1 0x0 DUP1 MLOAD PUSH1 0x20 PUSH2 0xCAF6 DUP4 CODECOPY DUP2 MLOAD SWAP2 MSTORE DUP6 MULMOD SWAP3 PUSH1 0x0 DUP1 MLOAD PUSH1 0x20 PUSH2 0xC8D6 DUP4 CODECOPY DUP2 MLOAD SWAP2 MSTORE SWAP1 MULMOD DUP2 PUSH1 0x0 DUP1 MLOAD PUSH1 0x20 PUSH2 0xCA16 DUP4 CODECOPY DUP2 MLOAD SWAP2 MSTORE DUP14 MULMOD DUP3 PUSH1 0x0 DUP1 MLOAD PUSH1 0x20 PUSH2 0xCAB6 DUP4 CODECOPY DUP2 MLOAD SWAP2 MSTORE DUP14 MULMOD DUP4 PUSH1 0x0 DUP1 MLOAD PUSH1 0x20 PUSH2 0xC856 DUP4 CODECOPY DUP2 MLOAD SWAP2 MSTORE DUP14 MULMOD ADD ADD ADD MOD ADD PUSH1 0x20 MSTORE DUP11 DUP3 DUP1 DUP1 PUSH1 0x0 DUP1 MLOAD PUSH1 0x20 PUSH2 0xC836 DUP4 CODECOPY DUP2 MLOAD SWAP2 MSTORE DUP6 MULMOD SWAP3 PUSH1 0x0 DUP1 MLOAD PUSH1 0x20 PUSH2 0xC9B6 DUP4 CODECOPY DUP2 MLOAD SWAP2 MSTORE SWAP1 MULMOD DUP2 PUSH1 0x0 DUP1 MLOAD PUSH1 0x20 PUSH2 0xC956 DUP4 CODECOPY DUP2 MLOAD SWAP2 MSTORE DUP14 MULMOD DUP3 PUSH1 0x0 DUP1 MLOAD PUSH1 0x20 PUSH2 0xC916 DUP4 CODECOPY DUP2 MLOAD SWAP2 MSTORE DUP14 MULMOD DUP4 PUSH1 0x0 DUP1 MLOAD PUSH1 0x20 PUSH2 0xC7D6 DUP4 CODECOPY DUP2 MLOAD SWAP2 MSTORE DUP14 MULMOD ADD ADD ADD MOD ADD PUSH1 0x80 MSTORE DUP11 DUP3 DUP1 DUP1 PUSH1 0x0 DUP1 MLOAD PUSH1 0x20 PUSH2 0xC7F6 DUP4 CODECOPY DUP2 MLOAD SWAP2 MSTORE DUP6 MULMOD SWAP3 PUSH1 0x0 DUP1 MLOAD PUSH1 0x20 PUSH2 0xC8F6 DUP4 CODECOPY DUP2 MLOAD SWAP2 MSTORE SWAP1 MULMOD DUP2 PUSH1 0x0 DUP1 MLOAD PUSH1 0x20 PUSH2 0xC896 DUP4 CODECOPY DUP2 MLOAD SWAP2 MSTORE DUP14 MULMOD DUP3 PUSH1 0x0 DUP1 MLOAD PUSH1 0x20 PUSH2 0xCA76 DUP4 CODECOPY DUP2 MLOAD SWAP2 MSTORE DUP14 MULMOD DUP4 PUSH1 0x0 DUP1 MLOAD PUSH1 0x20 PUSH2 0xCAD6 DUP4 CODECOPY DUP2 MLOAD SWAP2 MSTORE DUP14 MULMOD ADD ADD ADD MOD ADD PUSH1 0xA0 MSTORE PUSH1 0x0 DUP1 MLOAD PUSH1 0x20 PUSH2 0xC876 DUP4 CODECOPY DUP2 MLOAD SWAP2 MSTORE SWAP1 MULMOD SWAP9 PUSH1 0x0 DUP1 MLOAD PUSH1 0x20 PUSH2 0xC816 DUP4 CODECOPY DUP2 MLOAD SWAP2 MSTORE SWAP1 MULMOD SWAP6 PUSH1 0x0 DUP1 MLOAD PUSH1 0x20 PUSH2 0xC996 DUP4 CODECOPY DUP2 MLOAD SWAP2 MSTORE SWAP1 MULMOD SWAP4 PUSH1 0x0 DUP1 MLOAD PUSH1 0x20 PUSH2 0xCA36 DUP4 CODECOPY DUP2 MLOAD SWAP2 MSTORE SWAP1 MULMOD SWAP2 PUSH1 0x0 DUP1 MLOAD PUSH1 0x20 PUSH2 0xC9F6 DUP4 CODECOPY DUP2 MLOAD SWAP2 MSTORE SWAP1 MULMOD ADD ADD ADD MOD ADD PUSH1 0xC0 MSTORE JUMP JUMPDEST PUSH1 0x0 MLOAD PUSH32 0x41627B6715B780967957C080699343EB0414A205D3A175D708964956816A5D5 ADD PUSH1 0x20 MLOAD PUSH31 0x6AC49DD9253EDC7F632E57B958CCECD98201471CF1F66589888F12B727C52D ADD SWAP1 PUSH1 0x80 MLOAD PUSH32 0x131ADFFD8BD7254B1D8C3616BBE3386EC0C9C0D6D25A9A4EC46A6BF18301398 ADD PUSH1 0xA0 MLOAD PUSH32 0x1C4A6F52C9FCCF7A4138E413EF62A28377977AD7E25E49A3CF030E1CD8F9F5B6 ADD SWAP3 PUSH1 0xC0 MLOAD PUSH32 0x3F2A6BE51EC677F946551B3860EA479FEE048AE2078AEB7D1F7958D2C2645F6 ADD PUSH1 0x0 DUP1 MLOAD PUSH1 0x20 PUSH2 0xC936 DUP4 CODECOPY DUP2 MLOAD SWAP2 MSTORE DUP1 DUP1 DUP1 DUP1 DUP1 DUP10 DUP2 DUP1 DUP3 DUP2 SWAP14 MULMOD DUP1 MULMOD MULMOD SWAP6 DUP11 DUP3 DUP1 DUP1 PUSH1 0x0 DUP1 MLOAD PUSH1 0x20 PUSH2 0xC9D6 DUP4 CODECOPY DUP2 MLOAD SWAP2 MSTORE DUP6 MULMOD SWAP3 PUSH1 0x0 DUP1 MLOAD PUSH1 0x20 PUSH2 0xC8B6 DUP4 CODECOPY DUP2 MLOAD SWAP2 MSTORE SWAP1 MULMOD DUP2 PUSH1 0x0 DUP1 MLOAD PUSH1 0x20 PUSH2 0xCA56 DUP4 CODECOPY DUP2 MLOAD SWAP2 MSTORE DUP14 MULMOD DUP3 PUSH1 0x0 DUP1 MLOAD PUSH1 0x20 PUSH2 0xC976 DUP4 CODECOPY DUP2 MLOAD SWAP2 MSTORE DUP14 MULMOD DUP4 PUSH1 0x0 DUP1 MLOAD PUSH1 0x20 PUSH2 0xCA96 DUP4 CODECOPY DUP2 MLOAD SWAP2 MSTORE DUP14 MULMOD ADD ADD ADD MOD ADD PUSH1 0x0 MSTORE DUP11 DUP3 DUP1 DUP1 PUSH1 0x0 DUP1 MLOAD PUSH1 0x20 PUSH2 0xCAF6 DUP4 CODECOPY DUP2 MLOAD SWAP2 MSTORE DUP6 MULMOD SWAP3 PUSH1 0x0 DUP1 MLOAD PUSH1 0x20 PUSH2 0xC8D6 DUP4 CODECOPY DUP2 MLOAD SWAP2 MSTORE SWAP1 MULMOD DUP2 PUSH1 0x0 DUP1 MLOAD PUSH1 0x20 PUSH2 0xCA16 DUP4 CODECOPY DUP2 MLOAD SWAP2 MSTORE DUP14 MULMOD DUP3 PUSH1 0x0 DUP1 MLOAD PUSH1 0x20 PUSH2 0xCAB6 DUP4 CODECOPY DUP2 MLOAD SWAP2 MSTORE DUP14 MULMOD DUP4 PUSH1 0x0 DUP1 MLOAD PUSH1 0x20 PUSH2 0xC856 DUP4 CODECOPY DUP2 MLOAD SWAP2 MSTORE DUP14 MULMOD ADD ADD ADD MOD ADD PUSH1 0x20 MSTORE DUP11 DUP3 DUP1 DUP1 PUSH1 0x0 DUP1 MLOAD PUSH1 0x20 PUSH2 0xC836 DUP4 CODECOPY DUP2 MLOAD SWAP2 MSTORE DUP6 MULMOD SWAP3 PUSH1 0x0 DUP1 MLOAD PUSH1 0x20 PUSH2 0xC9B6 DUP4 CODECOPY DUP2 MLOAD SWAP2 MSTORE SWAP1 MULMOD DUP2 PUSH1 0x0 DUP1 MLOAD PUSH1 0x20 PUSH2 0xC956 DUP4 CODECOPY DUP2 MLOAD SWAP2 MSTORE DUP14 MULMOD DUP3 PUSH1 0x0 DUP1 MLOAD PUSH1 0x20 PUSH2 0xC916 DUP4 CODECOPY DUP2 MLOAD SWAP2 MSTORE DUP14 MULMOD DUP4 PUSH1 0x0 DUP1 MLOAD PUSH1 0x20 PUSH2 0xC7D6 DUP4 CODECOPY DUP2 MLOAD SWAP2 MSTORE DUP14 MULMOD ADD ADD ADD MOD ADD PUSH1 0x80 MSTORE DUP11 DUP3 DUP1 DUP1 PUSH1 0x0 DUP1 MLOAD PUSH1 0x20 PUSH2 0xC7F6 DUP4 CODECOPY DUP2 MLOAD SWAP2 MSTORE DUP6 MULMOD SWAP3 PUSH1 0x0 DUP1 MLOAD PUSH1 0x20 PUSH2 0xC8F6 DUP4 CODECOPY DUP2 MLOAD SWAP2 MSTORE SWAP1 MULMOD DUP2 PUSH1 0x0 DUP1 MLOAD PUSH1 0x20 PUSH2 0xC896 DUP4 CODECOPY DUP2 MLOAD SWAP2 MSTORE DUP14 MULMOD DUP3 PUSH1 0x0 DUP1 MLOAD PUSH1 0x20 PUSH2 0xCA76 DUP4 CODECOPY DUP2 MLOAD SWAP2 MSTORE DUP14 MULMOD DUP4 PUSH1 0x0 DUP1 MLOAD PUSH1 0x20 PUSH2 0xCAD6 DUP4 CODECOPY DUP2 MLOAD SWAP2 MSTORE DUP14 MULMOD ADD ADD ADD MOD ADD PUSH1 0xA0 MSTORE PUSH1 0x0 DUP1 MLOAD PUSH1 0x20 PUSH2 0xC876 DUP4 CODECOPY DUP2 MLOAD SWAP2 MSTORE SWAP1 MULMOD SWAP9 PUSH1 0x0 DUP1 MLOAD PUSH1 0x20 PUSH2 0xC816 DUP4 CODECOPY DUP2 MLOAD SWAP2 MSTORE SWAP1 MULMOD SWAP6 PUSH1 0x0 DUP1 MLOAD PUSH1 0x20 PUSH2 0xC996 DUP4 CODECOPY DUP2 MLOAD SWAP2 MSTORE SWAP1 MULMOD SWAP4 PUSH1 0x0 DUP1 MLOAD PUSH1 0x20 PUSH2 0xCA36 DUP4 CODECOPY DUP2 MLOAD SWAP2 MSTORE SWAP1 MULMOD SWAP2 PUSH1 0x0 DUP1 MLOAD PUSH1 0x20 PUSH2 0xC9F6 DUP4 CODECOPY DUP2 MLOAD SWAP2 MSTORE SWAP1 MULMOD ADD ADD ADD MOD ADD PUSH1 0xC0 MSTORE JUMP JUMPDEST PUSH1 0x0 MLOAD PUSH32 0x2DA770AAD2C2EB09391A0CB78EF3A9648A1372D8543119564D7376396B8DDC62 ADD PUSH1 0x20 MLOAD PUSH32 0x15278463665F74CDDC1802FEBFAB02CEC9D45FE866C359C738062AFB75D64A03 ADD SWAP1 PUSH1 0x80 MLOAD PUSH32 0x12FE278AA36544EAC9731027090518D434E38EA966A08A6F8D580638AC54C773 ADD PUSH1 0xA0 MLOAD PUSH32 0x149B9C802182558A4C45D119D3F4CC7FD8587604CA4F0D6E21B06FF30B6A23B6 ADD SWAP3 PUSH1 0xC0 MLOAD PUSH32 0x812E7B4D847BC8517D19319772F3C9855E044FD60DBAC9A0ADC4959B691DFE4 ADD PUSH1 0x0 DUP1 MLOAD PUSH1 0x20 PUSH2 0xC936 DUP4 CODECOPY DUP2 MLOAD SWAP2 MSTORE DUP1 DUP1 DUP1 DUP1 DUP1 DUP10 DUP2 DUP1 DUP3 DUP2 SWAP14 MULMOD DUP1 MULMOD MULMOD SWAP6 DUP11 DUP3 DUP1 DUP1 PUSH1 0x0 DUP1 MLOAD PUSH1 0x20 PUSH2 0xC9D6 DUP4 CODECOPY DUP2 MLOAD SWAP2 MSTORE DUP6 MULMOD SWAP3 PUSH1 0x0 DUP1 MLOAD PUSH1 0x20 PUSH2 0xC8B6 DUP4 CODECOPY DUP2 MLOAD SWAP2 MSTORE SWAP1 MULMOD DUP2 PUSH1 0x0 DUP1 MLOAD PUSH1 0x20 PUSH2 0xCA56 DUP4 CODECOPY DUP2 MLOAD SWAP2 MSTORE DUP14 MULMOD DUP3 PUSH1 0x0 DUP1 MLOAD PUSH1 0x20 PUSH2 0xC976 DUP4 CODECOPY DUP2 MLOAD SWAP2 MSTORE DUP14 MULMOD DUP4 PUSH1 0x0 DUP1 MLOAD PUSH1 0x20 PUSH2 0xCA96 DUP4 CODECOPY DUP2 MLOAD SWAP2 MSTORE DUP14 MULMOD ADD ADD ADD MOD ADD PUSH1 0x0 MSTORE DUP11 DUP3 DUP1 DUP1 PUSH1 0x0 DUP1 MLOAD PUSH1 0x20 PUSH2 0xCAF6 DUP4 CODECOPY DUP2 MLOAD SWAP2 MSTORE DUP6 MULMOD SWAP3 PUSH1 0x0 DUP1 MLOAD PUSH1 0x20 PUSH2 0xC8D6 DUP4 CODECOPY DUP2 MLOAD SWAP2 MSTORE SWAP1 MULMOD DUP2 PUSH1 0x0 DUP1 MLOAD PUSH1 0x20 PUSH2 0xCA16 DUP4 CODECOPY DUP2 MLOAD SWAP2 MSTORE DUP14 MULMOD DUP3 PUSH1 0x0 DUP1 MLOAD PUSH1 0x20 PUSH2 0xCAB6 DUP4 CODECOPY DUP2 MLOAD SWAP2 MSTORE DUP14 MULMOD DUP4 PUSH1 0x0 DUP1 MLOAD PUSH1 0x20 PUSH2 0xC856 DUP4 CODECOPY DUP2 MLOAD SWAP2 MSTORE DUP14 MULMOD ADD ADD ADD MOD ADD PUSH1 0x20 MSTORE DUP11 DUP3 DUP1 DUP1 PUSH1 0x0 DUP1 MLOAD PUSH1 0x20 PUSH2 0xC836 DUP4 CODECOPY DUP2 MLOAD SWAP2 MSTORE DUP6 MULMOD SWAP3 PUSH1 0x0 DUP1 MLOAD PUSH1 0x20 PUSH2 0xC9B6 DUP4 CODECOPY DUP2 MLOAD SWAP2 MSTORE SWAP1 MULMOD DUP2 PUSH1 0x0 DUP1 MLOAD PUSH1 0x20 PUSH2 0xC956 DUP4 CODECOPY DUP2 MLOAD SWAP2 MSTORE DUP14 MULMOD DUP3 PUSH1 0x0 DUP1 MLOAD PUSH1 0x20 PUSH2 0xC916 DUP4 CODECOPY DUP2 MLOAD SWAP2 MSTORE DUP14 MULMOD DUP4 PUSH1 0x0 DUP1 MLOAD PUSH1 0x20 PUSH2 0xC7D6 DUP4 CODECOPY DUP2 MLOAD SWAP2 MSTORE DUP14 MULMOD ADD ADD ADD MOD ADD PUSH1 0x80 MSTORE DUP11 DUP3 DUP1 DUP1 PUSH1 0x0 DUP1 MLOAD PUSH1 0x20 PUSH2 0xC7F6 DUP4 CODECOPY DUP2 MLOAD SWAP2 MSTORE DUP6 MULMOD SWAP3 PUSH1 0x0 DUP1 MLOAD PUSH1 0x20 PUSH2 0xC8F6 DUP4 CODECOPY DUP2 MLOAD SWAP2 MSTORE SWAP1 MULMOD DUP2 PUSH1 0x0 DUP1 MLOAD PUSH1 0x20 PUSH2 0xC896 DUP4 CODECOPY DUP2 MLOAD SWAP2 MSTORE DUP14 MULMOD DUP3 PUSH1 0x0 DUP1 MLOAD PUSH1 0x20 PUSH2 0xCA76 DUP4 CODECOPY DUP2 MLOAD SWAP2 MSTORE DUP14 MULMOD DUP4 PUSH1 0x0 DUP1 MLOAD PUSH1 0x20 PUSH2 0xCAD6 DUP4 CODECOPY DUP2 MLOAD SWAP2 MSTORE DUP14 MULMOD ADD ADD ADD MOD ADD PUSH1 0xA0 MSTORE PUSH1 0x0 DUP1 MLOAD PUSH1 0x20 PUSH2 0xC876 DUP4 CODECOPY DUP2 MLOAD SWAP2 MSTORE SWAP1 MULMOD SWAP9 PUSH1 0x0 DUP1 MLOAD PUSH1 0x20 PUSH2 0xC816 DUP4 CODECOPY DUP2 MLOAD SWAP2 MSTORE SWAP1 MULMOD SWAP6 PUSH1 0x0 DUP1 MLOAD PUSH1 0x20 PUSH2 0xC996 DUP4 CODECOPY DUP2 MLOAD SWAP2 MSTORE SWAP1 MULMOD SWAP4 PUSH1 0x0 DUP1 MLOAD PUSH1 0x20 PUSH2 0xCA36 DUP4 CODECOPY DUP2 MLOAD SWAP2 MSTORE SWAP1 MULMOD SWAP2 PUSH1 0x0 DUP1 MLOAD PUSH1 0x20 PUSH2 0xC9F6 DUP4 CODECOPY DUP2 MLOAD SWAP2 MSTORE SWAP1 MULMOD ADD ADD ADD MOD ADD PUSH1 0xC0 MSTORE JUMP JUMPDEST PUSH1 0x0 MLOAD PUSH32 0x2ED8D8DDEAFE3D9D8DF7F28A0BFAA7F555813C7E7503AEA2A66973703A0C61B ADD PUSH1 0x20 MLOAD PUSH32 0xEBD073BA0537B514DEB6029F921029E55E5E4D9A03D6B6BA1304038662D4DB8 ADD SWAP1 PUSH1 0x80 MLOAD PUSH32 0x15C754D5B14B2C4205C6BA8D2CCD028255B3E792C6AFA08B44EE75B62EFF9F59 ADD PUSH1 0xA0 MLOAD PUSH32 0x169515C89AC5479DB0ED8FA6FA311B391CC1235270F4CBC5C29E7CBC30E8732A ADD SWAP3 PUSH1 0xC0 MLOAD PUSH32 0x25479FBFB3A68F982388F2621001101608BDC29F6FF037696D9161F5CD9A4FEF ADD PUSH1 0x0 DUP1 MLOAD PUSH1 0x20 PUSH2 0xC936 DUP4 CODECOPY DUP2 MLOAD SWAP2 MSTORE DUP1 DUP1 DUP1 DUP1 DUP1 DUP10 DUP2 DUP1 DUP3 DUP2 SWAP14 MULMOD DUP1 MULMOD MULMOD SWAP6 DUP11 DUP3 DUP1 DUP1 PUSH1 0x0 DUP1 MLOAD PUSH1 0x20 PUSH2 0xC9D6 DUP4 CODECOPY DUP2 MLOAD SWAP2 MSTORE DUP6 MULMOD SWAP3 PUSH1 0x0 DUP1 MLOAD PUSH1 0x20 PUSH2 0xC8B6 DUP4 CODECOPY DUP2 MLOAD SWAP2 MSTORE SWAP1 MULMOD DUP2 PUSH1 0x0 DUP1 MLOAD PUSH1 0x20 PUSH2 0xCA56 DUP4 CODECOPY DUP2 MLOAD SWAP2 MSTORE DUP14 MULMOD DUP3 PUSH1 0x0 DUP1 MLOAD PUSH1 0x20 PUSH2 0xC976 DUP4 CODECOPY DUP2 MLOAD SWAP2 MSTORE DUP14 MULMOD DUP4 PUSH1 0x0 DUP1 MLOAD PUSH1 0x20 PUSH2 0xCA96 DUP4 CODECOPY DUP2 MLOAD SWAP2 MSTORE DUP14 MULMOD ADD ADD ADD MOD ADD PUSH1 0x0 MSTORE DUP11 DUP3 DUP1 DUP1 PUSH1 0x0 DUP1 MLOAD PUSH1 0x20 PUSH2 0xCAF6 DUP4 CODECOPY DUP2 MLOAD SWAP2 MSTORE DUP6 MULMOD SWAP3 PUSH1 0x0 DUP1 MLOAD PUSH1 0x20 PUSH2 0xC8D6 DUP4 CODECOPY DUP2 MLOAD SWAP2 MSTORE SWAP1 MULMOD DUP2 PUSH1 0x0 DUP1 MLOAD PUSH1 0x20 PUSH2 0xCA16 DUP4 CODECOPY DUP2 MLOAD SWAP2 MSTORE DUP14 MULMOD DUP3 PUSH1 0x0 DUP1 MLOAD PUSH1 0x20 PUSH2 0xCAB6 DUP4 CODECOPY DUP2 MLOAD SWAP2 MSTORE DUP14 MULMOD DUP4 PUSH1 0x0 DUP1 MLOAD PUSH1 0x20 PUSH2 0xC856 DUP4 CODECOPY DUP2 MLOAD SWAP2 MSTORE DUP14 MULMOD ADD ADD ADD MOD ADD PUSH1 0x20 MSTORE DUP11 DUP3 DUP1 DUP1 PUSH1 0x0 DUP1 MLOAD PUSH1 0x20 PUSH2 0xC836 DUP4 CODECOPY DUP2 MLOAD SWAP2 MSTORE DUP6 MULMOD SWAP3 PUSH1 0x0 DUP1 MLOAD PUSH1 0x20 PUSH2 0xC9B6 DUP4 CODECOPY DUP2 MLOAD SWAP2 MSTORE SWAP1 MULMOD DUP2 PUSH1 0x0 DUP1 MLOAD PUSH1 0x20 PUSH2 0xC956 DUP4 CODECOPY DUP2 MLOAD SWAP2 MSTORE DUP14 MULMOD DUP3 PUSH1 0x0 DUP1 MLOAD PUSH1 0x20 PUSH2 0xC916 DUP4 CODECOPY DUP2 MLOAD SWAP2 MSTORE DUP14 MULMOD DUP4 PUSH1 0x0 DUP1 MLOAD PUSH1 0x20 PUSH2 0xC7D6 DUP4 CODECOPY DUP2 MLOAD SWAP2 MSTORE DUP14 MULMOD ADD ADD ADD MOD ADD PUSH1 0x80 MSTORE DUP11 DUP3 DUP1 DUP1 PUSH1 0x0 DUP1 MLOAD PUSH1 0x20 PUSH2 0xC7F6 DUP4 CODECOPY DUP2 MLOAD SWAP2 MSTORE DUP6 MULMOD SWAP3 PUSH1 0x0 DUP1 MLOAD PUSH1 0x20 PUSH2 0xC8F6 DUP4 CODECOPY DUP2 MLOAD SWAP2 MSTORE SWAP1 MULMOD DUP2 PUSH1 0x0 DUP1 MLOAD PUSH1 0x20 PUSH2 0xC896 DUP4 CODECOPY DUP2 MLOAD SWAP2 MSTORE DUP14 MULMOD DUP3 PUSH1 0x0 DUP1 MLOAD PUSH1 0x20 PUSH2 0xCA76 DUP4 CODECOPY DUP2 MLOAD SWAP2 MSTORE DUP14 MULMOD DUP4 PUSH1 0x0 DUP1 MLOAD PUSH1 0x20 PUSH2 0xCAD6 DUP4 CODECOPY DUP2 MLOAD SWAP2 MSTORE DUP14 MULMOD ADD ADD ADD MOD ADD PUSH1 0xA0 MSTORE PUSH1 0x0 DUP1 MLOAD PUSH1 0x20 PUSH2 0xC876 DUP4 CODECOPY DUP2 MLOAD SWAP2 MSTORE SWAP1 MULMOD SWAP9 PUSH1 0x0 DUP1 MLOAD PUSH1 0x20 PUSH2 0xC816 DUP4 CODECOPY DUP2 MLOAD SWAP2 MSTORE SWAP1 MULMOD SWAP6 PUSH1 0x0 DUP1 MLOAD PUSH1 0x20 PUSH2 0xC996 DUP4 CODECOPY DUP2 MLOAD SWAP2 MSTORE SWAP1 MULMOD SWAP4 PUSH1 0x0 DUP1 MLOAD PUSH1 0x20 PUSH2 0xCA36 DUP4 CODECOPY DUP2 MLOAD SWAP2 MSTORE SWAP1 MULMOD SWAP2 PUSH1 0x0 DUP1 MLOAD PUSH1 0x20 PUSH2 0xC9F6 DUP4 CODECOPY DUP2 MLOAD SWAP2 MSTORE SWAP1 MULMOD ADD ADD ADD MOD ADD PUSH1 0xC0 MSTORE JUMP JUMPDEST PUSH1 0x0 MLOAD PUSH32 0x14475C4BD520451F3C852CB0311A578CA7F8E6E972182196CE09486E94BE6071 ADD PUSH1 0x20 MLOAD PUSH32 0x45A691066CC66BEC9BAF2798833A1DFD3A847502AEC8D5F5C4E73363D097799 ADD SWAP1 PUSH1 0x80 MLOAD PUSH32 0x26029C0C267C799FB833AC8A11E3A3F0147A8CA037221B90013B8BCB37EBA683 ADD PUSH1 0xA0 MLOAD PUSH32 0x163FACB34FF572FBF7C946969C1C260873CE12A6A94A3E45B8101D5B948D1641 ADD SWAP3 PUSH1 0xC0 MLOAD PUSH32 0x2C714E96E1913B351D969320CC69D5EC13E06A6275E58688AF8EE00C4240EE28 ADD PUSH1 0x0 DUP1 MLOAD PUSH1 0x20 PUSH2 0xC936 DUP4 CODECOPY DUP2 MLOAD SWAP2 MSTORE DUP1 DUP1 DUP1 DUP1 DUP1 DUP10 DUP2 DUP1 DUP3 DUP2 SWAP14 MULMOD DUP1 MULMOD MULMOD SWAP6 DUP11 DUP3 DUP1 DUP1 PUSH1 0x0 DUP1 MLOAD PUSH1 0x20 PUSH2 0xC9D6 DUP4 CODECOPY DUP2 MLOAD SWAP2 MSTORE DUP6 MULMOD SWAP3 PUSH1 0x0 DUP1 MLOAD PUSH1 0x20 PUSH2 0xC8B6 DUP4 CODECOPY DUP2 MLOAD SWAP2 MSTORE SWAP1 MULMOD DUP2 PUSH1 0x0 DUP1 MLOAD PUSH1 0x20 PUSH2 0xCA56 DUP4 CODECOPY DUP2 MLOAD SWAP2 MSTORE DUP14 MULMOD DUP3 PUSH1 0x0 DUP1 MLOAD PUSH1 0x20 PUSH2 0xC976 DUP4 CODECOPY DUP2 MLOAD SWAP2 MSTORE DUP14 MULMOD DUP4 PUSH1 0x0 DUP1 MLOAD PUSH1 0x20 PUSH2 0xCA96 DUP4 CODECOPY DUP2 MLOAD SWAP2 MSTORE DUP14 MULMOD ADD ADD ADD MOD ADD PUSH1 0x0 MSTORE DUP11 DUP3 DUP1 DUP1 PUSH1 0x0 DUP1 MLOAD PUSH1 0x20 PUSH2 0xCAF6 DUP4 CODECOPY DUP2 MLOAD SWAP2 MSTORE DUP6 MULMOD SWAP3 PUSH1 0x0 DUP1 MLOAD PUSH1 0x20 PUSH2 0xC8D6 DUP4 CODECOPY DUP2 MLOAD SWAP2 MSTORE SWAP1 MULMOD DUP2 PUSH1 0x0 DUP1 MLOAD PUSH1 0x20 PUSH2 0xCA16 DUP4 CODECOPY DUP2 MLOAD SWAP2 MSTORE DUP14 MULMOD DUP3 PUSH1 0x0 DUP1 MLOAD PUSH1 0x20 PUSH2 0xCAB6 DUP4 CODECOPY DUP2 MLOAD SWAP2 MSTORE DUP14 MULMOD DUP4 PUSH1 0x0 DUP1 MLOAD PUSH1 0x20 PUSH2 0xC856 DUP4 CODECOPY DUP2 MLOAD SWAP2 MSTORE DUP14 MULMOD ADD ADD ADD MOD ADD PUSH1 0x20 MSTORE DUP11 DUP3 DUP1 DUP1 PUSH1 0x0 DUP1 MLOAD PUSH1 0x20 PUSH2 0xC836 DUP4 CODECOPY DUP2 MLOAD SWAP2 MSTORE DUP6 MULMOD SWAP3 PUSH1 0x0 DUP1 MLOAD PUSH1 0x20 PUSH2 0xC9B6 DUP4 CODECOPY DUP2 MLOAD SWAP2 MSTORE SWAP1 MULMOD DUP2 PUSH1 0x0 DUP1 MLOAD PUSH1 0x20 PUSH2 0xC956 DUP4 CODECOPY DUP2 MLOAD SWAP2 MSTORE DUP14 MULMOD DUP3 PUSH1 0x0 DUP1 MLOAD PUSH1 0x20 PUSH2 0xC916 DUP4 CODECOPY DUP2 MLOAD SWAP2 MSTORE DUP14 MULMOD DUP4 PUSH1 0x0 DUP1 MLOAD PUSH1 0x20 PUSH2 0xC7D6 DUP4 CODECOPY DUP2 MLOAD SWAP2 MSTORE DUP14 MULMOD ADD ADD ADD MOD ADD PUSH1 0x80 MSTORE DUP11 DUP3 DUP1 DUP1 PUSH1 0x0 DUP1 MLOAD PUSH1 0x20 PUSH2 0xC7F6 DUP4 CODECOPY DUP2 MLOAD SWAP2 MSTORE DUP6 MULMOD SWAP3 PUSH1 0x0 DUP1 MLOAD PUSH1 0x20 PUSH2 0xC8F6 DUP4 CODECOPY DUP2 MLOAD SWAP2 MSTORE SWAP1 MULMOD DUP2 PUSH1 0x0 DUP1 MLOAD PUSH1 0x20 PUSH2 0xC896 DUP4 CODECOPY DUP2 MLOAD SWAP2 MSTORE DUP14 MULMOD DUP3 PUSH1 0x0 DUP1 MLOAD PUSH1 0x20 PUSH2 0xCA76 DUP4 CODECOPY DUP2 MLOAD SWAP2 MSTORE DUP14 MULMOD DUP4 PUSH1 0x0 DUP1 MLOAD PUSH1 0x20 PUSH2 0xCAD6 DUP4 CODECOPY DUP2 MLOAD SWAP2 MSTORE DUP14 MULMOD ADD ADD ADD MOD ADD PUSH1 0xA0 MSTORE PUSH1 0x0 DUP1 MLOAD PUSH1 0x20 PUSH2 0xC876 DUP4 CODECOPY DUP2 MLOAD SWAP2 MSTORE SWAP1 MULMOD SWAP9 PUSH1 0x0 DUP1 MLOAD PUSH1 0x20 PUSH2 0xC816 DUP4 CODECOPY DUP2 MLOAD SWAP2 MSTORE SWAP1 MULMOD SWAP6 PUSH1 0x0 DUP1 MLOAD PUSH1 0x20 PUSH2 0xC996 DUP4 CODECOPY DUP2 MLOAD SWAP2 MSTORE SWAP1 MULMOD SWAP4 PUSH1 0x0 DUP1 MLOAD PUSH1 0x20 PUSH2 0xCA36 DUP4 CODECOPY DUP2 MLOAD SWAP2 MSTORE SWAP1 MULMOD SWAP2 PUSH1 0x0 DUP1 MLOAD PUSH1 0x20 PUSH2 0xC9F6 DUP4 CODECOPY DUP2 MLOAD SWAP2 MSTORE SWAP1 MULMOD ADD ADD ADD MOD ADD PUSH1 0xC0 MSTORE JUMP JUMPDEST PUSH1 0x0 MLOAD PUSH32 0x1C1661E2A7CE74B75ABA84665ECD2BF9DDD6268F06DEBFE2D52B804EFF1D5FA6 ADD PUSH1 0x20 MLOAD PUSH32 0x6A69AE795EE9BFE5E5AF3E6619A47D26635B34C2A0889FEA8C3C068B7DC2C71 ADD SWAP1 PUSH1 0x80 MLOAD PUSH32 0x113D58535D892115C5D28B4C19A3609374DBDBADF54195C731416C85D731D46A ADD PUSH1 0xA0 MLOAD PUSH32 0x2AB89102E2B8D5E638FF97D761DA6042E534F1FF47F7917A2CA1A74063B46101 ADD SWAP3 PUSH1 0xC0 MLOAD PUSH32 0x3C11CA79E41FDFE962730C45E699546349031893DA2B4FD39804FD6A15AD1B3 ADD PUSH1 0x0 DUP1 MLOAD PUSH1 0x20 PUSH2 0xC936 DUP4 CODECOPY DUP2 MLOAD SWAP2 MSTORE DUP1 DUP1 DUP1 DUP1 DUP1 DUP10 DUP2 DUP1 DUP3 DUP2 SWAP14 MULMOD DUP1 MULMOD MULMOD SWAP6 DUP11 DUP3 DUP1 DUP1 PUSH1 0x0 DUP1 MLOAD PUSH1 0x20 PUSH2 0xC9D6 DUP4 CODECOPY DUP2 MLOAD SWAP2 MSTORE DUP6 MULMOD SWAP3 PUSH1 0x0 DUP1 MLOAD PUSH1 0x20 PUSH2 0xC8B6 DUP4 CODECOPY DUP2 MLOAD SWAP2 MSTORE SWAP1 MULMOD DUP2 PUSH1 0x0 DUP1 MLOAD PUSH1 0x20 PUSH2 0xCA56 DUP4 CODECOPY DUP2 MLOAD SWAP2 MSTORE DUP14 MULMOD DUP3 PUSH1 0x0 DUP1 MLOAD PUSH1 0x20 PUSH2 0xC976 DUP4 CODECOPY DUP2 MLOAD SWAP2 MSTORE DUP14 MULMOD DUP4 PUSH1 0x0 DUP1 MLOAD PUSH1 0x20 PUSH2 0xCA96 DUP4 CODECOPY DUP2 MLOAD SWAP2 MSTORE DUP14 MULMOD ADD ADD ADD MOD ADD PUSH1 0x0 MSTORE DUP11 DUP3 DUP1 DUP1 PUSH1 0x0 DUP1 MLOAD PUSH1 0x20 PUSH2 0xCAF6 DUP4 CODECOPY DUP2 MLOAD SWAP2 MSTORE DUP6 MULMOD SWAP3 PUSH1 0x0 DUP1 MLOAD PUSH1 0x20 PUSH2 0xC8D6 DUP4 CODECOPY DUP2 MLOAD SWAP2 MSTORE SWAP1 MULMOD DUP2 PUSH1 0x0 DUP1 MLOAD PUSH1 0x20 PUSH2 0xCA16 DUP4 CODECOPY DUP2 MLOAD SWAP2 MSTORE DUP14 MULMOD DUP3 PUSH1 0x0 DUP1 MLOAD PUSH1 0x20 PUSH2 0xCAB6 DUP4 CODECOPY DUP2 MLOAD SWAP2 MSTORE DUP14 MULMOD DUP4 PUSH1 0x0 DUP1 MLOAD PUSH1 0x20 PUSH2 0xC856 DUP4 CODECOPY DUP2 MLOAD SWAP2 MSTORE DUP14 MULMOD ADD ADD ADD MOD ADD PUSH1 0x20 MSTORE DUP11 DUP3 DUP1 DUP1 PUSH1 0x0 DUP1 MLOAD PUSH1 0x20 PUSH2 0xC836 DUP4 CODECOPY DUP2 MLOAD SWAP2 MSTORE DUP6 MULMOD SWAP3 PUSH1 0x0 DUP1 MLOAD PUSH1 0x20 PUSH2 0xC9B6 DUP4 CODECOPY DUP2 MLOAD SWAP2 MSTORE SWAP1 MULMOD DUP2 PUSH1 0x0 DUP1 MLOAD PUSH1 0x20 PUSH2 0xC956 DUP4 CODECOPY DUP2 MLOAD SWAP2 MSTORE DUP14 MULMOD DUP3 PUSH1 0x0 DUP1 MLOAD PUSH1 0x20 PUSH2 0xC916 DUP4 CODECOPY DUP2 MLOAD SWAP2 MSTORE DUP14 MULMOD DUP4 PUSH1 0x0 DUP1 MLOAD PUSH1 0x20 PUSH2 0xC7D6 DUP4 CODECOPY DUP2 MLOAD SWAP2 MSTORE DUP14 MULMOD ADD ADD ADD MOD ADD PUSH1 0x80 MSTORE DUP11 DUP3 DUP1 DUP1 PUSH1 0x0 DUP1 MLOAD PUSH1 0x20 PUSH2 0xC7F6 DUP4 CODECOPY DUP2 MLOAD SWAP2 MSTORE DUP6 MULMOD SWAP3 PUSH1 0x0 DUP1 MLOAD PUSH1 0x20 PUSH2 0xC8F6 DUP4 CODECOPY DUP2 MLOAD SWAP2 MSTORE SWAP1 MULMOD DUP2 PUSH1 0x0 DUP1 MLOAD PUSH1 0x20 PUSH2 0xC896 DUP4 CODECOPY DUP2 MLOAD SWAP2 MSTORE DUP14 MULMOD DUP3 PUSH1 0x0 DUP1 MLOAD PUSH1 0x20 PUSH2 0xCA76 DUP4 CODECOPY DUP2 MLOAD SWAP2 MSTORE DUP14 MULMOD DUP4 PUSH1 0x0 DUP1 MLOAD PUSH1 0x20 PUSH2 0xCAD6 DUP4 CODECOPY DUP2 MLOAD SWAP2 MSTORE DUP14 MULMOD ADD ADD ADD MOD ADD PUSH1 0xA0 MSTORE PUSH1 0x0 DUP1 MLOAD PUSH1 0x20 PUSH2 0xC876 DUP4 CODECOPY DUP2 MLOAD SWAP2 MSTORE SWAP1 MULMOD SWAP9 PUSH1 0x0 DUP1 MLOAD PUSH1 0x20 PUSH2 0xC816 DUP4 CODECOPY DUP2 MLOAD SWAP2 MSTORE SWAP1 MULMOD SWAP6 PUSH1 0x0 DUP1 MLOAD PUSH1 0x20 PUSH2 0xC996 DUP4 CODECOPY DUP2 MLOAD SWAP2 MSTORE SWAP1 MULMOD SWAP4 PUSH1 0x0 DUP1 MLOAD PUSH1 0x20 PUSH2 0xCA36 DUP4 CODECOPY DUP2 MLOAD SWAP2 MSTORE SWAP1 MULMOD SWAP2 PUSH1 0x0 DUP1 MLOAD PUSH1 0x20 PUSH2 0xC9F6 DUP4 CODECOPY DUP2 MLOAD SWAP2 MSTORE SWAP1 MULMOD ADD ADD ADD MOD ADD PUSH1 0xC0 MSTORE JUMP JUMPDEST PUSH1 0x0 MLOAD PUSH32 0x27096C672621403888014DDBBBFC9DA1F7F67B4D4CFE846C6ADF040FAAF2669C ADD PUSH1 0x20 MLOAD PUSH32 0x2DE32AD15497AEF4D504D4DEEB53B13C66DB790CE486130CAA9DC2B57EF5BE0D ADD SWAP1 PUSH1 0x80 MLOAD PUSH32 0xDC108F2B0A280D2FD5D341310722A2D28C738DDDAEC9F3D255754448EEFD001 ADD PUSH1 0xA0 MLOAD PUSH32 0x1869F3B763FE8164C96858A1BB9EFAD5BCDC3EEBC409BE7C7D34CA50365D832F ADD SWAP3 PUSH1 0xC0 MLOAD PUSH32 0x22ED3A2D9FF31CBF82559FE6A911843B616945E16A568D48C6D33767129682D ADD PUSH1 0x0 DUP1 MLOAD PUSH1 0x20 PUSH2 0xC936 DUP4 CODECOPY DUP2 MLOAD SWAP2 MSTORE DUP1 DUP1 DUP1 DUP1 DUP1 DUP10 DUP2 DUP1 DUP3 DUP2 SWAP14 MULMOD DUP1 MULMOD MULMOD SWAP6 DUP11 DUP3 DUP1 DUP1 PUSH1 0x0 DUP1 MLOAD PUSH1 0x20 PUSH2 0xC9D6 DUP4 CODECOPY DUP2 MLOAD SWAP2 MSTORE DUP6 MULMOD SWAP3 PUSH1 0x0 DUP1 MLOAD PUSH1 0x20 PUSH2 0xC8B6 DUP4 CODECOPY DUP2 MLOAD SWAP2 MSTORE SWAP1 MULMOD DUP2 PUSH1 0x0 DUP1 MLOAD PUSH1 0x20 PUSH2 0xCA56 DUP4 CODECOPY DUP2 MLOAD SWAP2 MSTORE DUP14 MULMOD DUP3 PUSH1 0x0 DUP1 MLOAD PUSH1 0x20 PUSH2 0xC976 DUP4 CODECOPY DUP2 MLOAD SWAP2 MSTORE DUP14 MULMOD DUP4 PUSH1 0x0 DUP1 MLOAD PUSH1 0x20 PUSH2 0xCA96 DUP4 CODECOPY DUP2 MLOAD SWAP2 MSTORE DUP14 MULMOD ADD ADD ADD MOD ADD PUSH1 0x0 MSTORE DUP11 DUP3 DUP1 DUP1 PUSH1 0x0 DUP1 MLOAD PUSH1 0x20 PUSH2 0xCAF6 DUP4 CODECOPY DUP2 MLOAD SWAP2 MSTORE DUP6 MULMOD SWAP3 PUSH1 0x0 DUP1 MLOAD PUSH1 0x20 PUSH2 0xC8D6 DUP4 CODECOPY DUP2 MLOAD SWAP2 MSTORE SWAP1 MULMOD DUP2 PUSH1 0x0 DUP1 MLOAD PUSH1 0x20 PUSH2 0xCA16 DUP4 CODECOPY DUP2 MLOAD SWAP2 MSTORE DUP14 MULMOD DUP3 PUSH1 0x0 DUP1 MLOAD PUSH1 0x20 PUSH2 0xCAB6 DUP4 CODECOPY DUP2 MLOAD SWAP2 MSTORE DUP14 MULMOD DUP4 PUSH1 0x0 DUP1 MLOAD PUSH1 0x20 PUSH2 0xC856 DUP4 CODECOPY DUP2 MLOAD SWAP2 MSTORE DUP14 MULMOD ADD ADD ADD MOD ADD PUSH1 0x20 MSTORE DUP11 DUP3 DUP1 DUP1 PUSH1 0x0 DUP1 MLOAD PUSH1 0x20 PUSH2 0xC836 DUP4 CODECOPY DUP2 MLOAD SWAP2 MSTORE DUP6 MULMOD SWAP3 PUSH1 0x0 DUP1 MLOAD PUSH1 0x20 PUSH2 0xC9B6 DUP4 CODECOPY DUP2 MLOAD SWAP2 MSTORE SWAP1 MULMOD DUP2 PUSH1 0x0 DUP1 MLOAD PUSH1 0x20 PUSH2 0xC956 DUP4 CODECOPY DUP2 MLOAD SWAP2 MSTORE DUP14 MULMOD DUP3 PUSH1 0x0 DUP1 MLOAD PUSH1 0x20 PUSH2 0xC916 DUP4 CODECOPY DUP2 MLOAD SWAP2 MSTORE DUP14 MULMOD DUP4 PUSH1 0x0 DUP1 MLOAD PUSH1 0x20 PUSH2 0xC7D6 DUP4 CODECOPY DUP2 MLOAD SWAP2 MSTORE DUP14 MULMOD ADD ADD ADD MOD ADD PUSH1 0x80 MSTORE DUP11 DUP3 DUP1 DUP1 PUSH1 0x0 DUP1 MLOAD PUSH1 0x20 PUSH2 0xC7F6 DUP4 CODECOPY DUP2 MLOAD SWAP2 MSTORE DUP6 MULMOD SWAP3 PUSH1 0x0 DUP1 MLOAD PUSH1 0x20 PUSH2 0xC8F6 DUP4 CODECOPY DUP2 MLOAD SWAP2 MSTORE SWAP1 MULMOD DUP2 PUSH1 0x0 DUP1 MLOAD PUSH1 0x20 PUSH2 0xC896 DUP4 CODECOPY DUP2 MLOAD SWAP2 MSTORE DUP14 MULMOD DUP3 PUSH1 0x0 DUP1 MLOAD PUSH1 0x20 PUSH2 0xCA76 DUP4 CODECOPY DUP2 MLOAD SWAP2 MSTORE DUP14 MULMOD DUP4 PUSH1 0x0 DUP1 MLOAD PUSH1 0x20 PUSH2 0xCAD6 DUP4 CODECOPY DUP2 MLOAD SWAP2 MSTORE DUP14 MULMOD ADD ADD ADD MOD ADD PUSH1 0xA0 MSTORE PUSH1 0x0 DUP1 MLOAD PUSH1 0x20 PUSH2 0xC876 DUP4 CODECOPY DUP2 MLOAD SWAP2 MSTORE SWAP1 MULMOD SWAP9 PUSH1 0x0 DUP1 MLOAD PUSH1 0x20 PUSH2 0xC816 DUP4 CODECOPY DUP2 MLOAD SWAP2 MSTORE SWAP1 MULMOD SWAP6 PUSH1 0x0 DUP1 MLOAD PUSH1 0x20 PUSH2 0xC996 DUP4 CODECOPY DUP2 MLOAD SWAP2 MSTORE SWAP1 MULMOD SWAP4 PUSH1 0x0 DUP1 MLOAD PUSH1 0x20 PUSH2 0xCA36 DUP4 CODECOPY DUP2 MLOAD SWAP2 MSTORE SWAP1 MULMOD SWAP2 PUSH1 0x0 DUP1 MLOAD PUSH1 0x20 PUSH2 0xC9F6 DUP4 CODECOPY DUP2 MLOAD SWAP2 MSTORE SWAP1 MULMOD ADD ADD ADD MOD ADD PUSH1 0xC0 MSTORE JUMP JUMPDEST PUSH1 0x0 MLOAD PUSH32 0x2155D6005210169E3944ED1365BD0E7292FCA1F27C19C26610C6AEC077D026BC ADD PUSH1 0x20 MLOAD PUSH32 0xDE1BA7A562A8F7ACAE93263F5F1B4BBEC0C0556C91AF3DB3EA5928C8CAEAE85 ADD SWAP1 PUSH1 0x80 MLOAD PUSH32 0x5DBB4406024BEABCFCE5BF46EC7DA38126F740BCE8D637B6351DFA7DA902563 ADD PUSH1 0xA0 MLOAD PUSH32 0x5D4149BAAC413BED4D8DC8AD778D32C00E789E3FCD72DCCC97E5427A368FD5E ADD SWAP3 PUSH1 0xC0 MLOAD PUSH32 0x1CDF8B452D97C2B9BE5046E7397E76FF0B6802FA941C7879212E22172C27B2E ADD PUSH1 0x0 DUP1 MLOAD PUSH1 0x20 PUSH2 0xC936 DUP4 CODECOPY DUP2 MLOAD SWAP2 MSTORE DUP1 DUP1 DUP1 DUP1 DUP1 DUP10 DUP2 DUP1 DUP3 DUP2 SWAP14 MULMOD DUP1 MULMOD MULMOD SWAP6 DUP11 DUP3 DUP1 DUP1 PUSH1 0x0 DUP1 MLOAD PUSH1 0x20 PUSH2 0xC9D6 DUP4 CODECOPY DUP2 MLOAD SWAP2 MSTORE DUP6 MULMOD SWAP3 PUSH1 0x0 DUP1 MLOAD PUSH1 0x20 PUSH2 0xC8B6 DUP4 CODECOPY DUP2 MLOAD SWAP2 MSTORE SWAP1 MULMOD DUP2 PUSH1 0x0 DUP1 MLOAD PUSH1 0x20 PUSH2 0xCA56 DUP4 CODECOPY DUP2 MLOAD SWAP2 MSTORE DUP14 MULMOD DUP3 PUSH1 0x0 DUP1 MLOAD PUSH1 0x20 PUSH2 0xC976 DUP4 CODECOPY DUP2 MLOAD SWAP2 MSTORE DUP14 MULMOD DUP4 PUSH1 0x0 DUP1 MLOAD PUSH1 0x20 PUSH2 0xCA96 DUP4 CODECOPY DUP2 MLOAD SWAP2 MSTORE DUP14 MULMOD ADD ADD ADD MOD ADD PUSH1 0x0 MSTORE DUP11 DUP3 DUP1 DUP1 PUSH1 0x0 DUP1 MLOAD PUSH1 0x20 PUSH2 0xCAF6 DUP4 CODECOPY DUP2 MLOAD SWAP2 MSTORE DUP6 MULMOD SWAP3 PUSH1 0x0 DUP1 MLOAD PUSH1 0x20 PUSH2 0xC8D6 DUP4 CODECOPY DUP2 MLOAD SWAP2 MSTORE SWAP1 MULMOD DUP2 PUSH1 0x0 DUP1 MLOAD PUSH1 0x20 PUSH2 0xCA16 DUP4 CODECOPY DUP2 MLOAD SWAP2 MSTORE DUP14 MULMOD DUP3 PUSH1 0x0 DUP1 MLOAD PUSH1 0x20 PUSH2 0xCAB6 DUP4 CODECOPY DUP2 MLOAD SWAP2 MSTORE DUP14 MULMOD DUP4 PUSH1 0x0 DUP1 MLOAD PUSH1 0x20 PUSH2 0xC856 DUP4 CODECOPY DUP2 MLOAD SWAP2 MSTORE DUP14 MULMOD ADD ADD ADD MOD ADD PUSH1 0x20 MSTORE DUP11 DUP3 DUP1 DUP1 PUSH1 0x0 DUP1 MLOAD PUSH1 0x20 PUSH2 0xC836 DUP4 CODECOPY DUP2 MLOAD SWAP2 MSTORE DUP6 MULMOD SWAP3 PUSH1 0x0 DUP1 MLOAD PUSH1 0x20 PUSH2 0xC9B6 DUP4 CODECOPY DUP2 MLOAD SWAP2 MSTORE SWAP1 MULMOD DUP2 PUSH1 0x0 DUP1 MLOAD PUSH1 0x20 PUSH2 0xC956 DUP4 CODECOPY DUP2 MLOAD SWAP2 MSTORE DUP14 MULMOD DUP3 PUSH1 0x0 DUP1 MLOAD PUSH1 0x20 PUSH2 0xC916 DUP4 CODECOPY DUP2 MLOAD SWAP2 MSTORE DUP14 MULMOD DUP4 PUSH1 0x0 DUP1 MLOAD PUSH1 0x20 PUSH2 0xC7D6 DUP4 CODECOPY DUP2 MLOAD SWAP2 MSTORE DUP14 MULMOD ADD ADD ADD MOD ADD PUSH1 0x80 MSTORE DUP11 DUP3 DUP1 DUP1 PUSH1 0x0 DUP1 MLOAD PUSH1 0x20 PUSH2 0xC7F6 DUP4 CODECOPY DUP2 MLOAD SWAP2 MSTORE DUP6 MULMOD SWAP3 PUSH1 0x0 DUP1 MLOAD PUSH1 0x20 PUSH2 0xC8F6 DUP4 CODECOPY DUP2 MLOAD SWAP2 MSTORE SWAP1 MULMOD DUP2 PUSH1 0x0 DUP1 MLOAD PUSH1 0x20 PUSH2 0xC896 DUP4 CODECOPY DUP2 MLOAD SWAP2 MSTORE DUP14 MULMOD DUP3 PUSH1 0x0 DUP1 MLOAD PUSH1 0x20 PUSH2 0xCA76 DUP4 CODECOPY DUP2 MLOAD SWAP2 MSTORE DUP14 MULMOD DUP4 PUSH1 0x0 DUP1 MLOAD PUSH1 0x20 PUSH2 0xCAD6 DUP4 CODECOPY DUP2 MLOAD SWAP2 MSTORE DUP14 MULMOD ADD ADD ADD MOD ADD PUSH1 0xA0 MSTORE PUSH1 0x0 DUP1 MLOAD PUSH1 0x20 PUSH2 0xC876 DUP4 CODECOPY DUP2 MLOAD SWAP2 MSTORE SWAP1 MULMOD SWAP9 PUSH1 0x0 DUP1 MLOAD PUSH1 0x20 PUSH2 0xC816 DUP4 CODECOPY DUP2 MLOAD SWAP2 MSTORE SWAP1 MULMOD SWAP6 PUSH1 0x0 DUP1 MLOAD PUSH1 0x20 PUSH2 0xC996 DUP4 CODECOPY DUP2 MLOAD SWAP2 MSTORE SWAP1 MULMOD SWAP4 PUSH1 0x0 DUP1 MLOAD PUSH1 0x20 PUSH2 0xCA36 DUP4 CODECOPY DUP2 MLOAD SWAP2 MSTORE SWAP1 MULMOD SWAP2 PUSH1 0x0 DUP1 MLOAD PUSH1 0x20 PUSH2 0xC9F6 DUP4 CODECOPY DUP2 MLOAD SWAP2 MSTORE SWAP1 MULMOD ADD ADD ADD MOD ADD PUSH1 0xC0 MSTORE JUMP JUMPDEST PUSH1 0x0 MLOAD PUSH32 0x1FC6A71867027F56AF8085FF81ADCE33C4D7C5015ECED8C71B0A22279D46C07C ADD PUSH1 0x20 MLOAD PUSH32 0x1040BEF4C642D0345D4D59A5A7A3A42BA9E185B75306D9C3568E0FDA96AAAFC2 ADD SWAP1 PUSH1 0x80 MLOAD PUSH32 0x16B79C3A6BF316E0FF2C91B289334A4D2B21E95676431918A8081475AB8FAD0D ADD PUSH1 0xA0 MLOAD PUSH32 0x20DFF1BC30F6DB6B434B3A1387E3C8C6A34070E52B601FC13CBE1CDCD59F474E ADD SWAP3 PUSH1 0xC0 MLOAD PUSH32 0x212AC2AB7A6EAAEC254955030A970F8062DD4171A726A8BDFB7FD8512AE060D ADD PUSH1 0x0 DUP1 MLOAD PUSH1 0x20 PUSH2 0xC936 DUP4 CODECOPY DUP2 MLOAD SWAP2 MSTORE DUP1 DUP1 DUP1 DUP1 DUP1 DUP10 DUP2 DUP1 DUP3 DUP2 SWAP14 MULMOD DUP1 MULMOD MULMOD SWAP6 DUP11 DUP3 DUP1 DUP1 PUSH1 0x0 DUP1 MLOAD PUSH1 0x20 PUSH2 0xC9D6 DUP4 CODECOPY DUP2 MLOAD SWAP2 MSTORE DUP6 MULMOD SWAP3 PUSH1 0x0 DUP1 MLOAD PUSH1 0x20 PUSH2 0xC8B6 DUP4 CODECOPY DUP2 MLOAD SWAP2 MSTORE SWAP1 MULMOD DUP2 PUSH1 0x0 DUP1 MLOAD PUSH1 0x20 PUSH2 0xCA56 DUP4 CODECOPY DUP2 MLOAD SWAP2 MSTORE DUP14 MULMOD DUP3 PUSH1 0x0 DUP1 MLOAD PUSH1 0x20 PUSH2 0xC976 DUP4 CODECOPY DUP2 MLOAD SWAP2 MSTORE DUP14 MULMOD DUP4 PUSH1 0x0 DUP1 MLOAD PUSH1 0x20 PUSH2 0xCA96 DUP4 CODECOPY DUP2 MLOAD SWAP2 MSTORE DUP14 MULMOD ADD ADD ADD MOD ADD PUSH1 0x0 MSTORE DUP11 DUP3 DUP1 DUP1 PUSH1 0x0 DUP1 MLOAD PUSH1 0x20 PUSH2 0xCAF6 DUP4 CODECOPY DUP2 MLOAD SWAP2 MSTORE DUP6 MULMOD SWAP3 PUSH1 0x0 DUP1 MLOAD PUSH1 0x20 PUSH2 0xC8D6 DUP4 CODECOPY DUP2 MLOAD SWAP2 MSTORE SWAP1 MULMOD DUP2 PUSH1 0x0 DUP1 MLOAD PUSH1 0x20 PUSH2 0xCA16 DUP4 CODECOPY DUP2 MLOAD SWAP2 MSTORE DUP14 MULMOD DUP3 PUSH1 0x0 DUP1 MLOAD PUSH1 0x20 PUSH2 0xCAB6 DUP4 CODECOPY DUP2 MLOAD SWAP2 MSTORE DUP14 MULMOD DUP4 PUSH1 0x0 DUP1 MLOAD PUSH1 0x20 PUSH2 0xC856 DUP4 CODECOPY DUP2 MLOAD SWAP2 MSTORE DUP14 MULMOD ADD ADD ADD MOD ADD PUSH1 0x20 MSTORE DUP11 DUP3 DUP1 DUP1 PUSH1 0x0 DUP1 MLOAD PUSH1 0x20 PUSH2 0xC836 DUP4 CODECOPY DUP2 MLOAD SWAP2 MSTORE DUP6 MULMOD SWAP3 PUSH1 0x0 DUP1 MLOAD PUSH1 0x20 PUSH2 0xC9B6 DUP4 CODECOPY DUP2 MLOAD SWAP2 MSTORE SWAP1 MULMOD DUP2 PUSH1 0x0 DUP1 MLOAD PUSH1 0x20 PUSH2 0xC956 DUP4 CODECOPY DUP2 MLOAD SWAP2 MSTORE DUP14 MULMOD DUP3 PUSH1 0x0 DUP1 MLOAD PUSH1 0x20 PUSH2 0xC916 DUP4 CODECOPY DUP2 MLOAD SWAP2 MSTORE DUP14 MULMOD DUP4 PUSH1 0x0 DUP1 MLOAD PUSH1 0x20 PUSH2 0xC7D6 DUP4 CODECOPY DUP2 MLOAD SWAP2 MSTORE DUP14 MULMOD ADD ADD ADD MOD ADD PUSH1 0x80 MSTORE DUP11 DUP3 DUP1 DUP1 PUSH1 0x0 DUP1 MLOAD PUSH1 0x20 PUSH2 0xC7F6 DUP4 CODECOPY DUP2 MLOAD SWAP2 MSTORE DUP6 MULMOD SWAP3 PUSH1 0x0 DUP1 MLOAD PUSH1 0x20 PUSH2 0xC8F6 DUP4 CODECOPY DUP2 MLOAD SWAP2 MSTORE SWAP1 MULMOD DUP2 PUSH1 0x0 DUP1 MLOAD PUSH1 0x20 PUSH2 0xC896 DUP4 CODECOPY DUP2 MLOAD SWAP2 MSTORE DUP14 MULMOD DUP3 PUSH1 0x0 DUP1 MLOAD PUSH1 0x20 PUSH2 0xCA76 DUP4 CODECOPY DUP2 MLOAD SWAP2 MSTORE DUP14 MULMOD DUP4 PUSH1 0x0 DUP1 MLOAD PUSH1 0x20 PUSH2 0xCAD6 DUP4 CODECOPY DUP2 MLOAD SWAP2 MSTORE DUP14 MULMOD ADD ADD ADD MOD ADD PUSH1 0xA0 MSTORE PUSH1 0x0 DUP1 MLOAD PUSH1 0x20 PUSH2 0xC876 DUP4 CODECOPY DUP2 MLOAD SWAP2 MSTORE SWAP1 MULMOD SWAP9 PUSH1 0x0 DUP1 MLOAD PUSH1 0x20 PUSH2 0xC816 DUP4 CODECOPY DUP2 MLOAD SWAP2 MSTORE SWAP1 MULMOD SWAP6 PUSH1 0x0 DUP1 MLOAD PUSH1 0x20 PUSH2 0xC996 DUP4 CODECOPY DUP2 MLOAD SWAP2 MSTORE SWAP1 MULMOD SWAP4 PUSH1 0x0 DUP1 MLOAD PUSH1 0x20 PUSH2 0xCA36 DUP4 CODECOPY DUP2 MLOAD SWAP2 MSTORE SWAP1 MULMOD SWAP2 PUSH1 0x0 DUP1 MLOAD PUSH1 0x20 PUSH2 0xC9F6 DUP4 CODECOPY DUP2 MLOAD SWAP2 MSTORE SWAP1 MULMOD ADD ADD ADD MOD ADD PUSH1 0xC0 MSTORE JUMP JUMPDEST PUSH1 0x0 MLOAD PUSH32 0x2F29377491474442869A109C9215637CB02DC03134F0044213C8119F6996AE09 ADD PUSH1 0x20 MLOAD PUSH32 0x984CA6A5F9185D525EC93C33FEA603273BE9F3866AA284C5837D9F32D814BFA ADD SWAP1 PUSH1 0x80 MLOAD PUSH32 0xD080A6B6B3B60700D299BD6FA81220DE491361C8A6BD19CEB0EE9294B24F028 ADD PUSH1 0xA0 MLOAD PUSH32 0xE65CD99E84B052F6789530638CB0AD821ACC85B6400264DCE929ED7C85A4544 ADD SWAP3 PUSH1 0xC0 MLOAD PUSH32 0x2E208875BC7AC1224808F72C716CD05EE30E3D20380FF6A655975DA12736920B ADD PUSH1 0x0 DUP1 MLOAD PUSH1 0x20 PUSH2 0xC936 DUP4 CODECOPY DUP2 MLOAD SWAP2 MSTORE DUP1 DUP1 DUP1 DUP1 DUP1 DUP10 DUP2 DUP1 DUP3 DUP2 SWAP14 MULMOD DUP1 MULMOD MULMOD SWAP6 DUP11 DUP3 DUP1 DUP1 PUSH1 0x0 DUP1 MLOAD PUSH1 0x20 PUSH2 0xC9D6 DUP4 CODECOPY DUP2 MLOAD SWAP2 MSTORE DUP6 MULMOD SWAP3 PUSH1 0x0 DUP1 MLOAD PUSH1 0x20 PUSH2 0xC8B6 DUP4 CODECOPY DUP2 MLOAD SWAP2 MSTORE SWAP1 MULMOD DUP2 PUSH1 0x0 DUP1 MLOAD PUSH1 0x20 PUSH2 0xCA56 DUP4 CODECOPY DUP2 MLOAD SWAP2 MSTORE DUP14 MULMOD DUP3 PUSH1 0x0 DUP1 MLOAD PUSH1 0x20 PUSH2 0xC976 DUP4 CODECOPY DUP2 MLOAD SWAP2 MSTORE DUP14 MULMOD DUP4 PUSH1 0x0 DUP1 MLOAD PUSH1 0x20 PUSH2 0xCA96 DUP4 CODECOPY DUP2 MLOAD SWAP2 MSTORE DUP14 MULMOD ADD ADD ADD MOD ADD PUSH1 0x0 MSTORE DUP11 DUP3 DUP1 DUP1 PUSH1 0x0 DUP1 MLOAD PUSH1 0x20 PUSH2 0xCAF6 DUP4 CODECOPY DUP2 MLOAD SWAP2 MSTORE DUP6 MULMOD SWAP3 PUSH1 0x0 DUP1 MLOAD PUSH1 0x20 PUSH2 0xC8D6 DUP4 CODECOPY DUP2 MLOAD SWAP2 MSTORE SWAP1 MULMOD DUP2 PUSH1 0x0 DUP1 MLOAD PUSH1 0x20 PUSH2 0xCA16 DUP4 CODECOPY DUP2 MLOAD SWAP2 MSTORE DUP14 MULMOD DUP3 PUSH1 0x0 DUP1 MLOAD PUSH1 0x20 PUSH2 0xCAB6 DUP4 CODECOPY DUP2 MLOAD SWAP2 MSTORE DUP14 MULMOD DUP4 PUSH1 0x0 DUP1 MLOAD PUSH1 0x20 PUSH2 0xC856 DUP4 CODECOPY DUP2 MLOAD SWAP2 MSTORE DUP14 MULMOD ADD ADD ADD MOD ADD PUSH1 0x20 MSTORE DUP11 DUP3 DUP1 DUP1 PUSH1 0x0 DUP1 MLOAD PUSH1 0x20 PUSH2 0xC836 DUP4 CODECOPY DUP2 MLOAD SWAP2 MSTORE DUP6 MULMOD SWAP3 PUSH1 0x0 DUP1 MLOAD PUSH1 0x20 PUSH2 0xC9B6 DUP4 CODECOPY DUP2 MLOAD SWAP2 MSTORE SWAP1 MULMOD DUP2 PUSH1 0x0 DUP1 MLOAD PUSH1 0x20 PUSH2 0xC956 DUP4 CODECOPY DUP2 MLOAD SWAP2 MSTORE DUP14 MULMOD DUP3 PUSH1 0x0 DUP1 MLOAD PUSH1 0x20 PUSH2 0xC916 DUP4 CODECOPY DUP2 MLOAD SWAP2 MSTORE DUP14 MULMOD DUP4 PUSH1 0x0 DUP1 MLOAD PUSH1 0x20 PUSH2 0xC7D6 DUP4 CODECOPY DUP2 MLOAD SWAP2 MSTORE DUP14 MULMOD ADD ADD ADD MOD ADD PUSH1 0x80 MSTORE DUP11 DUP3 DUP1 DUP1 PUSH1 0x0 DUP1 MLOAD PUSH1 0x20 PUSH2 0xC7F6 DUP4 CODECOPY DUP2 MLOAD SWAP2 MSTORE DUP6 MULMOD SWAP3 PUSH1 0x0 DUP1 MLOAD PUSH1 0x20 PUSH2 0xC8F6 DUP4 CODECOPY DUP2 MLOAD SWAP2 MSTORE SWAP1 MULMOD DUP2 PUSH1 0x0 DUP1 MLOAD PUSH1 0x20 PUSH2 0xC896 DUP4 CODECOPY DUP2 MLOAD SWAP2 MSTORE DUP14 MULMOD DUP3 PUSH1 0x0 DUP1 MLOAD PUSH1 0x20 PUSH2 0xCA76 DUP4 CODECOPY DUP2 MLOAD SWAP2 MSTORE DUP14 MULMOD DUP4 PUSH1 0x0 DUP1 MLOAD PUSH1 0x20 PUSH2 0xCAD6 DUP4 CODECOPY DUP2 MLOAD SWAP2 MSTORE DUP14 MULMOD ADD ADD ADD MOD ADD PUSH1 0xA0 MSTORE PUSH1 0x0 DUP1 MLOAD PUSH1 0x20 PUSH2 0xC876 DUP4 CODECOPY DUP2 MLOAD SWAP2 MSTORE SWAP1 MULMOD SWAP9 PUSH1 0x0 DUP1 MLOAD PUSH1 0x20 PUSH2 0xC816 DUP4 CODECOPY DUP2 MLOAD SWAP2 MSTORE SWAP1 MULMOD SWAP6 PUSH1 0x0 DUP1 MLOAD PUSH1 0x20 PUSH2 0xC996 DUP4 CODECOPY DUP2 MLOAD SWAP2 MSTORE SWAP1 MULMOD SWAP4 PUSH1 0x0 DUP1 MLOAD PUSH1 0x20 PUSH2 0xCA36 DUP4 CODECOPY DUP2 MLOAD SWAP2 MSTORE SWAP1 MULMOD SWAP2 PUSH1 0x0 DUP1 MLOAD PUSH1 0x20 PUSH2 0xC9F6 DUP4 CODECOPY DUP2 MLOAD SWAP2 MSTORE SWAP1 MULMOD ADD ADD ADD MOD ADD PUSH1 0xC0 MSTORE JUMP JUMPDEST PUSH1 0x0 MLOAD PUSH32 0x2989F3AE477C2FD376A0B0FF3D7DFAC1AE2E3B894AFD29F64A60D1AA8592BAD5 ADD PUSH1 0x20 MLOAD PUSH32 0x11361CE544E941379222D101E6FAC0CE918106A463290A3E3A74C3CEA7189459 ADD SWAP1 PUSH1 0x80 MLOAD PUSH32 0x1E8D014B86CB5A7DA539E10C173F6A75D122A822B8FB366C34C8BD05A2061438 ADD PUSH1 0xA0 MLOAD PUSH32 0x173F65ADEC8DEEE27BA812AD29558E23A0C2324167EF6C91212EE2C28EE98733 ADD SWAP3 PUSH1 0xC0 MLOAD PUSH32 0x1C36DAAF9F01F1BAFEE8BD0C779AC3E5DA5DF7AD45499D0991BD695310EDDD9 ADD PUSH1 0x0 DUP1 MLOAD PUSH1 0x20 PUSH2 0xC936 DUP4 CODECOPY DUP2 MLOAD SWAP2 MSTORE DUP1 DUP1 DUP1 DUP1 DUP1 DUP10 DUP2 DUP1 DUP3 DUP2 SWAP14 MULMOD DUP1 MULMOD MULMOD SWAP6 DUP11 DUP3 DUP1 DUP1 PUSH1 0x0 DUP1 MLOAD PUSH1 0x20 PUSH2 0xC9D6 DUP4 CODECOPY DUP2 MLOAD SWAP2 MSTORE DUP6 MULMOD SWAP3 PUSH1 0x0 DUP1 MLOAD PUSH1 0x20 PUSH2 0xC8B6 DUP4 CODECOPY DUP2 MLOAD SWAP2 MSTORE SWAP1 MULMOD DUP2 PUSH1 0x0 DUP1 MLOAD PUSH1 0x20 PUSH2 0xCA56 DUP4 CODECOPY DUP2 MLOAD SWAP2 MSTORE DUP14 MULMOD DUP3 PUSH1 0x0 DUP1 MLOAD PUSH1 0x20 PUSH2 0xC976 DUP4 CODECOPY DUP2 MLOAD SWAP2 MSTORE DUP14 MULMOD DUP4 PUSH1 0x0 DUP1 MLOAD PUSH1 0x20 PUSH2 0xCA96 DUP4 CODECOPY DUP2 MLOAD SWAP2 MSTORE DUP14 MULMOD ADD ADD ADD MOD ADD PUSH1 0x0 MSTORE DUP11 DUP3 DUP1 DUP1 PUSH1 0x0 DUP1 MLOAD PUSH1 0x20 PUSH2 0xCAF6 DUP4 CODECOPY DUP2 MLOAD SWAP2 MSTORE DUP6 MULMOD SWAP3 PUSH1 0x0 DUP1 MLOAD PUSH1 0x20 PUSH2 0xC8D6 DUP4 CODECOPY DUP2 MLOAD SWAP2 MSTORE SWAP1 MULMOD DUP2 PUSH1 0x0 DUP1 MLOAD PUSH1 0x20 PUSH2 0xCA16 DUP4 CODECOPY DUP2 MLOAD SWAP2 MSTORE DUP14 MULMOD DUP3 PUSH1 0x0 DUP1 MLOAD PUSH1 0x20 PUSH2 0xCAB6 DUP4 CODECOPY DUP2 MLOAD SWAP2 MSTORE DUP14 MULMOD DUP4 PUSH1 0x0 DUP1 MLOAD PUSH1 0x20 PUSH2 0xC856 DUP4 CODECOPY DUP2 MLOAD SWAP2 MSTORE DUP14 MULMOD ADD ADD ADD MOD ADD PUSH1 0x20 MSTORE DUP11 DUP3 DUP1 DUP1 PUSH1 0x0 DUP1 MLOAD PUSH1 0x20 PUSH2 0xC836 DUP4 CODECOPY DUP2 MLOAD SWAP2 MSTORE DUP6 MULMOD SWAP3 PUSH1 0x0 DUP1 MLOAD PUSH1 0x20 PUSH2 0xC9B6 DUP4 CODECOPY DUP2 MLOAD SWAP2 MSTORE SWAP1 MULMOD DUP2 PUSH1 0x0 DUP1 MLOAD PUSH1 0x20 PUSH2 0xC956 DUP4 CODECOPY DUP2 MLOAD SWAP2 MSTORE DUP14 MULMOD DUP3 PUSH1 0x0 DUP1 MLOAD PUSH1 0x20 PUSH2 0xC916 DUP4 CODECOPY DUP2 MLOAD SWAP2 MSTORE DUP14 MULMOD DUP4 PUSH1 0x0 DUP1 MLOAD PUSH1 0x20 PUSH2 0xC7D6 DUP4 CODECOPY DUP2 MLOAD SWAP2 MSTORE DUP14 MULMOD ADD ADD ADD MOD ADD PUSH1 0x80 MSTORE DUP11 DUP3 DUP1 DUP1 PUSH1 0x0 DUP1 MLOAD PUSH1 0x20 PUSH2 0xC7F6 DUP4 CODECOPY DUP2 MLOAD SWAP2 MSTORE DUP6 MULMOD SWAP3 PUSH1 0x0 DUP1 MLOAD PUSH1 0x20 PUSH2 0xC8F6 DUP4 CODECOPY DUP2 MLOAD SWAP2 MSTORE SWAP1 MULMOD DUP2 PUSH1 0x0 DUP1 MLOAD PUSH1 0x20 PUSH2 0xC896 DUP4 CODECOPY DUP2 MLOAD SWAP2 MSTORE DUP14 MULMOD DUP3 PUSH1 0x0 DUP1 MLOAD PUSH1 0x20 PUSH2 0xCA76 DUP4 CODECOPY DUP2 MLOAD SWAP2 MSTORE DUP14 MULMOD DUP4 PUSH1 0x0 DUP1 MLOAD PUSH1 0x20 PUSH2 0xCAD6 DUP4 CODECOPY DUP2 MLOAD SWAP2 MSTORE DUP14 MULMOD ADD ADD ADD MOD ADD PUSH1 0xA0 MSTORE PUSH1 0x0 DUP1 MLOAD PUSH1 0x20 PUSH2 0xC876 DUP4 CODECOPY DUP2 MLOAD SWAP2 MSTORE SWAP1 MULMOD SWAP9 PUSH1 0x0 DUP1 MLOAD PUSH1 0x20 PUSH2 0xC816 DUP4 CODECOPY DUP2 MLOAD SWAP2 MSTORE SWAP1 MULMOD SWAP6 PUSH1 0x0 DUP1 MLOAD PUSH1 0x20 PUSH2 0xC996 DUP4 CODECOPY DUP2 MLOAD SWAP2 MSTORE SWAP1 MULMOD SWAP4 PUSH1 0x0 DUP1 MLOAD PUSH1 0x20 PUSH2 0xCA36 DUP4 CODECOPY DUP2 MLOAD SWAP2 MSTORE SWAP1 MULMOD SWAP2 PUSH1 0x0 DUP1 MLOAD PUSH1 0x20 PUSH2 0xC9F6 DUP4 CODECOPY DUP2 MLOAD SWAP2 MSTORE SWAP1 MULMOD ADD ADD ADD MOD ADD PUSH1 0xC0 MSTORE JUMP JUMPDEST PUSH1 0x0 MLOAD PUSH32 0x1353ACB08C05ADB4AA9AB1C485BB85FFF277D1A3F2FC89944A6F5741F381E562 ADD PUSH1 0x20 MLOAD PUSH32 0x2E5ABD2537207CAD1860E71EA1188EE4009D33DEB4F93AEB20F1C87A3B064D34 ADD SWAP1 PUSH1 0x80 MLOAD PUSH32 0x191D5C5EDAEF42D3D02EEDBB7AB8562513DEB4EB34913A13421726BA8F69455C ADD PUSH1 0xA0 MLOAD PUSH32 0x11D7F8D1F269264282A263FEA6D7599D82A04C74C127DE9DEE7939DD2DCD089E ADD SWAP3 PUSH1 0xC0 MLOAD PUSH32 0x4218FDE366829ED90F79AD5E67997973445CB4CD6BC6F951BAD085286CAC971 ADD PUSH1 0x0 DUP1 MLOAD PUSH1 0x20 PUSH2 0xC936 DUP4 CODECOPY DUP2 MLOAD SWAP2 MSTORE DUP1 DUP1 DUP1 DUP1 DUP1 DUP10 DUP2 DUP1 DUP3 DUP2 SWAP14 MULMOD DUP1 MULMOD MULMOD SWAP6 DUP11 DUP3 DUP1 DUP1 PUSH1 0x0 DUP1 MLOAD PUSH1 0x20 PUSH2 0xC9D6 DUP4 CODECOPY DUP2 MLOAD SWAP2 MSTORE DUP6 MULMOD SWAP3 PUSH1 0x0 DUP1 MLOAD PUSH1 0x20 PUSH2 0xC8B6 DUP4 CODECOPY DUP2 MLOAD SWAP2 MSTORE SWAP1 MULMOD DUP2 PUSH1 0x0 DUP1 MLOAD PUSH1 0x20 PUSH2 0xCA56 DUP4 CODECOPY DUP2 MLOAD SWAP2 MSTORE DUP14 MULMOD DUP3 PUSH1 0x0 DUP1 MLOAD PUSH1 0x20 PUSH2 0xC976 DUP4 CODECOPY DUP2 MLOAD SWAP2 MSTORE DUP14 MULMOD DUP4 PUSH1 0x0 DUP1 MLOAD PUSH1 0x20 PUSH2 0xCA96 DUP4 CODECOPY DUP2 MLOAD SWAP2 MSTORE DUP14 MULMOD ADD ADD ADD MOD ADD PUSH1 0x0 MSTORE DUP11 DUP3 DUP1 DUP1 PUSH1 0x0 DUP1 MLOAD PUSH1 0x20 PUSH2 0xCAF6 DUP4 CODECOPY DUP2 MLOAD SWAP2 MSTORE DUP6 MULMOD SWAP3 PUSH1 0x0 DUP1 MLOAD PUSH1 0x20 PUSH2 0xC8D6 DUP4 CODECOPY DUP2 MLOAD SWAP2 MSTORE SWAP1 MULMOD DUP2 PUSH1 0x0 DUP1 MLOAD PUSH1 0x20 PUSH2 0xCA16 DUP4 CODECOPY DUP2 MLOAD SWAP2 MSTORE DUP14 MULMOD DUP3 PUSH1 0x0 DUP1 MLOAD PUSH1 0x20 PUSH2 0xCAB6 DUP4 CODECOPY DUP2 MLOAD SWAP2 MSTORE DUP14 MULMOD DUP4 PUSH1 0x0 DUP1 MLOAD PUSH1 0x20 PUSH2 0xC856 DUP4 CODECOPY DUP2 MLOAD SWAP2 MSTORE DUP14 MULMOD ADD ADD ADD MOD ADD PUSH1 0x20 MSTORE DUP11 DUP3 DUP1 DUP1 PUSH1 0x0 DUP1 MLOAD PUSH1 0x20 PUSH2 0xC836 DUP4 CODECOPY DUP2 MLOAD SWAP2 MSTORE DUP6 MULMOD SWAP3 PUSH1 0x0 DUP1 MLOAD PUSH1 0x20 PUSH2 0xC9B6 DUP4 CODECOPY DUP2 MLOAD SWAP2 MSTORE SWAP1 MULMOD DUP2 PUSH1 0x0 DUP1 MLOAD PUSH1 0x20 PUSH2 0xC956 DUP4 CODECOPY DUP2 MLOAD SWAP2 MSTORE DUP14 MULMOD DUP3 PUSH1 0x0 DUP1 MLOAD PUSH1 0x20 PUSH2 0xC916 DUP4 CODECOPY DUP2 MLOAD SWAP2 MSTORE DUP14 MULMOD DUP4 PUSH1 0x0 DUP1 MLOAD PUSH1 0x20 PUSH2 0xC7D6 DUP4 CODECOPY DUP2 MLOAD SWAP2 MSTORE DUP14 MULMOD ADD ADD ADD MOD ADD PUSH1 0x80 MSTORE DUP11 DUP3 DUP1 DUP1 PUSH1 0x0 DUP1 MLOAD PUSH1 0x20 PUSH2 0xC7F6 DUP4 CODECOPY DUP2 MLOAD SWAP2 MSTORE DUP6 MULMOD SWAP3 PUSH1 0x0 DUP1 MLOAD PUSH1 0x20 PUSH2 0xC8F6 DUP4 CODECOPY DUP2 MLOAD SWAP2 MSTORE SWAP1 MULMOD DUP2 PUSH1 0x0 DUP1 MLOAD PUSH1 0x20 PUSH2 0xC896 DUP4 CODECOPY DUP2 MLOAD SWAP2 MSTORE DUP14 MULMOD DUP3 PUSH1 0x0 DUP1 MLOAD PUSH1 0x20 PUSH2 0xCA76 DUP4 CODECOPY DUP2 MLOAD SWAP2 MSTORE DUP14 MULMOD DUP4 PUSH1 0x0 DUP1 MLOAD PUSH1 0x20 PUSH2 0xCAD6 DUP4 CODECOPY DUP2 MLOAD SWAP2 MSTORE DUP14 MULMOD ADD ADD ADD MOD ADD PUSH1 0xA0 MSTORE PUSH1 0x0 DUP1 MLOAD PUSH1 0x20 PUSH2 0xC876 DUP4 CODECOPY DUP2 MLOAD SWAP2 MSTORE SWAP1 MULMOD SWAP9 PUSH1 0x0 DUP1 MLOAD PUSH1 0x20 PUSH2 0xC816 DUP4 CODECOPY DUP2 MLOAD SWAP2 MSTORE SWAP1 MULMOD SWAP6 PUSH1 0x0 DUP1 MLOAD PUSH1 0x20 PUSH2 0xC996 DUP4 CODECOPY DUP2 MLOAD SWAP2 MSTORE SWAP1 MULMOD SWAP4 PUSH1 0x0 DUP1 MLOAD PUSH1 0x20 PUSH2 0xCA36 DUP4 CODECOPY DUP2 MLOAD SWAP2 MSTORE SWAP1 MULMOD SWAP2 PUSH1 0x0 DUP1 MLOAD PUSH1 0x20 PUSH2 0xC9F6 DUP4 CODECOPY DUP2 MLOAD SWAP2 MSTORE SWAP1 MULMOD ADD ADD ADD MOD ADD PUSH1 0xC0 MSTORE JUMP JUMPDEST PUSH1 0x0 MLOAD PUSH31 0x70772F7CF52453048397CA5F47A202027B73B489301C3227B71C730D76D6DD ADD PUSH1 0x20 MLOAD PUSH32 0x38A389BAEF5D9A7C865B065687A1D9B67681A98CD051634C1DC04DBE3D2B861 ADD SWAP1 PUSH1 0x80 MLOAD PUSH32 0x9A5EEFAB8B36A80CDA446B2B4B59CCD0F39D00966A50BEAF19860789015A6E5 ADD PUSH1 0xA0 MLOAD PUSH32 0x1B588848B8B47C8B969C145109B4B583D9EC99EDFACB7489D16212C7584CD8C ADD SWAP3 PUSH1 0xC0 MLOAD PUSH32 0xB846E4A390E560F6E1AF6DFC3341419545E5ABFA323D817FED91E30D42954A6 ADD PUSH1 0x0 DUP1 MLOAD PUSH1 0x20 PUSH2 0xC936 DUP4 CODECOPY DUP2 MLOAD SWAP2 MSTORE DUP1 DUP1 DUP1 DUP1 DUP1 DUP10 DUP2 DUP1 DUP3 DUP2 SWAP14 MULMOD DUP1 MULMOD MULMOD SWAP6 DUP11 DUP3 DUP1 DUP1 PUSH1 0x0 DUP1 MLOAD PUSH1 0x20 PUSH2 0xC9D6 DUP4 CODECOPY DUP2 MLOAD SWAP2 MSTORE DUP6 MULMOD SWAP3 PUSH1 0x0 DUP1 MLOAD PUSH1 0x20 PUSH2 0xC8B6 DUP4 CODECOPY DUP2 MLOAD SWAP2 MSTORE SWAP1 MULMOD DUP2 PUSH1 0x0 DUP1 MLOAD PUSH1 0x20 PUSH2 0xCA56 DUP4 CODECOPY DUP2 MLOAD SWAP2 MSTORE DUP14 MULMOD DUP3 PUSH1 0x0 DUP1 MLOAD PUSH1 0x20 PUSH2 0xC976 DUP4 CODECOPY DUP2 MLOAD SWAP2 MSTORE DUP14 MULMOD DUP4 PUSH1 0x0 DUP1 MLOAD PUSH1 0x20 PUSH2 0xCA96 DUP4 CODECOPY DUP2 MLOAD SWAP2 MSTORE DUP14 MULMOD ADD ADD ADD MOD ADD PUSH1 0x0 MSTORE DUP11 DUP3 DUP1 DUP1 PUSH1 0x0 DUP1 MLOAD PUSH1 0x20 PUSH2 0xCAF6 DUP4 CODECOPY DUP2 MLOAD SWAP2 MSTORE DUP6 MULMOD SWAP3 PUSH1 0x0 DUP1 MLOAD PUSH1 0x20 PUSH2 0xC8D6 DUP4 CODECOPY DUP2 MLOAD SWAP2 MSTORE SWAP1 MULMOD DUP2 PUSH1 0x0 DUP1 MLOAD PUSH1 0x20 PUSH2 0xCA16 DUP4 CODECOPY DUP2 MLOAD SWAP2 MSTORE DUP14 MULMOD DUP3 PUSH1 0x0 DUP1 MLOAD PUSH1 0x20 PUSH2 0xCAB6 DUP4 CODECOPY DUP2 MLOAD SWAP2 MSTORE DUP14 MULMOD DUP4 PUSH1 0x0 DUP1 MLOAD PUSH1 0x20 PUSH2 0xC856 DUP4 CODECOPY DUP2 MLOAD SWAP2 MSTORE DUP14 MULMOD ADD ADD ADD MOD ADD PUSH1 0x20 MSTORE DUP11 DUP3 DUP1 DUP1 PUSH1 0x0 DUP1 MLOAD PUSH1 0x20 PUSH2 0xC836 DUP4 CODECOPY DUP2 MLOAD SWAP2 MSTORE DUP6 MULMOD SWAP3 PUSH1 0x0 DUP1 MLOAD PUSH1 0x20 PUSH2 0xC9B6 DUP4 CODECOPY DUP2 MLOAD SWAP2 MSTORE SWAP1 MULMOD DUP2 PUSH1 0x0 DUP1 MLOAD PUSH1 0x20 PUSH2 0xC956 DUP4 CODECOPY DUP2 MLOAD SWAP2 MSTORE DUP14 MULMOD DUP3 PUSH1 0x0 DUP1 MLOAD PUSH1 0x20 PUSH2 0xC916 DUP4 CODECOPY DUP2 MLOAD SWAP2 MSTORE DUP14 MULMOD DUP4 PUSH1 0x0 DUP1 MLOAD PUSH1 0x20 PUSH2 0xC7D6 DUP4 CODECOPY DUP2 MLOAD SWAP2 MSTORE DUP14 MULMOD ADD ADD ADD MOD ADD PUSH1 0x80 MSTORE DUP11 DUP3 DUP1 DUP1 PUSH1 0x0 DUP1 MLOAD PUSH1 0x20 PUSH2 0xC7F6 DUP4 CODECOPY DUP2 MLOAD SWAP2 MSTORE DUP6 MULMOD SWAP3 PUSH1 0x0 DUP1 MLOAD PUSH1 0x20 PUSH2 0xC8F6 DUP4 CODECOPY DUP2 MLOAD SWAP2 MSTORE SWAP1 MULMOD DUP2 PUSH1 0x0 DUP1 MLOAD PUSH1 0x20 PUSH2 0xC896 DUP4 CODECOPY DUP2 MLOAD SWAP2 MSTORE DUP14 MULMOD DUP3 PUSH1 0x0 DUP1 MLOAD PUSH1 0x20 PUSH2 0xCA76 DUP4 CODECOPY DUP2 MLOAD SWAP2 MSTORE DUP14 MULMOD DUP4 PUSH1 0x0 DUP1 MLOAD PUSH1 0x20 PUSH2 0xCAD6 DUP4 CODECOPY DUP2 MLOAD SWAP2 MSTORE DUP14 MULMOD ADD ADD ADD MOD ADD PUSH1 0xA0 MSTORE PUSH1 0x0 DUP1 MLOAD PUSH1 0x20 PUSH2 0xC876 DUP4 CODECOPY DUP2 MLOAD SWAP2 MSTORE SWAP1 MULMOD SWAP9 PUSH1 0x0 DUP1 MLOAD PUSH1 0x20 PUSH2 0xC816 DUP4 CODECOPY DUP2 MLOAD SWAP2 MSTORE SWAP1 MULMOD SWAP6 PUSH1 0x0 DUP1 MLOAD PUSH1 0x20 PUSH2 0xC996 DUP4 CODECOPY DUP2 MLOAD SWAP2 MSTORE SWAP1 MULMOD SWAP4 PUSH1 0x0 DUP1 MLOAD PUSH1 0x20 PUSH2 0xCA36 DUP4 CODECOPY DUP2 MLOAD SWAP2 MSTORE SWAP1 MULMOD SWAP2 PUSH1 0x0 DUP1 MLOAD PUSH1 0x20 PUSH2 0xC9F6 DUP4 CODECOPY DUP2 MLOAD SWAP2 MSTORE SWAP1 MULMOD ADD ADD ADD MOD ADD PUSH1 0xC0 MSTORE JUMP JUMPDEST PUSH1 0x0 MLOAD PUSH32 0x23A6679C7D9ADB660D43A02DDB900040EB1513BC394FC4F985CABFE85CE72FE3 ADD PUSH1 0x20 MLOAD PUSH32 0x2E0374A699197E343E5CAA35F1351E9F4C3402FB7C85ECCCF72F31D6FE089254 ADD SWAP1 PUSH1 0x80 MLOAD PUSH32 0x752CD899E52DC4D7F7A08AF4CDE3FF64B8CC0B1176BB9EC37D41913A7A27B48 ADD PUSH1 0xA0 MLOAD PUSH32 0x68F8813127299DAC349A2B6D57397A50275142B664B802C99E2873DD7AE55A7 ADD SWAP3 PUSH1 0xC0 MLOAD PUSH32 0x2BA70A102355D549677574167434B3F986872D04A295B5B8B374330F2DA202B5 ADD PUSH1 0x0 DUP1 MLOAD PUSH1 0x20 PUSH2 0xC936 DUP4 CODECOPY DUP2 MLOAD SWAP2 MSTORE DUP1 DUP1 DUP1 DUP1 DUP1 DUP10 DUP2 DUP1 DUP3 DUP2 SWAP14 MULMOD DUP1 MULMOD MULMOD SWAP6 DUP11 DUP3 DUP1 DUP1 PUSH1 0x0 DUP1 MLOAD PUSH1 0x20 PUSH2 0xC9D6 DUP4 CODECOPY DUP2 MLOAD SWAP2 MSTORE DUP6 MULMOD SWAP3 PUSH1 0x0 DUP1 MLOAD PUSH1 0x20 PUSH2 0xC8B6 DUP4 CODECOPY DUP2 MLOAD SWAP2 MSTORE SWAP1 MULMOD DUP2 PUSH1 0x0 DUP1 MLOAD PUSH1 0x20 PUSH2 0xCA56 DUP4 CODECOPY DUP2 MLOAD SWAP2 MSTORE DUP14 MULMOD DUP3 PUSH1 0x0 DUP1 MLOAD PUSH1 0x20 PUSH2 0xC976 DUP4 CODECOPY DUP2 MLOAD SWAP2 MSTORE DUP14 MULMOD DUP4 PUSH1 0x0 DUP1 MLOAD PUSH1 0x20 PUSH2 0xCA96 DUP4 CODECOPY DUP2 MLOAD SWAP2 MSTORE DUP14 MULMOD ADD ADD ADD MOD ADD PUSH1 0x0 MSTORE DUP11 DUP3 DUP1 DUP1 PUSH1 0x0 DUP1 MLOAD PUSH1 0x20 PUSH2 0xCAF6 DUP4 CODECOPY DUP2 MLOAD SWAP2 MSTORE DUP6 MULMOD SWAP3 PUSH1 0x0 DUP1 MLOAD PUSH1 0x20 PUSH2 0xC8D6 DUP4 CODECOPY DUP2 MLOAD SWAP2 MSTORE SWAP1 MULMOD DUP2 PUSH1 0x0 DUP1 MLOAD PUSH1 0x20 PUSH2 0xCA16 DUP4 CODECOPY DUP2 MLOAD SWAP2 MSTORE DUP14 MULMOD DUP3 PUSH1 0x0 DUP1 MLOAD PUSH1 0x20 PUSH2 0xCAB6 DUP4 CODECOPY DUP2 MLOAD SWAP2 MSTORE DUP14 MULMOD DUP4 PUSH1 0x0 DUP1 MLOAD PUSH1 0x20 PUSH2 0xC856 DUP4 CODECOPY DUP2 MLOAD SWAP2 MSTORE DUP14 MULMOD ADD ADD ADD MOD ADD PUSH1 0x20 MSTORE DUP11 DUP3 DUP1 DUP1 PUSH1 0x0 DUP1 MLOAD PUSH1 0x20 PUSH2 0xC836 DUP4 CODECOPY DUP2 MLOAD SWAP2 MSTORE DUP6 MULMOD SWAP3 PUSH1 0x0 DUP1 MLOAD PUSH1 0x20 PUSH2 0xC9B6 DUP4 CODECOPY DUP2 MLOAD SWAP2 MSTORE SWAP1 MULMOD DUP2 PUSH1 0x0 DUP1 MLOAD PUSH1 0x20 PUSH2 0xC956 DUP4 CODECOPY DUP2 MLOAD SWAP2 MSTORE DUP14 MULMOD DUP3 PUSH1 0x0 DUP1 MLOAD PUSH1 0x20 PUSH2 0xC916 DUP4 CODECOPY DUP2 MLOAD SWAP2 MSTORE DUP14 MULMOD DUP4 PUSH1 0x0 DUP1 MLOAD PUSH1 0x20 PUSH2 0xC7D6 DUP4 CODECOPY DUP2 MLOAD SWAP2 MSTORE DUP14 MULMOD ADD ADD ADD MOD ADD PUSH1 0x80 MSTORE DUP11 DUP3 DUP1 DUP1 PUSH1 0x0 DUP1 MLOAD PUSH1 0x20 PUSH2 0xC7F6 DUP4 CODECOPY DUP2 MLOAD SWAP2 MSTORE DUP6 MULMOD SWAP3 PUSH1 0x0 DUP1 MLOAD PUSH1 0x20 PUSH2 0xC8F6 DUP4 CODECOPY DUP2 MLOAD SWAP2 MSTORE SWAP1 MULMOD DUP2 PUSH1 0x0 DUP1 MLOAD PUSH1 0x20 PUSH2 0xC896 DUP4 CODECOPY DUP2 MLOAD SWAP2 MSTORE DUP14 MULMOD DUP3 PUSH1 0x0 DUP1 MLOAD PUSH1 0x20 PUSH2 0xCA76 DUP4 CODECOPY DUP2 MLOAD SWAP2 MSTORE DUP14 MULMOD DUP4 PUSH1 0x0 DUP1 MLOAD PUSH1 0x20 PUSH2 0xCAD6 DUP4 CODECOPY DUP2 MLOAD SWAP2 MSTORE DUP14 MULMOD ADD ADD ADD MOD ADD PUSH1 0xA0 MSTORE PUSH1 0x0 DUP1 MLOAD PUSH1 0x20 PUSH2 0xC876 DUP4 CODECOPY DUP2 MLOAD SWAP2 MSTORE SWAP1 MULMOD SWAP9 PUSH1 0x0 DUP1 MLOAD PUSH1 0x20 PUSH2 0xC816 DUP4 CODECOPY DUP2 MLOAD SWAP2 MSTORE SWAP1 MULMOD SWAP6 PUSH1 0x0 DUP1 MLOAD PUSH1 0x20 PUSH2 0xC996 DUP4 CODECOPY DUP2 MLOAD SWAP2 MSTORE SWAP1 MULMOD SWAP4 PUSH1 0x0 DUP1 MLOAD PUSH1 0x20 PUSH2 0xCA36 DUP4 CODECOPY DUP2 MLOAD SWAP2 MSTORE SWAP1 MULMOD SWAP2 PUSH1 0x0 DUP1 MLOAD PUSH1 0x20 PUSH2 0xC9F6 DUP4 CODECOPY DUP2 MLOAD SWAP2 MSTORE SWAP1 MULMOD ADD ADD ADD MOD ADD PUSH1 0xC0 MSTORE JUMP JUMPDEST PUSH1 0x0 MLOAD PUSH32 0x2C467AF88748ABF6A334D1DF03B5521309F9099B825DD289B8609E70A0B50828 ADD PUSH1 0x20 MLOAD PUSH32 0x5C5F20BEF1BD82701009A2B448AE881E3A52C2D1A31957296D29E5763E8F497 ADD SWAP1 PUSH1 0x80 MLOAD PUSH32 0xDC6385FDC567BE5842A381F6006E2C60CD083A2C649D9F23AC8C9FE61B73871 ADD PUSH1 0xA0 MLOAD PUSH32 0x142D3983F3DC7F7E19D49911B8670FA70378D5B84150D25ED255BAA8114B369C ADD SWAP3 PUSH1 0xC0 MLOAD PUSH32 0x29A01EFB2F6AA894FD7E6D98C96A0FA0F36F86A7A99AA35C00FA18C1B2DF67BF ADD PUSH1 0x0 DUP1 MLOAD PUSH1 0x20 PUSH2 0xC936 DUP4 CODECOPY DUP2 MLOAD SWAP2 MSTORE DUP1 DUP1 DUP1 DUP1 DUP1 DUP10 DUP2 DUP1 DUP3 DUP2 SWAP14 MULMOD DUP1 MULMOD MULMOD SWAP6 DUP11 DUP3 DUP1 DUP1 PUSH1 0x0 DUP1 MLOAD PUSH1 0x20 PUSH2 0xC9D6 DUP4 CODECOPY DUP2 MLOAD SWAP2 MSTORE DUP6 MULMOD SWAP3 PUSH1 0x0 DUP1 MLOAD PUSH1 0x20 PUSH2 0xC8B6 DUP4 CODECOPY DUP2 MLOAD SWAP2 MSTORE SWAP1 MULMOD DUP2 PUSH1 0x0 DUP1 MLOAD PUSH1 0x20 PUSH2 0xCA56 DUP4 CODECOPY DUP2 MLOAD SWAP2 MSTORE DUP14 MULMOD DUP3 PUSH1 0x0 DUP1 MLOAD PUSH1 0x20 PUSH2 0xC976 DUP4 CODECOPY DUP2 MLOAD SWAP2 MSTORE DUP14 MULMOD DUP4 PUSH1 0x0 DUP1 MLOAD PUSH1 0x20 PUSH2 0xCA96 DUP4 CODECOPY DUP2 MLOAD SWAP2 MSTORE DUP14 MULMOD ADD ADD ADD MOD ADD PUSH1 0x0 MSTORE DUP11 DUP3 DUP1 DUP1 PUSH1 0x0 DUP1 MLOAD PUSH1 0x20 PUSH2 0xCAF6 DUP4 CODECOPY DUP2 MLOAD SWAP2 MSTORE DUP6 MULMOD SWAP3 PUSH1 0x0 DUP1 MLOAD PUSH1 0x20 PUSH2 0xC8D6 DUP4 CODECOPY DUP2 MLOAD SWAP2 MSTORE SWAP1 MULMOD DUP2 PUSH1 0x0 DUP1 MLOAD PUSH1 0x20 PUSH2 0xCA16 DUP4 CODECOPY DUP2 MLOAD SWAP2 MSTORE DUP14 MULMOD DUP3 PUSH1 0x0 DUP1 MLOAD PUSH1 0x20 PUSH2 0xCAB6 DUP4 CODECOPY DUP2 MLOAD SWAP2 MSTORE DUP14 MULMOD DUP4 PUSH1 0x0 DUP1 MLOAD PUSH1 0x20 PUSH2 0xC856 DUP4 CODECOPY DUP2 MLOAD SWAP2 MSTORE DUP14 MULMOD ADD ADD ADD MOD ADD PUSH1 0x20 MSTORE DUP11 DUP3 DUP1 DUP1 PUSH1 0x0 DUP1 MLOAD PUSH1 0x20 PUSH2 0xC836 DUP4 CODECOPY DUP2 MLOAD SWAP2 MSTORE DUP6 MULMOD SWAP3 PUSH1 0x0 DUP1 MLOAD PUSH1 0x20 PUSH2 0xC9B6 DUP4 CODECOPY DUP2 MLOAD SWAP2 MSTORE SWAP1 MULMOD DUP2 PUSH1 0x0 DUP1 MLOAD PUSH1 0x20 PUSH2 0xC956 DUP4 CODECOPY DUP2 MLOAD SWAP2 MSTORE DUP14 MULMOD DUP3 PUSH1 0x0 DUP1 MLOAD PUSH1 0x20 PUSH2 0xC916 DUP4 CODECOPY DUP2 MLOAD SWAP2 MSTORE DUP14 MULMOD DUP4 PUSH1 0x0 DUP1 MLOAD PUSH1 0x20 PUSH2 0xC7D6 DUP4 CODECOPY DUP2 MLOAD SWAP2 MSTORE DUP14 MULMOD ADD ADD ADD MOD ADD PUSH1 0x80 MSTORE DUP11 DUP3 DUP1 DUP1 PUSH1 0x0 DUP1 MLOAD PUSH1 0x20 PUSH2 0xC7F6 DUP4 CODECOPY DUP2 MLOAD SWAP2 MSTORE DUP6 MULMOD SWAP3 PUSH1 0x0 DUP1 MLOAD PUSH1 0x20 PUSH2 0xC8F6 DUP4 CODECOPY DUP2 MLOAD SWAP2 MSTORE SWAP1 MULMOD DUP2 PUSH1 0x0 DUP1 MLOAD PUSH1 0x20 PUSH2 0xC896 DUP4 CODECOPY DUP2 MLOAD SWAP2 MSTORE DUP14 MULMOD DUP3 PUSH1 0x0 DUP1 MLOAD PUSH1 0x20 PUSH2 0xCA76 DUP4 CODECOPY DUP2 MLOAD SWAP2 MSTORE DUP14 MULMOD DUP4 PUSH1 0x0 DUP1 MLOAD PUSH1 0x20 PUSH2 0xCAD6 DUP4 CODECOPY DUP2 MLOAD SWAP2 MSTORE DUP14 MULMOD ADD ADD ADD MOD ADD PUSH1 0xA0 MSTORE PUSH1 0x0 DUP1 MLOAD PUSH1 0x20 PUSH2 0xC876 DUP4 CODECOPY DUP2 MLOAD SWAP2 MSTORE SWAP1 MULMOD SWAP9 PUSH1 0x0 DUP1 MLOAD PUSH1 0x20 PUSH2 0xC816 DUP4 CODECOPY DUP2 MLOAD SWAP2 MSTORE SWAP1 MULMOD SWAP6 PUSH1 0x0 DUP1 MLOAD PUSH1 0x20 PUSH2 0xC996 DUP4 CODECOPY DUP2 MLOAD SWAP2 MSTORE SWAP1 MULMOD SWAP4 PUSH1 0x0 DUP1 MLOAD PUSH1 0x20 PUSH2 0xCA36 DUP4 CODECOPY DUP2 MLOAD SWAP2 MSTORE SWAP1 MULMOD SWAP2 PUSH1 0x0 DUP1 MLOAD PUSH1 0x20 PUSH2 0xC9F6 DUP4 CODECOPY DUP2 MLOAD SWAP2 MSTORE SWAP1 MULMOD ADD ADD ADD MOD ADD PUSH1 0xC0 MSTORE JUMP JUMPDEST PUSH1 0x0 MLOAD PUSH32 0x525FFEE737D605138C4A5066644EC630AB9E8AFC64555B7D2A1AF04EB613A76 ADD PUSH1 0x20 MLOAD PUSH32 0x1E807DCA81D79581F076677CA0E822767E164F614910264EF177CF4238301DC8 ADD SWAP1 PUSH1 0x80 MLOAD PUSH32 0x385FB3F89C74DC993510816472474D34C0223E0F733A52FDBA56082DBD8757C ADD PUSH1 0xA0 MLOAD PUSH32 0x37640DC1AFC0143E1A6298E53CAE59FCFABD7016FD6EF1AF558F337BAB0EA01 ADD SWAP3 PUSH1 0xC0 MLOAD PUSH32 0x1341999A1ED86919F12A6C5260829EEE5FD56CF031DA8050B7E4C0DE896074B4 ADD PUSH1 0x0 DUP1 MLOAD PUSH1 0x20 PUSH2 0xC936 DUP4 CODECOPY DUP2 MLOAD SWAP2 MSTORE DUP1 DUP1 DUP1 DUP1 DUP1 DUP10 DUP2 DUP1 DUP3 DUP2 SWAP14 MULMOD DUP1 MULMOD MULMOD SWAP6 DUP11 DUP3 DUP1 DUP1 PUSH1 0x0 DUP1 MLOAD PUSH1 0x20 PUSH2 0xC9D6 DUP4 CODECOPY DUP2 MLOAD SWAP2 MSTORE DUP6 MULMOD SWAP3 PUSH1 0x0 DUP1 MLOAD PUSH1 0x20 PUSH2 0xC8B6 DUP4 CODECOPY DUP2 MLOAD SWAP2 MSTORE SWAP1 MULMOD DUP2 PUSH1 0x0 DUP1 MLOAD PUSH1 0x20 PUSH2 0xCA56 DUP4 CODECOPY DUP2 MLOAD SWAP2 MSTORE DUP14 MULMOD DUP3 PUSH1 0x0 DUP1 MLOAD PUSH1 0x20 PUSH2 0xC976 DUP4 CODECOPY DUP2 MLOAD SWAP2 MSTORE DUP14 MULMOD DUP4 PUSH1 0x0 DUP1 MLOAD PUSH1 0x20 PUSH2 0xCA96 DUP4 CODECOPY DUP2 MLOAD SWAP2 MSTORE DUP14 MULMOD ADD ADD ADD MOD ADD PUSH1 0x0 MSTORE DUP11 DUP3 DUP1 DUP1 PUSH1 0x0 DUP1 MLOAD PUSH1 0x20 PUSH2 0xCAF6 DUP4 CODECOPY DUP2 MLOAD SWAP2 MSTORE DUP6 MULMOD SWAP3 PUSH1 0x0 DUP1 MLOAD PUSH1 0x20 PUSH2 0xC8D6 DUP4 CODECOPY DUP2 MLOAD SWAP2 MSTORE SWAP1 MULMOD DUP2 PUSH1 0x0 DUP1 MLOAD PUSH1 0x20 PUSH2 0xCA16 DUP4 CODECOPY DUP2 MLOAD SWAP2 MSTORE DUP14 MULMOD DUP3 PUSH1 0x0 DUP1 MLOAD PUSH1 0x20 PUSH2 0xCAB6 DUP4 CODECOPY DUP2 MLOAD SWAP2 MSTORE DUP14 MULMOD DUP4 PUSH1 0x0 DUP1 MLOAD PUSH1 0x20 PUSH2 0xC856 DUP4 CODECOPY DUP2 MLOAD SWAP2 MSTORE DUP14 MULMOD ADD ADD ADD MOD ADD PUSH1 0x20 MSTORE DUP11 DUP3 DUP1 DUP1 PUSH1 0x0 DUP1 MLOAD PUSH1 0x20 PUSH2 0xC836 DUP4 CODECOPY DUP2 MLOAD SWAP2 MSTORE DUP6 MULMOD SWAP3 PUSH1 0x0 DUP1 MLOAD PUSH1 0x20 PUSH2 0xC9B6 DUP4 CODECOPY DUP2 MLOAD SWAP2 MSTORE SWAP1 MULMOD DUP2 PUSH1 0x0 DUP1 MLOAD PUSH1 0x20 PUSH2 0xC956 DUP4 CODECOPY DUP2 MLOAD SWAP2 MSTORE DUP14 MULMOD DUP3 PUSH1 0x0 DUP1 MLOAD PUSH1 0x20 PUSH2 0xC916 DUP4 CODECOPY DUP2 MLOAD SWAP2 MSTORE DUP14 MULMOD DUP4 PUSH1 0x0 DUP1 MLOAD PUSH1 0x20 PUSH2 0xC7D6 DUP4 CODECOPY DUP2 MLOAD SWAP2 MSTORE DUP14 MULMOD ADD ADD ADD MOD ADD PUSH1 0x80 MSTORE DUP11 DUP3 DUP1 DUP1 PUSH1 0x0 DUP1 MLOAD PUSH1 0x20 PUSH2 0xC7F6 DUP4 CODECOPY DUP2 MLOAD SWAP2 MSTORE DUP6 MULMOD SWAP3 PUSH1 0x0 DUP1 MLOAD PUSH1 0x20 PUSH2 0xC8F6 DUP4 CODECOPY DUP2 MLOAD SWAP2 MSTORE SWAP1 MULMOD DUP2 PUSH1 0x0 DUP1 MLOAD PUSH1 0x20 PUSH2 0xC896 DUP4 CODECOPY DUP2 MLOAD SWAP2 MSTORE DUP14 MULMOD DUP3 PUSH1 0x0 DUP1 MLOAD PUSH1 0x20 PUSH2 0xCA76 DUP4 CODECOPY DUP2 MLOAD SWAP2 MSTORE DUP14 MULMOD DUP4 PUSH1 0x0 DUP1 MLOAD PUSH1 0x20 PUSH2 0xCAD6 DUP4 CODECOPY DUP2 MLOAD SWAP2 MSTORE DUP14 MULMOD ADD ADD ADD MOD ADD PUSH1 0xA0 MSTORE PUSH1 0x0 DUP1 MLOAD PUSH1 0x20 PUSH2 0xC876 DUP4 CODECOPY DUP2 MLOAD SWAP2 MSTORE SWAP1 MULMOD SWAP9 PUSH1 0x0 DUP1 MLOAD PUSH1 0x20 PUSH2 0xC816 DUP4 CODECOPY DUP2 MLOAD SWAP2 MSTORE SWAP1 MULMOD SWAP6 PUSH1 0x0 DUP1 MLOAD PUSH1 0x20 PUSH2 0xC996 DUP4 CODECOPY DUP2 MLOAD SWAP2 MSTORE SWAP1 MULMOD SWAP4 PUSH1 0x0 DUP1 MLOAD PUSH1 0x20 PUSH2 0xCA36 DUP4 CODECOPY DUP2 MLOAD SWAP2 MSTORE SWAP1 MULMOD SWAP2 PUSH1 0x0 DUP1 MLOAD PUSH1 0x20 PUSH2 0xC9F6 DUP4 CODECOPY DUP2 MLOAD SWAP2 MSTORE SWAP1 MULMOD ADD ADD ADD MOD ADD PUSH1 0xC0 MSTORE JUMP JUMPDEST PUSH1 0x0 MLOAD PUSH32 0x69EB075866B0AF356906D4BAFB10AD773AFD642EFDCC5657B244F65BED8ECE7 ADD PUSH1 0x20 MLOAD PUSH32 0x171C0B81E62136E395B38E8E08B3E646D2726101D3AFAA02EA1909A619033696 ADD SWAP1 PUSH1 0x80 MLOAD PUSH32 0x2C81814C9453F51CB6EB55C311753E84CBBDCB39BFE696F95575107502ACCED8 ADD PUSH1 0xA0 MLOAD PUSH32 0x29D843C0415D35D9E3B33FADCF274B2AB04B39032ADCA92CE39B8A86A7C3A604 ADD SWAP3 PUSH1 0xC0 MLOAD PUSH32 0x85D6A1070F3513D8436BCCDABB78750D8E15EA5947F2CDAA7669CF3FAE7728B ADD PUSH1 0x0 DUP1 MLOAD PUSH1 0x20 PUSH2 0xC936 DUP4 CODECOPY DUP2 MLOAD SWAP2 MSTORE DUP1 DUP1 DUP1 DUP1 DUP1 DUP10 DUP2 DUP1 DUP3 DUP2 SWAP14 MULMOD DUP1 MULMOD MULMOD SWAP6 DUP11 DUP3 DUP1 DUP1 PUSH1 0x0 DUP1 MLOAD PUSH1 0x20 PUSH2 0xC9D6 DUP4 CODECOPY DUP2 MLOAD SWAP2 MSTORE DUP6 MULMOD SWAP3 PUSH1 0x0 DUP1 MLOAD PUSH1 0x20 PUSH2 0xC8B6 DUP4 CODECOPY DUP2 MLOAD SWAP2 MSTORE SWAP1 MULMOD DUP2 PUSH1 0x0 DUP1 MLOAD PUSH1 0x20 PUSH2 0xCA56 DUP4 CODECOPY DUP2 MLOAD SWAP2 MSTORE DUP14 MULMOD DUP3 PUSH1 0x0 DUP1 MLOAD PUSH1 0x20 PUSH2 0xC976 DUP4 CODECOPY DUP2 MLOAD SWAP2 MSTORE DUP14 MULMOD DUP4 PUSH1 0x0 DUP1 MLOAD PUSH1 0x20 PUSH2 0xCA96 DUP4 CODECOPY DUP2 MLOAD SWAP2 MSTORE DUP14 MULMOD ADD ADD ADD MOD ADD PUSH1 0x0 MSTORE DUP11 DUP3 DUP1 DUP1 PUSH1 0x0 DUP1 MLOAD PUSH1 0x20 PUSH2 0xCAF6 DUP4 CODECOPY DUP2 MLOAD SWAP2 MSTORE DUP6 MULMOD SWAP3 PUSH1 0x0 DUP1 MLOAD PUSH1 0x20 PUSH2 0xC8D6 DUP4 CODECOPY DUP2 MLOAD SWAP2 MSTORE SWAP1 MULMOD DUP2 PUSH1 0x0 DUP1 MLOAD PUSH1 0x20 PUSH2 0xCA16 DUP4 CODECOPY DUP2 MLOAD SWAP2 MSTORE DUP14 MULMOD DUP3 PUSH1 0x0 DUP1 MLOAD PUSH1 0x20 PUSH2 0xCAB6 DUP4 CODECOPY DUP2 MLOAD SWAP2 MSTORE DUP14 MULMOD DUP4 PUSH1 0x0 DUP1 MLOAD PUSH1 0x20 PUSH2 0xC856 DUP4 CODECOPY DUP2 MLOAD SWAP2 MSTORE DUP14 MULMOD ADD ADD ADD MOD ADD PUSH1 0x20 MSTORE DUP11 DUP3 DUP1 DUP1 PUSH1 0x0 DUP1 MLOAD PUSH1 0x20 PUSH2 0xC836 DUP4 CODECOPY DUP2 MLOAD SWAP2 MSTORE DUP6 MULMOD SWAP3 PUSH1 0x0 DUP1 MLOAD PUSH1 0x20 PUSH2 0xC9B6 DUP4 CODECOPY DUP2 MLOAD SWAP2 MSTORE SWAP1 MULMOD DUP2 PUSH1 0x0 DUP1 MLOAD PUSH1 0x20 PUSH2 0xC956 DUP4 CODECOPY DUP2 MLOAD SWAP2 MSTORE DUP14 MULMOD DUP3 PUSH1 0x0 DUP1 MLOAD PUSH1 0x20 PUSH2 0xC916 DUP4 CODECOPY DUP2 MLOAD SWAP2 MSTORE DUP14 MULMOD DUP4 PUSH1 0x0 DUP1 MLOAD PUSH1 0x20 PUSH2 0xC7D6 DUP4 CODECOPY DUP2 MLOAD SWAP2 MSTORE DUP14 MULMOD ADD ADD ADD MOD ADD PUSH1 0x80 MSTORE DUP11 DUP3 DUP1 DUP1 PUSH1 0x0 DUP1 MLOAD PUSH1 0x20 PUSH2 0xC7F6 DUP4 CODECOPY DUP2 MLOAD SWAP2 MSTORE DUP6 MULMOD SWAP3 PUSH1 0x0 DUP1 MLOAD PUSH1 0x20 PUSH2 0xC8F6 DUP4 CODECOPY DUP2 MLOAD SWAP2 MSTORE SWAP1 MULMOD DUP2 PUSH1 0x0 DUP1 MLOAD PUSH1 0x20 PUSH2 0xC896 DUP4 CODECOPY DUP2 MLOAD SWAP2 MSTORE DUP14 MULMOD DUP3 PUSH1 0x0 DUP1 MLOAD PUSH1 0x20 PUSH2 0xCA76 DUP4 CODECOPY DUP2 MLOAD SWAP2 MSTORE DUP14 MULMOD DUP4 PUSH1 0x0 DUP1 MLOAD PUSH1 0x20 PUSH2 0xCAD6 DUP4 CODECOPY DUP2 MLOAD SWAP2 MSTORE DUP14 MULMOD ADD ADD ADD MOD ADD PUSH1 0xA0 MSTORE PUSH1 0x0 DUP1 MLOAD PUSH1 0x20 PUSH2 0xC876 DUP4 CODECOPY DUP2 MLOAD SWAP2 MSTORE SWAP1 MULMOD SWAP9 PUSH1 0x0 DUP1 MLOAD PUSH1 0x20 PUSH2 0xC816 DUP4 CODECOPY DUP2 MLOAD SWAP2 MSTORE SWAP1 MULMOD SWAP6 PUSH1 0x0 DUP1 MLOAD PUSH1 0x20 PUSH2 0xC996 DUP4 CODECOPY DUP2 MLOAD SWAP2 MSTORE SWAP1 MULMOD SWAP4 PUSH1 0x0 DUP1 MLOAD PUSH1 0x20 PUSH2 0xCA36 DUP4 CODECOPY DUP2 MLOAD SWAP2 MSTORE SWAP1 MULMOD SWAP2 PUSH1 0x0 DUP1 MLOAD PUSH1 0x20 PUSH2 0xC9F6 DUP4 CODECOPY DUP2 MLOAD SWAP2 MSTORE SWAP1 MULMOD ADD ADD ADD MOD ADD PUSH1 0xC0 MSTORE JUMP JUMPDEST PUSH1 0x0 MLOAD PUSH32 0x2EB4F99C69F966EBF8A42192DE7FF61621C7BB47B93750C2B9EA08D18446C122 ADD PUSH1 0x20 MLOAD PUSH32 0x224A28E5A35385A7C5198169E405D9EA0FC7DA8B93EE13B6D5F7D099E299520E ADD SWAP1 PUSH1 0x80 MLOAD PUSH32 0xF7411B465E600EED8AFDD6AFCA49C3036F33ECBD9A0F97823796B993BBD82F7 ADD PUSH1 0xA0 MLOAD PUSH32 0xF9D0D5AAD2C9555A2BE7150392D8D9819B208AE3370F99A0626F9FF5D90E4E3 ADD SWAP1 PUSH1 0xC0 MLOAD PUSH32 0x1E9A96DC8292BB596F52A59538D329229732B25259CF744B6A12D30702D6FBA0 ADD SWAP4 PUSH1 0x0 DUP1 MLOAD PUSH1 0x20 PUSH2 0xC936 DUP4 CODECOPY DUP2 MLOAD SWAP2 MSTORE DUP1 DUP1 DUP1 DUP1 DUP1 DUP1 DUP1 DUP1 DUP1 DUP14 DUP2 SWAP15 DUP3 DUP2 DUP2 SWAP3 MULMOD DUP1 MULMOD MULMOD SWAP10 DUP2 DUP1 DUP3 DUP1 MULMOD DUP1 MULMOD MULMOD SWAP10 DUP2 DUP1 DUP3 DUP1 MULMOD DUP1 MULMOD MULMOD SWAP10 DUP2 DUP1 DUP3 DUP1 MULMOD DUP1 MULMOD MULMOD SWAP11 DUP2 DUP1 DUP3 DUP1 MULMOD DUP1 MULMOD MULMOD DUP11 DUP3 DUP1 DUP1 PUSH1 0x0 DUP1 MLOAD PUSH1 0x20 PUSH2 0xC9D6 DUP4 CODECOPY DUP2 MLOAD SWAP2 MSTORE DUP6 MULMOD SWAP3 PUSH1 0x0 DUP1 MLOAD PUSH1 0x20 PUSH2 0xC8B6 DUP4 CODECOPY DUP2 MLOAD SWAP2 MSTORE SWAP1 MULMOD DUP2 PUSH1 0x0 DUP1 MLOAD PUSH1 0x20 PUSH2 0xCA56 DUP4 CODECOPY DUP2 MLOAD SWAP2 MSTORE DUP14 MULMOD DUP3 PUSH1 0x0 DUP1 MLOAD PUSH1 0x20 PUSH2 0xC976 DUP4 CODECOPY DUP2 MLOAD SWAP2 MSTORE DUP14 MULMOD DUP4 PUSH1 0x0 DUP1 MLOAD PUSH1 0x20 PUSH2 0xCA96 DUP4 CODECOPY DUP2 MLOAD SWAP2 MSTORE DUP14 MULMOD ADD ADD ADD MOD ADD PUSH1 0x0 MSTORE DUP11 DUP3 DUP1 DUP1 PUSH1 0x0 DUP1 MLOAD PUSH1 0x20 PUSH2 0xCAF6 DUP4 CODECOPY DUP2 MLOAD SWAP2 MSTORE DUP6 MULMOD SWAP3 PUSH1 0x0 DUP1 MLOAD PUSH1 0x20 PUSH2 0xC8D6 DUP4 CODECOPY DUP2 MLOAD SWAP2 MSTORE SWAP1 MULMOD DUP2 PUSH1 0x0 DUP1 MLOAD PUSH1 0x20 PUSH2 0xCA16 DUP4 CODECOPY DUP2 MLOAD SWAP2 MSTORE DUP14 MULMOD DUP3 PUSH1 0x0 DUP1 MLOAD PUSH1 0x20 PUSH2 0xCAB6 DUP4 CODECOPY DUP2 MLOAD SWAP2 MSTORE DUP14 MULMOD DUP4 PUSH1 0x0 DUP1 MLOAD PUSH1 0x20 PUSH2 0xC856 DUP4 CODECOPY DUP2 MLOAD SWAP2 MSTORE DUP14 MULMOD ADD ADD ADD MOD ADD PUSH1 0x20 MSTORE DUP11 DUP3 DUP1 DUP1 PUSH1 0x0 DUP1 MLOAD PUSH1 0x20 PUSH2 0xC836 DUP4 CODECOPY DUP2 MLOAD SWAP2 MSTORE DUP6 MULMOD SWAP3 PUSH1 0x0 DUP1 MLOAD PUSH1 0x20 PUSH2 0xC9B6 DUP4 CODECOPY DUP2 MLOAD SWAP2 MSTORE SWAP1 MULMOD DUP2 PUSH1 0x0 DUP1 MLOAD PUSH1 0x20 PUSH2 0xC956 DUP4 CODECOPY DUP2 MLOAD SWAP2 MSTORE DUP14 MULMOD DUP3 PUSH1 0x0 DUP1 MLOAD PUSH1 0x20 PUSH2 0xC916 DUP4 CODECOPY DUP2 MLOAD SWAP2 MSTORE DUP14 MULMOD DUP4 PUSH1 0x0 DUP1 MLOAD PUSH1 0x20 PUSH2 0xC7D6 DUP4 CODECOPY DUP2 MLOAD SWAP2 MSTORE DUP14 MULMOD ADD ADD ADD MOD ADD PUSH1 0x80 MSTORE DUP11 DUP3 DUP1 DUP1 PUSH1 0x0 DUP1 MLOAD PUSH1 0x20 PUSH2 0xC7F6 DUP4 CODECOPY DUP2 MLOAD SWAP2 MSTORE DUP6 MULMOD SWAP3 PUSH1 0x0 DUP1 MLOAD PUSH1 0x20 PUSH2 0xC8F6 DUP4 CODECOPY DUP2 MLOAD SWAP2 MSTORE SWAP1 MULMOD DUP2 PUSH1 0x0 DUP1 MLOAD PUSH1 0x20 PUSH2 0xC896 DUP4 CODECOPY DUP2 MLOAD SWAP2 MSTORE DUP14 MULMOD DUP3 PUSH1 0x0 DUP1 MLOAD PUSH1 0x20 PUSH2 0xCA76 DUP4 CODECOPY DUP2 MLOAD SWAP2 MSTORE DUP14 MULMOD DUP4 PUSH1 0x0 DUP1 MLOAD PUSH1 0x20 PUSH2 0xCAD6 DUP4 CODECOPY DUP2 MLOAD SWAP2 MSTORE DUP14 MULMOD ADD ADD ADD MOD ADD PUSH1 0xA0 MSTORE PUSH1 0x0 DUP1 MLOAD PUSH1 0x20 PUSH2 0xC876 DUP4 CODECOPY DUP2 MLOAD SWAP2 MSTORE SWAP1 MULMOD SWAP9 PUSH1 0x0 DUP1 MLOAD PUSH1 0x20 PUSH2 0xC816 DUP4 CODECOPY DUP2 MLOAD SWAP2 MSTORE SWAP1 MULMOD SWAP6 PUSH1 0x0 DUP1 MLOAD PUSH1 0x20 PUSH2 0xC996 DUP4 CODECOPY DUP2 MLOAD SWAP2 MSTORE SWAP1 MULMOD SWAP4 PUSH1 0x0 DUP1 MLOAD PUSH1 0x20 PUSH2 0xCA36 DUP4 CODECOPY DUP2 MLOAD SWAP2 MSTORE SWAP1 MULMOD SWAP2 PUSH1 0x0 DUP1 MLOAD PUSH1 0x20 PUSH2 0xC9F6 DUP4 CODECOPY DUP2 MLOAD SWAP2 MSTORE SWAP1 MULMOD ADD ADD ADD MOD ADD PUSH1 0xC0 MSTORE JUMP JUMPDEST PUSH1 0x0 MLOAD PUSH32 0x8780514CCD90380887D578C45555E593CFE52EAB4B945C6C2CD4D528FB3FE3C ADD PUSH1 0x20 MLOAD PUSH32 0x272498FCED686C7AC8149FA3F73EF8C2CED64717E3556D5A59F119D629CCB5FC ADD SWAP1 PUSH1 0x80 MLOAD PUSH32 0x1EF8F9DD7C93AAC4B7CB80930BD06EB45BD350AFF585F10E3D0EF8A782EF7DF ADD PUSH1 0xA0 MLOAD PUSH32 0x45B9F59B6595E614DC08F222B469B138E886E64BF3C40AA97EA0AE754934D30 ADD SWAP1 PUSH1 0xC0 MLOAD PUSH32 0xAC1E91C57D9DA919FD6F59D2A40FF8EA3E41E24E247A387ADF2584295D61C66 ADD SWAP4 PUSH1 0x0 DUP1 MLOAD PUSH1 0x20 PUSH2 0xC936 DUP4 CODECOPY DUP2 MLOAD SWAP2 MSTORE DUP1 DUP1 DUP1 DUP1 DUP1 DUP1 DUP1 DUP1 DUP1 DUP14 DUP2 SWAP15 DUP3 DUP2 DUP2 SWAP3 MULMOD DUP1 MULMOD MULMOD SWAP10 DUP2 DUP1 DUP3 DUP1 MULMOD DUP1 MULMOD MULMOD SWAP10 DUP2 DUP1 DUP3 DUP1 MULMOD DUP1 MULMOD MULMOD SWAP10 DUP2 DUP1 DUP3 DUP1 MULMOD DUP1 MULMOD MULMOD SWAP11 DUP2 DUP1 DUP3 DUP1 MULMOD DUP1 MULMOD MULMOD DUP11 DUP3 DUP1 DUP1 PUSH1 0x0 DUP1 MLOAD PUSH1 0x20 PUSH2 0xC9D6 DUP4 CODECOPY DUP2 MLOAD SWAP2 MSTORE DUP6 MULMOD SWAP3 PUSH1 0x0 DUP1 MLOAD PUSH1 0x20 PUSH2 0xC8B6 DUP4 CODECOPY DUP2 MLOAD SWAP2 MSTORE SWAP1 MULMOD DUP2 PUSH1 0x0 DUP1 MLOAD PUSH1 0x20 PUSH2 0xCA56 DUP4 CODECOPY DUP2 MLOAD SWAP2 MSTORE DUP14 MULMOD DUP3 PUSH1 0x0 DUP1 MLOAD PUSH1 0x20 PUSH2 0xC976 DUP4 CODECOPY DUP2 MLOAD SWAP2 MSTORE DUP14 MULMOD DUP4 PUSH1 0x0 DUP1 MLOAD PUSH1 0x20 PUSH2 0xCA96 DUP4 CODECOPY DUP2 MLOAD SWAP2 MSTORE DUP14 MULMOD ADD ADD ADD MOD ADD PUSH1 0x0 MSTORE DUP11 DUP3 DUP1 DUP1 PUSH1 0x0 DUP1 MLOAD PUSH1 0x20 PUSH2 0xCAF6 DUP4 CODECOPY DUP2 MLOAD SWAP2 MSTORE DUP6 MULMOD SWAP3 PUSH1 0x0 DUP1 MLOAD PUSH1 0x20 PUSH2 0xC8D6 DUP4 CODECOPY DUP2 MLOAD SWAP2 MSTORE SWAP1 MULMOD DUP2 PUSH1 0x0 DUP1 MLOAD PUSH1 0x20 PUSH2 0xCA16 DUP4 CODECOPY DUP2 MLOAD SWAP2 MSTORE DUP14 MULMOD DUP3 PUSH1 0x0 DUP1 MLOAD PUSH1 0x20 PUSH2 0xCAB6 DUP4 CODECOPY DUP2 MLOAD SWAP2 MSTORE DUP14 MULMOD DUP4 PUSH1 0x0 DUP1 MLOAD PUSH1 0x20 PUSH2 0xC856 DUP4 CODECOPY DUP2 MLOAD SWAP2 MSTORE DUP14 MULMOD ADD ADD ADD MOD ADD PUSH1 0x20 MSTORE DUP11 DUP3 DUP1 DUP1 PUSH1 0x0 DUP1 MLOAD PUSH1 0x20 PUSH2 0xC836 DUP4 CODECOPY DUP2 MLOAD SWAP2 MSTORE DUP6 MULMOD SWAP3 PUSH1 0x0 DUP1 MLOAD PUSH1 0x20 PUSH2 0xC9B6 DUP4 CODECOPY DUP2 MLOAD SWAP2 MSTORE SWAP1 MULMOD DUP2 PUSH1 0x0 DUP1 MLOAD PUSH1 0x20 PUSH2 0xC956 DUP4 CODECOPY DUP2 MLOAD SWAP2 MSTORE DUP14 MULMOD DUP3 PUSH1 0x0 DUP1 MLOAD PUSH1 0x20 PUSH2 0xC916 DUP4 CODECOPY DUP2 MLOAD SWAP2 MSTORE DUP14 MULMOD DUP4 PUSH1 0x0 DUP1 MLOAD PUSH1 0x20 PUSH2 0xC7D6 DUP4 CODECOPY DUP2 MLOAD SWAP2 MSTORE DUP14 MULMOD ADD ADD ADD MOD ADD PUSH1 0x80 MSTORE DUP11 DUP3 DUP1 DUP1 PUSH1 0x0 DUP1 MLOAD PUSH1 0x20 PUSH2 0xC7F6 DUP4 CODECOPY DUP2 MLOAD SWAP2 MSTORE DUP6 MULMOD SWAP3 PUSH1 0x0 DUP1 MLOAD PUSH1 0x20 PUSH2 0xC8F6 DUP4 CODECOPY DUP2 MLOAD SWAP2 MSTORE SWAP1 MULMOD DUP2 PUSH1 0x0 DUP1 MLOAD PUSH1 0x20 PUSH2 0xC896 DUP4 CODECOPY DUP2 MLOAD SWAP2 MSTORE DUP14 MULMOD DUP3 PUSH1 0x0 DUP1 MLOAD PUSH1 0x20 PUSH2 0xCA76 DUP4 CODECOPY DUP2 MLOAD SWAP2 MSTORE DUP14 MULMOD DUP4 PUSH1 0x0 DUP1 MLOAD PUSH1 0x20 PUSH2 0xCAD6 DUP4 CODECOPY DUP2 MLOAD SWAP2 MSTORE DUP14 MULMOD ADD ADD ADD MOD ADD PUSH1 0xA0 MSTORE PUSH1 0x0 DUP1 MLOAD PUSH1 0x20 PUSH2 0xC876 DUP4 CODECOPY DUP2 MLOAD SWAP2 MSTORE SWAP1 MULMOD SWAP9 PUSH1 0x0 DUP1 MLOAD PUSH1 0x20 PUSH2 0xC816 DUP4 CODECOPY DUP2 MLOAD SWAP2 MSTORE SWAP1 MULMOD SWAP6 PUSH1 0x0 DUP1 MLOAD PUSH1 0x20 PUSH2 0xC996 DUP4 CODECOPY DUP2 MLOAD SWAP2 MSTORE SWAP1 MULMOD SWAP4 PUSH1 0x0 DUP1 MLOAD PUSH1 0x20 PUSH2 0xCA36 DUP4 CODECOPY DUP2 MLOAD SWAP2 MSTORE SWAP1 MULMOD SWAP2 PUSH1 0x0 DUP1 MLOAD PUSH1 0x20 PUSH2 0xC9F6 DUP4 CODECOPY DUP2 MLOAD SWAP2 MSTORE SWAP1 MULMOD ADD ADD ADD MOD ADD PUSH1 0xC0 MSTORE JUMP JUMPDEST PUSH1 0x0 MLOAD PUSH32 0x28A1621A94054B0C7F9A421353CD89D0FD67061AEE99979D12E68F04E62D134 ADD PUSH1 0x20 MLOAD PUSH32 0x26B41802C071EA4C9632647ED059236E50C19C3FB3C96D09D02AAE2A0DCD9DBC ADD SWAP1 PUSH1 0x80 MLOAD PUSH32 0x2FB5DDA8072BB72CBAAC2F63E468215E05C9DE06758DB6A94AF34384AEDB462B ADD PUSH1 0xA0 MLOAD PUSH32 0x2212D3A0F5FCCAF244FF3547FD823249AD8AB8BA2A18D383DD05C56EE894D850 ADD SWAP1 PUSH1 0xC0 MLOAD PUSH32 0x1B041AD5B2F0684258E4DFAEEA09BE56A3276FDB19F44C015CD0C7EED465E2E3 ADD SWAP4 PUSH1 0x0 DUP1 MLOAD PUSH1 0x20 PUSH2 0xC936 DUP4 CODECOPY DUP2 MLOAD SWAP2 MSTORE DUP1 DUP1 DUP1 DUP1 DUP1 DUP1 DUP1 DUP1 DUP1 DUP14 DUP2 SWAP15 DUP3 DUP2 DUP2 SWAP3 MULMOD DUP1 MULMOD MULMOD SWAP10 DUP2 DUP1 DUP3 DUP1 MULMOD DUP1 MULMOD MULMOD SWAP10 DUP2 DUP1 DUP3 DUP1 MULMOD DUP1 MULMOD MULMOD SWAP10 DUP2 DUP1 DUP3 DUP1 MULMOD DUP1 MULMOD MULMOD SWAP11 DUP2 DUP1 DUP3 DUP1 MULMOD DUP1 MULMOD MULMOD DUP11 DUP3 DUP1 DUP1 PUSH1 0x0 DUP1 MLOAD PUSH1 0x20 PUSH2 0xC9D6 DUP4 CODECOPY DUP2 MLOAD SWAP2 MSTORE DUP6 MULMOD SWAP3 PUSH1 0x0 DUP1 MLOAD PUSH1 0x20 PUSH2 0xC8B6 DUP4 CODECOPY DUP2 MLOAD SWAP2 MSTORE SWAP1 MULMOD DUP2 PUSH1 0x0 DUP1 MLOAD PUSH1 0x20 PUSH2 0xCA56 DUP4 CODECOPY DUP2 MLOAD SWAP2 MSTORE DUP14 MULMOD DUP3 PUSH1 0x0 DUP1 MLOAD PUSH1 0x20 PUSH2 0xC976 DUP4 CODECOPY DUP2 MLOAD SWAP2 MSTORE DUP14 MULMOD DUP4 PUSH1 0x0 DUP1 MLOAD PUSH1 0x20 PUSH2 0xCA96 DUP4 CODECOPY DUP2 MLOAD SWAP2 MSTORE DUP14 MULMOD ADD ADD ADD MOD ADD PUSH1 0x0 MSTORE DUP11 DUP3 DUP1 DUP1 PUSH1 0x0 DUP1 MLOAD PUSH1 0x20 PUSH2 0xCAF6 DUP4 CODECOPY DUP2 MLOAD SWAP2 MSTORE DUP6 MULMOD SWAP3 PUSH1 0x0 DUP1 MLOAD PUSH1 0x20 PUSH2 0xC8D6 DUP4 CODECOPY DUP2 MLOAD SWAP2 MSTORE SWAP1 MULMOD DUP2 PUSH1 0x0 DUP1 MLOAD PUSH1 0x20 PUSH2 0xCA16 DUP4 CODECOPY DUP2 MLOAD SWAP2 MSTORE DUP14 MULMOD DUP3 PUSH1 0x0 DUP1 MLOAD PUSH1 0x20 PUSH2 0xCAB6 DUP4 CODECOPY DUP2 MLOAD SWAP2 MSTORE DUP14 MULMOD DUP4 PUSH1 0x0 DUP1 MLOAD PUSH1 0x20 PUSH2 0xC856 DUP4 CODECOPY DUP2 MLOAD SWAP2 MSTORE DUP14 MULMOD ADD ADD ADD MOD ADD PUSH1 0x20 MSTORE DUP11 DUP3 DUP1 DUP1 PUSH1 0x0 DUP1 MLOAD PUSH1 0x20 PUSH2 0xC836 DUP4 CODECOPY DUP2 MLOAD SWAP2 MSTORE DUP6 MULMOD SWAP3 PUSH1 0x0 DUP1 MLOAD PUSH1 0x20 PUSH2 0xC9B6 DUP4 CODECOPY DUP2 MLOAD SWAP2 MSTORE SWAP1 MULMOD DUP2 PUSH1 0x0 DUP1 MLOAD PUSH1 0x20 PUSH2 0xC956 DUP4 CODECOPY DUP2 MLOAD SWAP2 MSTORE DUP14 MULMOD DUP3 PUSH1 0x0 DUP1 MLOAD PUSH1 0x20 PUSH2 0xC916 DUP4 CODECOPY DUP2 MLOAD SWAP2 MSTORE DUP14 MULMOD DUP4 PUSH1 0x0 DUP1 MLOAD PUSH1 0x20 PUSH2 0xC7D6 DUP4 CODECOPY DUP2 MLOAD SWAP2 MSTORE DUP14 MULMOD ADD ADD ADD MOD ADD PUSH1 0x80 MSTORE DUP11 DUP3 DUP1 DUP1 PUSH1 0x0 DUP1 MLOAD PUSH1 0x20 PUSH2 0xC7F6 DUP4 CODECOPY DUP2 MLOAD SWAP2 MSTORE DUP6 MULMOD SWAP3 PUSH1 0x0 DUP1 MLOAD PUSH1 0x20 PUSH2 0xC8F6 DUP4 CODECOPY DUP2 MLOAD SWAP2 MSTORE SWAP1 MULMOD DUP2 PUSH1 0x0 DUP1 MLOAD PUSH1 0x20 PUSH2 0xC896 DUP4 CODECOPY DUP2 MLOAD SWAP2 MSTORE DUP14 MULMOD DUP3 PUSH1 0x0 DUP1 MLOAD PUSH1 0x20 PUSH2 0xCA76 DUP4 CODECOPY DUP2 MLOAD SWAP2 MSTORE DUP14 MULMOD DUP4 PUSH1 0x0 DUP1 MLOAD PUSH1 0x20 PUSH2 0xCAD6 DUP4 CODECOPY DUP2 MLOAD SWAP2 MSTORE DUP14 MULMOD ADD ADD ADD MOD ADD PUSH1 0xA0 MSTORE PUSH1 0x0 DUP1 MLOAD PUSH1 0x20 PUSH2 0xC876 DUP4 CODECOPY DUP2 MLOAD SWAP2 MSTORE SWAP1 MULMOD SWAP9 PUSH1 0x0 DUP1 MLOAD PUSH1 0x20 PUSH2 0xC816 DUP4 CODECOPY DUP2 MLOAD SWAP2 MSTORE SWAP1 MULMOD SWAP6 PUSH1 0x0 DUP1 MLOAD PUSH1 0x20 PUSH2 0xC996 DUP4 CODECOPY DUP2 MLOAD SWAP2 MSTORE SWAP1 MULMOD SWAP4 PUSH1 0x0 DUP1 MLOAD PUSH1 0x20 PUSH2 0xCA36 DUP4 CODECOPY DUP2 MLOAD SWAP2 MSTORE SWAP1 MULMOD SWAP2 PUSH1 0x0 DUP1 MLOAD PUSH1 0x20 PUSH2 0xC9F6 DUP4 CODECOPY DUP2 MLOAD SWAP2 MSTORE SWAP1 MULMOD ADD ADD ADD MOD ADD PUSH1 0xC0 MSTORE JUMP JUMPDEST PUSH1 0x0 MLOAD PUSH32 0x11820363ED541DAA10A44BA665BF302CDBF1DD4E6706B02C9E2A5CDA412FC394 ADD PUSH1 0x20 MLOAD PUSH32 0x201935A58F5C57FC02B60D61A83785BDDFD3150E05F1DF5D105840B751A16317 ADD SWAP1 PUSH1 0x80 MLOAD PUSH32 0xA8C2820C56971AAE27A952ABD33A03D46794EEDD686CD8ECFED610E87C02E9A ADD PUSH1 0xA0 MLOAD PUSH32 0x180638FF301A64CA04ABD6D0BD7500B6650B65FF33E6BE1FD50DBC163A281877 ADD SWAP1 PUSH1 0xC0 MLOAD PUSH32 0x95C716266F1DE59044F97114A4158A3F85CA8A937CFBEC63E9B321A812DD36B ADD SWAP4 PUSH1 0x0 DUP1 MLOAD PUSH1 0x20 PUSH2 0xC936 DUP4 CODECOPY DUP2 MLOAD SWAP2 MSTORE DUP1 DUP1 DUP1 DUP1 DUP1 DUP1 DUP1 DUP1 DUP1 DUP14 DUP2 SWAP15 DUP3 DUP2 DUP2 SWAP3 MULMOD DUP1 MULMOD MULMOD SWAP10 DUP2 DUP1 DUP3 DUP1 MULMOD DUP1 MULMOD MULMOD SWAP10 DUP2 DUP1 DUP3 DUP1 MULMOD DUP1 MULMOD MULMOD SWAP10 DUP2 DUP1 DUP3 DUP1 MULMOD DUP1 MULMOD MULMOD SWAP11 DUP2 DUP1 DUP3 DUP1 MULMOD DUP1 MULMOD MULMOD DUP11 DUP3 DUP1 DUP1 PUSH1 0x0 DUP1 MLOAD PUSH1 0x20 PUSH2 0xC9D6 DUP4 CODECOPY DUP2 MLOAD SWAP2 MSTORE DUP6 MULMOD SWAP3 PUSH1 0x0 DUP1 MLOAD PUSH1 0x20 PUSH2 0xC8B6 DUP4 CODECOPY DUP2 MLOAD SWAP2 MSTORE SWAP1 MULMOD DUP2 PUSH1 0x0 DUP1 MLOAD PUSH1 0x20 PUSH2 0xCA56 DUP4 CODECOPY DUP2 MLOAD SWAP2 MSTORE DUP14 MULMOD DUP3 PUSH1 0x0 DUP1 MLOAD PUSH1 0x20 PUSH2 0xC976 DUP4 CODECOPY DUP2 MLOAD SWAP2 MSTORE DUP14 MULMOD DUP4 PUSH1 0x0 DUP1 MLOAD PUSH1 0x20 PUSH2 0xCA96 DUP4 CODECOPY DUP2 MLOAD SWAP2 MSTORE DUP14 MULMOD ADD ADD ADD MOD ADD PUSH1 0x0 MSTORE DUP11 DUP3 DUP1 DUP1 PUSH1 0x0 DUP1 MLOAD PUSH1 0x20 PUSH2 0xCAF6 DUP4 CODECOPY DUP2 MLOAD SWAP2 MSTORE DUP6 MULMOD SWAP3 PUSH1 0x0 DUP1 MLOAD PUSH1 0x20 PUSH2 0xC8D6 DUP4 CODECOPY DUP2 MLOAD SWAP2 MSTORE SWAP1 MULMOD DUP2 PUSH1 0x0 DUP1 MLOAD PUSH1 0x20 PUSH2 0xCA16 DUP4 CODECOPY DUP2 MLOAD SWAP2 MSTORE DUP14 MULMOD DUP3 PUSH1 0x0 DUP1 MLOAD PUSH1 0x20 PUSH2 0xCAB6 DUP4 CODECOPY DUP2 MLOAD SWAP2 MSTORE DUP14 MULMOD DUP4 PUSH1 0x0 DUP1 MLOAD PUSH1 0x20 PUSH2 0xC856 DUP4 CODECOPY DUP2 MLOAD SWAP2 MSTORE DUP14 MULMOD ADD ADD ADD MOD ADD PUSH1 0x20 MSTORE DUP11 DUP3 DUP1 DUP1 PUSH1 0x0 DUP1 MLOAD PUSH1 0x20 PUSH2 0xC836 DUP4 CODECOPY DUP2 MLOAD SWAP2 MSTORE DUP6 MULMOD SWAP3 PUSH1 0x0 DUP1 MLOAD PUSH1 0x20 PUSH2 0xC9B6 DUP4 CODECOPY DUP2 MLOAD SWAP2 MSTORE SWAP1 MULMOD DUP2 PUSH1 0x0 DUP1 MLOAD PUSH1 0x20 PUSH2 0xC956 DUP4 CODECOPY DUP2 MLOAD SWAP2 MSTORE DUP14 MULMOD DUP3 PUSH1 0x0 DUP1 MLOAD PUSH1 0x20 PUSH2 0xC916 DUP4 CODECOPY DUP2 MLOAD SWAP2 MSTORE DUP14 MULMOD DUP4 PUSH1 0x0 DUP1 MLOAD PUSH1 0x20 PUSH2 0xC7D6 DUP4 CODECOPY DUP2 MLOAD SWAP2 MSTORE DUP14 MULMOD ADD ADD ADD MOD ADD PUSH1 0x80 MSTORE DUP11 DUP3 DUP1 DUP1 PUSH1 0x0 DUP1 MLOAD PUSH1 0x20 PUSH2 0xC7F6 DUP4 CODECOPY DUP2 MLOAD SWAP2 MSTORE DUP6 MULMOD SWAP3 PUSH1 0x0 DUP1 MLOAD PUSH1 0x20 PUSH2 0xC8F6 DUP4 CODECOPY DUP2 MLOAD SWAP2 MSTORE SWAP1 MULMOD DUP2 PUSH1 0x0 DUP1 MLOAD PUSH1 0x20 PUSH2 0xC896 DUP4 CODECOPY DUP2 MLOAD SWAP2 MSTORE DUP14 MULMOD DUP3 PUSH1 0x0 DUP1 MLOAD PUSH1 0x20 PUSH2 0xCA76 DUP4 CODECOPY DUP2 MLOAD SWAP2 MSTORE DUP14 MULMOD DUP4 PUSH1 0x0 DUP1 MLOAD PUSH1 0x20 PUSH2 0xCAD6 DUP4 CODECOPY DUP2 MLOAD SWAP2 MSTORE DUP14 MULMOD ADD ADD ADD MOD ADD PUSH1 0xA0 MSTORE PUSH1 0x0 DUP1 MLOAD PUSH1 0x20 PUSH2 0xC876 DUP4 CODECOPY DUP2 MLOAD SWAP2 MSTORE SWAP1 MULMOD SWAP9 PUSH1 0x0 DUP1 MLOAD PUSH1 0x20 PUSH2 0xC816 DUP4 CODECOPY DUP2 MLOAD SWAP2 MSTORE SWAP1 MULMOD SWAP6 PUSH1 0x0 DUP1 MLOAD PUSH1 0x20 PUSH2 0xC996 DUP4 CODECOPY DUP2 MLOAD SWAP2 MSTORE SWAP1 MULMOD SWAP4 PUSH1 0x0 DUP1 MLOAD PUSH1 0x20 PUSH2 0xCA36 DUP4 CODECOPY DUP2 MLOAD SWAP2 MSTORE SWAP1 MULMOD SWAP2 PUSH1 0x0 DUP1 MLOAD PUSH1 0x20 PUSH2 0xC9F6 DUP4 CODECOPY DUP2 MLOAD SWAP2 MSTORE SWAP1 MULMOD ADD ADD ADD MOD ADD PUSH1 0xC0 MSTORE JUMP JUMPDEST PUSH1 0x0 MLOAD PUSH32 0x17C31EA02FBC378320D86FFED6C7CA1583B618C5C1A687818D4087A497D73490 ADD PUSH1 0x20 MLOAD PUSH32 0x5B86C4BB8EF318B6A7227E4192D149D3C17A9764CCD660DE4D50A77F192A91B ADD SWAP1 PUSH1 0x80 MLOAD PUSH32 0x265BC95DF4A4C4876FF70D7EA2FDE2C7AB15F4A6AE0D237CD6CE74BA986C7A7B ADD PUSH1 0xA0 MLOAD PUSH32 0x24752B47BC6C6BC8D9BBE48F5FEF2F6908701739C5F5B4B3D6C886D4715C7929 ADD SWAP1 PUSH1 0xC0 MLOAD PUSH32 0x14814A1E0F492A4EA0D86E527A96482178D624B98DA96EE5E583B9324D974EFE ADD SWAP4 PUSH1 0x0 DUP1 MLOAD PUSH1 0x20 PUSH2 0xC936 DUP4 CODECOPY DUP2 MLOAD SWAP2 MSTORE DUP1 DUP1 DUP1 DUP1 DUP1 DUP1 DUP1 DUP1 DUP1 DUP14 DUP2 SWAP15 DUP3 DUP2 DUP2 SWAP3 MULMOD DUP1 MULMOD MULMOD SWAP10 DUP2 DUP1 DUP3 DUP1 MULMOD DUP1 MULMOD MULMOD SWAP10 DUP2 DUP1 DUP3 DUP1 MULMOD DUP1 MULMOD MULMOD SWAP10 DUP2 DUP1 DUP3 DUP1 MULMOD DUP1 MULMOD MULMOD SWAP11 DUP2 DUP1 DUP3 DUP1 MULMOD DUP1 MULMOD MULMOD DUP11 DUP3 DUP1 DUP1 PUSH1 0x0 DUP1 MLOAD PUSH1 0x20 PUSH2 0xC9D6 DUP4 CODECOPY DUP2 MLOAD SWAP2 MSTORE DUP6 MULMOD SWAP3 PUSH1 0x0 DUP1 MLOAD PUSH1 0x20 PUSH2 0xC8B6 DUP4 CODECOPY DUP2 MLOAD SWAP2 MSTORE SWAP1 MULMOD DUP2 PUSH1 0x0 DUP1 MLOAD PUSH1 0x20 PUSH2 0xCA56 DUP4 CODECOPY DUP2 MLOAD SWAP2 MSTORE DUP14 MULMOD DUP3 PUSH1 0x0 DUP1 MLOAD PUSH1 0x20 PUSH2 0xC976 DUP4 CODECOPY DUP2 MLOAD SWAP2 MSTORE DUP14 MULMOD DUP4 PUSH1 0x0 DUP1 MLOAD PUSH1 0x20 PUSH2 0xCA96 DUP4 CODECOPY DUP2 MLOAD SWAP2 MSTORE DUP14 MULMOD ADD ADD ADD MOD ADD PUSH1 0x0 MSTORE DUP11 DUP3 DUP1 DUP1 PUSH1 0x0 DUP1 MLOAD PUSH1 0x20 PUSH2 0xCAF6 DUP4 CODECOPY DUP2 MLOAD SWAP2 MSTORE DUP6 MULMOD SWAP3 PUSH1 0x0 DUP1 MLOAD PUSH1 0x20 PUSH2 0xC8D6 DUP4 CODECOPY DUP2 MLOAD SWAP2 MSTORE SWAP1 MULMOD DUP2 PUSH1 0x0 DUP1 MLOAD PUSH1 0x20 PUSH2 0xCA16 DUP4 CODECOPY DUP2 MLOAD SWAP2 MSTORE DUP14 MULMOD DUP3 PUSH1 0x0 DUP1 MLOAD PUSH1 0x20 PUSH2 0xCAB6 DUP4 CODECOPY DUP2 MLOAD SWAP2 MSTORE DUP14 MULMOD DUP4 PUSH1 0x0 DUP1 MLOAD PUSH1 0x20 PUSH2 0xC856 DUP4 CODECOPY DUP2 MLOAD SWAP2 MSTORE DUP14 MULMOD ADD ADD ADD MOD ADD PUSH1 0x20 MSTORE DUP11 DUP3 DUP1 DUP1 PUSH1 0x0 DUP1 MLOAD PUSH1 0x20 PUSH2 0xC836 DUP4 CODECOPY DUP2 MLOAD SWAP2 MSTORE DUP6 MULMOD SWAP3 PUSH1 0x0 DUP1 MLOAD PUSH1 0x20 PUSH2 0xC9B6 DUP4 CODECOPY DUP2 MLOAD SWAP2 MSTORE SWAP1 MULMOD DUP2 PUSH1 0x0 DUP1 MLOAD PUSH1 0x20 PUSH2 0xC956 DUP4 CODECOPY DUP2 MLOAD SWAP2 MSTORE DUP14 MULMOD DUP3 PUSH1 0x0 DUP1 MLOAD PUSH1 0x20 PUSH2 0xC916 DUP4 CODECOPY DUP2 MLOAD SWAP2 MSTORE DUP14 MULMOD DUP4 PUSH1 0x0 DUP1 MLOAD PUSH1 0x20 PUSH2 0xC7D6 DUP4 CODECOPY DUP2 MLOAD SWAP2 MSTORE DUP14 MULMOD ADD ADD ADD MOD ADD PUSH1 0x80 MSTORE DUP11 DUP3 DUP1 DUP1 PUSH1 0x0 DUP1 MLOAD PUSH1 0x20 PUSH2 0xC7F6 DUP4 CODECOPY DUP2 MLOAD SWAP2 MSTORE DUP6 MULMOD SWAP3 PUSH1 0x0 DUP1 MLOAD PUSH1 0x20 PUSH2 0xC8F6 DUP4 CODECOPY DUP2 MLOAD SWAP2 MSTORE SWAP1 MULMOD DUP2 PUSH1 0x0 DUP1 MLOAD PUSH1 0x20 PUSH2 0xC896 DUP4 CODECOPY DUP2 MLOAD SWAP2 MSTORE DUP14 MULMOD DUP3 PUSH1 0x0 DUP1 MLOAD PUSH1 0x20 PUSH2 0xCA76 DUP4 CODECOPY DUP2 MLOAD SWAP2 MSTORE DUP14 MULMOD DUP4 PUSH1 0x0 DUP1 MLOAD PUSH1 0x20 PUSH2 0xCAD6 DUP4 CODECOPY DUP2 MLOAD SWAP2 MSTORE DUP14 MULMOD ADD ADD ADD MOD ADD PUSH1 0xA0 MSTORE PUSH1 0x0 DUP1 MLOAD PUSH1 0x20 PUSH2 0xC876 DUP4 CODECOPY DUP2 MLOAD SWAP2 MSTORE SWAP1 MULMOD SWAP9 PUSH1 0x0 DUP1 MLOAD PUSH1 0x20 PUSH2 0xC816 DUP4 CODECOPY DUP2 MLOAD SWAP2 MSTORE SWAP1 MULMOD SWAP6 PUSH1 0x0 DUP1 MLOAD PUSH1 0x20 PUSH2 0xC996 DUP4 CODECOPY DUP2 MLOAD SWAP2 MSTORE SWAP1 MULMOD SWAP4 PUSH1 0x0 DUP1 MLOAD PUSH1 0x20 PUSH2 0xCA36 DUP4 CODECOPY DUP2 MLOAD SWAP2 MSTORE SWAP1 MULMOD SWAP2 PUSH1 0x0 DUP1 MLOAD PUSH1 0x20 PUSH2 0xC9F6 DUP4 CODECOPY DUP2 MLOAD SWAP2 MSTORE SWAP1 MULMOD ADD ADD ADD MOD ADD PUSH1 0xC0 MSTORE JUMP JUMPDEST PUSH1 0x0 MLOAD PUSH32 0x10DEF931073B6479BD60577378F29381997C8E041D3CFB3DC7523BCA906F00BD ADD PUSH1 0x20 MLOAD PUSH32 0x14F7AE770BF7E95F7F706C0D8AB4ED03FA0B880D28C69D031B4592C98610175F ADD SWAP1 PUSH1 0x80 MLOAD PUSH32 0x1AEF50A0CEE751B59F926AF40E8035D19DECC9D428EBE4E775C5CC9DCE1CE589 ADD PUSH1 0xA0 MLOAD PUSH32 0x41935607172F68EBA65CA60068DFE3B086C2A2D57D09602951214B57E73CF5A ADD SWAP1 PUSH1 0xC0 MLOAD PUSH32 0x26863E9DD24255D1573BD083959B856C0493FBEFE83C819837A151D3BF452CB8 ADD SWAP4 PUSH1 0x0 DUP1 MLOAD PUSH1 0x20 PUSH2 0xC936 DUP4 CODECOPY DUP2 MLOAD SWAP2 MSTORE DUP1 DUP1 DUP1 DUP1 DUP1 DUP1 DUP1 DUP1 DUP1 DUP14 DUP2 SWAP15 DUP3 DUP2 DUP2 SWAP3 MULMOD DUP1 MULMOD MULMOD SWAP10 DUP2 DUP1 DUP3 DUP1 MULMOD DUP1 MULMOD MULMOD SWAP10 DUP2 DUP1 DUP3 DUP1 MULMOD DUP1 MULMOD MULMOD SWAP10 DUP2 DUP1 DUP3 DUP1 MULMOD DUP1 MULMOD MULMOD SWAP11 DUP2 DUP1 DUP3 DUP1 MULMOD DUP1 MULMOD MULMOD DUP11 DUP3 DUP1 DUP1 PUSH1 0x0 DUP1 MLOAD PUSH1 0x20 PUSH2 0xC9D6 DUP4 CODECOPY DUP2 MLOAD SWAP2 MSTORE DUP6 MULMOD SWAP3 PUSH1 0x0 DUP1 MLOAD PUSH1 0x20 PUSH2 0xC8B6 DUP4 CODECOPY DUP2 MLOAD SWAP2 MSTORE SWAP1 MULMOD DUP2 PUSH1 0x0 DUP1 MLOAD PUSH1 0x20 PUSH2 0xCA56 DUP4 CODECOPY DUP2 MLOAD SWAP2 MSTORE DUP14 MULMOD DUP3 PUSH1 0x0 DUP1 MLOAD PUSH1 0x20 PUSH2 0xC976 DUP4 CODECOPY DUP2 MLOAD SWAP2 MSTORE DUP14 MULMOD DUP4 PUSH1 0x0 DUP1 MLOAD PUSH1 0x20 PUSH2 0xCA96 DUP4 CODECOPY DUP2 MLOAD SWAP2 MSTORE DUP14 MULMOD ADD ADD ADD MOD ADD PUSH1 0x0 MSTORE DUP11 DUP3 DUP1 DUP1 PUSH1 0x0 DUP1 MLOAD PUSH1 0x20 PUSH2 0xCAF6 DUP4 CODECOPY DUP2 MLOAD SWAP2 MSTORE DUP6 MULMOD SWAP3 PUSH1 0x0 DUP1 MLOAD PUSH1 0x20 PUSH2 0xC8D6 DUP4 CODECOPY DUP2 MLOAD SWAP2 MSTORE SWAP1 MULMOD DUP2 PUSH1 0x0 DUP1 MLOAD PUSH1 0x20 PUSH2 0xCA16 DUP4 CODECOPY DUP2 MLOAD SWAP2 MSTORE DUP14 MULMOD DUP3 PUSH1 0x0 DUP1 MLOAD PUSH1 0x20 PUSH2 0xCAB6 DUP4 CODECOPY DUP2 MLOAD SWAP2 MSTORE DUP14 MULMOD DUP4 PUSH1 0x0 DUP1 MLOAD PUSH1 0x20 PUSH2 0xC856 DUP4 CODECOPY DUP2 MLOAD SWAP2 MSTORE DUP14 MULMOD ADD ADD ADD MOD ADD PUSH1 0x20 MSTORE DUP11 DUP3 DUP1 DUP1 PUSH1 0x0 DUP1 MLOAD PUSH1 0x20 PUSH2 0xC836 DUP4 CODECOPY DUP2 MLOAD SWAP2 MSTORE DUP6 MULMOD SWAP3 PUSH1 0x0 DUP1 MLOAD PUSH1 0x20 PUSH2 0xC9B6 DUP4 CODECOPY DUP2 MLOAD SWAP2 MSTORE SWAP1 MULMOD DUP2 PUSH1 0x0 DUP1 MLOAD PUSH1 0x20 PUSH2 0xC956 DUP4 CODECOPY DUP2 MLOAD SWAP2 MSTORE DUP14 MULMOD DUP3 PUSH1 0x0 DUP1 MLOAD PUSH1 0x20 PUSH2 0xC916 DUP4 CODECOPY DUP2 MLOAD SWAP2 MSTORE DUP14 MULMOD DUP4 PUSH1 0x0 DUP1 MLOAD PUSH1 0x20 PUSH2 0xC7D6 DUP4 CODECOPY DUP2 MLOAD SWAP2 MSTORE DUP14 MULMOD ADD ADD ADD MOD ADD PUSH1 0x80 MSTORE DUP11 DUP3 DUP1 DUP1 PUSH1 0x0 DUP1 MLOAD PUSH1 0x20 PUSH2 0xC7F6 DUP4 CODECOPY DUP2 MLOAD SWAP2 MSTORE DUP6 MULMOD SWAP3 PUSH1 0x0 DUP1 MLOAD PUSH1 0x20 PUSH2 0xC8F6 DUP4 CODECOPY DUP2 MLOAD SWAP2 MSTORE SWAP1 MULMOD DUP2 PUSH1 0x0 DUP1 MLOAD PUSH1 0x20 PUSH2 0xC896 DUP4 CODECOPY DUP2 MLOAD SWAP2 MSTORE DUP14 MULMOD DUP3 PUSH1 0x0 DUP1 MLOAD PUSH1 0x20 PUSH2 0xCA76 DUP4 CODECOPY DUP2 MLOAD SWAP2 MSTORE DUP14 MULMOD DUP4 PUSH1 0x0 DUP1 MLOAD PUSH1 0x20 PUSH2 0xCAD6 DUP4 CODECOPY DUP2 MLOAD SWAP2 MSTORE DUP14 MULMOD ADD ADD ADD MOD ADD PUSH1 0xA0 MSTORE PUSH1 0x0 DUP1 MLOAD PUSH1 0x20 PUSH2 0xC876 DUP4 CODECOPY DUP2 MLOAD SWAP2 MSTORE SWAP1 MULMOD SWAP9 PUSH1 0x0 DUP1 MLOAD PUSH1 0x20 PUSH2 0xC816 DUP4 CODECOPY DUP2 MLOAD SWAP2 MSTORE SWAP1 MULMOD SWAP6 PUSH1 0x0 DUP1 MLOAD PUSH1 0x20 PUSH2 0xC996 DUP4 CODECOPY DUP2 MLOAD SWAP2 MSTORE SWAP1 MULMOD SWAP4 PUSH1 0x0 DUP1 MLOAD PUSH1 0x20 PUSH2 0xCA36 DUP4 CODECOPY DUP2 MLOAD SWAP2 MSTORE SWAP1 MULMOD SWAP2 PUSH1 0x0 DUP1 MLOAD PUSH1 0x20 PUSH2 0xC9F6 DUP4 CODECOPY DUP2 MLOAD SWAP2 MSTORE SWAP1 MULMOD ADD ADD ADD MOD ADD PUSH1 0xC0 MSTORE JUMP JUMPDEST PUSH1 0x80 MLOAD PUSH1 0x0 DUP1 MLOAD PUSH1 0x20 PUSH2 0xC936 DUP4 CODECOPY DUP2 MLOAD SWAP2 MSTORE SWAP1 MOD PUSH32 0x554D736315B8662F02FDBA7DD737FBCA197AEB12EA64713BA733F28475128CB ADD PUSH1 0xA0 MLOAD PUSH1 0x0 DUP1 MLOAD PUSH1 0x20 PUSH2 0xC936 DUP4 CODECOPY DUP2 MLOAD SWAP2 MSTORE SWAP1 MOD PUSH32 0x2F83B9DF259B2B68BCD748056307C37754907DF0C0FB0035F5087C58D5E8C2D4 ADD PUSH1 0xC0 MLOAD PUSH1 0x0 DUP1 MLOAD PUSH1 0x20 PUSH2 0xC936 DUP4 CODECOPY DUP2 MLOAD SWAP2 MSTORE SWAP1 MOD PUSH32 0x2CA70E2E8D7F39A12447AC83052451B461F15F8B41A75EF31915208F5ABA9683 ADD SWAP1 PUSH1 0xE0 MLOAD PUSH1 0x0 DUP1 MLOAD PUSH1 0x20 PUSH2 0xC936 DUP4 CODECOPY DUP2 MLOAD SWAP2 MSTORE SWAP1 MOD PUSH32 0x1CB5F9319BE6A45E91B04D7222271C94994196F12ED22C5D4EC719CB83ECFEA9 ADD SWAP3 PUSH1 0x0 DUP1 MLOAD PUSH1 0x20 PUSH2 0xC936 DUP4 CODECOPY DUP2 MLOAD SWAP2 MSTORE DUP2 DUP1 MULMOD SWAP2 PUSH1 0x0 DUP1 MLOAD PUSH1 0x20 PUSH2 0xC936 DUP4 CODECOPY DUP2 MLOAD SWAP2 MSTORE DUP2 DUP1 MULMOD SWAP4 PUSH1 0x0 DUP1 MLOAD PUSH1 0x20 PUSH2 0xC936 DUP4 CODECOPY DUP2 MLOAD SWAP2 MSTORE DUP2 DUP1 MULMOD SWAP6 PUSH1 0x0 DUP1 MLOAD PUSH1 0x20 PUSH2 0xC936 DUP4 CODECOPY DUP2 MLOAD SWAP2 MSTORE DUP2 DUP1 MULMOD DUP2 PUSH1 0x0 DUP1 MLOAD PUSH1 0x20 PUSH2 0xC936 DUP4 CODECOPY DUP2 MLOAD SWAP2 MSTORE DUP3 DUP1 MULMOD SWAP1 PUSH1 0x0 DUP1 MLOAD PUSH1 0x20 PUSH2 0xC936 DUP4 CODECOPY DUP2 MLOAD SWAP2 MSTORE SWAP2 MULMOD PUSH1 0x0 DUP1 MLOAD PUSH1 0x20 PUSH2 0xC9D6 DUP4 CODECOPY DUP2 MLOAD SWAP2 MSTORE PUSH1 0x0 DUP1 MLOAD PUSH1 0x20 PUSH2 0xC936 DUP4 CODECOPY DUP2 MLOAD SWAP2 MSTORE SWAP2 MULMOD DUP4 PUSH1 0x0 DUP1 MLOAD PUSH1 0x20 PUSH2 0xC936 DUP4 CODECOPY DUP2 MLOAD SWAP2 MSTORE DUP11 DUP1 MULMOD SWAP1 PUSH1 0x0 DUP1 MLOAD PUSH1 0x20 PUSH2 0xC936 DUP4 CODECOPY DUP2 MLOAD SWAP2 MSTORE SWAP2 MULMOD PUSH1 0x0 DUP1 MLOAD PUSH1 0x20 PUSH2 0xC8B6 DUP4 CODECOPY DUP2 MLOAD SWAP2 MSTORE PUSH1 0x0 DUP1 MLOAD PUSH1 0x20 PUSH2 0xC936 DUP4 CODECOPY DUP2 MLOAD SWAP2 MSTORE SWAP2 MULMOD DUP6 PUSH1 0x0 DUP1 MLOAD PUSH1 0x20 PUSH2 0xC936 DUP4 CODECOPY DUP2 MLOAD SWAP2 MSTORE DUP11 DUP1 MULMOD SWAP1 PUSH1 0x0 DUP1 MLOAD PUSH1 0x20 PUSH2 0xC936 DUP4 CODECOPY DUP2 MLOAD SWAP2 MSTORE SWAP2 MULMOD PUSH1 0x0 DUP1 MLOAD PUSH1 0x20 PUSH2 0xCA56 DUP4 CODECOPY DUP2 MLOAD SWAP2 MSTORE PUSH1 0x0 DUP1 MLOAD PUSH1 0x20 PUSH2 0xC936 DUP4 CODECOPY DUP2 MLOAD SWAP2 MSTORE SWAP2 MULMOD DUP8 PUSH1 0x0 DUP1 MLOAD PUSH1 0x20 PUSH2 0xC936 DUP4 CODECOPY DUP2 MLOAD SWAP2 MSTORE DUP11 DUP1 MULMOD SWAP1 PUSH1 0x0 DUP1 MLOAD PUSH1 0x20 PUSH2 0xC936 DUP4 CODECOPY DUP2 MLOAD SWAP2 MSTORE SWAP2 MULMOD PUSH1 0x0 DUP1 MLOAD PUSH1 0x20 PUSH2 0xC976 DUP4 CODECOPY DUP2 MLOAD SWAP2 MSTORE PUSH1 0x0 DUP1 MLOAD PUSH1 0x20 PUSH2 0xC936 DUP4 CODECOPY DUP2 MLOAD SWAP2 MSTORE SWAP2 MULMOD ADD ADD PUSH32 0x1282BC78005BA97A80CCAE28CE172790CA301E19E52354333993891B9FD27BD4 ADD PUSH1 0x0 DUP1 MLOAD PUSH1 0x20 PUSH2 0xC936 DUP4 CODECOPY DUP2 MLOAD SWAP2 MSTORE SWAP1 MOD ADD PUSH1 0x0 MSTORE DUP2 PUSH1 0x0 DUP1 MLOAD PUSH1 0x20 PUSH2 0xC936 DUP4 CODECOPY DUP2 MLOAD SWAP2 MSTORE DUP3 DUP1 MULMOD SWAP1 PUSH1 0x0 DUP1 MLOAD PUSH1 0x20 PUSH2 0xC936 DUP4 CODECOPY DUP2 MLOAD SWAP2 MSTORE SWAP2 MULMOD PUSH1 0x0 DUP1 MLOAD PUSH1 0x20 PUSH2 0xCAF6 DUP4 CODECOPY DUP2 MLOAD SWAP2 MSTORE PUSH1 0x0 DUP1 MLOAD PUSH1 0x20 PUSH2 0xC936 DUP4 CODECOPY DUP2 MLOAD SWAP2 MSTORE SWAP2 MULMOD DUP4 PUSH1 0x0 DUP1 MLOAD PUSH1 0x20 PUSH2 0xC936 DUP4 CODECOPY DUP2 MLOAD SWAP2 MSTORE DUP11 DUP1 MULMOD SWAP1 PUSH1 0x0 DUP1 MLOAD PUSH1 0x20 PUSH2 0xC936 DUP4 CODECOPY DUP2 MLOAD SWAP2 MSTORE SWAP2 MULMOD PUSH1 0x0 DUP1 MLOAD PUSH1 0x20 PUSH2 0xC8D6 DUP4 CODECOPY DUP2 MLOAD SWAP2 MSTORE PUSH1 0x0 DUP1 MLOAD PUSH1 0x20 PUSH2 0xC936 DUP4 CODECOPY DUP2 MLOAD SWAP2 MSTORE SWAP2 MULMOD DUP6 PUSH1 0x0 DUP1 MLOAD PUSH1 0x20 PUSH2 0xC936 DUP4 CODECOPY DUP2 MLOAD SWAP2 MSTORE DUP11 DUP1 MULMOD SWAP1 PUSH1 0x0 DUP1 MLOAD PUSH1 0x20 PUSH2 0xC936 DUP4 CODECOPY DUP2 MLOAD SWAP2 MSTORE SWAP2 MULMOD PUSH1 0x0 DUP1 MLOAD PUSH1 0x20 PUSH2 0xCA16 DUP4 CODECOPY DUP2 MLOAD SWAP2 MSTORE PUSH1 0x0 DUP1 MLOAD PUSH1 0x20 PUSH2 0xC936 DUP4 CODECOPY DUP2 MLOAD SWAP2 MSTORE SWAP2 MULMOD DUP8 PUSH1 0x0 DUP1 MLOAD PUSH1 0x20 PUSH2 0xC936 DUP4 CODECOPY DUP2 MLOAD SWAP2 MSTORE DUP11 DUP1 MULMOD SWAP1 PUSH1 0x0 DUP1 MLOAD PUSH1 0x20 PUSH2 0xC936 DUP4 CODECOPY DUP2 MLOAD SWAP2 MSTORE SWAP2 MULMOD PUSH1 0x0 DUP1 MLOAD PUSH1 0x20 PUSH2 0xCAB6 DUP4 CODECOPY DUP2 MLOAD SWAP2 MSTORE PUSH1 0x0 DUP1 MLOAD PUSH1 0x20 PUSH2 0xC936 DUP4 CODECOPY DUP2 MLOAD SWAP2 MSTORE SWAP2 MULMOD ADD ADD PUSH32 0x25CE673773C90BCAB91ECF14A691CBC59AEFF5ABFFF4CFC7C6A85D51A79468FA ADD PUSH1 0x0 DUP1 MLOAD PUSH1 0x20 PUSH2 0xC936 DUP4 CODECOPY DUP2 MLOAD SWAP2 MSTORE SWAP1 MOD ADD PUSH1 0x20 MSTORE DUP2 PUSH1 0x0 DUP1 MLOAD PUSH1 0x20 PUSH2 0xC936 DUP4 CODECOPY DUP2 MLOAD SWAP2 MSTORE DUP3 DUP1 MULMOD SWAP1 PUSH1 0x0 DUP1 MLOAD PUSH1 0x20 PUSH2 0xC936 DUP4 CODECOPY DUP2 MLOAD SWAP2 MSTORE SWAP2 MULMOD PUSH1 0x0 DUP1 MLOAD PUSH1 0x20 PUSH2 0xC836 DUP4 CODECOPY DUP2 MLOAD SWAP2 MSTORE PUSH1 0x0 DUP1 MLOAD PUSH1 0x20 PUSH2 0xC936 DUP4 CODECOPY DUP2 MLOAD SWAP2 MSTORE SWAP2 MULMOD DUP4 PUSH1 0x0 DUP1 MLOAD PUSH1 0x20 PUSH2 0xC936 DUP4 CODECOPY DUP2 MLOAD SWAP2 MSTORE DUP11 DUP1 MULMOD SWAP1 PUSH1 0x0 DUP1 MLOAD PUSH1 0x20 PUSH2 0xC936 DUP4 CODECOPY DUP2 MLOAD SWAP2 MSTORE SWAP2 MULMOD PUSH1 0x0 DUP1 MLOAD PUSH1 0x20 PUSH2 0xC9B6 DUP4 CODECOPY DUP2 MLOAD SWAP2 MSTORE PUSH1 0x0 DUP1 MLOAD PUSH1 0x20 PUSH2 0xC936 DUP4 CODECOPY DUP2 MLOAD SWAP2 MSTORE SWAP2 MULMOD DUP6 PUSH1 0x0 DUP1 MLOAD PUSH1 0x20 PUSH2 0xC936 DUP4 CODECOPY DUP2 MLOAD SWAP2 MSTORE DUP11 DUP1 MULMOD SWAP1 PUSH1 0x0 DUP1 MLOAD PUSH1 0x20 PUSH2 0xC936 DUP4 CODECOPY DUP2 MLOAD SWAP2 MSTORE SWAP2 MULMOD PUSH1 0x0 DUP1 MLOAD PUSH1 0x20 PUSH2 0xC956 DUP4 CODECOPY DUP2 MLOAD SWAP2 MSTORE PUSH1 0x0 DUP1 MLOAD PUSH1 0x20 PUSH2 0xC936 DUP4 CODECOPY DUP2 MLOAD SWAP2 MSTORE SWAP2 MULMOD DUP8 PUSH1 0x0 DUP1 MLOAD PUSH1 0x20 PUSH2 0xC936 DUP4 CODECOPY DUP2 MLOAD SWAP2 MSTORE DUP11 DUP1 MULMOD SWAP1 PUSH1 0x0 DUP1 MLOAD PUSH1 0x20 PUSH2 0xC936 DUP4 CODECOPY DUP2 MLOAD SWAP2 MSTORE SWAP2 MULMOD PUSH1 0x0 DUP1 MLOAD PUSH1 0x20 PUSH2 0xC916 DUP4 CODECOPY DUP2 MLOAD SWAP2 MSTORE PUSH1 0x0 DUP1 MLOAD PUSH1 0x20 PUSH2 0xC936 DUP4 CODECOPY DUP2 MLOAD SWAP2 MSTORE SWAP2 MULMOD ADD ADD PUSH32 0x2933F130A05A81186977481F40B428B2FA98C4A8F2561AAD43098FB380F746B7 ADD PUSH1 0x0 DUP1 MLOAD PUSH1 0x20 PUSH2 0xC936 DUP4 CODECOPY DUP2 MLOAD SWAP2 MSTORE SWAP1 MOD ADD PUSH1 0x80 MSTORE DUP2 PUSH1 0x0 DUP1 MLOAD PUSH1 0x20 PUSH2 0xC936 DUP4 CODECOPY DUP2 MLOAD SWAP2 MSTORE DUP3 DUP1 MULMOD SWAP1 PUSH1 0x0 DUP1 MLOAD PUSH1 0x20 PUSH2 0xC936 DUP4 CODECOPY DUP2 MLOAD SWAP2 MSTORE SWAP2 MULMOD PUSH1 0x0 DUP1 MLOAD PUSH1 0x20 PUSH2 0xC7F6 DUP4 CODECOPY DUP2 MLOAD SWAP2 MSTORE PUSH1 0x0 DUP1 MLOAD PUSH1 0x20 PUSH2 0xC936 DUP4 CODECOPY DUP2 MLOAD SWAP2 MSTORE SWAP2 MULMOD DUP4 PUSH1 0x0 DUP1 MLOAD PUSH1 0x20 PUSH2 0xC936 DUP4 CODECOPY DUP2 MLOAD SWAP2 MSTORE DUP11 DUP1 MULMOD SWAP1 PUSH1 0x0 DUP1 MLOAD PUSH1 0x20 PUSH2 0xC936 DUP4 CODECOPY DUP2 MLOAD SWAP2 MSTORE SWAP2 MULMOD PUSH1 0x0 DUP1 MLOAD PUSH1 0x20 PUSH2 0xC8F6 DUP4 CODECOPY DUP2 MLOAD SWAP2 MSTORE PUSH1 0x0 DUP1 MLOAD PUSH1 0x20 PUSH2 0xC936 DUP4 CODECOPY DUP2 MLOAD SWAP2 MSTORE SWAP2 MULMOD DUP6 PUSH1 0x0 DUP1 MLOAD PUSH1 0x20 PUSH2 0xC936 DUP4 CODECOPY DUP2 MLOAD SWAP2 MSTORE DUP11 DUP1 MULMOD SWAP1 PUSH1 0x0 DUP1 MLOAD PUSH1 0x20 PUSH2 0xC936 DUP4 CODECOPY DUP2 MLOAD SWAP2 MSTORE SWAP2 MULMOD PUSH1 0x0 DUP1 MLOAD PUSH1 0x20 PUSH2 0xC896 DUP4 CODECOPY DUP2 MLOAD SWAP2 MSTORE PUSH1 0x0 DUP1 MLOAD PUSH1 0x20 PUSH2 0xC936 DUP4 CODECOPY DUP2 MLOAD SWAP2 MSTORE SWAP2 MULMOD DUP8 PUSH1 0x0 DUP1 MLOAD PUSH1 0x20 PUSH2 0xC936 DUP4 CODECOPY DUP2 MLOAD SWAP2 MSTORE DUP11 DUP1 MULMOD SWAP1 PUSH1 0x0 DUP1 MLOAD PUSH1 0x20 PUSH2 0xC936 DUP4 CODECOPY DUP2 MLOAD SWAP2 MSTORE SWAP2 MULMOD PUSH1 0x0 DUP1 MLOAD PUSH1 0x20 PUSH2 0xCA76 DUP4 CODECOPY DUP2 MLOAD SWAP2 MSTORE PUSH1 0x0 DUP1 MLOAD PUSH1 0x20 PUSH2 0xC936 DUP4 CODECOPY DUP2 MLOAD SWAP2 MSTORE SWAP2 MULMOD ADD ADD PUSH32 0x178F5C848248D8AE30D9D4E6C27EC06995BBA97B9D0AB13BB7B63E121958133E ADD PUSH1 0x0 DUP1 MLOAD PUSH1 0x20 PUSH2 0xC936 DUP4 CODECOPY DUP2 MLOAD SWAP2 MSTORE SWAP1 MOD ADD PUSH1 0xA0 MSTORE DUP1 PUSH1 0x0 DUP1 MLOAD PUSH1 0x20 PUSH2 0xC936 DUP4 CODECOPY DUP2 MLOAD SWAP2 MSTORE SWAP2 MULMOD SWAP1 PUSH1 0x0 DUP1 MLOAD PUSH1 0x20 PUSH2 0xC936 DUP4 CODECOPY DUP2 MLOAD SWAP2 MSTORE SWAP2 MULMOD PUSH1 0x0 DUP1 MLOAD PUSH1 0x20 PUSH2 0xC876 DUP4 CODECOPY DUP2 MLOAD SWAP2 MSTORE PUSH1 0x0 DUP1 MLOAD PUSH1 0x20 PUSH2 0xC936 DUP4 CODECOPY DUP2 MLOAD SWAP2 MSTORE SWAP2 MULMOD SWAP6 DUP1 PUSH1 0x0 DUP1 MLOAD PUSH1 0x20 PUSH2 0xC936 DUP4 CODECOPY DUP2 MLOAD SWAP2 MSTORE SWAP2 MULMOD SWAP1 PUSH1 0x0 DUP1 MLOAD PUSH1 0x20 PUSH2 0xC936 DUP4 CODECOPY DUP2 MLOAD SWAP2 MSTORE SWAP2 MULMOD PUSH1 0x0 DUP1 MLOAD PUSH1 0x20 PUSH2 0xC816 DUP4 CODECOPY DUP2 MLOAD SWAP2 MSTORE PUSH1 0x0 DUP1 MLOAD PUSH1 0x20 PUSH2 0xC936 DUP4 CODECOPY DUP2 MLOAD SWAP2 MSTORE SWAP2 MULMOD SWAP4 DUP1 PUSH1 0x0 DUP1 MLOAD PUSH1 0x20 PUSH2 0xC936 DUP4 CODECOPY DUP2 MLOAD SWAP2 MSTORE SWAP2 MULMOD SWAP1 PUSH1 0x0 DUP1 MLOAD PUSH1 0x20 PUSH2 0xC936 DUP4 CODECOPY DUP2 MLOAD SWAP2 MSTORE SWAP2 MULMOD PUSH1 0x0 DUP1 MLOAD PUSH1 0x20 PUSH2 0xC996 DUP4 CODECOPY DUP2 MLOAD SWAP2 MSTORE PUSH1 0x0 DUP1 MLOAD PUSH1 0x20 PUSH2 0xC936 DUP4 CODECOPY DUP2 MLOAD SWAP2 MSTORE SWAP2 MULMOD SWAP2 DUP1 PUSH1 0x0 DUP1 MLOAD PUSH1 0x20 PUSH2 0xC936 DUP4 CODECOPY DUP2 MLOAD SWAP2 MSTORE SWAP2 MULMOD SWAP1 PUSH1 0x0 DUP1 MLOAD PUSH1 0x20 PUSH2 0xC936 DUP4 CODECOPY DUP2 MLOAD SWAP2 MSTORE SWAP2 MULMOD PUSH1 0x0 DUP1 MLOAD PUSH1 0x20 PUSH2 0xCA36 DUP4 CODECOPY DUP2 MLOAD SWAP2 MSTORE PUSH1 0x0 DUP1 MLOAD PUSH1 0x20 PUSH2 0xC936 DUP4 CODECOPY DUP2 MLOAD SWAP2 MSTORE SWAP2 MULMOD ADD ADD PUSH32 0x1F52DAC6047456323348E214A18A3AAD024561B12C7CA045CD2484B9D4FFE3C0 ADD PUSH1 0x0 DUP1 MLOAD PUSH1 0x20 PUSH2 0xC936 DUP4 CODECOPY DUP2 MLOAD SWAP2 MSTORE SWAP1 MOD ADD PUSH1 0xC0 MSTORE PUSH2 0xC2E9 PUSH2 0xA960 JUMP JUMPDEST PUSH2 0xC2F1 PUSH2 0xAC5A JUMP JUMPDEST PUSH2 0xC2F9 PUSH2 0xAF54 JUMP JUMPDEST PUSH2 0xC301 PUSH2 0x6C JUMP JUMPDEST PUSH2 0xC309 PUSH2 0x33D JUMP JUMPDEST PUSH2 0xC311 PUSH2 0x60E JUMP JUMPDEST PUSH2 0xC319 PUSH2 0x8DF JUMP JUMPDEST PUSH2 0xC321 PUSH2 0xBAF JUMP JUMPDEST PUSH2 0xC329 PUSH2 0xE80 JUMP JUMPDEST PUSH2 0xC331 PUSH2 0x1151 JUMP JUMPDEST PUSH2 0xC339 PUSH2 0x1422 JUMP JUMPDEST PUSH2 0xC341 PUSH2 0x16F3 JUMP JUMPDEST PUSH2 0xC349 PUSH2 0x19C4 JUMP JUMPDEST PUSH2 0xC351 PUSH2 0x1C95 JUMP JUMPDEST PUSH2 0xC359 PUSH2 0x1F66 JUMP JUMPDEST PUSH2 0xC361 PUSH2 0x2237 JUMP JUMPDEST PUSH2 0xC369 PUSH2 0x2508 JUMP JUMPDEST PUSH2 0xC371 PUSH2 0x27D9 JUMP JUMPDEST PUSH2 0xC379 PUSH2 0x2AAA JUMP JUMPDEST PUSH2 0xC381 PUSH2 0x2D7B JUMP JUMPDEST PUSH2 0xC389 PUSH2 0x304C JUMP JUMPDEST PUSH2 0xC391 PUSH2 0x331D JUMP JUMPDEST PUSH2 0xC399 PUSH2 0x35EE JUMP JUMPDEST PUSH2 0xC3A1 PUSH2 0x38BF JUMP JUMPDEST PUSH2 0xC3A9 PUSH2 0x3B8E JUMP JUMPDEST PUSH2 0xC3B1 PUSH2 0x3E5F JUMP JUMPDEST PUSH2 0xC3B9 PUSH2 0x4130 JUMP JUMPDEST PUSH2 0xC3C1 PUSH2 0x4401 JUMP JUMPDEST PUSH2 0xC3C9 PUSH2 0x46D2 JUMP JUMPDEST PUSH2 0xC3D1 PUSH2 0x49A2 JUMP JUMPDEST PUSH2 0xC3D9 PUSH2 0x4C73 JUMP JUMPDEST PUSH2 0xC3E1 PUSH2 0x4F44 JUMP JUMPDEST PUSH2 0xC3E9 PUSH2 0x5215 JUMP JUMPDEST PUSH2 0xC3F1 PUSH2 0x54E6 JUMP JUMPDEST PUSH2 0xC3F9 PUSH2 0x57B7 JUMP JUMPDEST PUSH2 0xC401 PUSH2 0x5A88 JUMP JUMPDEST PUSH2 0xC409 PUSH2 0x5D59 JUMP JUMPDEST PUSH2 0xC411 PUSH2 0x602A JUMP JUMPDEST PUSH2 0xC419 PUSH2 0x62FB JUMP JUMPDEST PUSH2 0xC421 PUSH2 0x65CC JUMP JUMPDEST PUSH2 0xC429 PUSH2 0x689D JUMP JUMPDEST PUSH2 0xC431 PUSH2 0x6B6E JUMP JUMPDEST PUSH2 0xC439 PUSH2 0x6E3F JUMP JUMPDEST PUSH2 0xC441 PUSH2 0x7110 JUMP JUMPDEST PUSH2 0xC449 PUSH2 0x73E0 JUMP JUMPDEST PUSH2 0xC451 PUSH2 0x76B1 JUMP JUMPDEST PUSH2 0xC459 PUSH2 0x7982 JUMP JUMPDEST PUSH2 0xC461 PUSH2 0x7C52 JUMP JUMPDEST PUSH2 0xC469 PUSH2 0x7F22 JUMP JUMPDEST PUSH2 0xC471 PUSH2 0x81F3 JUMP JUMPDEST PUSH2 0xC479 PUSH2 0x84C4 JUMP JUMPDEST PUSH2 0xC481 PUSH2 0x8795 JUMP JUMPDEST PUSH2 0xC489 PUSH2 0x8A66 JUMP JUMPDEST PUSH2 0xC491 PUSH2 0x8D37 JUMP JUMPDEST PUSH2 0xC499 PUSH2 0x9008 JUMP JUMPDEST PUSH2 0xC4A1 PUSH2 0x92D9 JUMP JUMPDEST PUSH2 0xC4A9 PUSH2 0x95AA JUMP JUMPDEST PUSH2 0xC4B1 PUSH2 0x987B JUMP JUMPDEST PUSH2 0xC4B9 PUSH2 0x9B4C JUMP JUMPDEST PUSH2 0xC4C1 PUSH2 0x9E1C JUMP JUMPDEST PUSH2 0xC4C9 PUSH2 0xA0ED JUMP JUMPDEST PUSH2 0xC4D1 PUSH2 0xA3BE JUMP JUMPDEST PUSH2 0xC4D9 PUSH2 0xA68F JUMP JUMPDEST PUSH2 0xC4E1 PUSH2 0xB24E JUMP JUMPDEST PUSH2 0xC4E9 PUSH2 0xB548 JUMP JUMPDEST PUSH2 0xC4F1 PUSH2 0xB842 JUMP JUMPDEST PUSH1 0x0 MLOAD PUSH32 0x2036EFB6F9830965EB3D7A068BD087C9F5ADF251BA62052C652738E63FF8B3AF ADD PUSH1 0x20 MLOAD PUSH32 0xC712A975B74DC9D766B639A029969CA30BE4F75A753F854B00FA4F1B4F4EE9B ADD PUSH1 0x80 MLOAD PUSH32 0x8014DAB3CD1667E27AFC99BFAC1E6807AFDFF6456492CA3375731D387539699 ADD SWAP1 PUSH1 0xA0 MLOAD PUSH32 0x198D07192DB4FAC2A82A4A79839D6A2B97C4DD4D37B4E8F3B53009F79B34E6A4 ADD SWAP3 PUSH1 0xC0 MLOAD PUSH32 0x29EB1DE42A3AD381B23B4131426897A32709B29D53BB946DFD15784D1F63E572 ADD PUSH1 0x0 DUP1 MLOAD PUSH1 0x20 PUSH2 0xC936 DUP4 CODECOPY DUP2 MLOAD SWAP2 MSTORE DUP2 DUP1 MULMOD DUP1 PUSH1 0x0 DUP1 MLOAD PUSH1 0x20 PUSH2 0xC936 DUP4 CODECOPY DUP2 MLOAD SWAP2 MSTORE SWAP2 MULMOD SWAP1 PUSH1 0x0 DUP1 MLOAD PUSH1 0x20 PUSH2 0xC936 DUP4 CODECOPY DUP2 MLOAD SWAP2 MSTORE SWAP2 MULMOD PUSH1 0x0 DUP1 MLOAD PUSH1 0x20 PUSH2 0xC9D6 DUP4 CODECOPY DUP2 MLOAD SWAP2 MSTORE PUSH1 0x0 DUP1 MLOAD PUSH1 0x20 PUSH2 0xC936 DUP4 CODECOPY DUP2 MLOAD SWAP2 MSTORE SWAP2 MULMOD SWAP4 PUSH1 0x0 DUP1 MLOAD PUSH1 0x20 PUSH2 0xC936 DUP4 CODECOPY DUP2 MLOAD SWAP2 MSTORE DUP2 DUP1 MULMOD PUSH1 0x0 DUP1 MLOAD PUSH1 0x20 PUSH2 0xC936 DUP4 CODECOPY DUP2 MLOAD SWAP2 MSTORE DUP3 DUP1 MULMOD SWAP1 PUSH1 0x0 DUP1 MLOAD PUSH1 0x20 PUSH2 0xC936 DUP4 CODECOPY DUP2 MLOAD SWAP2 MSTORE SWAP2 MULMOD SWAP1 PUSH1 0x0 DUP1 MLOAD PUSH1 0x20 PUSH2 0xC936 DUP4 CODECOPY DUP2 MLOAD SWAP2 MSTORE SWAP2 MULMOD PUSH1 0x0 DUP1 MLOAD PUSH1 0x20 PUSH2 0xC8B6 DUP4 CODECOPY DUP2 MLOAD SWAP2 MSTORE PUSH1 0x0 DUP1 MLOAD PUSH1 0x20 PUSH2 0xC936 DUP4 CODECOPY DUP2 MLOAD SWAP2 MSTORE SWAP2 MULMOD SWAP3 PUSH1 0x0 DUP1 MLOAD PUSH1 0x20 PUSH2 0xC936 DUP4 CODECOPY DUP2 MLOAD SWAP2 MSTORE DUP2 DUP1 MULMOD PUSH1 0x0 DUP1 MLOAD PUSH1 0x20 PUSH2 0xC936 DUP4 CODECOPY DUP2 MLOAD SWAP2 MSTORE DUP3 DUP1 MULMOD SWAP1 PUSH1 0x0 DUP1 MLOAD PUSH1 0x20 PUSH2 0xC936 DUP4 CODECOPY DUP2 MLOAD SWAP2 MSTORE SWAP2 MULMOD SWAP1 PUSH1 0x0 DUP1 MLOAD PUSH1 0x20 PUSH2 0xC936 DUP4 CODECOPY DUP2 MLOAD SWAP2 MSTORE SWAP2 MULMOD PUSH1 0x0 DUP1 MLOAD PUSH1 0x20 PUSH2 0xCA56 DUP4 CODECOPY DUP2 MLOAD SWAP2 MSTORE PUSH1 0x0 DUP1 MLOAD PUSH1 0x20 PUSH2 0xC936 DUP4 CODECOPY DUP2 MLOAD SWAP2 MSTORE SWAP2 MULMOD SWAP2 PUSH1 0x0 DUP1 MLOAD PUSH1 0x20 PUSH2 0xC936 DUP4 CODECOPY DUP2 MLOAD SWAP2 MSTORE DUP2 DUP1 MULMOD PUSH1 0x0 DUP1 MLOAD PUSH1 0x20 PUSH2 0xC936 DUP4 CODECOPY DUP2 MLOAD SWAP2 MSTORE DUP3 DUP1 MULMOD SWAP1 PUSH1 0x0 DUP1 MLOAD PUSH1 0x20 PUSH2 0xC936 DUP4 CODECOPY DUP2 MLOAD SWAP2 MSTORE SWAP2 MULMOD SWAP1 PUSH1 0x0 DUP1 MLOAD PUSH1 0x20 PUSH2 0xC936 DUP4 CODECOPY DUP2 MLOAD SWAP2 MSTORE SWAP2 MULMOD PUSH1 0x0 DUP1 MLOAD PUSH1 0x20 PUSH2 0xC976 DUP4 CODECOPY DUP2 MLOAD SWAP2 MSTORE PUSH1 0x0 DUP1 MLOAD PUSH1 0x20 PUSH2 0xC936 DUP4 CODECOPY DUP2 MLOAD SWAP2 MSTORE SWAP2 MULMOD SWAP1 PUSH1 0x0 DUP1 MLOAD PUSH1 0x20 PUSH2 0xC936 DUP4 CODECOPY DUP2 MLOAD SWAP2 MSTORE DUP2 DUP1 MULMOD PUSH1 0x0 DUP1 MLOAD PUSH1 0x20 PUSH2 0xC936 DUP4 CODECOPY DUP2 MLOAD SWAP2 MSTORE DUP3 DUP1 MULMOD SWAP1 PUSH1 0x0 DUP1 MLOAD PUSH1 0x20 PUSH2 0xC936 DUP4 CODECOPY DUP2 MLOAD SWAP2 MSTORE SWAP2 MULMOD SWAP1 PUSH1 0x0 DUP1 MLOAD PUSH1 0x20 PUSH2 0xC936 DUP4 CODECOPY DUP2 MLOAD SWAP2 MSTORE SWAP2 MULMOD PUSH1 0x0 DUP1 MLOAD PUSH1 0x20 PUSH2 0xCA96 DUP4 CODECOPY DUP2 MLOAD SWAP2 MSTORE PUSH1 0x0 DUP1 MLOAD PUSH1 0x20 PUSH2 0xC936 DUP4 CODECOPY DUP2 MLOAD SWAP2 MSTORE SWAP2 MULMOD ADD ADD ADD PUSH1 0x0 DUP1 MLOAD PUSH1 0x20 PUSH2 0xC936 DUP4 CODECOPY DUP2 MLOAD SWAP2 MSTORE SWAP1 MOD ADD PUSH1 0x0 DUP1 MLOAD PUSH1 0x20 PUSH2 0xC936 DUP4 CODECOPY DUP2 MLOAD SWAP2 MSTORE SWAP1 MOD PUSH1 0x0 MSTORE PUSH1 0x20 PUSH1 0x0 RETURN INVALID 0x2F PUSH10 0xA7198E1FBCC7DEA43265 ADDRESS PUSH11 0x37ED55B91BFF652AD69AA4 STATICCALL DUP5 PUSH25 0x970D401D07F017A7EBD56DD086F7CD4FD710C509ED7EF8E300 0xB9 0xA8 0xBB SWAP16 0xB9 CALLCODE DUP11 0xF7 LT 0x25 0x1F 0x2D GASPRICE BYTE 0xEA 0x2E PUSH14 0x44466808F88C9BA903D3BDCB6B58 0xBA BLOCKHASH PREVRANDAO 0x1E 0xD4 0xEB 0xCF GT 0xBB 0xE1 0xE3 PUSH28 0x2EFC2B90D688134849018222E7B8922EAF67CE79816EF468531EC2DE MSTORE8 0xBB 0xD1 PUSH8 0x2A70B9F1D4BBCCDB 0xC0 RETURNDATACOPY OR 0xC1 0xD1 0xDC 0xDB MUL SDIV 0x29 SUB 0xDC PUSH7 0x9EA6969F661B2 0xEB PUSH21 0xC83914074BB14C982C81C9AD171E4F35FE49B39C4A PUSH27 0x72DBB6D9C98D803BFED65E641C482A25A729F5DF20225815034B19 PUSH1 0x98 CALLDATASIZE BLOBBASEFEE GT DELEGATECALL 0xD9 DUP9 0xFB PUSH29 0xC75CF32D8136FA104D0295AB00C85E960111AC25DA474366599E575A9B PUSH31 0xDF6145F14BA6D3C1C421888041E6FEBD546D427C890B1883BB9B626D8CB4DC XOR 0xDC 0xC4 0xEC DUP16 0xA7 MCOPY MSTORE8 EXP SGT 0x26 0x25 0xCE BASEFEE 0xA7 0xB3 SWAP11 TIMESTAMP MSTORE PUSH20 0x2624E4AB94360812AC2FC9A14A5FB8B607AE9FD8 MLOAD BLOBBASEFEE STOP SHR 0x1E 0xDD PUSH3 0x645B73 0xAD SWAP4 BYTE 0xB8 0xE CALLDATACOPY 0xBB 0xB2 PUSH8 0xBA312B34140E716D PUSH11 0x3747594D305230644E72E1 BALANCE LOG0 0x29 0xB8 POP GASLIMIT 0xB6 DUP2 DUP2 PC TSTORE 0x28 CALLER 0xE8 BASEFEE PUSH26 0xB9709143E1F593F000000115B98CE93E47BC64CE2F2C96C69663 0xC4 CODECOPY 0xC4 0xC PUSH1 0x30 BLOBHASH CHAINID PUSH16 0xA7F9A4B228BFC32B25FB50B65ACF4FB0 SELFBALANCE 0xCB 0xD3 0xB1 0xC1 PUSH30 0x97C7FE26EA9CA238D6E348550486E91C776502ECAC687EF5B4B568002BD9 0xD1 0xB9 PUSH12 0x4BEF357A69E3E86B5561B929 SWAP12 DUP3 0xD6 SWAP13 DUP15 SLT 0xC7 0xE2 0xAD STATICCALL MSTORE 0x4E MSIZE PC 0xF6 JUMPDEST 0xE2 0xFB 0xAC DUP1 SWAP16 0xCB 0xA8 GASLIMIT DUP12 0x28 0xE4 0x4D SWAP3 PUSH6 0x51DE33163CF SWAP13 EXP 0xAA CALLDATALOAD 0xE2 0xC8 0x4B 0xAF GT PUSH30 0xEA3E336CD96A39792B3813954FE9BF3ED5B90F2F69C9772A20E3A4A0E57D SWAP3 0xF9 PUSH29 0x9D6186C6C3EA7C5E55C20146259BE2F78C2CCC2E359528C2BE2F8264F9 PUSH0 SIGNEXTEND MSTORE8 0xC7 ORIGIN SGT 0x4E STATICCALL CALLER DUP13 0xCD DUP16 0xDB SWAP15 0xE2 0xB4 PUSH0 0xB8 PUSH11 0x894F7DB36C371049F82105 PUSH7 0xB51FAAFB1E9A5D PUSH4 0xC0EE7016 PUSH20 0xAED820D9C4403B01FEB727A549293D617D7DA721 MUL CALLDATALOAD PUSH0 CODECOPY 0xEB 0xF6 0x2F SWAP2 0xB0 PUSH14 0xEB5325F367A4556EA1E31ED57678 CALLER 0xD 0xEC SLOAD 0xE6 0xDB 0xF7 MSTORE SDIV STATICCALL PUSH22 0xBA7992BD34F08B2EFE2ECD424A73EDA7784320A1A36E 0x25 0x1E PUSH32 0xDF99591080080B0AF133B9E4369F22E57ACE3CD7F64FC6FDBCF38D7DA1281154 PUSH6 0x1C921E746315 0xA9 SWAP4 0x4F SHL DUP11 SHL 0xBA SWAP16 SWAP3 0xAD DUP15 DELEGATECALL 0xB9 PUSH26 0x115B8E2E991CCD7A0C3F050A6BF5AF151981E55E3E1A29A13C3F STATICCALL GASLIMIT POP 0xBD 0x25 EQ CALL 0xAF 0xD6 0xC5 0xF7 0x21 0xF8 ADDRESS EQ 0xDD 0xB5 STATICCALL 0xDA ADD PUSH18 0xDB80195B9592D8CF2BE810930E3EA4574A35 0xD PUSH6 0xE2CBFF4941A2 PUSH5 0x6970667358 0x22 SLT KECCAK256 EXTCODESIZE COINBASE MCOPY SHL SWAP10 PUSH5 0xFA038E8224 0xB7 GASPRICE 0xBD 0xCD SWAP11 DUP3 0xDF 0xAE 0xF7 DUP3 0xC 0xD5 SHL SAR 0xDC SWAP15 0xBA 0xC1 RETURNDATACOPY MCOPY PUSH12 0x64736F6C6343000818003300 "},"methodIdentifiers":{"hash(uint256[4])":"8709cd8c"}}}}}