{"contracts/ZkVotingFinal.sol":{"ZkVotingFinal":{"abi":[{"inputs":[{"internalType":"address","name":"_verifierD1","type":"address"},{"internalType":"address","name":"_verifierD2","type":"address"},{"internalType":"address","name":"_tonToken","type":"address"},{"internalType":"address","name":"_treasury","type":"address"}],"stateMutability":"nonpayable","type":"constructor"},{"inputs":[],"name":"AlreadyRevealed","type":"error"},{"inputs":[],"name":"CommitmentNotFound","type":"error"},{"inputs":[],"name":"InsufficientCredits","type":"error"},{"inputs":[],"name":"InvalidChoice","type":"error"},{"inputs":[],"name":"InvalidCreditRoot","type":"error"},{"inputs":[],"name":"InvalidMerkleRoot","type":"error"},{"inputs":[],"name":"InvalidProof","type":"error"},{"inputs":[],"name":"InvalidQuadraticCost","type":"error"},{"inputs":[],"name":"InvalidReveal","type":"error"},{"inputs":[],"name":"NotInCommitPhase","type":"error"},{"inputs":[],"name":"NotInRevealPhase","type":"error"},{"inputs":[],"name":"NullifierAlreadyUsed","type":"error"},{"inputs":[],"name":"ProposalNotFound","type":"error"},{"inputs":[],"name":"ZeroVotingPower","type":"error"},{"anonymous":false,"inputs":[{"indexed":true,"internalType":"uint256","name":"creditNoteHash","type":"uint256"},{"indexed":false,"internalType":"uint256","name":"timestamp","type":"uint256"}],"name":"CreditNoteRegistered","type":"event"},{"anonymous":false,"inputs":[{"indexed":true,"internalType":"uint256","name":"creditRoot","type":"uint256"},{"indexed":false,"internalType":"uint256","name":"timestamp","type":"uint256"}],"name":"CreditRootRegistered","type":"event"},{"anonymous":false,"inputs":[{"indexed":true,"internalType":"address","name":"user","type":"address"},{"indexed":false,"internalType":"uint256","name":"amount","type":"uint256"},{"indexed":false,"internalType":"uint256","name":"remaining","type":"uint256"}],"name":"CreditsBurned","type":"event"},{"anonymous":false,"inputs":[{"indexed":true,"internalType":"address","name":"user","type":"address"},{"indexed":false,"internalType":"uint256","name":"credits","type":"uint256"}],"name":"CreditsInitialized","type":"event"},{"anonymous":false,"inputs":[{"indexed":true,"internalType":"address","name":"user","type":"address"},{"indexed":false,"internalType":"uint256","name":"amount","type":"uint256"},{"indexed":false,"internalType":"uint256","name":"total","type":"uint256"}],"name":"CreditsMinted","type":"event"},{"anonymous":false,"inputs":[{"indexed":true,"internalType":"uint256","name":"merkleRoot","type":"uint256"},{"indexed":false,"internalType":"uint256","name":"timestamp","type":"uint256"}],"name":"MerkleRootRegistered","type":"event"},{"anonymous":false,"inputs":[{"indexed":true,"internalType":"uint256","name":"proposalId","type":"uint256"},{"indexed":false,"internalType":"string","name":"title","type":"string"},{"indexed":true,"internalType":"address","name":"proposer","type":"address"},{"indexed":false,"internalType":"uint256","name":"merkleRoot","type":"uint256"},{"indexed":false,"internalType":"uint256","name":"endTime","type":"uint256"},{"indexed":false,"internalType":"uint256","name":"revealEndTime","type":"uint256"}],"name":"ProposalCreatedD1","type":"event"},{"anonymous":false,"inputs":[{"indexed":true,"internalType":"uint256","name":"proposalId","type":"uint256"},{"indexed":false,"internalType":"string","name":"title","type":"string"},{"indexed":true,"internalType":"address","name":"proposer","type":"address"},{"indexed":false,"internalType":"uint256","name":"creditRoot","type":"uint256"},{"indexed":false,"internalType":"uint256","name":"endTime","type":"uint256"},{"indexed":false,"internalType":"uint256","name":"revealEndTime","type":"uint256"}],"name":"ProposalCreatedD2","type":"event"},{"anonymous":false,"inputs":[{"indexed":true,"internalType":"uint256","name":"proposalId","type":"uint256"},{"indexed":true,"internalType":"uint256","name":"nullifier","type":"uint256"},{"indexed":false,"internalType":"uint256","name":"commitment","type":"uint256"},{"indexed":false,"internalType":"uint256","name":"votingPower","type":"uint256"}],"name":"VoteCommittedD1","type":"event"},{"anonymous":false,"inputs":[{"indexed":true,"internalType":"uint256","name":"proposalId","type":"uint256"},{"indexed":true,"internalType":"uint256","name":"nullifier","type":"uint256"},{"indexed":false,"internalType":"uint256","name":"commitment","type":"uint256"},{"indexed":false,"internalType":"uint256","name":"numVotes","type":"uint256"},{"indexed":false,"internalType":"uint256","name":"creditsSpent","type":"uint256"}],"name":"VoteCommittedD2","type":"event"},{"anonymous":false,"inputs":[{"indexed":true,"internalType":"uint256","name":"proposalId","type":"uint256"},{"indexed":true,"internalType":"uint256","name":"nullifier","type":"uint256"},{"indexed":false,"internalType":"uint256","name":"choice","type":"uint256"},{"indexed":false,"internalType":"uint256","name":"votingPower","type":"uint256"}],"name":"VoteRevealedD1","type":"event"},{"anonymous":false,"inputs":[{"indexed":true,"internalType":"uint256","name":"proposalId","type":"uint256"},{"indexed":true,"internalType":"uint256","name":"nullifier","type":"uint256"},{"indexed":false,"internalType":"uint256","name":"choice","type":"uint256"},{"indexed":false,"internalType":"uint256","name":"numVotes","type":"uint256"},{"indexed":false,"internalType":"uint256","name":"creditsSpent","type":"uint256"}],"name":"VoteRevealedD2","type":"event"},{"anonymous":false,"inputs":[{"indexed":true,"internalType":"uint256","name":"noteHash","type":"uint256"},{"indexed":false,"internalType":"uint256","name":"timestamp","type":"uint256"}],"name":"VoterRegistered","type":"event"},{"inputs":[],"name":"CHOICE_ABSTAIN","outputs":[{"internalType":"uint256","name":"","type":"uint256"}],"stateMutability":"view","type":"function"},{"inputs":[],"name":"CHOICE_AGAINST","outputs":[{"internalType":"uint256","name":"","type":"uint256"}],"stateMutability":"view","type":"function"},{"inputs":[],"name":"CHOICE_FOR","outputs":[{"internalType":"uint256","name":"","type":"uint256"}],"stateMutability":"view","type":"function"},{"inputs":[],"name":"INITIAL_CREDITS","outputs":[{"internalType":"uint256","name":"","type":"uint256"}],"stateMutability":"view","type":"function"},{"inputs":[{"internalType":"uint256","name":"numVotes","type":"uint256"}],"name":"calculateQuadraticCost","outputs":[{"internalType":"uint256","name":"","type":"uint256"}],"stateMutability":"pure","type":"function"},{"inputs":[{"internalType":"uint256","name":"_proposalId","type":"uint256"},{"internalType":"uint256","name":"_commitment","type":"uint256"},{"internalType":"uint256","name":"_votingPower","type":"uint256"},{"internalType":"uint256","name":"_nullifier","type":"uint256"},{"internalType":"uint256[2]","name":"_pA","type":"uint256[2]"},{"internalType":"uint256[2][2]","name":"_pB","type":"uint256[2][2]"},{"internalType":"uint256[2]","name":"_pC","type":"uint256[2]"}],"name":"castVoteD1","outputs":[],"stateMutability":"nonpayable","type":"function"},{"inputs":[{"internalType":"uint256","name":"_proposalId","type":"uint256"},{"internalType":"uint256","name":"_commitment","type":"uint256"},{"internalType":"uint256","name":"_numVotes","type":"uint256"},{"internalType":"uint256","name":"_creditsSpent","type":"uint256"},{"internalType":"uint256","name":"_nullifier","type":"uint256"},{"internalType":"uint256[2]","name":"_pA","type":"uint256[2]"},{"internalType":"uint256[2][2]","name":"_pB","type":"uint256[2][2]"},{"internalType":"uint256[2]","name":"_pC","type":"uint256[2]"}],"name":"castVoteD2","outputs":[],"stateMutability":"nonpayable","type":"function"},{"inputs":[{"internalType":"uint256","name":"","type":"uint256"},{"internalType":"uint256","name":"","type":"uint256"}],"name":"commitmentsD1","outputs":[{"internalType":"uint256","name":"commitment","type":"uint256"},{"internalType":"uint256","name":"votingPower","type":"uint256"},{"internalType":"uint256","name":"nullifier","type":"uint256"},{"internalType":"uint256","name":"timestamp","type":"uint256"},{"internalType":"bool","name":"revealed","type":"bool"},{"internalType":"uint256","name":"revealedChoice","type":"uint256"},{"internalType":"bool","name":"exists","type":"bool"}],"stateMutability":"view","type":"function"},{"inputs":[{"internalType":"uint256","name":"","type":"uint256"},{"internalType":"uint256","name":"","type":"uint256"}],"name":"commitmentsD2","outputs":[{"internalType":"uint256","name":"commitment","type":"uint256"},{"internalType":"uint256","name":"creditsSpent","type":"uint256"},{"internalType":"uint256","name":"numVotes","type":"uint256"},{"internalType":"uint256","name":"nullifier","type":"uint256"},{"internalType":"uint256","name":"timestamp","type":"uint256"},{"internalType":"bool","name":"revealed","type":"bool"},{"internalType":"uint256","name":"revealedChoice","type":"uint256"},{"internalType":"bool","name":"exists","type":"bool"}],"stateMutability":"view","type":"function"},{"inputs":[{"internalType":"string","name":"_title","type":"string"},{"internalType":"string","name":"_description","type":"string"},{"internalType":"uint256","name":"_merkleRoot","type":"uint256"},{"internalType":"uint256","name":"_votingDuration","type":"uint256"},{"internalType":"uint256","name":"_revealDuration","type":"uint256"}],"name":"createProposalD1","outputs":[{"internalType":"uint256","name":"","type":"uint256"}],"stateMutability":"nonpayable","type":"function"},{"inputs":[{"internalType":"string","name":"_title","type":"string"},{"internalType":"string","name":"_description","type":"string"},{"internalType":"uint256","name":"_creditRoot","type":"uint256"},{"internalType":"uint256","name":"_votingDuration","type":"uint256"},{"internalType":"uint256","name":"_revealDuration","type":"uint256"}],"name":"createProposalD2","outputs":[{"internalType":"uint256","name":"","type":"uint256"}],"stateMutability":"nonpayable","type":"function"},{"inputs":[{"internalType":"uint256","name":"","type":"uint256"}],"name":"creditRootHistory","outputs":[{"internalType":"uint256","name":"","type":"uint256"}],"stateMutability":"view","type":"function"},{"inputs":[{"internalType":"address","name":"user","type":"address"}],"name":"getAvailableCredits","outputs":[{"internalType":"uint256","name":"","type":"uint256"}],"stateMutability":"view","type":"function"},{"inputs":[{"internalType":"uint256","name":"_proposalId","type":"uint256"}],"name":"getPhaseD2","outputs":[{"internalType":"uint8","name":"","type":"uint8"}],"stateMutability":"view","type":"function"},{"inputs":[{"internalType":"uint256","name":"_proposalId","type":"uint256"}],"name":"getProposalD1","outputs":[{"internalType":"uint256","name":"id","type":"uint256"},{"internalType":"string","name":"title","type":"string"},{"internalType":"string","name":"description","type":"string"},{"internalType":"address","name":"proposer","type":"address"},{"internalType":"uint256","name":"merkleRoot","type":"uint256"},{"internalType":"uint256","name":"endTime","type":"uint256"},{"internalType":"uint256","name":"revealEndTime","type":"uint256"},{"internalType":"uint256","name":"forVotes","type":"uint256"},{"internalType":"uint256","name":"againstVotes","type":"uint256"},{"internalType":"uint256","name":"abstainVotes","type":"uint256"},{"internalType":"uint256","name":"totalCommitments","type":"uint256"},{"internalType":"uint256","name":"revealedVotes","type":"uint256"},{"internalType":"uint8","name":"phase","type":"uint8"}],"stateMutability":"view","type":"function"},{"inputs":[{"internalType":"uint256","name":"_proposalId","type":"uint256"}],"name":"getProposalD2","outputs":[{"internalType":"uint256","name":"id","type":"uint256"},{"internalType":"string","name":"title","type":"string"},{"internalType":"string","name":"description","type":"string"},{"internalType":"address","name":"proposer","type":"address"},{"internalType":"uint256","name":"creditRoot","type":"uint256"},{"internalType":"uint256","name":"endTime","type":"uint256"},{"internalType":"uint256","name":"revealEndTime","type":"uint256"},{"internalType":"uint256","name":"forVotes","type":"uint256"},{"internalType":"uint256","name":"againstVotes","type":"uint256"},{"internalType":"uint256","name":"abstainVotes","type":"uint256"},{"internalType":"uint256","name":"totalCreditsSpent","type":"uint256"},{"internalType":"uint256","name":"totalCommitments","type":"uint256"},{"internalType":"uint256","name":"revealedVotes","type":"uint256"},{"internalType":"uint8","name":"phase","type":"uint8"}],"stateMutability":"view","type":"function"},{"inputs":[],"name":"getRegisteredCreditNotes","outputs":[{"internalType":"uint256[]","name":"","type":"uint256[]"}],"stateMutability":"view","type":"function"},{"inputs":[],"name":"getRegisteredVoters","outputs":[{"internalType":"uint256[]","name":"","type":"uint256[]"}],"stateMutability":"view","type":"function"},{"inputs":[],"name":"getVoterCount","outputs":[{"internalType":"uint256","name":"","type":"uint256"}],"stateMutability":"view","type":"function"},{"inputs":[],"name":"initializeCredits","outputs":[],"stateMutability":"nonpayable","type":"function"},{"inputs":[{"internalType":"uint256","name":"","type":"uint256"}],"name":"isCreditNoteRegistered","outputs":[{"internalType":"bool","name":"","type":"bool"}],"stateMutability":"view","type":"function"},{"inputs":[{"internalType":"uint256","name":"_creditRoot","type":"uint256"}],"name":"isCreditRootValid","outputs":[{"internalType":"bool","name":"","type":"bool"}],"stateMutability":"view","type":"function"},{"inputs":[{"internalType":"uint256","name":"_merkleRoot","type":"uint256"}],"name":"isMerkleRootValid","outputs":[{"internalType":"bool","name":"","type":"bool"}],"stateMutability":"view","type":"function"},{"inputs":[{"internalType":"uint256","name":"","type":"uint256"}],"name":"isVoterRegistered","outputs":[{"internalType":"bool","name":"","type":"bool"}],"stateMutability":"view","type":"function"},{"inputs":[{"internalType":"uint256","name":"","type":"uint256"}],"name":"merkleRootHistory","outputs":[{"internalType":"uint256","name":"","type":"uint256"}],"stateMutability":"view","type":"function"},{"inputs":[{"internalType":"uint256","name":"amount","type":"uint256"}],"name":"mintTestTokens","outputs":[],"stateMutability":"nonpayable","type":"function"},{"inputs":[{"internalType":"uint256","name":"","type":"uint256"},{"internalType":"uint256","name":"","type":"uint256"}],"name":"nullifierUsedD1","outputs":[{"internalType":"bool","name":"","type":"bool"}],"stateMutability":"view","type":"function"},{"inputs":[{"internalType":"uint256","name":"","type":"uint256"},{"internalType":"uint256","name":"","type":"uint256"}],"name":"nullifierUsedD2","outputs":[{"internalType":"bool","name":"","type":"bool"}],"stateMutability":"view","type":"function"},{"inputs":[],"name":"proposalCountD1","outputs":[{"internalType":"uint256","name":"","type":"uint256"}],"stateMutability":"view","type":"function"},{"inputs":[],"name":"proposalCountD2","outputs":[{"internalType":"uint256","name":"","type":"uint256"}],"stateMutability":"view","type":"function"},{"inputs":[{"internalType":"uint256","name":"","type":"uint256"},{"internalType":"uint256","name":"","type":"uint256"}],"name":"proposalVoterSnapshots","outputs":[{"internalType":"uint256","name":"","type":"uint256"}],"stateMutability":"view","type":"function"},{"inputs":[{"internalType":"uint256","name":"","type":"uint256"}],"name":"proposalsD1","outputs":[{"internalType":"uint256","name":"id","type":"uint256"},{"internalType":"string","name":"title","type":"string"},{"internalType":"string","name":"description","type":"string"},{"internalType":"address","name":"proposer","type":"address"},{"internalType":"uint256","name":"startTime","type":"uint256"},{"internalType":"uint256","name":"endTime","type":"uint256"},{"internalType":"uint256","name":"revealEndTime","type":"uint256"},{"internalType":"uint256","name":"merkleRoot","type":"uint256"},{"internalType":"uint256","name":"forVotes","type":"uint256"},{"internalType":"uint256","name":"againstVotes","type":"uint256"},{"internalType":"uint256","name":"abstainVotes","type":"uint256"},{"internalType":"uint256","name":"totalCommitments","type":"uint256"},{"internalType":"uint256","name":"revealedVotes","type":"uint256"},{"internalType":"bool","name":"exists","type":"bool"}],"stateMutability":"view","type":"function"},{"inputs":[{"internalType":"uint256","name":"","type":"uint256"}],"name":"proposalsD2","outputs":[{"internalType":"uint256","name":"id","type":"uint256"},{"internalType":"string","name":"title","type":"string"},{"internalType":"string","name":"description","type":"string"},{"internalType":"address","name":"proposer","type":"address"},{"internalType":"uint256","name":"startTime","type":"uint256"},{"internalType":"uint256","name":"endTime","type":"uint256"},{"internalType":"uint256","name":"revealEndTime","type":"uint256"},{"internalType":"uint256","name":"creditRoot","type":"uint256"},{"internalType":"uint256","name":"forVotes","type":"uint256"},{"internalType":"uint256","name":"againstVotes","type":"uint256"},{"internalType":"uint256","name":"abstainVotes","type":"uint256"},{"internalType":"uint256","name":"totalCreditsSpent","type":"uint256"},{"internalType":"uint256","name":"totalCommitments","type":"uint256"},{"internalType":"uint256","name":"revealedVotes","type":"uint256"},{"internalType":"bool","name":"exists","type":"bool"}],"stateMutability":"view","type":"function"},{"inputs":[{"internalType":"uint256","name":"_creditNoteHash","type":"uint256"}],"name":"registerCreditNote","outputs":[],"stateMutability":"nonpayable","type":"function"},{"inputs":[{"internalType":"uint256","name":"_creditRoot","type":"uint256"}],"name":"registerCreditRoot","outputs":[],"stateMutability":"nonpayable","type":"function"},{"inputs":[{"internalType":"uint256","name":"_merkleRoot","type":"uint256"}],"name":"registerMerkleRoot","outputs":[],"stateMutability":"nonpayable","type":"function"},{"inputs":[{"internalType":"uint256","name":"_noteHash","type":"uint256"}],"name":"registerVoter","outputs":[],"stateMutability":"nonpayable","type":"function"},{"inputs":[{"internalType":"uint256","name":"","type":"uint256"}],"name":"registeredCreditNotes","outputs":[{"internalType":"uint256","name":"","type":"uint256"}],"stateMutability":"view","type":"function"},{"inputs":[{"internalType":"uint256","name":"","type":"uint256"}],"name":"registeredVoters","outputs":[{"internalType":"uint256","name":"","type":"uint256"}],"stateMutability":"view","type":"function"},{"inputs":[{"internalType":"uint256","name":"_proposalId","type":"uint256"},{"internalType":"uint256","name":"_nullifier","type":"uint256"},{"internalType":"uint256","name":"_choice","type":"uint256"},{"internalType":"uint256","name":"_voteSalt","type":"uint256"}],"name":"revealVoteD1","outputs":[],"stateMutability":"nonpayable","type":"function"},{"inputs":[{"internalType":"uint256","name":"_proposalId","type":"uint256"},{"internalType":"uint256","name":"_nullifier","type":"uint256"},{"internalType":"uint256","name":"_choice","type":"uint256"},{"internalType":"uint256","name":"_numVotes","type":"uint256"},{"internalType":"uint256","name":"_voteSalt","type":"uint256"}],"name":"revealVoteD2","outputs":[],"stateMutability":"nonpayable","type":"function"},{"inputs":[],"name":"tonToken","outputs":[{"internalType":"contract IERC20","name":"","type":"address"}],"stateMutability":"view","type":"function"},{"inputs":[],"name":"treasury","outputs":[{"internalType":"address","name":"","type":"address"}],"stateMutability":"view","type":"function"},{"inputs":[{"internalType":"uint256","name":"_proposalId","type":"uint256"},{"internalType":"uint256","name":"_newMerkleRoot","type":"uint256"}],"name":"updateProposalVoters","outputs":[],"stateMutability":"nonpayable","type":"function"},{"inputs":[{"internalType":"address","name":"","type":"address"}],"name":"userCredits","outputs":[{"internalType":"uint256","name":"totalCredits","type":"uint256"},{"internalType":"uint256","name":"usedCredits","type":"uint256"},{"internalType":"bool","name":"initialized","type":"bool"}],"stateMutability":"view","type":"function"},{"inputs":[{"internalType":"uint256","name":"","type":"uint256"}],"name":"validCreditRoots","outputs":[{"internalType":"bool","name":"","type":"bool"}],"stateMutability":"view","type":"function"},{"inputs":[{"internalType":"uint256","name":"","type":"uint256"}],"name":"validMerkleRoots","outputs":[{"internalType":"bool","name":"","type":"bool"}],"stateMutability":"view","type":"function"},{"inputs":[],"name":"verifierD1","outputs":[{"internalType":"contract IVerifierD1","name":"","type":"address"}],"stateMutability":"view","type":"function"},{"inputs":[],"name":"verifierD2","outputs":[{"internalType":"contract IVerifierD2","name":"","type":"address"}],"stateMutability":"view","type":"function"}],"evm":{"bytecode":{"linkReferences":{"contracts/PoseidonT5.sol":{"PoseidonT5":[{"length":20,"start":2819},{"length":20,"start":10133}]}},"object":"60e034620000f657601f62002e8438819003918201601f19168301916001600160401b03831184841017620000fb57808492608094604052833981010312620000f6576200004d8162000111565b906200005c6020820162000111565b91620000796060620000716040850162000111565b930162000111565b6001600160a01b0391821660805292811660a05290811660c052600080546001600160a01b03191691909216179055604051612d5d908162000127823960805181818161034b0152612310015260a051818181610f4c0152611870015260c051818181610fcb0152818161105e0152818161156301526119320152f35b600080fd5b634e487b7160e01b600052604160045260246000fd5b51906001600160a01b0382168203620000f65756fe608080604052600436101561001357600080fd5b60003560e01c90816303a229f714612766575080630572c8011461259d5780630d70ece81461256c57806311174a291461254e57806313703e66146124c457806318dbeb4c1461220957806320babb92146121af5780632436e06b146121865780632bbe44fd1461216a5780632bc4a6e7146120ef5780632c5317c0146120b0578063315401c014611f94578063417e70c8146104735780634275e03114611f165780634a9284fb14610e075780634d09b49f14611ac757806352a48c5614611a375780635938862f146119ff57806361d027b3146119d6578063697aa8e8146119b95780636d3cba611461198857806374dd0fea14611961578063781a48521461191c578063833722c5146118e4578063850099cd146118bb5780638ea7a2741461189f57806394ffe6a01461185a578063974f7aa314611809578063a13f2f8d146117ed578063a1c7574a14611762578063a329b31314611711578063a4cae8f8146116af578063aa609848146115d4578063b065a8e51461151f578063b4e0d6af14611417578063b5770c33146113fb578063b5ad9215146113aa578063badbc2ed14610e38578063cb1bb03314610e07578063d544433614610d50578063d54bb70b14610c2a578063d55d533e1461094c578063d90292a314610930578063db5bd601146104a4578063ef3a2b3914610473578063f025d0821461037a578063f58789ae14610335578063f9058741146103175763fb9607d31461023a57600080fd5b346103125760003660031901126103125733600052601260205260ff600260406000200154161561026757005b604051606081018181106001600160401b038211176102fc576040526102ce612710918281526002602082016000815260408301906001825233600052601260205260406000209351845551600184015551151591019060ff801983541691151516179055565b6040519081527f840108f8f5f45d25a166719fa7440c37016845a955726b639e64fb325f73100760203392a2005b634e487b7160e01b600052604160045260246000fd5b600080fd5b34610312576000366003190112610312576020600154604051908152f35b34610312576000366003190112610312576040517f00000000000000000000000000000000000000000000000000000000000000006001600160a01b03168152602090f35b3461031257602036600319011261031257600435600052600360205260406000208054600182016103aa90612976565b916103b760028201612976565b600160a01b60019003600383015416916004810154600582015460068301546007840154600885015490600986015492600a87015494600b88015496600c89015498600d015460ff16996040519d8e9d8e6101c09181528160208201520161041e91612822565b8d810360408f015261042f91612822565b9a60608d015260808c015260a08b015260c08a015260e089015261010088015261012087015261014086015261016085015261018084015215156101a08301520390f35b3461031257602036600319011261031257600435600052600e602052602060ff604060002054166040519015158152f35b34610312576104b23661288f565b929482600097959793929352600e60205260ff604060002054161561091e576104dc600254612a56565b95866002556104eb8442612a49565b6104fe866104f98742612a49565b612a49565b91604051998a6101e08101106001600160401b036101e08d0111176102fc57610543916101e08c016040528a8c5261053736878c612bc6565b60208d01523691612bc6565b60408a01523360608a01524260808a015260a089015260c08801528160e08801526000610100880152600061012088015260006101408801526000610160880152600061018088015260006101a088015260016101c088015285600052600b6020526040600020928751845560208801518051906001600160401b0382116102fc5781906105d460018801546128e5565b601f81116108e9575b50602090601f83116001146108775760009261086c575b50508160011b916000199060031b1c19161760018501555b6040880151938451986001600160401b038a116102fc57602099899661063560028501546128e5565b601f811161082e575b508b90601f83116001146107855793600e6101c061076095857f4742ce2d5f823dbde60d41925bff9b938299879eba7f67fa0029c8633d92b6549c9d9661074c9661076f9b9a60009261077a575b50508160011b916000199060031b1c19161760028501555b6003840160018060a01b036060830151166bffffffffffffffffffffffff60a01b8254161790556080810151600485015560a0810151600585015560c0810151600685015560e0810151600785015561010081015160088501556101208101516009850155610140810151600a850155610160810151600b850155610180810151600c8501556101a0810151600d8501550151151591019060ff801983541691151516179055565b6104f96107598442612a49565b9342612a49565b90604051948594339986612c23565b0390a3604051908152f35b01519050388061068c565b6002859493929a95016000528c6000209060005b601f198416811061081457506101c061076f97969460018561076098957f4742ce2d5f823dbde60d41925bff9b938299879eba7f67fa0029c8633d92b6549e9f600e9661074c99601f198116106107fb575b505050811b0160028501556106a4565b015160001960f88460031b161c191690553880806107eb565b818c015183559a8e019a8d9a506001909201918e01610799565b61085c90600286016000528d600020601f850160051c8101918f8610610862575b601f0160051c0190612c0c565b8c61063e565b909150819061084f565b015190508a806105f4565b9250600187016000526020600020906000935b601f19841685106108ce576001945083601f198116106108b5575b505050811b01600185015561060c565b015160001960f88460031b161c191690558a80806108a5565b8181015183556020948501946001909301929091019061088a565b61091890600189016000526020600020601f850160051c8101916020861061086257601f0160051c0190612c0c565b8b6105dd565b604051633398105560e01b8152600490fd5b3461031257600036600319011261031257602060405160028152f35b346103125760a0366003190112610312576004356024359060443560643582600052602091600b8352604060002092600c8152604060002086600052815260406000209060ff600e8601541615610c18576005850154421115610c065760068501544211610c065760ff60078301541615610bf4576005820160ff815416610be25760028411610bd0576040519173__$0daf1669a85ce10529e05b8a030b9567e1$__6109f88461291f565b858452868285015260018501938454604082015289606082015260405190838280610a316321c2736360e21b9485835260048301612a1b565b0381865af4908115610b91578492600092610b9d575b5092610a859360405192610a5a8461291f565b8352608435848401526000604084015260006060840152604051809581948293835260048301612a1b565b03915af4918215610b9157600092610b63575b5050835403610b51577f3c283986862ad16cc4d3240256474e99bfc9df697a62f7351373cbdefb3d14f895846006610b2295600d94600160ff19825416179055015560018514600014610b275760088101610af4878254612a49565b90555b01610b028154612a56565b905554604051938493846040919493926060820195825260208201520152565b0390a3005b84610b425760098101610b3b878254612a49565b9055610af7565b600a8101610b3b878254612a49565b604051639ea6d12760e01b8152600490fd5b90809250813d8311610b8a575b610b7a8183612955565b8101031261031257518980610a98565b503d610b70565b6040513d6000823e3d90fd5b8381949293503d8311610bc9575b610bb58183612955565b810103126103125790518391610a85610a47565b503d610bab565b604051639c45400160e01b8152600490fd5b60405163a89ac15160e01b8152600490fd5b604051635b34156960e11b8152600490fd5b6040516374683d7160e01b8152600490fd5b60405163635e873760e01b8152600490fd5b3461031257602036600319011261031257600435600052600b602052604060002060ff600e8201541615610c18576005810154428110610d35576000905b825491600160a01b6001900360038501541691600785015490600686015460088701546009880154600a89015491600b8a015493600c8b015495600d8c01549760018d01610cb590612976565b9c600201610cc290612976565b6040519d8e9d8e6101c091815281602082015201610cdf91612822565b8d810360408f0152610cf091612822565b9a60608d015260808c015260a08b015260c08a015260e089015261010088015261012087015261014086015261016085015261018084015260ff166101a08301520390f35b60068201544211610d4857600190610c68565b600290610c68565b346103125760203660031901126103125760043580600052600e6020526040600020600160ff19825416179055600f54600160401b8110156102fc576001810180600f55811015610df1578190600f6000527f8d1108e10bcb7c27dddfc02ed9d693a074039d026cf4ea4240b40f7d581ac80201557fc437041eca78e842ff32dc1036255a23da98c52b2f3bd3a875923aadb0276b3d6020604051428152a2005b634e487b7160e01b600052603260045260246000fd5b34610312576020366003190112610312576004356000526006602052602060ff604060002054166040519015158152f35b34610312576101a0366003190112610312573660e4116103125761016436811161031257366101a41161031257600435600052600b60205260406000209060ff600e8301541615610c18576005820154421161139857600435600052600d602052604060002060843560005260205260ff6040600020541661138657610ec060443580612c5e565b6064350361137457604051610ed48161293a565b608435815260243560208201526004356040820152606435606082015260078301546080820152604051916334baeab960e01b8352604060a4600485013760e46000604485015b6002821061135e5750505060409060c4840137600061010483015b600582106113485750602091508290506101a4817f00000000000000000000000000000000000000000000000000000000000000006001600160a01b03165afa908115610b9157600091611329575b501561131757606435670de0b6b3a76400006064350204670de0b6b3a764000014606435151715611253576040516370a0823160e01b81523360048201526020816024817f00000000000000000000000000000000000000000000000000000000000000006001600160a01b03165afa908115610b91576000916112e5575b50670de0b6b3a76400006064350281106112d357600080546040516323b872dd60e01b81523360048201526001600160a01b03918216602482015260648035670de0b6b3a7640000026044830152909260209284929183917f0000000000000000000000000000000000000000000000000000000000000000165af1908115610b91576000916112a4575b501561126957670de0b6b3a7640000900460643581039081116112535760405190606435825260208201527f380f4b80ac5d183ff04f143a097611558815196006b7297cae774c0b5680a5ee60403392a2600435600052600d60205260406000206084356000526020526040600020600160ff198254161790556040519061010082018281106001600160401b038211176102fc57600b926111e391604052602435815260076020820160643581526040830160443581526111c76060850160843581526080860142815260a08701916000835260c08801946000865260e089019660018852600435600052600c6020526040600020608435600052602052604060002099518a555160018a0155516002890155516003880155516004870155511515600586019060ff801983541691151516179055565b51600684015551151591019060ff801983541691151516179055565b600c81016111f18154612a56565b9055016112016064358254612a49565b9055604051608435907fbcf4fa36949e1955af2c6b6b628e50db0e23ec473b26480f3a584dd5a5d8953b6004359180610b22606435604435602435846040919493926060820195825260208201520152565b634e487b7160e01b600052601160045260246000fd5b60405162461bcd60e51b81526020600482015260136024820152721513d3881d1c985b9cd9995c8819985a5b1959606a1b6044820152606490fd5b6112c6915060203d6020116112cc575b6112be8183612955565b810190612a65565b8361108f565b503d6112b4565b6040516343fb945360e01b8152600490fd5b90506020813d60201161130f575b8161130060209383612955565b81010312610312575182611004565b3d91506112f3565b6040516309bde33960e01b8152600490fd5b611342915060203d6020116112cc576112be8183612955565b82610f85565b6020806001928551815201930191019091610f36565b6040808281866001953701930191019091610f1b565b6040516315252a2960e21b8152600490fd5b604051636569570160e11b8152600490fd5b60405163abfb7dc360e01b8152600490fd5b34610312576020366003190112610312576004356007548110156103125760209060076000527fa66cc928b5edb82af9bd49922954155ab7b0942694bea4ce44661d9a8736c6880154604051908152f35b3461031257600036600319011261031257602060405160008152f35b3461031257602036600319011261031257600435600052600b602052604060002080546001820161144790612976565b61145360028401612976565b92600160a01b600190036003820154169060048101546005820154600683015460078401546008850154600986015491600a87015493600b88015495600c89015497600d8a015499600e015460ff169a6040519e8f9e8f9e8f916101e090835280602084015282016114c491612822565b9080820390604001526114d691612822565b9c6060015260808d015260a08c015260c08b015260e08a01526101008901526101208801526101408701526101608601526101808501526101a084015215156101c08301520390f35b3461031257602080600319360112610312576001600160a01b03600435818116908190036103125782906024604051809481936370a0823160e01b835260048301527f0000000000000000000000000000000000000000000000000000000000000000165afa908115610b91576000916115a7575b50670de0b6b3a764000060405191048152f35b90508181813d83116115cd575b6115be8183612955565b81010312610312575182611594565b503d6115b4565b34610312576115e236612781565b8160005260039160206003602052604060002060ff600d8201541615610c185760078491015581600052600a91600a602052604060002080546000825580611693575b505060005b600854811015611661576001908260005284845261165b604060002061164f83612797565b9054908a1b1c90612ac5565b0161162a565b8480600052600660205260406000209081549160ff83161561167f57005b60016116919360ff1916179055612a7d565b005b6116a891600052602060002090810190612c0c565b8580611625565b34610312576020366003190112610312576004358060005260066020526040600020600160ff198254161790556116e581612a7d565b7fcb23ed79d0d407699762f186152925a6b8dd62fc4b2223f50a16534af8c883f86020604051428152a2005b3461031257602036600319011261031257600435600f5481101561031257602090600f6000527f8d1108e10bcb7c27dddfc02ed9d693a074039d026cf4ea4240b40f7d581ac8020154604051908152f35b3461031257600036600319011261031257604051806010549182815260208091019260106000527f1b6847dc741a1b0cd08d278845f9d819d87b734759afb55fe2de5cb82a9ae672916000905b8282106117d6576117d2856117c681890382612955565b604051918291826127e6565b0390f35b8354865294850194600193840193909101906117af565b3461031257602036600319011261031257611691600435612cb2565b34610312576020366003190112610312576004356010548110156103125760209060106000527f1b6847dc741a1b0cd08d278845f9d819d87b734759afb55fe2de5cb82a9ae6720154604051908152f35b34610312576000366003190112610312576040517f00000000000000000000000000000000000000000000000000000000000000006001600160a01b03168152602090f35b3461031257600036600319011261031257602060405160018152f35b346103125760203660031901126103125760206118d9600435612c71565b60ff60405191168152f35b34610312576118f236612781565b90600052600d602052604060002090600052602052602060ff604060002054166040519015158152f35b34610312576000366003190112610312576040517f00000000000000000000000000000000000000000000000000000000000000006001600160a01b03168152602090f35b3461031257602036600319011261031257602061198060043580612c5e565b604051908152f35b34610312576020366003190112610312576004356000526009602052602060ff604060002054166040519015158152f35b346103125760003660031901126103125760206040516127108152f35b34610312576000366003190112610312576000546040516001600160a01b039091168152602090f35b3461031257611a0d36612781565b906000526005602052604060002090600052602052602060ff604060002054166040519015158152f35b346103125760203660031901126103125760043533600052601260205260406000206002810160ff81541615600014611ab45782825560006001830155600160ff198254161790555b5460405191825260208201527fc8bc4842cf61a3f6cbf597029d937fdf158ef4959a9616594587a0fb8c6b871160403392a2005b50611ac0828254612a49565b8155611a80565b3461031257611ad53661288f565b948260009793929752600660205260ff6040600020541615611f0457611afc600154612a56565b9384600155611b0b8842612a49565b611b19886104f98b42612a49565b9160405197886101c08101106001600160401b036101c08b0111176102fc57611b5e916101c08a01604052888a52611b5236878a612bc6565b60208b01523691612bc6565b604088015233606088015242608088015260a087015260c08601528160e08601526000610100860152600061012086015260006101408601526000610160860152600061018086015260016101a08601528360005260036020526040600020958551875560208601518051906001600160401b0382116102fc578190611be760018b01546128e5565b601f8111611ecf575b50602090601f8311600114611e5d57600092611e52575b50508160011b916000199060031b1c19161760018801555b60408601518051906001600160401b0382116102fc578190611c4460028b01546128e5565b601f8111611e1d575b50602090601f8311600114611dab57600092611da0575b50508160011b916000199060031b1c19161760028801555b6003870160018060a01b036060880151166bffffffffffffffffffffffff60a01b8254161790556080860151600488015560a0860151600588015560c0860151600688015560e08601516007880155611d2760089761010088015160088201556101208801516009820155600d6101a0600a99610140810151600a850155610160810151600b850155610180810151600c8501550151151591019060ff801983541691151516179055565b60005b8754811015611d62576001908660005287602052611d5c6040600020611d4f83612797565b90549060031b1c90612ac5565b01611d2a565b5060209550917f16356ec948fe2183cece6a7b111beef5be873032e9698d3fbf0e0168d0fc91a89161076f8961076088966104f96107598442612a49565b015190508a80611c64565b925060028a016000526020600020906000935b601f1984168510611e02576001945083601f19811610611de9575b505050811b016002880155611c7c565b015160001960f88460031b161c191690558a8080611dd9565b81810151835560209485019460019093019290910190611dbe565b611e4c9060028c016000526020600020601f850160051c8101916020861061086257601f0160051c0190612c0c565b8b611c4d565b015190508a80611c07565b925060018a016000526020600020906000935b601f1984168510611eb4576001945083601f19811610611e9b575b505050811b016001880155611c1f565b015160001960f88460031b161c191690558a8080611e8b565b81810151835560209485019460019093019290910190611e70565b611efe9060018c016000526020600020601f850160051c8101916020861061086257601f0160051c0190612c0c565b8b611bf0565b604051639dd854d360e01b8152600490fd5b3461031257611f2436612781565b90600052600460205260406000209060005260205260e060406000208054906001810154906002810154600382015460ff6004840154169160ff6006600586015495015416946040519687526020870152604086015260608501521515608084015260a0830152151560c0820152f35b34610312576020366003190112610312576004356000526003602052604060002060ff600d8201541615610c18576005810154428110612095576000905b825491600160a01b600190036003850154169160078501549060068601546008870154600988015490600a89015492600b8a015494600c8b01549660018c0161201a90612976565b9b60020161202790612976565b6040519c8d809d6101a09182918152602001528d0161204591612822565b8c810360408e015261205691612822565b9960608c015260808b015260a08a015260c089015260e088015261010087015261012086015261014085015261016084015260ff166101808301520390f35b600682015442116120a857600190611fd2565b600290611fd2565b34610312576120be36612781565b90600052600a60205260406000208054821015610312576020916120e1916127ce565b90546040519160031b1c8152f35b3461031257600036600319011261031257604051806008549182815260208091019260086000527ff3f7a9fe364faab93b216da50a3214154f22a0a2b415b23a84c8169e8b636ee3916000905b828210612153576117d2856117c681890382612955565b83548652948501946001938401939091019061213c565b3461031257602036600319011261031257611691600435612b01565b3461031257602036600319011261031257600435600854811015610312576120e1602091612797565b34610312576020366003190112610312576004356001600160a01b038116908190036103125760005260126020526060604060002080549060ff600260018301549201541690604051928352602083015215156040820152f35b3461031257610180366003190112610312576064356004356024356044353660c411610312576101449136831161031257366101841161031257836000526020916003835260406000209360ff600d8601541615610c18576005808601544211611398578660005260058552604060002088600052855260ff604060002054166113865782156124b25760405161229f8161293a565b888152848682015287604082015283606082015260078701546080820152604051926334baeab960e01b845260406084600486013760c46000604486015b6002821061249c5750505060409060c485013760009061010484015b878484106124885793508492506101a491508290507f00000000000000000000000000000000000000000000000000000000000000006001600160a01b03165afa908115610b915760009161246b575b501561131757846000526005835260406000208660005283526040600020600160ff198254161790556040519260e08401938085106001600160401b038611176102fc577f049e5146cbefb4fff5586b703de455cb45794712230253d13f2d8c57da85a32395612453600b9260068a866124378e60409c8d528b86528286018b81528d87018281526060880191428352608089019360008552600460a08b01976000895260c08c019960018b52600052526040600020906000528d528f60002098518955516001890155516002880155516003870155511515600486019060ff801983541691151516179055565b51600584015551151591019060ff801983541691151516179055565b0161245e8154612a56565b90558351928352820152a3005b6124829150843d86116112cc576112be8183612955565b87612349565b8060019284518152019201920191906122f9565b60408082818660019537019301910190916122dd565b6040516343c891cf60e11b8152600490fd5b34610312576124d236612781565b90600052600c60205260406000209060005260205261010060406000208054906001810154906002810154600382015460048301549060ff6005850154169260ff6007600687015496015416956040519788526020880152604087015260608601526080850152151560a084015260c0830152151560e0820152f35b34610312576000366003190112610312576020600854604051908152f35b34610312576020366003190112610312576004356000526011602052602060ff604060002054166040519015158152f35b3461031257608036600319011261031257600435602435906044358160005260206003815260406000209160048252604060002085600052825260406000209160ff600d8501541615610c18576005840154421115610c065760068401544211610c065760ff60068401541615610bf4576004830160ff815416610be25760028311610bd057604051906126308261291f565b83825261266a8360018701938454828201528960408201526064356060820152604051809381926321c2736360e21b835260048301612a1b565b038173__$0daf1669a85ce10529e05b8a030b9567e1$__5af4908115610b9157600091612739575b50855403610b51577f48b18ffd0d20ac6e0c916dc382bdea3de3108e2b71d66318ff2bdc7aa10a562895846005604097600c94600160ff1982541617905501556001851460001461270b5782546126ee60088301918254612a49565b90555b016126fc8154612a56565b905554908351928352820152a3005b8461272857825461272160098301918254612a49565b90556126f1565b8254612721600a8301918254612a49565b90508381813d831161275f575b6127508183612955565b81010312610312575189612692565b503d612746565b34610312576000366003190112610312576020906002548152f35b6040906003190112610312576004359060243590565b600854811015610df15760086000527ff3f7a9fe364faab93b216da50a3214154f22a0a2b415b23a84c8169e8b636ee30190600090565b8054821015610df15760005260206000200190600090565b602090602060408183019282815285518094520193019160005b82811061280e575050505090565b835185529381019392810192600101612800565b919082519283825260005b84811061284e575050826000602080949584010152601f8019910116010190565b60208183018101518483018201520161282d565b9181601f84011215610312578235916001600160401b038311610312576020838186019501011161031257565b60a0600319820112610312576001600160401b039160043583811161031257826128bb91600401612862565b93909392602435918211610312576128d591600401612862565b9091604435906064359060843590565b90600182811c92168015612915575b60208310146128ff57565b634e487b7160e01b600052602260045260246000fd5b91607f16916128f4565b608081019081106001600160401b038211176102fc57604052565b60a081019081106001600160401b038211176102fc57604052565b90601f801991011681019081106001600160401b038211176102fc57604052565b90604051918260008254612989816128e5565b908184526020946001916001811690816000146129f957506001146129ba575b5050506129b892500383612955565b565b600090815285812095935091905b8183106129e15750506129b893508201013880806129a9565b855488840185015294850194879450918301916129c8565b925050506129b894925060ff191682840152151560051b8201013880806129a9565b6080810192916000915b60048310612a3257505050565b600190825181526020809101920192019190612a25565b9190820180921161125357565b60001981146112535760010190565b90816020910312610312575180151581036103125790565b600754600160401b8110156102fc576001810180600755811015610df15760076000527fa66cc928b5edb82af9bd49922954155ab7b0942694bea4ce44661d9a8736c6880155565b90815491600160401b8310156102fc5782612ae89160016129b8950181556127ce565b90919082549060031b91821b91600019901b1916179055565b90600091808352601160205260408320805460ff8116612bbf5760ff19166001179055601054600160401b811015612bab576001810180601055811015612b97576010829394527f1b6847dc741a1b0cd08d278845f9d819d87b734759afb55fe2de5cb82a9ae67201557f1926a241ba9d59467ac0063e2cb861452b93ab650fff5378a82e86befecc27ab6020604051428152a2565b634e487b7160e01b84526032600452602484fd5b634e487b7160e01b84526041600452602484fd5b5050509050565b9291926001600160401b0382116102fc5760405191612bef601f8201601f191660200184612955565b829481845281830111610312578281602093846000960137010152565b818110612c17575050565b60008155600101612c0c565b918060a0916060959897969360808652816080870152838601376000828286010152601f801991011683010195602083015260408201520152565b8181029291811591840414171561125357565b600052600b602052604060002060ff600e8201541615610c18576005810154421115612cac5760060154421115612ca757600290565b600190565b50600090565b8060005260096020526040600020805460ff8116612d225760ff19166001179055600854600160401b8110156102fc5781612ae8826001612cf69401600855612797565b7f85238313f6b4aa1ea470340fc24bc06d68e734cd21411160c06714eb547571af6020604051428152a2565b50505056fea264697066735822122076e5bb1c4df17c44552f892d971f711cde956f9e032914187993743a0870118264736f6c63430008180033","opcodes":"PUSH1 0xE0 CALLVALUE PUSH3 0xF6 JUMPI PUSH1 0x1F PUSH3 0x2E84 CODESIZE DUP2 SWAP1 SUB SWAP2 DUP3 ADD PUSH1 0x1F NOT AND DUP4 ADD SWAP2 PUSH1 0x1 PUSH1 0x1 PUSH1 0x40 SHL SUB DUP4 GT DUP5 DUP5 LT OR PUSH3 0xFB JUMPI DUP1 DUP5 SWAP3 PUSH1 0x80 SWAP5 PUSH1 0x40 MSTORE DUP4 CODECOPY DUP2 ADD SUB SLT PUSH3 0xF6 JUMPI PUSH3 0x4D DUP2 PUSH3 0x111 JUMP JUMPDEST SWAP1 PUSH3 0x5C PUSH1 0x20 DUP3 ADD PUSH3 0x111 JUMP JUMPDEST SWAP2 PUSH3 0x79 PUSH1 0x60 PUSH3 0x71 PUSH1 0x40 DUP6 ADD PUSH3 0x111 JUMP JUMPDEST SWAP4 ADD PUSH3 0x111 JUMP JUMPDEST PUSH1 0x1 PUSH1 0x1 PUSH1 0xA0 SHL SUB SWAP2 DUP3 AND PUSH1 0x80 MSTORE SWAP3 DUP2 AND PUSH1 0xA0 MSTORE SWAP1 DUP2 AND PUSH1 0xC0 MSTORE PUSH1 0x0 DUP1 SLOAD PUSH1 0x1 PUSH1 0x1 PUSH1 0xA0 SHL SUB NOT AND SWAP2 SWAP1 SWAP3 AND OR SWAP1 SSTORE PUSH1 0x40 MLOAD PUSH2 0x2D5D SWAP1 DUP2 PUSH3 0x127 DUP3 CODECOPY PUSH1 0x80 MLOAD DUP2 DUP2 DUP2 PUSH2 0x34B ADD MSTORE PUSH2 0x2310 ADD MSTORE PUSH1 0xA0 MLOAD DUP2 DUP2 DUP2 PUSH2 0xF4C ADD MSTORE PUSH2 0x1870 ADD MSTORE PUSH1 0xC0 MLOAD DUP2 DUP2 DUP2 PUSH2 0xFCB ADD MSTORE DUP2 DUP2 PUSH2 0x105E ADD MSTORE DUP2 DUP2 PUSH2 0x1563 ADD MSTORE PUSH2 0x1932 ADD MSTORE RETURN JUMPDEST PUSH1 0x0 DUP1 REVERT JUMPDEST PUSH4 0x4E487B71 PUSH1 0xE0 SHL PUSH1 0x0 MSTORE PUSH1 0x41 PUSH1 0x4 MSTORE PUSH1 0x24 PUSH1 0x0 REVERT JUMPDEST MLOAD SWAP1 PUSH1 0x1 PUSH1 0x1 PUSH1 0xA0 SHL SUB DUP3 AND DUP3 SUB PUSH3 0xF6 JUMPI JUMP INVALID PUSH1 0x80 DUP1 PUSH1 0x40 MSTORE PUSH1 0x4 CALLDATASIZE LT ISZERO PUSH2 0x13 JUMPI PUSH1 0x0 DUP1 REVERT JUMPDEST PUSH1 0x0 CALLDATALOAD PUSH1 0xE0 SHR SWAP1 DUP2 PUSH4 0x3A229F7 EQ PUSH2 0x2766 JUMPI POP DUP1 PUSH4 0x572C801 EQ PUSH2 0x259D JUMPI DUP1 PUSH4 0xD70ECE8 EQ PUSH2 0x256C JUMPI DUP1 PUSH4 0x11174A29 EQ PUSH2 0x254E JUMPI DUP1 PUSH4 0x13703E66 EQ PUSH2 0x24C4 JUMPI DUP1 PUSH4 0x18DBEB4C EQ PUSH2 0x2209 JUMPI DUP1 PUSH4 0x20BABB92 EQ PUSH2 0x21AF JUMPI DUP1 PUSH4 0x2436E06B EQ PUSH2 0x2186 JUMPI DUP1 PUSH4 0x2BBE44FD EQ PUSH2 0x216A JUMPI DUP1 PUSH4 0x2BC4A6E7 EQ PUSH2 0x20EF JUMPI DUP1 PUSH4 0x2C5317C0 EQ PUSH2 0x20B0 JUMPI DUP1 PUSH4 0x315401C0 EQ PUSH2 0x1F94 JUMPI DUP1 PUSH4 0x417E70C8 EQ PUSH2 0x473 JUMPI DUP1 PUSH4 0x4275E031 EQ PUSH2 0x1F16 JUMPI DUP1 PUSH4 0x4A9284FB EQ PUSH2 0xE07 JUMPI DUP1 PUSH4 0x4D09B49F EQ PUSH2 0x1AC7 JUMPI DUP1 PUSH4 0x52A48C56 EQ PUSH2 0x1A37 JUMPI DUP1 PUSH4 0x5938862F EQ PUSH2 0x19FF JUMPI DUP1 PUSH4 0x61D027B3 EQ PUSH2 0x19D6 JUMPI DUP1 PUSH4 0x697AA8E8 EQ PUSH2 0x19B9 JUMPI DUP1 PUSH4 0x6D3CBA61 EQ PUSH2 0x1988 JUMPI DUP1 PUSH4 0x74DD0FEA EQ PUSH2 0x1961 JUMPI DUP1 PUSH4 0x781A4852 EQ PUSH2 0x191C JUMPI DUP1 PUSH4 0x833722C5 EQ PUSH2 0x18E4 JUMPI DUP1 PUSH4 0x850099CD EQ PUSH2 0x18BB JUMPI DUP1 PUSH4 0x8EA7A274 EQ PUSH2 0x189F JUMPI DUP1 PUSH4 0x94FFE6A0 EQ PUSH2 0x185A JUMPI DUP1 PUSH4 0x974F7AA3 EQ PUSH2 0x1809 JUMPI DUP1 PUSH4 0xA13F2F8D EQ PUSH2 0x17ED JUMPI DUP1 PUSH4 0xA1C7574A EQ PUSH2 0x1762 JUMPI DUP1 PUSH4 0xA329B313 EQ PUSH2 0x1711 JUMPI DUP1 PUSH4 0xA4CAE8F8 EQ PUSH2 0x16AF JUMPI DUP1 PUSH4 0xAA609848 EQ PUSH2 0x15D4 JUMPI DUP1 PUSH4 0xB065A8E5 EQ PUSH2 0x151F JUMPI DUP1 PUSH4 0xB4E0D6AF EQ PUSH2 0x1417 JUMPI DUP1 PUSH4 0xB5770C33 EQ PUSH2 0x13FB JUMPI DUP1 PUSH4 0xB5AD9215 EQ PUSH2 0x13AA JUMPI DUP1 PUSH4 0xBADBC2ED EQ PUSH2 0xE38 JUMPI DUP1 PUSH4 0xCB1BB033 EQ PUSH2 0xE07 JUMPI DUP1 PUSH4 0xD5444336 EQ PUSH2 0xD50 JUMPI DUP1 PUSH4 0xD54BB70B EQ PUSH2 0xC2A JUMPI DUP1 PUSH4 0xD55D533E EQ PUSH2 0x94C JUMPI DUP1 PUSH4 0xD90292A3 EQ PUSH2 0x930 JUMPI DUP1 PUSH4 0xDB5BD601 EQ PUSH2 0x4A4 JUMPI DUP1 PUSH4 0xEF3A2B39 EQ PUSH2 0x473 JUMPI DUP1 PUSH4 0xF025D082 EQ PUSH2 0x37A JUMPI DUP1 PUSH4 0xF58789AE EQ PUSH2 0x335 JUMPI DUP1 PUSH4 0xF9058741 EQ PUSH2 0x317 JUMPI PUSH4 0xFB9607D3 EQ PUSH2 0x23A JUMPI PUSH1 0x0 DUP1 REVERT JUMPDEST CALLVALUE PUSH2 0x312 JUMPI PUSH1 0x0 CALLDATASIZE PUSH1 0x3 NOT ADD SLT PUSH2 0x312 JUMPI CALLER PUSH1 0x0 MSTORE PUSH1 0x12 PUSH1 0x20 MSTORE PUSH1 0xFF PUSH1 0x2 PUSH1 0x40 PUSH1 0x0 KECCAK256 ADD SLOAD AND ISZERO PUSH2 0x267 JUMPI STOP JUMPDEST PUSH1 0x40 MLOAD PUSH1 0x60 DUP2 ADD DUP2 DUP2 LT PUSH1 0x1 PUSH1 0x1 PUSH1 0x40 SHL SUB DUP3 GT OR PUSH2 0x2FC JUMPI PUSH1 0x40 MSTORE PUSH2 0x2CE PUSH2 0x2710 SWAP2 DUP3 DUP2 MSTORE PUSH1 0x2 PUSH1 0x20 DUP3 ADD PUSH1 0x0 DUP2 MSTORE PUSH1 0x40 DUP4 ADD SWAP1 PUSH1 0x1 DUP3 MSTORE CALLER PUSH1 0x0 MSTORE PUSH1 0x12 PUSH1 0x20 MSTORE PUSH1 0x40 PUSH1 0x0 KECCAK256 SWAP4 MLOAD DUP5 SSTORE MLOAD PUSH1 0x1 DUP5 ADD SSTORE MLOAD ISZERO ISZERO SWAP2 ADD SWAP1 PUSH1 0xFF DUP1 NOT DUP4 SLOAD AND SWAP2 ISZERO ISZERO AND OR SWAP1 SSTORE JUMP JUMPDEST PUSH1 0x40 MLOAD SWAP1 DUP2 MSTORE PUSH32 0x840108F8F5F45D25A166719FA7440C37016845A955726B639E64FB325F731007 PUSH1 0x20 CALLER SWAP3 LOG2 STOP JUMPDEST PUSH4 0x4E487B71 PUSH1 0xE0 SHL PUSH1 0x0 MSTORE PUSH1 0x41 PUSH1 0x4 MSTORE PUSH1 0x24 PUSH1 0x0 REVERT JUMPDEST PUSH1 0x0 DUP1 REVERT JUMPDEST CALLVALUE PUSH2 0x312 JUMPI PUSH1 0x0 CALLDATASIZE PUSH1 0x3 NOT ADD SLT PUSH2 0x312 JUMPI PUSH1 0x20 PUSH1 0x1 SLOAD PUSH1 0x40 MLOAD SWAP1 DUP2 MSTORE RETURN JUMPDEST CALLVALUE PUSH2 0x312 JUMPI PUSH1 0x0 CALLDATASIZE PUSH1 0x3 NOT ADD SLT PUSH2 0x312 JUMPI PUSH1 0x40 MLOAD PUSH32 0x0 PUSH1 0x1 PUSH1 0x1 PUSH1 0xA0 SHL SUB AND DUP2 MSTORE PUSH1 0x20 SWAP1 RETURN JUMPDEST CALLVALUE PUSH2 0x312 JUMPI PUSH1 0x20 CALLDATASIZE PUSH1 0x3 NOT ADD SLT PUSH2 0x312 JUMPI PUSH1 0x4 CALLDATALOAD PUSH1 0x0 MSTORE PUSH1 0x3 PUSH1 0x20 MSTORE PUSH1 0x40 PUSH1 0x0 KECCAK256 DUP1 SLOAD PUSH1 0x1 DUP3 ADD PUSH2 0x3AA SWAP1 PUSH2 0x2976 JUMP JUMPDEST SWAP2 PUSH2 0x3B7 PUSH1 0x2 DUP3 ADD PUSH2 0x2976 JUMP JUMPDEST PUSH1 0x1 PUSH1 0xA0 SHL PUSH1 0x1 SWAP1 SUB PUSH1 0x3 DUP4 ADD SLOAD AND SWAP2 PUSH1 0x4 DUP2 ADD SLOAD PUSH1 0x5 DUP3 ADD SLOAD PUSH1 0x6 DUP4 ADD SLOAD PUSH1 0x7 DUP5 ADD SLOAD PUSH1 0x8 DUP6 ADD SLOAD SWAP1 PUSH1 0x9 DUP7 ADD SLOAD SWAP3 PUSH1 0xA DUP8 ADD SLOAD SWAP5 PUSH1 0xB DUP9 ADD SLOAD SWAP7 PUSH1 0xC DUP10 ADD SLOAD SWAP9 PUSH1 0xD ADD SLOAD PUSH1 0xFF AND SWAP10 PUSH1 0x40 MLOAD SWAP14 DUP15 SWAP14 DUP15 PUSH2 0x1C0 SWAP2 DUP2 MSTORE DUP2 PUSH1 0x20 DUP3 ADD MSTORE ADD PUSH2 0x41E SWAP2 PUSH2 0x2822 JUMP JUMPDEST DUP14 DUP2 SUB PUSH1 0x40 DUP16 ADD MSTORE PUSH2 0x42F SWAP2 PUSH2 0x2822 JUMP JUMPDEST SWAP11 PUSH1 0x60 DUP14 ADD MSTORE PUSH1 0x80 DUP13 ADD MSTORE PUSH1 0xA0 DUP12 ADD MSTORE PUSH1 0xC0 DUP11 ADD MSTORE PUSH1 0xE0 DUP10 ADD MSTORE PUSH2 0x100 DUP9 ADD MSTORE PUSH2 0x120 DUP8 ADD MSTORE PUSH2 0x140 DUP7 ADD MSTORE PUSH2 0x160 DUP6 ADD MSTORE PUSH2 0x180 DUP5 ADD MSTORE ISZERO ISZERO PUSH2 0x1A0 DUP4 ADD MSTORE SUB SWAP1 RETURN JUMPDEST CALLVALUE PUSH2 0x312 JUMPI PUSH1 0x20 CALLDATASIZE PUSH1 0x3 NOT ADD SLT PUSH2 0x312 JUMPI PUSH1 0x4 CALLDATALOAD PUSH1 0x0 MSTORE PUSH1 0xE PUSH1 0x20 MSTORE PUSH1 0x20 PUSH1 0xFF PUSH1 0x40 PUSH1 0x0 KECCAK256 SLOAD AND PUSH1 0x40 MLOAD SWAP1 ISZERO ISZERO DUP2 MSTORE RETURN JUMPDEST CALLVALUE PUSH2 0x312 JUMPI PUSH2 0x4B2 CALLDATASIZE PUSH2 0x288F JUMP JUMPDEST SWAP3 SWAP5 DUP3 PUSH1 0x0 SWAP8 SWAP6 SWAP8 SWAP4 SWAP3 SWAP4 MSTORE PUSH1 0xE PUSH1 0x20 MSTORE PUSH1 0xFF PUSH1 0x40 PUSH1 0x0 KECCAK256 SLOAD AND ISZERO PUSH2 0x91E JUMPI PUSH2 0x4DC PUSH1 0x2 SLOAD PUSH2 0x2A56 JUMP JUMPDEST SWAP6 DUP7 PUSH1 0x2 SSTORE PUSH2 0x4EB DUP5 TIMESTAMP PUSH2 0x2A49 JUMP JUMPDEST PUSH2 0x4FE DUP7 PUSH2 0x4F9 DUP8 TIMESTAMP PUSH2 0x2A49 JUMP JUMPDEST PUSH2 0x2A49 JUMP JUMPDEST SWAP2 PUSH1 0x40 MLOAD SWAP10 DUP11 PUSH2 0x1E0 DUP2 ADD LT PUSH1 0x1 PUSH1 0x1 PUSH1 0x40 SHL SUB PUSH2 0x1E0 DUP14 ADD GT OR PUSH2 0x2FC JUMPI PUSH2 0x543 SWAP2 PUSH2 0x1E0 DUP13 ADD PUSH1 0x40 MSTORE DUP11 DUP13 MSTORE PUSH2 0x537 CALLDATASIZE DUP8 DUP13 PUSH2 0x2BC6 JUMP JUMPDEST PUSH1 0x20 DUP14 ADD MSTORE CALLDATASIZE SWAP2 PUSH2 0x2BC6 JUMP JUMPDEST PUSH1 0x40 DUP11 ADD MSTORE CALLER PUSH1 0x60 DUP11 ADD MSTORE TIMESTAMP PUSH1 0x80 DUP11 ADD MSTORE PUSH1 0xA0 DUP10 ADD MSTORE PUSH1 0xC0 DUP9 ADD MSTORE DUP2 PUSH1 0xE0 DUP9 ADD MSTORE PUSH1 0x0 PUSH2 0x100 DUP9 ADD MSTORE PUSH1 0x0 PUSH2 0x120 DUP9 ADD MSTORE PUSH1 0x0 PUSH2 0x140 DUP9 ADD MSTORE PUSH1 0x0 PUSH2 0x160 DUP9 ADD MSTORE PUSH1 0x0 PUSH2 0x180 DUP9 ADD MSTORE PUSH1 0x0 PUSH2 0x1A0 DUP9 ADD MSTORE PUSH1 0x1 PUSH2 0x1C0 DUP9 ADD MSTORE DUP6 PUSH1 0x0 MSTORE PUSH1 0xB PUSH1 0x20 MSTORE PUSH1 0x40 PUSH1 0x0 KECCAK256 SWAP3 DUP8 MLOAD DUP5 SSTORE PUSH1 0x20 DUP9 ADD MLOAD DUP1 MLOAD SWAP1 PUSH1 0x1 PUSH1 0x1 PUSH1 0x40 SHL SUB DUP3 GT PUSH2 0x2FC JUMPI DUP2 SWAP1 PUSH2 0x5D4 PUSH1 0x1 DUP9 ADD SLOAD PUSH2 0x28E5 JUMP JUMPDEST PUSH1 0x1F DUP2 GT PUSH2 0x8E9 JUMPI JUMPDEST POP PUSH1 0x20 SWAP1 PUSH1 0x1F DUP4 GT PUSH1 0x1 EQ PUSH2 0x877 JUMPI PUSH1 0x0 SWAP3 PUSH2 0x86C JUMPI JUMPDEST POP POP DUP2 PUSH1 0x1 SHL SWAP2 PUSH1 0x0 NOT SWAP1 PUSH1 0x3 SHL SHR NOT AND OR PUSH1 0x1 DUP6 ADD SSTORE JUMPDEST PUSH1 0x40 DUP9 ADD MLOAD SWAP4 DUP5 MLOAD SWAP9 PUSH1 0x1 PUSH1 0x1 PUSH1 0x40 SHL SUB DUP11 GT PUSH2 0x2FC JUMPI PUSH1 0x20 SWAP10 DUP10 SWAP7 PUSH2 0x635 PUSH1 0x2 DUP6 ADD SLOAD PUSH2 0x28E5 JUMP JUMPDEST PUSH1 0x1F DUP2 GT PUSH2 0x82E JUMPI JUMPDEST POP DUP12 SWAP1 PUSH1 0x1F DUP4 GT PUSH1 0x1 EQ PUSH2 0x785 JUMPI SWAP4 PUSH1 0xE PUSH2 0x1C0 PUSH2 0x760 SWAP6 DUP6 PUSH32 0x4742CE2D5F823DBDE60D41925BFF9B938299879EBA7F67FA0029C8633D92B654 SWAP13 SWAP14 SWAP7 PUSH2 0x74C SWAP7 PUSH2 0x76F SWAP12 SWAP11 PUSH1 0x0 SWAP3 PUSH2 0x77A JUMPI JUMPDEST POP POP DUP2 PUSH1 0x1 SHL SWAP2 PUSH1 0x0 NOT SWAP1 PUSH1 0x3 SHL SHR NOT AND OR PUSH1 0x2 DUP6 ADD SSTORE JUMPDEST PUSH1 0x3 DUP5 ADD PUSH1 0x1 DUP1 PUSH1 0xA0 SHL SUB PUSH1 0x60 DUP4 ADD MLOAD AND PUSH12 0xFFFFFFFFFFFFFFFFFFFFFFFF PUSH1 0xA0 SHL DUP3 SLOAD AND OR SWAP1 SSTORE PUSH1 0x80 DUP2 ADD MLOAD PUSH1 0x4 DUP6 ADD SSTORE PUSH1 0xA0 DUP2 ADD MLOAD PUSH1 0x5 DUP6 ADD SSTORE PUSH1 0xC0 DUP2 ADD MLOAD PUSH1 0x6 DUP6 ADD SSTORE PUSH1 0xE0 DUP2 ADD MLOAD PUSH1 0x7 DUP6 ADD SSTORE PUSH2 0x100 DUP2 ADD MLOAD PUSH1 0x8 DUP6 ADD SSTORE PUSH2 0x120 DUP2 ADD MLOAD PUSH1 0x9 DUP6 ADD SSTORE PUSH2 0x140 DUP2 ADD MLOAD PUSH1 0xA DUP6 ADD SSTORE PUSH2 0x160 DUP2 ADD MLOAD PUSH1 0xB DUP6 ADD SSTORE PUSH2 0x180 DUP2 ADD MLOAD PUSH1 0xC DUP6 ADD SSTORE PUSH2 0x1A0 DUP2 ADD MLOAD PUSH1 0xD DUP6 ADD SSTORE ADD MLOAD ISZERO ISZERO SWAP2 ADD SWAP1 PUSH1 0xFF DUP1 NOT DUP4 SLOAD AND SWAP2 ISZERO ISZERO AND OR SWAP1 SSTORE JUMP JUMPDEST PUSH2 0x4F9 PUSH2 0x759 DUP5 TIMESTAMP PUSH2 0x2A49 JUMP JUMPDEST SWAP4 TIMESTAMP PUSH2 0x2A49 JUMP JUMPDEST SWAP1 PUSH1 0x40 MLOAD SWAP5 DUP6 SWAP5 CALLER SWAP10 DUP7 PUSH2 0x2C23 JUMP JUMPDEST SUB SWAP1 LOG3 PUSH1 0x40 MLOAD SWAP1 DUP2 MSTORE RETURN JUMPDEST ADD MLOAD SWAP1 POP CODESIZE DUP1 PUSH2 0x68C JUMP JUMPDEST PUSH1 0x2 DUP6 SWAP5 SWAP4 SWAP3 SWAP11 SWAP6 ADD PUSH1 0x0 MSTORE DUP13 PUSH1 0x0 KECCAK256 SWAP1 PUSH1 0x0 JUMPDEST PUSH1 0x1F NOT DUP5 AND DUP2 LT PUSH2 0x814 JUMPI POP PUSH2 0x1C0 PUSH2 0x76F SWAP8 SWAP7 SWAP5 PUSH1 0x1 DUP6 PUSH2 0x760 SWAP9 SWAP6 PUSH32 0x4742CE2D5F823DBDE60D41925BFF9B938299879EBA7F67FA0029C8633D92B654 SWAP15 SWAP16 PUSH1 0xE SWAP7 PUSH2 0x74C SWAP10 PUSH1 0x1F NOT DUP2 AND LT PUSH2 0x7FB JUMPI JUMPDEST POP POP POP DUP2 SHL ADD PUSH1 0x2 DUP6 ADD SSTORE PUSH2 0x6A4 JUMP JUMPDEST ADD MLOAD PUSH1 0x0 NOT PUSH1 0xF8 DUP5 PUSH1 0x3 SHL AND SHR NOT AND SWAP1 SSTORE CODESIZE DUP1 DUP1 PUSH2 0x7EB JUMP JUMPDEST DUP2 DUP13 ADD MLOAD DUP4 SSTORE SWAP11 DUP15 ADD SWAP11 DUP14 SWAP11 POP PUSH1 0x1 SWAP1 SWAP3 ADD SWAP2 DUP15 ADD PUSH2 0x799 JUMP JUMPDEST PUSH2 0x85C SWAP1 PUSH1 0x2 DUP7 ADD PUSH1 0x0 MSTORE DUP14 PUSH1 0x0 KECCAK256 PUSH1 0x1F DUP6 ADD PUSH1 0x5 SHR DUP2 ADD SWAP2 DUP16 DUP7 LT PUSH2 0x862 JUMPI JUMPDEST PUSH1 0x1F ADD PUSH1 0x5 SHR ADD SWAP1 PUSH2 0x2C0C JUMP JUMPDEST DUP13 PUSH2 0x63E JUMP JUMPDEST SWAP1 SWAP2 POP DUP2 SWAP1 PUSH2 0x84F JUMP JUMPDEST ADD MLOAD SWAP1 POP DUP11 DUP1 PUSH2 0x5F4 JUMP JUMPDEST SWAP3 POP PUSH1 0x1 DUP8 ADD PUSH1 0x0 MSTORE PUSH1 0x20 PUSH1 0x0 KECCAK256 SWAP1 PUSH1 0x0 SWAP4 JUMPDEST PUSH1 0x1F NOT DUP5 AND DUP6 LT PUSH2 0x8CE JUMPI PUSH1 0x1 SWAP5 POP DUP4 PUSH1 0x1F NOT DUP2 AND LT PUSH2 0x8B5 JUMPI JUMPDEST POP POP POP DUP2 SHL ADD PUSH1 0x1 DUP6 ADD SSTORE PUSH2 0x60C JUMP JUMPDEST ADD MLOAD PUSH1 0x0 NOT PUSH1 0xF8 DUP5 PUSH1 0x3 SHL AND SHR NOT AND SWAP1 SSTORE DUP11 DUP1 DUP1 PUSH2 0x8A5 JUMP JUMPDEST DUP2 DUP2 ADD MLOAD DUP4 SSTORE PUSH1 0x20 SWAP5 DUP6 ADD SWAP5 PUSH1 0x1 SWAP1 SWAP4 ADD SWAP3 SWAP1 SWAP2 ADD SWAP1 PUSH2 0x88A JUMP JUMPDEST PUSH2 0x918 SWAP1 PUSH1 0x1 DUP10 ADD PUSH1 0x0 MSTORE PUSH1 0x20 PUSH1 0x0 KECCAK256 PUSH1 0x1F DUP6 ADD PUSH1 0x5 SHR DUP2 ADD SWAP2 PUSH1 0x20 DUP7 LT PUSH2 0x862 JUMPI PUSH1 0x1F ADD PUSH1 0x5 SHR ADD SWAP1 PUSH2 0x2C0C JUMP JUMPDEST DUP12 PUSH2 0x5DD JUMP JUMPDEST PUSH1 0x40 MLOAD PUSH4 0x33981055 PUSH1 0xE0 SHL DUP2 MSTORE PUSH1 0x4 SWAP1 REVERT JUMPDEST CALLVALUE PUSH2 0x312 JUMPI PUSH1 0x0 CALLDATASIZE PUSH1 0x3 NOT ADD SLT PUSH2 0x312 JUMPI PUSH1 0x20 PUSH1 0x40 MLOAD PUSH1 0x2 DUP2 MSTORE RETURN JUMPDEST CALLVALUE PUSH2 0x312 JUMPI PUSH1 0xA0 CALLDATASIZE PUSH1 0x3 NOT ADD SLT PUSH2 0x312 JUMPI PUSH1 0x4 CALLDATALOAD PUSH1 0x24 CALLDATALOAD SWAP1 PUSH1 0x44 CALLDATALOAD PUSH1 0x64 CALLDATALOAD DUP3 PUSH1 0x0 MSTORE PUSH1 0x20 SWAP2 PUSH1 0xB DUP4 MSTORE PUSH1 0x40 PUSH1 0x0 KECCAK256 SWAP3 PUSH1 0xC DUP2 MSTORE PUSH1 0x40 PUSH1 0x0 KECCAK256 DUP7 PUSH1 0x0 MSTORE DUP2 MSTORE PUSH1 0x40 PUSH1 0x0 KECCAK256 SWAP1 PUSH1 0xFF PUSH1 0xE DUP7 ADD SLOAD AND ISZERO PUSH2 0xC18 JUMPI PUSH1 0x5 DUP6 ADD SLOAD TIMESTAMP GT ISZERO PUSH2 0xC06 JUMPI PUSH1 0x6 DUP6 ADD SLOAD TIMESTAMP GT PUSH2 0xC06 JUMPI PUSH1 0xFF PUSH1 0x7 DUP4 ADD SLOAD AND ISZERO PUSH2 0xBF4 JUMPI PUSH1 0x5 DUP3 ADD PUSH1 0xFF DUP2 SLOAD AND PUSH2 0xBE2 JUMPI PUSH1 0x2 DUP5 GT PUSH2 0xBD0 JUMPI PUSH1 0x40 MLOAD SWAP2 PUSH20 0x0 PUSH2 0x9F8 DUP5 PUSH2 0x291F JUMP JUMPDEST DUP6 DUP5 MSTORE DUP7 DUP3 DUP6 ADD MSTORE PUSH1 0x1 DUP6 ADD SWAP4 DUP5 SLOAD PUSH1 0x40 DUP3 ADD MSTORE DUP10 PUSH1 0x60 DUP3 ADD MSTORE PUSH1 0x40 MLOAD SWAP1 DUP4 DUP3 DUP1 PUSH2 0xA31 PUSH4 0x21C27363 PUSH1 0xE2 SHL SWAP5 DUP6 DUP4 MSTORE PUSH1 0x4 DUP4 ADD PUSH2 0x2A1B JUMP JUMPDEST SUB DUP2 DUP7 GAS DELEGATECALL SWAP1 DUP2 ISZERO PUSH2 0xB91 JUMPI DUP5 SWAP3 PUSH1 0x0 SWAP3 PUSH2 0xB9D JUMPI JUMPDEST POP SWAP3 PUSH2 0xA85 SWAP4 PUSH1 0x40 MLOAD SWAP3 PUSH2 0xA5A DUP5 PUSH2 0x291F JUMP JUMPDEST DUP4 MSTORE PUSH1 0x84 CALLDATALOAD DUP5 DUP5 ADD MSTORE PUSH1 0x0 PUSH1 0x40 DUP5 ADD MSTORE PUSH1 0x0 PUSH1 0x60 DUP5 ADD MSTORE PUSH1 0x40 MLOAD DUP1 SWAP6 DUP2 SWAP5 DUP3 SWAP4 DUP4 MSTORE PUSH1 0x4 DUP4 ADD PUSH2 0x2A1B JUMP JUMPDEST SUB SWAP2 GAS DELEGATECALL SWAP2 DUP3 ISZERO PUSH2 0xB91 JUMPI PUSH1 0x0 SWAP3 PUSH2 0xB63 JUMPI JUMPDEST POP POP DUP4 SLOAD SUB PUSH2 0xB51 JUMPI PUSH32 0x3C283986862AD16CC4D3240256474E99BFC9DF697A62F7351373CBDEFB3D14F8 SWAP6 DUP5 PUSH1 0x6 PUSH2 0xB22 SWAP6 PUSH1 0xD SWAP5 PUSH1 0x1 PUSH1 0xFF NOT DUP3 SLOAD AND OR SWAP1 SSTORE ADD SSTORE PUSH1 0x1 DUP6 EQ PUSH1 0x0 EQ PUSH2 0xB27 JUMPI PUSH1 0x8 DUP2 ADD PUSH2 0xAF4 DUP8 DUP3 SLOAD PUSH2 0x2A49 JUMP JUMPDEST SWAP1 SSTORE JUMPDEST ADD PUSH2 0xB02 DUP2 SLOAD PUSH2 0x2A56 JUMP JUMPDEST SWAP1 SSTORE SLOAD PUSH1 0x40 MLOAD SWAP4 DUP5 SWAP4 DUP5 PUSH1 0x40 SWAP2 SWAP5 SWAP4 SWAP3 PUSH1 0x60 DUP3 ADD SWAP6 DUP3 MSTORE PUSH1 0x20 DUP3 ADD MSTORE ADD MSTORE JUMP JUMPDEST SUB SWAP1 LOG3 STOP JUMPDEST DUP5 PUSH2 0xB42 JUMPI PUSH1 0x9 DUP2 ADD PUSH2 0xB3B DUP8 DUP3 SLOAD PUSH2 0x2A49 JUMP JUMPDEST SWAP1 SSTORE PUSH2 0xAF7 JUMP JUMPDEST PUSH1 0xA DUP2 ADD PUSH2 0xB3B DUP8 DUP3 SLOAD PUSH2 0x2A49 JUMP JUMPDEST PUSH1 0x40 MLOAD PUSH4 0x9EA6D127 PUSH1 0xE0 SHL DUP2 MSTORE PUSH1 0x4 SWAP1 REVERT JUMPDEST SWAP1 DUP1 SWAP3 POP DUP2 RETURNDATASIZE DUP4 GT PUSH2 0xB8A JUMPI JUMPDEST PUSH2 0xB7A DUP2 DUP4 PUSH2 0x2955 JUMP JUMPDEST DUP2 ADD SUB SLT PUSH2 0x312 JUMPI MLOAD DUP10 DUP1 PUSH2 0xA98 JUMP JUMPDEST POP RETURNDATASIZE PUSH2 0xB70 JUMP JUMPDEST PUSH1 0x40 MLOAD RETURNDATASIZE PUSH1 0x0 DUP3 RETURNDATACOPY RETURNDATASIZE SWAP1 REVERT JUMPDEST DUP4 DUP2 SWAP5 SWAP3 SWAP4 POP RETURNDATASIZE DUP4 GT PUSH2 0xBC9 JUMPI JUMPDEST PUSH2 0xBB5 DUP2 DUP4 PUSH2 0x2955 JUMP JUMPDEST DUP2 ADD SUB SLT PUSH2 0x312 JUMPI SWAP1 MLOAD DUP4 SWAP2 PUSH2 0xA85 PUSH2 0xA47 JUMP JUMPDEST POP RETURNDATASIZE PUSH2 0xBAB JUMP JUMPDEST PUSH1 0x40 MLOAD PUSH4 0x9C454001 PUSH1 0xE0 SHL DUP2 MSTORE PUSH1 0x4 SWAP1 REVERT JUMPDEST PUSH1 0x40 MLOAD PUSH4 0xA89AC151 PUSH1 0xE0 SHL DUP2 MSTORE PUSH1 0x4 SWAP1 REVERT JUMPDEST PUSH1 0x40 MLOAD PUSH4 0x5B341569 PUSH1 0xE1 SHL DUP2 MSTORE PUSH1 0x4 SWAP1 REVERT JUMPDEST PUSH1 0x40 MLOAD PUSH4 0x74683D71 PUSH1 0xE0 SHL DUP2 MSTORE PUSH1 0x4 SWAP1 REVERT JUMPDEST PUSH1 0x40 MLOAD PUSH4 0x635E8737 PUSH1 0xE0 SHL DUP2 MSTORE PUSH1 0x4 SWAP1 REVERT JUMPDEST CALLVALUE PUSH2 0x312 JUMPI PUSH1 0x20 CALLDATASIZE PUSH1 0x3 NOT ADD SLT PUSH2 0x312 JUMPI PUSH1 0x4 CALLDATALOAD PUSH1 0x0 MSTORE PUSH1 0xB PUSH1 0x20 MSTORE PUSH1 0x40 PUSH1 0x0 KECCAK256 PUSH1 0xFF PUSH1 0xE DUP3 ADD SLOAD AND ISZERO PUSH2 0xC18 JUMPI PUSH1 0x5 DUP2 ADD SLOAD TIMESTAMP DUP2 LT PUSH2 0xD35 JUMPI PUSH1 0x0 SWAP1 JUMPDEST DUP3 SLOAD SWAP2 PUSH1 0x1 PUSH1 0xA0 SHL PUSH1 0x1 SWAP1 SUB PUSH1 0x3 DUP6 ADD SLOAD AND SWAP2 PUSH1 0x7 DUP6 ADD SLOAD SWAP1 PUSH1 0x6 DUP7 ADD SLOAD PUSH1 0x8 DUP8 ADD SLOAD PUSH1 0x9 DUP9 ADD SLOAD PUSH1 0xA DUP10 ADD SLOAD SWAP2 PUSH1 0xB DUP11 ADD SLOAD SWAP4 PUSH1 0xC DUP12 ADD SLOAD SWAP6 PUSH1 0xD DUP13 ADD SLOAD SWAP8 PUSH1 0x1 DUP14 ADD PUSH2 0xCB5 SWAP1 PUSH2 0x2976 JUMP JUMPDEST SWAP13 PUSH1 0x2 ADD PUSH2 0xCC2 SWAP1 PUSH2 0x2976 JUMP JUMPDEST PUSH1 0x40 MLOAD SWAP14 DUP15 SWAP14 DUP15 PUSH2 0x1C0 SWAP2 DUP2 MSTORE DUP2 PUSH1 0x20 DUP3 ADD MSTORE ADD PUSH2 0xCDF SWAP2 PUSH2 0x2822 JUMP JUMPDEST DUP14 DUP2 SUB PUSH1 0x40 DUP16 ADD MSTORE PUSH2 0xCF0 SWAP2 PUSH2 0x2822 JUMP JUMPDEST SWAP11 PUSH1 0x60 DUP14 ADD MSTORE PUSH1 0x80 DUP13 ADD MSTORE PUSH1 0xA0 DUP12 ADD MSTORE PUSH1 0xC0 DUP11 ADD MSTORE PUSH1 0xE0 DUP10 ADD MSTORE PUSH2 0x100 DUP9 ADD MSTORE PUSH2 0x120 DUP8 ADD MSTORE PUSH2 0x140 DUP7 ADD MSTORE PUSH2 0x160 DUP6 ADD MSTORE PUSH2 0x180 DUP5 ADD MSTORE PUSH1 0xFF AND PUSH2 0x1A0 DUP4 ADD MSTORE SUB SWAP1 RETURN JUMPDEST PUSH1 0x6 DUP3 ADD SLOAD TIMESTAMP GT PUSH2 0xD48 JUMPI PUSH1 0x1 SWAP1 PUSH2 0xC68 JUMP JUMPDEST PUSH1 0x2 SWAP1 PUSH2 0xC68 JUMP JUMPDEST CALLVALUE PUSH2 0x312 JUMPI PUSH1 0x20 CALLDATASIZE PUSH1 0x3 NOT ADD SLT PUSH2 0x312 JUMPI PUSH1 0x4 CALLDATALOAD DUP1 PUSH1 0x0 MSTORE PUSH1 0xE PUSH1 0x20 MSTORE PUSH1 0x40 PUSH1 0x0 KECCAK256 PUSH1 0x1 PUSH1 0xFF NOT DUP3 SLOAD AND OR SWAP1 SSTORE PUSH1 0xF SLOAD PUSH1 0x1 PUSH1 0x40 SHL DUP2 LT ISZERO PUSH2 0x2FC JUMPI PUSH1 0x1 DUP2 ADD DUP1 PUSH1 0xF SSTORE DUP2 LT ISZERO PUSH2 0xDF1 JUMPI DUP2 SWAP1 PUSH1 0xF PUSH1 0x0 MSTORE PUSH32 0x8D1108E10BCB7C27DDDFC02ED9D693A074039D026CF4EA4240B40F7D581AC802 ADD SSTORE PUSH32 0xC437041ECA78E842FF32DC1036255A23DA98C52B2F3BD3A875923AADB0276B3D PUSH1 0x20 PUSH1 0x40 MLOAD TIMESTAMP DUP2 MSTORE LOG2 STOP JUMPDEST PUSH4 0x4E487B71 PUSH1 0xE0 SHL PUSH1 0x0 MSTORE PUSH1 0x32 PUSH1 0x4 MSTORE PUSH1 0x24 PUSH1 0x0 REVERT JUMPDEST CALLVALUE PUSH2 0x312 JUMPI PUSH1 0x20 CALLDATASIZE PUSH1 0x3 NOT ADD SLT PUSH2 0x312 JUMPI PUSH1 0x4 CALLDATALOAD PUSH1 0x0 MSTORE PUSH1 0x6 PUSH1 0x20 MSTORE PUSH1 0x20 PUSH1 0xFF PUSH1 0x40 PUSH1 0x0 KECCAK256 SLOAD AND PUSH1 0x40 MLOAD SWAP1 ISZERO ISZERO DUP2 MSTORE RETURN JUMPDEST CALLVALUE PUSH2 0x312 JUMPI PUSH2 0x1A0 CALLDATASIZE PUSH1 0x3 NOT ADD SLT PUSH2 0x312 JUMPI CALLDATASIZE PUSH1 0xE4 GT PUSH2 0x312 JUMPI PUSH2 0x164 CALLDATASIZE DUP2 GT PUSH2 0x312 JUMPI CALLDATASIZE PUSH2 0x1A4 GT PUSH2 0x312 JUMPI PUSH1 0x4 CALLDATALOAD PUSH1 0x0 MSTORE PUSH1 0xB PUSH1 0x20 MSTORE PUSH1 0x40 PUSH1 0x0 KECCAK256 SWAP1 PUSH1 0xFF PUSH1 0xE DUP4 ADD SLOAD AND ISZERO PUSH2 0xC18 JUMPI PUSH1 0x5 DUP3 ADD SLOAD TIMESTAMP GT PUSH2 0x1398 JUMPI PUSH1 0x4 CALLDATALOAD PUSH1 0x0 MSTORE PUSH1 0xD PUSH1 0x20 MSTORE PUSH1 0x40 PUSH1 0x0 KECCAK256 PUSH1 0x84 CALLDATALOAD PUSH1 0x0 MSTORE PUSH1 0x20 MSTORE PUSH1 0xFF PUSH1 0x40 PUSH1 0x0 KECCAK256 SLOAD AND PUSH2 0x1386 JUMPI PUSH2 0xEC0 PUSH1 0x44 CALLDATALOAD DUP1 PUSH2 0x2C5E JUMP JUMPDEST PUSH1 0x64 CALLDATALOAD SUB PUSH2 0x1374 JUMPI PUSH1 0x40 MLOAD PUSH2 0xED4 DUP2 PUSH2 0x293A JUMP JUMPDEST PUSH1 0x84 CALLDATALOAD DUP2 MSTORE PUSH1 0x24 CALLDATALOAD PUSH1 0x20 DUP3 ADD MSTORE PUSH1 0x4 CALLDATALOAD PUSH1 0x40 DUP3 ADD MSTORE PUSH1 0x64 CALLDATALOAD PUSH1 0x60 DUP3 ADD MSTORE PUSH1 0x7 DUP4 ADD SLOAD PUSH1 0x80 DUP3 ADD MSTORE PUSH1 0x40 MLOAD SWAP2 PUSH4 0x34BAEAB9 PUSH1 0xE0 SHL DUP4 MSTORE PUSH1 0x40 PUSH1 0xA4 PUSH1 0x4 DUP6 ADD CALLDATACOPY PUSH1 0xE4 PUSH1 0x0 PUSH1 0x44 DUP6 ADD JUMPDEST PUSH1 0x2 DUP3 LT PUSH2 0x135E JUMPI POP POP POP PUSH1 0x40 SWAP1 PUSH1 0xC4 DUP5 ADD CALLDATACOPY PUSH1 0x0 PUSH2 0x104 DUP4 ADD JUMPDEST PUSH1 0x5 DUP3 LT PUSH2 0x1348 JUMPI POP PUSH1 0x20 SWAP2 POP DUP3 SWAP1 POP PUSH2 0x1A4 DUP2 PUSH32 0x0 PUSH1 0x1 PUSH1 0x1 PUSH1 0xA0 SHL SUB AND GAS STATICCALL SWAP1 DUP2 ISZERO PUSH2 0xB91 JUMPI PUSH1 0x0 SWAP2 PUSH2 0x1329 JUMPI JUMPDEST POP ISZERO PUSH2 0x1317 JUMPI PUSH1 0x64 CALLDATALOAD PUSH8 0xDE0B6B3A7640000 PUSH1 0x64 CALLDATALOAD MUL DIV PUSH8 0xDE0B6B3A7640000 EQ PUSH1 0x64 CALLDATALOAD ISZERO OR ISZERO PUSH2 0x1253 JUMPI PUSH1 0x40 MLOAD PUSH4 0x70A08231 PUSH1 0xE0 SHL DUP2 MSTORE CALLER PUSH1 0x4 DUP3 ADD MSTORE PUSH1 0x20 DUP2 PUSH1 0x24 DUP2 PUSH32 0x0 PUSH1 0x1 PUSH1 0x1 PUSH1 0xA0 SHL SUB AND GAS STATICCALL SWAP1 DUP2 ISZERO PUSH2 0xB91 JUMPI PUSH1 0x0 SWAP2 PUSH2 0x12E5 JUMPI JUMPDEST POP PUSH8 0xDE0B6B3A7640000 PUSH1 0x64 CALLDATALOAD MUL DUP2 LT PUSH2 0x12D3 JUMPI PUSH1 0x0 DUP1 SLOAD PUSH1 0x40 MLOAD PUSH4 0x23B872DD PUSH1 0xE0 SHL DUP2 MSTORE CALLER PUSH1 0x4 DUP3 ADD MSTORE PUSH1 0x1 PUSH1 0x1 PUSH1 0xA0 SHL SUB SWAP2 DUP3 AND PUSH1 0x24 DUP3 ADD MSTORE PUSH1 0x64 DUP1 CALLDATALOAD PUSH8 0xDE0B6B3A7640000 MUL PUSH1 0x44 DUP4 ADD MSTORE SWAP1 SWAP3 PUSH1 0x20 SWAP3 DUP5 SWAP3 SWAP2 DUP4 SWAP2 PUSH32 0x0 AND GAS CALL SWAP1 DUP2 ISZERO PUSH2 0xB91 JUMPI PUSH1 0x0 SWAP2 PUSH2 0x12A4 JUMPI JUMPDEST POP ISZERO PUSH2 0x1269 JUMPI PUSH8 0xDE0B6B3A7640000 SWAP1 DIV PUSH1 0x64 CALLDATALOAD DUP2 SUB SWAP1 DUP2 GT PUSH2 0x1253 JUMPI PUSH1 0x40 MLOAD SWAP1 PUSH1 0x64 CALLDATALOAD DUP3 MSTORE PUSH1 0x20 DUP3 ADD MSTORE PUSH32 0x380F4B80AC5D183FF04F143A097611558815196006B7297CAE774C0B5680A5EE PUSH1 0x40 CALLER SWAP3 LOG2 PUSH1 0x4 CALLDATALOAD PUSH1 0x0 MSTORE PUSH1 0xD PUSH1 0x20 MSTORE PUSH1 0x40 PUSH1 0x0 KECCAK256 PUSH1 0x84 CALLDATALOAD PUSH1 0x0 MSTORE PUSH1 0x20 MSTORE PUSH1 0x40 PUSH1 0x0 KECCAK256 PUSH1 0x1 PUSH1 0xFF NOT DUP3 SLOAD AND OR SWAP1 SSTORE PUSH1 0x40 MLOAD SWAP1 PUSH2 0x100 DUP3 ADD DUP3 DUP2 LT PUSH1 0x1 PUSH1 0x1 PUSH1 0x40 SHL SUB DUP3 GT OR PUSH2 0x2FC JUMPI PUSH1 0xB SWAP3 PUSH2 0x11E3 SWAP2 PUSH1 0x40 MSTORE PUSH1 0x24 CALLDATALOAD DUP2 MSTORE PUSH1 0x7 PUSH1 0x20 DUP3 ADD PUSH1 0x64 CALLDATALOAD DUP2 MSTORE PUSH1 0x40 DUP4 ADD PUSH1 0x44 CALLDATALOAD DUP2 MSTORE PUSH2 0x11C7 PUSH1 0x60 DUP6 ADD PUSH1 0x84 CALLDATALOAD DUP2 MSTORE PUSH1 0x80 DUP7 ADD TIMESTAMP DUP2 MSTORE PUSH1 0xA0 DUP8 ADD SWAP2 PUSH1 0x0 DUP4 MSTORE PUSH1 0xC0 DUP9 ADD SWAP5 PUSH1 0x0 DUP7 MSTORE PUSH1 0xE0 DUP10 ADD SWAP7 PUSH1 0x1 DUP9 MSTORE PUSH1 0x4 CALLDATALOAD PUSH1 0x0 MSTORE PUSH1 0xC PUSH1 0x20 MSTORE PUSH1 0x40 PUSH1 0x0 KECCAK256 PUSH1 0x84 CALLDATALOAD PUSH1 0x0 MSTORE PUSH1 0x20 MSTORE PUSH1 0x40 PUSH1 0x0 KECCAK256 SWAP10 MLOAD DUP11 SSTORE MLOAD PUSH1 0x1 DUP11 ADD SSTORE MLOAD PUSH1 0x2 DUP10 ADD SSTORE MLOAD PUSH1 0x3 DUP9 ADD SSTORE MLOAD PUSH1 0x4 DUP8 ADD SSTORE MLOAD ISZERO ISZERO PUSH1 0x5 DUP7 ADD SWAP1 PUSH1 0xFF DUP1 NOT DUP4 SLOAD AND SWAP2 ISZERO ISZERO AND OR SWAP1 SSTORE JUMP JUMPDEST MLOAD PUSH1 0x6 DUP5 ADD SSTORE MLOAD ISZERO ISZERO SWAP2 ADD SWAP1 PUSH1 0xFF DUP1 NOT DUP4 SLOAD AND SWAP2 ISZERO ISZERO AND OR SWAP1 SSTORE JUMP JUMPDEST PUSH1 0xC DUP2 ADD PUSH2 0x11F1 DUP2 SLOAD PUSH2 0x2A56 JUMP JUMPDEST SWAP1 SSTORE ADD PUSH2 0x1201 PUSH1 0x64 CALLDATALOAD DUP3 SLOAD PUSH2 0x2A49 JUMP JUMPDEST SWAP1 SSTORE PUSH1 0x40 MLOAD PUSH1 0x84 CALLDATALOAD SWAP1 PUSH32 0xBCF4FA36949E1955AF2C6B6B628E50DB0E23EC473B26480F3A584DD5A5D8953B PUSH1 0x4 CALLDATALOAD SWAP2 DUP1 PUSH2 0xB22 PUSH1 0x64 CALLDATALOAD PUSH1 0x44 CALLDATALOAD PUSH1 0x24 CALLDATALOAD DUP5 PUSH1 0x40 SWAP2 SWAP5 SWAP4 SWAP3 PUSH1 0x60 DUP3 ADD SWAP6 DUP3 MSTORE PUSH1 0x20 DUP3 ADD MSTORE ADD MSTORE JUMP JUMPDEST PUSH4 0x4E487B71 PUSH1 0xE0 SHL PUSH1 0x0 MSTORE PUSH1 0x11 PUSH1 0x4 MSTORE PUSH1 0x24 PUSH1 0x0 REVERT JUMPDEST PUSH1 0x40 MLOAD PUSH3 0x461BCD PUSH1 0xE5 SHL DUP2 MSTORE PUSH1 0x20 PUSH1 0x4 DUP3 ADD MSTORE PUSH1 0x13 PUSH1 0x24 DUP3 ADD MSTORE PUSH19 0x1513D3881D1C985B9CD9995C8819985A5B1959 PUSH1 0x6A SHL PUSH1 0x44 DUP3 ADD MSTORE PUSH1 0x64 SWAP1 REVERT JUMPDEST PUSH2 0x12C6 SWAP2 POP PUSH1 0x20 RETURNDATASIZE PUSH1 0x20 GT PUSH2 0x12CC JUMPI JUMPDEST PUSH2 0x12BE DUP2 DUP4 PUSH2 0x2955 JUMP JUMPDEST DUP2 ADD SWAP1 PUSH2 0x2A65 JUMP JUMPDEST DUP4 PUSH2 0x108F JUMP JUMPDEST POP RETURNDATASIZE PUSH2 0x12B4 JUMP JUMPDEST PUSH1 0x40 MLOAD PUSH4 0x43FB9453 PUSH1 0xE0 SHL DUP2 MSTORE PUSH1 0x4 SWAP1 REVERT JUMPDEST SWAP1 POP PUSH1 0x20 DUP2 RETURNDATASIZE PUSH1 0x20 GT PUSH2 0x130F JUMPI JUMPDEST DUP2 PUSH2 0x1300 PUSH1 0x20 SWAP4 DUP4 PUSH2 0x2955 JUMP JUMPDEST DUP2 ADD SUB SLT PUSH2 0x312 JUMPI MLOAD DUP3 PUSH2 0x1004 JUMP JUMPDEST RETURNDATASIZE SWAP2 POP PUSH2 0x12F3 JUMP JUMPDEST PUSH1 0x40 MLOAD PUSH4 0x9BDE339 PUSH1 0xE0 SHL DUP2 MSTORE PUSH1 0x4 SWAP1 REVERT JUMPDEST PUSH2 0x1342 SWAP2 POP PUSH1 0x20 RETURNDATASIZE PUSH1 0x20 GT PUSH2 0x12CC JUMPI PUSH2 0x12BE DUP2 DUP4 PUSH2 0x2955 JUMP JUMPDEST DUP3 PUSH2 0xF85 JUMP JUMPDEST PUSH1 0x20 DUP1 PUSH1 0x1 SWAP3 DUP6 MLOAD DUP2 MSTORE ADD SWAP4 ADD SWAP2 ADD SWAP1 SWAP2 PUSH2 0xF36 JUMP JUMPDEST PUSH1 0x40 DUP1 DUP3 DUP2 DUP7 PUSH1 0x1 SWAP6 CALLDATACOPY ADD SWAP4 ADD SWAP2 ADD SWAP1 SWAP2 PUSH2 0xF1B JUMP JUMPDEST PUSH1 0x40 MLOAD PUSH4 0x15252A29 PUSH1 0xE2 SHL DUP2 MSTORE PUSH1 0x4 SWAP1 REVERT JUMPDEST PUSH1 0x40 MLOAD PUSH4 0x65695701 PUSH1 0xE1 SHL DUP2 MSTORE PUSH1 0x4 SWAP1 REVERT JUMPDEST PUSH1 0x40 MLOAD PUSH4 0xABFB7DC3 PUSH1 0xE0 SHL DUP2 MSTORE PUSH1 0x4 SWAP1 REVERT JUMPDEST CALLVALUE PUSH2 0x312 JUMPI PUSH1 0x20 CALLDATASIZE PUSH1 0x3 NOT ADD SLT PUSH2 0x312 JUMPI PUSH1 0x4 CALLDATALOAD PUSH1 0x7 SLOAD DUP2 LT ISZERO PUSH2 0x312 JUMPI PUSH1 0x20 SWAP1 PUSH1 0x7 PUSH1 0x0 MSTORE PUSH32 0xA66CC928B5EDB82AF9BD49922954155AB7B0942694BEA4CE44661D9A8736C688 ADD SLOAD PUSH1 0x40 MLOAD SWAP1 DUP2 MSTORE RETURN JUMPDEST CALLVALUE PUSH2 0x312 JUMPI PUSH1 0x0 CALLDATASIZE PUSH1 0x3 NOT ADD SLT PUSH2 0x312 JUMPI PUSH1 0x20 PUSH1 0x40 MLOAD PUSH1 0x0 DUP2 MSTORE RETURN JUMPDEST CALLVALUE PUSH2 0x312 JUMPI PUSH1 0x20 CALLDATASIZE PUSH1 0x3 NOT ADD SLT PUSH2 0x312 JUMPI PUSH1 0x4 CALLDATALOAD PUSH1 0x0 MSTORE PUSH1 0xB PUSH1 0x20 MSTORE PUSH1 0x40 PUSH1 0x0 KECCAK256 DUP1 SLOAD PUSH1 0x1 DUP3 ADD PUSH2 0x1447 SWAP1 PUSH2 0x2976 JUMP JUMPDEST PUSH2 0x1453 PUSH1 0x2 DUP5 ADD PUSH2 0x2976 JUMP JUMPDEST SWAP3 PUSH1 0x1 PUSH1 0xA0 SHL PUSH1 0x1 SWAP1 SUB PUSH1 0x3 DUP3 ADD SLOAD AND SWAP1 PUSH1 0x4 DUP2 ADD SLOAD PUSH1 0x5 DUP3 ADD SLOAD PUSH1 0x6 DUP4 ADD SLOAD PUSH1 0x7 DUP5 ADD SLOAD PUSH1 0x8 DUP6 ADD SLOAD PUSH1 0x9 DUP7 ADD SLOAD SWAP2 PUSH1 0xA DUP8 ADD SLOAD SWAP4 PUSH1 0xB DUP9 ADD SLOAD SWAP6 PUSH1 0xC DUP10 ADD SLOAD SWAP8 PUSH1 0xD DUP11 ADD SLOAD SWAP10 PUSH1 0xE ADD SLOAD PUSH1 0xFF AND SWAP11 PUSH1 0x40 MLOAD SWAP15 DUP16 SWAP15 DUP16 SWAP15 DUP16 SWAP2 PUSH2 0x1E0 SWAP1 DUP4 MSTORE DUP1 PUSH1 0x20 DUP5 ADD MSTORE DUP3 ADD PUSH2 0x14C4 SWAP2 PUSH2 0x2822 JUMP JUMPDEST SWAP1 DUP1 DUP3 SUB SWAP1 PUSH1 0x40 ADD MSTORE PUSH2 0x14D6 SWAP2 PUSH2 0x2822 JUMP JUMPDEST SWAP13 PUSH1 0x60 ADD MSTORE PUSH1 0x80 DUP14 ADD MSTORE PUSH1 0xA0 DUP13 ADD MSTORE PUSH1 0xC0 DUP12 ADD MSTORE PUSH1 0xE0 DUP11 ADD MSTORE PUSH2 0x100 DUP10 ADD MSTORE PUSH2 0x120 DUP9 ADD MSTORE PUSH2 0x140 DUP8 ADD MSTORE PUSH2 0x160 DUP7 ADD MSTORE PUSH2 0x180 DUP6 ADD MSTORE PUSH2 0x1A0 DUP5 ADD MSTORE ISZERO ISZERO PUSH2 0x1C0 DUP4 ADD MSTORE SUB SWAP1 RETURN JUMPDEST CALLVALUE PUSH2 0x312 JUMPI PUSH1 0x20 DUP1 PUSH1 0x3 NOT CALLDATASIZE ADD SLT PUSH2 0x312 JUMPI PUSH1 0x1 PUSH1 0x1 PUSH1 0xA0 SHL SUB PUSH1 0x4 CALLDATALOAD DUP2 DUP2 AND SWAP1 DUP2 SWAP1 SUB PUSH2 0x312 JUMPI DUP3 SWAP1 PUSH1 0x24 PUSH1 0x40 MLOAD DUP1 SWAP5 DUP2 SWAP4 PUSH4 0x70A08231 PUSH1 0xE0 SHL DUP4 MSTORE PUSH1 0x4 DUP4 ADD MSTORE PUSH32 0x0 AND GAS STATICCALL SWAP1 DUP2 ISZERO PUSH2 0xB91 JUMPI PUSH1 0x0 SWAP2 PUSH2 0x15A7 JUMPI JUMPDEST POP PUSH8 0xDE0B6B3A7640000 PUSH1 0x40 MLOAD SWAP2 DIV DUP2 MSTORE RETURN JUMPDEST SWAP1 POP DUP2 DUP2 DUP2 RETURNDATASIZE DUP4 GT PUSH2 0x15CD JUMPI JUMPDEST PUSH2 0x15BE DUP2 DUP4 PUSH2 0x2955 JUMP JUMPDEST DUP2 ADD SUB SLT PUSH2 0x312 JUMPI MLOAD DUP3 PUSH2 0x1594 JUMP JUMPDEST POP RETURNDATASIZE PUSH2 0x15B4 JUMP JUMPDEST CALLVALUE PUSH2 0x312 JUMPI PUSH2 0x15E2 CALLDATASIZE PUSH2 0x2781 JUMP JUMPDEST DUP2 PUSH1 0x0 MSTORE PUSH1 0x3 SWAP2 PUSH1 0x20 PUSH1 0x3 PUSH1 0x20 MSTORE PUSH1 0x40 PUSH1 0x0 KECCAK256 PUSH1 0xFF PUSH1 0xD DUP3 ADD SLOAD AND ISZERO PUSH2 0xC18 JUMPI PUSH1 0x7 DUP5 SWAP2 ADD SSTORE DUP2 PUSH1 0x0 MSTORE PUSH1 0xA SWAP2 PUSH1 0xA PUSH1 0x20 MSTORE PUSH1 0x40 PUSH1 0x0 KECCAK256 DUP1 SLOAD PUSH1 0x0 DUP3 SSTORE DUP1 PUSH2 0x1693 JUMPI JUMPDEST POP POP PUSH1 0x0 JUMPDEST PUSH1 0x8 SLOAD DUP2 LT ISZERO PUSH2 0x1661 JUMPI PUSH1 0x1 SWAP1 DUP3 PUSH1 0x0 MSTORE DUP5 DUP5 MSTORE PUSH2 0x165B PUSH1 0x40 PUSH1 0x0 KECCAK256 PUSH2 0x164F DUP4 PUSH2 0x2797 JUMP JUMPDEST SWAP1 SLOAD SWAP1 DUP11 SHL SHR SWAP1 PUSH2 0x2AC5 JUMP JUMPDEST ADD PUSH2 0x162A JUMP JUMPDEST DUP5 DUP1 PUSH1 0x0 MSTORE PUSH1 0x6 PUSH1 0x20 MSTORE PUSH1 0x40 PUSH1 0x0 KECCAK256 SWAP1 DUP2 SLOAD SWAP2 PUSH1 0xFF DUP4 AND ISZERO PUSH2 0x167F JUMPI STOP JUMPDEST PUSH1 0x1 PUSH2 0x1691 SWAP4 PUSH1 0xFF NOT AND OR SWAP1 SSTORE PUSH2 0x2A7D JUMP JUMPDEST STOP JUMPDEST PUSH2 0x16A8 SWAP2 PUSH1 0x0 MSTORE PUSH1 0x20 PUSH1 0x0 KECCAK256 SWAP1 DUP2 ADD SWAP1 PUSH2 0x2C0C JUMP JUMPDEST DUP6 DUP1 PUSH2 0x1625 JUMP JUMPDEST CALLVALUE PUSH2 0x312 JUMPI PUSH1 0x20 CALLDATASIZE PUSH1 0x3 NOT ADD SLT PUSH2 0x312 JUMPI PUSH1 0x4 CALLDATALOAD DUP1 PUSH1 0x0 MSTORE PUSH1 0x6 PUSH1 0x20 MSTORE PUSH1 0x40 PUSH1 0x0 KECCAK256 PUSH1 0x1 PUSH1 0xFF NOT DUP3 SLOAD AND OR SWAP1 SSTORE PUSH2 0x16E5 DUP2 PUSH2 0x2A7D JUMP JUMPDEST PUSH32 0xCB23ED79D0D407699762F186152925A6B8DD62FC4B2223F50A16534AF8C883F8 PUSH1 0x20 PUSH1 0x40 MLOAD TIMESTAMP DUP2 MSTORE LOG2 STOP JUMPDEST CALLVALUE PUSH2 0x312 JUMPI PUSH1 0x20 CALLDATASIZE PUSH1 0x3 NOT ADD SLT PUSH2 0x312 JUMPI PUSH1 0x4 CALLDATALOAD PUSH1 0xF SLOAD DUP2 LT ISZERO PUSH2 0x312 JUMPI PUSH1 0x20 SWAP1 PUSH1 0xF PUSH1 0x0 MSTORE PUSH32 0x8D1108E10BCB7C27DDDFC02ED9D693A074039D026CF4EA4240B40F7D581AC802 ADD SLOAD PUSH1 0x40 MLOAD SWAP1 DUP2 MSTORE RETURN JUMPDEST CALLVALUE PUSH2 0x312 JUMPI PUSH1 0x0 CALLDATASIZE PUSH1 0x3 NOT ADD SLT PUSH2 0x312 JUMPI PUSH1 0x40 MLOAD DUP1 PUSH1 0x10 SLOAD SWAP2 DUP3 DUP2 MSTORE PUSH1 0x20 DUP1 SWAP2 ADD SWAP3 PUSH1 0x10 PUSH1 0x0 MSTORE PUSH32 0x1B6847DC741A1B0CD08D278845F9D819D87B734759AFB55FE2DE5CB82A9AE672 SWAP2 PUSH1 0x0 SWAP1 JUMPDEST DUP3 DUP3 LT PUSH2 0x17D6 JUMPI PUSH2 0x17D2 DUP6 PUSH2 0x17C6 DUP2 DUP10 SUB DUP3 PUSH2 0x2955 JUMP JUMPDEST PUSH1 0x40 MLOAD SWAP2 DUP3 SWAP2 DUP3 PUSH2 0x27E6 JUMP JUMPDEST SUB SWAP1 RETURN JUMPDEST DUP4 SLOAD DUP7 MSTORE SWAP5 DUP6 ADD SWAP5 PUSH1 0x1 SWAP4 DUP5 ADD SWAP4 SWAP1 SWAP2 ADD SWAP1 PUSH2 0x17AF JUMP JUMPDEST CALLVALUE PUSH2 0x312 JUMPI PUSH1 0x20 CALLDATASIZE PUSH1 0x3 NOT ADD SLT PUSH2 0x312 JUMPI PUSH2 0x1691 PUSH1 0x4 CALLDATALOAD PUSH2 0x2CB2 JUMP JUMPDEST CALLVALUE PUSH2 0x312 JUMPI PUSH1 0x20 CALLDATASIZE PUSH1 0x3 NOT ADD SLT PUSH2 0x312 JUMPI PUSH1 0x4 CALLDATALOAD PUSH1 0x10 SLOAD DUP2 LT ISZERO PUSH2 0x312 JUMPI PUSH1 0x20 SWAP1 PUSH1 0x10 PUSH1 0x0 MSTORE PUSH32 0x1B6847DC741A1B0CD08D278845F9D819D87B734759AFB55FE2DE5CB82A9AE672 ADD SLOAD PUSH1 0x40 MLOAD SWAP1 DUP2 MSTORE RETURN JUMPDEST CALLVALUE PUSH2 0x312 JUMPI PUSH1 0x0 CALLDATASIZE PUSH1 0x3 NOT ADD SLT PUSH2 0x312 JUMPI PUSH1 0x40 MLOAD PUSH32 0x0 PUSH1 0x1 PUSH1 0x1 PUSH1 0xA0 SHL SUB AND DUP2 MSTORE PUSH1 0x20 SWAP1 RETURN JUMPDEST CALLVALUE PUSH2 0x312 JUMPI PUSH1 0x0 CALLDATASIZE PUSH1 0x3 NOT ADD SLT PUSH2 0x312 JUMPI PUSH1 0x20 PUSH1 0x40 MLOAD PUSH1 0x1 DUP2 MSTORE RETURN JUMPDEST CALLVALUE PUSH2 0x312 JUMPI PUSH1 0x20 CALLDATASIZE PUSH1 0x3 NOT ADD SLT PUSH2 0x312 JUMPI PUSH1 0x20 PUSH2 0x18D9 PUSH1 0x4 CALLDATALOAD PUSH2 0x2C71 JUMP JUMPDEST PUSH1 0xFF PUSH1 0x40 MLOAD SWAP2 AND DUP2 MSTORE RETURN JUMPDEST CALLVALUE PUSH2 0x312 JUMPI PUSH2 0x18F2 CALLDATASIZE PUSH2 0x2781 JUMP JUMPDEST SWAP1 PUSH1 0x0 MSTORE PUSH1 0xD PUSH1 0x20 MSTORE PUSH1 0x40 PUSH1 0x0 KECCAK256 SWAP1 PUSH1 0x0 MSTORE PUSH1 0x20 MSTORE PUSH1 0x20 PUSH1 0xFF PUSH1 0x40 PUSH1 0x0 KECCAK256 SLOAD AND PUSH1 0x40 MLOAD SWAP1 ISZERO ISZERO DUP2 MSTORE RETURN JUMPDEST CALLVALUE PUSH2 0x312 JUMPI PUSH1 0x0 CALLDATASIZE PUSH1 0x3 NOT ADD SLT PUSH2 0x312 JUMPI PUSH1 0x40 MLOAD PUSH32 0x0 PUSH1 0x1 PUSH1 0x1 PUSH1 0xA0 SHL SUB AND DUP2 MSTORE PUSH1 0x20 SWAP1 RETURN JUMPDEST CALLVALUE PUSH2 0x312 JUMPI PUSH1 0x20 CALLDATASIZE PUSH1 0x3 NOT ADD SLT PUSH2 0x312 JUMPI PUSH1 0x20 PUSH2 0x1980 PUSH1 0x4 CALLDATALOAD DUP1 PUSH2 0x2C5E JUMP JUMPDEST PUSH1 0x40 MLOAD SWAP1 DUP2 MSTORE RETURN JUMPDEST CALLVALUE PUSH2 0x312 JUMPI PUSH1 0x20 CALLDATASIZE PUSH1 0x3 NOT ADD SLT PUSH2 0x312 JUMPI PUSH1 0x4 CALLDATALOAD PUSH1 0x0 MSTORE PUSH1 0x9 PUSH1 0x20 MSTORE PUSH1 0x20 PUSH1 0xFF PUSH1 0x40 PUSH1 0x0 KECCAK256 SLOAD AND PUSH1 0x40 MLOAD SWAP1 ISZERO ISZERO DUP2 MSTORE RETURN JUMPDEST CALLVALUE PUSH2 0x312 JUMPI PUSH1 0x0 CALLDATASIZE PUSH1 0x3 NOT ADD SLT PUSH2 0x312 JUMPI PUSH1 0x20 PUSH1 0x40 MLOAD PUSH2 0x2710 DUP2 MSTORE RETURN JUMPDEST CALLVALUE PUSH2 0x312 JUMPI PUSH1 0x0 CALLDATASIZE PUSH1 0x3 NOT ADD SLT PUSH2 0x312 JUMPI PUSH1 0x0 SLOAD PUSH1 0x40 MLOAD PUSH1 0x1 PUSH1 0x1 PUSH1 0xA0 SHL SUB SWAP1 SWAP2 AND DUP2 MSTORE PUSH1 0x20 SWAP1 RETURN JUMPDEST CALLVALUE PUSH2 0x312 JUMPI PUSH2 0x1A0D CALLDATASIZE PUSH2 0x2781 JUMP JUMPDEST SWAP1 PUSH1 0x0 MSTORE PUSH1 0x5 PUSH1 0x20 MSTORE PUSH1 0x40 PUSH1 0x0 KECCAK256 SWAP1 PUSH1 0x0 MSTORE PUSH1 0x20 MSTORE PUSH1 0x20 PUSH1 0xFF PUSH1 0x40 PUSH1 0x0 KECCAK256 SLOAD AND PUSH1 0x40 MLOAD SWAP1 ISZERO ISZERO DUP2 MSTORE RETURN JUMPDEST CALLVALUE PUSH2 0x312 JUMPI PUSH1 0x20 CALLDATASIZE PUSH1 0x3 NOT ADD SLT PUSH2 0x312 JUMPI PUSH1 0x4 CALLDATALOAD CALLER PUSH1 0x0 MSTORE PUSH1 0x12 PUSH1 0x20 MSTORE PUSH1 0x40 PUSH1 0x0 KECCAK256 PUSH1 0x2 DUP2 ADD PUSH1 0xFF DUP2 SLOAD AND ISZERO PUSH1 0x0 EQ PUSH2 0x1AB4 JUMPI DUP3 DUP3 SSTORE PUSH1 0x0 PUSH1 0x1 DUP4 ADD SSTORE PUSH1 0x1 PUSH1 0xFF NOT DUP3 SLOAD AND OR SWAP1 SSTORE JUMPDEST SLOAD PUSH1 0x40 MLOAD SWAP2 DUP3 MSTORE PUSH1 0x20 DUP3 ADD MSTORE PUSH32 0xC8BC4842CF61A3F6CBF597029D937FDF158EF4959A9616594587A0FB8C6B8711 PUSH1 0x40 CALLER SWAP3 LOG2 STOP JUMPDEST POP PUSH2 0x1AC0 DUP3 DUP3 SLOAD PUSH2 0x2A49 JUMP JUMPDEST DUP2 SSTORE PUSH2 0x1A80 JUMP JUMPDEST CALLVALUE PUSH2 0x312 JUMPI PUSH2 0x1AD5 CALLDATASIZE PUSH2 0x288F JUMP JUMPDEST SWAP5 DUP3 PUSH1 0x0 SWAP8 SWAP4 SWAP3 SWAP8 MSTORE PUSH1 0x6 PUSH1 0x20 MSTORE PUSH1 0xFF PUSH1 0x40 PUSH1 0x0 KECCAK256 SLOAD AND ISZERO PUSH2 0x1F04 JUMPI PUSH2 0x1AFC PUSH1 0x1 SLOAD PUSH2 0x2A56 JUMP JUMPDEST SWAP4 DUP5 PUSH1 0x1 SSTORE PUSH2 0x1B0B DUP9 TIMESTAMP PUSH2 0x2A49 JUMP JUMPDEST PUSH2 0x1B19 DUP9 PUSH2 0x4F9 DUP12 TIMESTAMP PUSH2 0x2A49 JUMP JUMPDEST SWAP2 PUSH1 0x40 MLOAD SWAP8 DUP9 PUSH2 0x1C0 DUP2 ADD LT PUSH1 0x1 PUSH1 0x1 PUSH1 0x40 SHL SUB PUSH2 0x1C0 DUP12 ADD GT OR PUSH2 0x2FC JUMPI PUSH2 0x1B5E SWAP2 PUSH2 0x1C0 DUP11 ADD PUSH1 0x40 MSTORE DUP9 DUP11 MSTORE PUSH2 0x1B52 CALLDATASIZE DUP8 DUP11 PUSH2 0x2BC6 JUMP JUMPDEST PUSH1 0x20 DUP12 ADD MSTORE CALLDATASIZE SWAP2 PUSH2 0x2BC6 JUMP JUMPDEST PUSH1 0x40 DUP9 ADD MSTORE CALLER PUSH1 0x60 DUP9 ADD MSTORE TIMESTAMP PUSH1 0x80 DUP9 ADD MSTORE PUSH1 0xA0 DUP8 ADD MSTORE PUSH1 0xC0 DUP7 ADD MSTORE DUP2 PUSH1 0xE0 DUP7 ADD MSTORE PUSH1 0x0 PUSH2 0x100 DUP7 ADD MSTORE PUSH1 0x0 PUSH2 0x120 DUP7 ADD MSTORE PUSH1 0x0 PUSH2 0x140 DUP7 ADD MSTORE PUSH1 0x0 PUSH2 0x160 DUP7 ADD MSTORE PUSH1 0x0 PUSH2 0x180 DUP7 ADD MSTORE PUSH1 0x1 PUSH2 0x1A0 DUP7 ADD MSTORE DUP4 PUSH1 0x0 MSTORE PUSH1 0x3 PUSH1 0x20 MSTORE PUSH1 0x40 PUSH1 0x0 KECCAK256 SWAP6 DUP6 MLOAD DUP8 SSTORE PUSH1 0x20 DUP7 ADD MLOAD DUP1 MLOAD SWAP1 PUSH1 0x1 PUSH1 0x1 PUSH1 0x40 SHL SUB DUP3 GT PUSH2 0x2FC JUMPI DUP2 SWAP1 PUSH2 0x1BE7 PUSH1 0x1 DUP12 ADD SLOAD PUSH2 0x28E5 JUMP JUMPDEST PUSH1 0x1F DUP2 GT PUSH2 0x1ECF JUMPI JUMPDEST POP PUSH1 0x20 SWAP1 PUSH1 0x1F DUP4 GT PUSH1 0x1 EQ PUSH2 0x1E5D JUMPI PUSH1 0x0 SWAP3 PUSH2 0x1E52 JUMPI JUMPDEST POP POP DUP2 PUSH1 0x1 SHL SWAP2 PUSH1 0x0 NOT SWAP1 PUSH1 0x3 SHL SHR NOT AND OR PUSH1 0x1 DUP9 ADD SSTORE JUMPDEST PUSH1 0x40 DUP7 ADD MLOAD DUP1 MLOAD SWAP1 PUSH1 0x1 PUSH1 0x1 PUSH1 0x40 SHL SUB DUP3 GT PUSH2 0x2FC JUMPI DUP2 SWAP1 PUSH2 0x1C44 PUSH1 0x2 DUP12 ADD SLOAD PUSH2 0x28E5 JUMP JUMPDEST PUSH1 0x1F DUP2 GT PUSH2 0x1E1D JUMPI JUMPDEST POP PUSH1 0x20 SWAP1 PUSH1 0x1F DUP4 GT PUSH1 0x1 EQ PUSH2 0x1DAB JUMPI PUSH1 0x0 SWAP3 PUSH2 0x1DA0 JUMPI JUMPDEST POP POP DUP2 PUSH1 0x1 SHL SWAP2 PUSH1 0x0 NOT SWAP1 PUSH1 0x3 SHL SHR NOT AND OR PUSH1 0x2 DUP9 ADD SSTORE JUMPDEST PUSH1 0x3 DUP8 ADD PUSH1 0x1 DUP1 PUSH1 0xA0 SHL SUB PUSH1 0x60 DUP9 ADD MLOAD AND PUSH12 0xFFFFFFFFFFFFFFFFFFFFFFFF PUSH1 0xA0 SHL DUP3 SLOAD AND OR SWAP1 SSTORE PUSH1 0x80 DUP7 ADD MLOAD PUSH1 0x4 DUP9 ADD SSTORE PUSH1 0xA0 DUP7 ADD MLOAD PUSH1 0x5 DUP9 ADD SSTORE PUSH1 0xC0 DUP7 ADD MLOAD PUSH1 0x6 DUP9 ADD SSTORE PUSH1 0xE0 DUP7 ADD MLOAD PUSH1 0x7 DUP9 ADD SSTORE PUSH2 0x1D27 PUSH1 0x8 SWAP8 PUSH2 0x100 DUP9 ADD MLOAD PUSH1 0x8 DUP3 ADD SSTORE PUSH2 0x120 DUP9 ADD MLOAD PUSH1 0x9 DUP3 ADD SSTORE PUSH1 0xD PUSH2 0x1A0 PUSH1 0xA SWAP10 PUSH2 0x140 DUP2 ADD MLOAD PUSH1 0xA DUP6 ADD SSTORE PUSH2 0x160 DUP2 ADD MLOAD PUSH1 0xB DUP6 ADD SSTORE PUSH2 0x180 DUP2 ADD MLOAD PUSH1 0xC DUP6 ADD SSTORE ADD MLOAD ISZERO ISZERO SWAP2 ADD SWAP1 PUSH1 0xFF DUP1 NOT DUP4 SLOAD AND SWAP2 ISZERO ISZERO AND OR SWAP1 SSTORE JUMP JUMPDEST PUSH1 0x0 JUMPDEST DUP8 SLOAD DUP2 LT ISZERO PUSH2 0x1D62 JUMPI PUSH1 0x1 SWAP1 DUP7 PUSH1 0x0 MSTORE DUP8 PUSH1 0x20 MSTORE PUSH2 0x1D5C PUSH1 0x40 PUSH1 0x0 KECCAK256 PUSH2 0x1D4F DUP4 PUSH2 0x2797 JUMP JUMPDEST SWAP1 SLOAD SWAP1 PUSH1 0x3 SHL SHR SWAP1 PUSH2 0x2AC5 JUMP JUMPDEST ADD PUSH2 0x1D2A JUMP JUMPDEST POP PUSH1 0x20 SWAP6 POP SWAP2 PUSH32 0x16356EC948FE2183CECE6A7B111BEEF5BE873032E9698D3FBF0E0168D0FC91A8 SWAP2 PUSH2 0x76F DUP10 PUSH2 0x760 DUP9 SWAP7 PUSH2 0x4F9 PUSH2 0x759 DUP5 TIMESTAMP PUSH2 0x2A49 JUMP JUMPDEST ADD MLOAD SWAP1 POP DUP11 DUP1 PUSH2 0x1C64 JUMP JUMPDEST SWAP3 POP PUSH1 0x2 DUP11 ADD PUSH1 0x0 MSTORE PUSH1 0x20 PUSH1 0x0 KECCAK256 SWAP1 PUSH1 0x0 SWAP4 JUMPDEST PUSH1 0x1F NOT DUP5 AND DUP6 LT PUSH2 0x1E02 JUMPI PUSH1 0x1 SWAP5 POP DUP4 PUSH1 0x1F NOT DUP2 AND LT PUSH2 0x1DE9 JUMPI JUMPDEST POP POP POP DUP2 SHL ADD PUSH1 0x2 DUP9 ADD SSTORE PUSH2 0x1C7C JUMP JUMPDEST ADD MLOAD PUSH1 0x0 NOT PUSH1 0xF8 DUP5 PUSH1 0x3 SHL AND SHR NOT AND SWAP1 SSTORE DUP11 DUP1 DUP1 PUSH2 0x1DD9 JUMP JUMPDEST DUP2 DUP2 ADD MLOAD DUP4 SSTORE PUSH1 0x20 SWAP5 DUP6 ADD SWAP5 PUSH1 0x1 SWAP1 SWAP4 ADD SWAP3 SWAP1 SWAP2 ADD SWAP1 PUSH2 0x1DBE JUMP JUMPDEST PUSH2 0x1E4C SWAP1 PUSH1 0x2 DUP13 ADD PUSH1 0x0 MSTORE PUSH1 0x20 PUSH1 0x0 KECCAK256 PUSH1 0x1F DUP6 ADD PUSH1 0x5 SHR DUP2 ADD SWAP2 PUSH1 0x20 DUP7 LT PUSH2 0x862 JUMPI PUSH1 0x1F ADD PUSH1 0x5 SHR ADD SWAP1 PUSH2 0x2C0C JUMP JUMPDEST DUP12 PUSH2 0x1C4D JUMP JUMPDEST ADD MLOAD SWAP1 POP DUP11 DUP1 PUSH2 0x1C07 JUMP JUMPDEST SWAP3 POP PUSH1 0x1 DUP11 ADD PUSH1 0x0 MSTORE PUSH1 0x20 PUSH1 0x0 KECCAK256 SWAP1 PUSH1 0x0 SWAP4 JUMPDEST PUSH1 0x1F NOT DUP5 AND DUP6 LT PUSH2 0x1EB4 JUMPI PUSH1 0x1 SWAP5 POP DUP4 PUSH1 0x1F NOT DUP2 AND LT PUSH2 0x1E9B JUMPI JUMPDEST POP POP POP DUP2 SHL ADD PUSH1 0x1 DUP9 ADD SSTORE PUSH2 0x1C1F JUMP JUMPDEST ADD MLOAD PUSH1 0x0 NOT PUSH1 0xF8 DUP5 PUSH1 0x3 SHL AND SHR NOT AND SWAP1 SSTORE DUP11 DUP1 DUP1 PUSH2 0x1E8B JUMP JUMPDEST DUP2 DUP2 ADD MLOAD DUP4 SSTORE PUSH1 0x20 SWAP5 DUP6 ADD SWAP5 PUSH1 0x1 SWAP1 SWAP4 ADD SWAP3 SWAP1 SWAP2 ADD SWAP1 PUSH2 0x1E70 JUMP JUMPDEST PUSH2 0x1EFE SWAP1 PUSH1 0x1 DUP13 ADD PUSH1 0x0 MSTORE PUSH1 0x20 PUSH1 0x0 KECCAK256 PUSH1 0x1F DUP6 ADD PUSH1 0x5 SHR DUP2 ADD SWAP2 PUSH1 0x20 DUP7 LT PUSH2 0x862 JUMPI PUSH1 0x1F ADD PUSH1 0x5 SHR ADD SWAP1 PUSH2 0x2C0C JUMP JUMPDEST DUP12 PUSH2 0x1BF0 JUMP JUMPDEST PUSH1 0x40 MLOAD PUSH4 0x9DD854D3 PUSH1 0xE0 SHL DUP2 MSTORE PUSH1 0x4 SWAP1 REVERT JUMPDEST CALLVALUE PUSH2 0x312 JUMPI PUSH2 0x1F24 CALLDATASIZE PUSH2 0x2781 JUMP JUMPDEST SWAP1 PUSH1 0x0 MSTORE PUSH1 0x4 PUSH1 0x20 MSTORE PUSH1 0x40 PUSH1 0x0 KECCAK256 SWAP1 PUSH1 0x0 MSTORE PUSH1 0x20 MSTORE PUSH1 0xE0 PUSH1 0x40 PUSH1 0x0 KECCAK256 DUP1 SLOAD SWAP1 PUSH1 0x1 DUP2 ADD SLOAD SWAP1 PUSH1 0x2 DUP2 ADD SLOAD PUSH1 0x3 DUP3 ADD SLOAD PUSH1 0xFF PUSH1 0x4 DUP5 ADD SLOAD AND SWAP2 PUSH1 0xFF PUSH1 0x6 PUSH1 0x5 DUP7 ADD SLOAD SWAP6 ADD SLOAD AND SWAP5 PUSH1 0x40 MLOAD SWAP7 DUP8 MSTORE PUSH1 0x20 DUP8 ADD MSTORE PUSH1 0x40 DUP7 ADD MSTORE PUSH1 0x60 DUP6 ADD MSTORE ISZERO ISZERO PUSH1 0x80 DUP5 ADD MSTORE PUSH1 0xA0 DUP4 ADD MSTORE ISZERO ISZERO PUSH1 0xC0 DUP3 ADD MSTORE RETURN JUMPDEST CALLVALUE PUSH2 0x312 JUMPI PUSH1 0x20 CALLDATASIZE PUSH1 0x3 NOT ADD SLT PUSH2 0x312 JUMPI PUSH1 0x4 CALLDATALOAD PUSH1 0x0 MSTORE PUSH1 0x3 PUSH1 0x20 MSTORE PUSH1 0x40 PUSH1 0x0 KECCAK256 PUSH1 0xFF PUSH1 0xD DUP3 ADD SLOAD AND ISZERO PUSH2 0xC18 JUMPI PUSH1 0x5 DUP2 ADD SLOAD TIMESTAMP DUP2 LT PUSH2 0x2095 JUMPI PUSH1 0x0 SWAP1 JUMPDEST DUP3 SLOAD SWAP2 PUSH1 0x1 PUSH1 0xA0 SHL PUSH1 0x1 SWAP1 SUB PUSH1 0x3 DUP6 ADD SLOAD AND SWAP2 PUSH1 0x7 DUP6 ADD SLOAD SWAP1 PUSH1 0x6 DUP7 ADD SLOAD PUSH1 0x8 DUP8 ADD SLOAD PUSH1 0x9 DUP9 ADD SLOAD SWAP1 PUSH1 0xA DUP10 ADD SLOAD SWAP3 PUSH1 0xB DUP11 ADD SLOAD SWAP5 PUSH1 0xC DUP12 ADD SLOAD SWAP7 PUSH1 0x1 DUP13 ADD PUSH2 0x201A SWAP1 PUSH2 0x2976 JUMP JUMPDEST SWAP12 PUSH1 0x2 ADD PUSH2 0x2027 SWAP1 PUSH2 0x2976 JUMP JUMPDEST PUSH1 0x40 MLOAD SWAP13 DUP14 DUP1 SWAP14 PUSH2 0x1A0 SWAP2 DUP3 SWAP2 DUP2 MSTORE PUSH1 0x20 ADD MSTORE DUP14 ADD PUSH2 0x2045 SWAP2 PUSH2 0x2822 JUMP JUMPDEST DUP13 DUP2 SUB PUSH1 0x40 DUP15 ADD MSTORE PUSH2 0x2056 SWAP2 PUSH2 0x2822 JUMP JUMPDEST SWAP10 PUSH1 0x60 DUP13 ADD MSTORE PUSH1 0x80 DUP12 ADD MSTORE PUSH1 0xA0 DUP11 ADD MSTORE PUSH1 0xC0 DUP10 ADD MSTORE PUSH1 0xE0 DUP9 ADD MSTORE PUSH2 0x100 DUP8 ADD MSTORE PUSH2 0x120 DUP7 ADD MSTORE PUSH2 0x140 DUP6 ADD MSTORE PUSH2 0x160 DUP5 ADD MSTORE PUSH1 0xFF AND PUSH2 0x180 DUP4 ADD MSTORE SUB SWAP1 RETURN JUMPDEST PUSH1 0x6 DUP3 ADD SLOAD TIMESTAMP GT PUSH2 0x20A8 JUMPI PUSH1 0x1 SWAP1 PUSH2 0x1FD2 JUMP JUMPDEST PUSH1 0x2 SWAP1 PUSH2 0x1FD2 JUMP JUMPDEST CALLVALUE PUSH2 0x312 JUMPI PUSH2 0x20BE CALLDATASIZE PUSH2 0x2781 JUMP JUMPDEST SWAP1 PUSH1 0x0 MSTORE PUSH1 0xA PUSH1 0x20 MSTORE PUSH1 0x40 PUSH1 0x0 KECCAK256 DUP1 SLOAD DUP3 LT ISZERO PUSH2 0x312 JUMPI PUSH1 0x20 SWAP2 PUSH2 0x20E1 SWAP2 PUSH2 0x27CE JUMP JUMPDEST SWAP1 SLOAD PUSH1 0x40 MLOAD SWAP2 PUSH1 0x3 SHL SHR DUP2 MSTORE RETURN JUMPDEST CALLVALUE PUSH2 0x312 JUMPI PUSH1 0x0 CALLDATASIZE PUSH1 0x3 NOT ADD SLT PUSH2 0x312 JUMPI PUSH1 0x40 MLOAD DUP1 PUSH1 0x8 SLOAD SWAP2 DUP3 DUP2 MSTORE PUSH1 0x20 DUP1 SWAP2 ADD SWAP3 PUSH1 0x8 PUSH1 0x0 MSTORE PUSH32 0xF3F7A9FE364FAAB93B216DA50A3214154F22A0A2B415B23A84C8169E8B636EE3 SWAP2 PUSH1 0x0 SWAP1 JUMPDEST DUP3 DUP3 LT PUSH2 0x2153 JUMPI PUSH2 0x17D2 DUP6 PUSH2 0x17C6 DUP2 DUP10 SUB DUP3 PUSH2 0x2955 JUMP JUMPDEST DUP4 SLOAD DUP7 MSTORE SWAP5 DUP6 ADD SWAP5 PUSH1 0x1 SWAP4 DUP5 ADD SWAP4 SWAP1 SWAP2 ADD SWAP1 PUSH2 0x213C JUMP JUMPDEST CALLVALUE PUSH2 0x312 JUMPI PUSH1 0x20 CALLDATASIZE PUSH1 0x3 NOT ADD SLT PUSH2 0x312 JUMPI PUSH2 0x1691 PUSH1 0x4 CALLDATALOAD PUSH2 0x2B01 JUMP JUMPDEST CALLVALUE PUSH2 0x312 JUMPI PUSH1 0x20 CALLDATASIZE PUSH1 0x3 NOT ADD SLT PUSH2 0x312 JUMPI PUSH1 0x4 CALLDATALOAD PUSH1 0x8 SLOAD DUP2 LT ISZERO PUSH2 0x312 JUMPI PUSH2 0x20E1 PUSH1 0x20 SWAP2 PUSH2 0x2797 JUMP JUMPDEST CALLVALUE PUSH2 0x312 JUMPI PUSH1 0x20 CALLDATASIZE PUSH1 0x3 NOT ADD SLT PUSH2 0x312 JUMPI PUSH1 0x4 CALLDATALOAD PUSH1 0x1 PUSH1 0x1 PUSH1 0xA0 SHL SUB DUP2 AND SWAP1 DUP2 SWAP1 SUB PUSH2 0x312 JUMPI PUSH1 0x0 MSTORE PUSH1 0x12 PUSH1 0x20 MSTORE PUSH1 0x60 PUSH1 0x40 PUSH1 0x0 KECCAK256 DUP1 SLOAD SWAP1 PUSH1 0xFF PUSH1 0x2 PUSH1 0x1 DUP4 ADD SLOAD SWAP3 ADD SLOAD AND SWAP1 PUSH1 0x40 MLOAD SWAP3 DUP4 MSTORE PUSH1 0x20 DUP4 ADD MSTORE ISZERO ISZERO PUSH1 0x40 DUP3 ADD MSTORE RETURN JUMPDEST CALLVALUE PUSH2 0x312 JUMPI PUSH2 0x180 CALLDATASIZE PUSH1 0x3 NOT ADD SLT PUSH2 0x312 JUMPI PUSH1 0x64 CALLDATALOAD PUSH1 0x4 CALLDATALOAD PUSH1 0x24 CALLDATALOAD PUSH1 0x44 CALLDATALOAD CALLDATASIZE PUSH1 0xC4 GT PUSH2 0x312 JUMPI PUSH2 0x144 SWAP2 CALLDATASIZE DUP4 GT PUSH2 0x312 JUMPI CALLDATASIZE PUSH2 0x184 GT PUSH2 0x312 JUMPI DUP4 PUSH1 0x0 MSTORE PUSH1 0x20 SWAP2 PUSH1 0x3 DUP4 MSTORE PUSH1 0x40 PUSH1 0x0 KECCAK256 SWAP4 PUSH1 0xFF PUSH1 0xD DUP7 ADD SLOAD AND ISZERO PUSH2 0xC18 JUMPI PUSH1 0x5 DUP1 DUP7 ADD SLOAD TIMESTAMP GT PUSH2 0x1398 JUMPI DUP7 PUSH1 0x0 MSTORE PUSH1 0x5 DUP6 MSTORE PUSH1 0x40 PUSH1 0x0 KECCAK256 DUP9 PUSH1 0x0 MSTORE DUP6 MSTORE PUSH1 0xFF PUSH1 0x40 PUSH1 0x0 KECCAK256 SLOAD AND PUSH2 0x1386 JUMPI DUP3 ISZERO PUSH2 0x24B2 JUMPI PUSH1 0x40 MLOAD PUSH2 0x229F DUP2 PUSH2 0x293A JUMP JUMPDEST DUP9 DUP2 MSTORE DUP5 DUP7 DUP3 ADD MSTORE DUP8 PUSH1 0x40 DUP3 ADD MSTORE DUP4 PUSH1 0x60 DUP3 ADD MSTORE PUSH1 0x7 DUP8 ADD SLOAD PUSH1 0x80 DUP3 ADD MSTORE PUSH1 0x40 MLOAD SWAP3 PUSH4 0x34BAEAB9 PUSH1 0xE0 SHL DUP5 MSTORE PUSH1 0x40 PUSH1 0x84 PUSH1 0x4 DUP7 ADD CALLDATACOPY PUSH1 0xC4 PUSH1 0x0 PUSH1 0x44 DUP7 ADD JUMPDEST PUSH1 0x2 DUP3 LT PUSH2 0x249C JUMPI POP POP POP PUSH1 0x40 SWAP1 PUSH1 0xC4 DUP6 ADD CALLDATACOPY PUSH1 0x0 SWAP1 PUSH2 0x104 DUP5 ADD JUMPDEST DUP8 DUP5 DUP5 LT PUSH2 0x2488 JUMPI SWAP4 POP DUP5 SWAP3 POP PUSH2 0x1A4 SWAP2 POP DUP3 SWAP1 POP PUSH32 0x0 PUSH1 0x1 PUSH1 0x1 PUSH1 0xA0 SHL SUB AND GAS STATICCALL SWAP1 DUP2 ISZERO PUSH2 0xB91 JUMPI PUSH1 0x0 SWAP2 PUSH2 0x246B JUMPI JUMPDEST POP ISZERO PUSH2 0x1317 JUMPI DUP5 PUSH1 0x0 MSTORE PUSH1 0x5 DUP4 MSTORE PUSH1 0x40 PUSH1 0x0 KECCAK256 DUP7 PUSH1 0x0 MSTORE DUP4 MSTORE PUSH1 0x40 PUSH1 0x0 KECCAK256 PUSH1 0x1 PUSH1 0xFF NOT DUP3 SLOAD AND OR SWAP1 SSTORE PUSH1 0x40 MLOAD SWAP3 PUSH1 0xE0 DUP5 ADD SWAP4 DUP1 DUP6 LT PUSH1 0x1 PUSH1 0x1 PUSH1 0x40 SHL SUB DUP7 GT OR PUSH2 0x2FC JUMPI PUSH32 0x49E5146CBEFB4FFF5586B703DE455CB45794712230253D13F2D8C57DA85A323 SWAP6 PUSH2 0x2453 PUSH1 0xB SWAP3 PUSH1 0x6 DUP11 DUP7 PUSH2 0x2437 DUP15 PUSH1 0x40 SWAP13 DUP14 MSTORE DUP12 DUP7 MSTORE DUP3 DUP7 ADD DUP12 DUP2 MSTORE DUP14 DUP8 ADD DUP3 DUP2 MSTORE PUSH1 0x60 DUP9 ADD SWAP2 TIMESTAMP DUP4 MSTORE PUSH1 0x80 DUP10 ADD SWAP4 PUSH1 0x0 DUP6 MSTORE PUSH1 0x4 PUSH1 0xA0 DUP12 ADD SWAP8 PUSH1 0x0 DUP10 MSTORE PUSH1 0xC0 DUP13 ADD SWAP10 PUSH1 0x1 DUP12 MSTORE PUSH1 0x0 MSTORE MSTORE PUSH1 0x40 PUSH1 0x0 KECCAK256 SWAP1 PUSH1 0x0 MSTORE DUP14 MSTORE DUP16 PUSH1 0x0 KECCAK256 SWAP9 MLOAD DUP10 SSTORE MLOAD PUSH1 0x1 DUP10 ADD SSTORE MLOAD PUSH1 0x2 DUP9 ADD SSTORE MLOAD PUSH1 0x3 DUP8 ADD SSTORE MLOAD ISZERO ISZERO PUSH1 0x4 DUP7 ADD SWAP1 PUSH1 0xFF DUP1 NOT DUP4 SLOAD AND SWAP2 ISZERO ISZERO AND OR SWAP1 SSTORE JUMP JUMPDEST MLOAD PUSH1 0x5 DUP5 ADD SSTORE MLOAD ISZERO ISZERO SWAP2 ADD SWAP1 PUSH1 0xFF DUP1 NOT DUP4 SLOAD AND SWAP2 ISZERO ISZERO AND OR SWAP1 SSTORE JUMP JUMPDEST ADD PUSH2 0x245E DUP2 SLOAD PUSH2 0x2A56 JUMP JUMPDEST SWAP1 SSTORE DUP4 MLOAD SWAP3 DUP4 MSTORE DUP3 ADD MSTORE LOG3 STOP JUMPDEST PUSH2 0x2482 SWAP2 POP DUP5 RETURNDATASIZE DUP7 GT PUSH2 0x12CC JUMPI PUSH2 0x12BE DUP2 DUP4 PUSH2 0x2955 JUMP JUMPDEST DUP8 PUSH2 0x2349 JUMP JUMPDEST DUP1 PUSH1 0x1 SWAP3 DUP5 MLOAD DUP2 MSTORE ADD SWAP3 ADD SWAP3 ADD SWAP2 SWAP1 PUSH2 0x22F9 JUMP JUMPDEST PUSH1 0x40 DUP1 DUP3 DUP2 DUP7 PUSH1 0x1 SWAP6 CALLDATACOPY ADD SWAP4 ADD SWAP2 ADD SWAP1 SWAP2 PUSH2 0x22DD JUMP JUMPDEST PUSH1 0x40 MLOAD PUSH4 0x43C891CF PUSH1 0xE1 SHL DUP2 MSTORE PUSH1 0x4 SWAP1 REVERT JUMPDEST CALLVALUE PUSH2 0x312 JUMPI PUSH2 0x24D2 CALLDATASIZE PUSH2 0x2781 JUMP JUMPDEST SWAP1 PUSH1 0x0 MSTORE PUSH1 0xC PUSH1 0x20 MSTORE PUSH1 0x40 PUSH1 0x0 KECCAK256 SWAP1 PUSH1 0x0 MSTORE PUSH1 0x20 MSTORE PUSH2 0x100 PUSH1 0x40 PUSH1 0x0 KECCAK256 DUP1 SLOAD SWAP1 PUSH1 0x1 DUP2 ADD SLOAD SWAP1 PUSH1 0x2 DUP2 ADD SLOAD PUSH1 0x3 DUP3 ADD SLOAD PUSH1 0x4 DUP4 ADD SLOAD SWAP1 PUSH1 0xFF PUSH1 0x5 DUP6 ADD SLOAD AND SWAP3 PUSH1 0xFF PUSH1 0x7 PUSH1 0x6 DUP8 ADD SLOAD SWAP7 ADD SLOAD AND SWAP6 PUSH1 0x40 MLOAD SWAP8 DUP9 MSTORE PUSH1 0x20 DUP9 ADD MSTORE PUSH1 0x40 DUP8 ADD MSTORE PUSH1 0x60 DUP7 ADD MSTORE PUSH1 0x80 DUP6 ADD MSTORE ISZERO ISZERO PUSH1 0xA0 DUP5 ADD MSTORE PUSH1 0xC0 DUP4 ADD MSTORE ISZERO ISZERO PUSH1 0xE0 DUP3 ADD MSTORE RETURN JUMPDEST CALLVALUE PUSH2 0x312 JUMPI PUSH1 0x0 CALLDATASIZE PUSH1 0x3 NOT ADD SLT PUSH2 0x312 JUMPI PUSH1 0x20 PUSH1 0x8 SLOAD PUSH1 0x40 MLOAD SWAP1 DUP2 MSTORE RETURN JUMPDEST CALLVALUE PUSH2 0x312 JUMPI PUSH1 0x20 CALLDATASIZE PUSH1 0x3 NOT ADD SLT PUSH2 0x312 JUMPI PUSH1 0x4 CALLDATALOAD PUSH1 0x0 MSTORE PUSH1 0x11 PUSH1 0x20 MSTORE PUSH1 0x20 PUSH1 0xFF PUSH1 0x40 PUSH1 0x0 KECCAK256 SLOAD AND PUSH1 0x40 MLOAD SWAP1 ISZERO ISZERO DUP2 MSTORE RETURN JUMPDEST CALLVALUE PUSH2 0x312 JUMPI PUSH1 0x80 CALLDATASIZE PUSH1 0x3 NOT ADD SLT PUSH2 0x312 JUMPI PUSH1 0x4 CALLDATALOAD PUSH1 0x24 CALLDATALOAD SWAP1 PUSH1 0x44 CALLDATALOAD DUP2 PUSH1 0x0 MSTORE PUSH1 0x20 PUSH1 0x3 DUP2 MSTORE PUSH1 0x40 PUSH1 0x0 KECCAK256 SWAP2 PUSH1 0x4 DUP3 MSTORE PUSH1 0x40 PUSH1 0x0 KECCAK256 DUP6 PUSH1 0x0 MSTORE DUP3 MSTORE PUSH1 0x40 PUSH1 0x0 KECCAK256 SWAP2 PUSH1 0xFF PUSH1 0xD DUP6 ADD SLOAD AND ISZERO PUSH2 0xC18 JUMPI PUSH1 0x5 DUP5 ADD SLOAD TIMESTAMP GT ISZERO PUSH2 0xC06 JUMPI PUSH1 0x6 DUP5 ADD SLOAD TIMESTAMP GT PUSH2 0xC06 JUMPI PUSH1 0xFF PUSH1 0x6 DUP5 ADD SLOAD AND ISZERO PUSH2 0xBF4 JUMPI PUSH1 0x4 DUP4 ADD PUSH1 0xFF DUP2 SLOAD AND PUSH2 0xBE2 JUMPI PUSH1 0x2 DUP4 GT PUSH2 0xBD0 JUMPI PUSH1 0x40 MLOAD SWAP1 PUSH2 0x2630 DUP3 PUSH2 0x291F JUMP JUMPDEST DUP4 DUP3 MSTORE PUSH2 0x266A DUP4 PUSH1 0x1 DUP8 ADD SWAP4 DUP5 SLOAD DUP3 DUP3 ADD MSTORE DUP10 PUSH1 0x40 DUP3 ADD MSTORE PUSH1 0x64 CALLDATALOAD PUSH1 0x60 DUP3 ADD MSTORE PUSH1 0x40 MLOAD DUP1 SWAP4 DUP2 SWAP3 PUSH4 0x21C27363 PUSH1 0xE2 SHL DUP4 MSTORE PUSH1 0x4 DUP4 ADD PUSH2 0x2A1B JUMP JUMPDEST SUB DUP2 PUSH20 0x0 GAS DELEGATECALL SWAP1 DUP2 ISZERO PUSH2 0xB91 JUMPI PUSH1 0x0 SWAP2 PUSH2 0x2739 JUMPI JUMPDEST POP DUP6 SLOAD SUB PUSH2 0xB51 JUMPI PUSH32 0x48B18FFD0D20AC6E0C916DC382BDEA3DE3108E2B71D66318FF2BDC7AA10A5628 SWAP6 DUP5 PUSH1 0x5 PUSH1 0x40 SWAP8 PUSH1 0xC SWAP5 PUSH1 0x1 PUSH1 0xFF NOT DUP3 SLOAD AND OR SWAP1 SSTORE ADD SSTORE PUSH1 0x1 DUP6 EQ PUSH1 0x0 EQ PUSH2 0x270B JUMPI DUP3 SLOAD PUSH2 0x26EE PUSH1 0x8 DUP4 ADD SWAP2 DUP3 SLOAD PUSH2 0x2A49 JUMP JUMPDEST SWAP1 SSTORE JUMPDEST ADD PUSH2 0x26FC DUP2 SLOAD PUSH2 0x2A56 JUMP JUMPDEST SWAP1 SSTORE SLOAD SWAP1 DUP4 MLOAD SWAP3 DUP4 MSTORE DUP3 ADD MSTORE LOG3 STOP JUMPDEST DUP5 PUSH2 0x2728 JUMPI DUP3 SLOAD PUSH2 0x2721 PUSH1 0x9 DUP4 ADD SWAP2 DUP3 SLOAD PUSH2 0x2A49 JUMP JUMPDEST SWAP1 SSTORE PUSH2 0x26F1 JUMP JUMPDEST DUP3 SLOAD PUSH2 0x2721 PUSH1 0xA DUP4 ADD SWAP2 DUP3 SLOAD PUSH2 0x2A49 JUMP JUMPDEST SWAP1 POP DUP4 DUP2 DUP2 RETURNDATASIZE DUP4 GT PUSH2 0x275F JUMPI JUMPDEST PUSH2 0x2750 DUP2 DUP4 PUSH2 0x2955 JUMP JUMPDEST DUP2 ADD SUB SLT PUSH2 0x312 JUMPI MLOAD DUP10 PUSH2 0x2692 JUMP JUMPDEST POP RETURNDATASIZE PUSH2 0x2746 JUMP JUMPDEST CALLVALUE PUSH2 0x312 JUMPI PUSH1 0x0 CALLDATASIZE PUSH1 0x3 NOT ADD SLT PUSH2 0x312 JUMPI PUSH1 0x20 SWAP1 PUSH1 0x2 SLOAD DUP2 MSTORE RETURN JUMPDEST PUSH1 0x40 SWAP1 PUSH1 0x3 NOT ADD SLT PUSH2 0x312 JUMPI PUSH1 0x4 CALLDATALOAD SWAP1 PUSH1 0x24 CALLDATALOAD SWAP1 JUMP JUMPDEST PUSH1 0x8 SLOAD DUP2 LT ISZERO PUSH2 0xDF1 JUMPI PUSH1 0x8 PUSH1 0x0 MSTORE PUSH32 0xF3F7A9FE364FAAB93B216DA50A3214154F22A0A2B415B23A84C8169E8B636EE3 ADD SWAP1 PUSH1 0x0 SWAP1 JUMP JUMPDEST DUP1 SLOAD DUP3 LT ISZERO PUSH2 0xDF1 JUMPI PUSH1 0x0 MSTORE PUSH1 0x20 PUSH1 0x0 KECCAK256 ADD SWAP1 PUSH1 0x0 SWAP1 JUMP JUMPDEST PUSH1 0x20 SWAP1 PUSH1 0x20 PUSH1 0x40 DUP2 DUP4 ADD SWAP3 DUP3 DUP2 MSTORE DUP6 MLOAD DUP1 SWAP5 MSTORE ADD SWAP4 ADD SWAP2 PUSH1 0x0 JUMPDEST DUP3 DUP2 LT PUSH2 0x280E JUMPI POP POP POP POP SWAP1 JUMP JUMPDEST DUP4 MLOAD DUP6 MSTORE SWAP4 DUP2 ADD SWAP4 SWAP3 DUP2 ADD SWAP3 PUSH1 0x1 ADD PUSH2 0x2800 JUMP JUMPDEST SWAP2 SWAP1 DUP3 MLOAD SWAP3 DUP4 DUP3 MSTORE PUSH1 0x0 JUMPDEST DUP5 DUP2 LT PUSH2 0x284E JUMPI POP POP DUP3 PUSH1 0x0 PUSH1 0x20 DUP1 SWAP5 SWAP6 DUP5 ADD ADD MSTORE PUSH1 0x1F DUP1 NOT SWAP2 ADD AND ADD ADD SWAP1 JUMP JUMPDEST PUSH1 0x20 DUP2 DUP4 ADD DUP2 ADD MLOAD DUP5 DUP4 ADD DUP3 ADD MSTORE ADD PUSH2 0x282D JUMP JUMPDEST SWAP2 DUP2 PUSH1 0x1F DUP5 ADD SLT ISZERO PUSH2 0x312 JUMPI DUP3 CALLDATALOAD SWAP2 PUSH1 0x1 PUSH1 0x1 PUSH1 0x40 SHL SUB DUP4 GT PUSH2 0x312 JUMPI PUSH1 0x20 DUP4 DUP2 DUP7 ADD SWAP6 ADD ADD GT PUSH2 0x312 JUMPI JUMP JUMPDEST PUSH1 0xA0 PUSH1 0x3 NOT DUP3 ADD SLT PUSH2 0x312 JUMPI PUSH1 0x1 PUSH1 0x1 PUSH1 0x40 SHL SUB SWAP2 PUSH1 0x4 CALLDATALOAD DUP4 DUP2 GT PUSH2 0x312 JUMPI DUP3 PUSH2 0x28BB SWAP2 PUSH1 0x4 ADD PUSH2 0x2862 JUMP JUMPDEST SWAP4 SWAP1 SWAP4 SWAP3 PUSH1 0x24 CALLDATALOAD SWAP2 DUP3 GT PUSH2 0x312 JUMPI PUSH2 0x28D5 SWAP2 PUSH1 0x4 ADD PUSH2 0x2862 JUMP JUMPDEST SWAP1 SWAP2 PUSH1 0x44 CALLDATALOAD SWAP1 PUSH1 0x64 CALLDATALOAD SWAP1 PUSH1 0x84 CALLDATALOAD SWAP1 JUMP JUMPDEST SWAP1 PUSH1 0x1 DUP3 DUP2 SHR SWAP3 AND DUP1 ISZERO PUSH2 0x2915 JUMPI JUMPDEST PUSH1 0x20 DUP4 LT EQ PUSH2 0x28FF JUMPI JUMP JUMPDEST PUSH4 0x4E487B71 PUSH1 0xE0 SHL PUSH1 0x0 MSTORE PUSH1 0x22 PUSH1 0x4 MSTORE PUSH1 0x24 PUSH1 0x0 REVERT JUMPDEST SWAP2 PUSH1 0x7F AND SWAP2 PUSH2 0x28F4 JUMP JUMPDEST PUSH1 0x80 DUP2 ADD SWAP1 DUP2 LT PUSH1 0x1 PUSH1 0x1 PUSH1 0x40 SHL SUB DUP3 GT OR PUSH2 0x2FC JUMPI PUSH1 0x40 MSTORE JUMP JUMPDEST PUSH1 0xA0 DUP2 ADD SWAP1 DUP2 LT PUSH1 0x1 PUSH1 0x1 PUSH1 0x40 SHL SUB DUP3 GT OR PUSH2 0x2FC JUMPI PUSH1 0x40 MSTORE JUMP JUMPDEST SWAP1 PUSH1 0x1F DUP1 NOT SWAP2 ADD AND DUP2 ADD SWAP1 DUP2 LT PUSH1 0x1 PUSH1 0x1 PUSH1 0x40 SHL SUB DUP3 GT OR PUSH2 0x2FC JUMPI PUSH1 0x40 MSTORE JUMP JUMPDEST SWAP1 PUSH1 0x40 MLOAD SWAP2 DUP3 PUSH1 0x0 DUP3 SLOAD PUSH2 0x2989 DUP2 PUSH2 0x28E5 JUMP JUMPDEST SWAP1 DUP2 DUP5 MSTORE PUSH1 0x20 SWAP5 PUSH1 0x1 SWAP2 PUSH1 0x1 DUP2 AND SWAP1 DUP2 PUSH1 0x0 EQ PUSH2 0x29F9 JUMPI POP PUSH1 0x1 EQ PUSH2 0x29BA JUMPI JUMPDEST POP POP POP PUSH2 0x29B8 SWAP3 POP SUB DUP4 PUSH2 0x2955 JUMP JUMPDEST JUMP JUMPDEST PUSH1 0x0 SWAP1 DUP2 MSTORE DUP6 DUP2 KECCAK256 SWAP6 SWAP4 POP SWAP2 SWAP1 JUMPDEST DUP2 DUP4 LT PUSH2 0x29E1 JUMPI POP POP PUSH2 0x29B8 SWAP4 POP DUP3 ADD ADD CODESIZE DUP1 DUP1 PUSH2 0x29A9 JUMP JUMPDEST DUP6 SLOAD DUP9 DUP5 ADD DUP6 ADD MSTORE SWAP5 DUP6 ADD SWAP5 DUP8 SWAP5 POP SWAP2 DUP4 ADD SWAP2 PUSH2 0x29C8 JUMP JUMPDEST SWAP3 POP POP POP PUSH2 0x29B8 SWAP5 SWAP3 POP PUSH1 0xFF NOT AND DUP3 DUP5 ADD MSTORE ISZERO ISZERO PUSH1 0x5 SHL DUP3 ADD ADD CODESIZE DUP1 DUP1 PUSH2 0x29A9 JUMP JUMPDEST PUSH1 0x80 DUP2 ADD SWAP3 SWAP2 PUSH1 0x0 SWAP2 JUMPDEST PUSH1 0x4 DUP4 LT PUSH2 0x2A32 JUMPI POP POP POP JUMP JUMPDEST PUSH1 0x1 SWAP1 DUP3 MLOAD DUP2 MSTORE PUSH1 0x20 DUP1 SWAP2 ADD SWAP3 ADD SWAP3 ADD SWAP2 SWAP1 PUSH2 0x2A25 JUMP JUMPDEST SWAP2 SWAP1 DUP3 ADD DUP1 SWAP3 GT PUSH2 0x1253 JUMPI JUMP JUMPDEST PUSH1 0x0 NOT DUP2 EQ PUSH2 0x1253 JUMPI PUSH1 0x1 ADD SWAP1 JUMP JUMPDEST SWAP1 DUP2 PUSH1 0x20 SWAP2 SUB SLT PUSH2 0x312 JUMPI MLOAD DUP1 ISZERO ISZERO DUP2 SUB PUSH2 0x312 JUMPI SWAP1 JUMP JUMPDEST PUSH1 0x7 SLOAD PUSH1 0x1 PUSH1 0x40 SHL DUP2 LT ISZERO PUSH2 0x2FC JUMPI PUSH1 0x1 DUP2 ADD DUP1 PUSH1 0x7 SSTORE DUP2 LT ISZERO PUSH2 0xDF1 JUMPI PUSH1 0x7 PUSH1 0x0 MSTORE PUSH32 0xA66CC928B5EDB82AF9BD49922954155AB7B0942694BEA4CE44661D9A8736C688 ADD SSTORE JUMP JUMPDEST SWAP1 DUP2 SLOAD SWAP2 PUSH1 0x1 PUSH1 0x40 SHL DUP4 LT ISZERO PUSH2 0x2FC JUMPI DUP3 PUSH2 0x2AE8 SWAP2 PUSH1 0x1 PUSH2 0x29B8 SWAP6 ADD DUP2 SSTORE PUSH2 0x27CE JUMP JUMPDEST SWAP1 SWAP2 SWAP1 DUP3 SLOAD SWAP1 PUSH1 0x3 SHL SWAP2 DUP3 SHL SWAP2 PUSH1 0x0 NOT SWAP1 SHL NOT AND OR SWAP1 SSTORE JUMP JUMPDEST SWAP1 PUSH1 0x0 SWAP2 DUP1 DUP4 MSTORE PUSH1 0x11 PUSH1 0x20 MSTORE PUSH1 0x40 DUP4 KECCAK256 DUP1 SLOAD PUSH1 0xFF DUP2 AND PUSH2 0x2BBF JUMPI PUSH1 0xFF NOT AND PUSH1 0x1 OR SWAP1 SSTORE PUSH1 0x10 SLOAD PUSH1 0x1 PUSH1 0x40 SHL DUP2 LT ISZERO PUSH2 0x2BAB JUMPI PUSH1 0x1 DUP2 ADD DUP1 PUSH1 0x10 SSTORE DUP2 LT ISZERO PUSH2 0x2B97 JUMPI PUSH1 0x10 DUP3 SWAP4 SWAP5 MSTORE PUSH32 0x1B6847DC741A1B0CD08D278845F9D819D87B734759AFB55FE2DE5CB82A9AE672 ADD SSTORE PUSH32 0x1926A241BA9D59467AC0063E2CB861452B93AB650FFF5378A82E86BEFECC27AB PUSH1 0x20 PUSH1 0x40 MLOAD TIMESTAMP DUP2 MSTORE LOG2 JUMP JUMPDEST PUSH4 0x4E487B71 PUSH1 0xE0 SHL DUP5 MSTORE PUSH1 0x32 PUSH1 0x4 MSTORE PUSH1 0x24 DUP5 REVERT JUMPDEST PUSH4 0x4E487B71 PUSH1 0xE0 SHL DUP5 MSTORE PUSH1 0x41 PUSH1 0x4 MSTORE PUSH1 0x24 DUP5 REVERT JUMPDEST POP POP POP SWAP1 POP JUMP JUMPDEST SWAP3 SWAP2 SWAP3 PUSH1 0x1 PUSH1 0x1 PUSH1 0x40 SHL SUB DUP3 GT PUSH2 0x2FC JUMPI PUSH1 0x40 MLOAD SWAP2 PUSH2 0x2BEF PUSH1 0x1F DUP3 ADD PUSH1 0x1F NOT AND PUSH1 0x20 ADD DUP5 PUSH2 0x2955 JUMP JUMPDEST DUP3 SWAP5 DUP2 DUP5 MSTORE DUP2 DUP4 ADD GT PUSH2 0x312 JUMPI DUP3 DUP2 PUSH1 0x20 SWAP4 DUP5 PUSH1 0x0 SWAP7 ADD CALLDATACOPY ADD ADD MSTORE JUMP JUMPDEST DUP2 DUP2 LT PUSH2 0x2C17 JUMPI POP POP JUMP JUMPDEST PUSH1 0x0 DUP2 SSTORE PUSH1 0x1 ADD PUSH2 0x2C0C JUMP JUMPDEST SWAP2 DUP1 PUSH1 0xA0 SWAP2 PUSH1 0x60 SWAP6 SWAP9 SWAP8 SWAP7 SWAP4 PUSH1 0x80 DUP7 MSTORE DUP2 PUSH1 0x80 DUP8 ADD MSTORE DUP4 DUP7 ADD CALLDATACOPY PUSH1 0x0 DUP3 DUP3 DUP7 ADD ADD MSTORE PUSH1 0x1F DUP1 NOT SWAP2 ADD AND DUP4 ADD ADD SWAP6 PUSH1 0x20 DUP4 ADD MSTORE PUSH1 0x40 DUP3 ADD MSTORE ADD MSTORE JUMP JUMPDEST DUP2 DUP2 MUL SWAP3 SWAP2 DUP2 ISZERO SWAP2 DUP5 DIV EQ OR ISZERO PUSH2 0x1253 JUMPI JUMP JUMPDEST PUSH1 0x0 MSTORE PUSH1 0xB PUSH1 0x20 MSTORE PUSH1 0x40 PUSH1 0x0 KECCAK256 PUSH1 0xFF PUSH1 0xE DUP3 ADD SLOAD AND ISZERO PUSH2 0xC18 JUMPI PUSH1 0x5 DUP2 ADD SLOAD TIMESTAMP GT ISZERO PUSH2 0x2CAC JUMPI PUSH1 0x6 ADD SLOAD TIMESTAMP GT ISZERO PUSH2 0x2CA7 JUMPI PUSH1 0x2 SWAP1 JUMP JUMPDEST PUSH1 0x1 SWAP1 JUMP JUMPDEST POP PUSH1 0x0 SWAP1 JUMP JUMPDEST DUP1 PUSH1 0x0 MSTORE PUSH1 0x9 PUSH1 0x20 MSTORE PUSH1 0x40 PUSH1 0x0 KECCAK256 DUP1 SLOAD PUSH1 0xFF DUP2 AND PUSH2 0x2D22 JUMPI PUSH1 0xFF NOT AND PUSH1 0x1 OR SWAP1 SSTORE PUSH1 0x8 SLOAD PUSH1 0x1 PUSH1 0x40 SHL DUP2 LT ISZERO PUSH2 0x2FC JUMPI DUP2 PUSH2 0x2AE8 DUP3 PUSH1 0x1 PUSH2 0x2CF6 SWAP5 ADD PUSH1 0x8 SSTORE PUSH2 0x2797 JUMP JUMPDEST PUSH32 0x85238313F6B4AA1EA470340FC24BC06D68E734CD21411160C06714EB547571AF PUSH1 0x20 PUSH1 0x40 MLOAD TIMESTAMP DUP2 MSTORE LOG2 JUMP JUMPDEST POP POP POP JUMP INVALID LOG2 PUSH5 0x6970667358 0x22 SLT KECCAK256 PUSH23 0xE5BB1C4DF17C44552F892D971F711CDE956F9E03291418 PUSH26 0x93743A0870118264736F6C634300081800330000000000000000 "},"methodIdentifiers":{"CHOICE_ABSTAIN()":"d90292a3","CHOICE_AGAINST()":"b5770c33","CHOICE_FOR()":"8ea7a274","INITIAL_CREDITS()":"697aa8e8","calculateQuadraticCost(uint256)":"74dd0fea","castVoteD1(uint256,uint256,uint256,uint256,uint256[2],uint256[2][2],uint256[2])":"18dbeb4c","castVoteD2(uint256,uint256,uint256,uint256,uint256,uint256[2],uint256[2][2],uint256[2])":"badbc2ed","commitmentsD1(uint256,uint256)":"4275e031","commitmentsD2(uint256,uint256)":"13703e66","createProposalD1(string,string,uint256,uint256,uint256)":"4d09b49f","createProposalD2(string,string,uint256,uint256,uint256)":"db5bd601","creditRootHistory(uint256)":"a329b313","getAvailableCredits(address)":"b065a8e5","getPhaseD2(uint256)":"850099cd","getProposalD1(uint256)":"315401c0","getProposalD2(uint256)":"d54bb70b","getRegisteredCreditNotes()":"a1c7574a","getRegisteredVoters()":"2bc4a6e7","getVoterCount()":"11174a29","initializeCredits()":"fb9607d3","isCreditNoteRegistered(uint256)":"0d70ece8","isCreditRootValid(uint256)":"ef3a2b39","isMerkleRootValid(uint256)":"4a9284fb","isVoterRegistered(uint256)":"6d3cba61","merkleRootHistory(uint256)":"b5ad9215","mintTestTokens(uint256)":"52a48c56","nullifierUsedD1(uint256,uint256)":"5938862f","nullifierUsedD2(uint256,uint256)":"833722c5","proposalCountD1()":"f9058741","proposalCountD2()":"03a229f7","proposalVoterSnapshots(uint256,uint256)":"2c5317c0","proposalsD1(uint256)":"f025d082","proposalsD2(uint256)":"b4e0d6af","registerCreditNote(uint256)":"2bbe44fd","registerCreditRoot(uint256)":"d5444336","registerMerkleRoot(uint256)":"a4cae8f8","registerVoter(uint256)":"a13f2f8d","registeredCreditNotes(uint256)":"974f7aa3","registeredVoters(uint256)":"2436e06b","revealVoteD1(uint256,uint256,uint256,uint256)":"0572c801","revealVoteD2(uint256,uint256,uint256,uint256,uint256)":"d55d533e","tonToken()":"781a4852","treasury()":"61d027b3","updateProposalVoters(uint256,uint256)":"aa609848","userCredits(address)":"20babb92","validCreditRoots(uint256)":"417e70c8","validMerkleRoots(uint256)":"cb1bb033","verifierD1()":"f58789ae","verifierD2()":"94ffe6a0"}}}}}