{"abi":[{"type":"constructor","inputs":[{"name":"_amount","type":"uint256","internalType":"uint256"}],"stateMutability":"nonpayable"},{"type":"function","name":"creditAmount","inputs":[],"outputs":[{"name":"","type":"uint256","internalType":"uint256"}],"stateMutability":"view"},{"type":"function","name":"getVoiceCredits","inputs":[{"name":"","type":"address","internalType":"address"},{"name":"","type":"bytes","internalType":"bytes"}],"outputs":[{"name":"","type":"uint256","internalType":"uint256"}],"stateMutability":"view"}],"bytecode":{"object":"0x60a06040523461003e576100196100146100ef565b610110565b610021610043565b6102ee61011682396080518181816061015261029601526102ee90f35b610049565b60405190565b5f80fd5b601f801991011690565b634e487b7160e01b5f52604160045260245ffd5b906100759061004d565b810190811060018060401b0382111761008d57604052565b610057565b906100a561009e610043565b928361006b565b565b5f80fd5b90565b6100b7816100ab565b036100be57565b5f80fd5b905051906100cf826100ae565b565b906020828203126100ea576100e7915f016100c2565b90565b6100a7565b61010d6104048038038061010281610092565b9283398101906100d1565b90565b60805256fe60806040526004361015610013575b610281565b61001d5f3561003c565b80639995261a146100375763b36543a90361000e5761024b565b6100a8565b60e01c90565b60405190565b5f80fd5b5f80fd5b5f91031261005a57565b61004c565b7f000000000000000000000000000000000000000000000000000000000000000090565b90565b61008f90610083565b9052565b91906100a6905f60208501940190610086565b565b346100d8576100b8366004610050565b6100d46100c361005f565b6100cb610042565b91829182610093565b0390f35b610048565b5f80fd5b60018060a01b031690565b6100f5906100e1565b90565b610101816100ec565b0361010857565b5f80fd5b90503590610119826100f8565b565b5f80fd5b5f80fd5b601f801991011690565b634e487b7160e01b5f52604160045260245ffd5b9061014b90610123565b810190811067ffffffffffffffff82111761016557604052565b61012d565b9061017d610176610042565b9283610141565b565b67ffffffffffffffff811161019d57610199602091610123565b0190565b61012d565b90825f939282370152565b909291926101c26101bd8261017f565b61016a565b938185526020850190828401116101de576101dc926101a2565b565b61011f565b9080601f83011215610201578160206101fe933591016101ad565b90565b61011b565b9190916040818403126102465761021f835f830161010c565b92602082013567ffffffffffffffff81116102415761023e92016101e3565b90565b6100dd565b61004c565b3461027c57610278610267610261366004610206565b90610289565b61026f610042565b91829182610093565b0390f35b610048565b5f80fd5b5f90565b5050610293610285565b507f00000000000000000000000000000000000000000000000000000000000000009056fea2646970667358221220888860f47dbcb713ed463cc3f7ccab4b72429289873de63837fb2f45ef98cf3364736f6c63430008210033","linkReferences":{}},"methodIdentifiers":{"creditAmount()":"9995261a","getVoiceCredits(address,bytes)":"b36543a9"},"id":11}