{"abi":[{"type":"function","name":"verifyProof","inputs":[{"name":"","type":"uint256[2]","internalType":"uint256[2]"},{"name":"","type":"uint256[2][2]","internalType":"uint256[2][2]"},{"name":"","type":"uint256[2]","internalType":"uint256[2]"},{"name":"","type":"uint256[]","internalType":"uint256[]"}],"outputs":[{"name":"","type":"bool","internalType":"bool"}],"stateMutability":"pure"}],"bytecode":{"object":"0x608060405234601c57600e6020565b6101cc61002b82396101cc90f35b6026565b60405190565b5f80fdfe60806040526004361015610013575b61017b565b61001d5f3561002c565b63c32e370e0361000e57610142565b60e01c90565b60405190565b5f80fd5b5f80fd5b5f80fd5b5f80fd5b9190602060020283011161005857565b610044565b9190604060020283011161006d57565b610044565b5f80fd5b5f80fd5b909182601f830112156100b45781359167ffffffffffffffff83116100af5760200192602083028401116100aa57565b610044565b610076565b610072565b9061012082820312610116576100d1815f8401610048565b926100df826040850161005d565b926100ed8360c08301610048565b9261010082013567ffffffffffffffff81116101115761010d920161007a565b9091565b610040565b61003c565b151590565b6101299061011b565b9052565b9190610140905f60208501940190610120565b565b34610176576101726101616101583660046100b9565b93929092610183565b610169610032565b9182918261012d565b0390f35b610038565b5f80fd5b5f90565b505050505061019061017f565b5060019056fea264697066735822122006815fe3109dcb6ab1fa45cc708c699bf0b263d415c25824a6556f112b6fbca864736f6c63430008210033","linkReferences":{}},"methodIdentifiers":{"verifyProof(uint256[2],uint256[2][2],uint256[2],uint256[])":"c32e370e"},"id":5}