{"abi":[{"type":"constructor","inputs":[{"name":"_poll","type":"address","internalType":"address"},{"name":"_mp","type":"address","internalType":"address"},{"name":"_verifier","type":"address","internalType":"address"},{"name":"_vkRegistry","type":"address","internalType":"address"}],"stateMutability":"nonpayable"},{"type":"function","name":"abstainVotes","inputs":[],"outputs":[{"name":"","type":"uint256","internalType":"uint256"}],"stateMutability":"view"},{"type":"function","name":"againstVotes","inputs":[],"outputs":[{"name":"","type":"uint256","internalType":"uint256"}],"stateMutability":"view"},{"type":"function","name":"forVotes","inputs":[],"outputs":[{"name":"","type":"uint256","internalType":"uint256"}],"stateMutability":"view"},{"type":"function","name":"messageProcessor","inputs":[],"outputs":[{"name":"","type":"address","internalType":"address"}],"stateMutability":"view"},{"type":"function","name":"poll","inputs":[],"outputs":[{"name":"","type":"address","internalType":"address"}],"stateMutability":"view"},{"type":"function","name":"publishResults","inputs":[{"name":"_forVotes","type":"uint256","internalType":"uint256"},{"name":"_againstVotes","type":"uint256","internalType":"uint256"},{"name":"_abstainVotes","type":"uint256","internalType":"uint256"},{"name":"_totalVoters","type":"uint256","internalType":"uint256"},{"name":"_tallyResultsHash","type":"uint256","internalType":"uint256"}],"outputs":[],"stateMutability":"nonpayable"},{"type":"function","name":"tallyCommitment","inputs":[],"outputs":[{"name":"","type":"uint256","internalType":"uint256"}],"stateMutability":"view"},{"type":"function","name":"tallyVerified","inputs":[],"outputs":[{"name":"","type":"bool","internalType":"bool"}],"stateMutability":"view"},{"type":"function","name":"tallyVotes","inputs":[{"name":"_newTallyCommitment","type":"uint256","internalType":"uint256"},{"name":"_pA","type":"uint256[2]","internalType":"uint256[2]"},{"name":"_pB","type":"uint256[2][2]","internalType":"uint256[2][2]"},{"name":"_pC","type":"uint256[2]","internalType":"uint256[2]"}],"outputs":[],"stateMutability":"nonpayable"},{"type":"function","name":"totalVoters","inputs":[],"outputs":[{"name":"","type":"uint256","internalType":"uint256"}],"stateMutability":"view"},{"type":"function","name":"verifier","inputs":[],"outputs":[{"name":"","type":"address","internalType":"address"}],"stateMutability":"view"},{"type":"function","name":"vkRegistry","inputs":[],"outputs":[{"name":"","type":"address","internalType":"address"}],"stateMutability":"view"},{"type":"event","name":"Tallied","inputs":[{"name":"batchIndex","type":"uint256","indexed":true,"internalType":"uint256"},{"name":"newTallyCommitment","type":"uint256","indexed":false,"internalType":"uint256"}],"anonymous":false},{"type":"event","name":"TallyPublished","inputs":[{"name":"forVotes","type":"uint256","indexed":false,"internalType":"uint256"},{"name":"againstVotes","type":"uint256","indexed":false,"internalType":"uint256"},{"name":"abstainVotes","type":"uint256","indexed":false,"internalType":"uint256"},{"name":"totalVoters","type":"uint256","indexed":false,"internalType":"uint256"},{"name":"tallyCommitment","type":"uint256","indexed":false,"internalType":"uint256"}],"anonymous":false}],"bytecode":{"object":"0x6101006040523461006d5761001e61001561015a565b9291909161017e565b610026610072565b61121761018d823960805181610309015260a05181818161051101528181610c970152610d0e015260c0518181816102290152610e28015260e05181610197015261121790f35b610078565b60405190565b5f80fd5b601f801991011690565b634e487b7160e01b5f52604160045260245ffd5b906100a49061007c565b810190811060018060401b038211176100bc57604052565b610086565b906100d46100cd610072565b928361009a565b565b5f80fd5b60018060a01b031690565b6100ee906100da565b90565b6100fa816100e5565b0361010157565b5f80fd5b90505190610112826100f1565b565b6080818303126101555761012a825f8301610105565b9261015261013b8460208501610105565b936101498160408601610105565b93606001610105565b90565b6100d6565b6101786113a48038038061016d816100c1565b928339810190610114565b90919293565b60805260a05260c05260e05256fe60806040526004361015610013575b610639565b61001d5f356100dc565b80630be48894146100d757806313fb8932146100d25780632b7ac3f3146100cd5780635f5300ff146100c857806361750293146100c3578063a1175279146100be578063ab1e4d90146100b9578063bd108fd4146100b4578063cd482080146100af578063d0380fe2146100aa578063d6b225be146100a55763f0f8eb3f0361000e57610602565b610577565b610533565b6104d8565b610406565b6103c2565b61032b565b6102d2565b61028f565b61024b565b6101f2565b610160565b60e01c90565b60405190565b5f80fd5b5f80fd5b5f9103126100fa57565b6100ec565b1c90565b90565b61011690600861011b93026100ff565b610103565b90565b906101299154610106565b90565b61013860045f9061011e565b90565b90565b6101479061013b565b9052565b919061015e905f6020850194019061013e565b565b34610190576101703660046100f0565b61018c61017b61012c565b6101836100e2565b9182918261014b565b0390f35b6100e8565b7f000000000000000000000000000000000000000000000000000000000000000090565b60018060a01b031690565b6101cd906101b9565b90565b6101d9906101c4565b9052565b91906101f0905f602085019401906101d0565b565b34610222576102023660046100f0565b61021e61020d610195565b6102156100e2565b918291826101dd565b0390f35b6100e8565b7f000000000000000000000000000000000000000000000000000000000000000090565b3461027b5761025b3660046100f0565b610277610266610227565b61026e6100e2565b918291826101dd565b0390f35b6100e8565b61028c60055f9061011e565b90565b346102bf5761029f3660046100f0565b6102bb6102aa610280565b6102b26100e2565b9182918261014b565b0390f35b6100e8565b6102cf5f5f9061011e565b90565b34610302576102e23660046100f0565b6102fe6102ed6102c4565b6102f56100e2565b9182918261014b565b0390f35b6100e8565b7f000000000000000000000000000000000000000000000000000000000000000090565b3461035b5761033b3660046100f0565b610357610346610307565b61034e6100e2565b918291826101dd565b0390f35b6100e8565b60ff1690565b61037690600861037b93026100ff565b610360565b90565b906103899154610366565b90565b61039860015f9061037e565b90565b151590565b6103a99061039b565b9052565b91906103c0905f602085019401906103a0565b565b346103f2576103d23660046100f0565b6103ee6103dd61038c565b6103e56100e2565b918291826103ad565b0390f35b6100e8565b61040360025f9061011e565b90565b34610436576104163660046100f0565b6104326104216103f7565b6104296100e2565b9182918261014b565b0390f35b6100e8565b6104448161013b565b0361044b57565b5f80fd5b9050359061045c8261043b565b565b5f80fd5b9190602060020283011161047257565b61045e565b9190604060020283011161048757565b61045e565b610120818303126104ce576104a3825f830161044f565b926104cb6104b48460208501610462565b936104c28160608601610477565b9360e001610462565b90565b6100ec565b5f0190565b3461050a576104f46104eb36600461048c565b92919091610c88565b6104fc6100e2565b80610506816104d3565b0390f35b6100e8565b7f000000000000000000000000000000000000000000000000000000000000000090565b34610563576105433660046100f0565b61055f61054e61050f565b6105566100e2565b918291826101dd565b0390f35b6100e8565b61057460035f9061011e565b90565b346105a7576105873660046100f0565b6105a3610592610568565b61059a6100e2565b9182918261014b565b0390f35b6100e8565b919060a0838203126105fd576105c4815f850161044f565b926105d2826020830161044f565b926105fa6105e3846040850161044f565b936105f1816060860161044f565b9360800161044f565b90565b6100ec565b346106345761061e6106153660046105ac565b93929092611116565b6106266100e2565b80610630816104d3565b0390f35b6100e8565b5f80fd5b90565b61065461064f610659926101b9565b61063d565b6101b9565b90565b61066590610640565b90565b6106719061065c565b90565b61067d90610640565b90565b61068990610674565b90565b601f801991011690565b634e487b7160e01b5f52604160045260245ffd5b906106b49061068c565b810190811067ffffffffffffffff8211176106ce57604052565b610696565b60e01b90565b6106e28161039b565b036106e957565b5f80fd5b905051906106fa826106d9565b565b9060208282031261071557610712915f016106ed565b90565b6100ec565b6107226100e2565b3d5f823e3d90fd5b60209181520190565b5f7f50726f63657373696e67206e6f7420646f6e6500000000000000000000000000910152565b610767601360209261072a565b61077081610733565b0190565b6107899060208101905f81830391015261075a565b90565b1561079357565b61079b6100e2565b62461bcd60e51b8152806107b160048201610774565b0390fd5b905051906107c28261043b565b565b906020828203126107dd576107da915f016107b5565b90565b6100ec565b5f1c90565b6107f36107f8916107e2565b610103565b90565b61080590546107e7565b90565b90565b61081761081c9161013b565b610808565b9052565b6020939261083f858361083782956108479761080b565b01809261080b565b01809261080b565b0190565b5f1b90565b5190565b905090565b90825f9392825e0152565b6108896108809260209261087781610850565b94858093610854565b93849101610859565b0190565b61089691610864565b90565b6108ad6108a86108b29261013b565b61063d565b61013b565b90565b6108c16108c6916107e2565b610899565b90565b90565b6108e06108db6108e5926108c9565b61063d565b61013b565b90565b6109117f30644e72e131a029b85045b68181585d2833e84879b9709143e1f593f00000016108cc565b90565b634e487b7160e01b5f52601260045260245ffd5b61093461093a9161013b565b9161013b565b908115610945570690565b610914565b90565b61096161095c6109669261094a565b61063d565b61013b565b90565b9061097c6109756100e2565b92836106aa565b565b67ffffffffffffffff81116109965760208091020190565b610696565b906109ad6109a88361097e565b610969565b918252565b369037565b906109dc6109c48361099b565b926020806109d2869361097e565b92019103906109b2565b565b634e487b7160e01b5f52603260045260245ffd5b5190565b90610a00826109f2565b811015610a11576020809102010190565b6109de565b90565b610a2d610a28610a3292610a16565b61063d565b61013b565b90565b90610a3f9061013b565b9052565b610a4c90610640565b90565b610a5890610a43565b90565b610a6490610674565b90565b9037565b610a7791604091610a67565b565b50600290565b905090565b90565b610a9391604091610a67565b565b90610aa281604093610a87565b0190565b5090565b60400190565b610acc610ac6610abf83610a79565b8094610a7f565b91610a84565b805f925b848410610ade575050505050565b610afc610af6600192610af18686610aa6565b610a95565b93610aaa565b93019291610ad0565b60209181520190565b60200190565b610b1d9061013b565b9052565b90610b2e81602093610b14565b0190565b60200190565b90610b55610b4f610b48846109f2565b8093610b05565b92610b0e565b905f5b818110610b655750505090565b909192610b7e610b786001928651610b21565b94610b32565b9101919091610b58565b9092610bbc90610bb2610bca9694610ba86101208601975f870190610a6b565b6040850190610ab0565b60c0830190610a6b565b610100818403910152610b38565b90565b5f7f496e76616c69642074616c6c792070726f6f6600000000000000000000000000910152565b610c01601360209261072a565b610c0a81610bcd565b0190565b610c239060208101905f818303910152610bf4565b90565b15610c2d57565b610c356100e2565b62461bcd60e51b815280610c4b60048201610c0e565b0390fd5b90610c5b5f199161084b565b9181191691161790565b90565b90610c7d610c78610c8492610899565b610c65565b8254610c4f565b9055565b9291610cd66020610cc0610cbb7f0000000000000000000000000000000000000000000000000000000000000000610668565b610680565b638763d0c490610cce6100e2565b9384926106d3565b82528180610ce6600482016104d3565b03915afa8015610f7b57610d01915f91610f4d575b5061078c565b610d4d6020610d37610d327f0000000000000000000000000000000000000000000000000000000000000000610668565b610680565b63ec9289a890610d456100e2565b9384926106d3565b82528180610d5d600482016104d3565b03915afa8015610f4857610dba5f916020938391610f1b575b50610da9610d83846107fb565b91610d9b8a610d906100e2565b948593898501610820565b8682018103825203826106aa565b610db16100e2565b9182918261088d565b039060025afa15610f1657602091610e6e610dee610de0610ddb5f5161084b565b6108b5565b610de86108e8565b90610928565b91610e1d610e04610dff600161094d565b6109b7565b93610e1885610e125f610a19565b906109f6565b610a35565b610e79610e51610e4c7f0000000000000000000000000000000000000000000000000000000000000000610a4f565b610a5b565b9363c32e370e929597610e626100e2565b988997889687966106d3565b865260048601610b88565b03915afa8015610f1157610e94915f91610ee3575b50610c26565b610e9e815f610c68565b5f610ede610ecc7f2cd46686ba2b1dcdcf21f90868790f28defcdbdecf463ff91008b2602bae6fd092610a19565b92610ed56100e2565b9182918261014b565b0390a2565b610f04915060203d8111610f0a575b610efc81836106aa565b8101906106fc565b5f610e8e565b503d610ef2565b61071a565b61071a565b610f3b9150843d8111610f41575b610f3381836106aa565b8101906107c4565b5f610d76565b503d610f29565b61071a565b610f6e915060203d8111610f74575b610f6681836106aa565b8101906106fc565b5f610cfb565b503d610f5c565b61071a565b5f7f54616c6c79206e6f7420636f6d70757465640000000000000000000000000000910152565b610fb4601260209261072a565b610fbd81610f80565b0190565b610fd69060208101905f818303910152610fa7565b90565b15610fe057565b610fe86100e2565b62461bcd60e51b815280610ffe60048201610fc1565b0390fd5b5f7f526573756c74732068617368206d69736d617463680000000000000000000000910152565b611036601560209261072a565b61103f81611002565b0190565b6110589060208101905f818303910152611029565b90565b1561106257565b61106a6100e2565b62461bcd60e51b81528061108060048201611043565b0390fd5b9061109060ff9161084b565b9181191691161790565b6110a39061039b565b90565b90565b906110be6110b96110c59261109a565b6110a6565b8254611084565b9055565b909594926111149461110361110d926110f96080966110ef60a088019c5f89019061013e565b602087019061013e565b604085019061013e565b606083019061013e565b019061013e565b565b6111656111dc9293949561114561112c5f6107fb565b61113e6111385f610a19565b9161013b565b1415610fd9565b61115f6111596111545f6107fb565b61013b565b9161013b565b1461105b565b611170816002610c68565b61117b836003610c68565b611186846004610c68565b611191856005610c68565b61119c6001806110a9565b9192936111a85f6107fb565b907f1a87e699009c30092e650d734c3d2a0cbda2227c553ae56e71790afacf04d315956111d36100e2565b958695866110c9565b0390a156fea2646970667358221220f6da678370e057fc7315179e3562269b9a5d248825a1ba5ef8b3c10046cae65f64736f6c63430008210033","linkReferences":{}},"methodIdentifiers":{"abstainVotes()":"0be48894","againstVotes()":"d6b225be","forVotes()":"bd108fd4","messageProcessor()":"d0380fe2","poll()":"a1175279","publishResults(uint256,uint256,uint256,uint256,uint256)":"f0f8eb3f","tallyCommitment()":"61750293","tallyVerified()":"ab1e4d90","tallyVotes(uint256,uint256[2],uint256[2][2],uint256[2])":"cd482080","totalVoters()":"5f5300ff","verifier()":"2b7ac3f3","vkRegistry()":"13fb8932"},"id":8}