{"abi":[{"type":"constructor","inputs":[{"name":"_poll","type":"address","internalType":"address"},{"name":"_mp","type":"address","internalType":"address"},{"name":"_verifier","type":"address","internalType":"address"},{"name":"_vkRegistry","type":"address","internalType":"address"},{"name":"_coordinator","type":"address","internalType":"address"}],"stateMutability":"nonpayable"},{"type":"function","name":"abstainVotes","inputs":[],"outputs":[{"name":"","type":"uint256","internalType":"uint256"}],"stateMutability":"view"},{"type":"function","name":"againstVotes","inputs":[],"outputs":[{"name":"","type":"uint256","internalType":"uint256"}],"stateMutability":"view"},{"type":"function","name":"coordinator","inputs":[],"outputs":[{"name":"","type":"address","internalType":"address"}],"stateMutability":"view"},{"type":"function","name":"forVotes","inputs":[],"outputs":[{"name":"","type":"uint256","internalType":"uint256"}],"stateMutability":"view"},{"type":"function","name":"messageProcessor","inputs":[],"outputs":[{"name":"","type":"address","internalType":"address"}],"stateMutability":"view"},{"type":"function","name":"poll","inputs":[],"outputs":[{"name":"","type":"address","internalType":"address"}],"stateMutability":"view"},{"type":"function","name":"publishResults","inputs":[{"name":"_forVotes","type":"uint256","internalType":"uint256"},{"name":"_againstVotes","type":"uint256","internalType":"uint256"},{"name":"_abstainVotes","type":"uint256","internalType":"uint256"},{"name":"_totalVoters","type":"uint256","internalType":"uint256"},{"name":"_tallyResultsRoot","type":"uint256","internalType":"uint256"},{"name":"_totalSpent","type":"uint256","internalType":"uint256"},{"name":"_perOptionSpentRoot","type":"uint256","internalType":"uint256"}],"outputs":[],"stateMutability":"nonpayable"},{"type":"function","name":"tallyCommitment","inputs":[],"outputs":[{"name":"","type":"uint256","internalType":"uint256"}],"stateMutability":"view"},{"type":"function","name":"tallyVerified","inputs":[],"outputs":[{"name":"","type":"bool","internalType":"bool"}],"stateMutability":"view"},{"type":"function","name":"tallyVotes","inputs":[{"name":"_newTallyCommitment","type":"uint256","internalType":"uint256"},{"name":"_pA","type":"uint256[2]","internalType":"uint256[2]"},{"name":"_pB","type":"uint256[2][2]","internalType":"uint256[2][2]"},{"name":"_pC","type":"uint256[2]","internalType":"uint256[2]"}],"outputs":[],"stateMutability":"nonpayable"},{"type":"function","name":"totalVoters","inputs":[],"outputs":[{"name":"","type":"uint256","internalType":"uint256"}],"stateMutability":"view"},{"type":"function","name":"verifier","inputs":[],"outputs":[{"name":"","type":"address","internalType":"address"}],"stateMutability":"view"},{"type":"function","name":"vkRegistry","inputs":[],"outputs":[{"name":"","type":"address","internalType":"address"}],"stateMutability":"view"},{"type":"event","name":"Tallied","inputs":[{"name":"batchIndex","type":"uint256","indexed":true,"internalType":"uint256"},{"name":"newTallyCommitment","type":"uint256","indexed":false,"internalType":"uint256"}],"anonymous":false},{"type":"event","name":"TallyPublished","inputs":[{"name":"forVotes","type":"uint256","indexed":false,"internalType":"uint256"},{"name":"againstVotes","type":"uint256","indexed":false,"internalType":"uint256"},{"name":"abstainVotes","type":"uint256","indexed":false,"internalType":"uint256"},{"name":"totalVoters","type":"uint256","indexed":false,"internalType":"uint256"},{"name":"tallyCommitment","type":"uint256","indexed":false,"internalType":"uint256"}],"anonymous":false},{"type":"error","name":"NotCoordinator","inputs":[]}],"bytecode":{"object":"0x6101006040523461006d5761001e61001561016a565b93929092610209565b610026610072565b61151c61022682396080518161038e015260a051818181610640015281816111ed0152611264015260c0518181816102ad015261137f015260e05181610254015261151c90f35b610078565b60405190565b5f80fd5b601f801991011690565b634e487b7160e01b5f52604160045260245ffd5b906100a49061007c565b810190811060018060401b038211176100bc57604052565b610086565b906100d46100cd610072565b928361009a565b565b5f80fd5b60018060a01b031690565b6100ee906100da565b90565b6100fa816100e5565b0361010157565b5f80fd5b90505190610112826100f1565b565b919060a0838203126101655761012c815f8501610105565b9261013a8260208301610105565b9261016261014b8460408501610105565b936101598160608601610105565b93608001610105565b90565b6100d6565b6101886117428038038061017d816100c1565b928339810190610114565b9091929394565b5f1b90565b906101a560018060a01b039161018f565b9181191691161790565b90565b6101c66101c16101cb926100da565b6101af565b6100da565b90565b6101d7906101b2565b90565b6101e3906101ce565b90565b90565b906101fe6101f9610205926101da565b6101e6565b8254610194565b9055565b906102239493929160805260a05260c05260e0525f6101e9565b56fe60806040526004361015610013575b6106db565b61001d5f356100ec565b80630a009097146100e75780630be48894146100e257806313fb8932146100dd5780632b7ac3f3146100d85780635f5300ff146100d357806361750293146100ce578063a1175279146100c9578063ab1e4d90146100c4578063bc359e3c146100bf578063bd108fd4146100ba578063cd482080146100b5578063d0380fe2146100b05763d6b225be0361000e576106a6565b610662565b610607565b61055d565b610514565b610447565b6103b0565b610357565b610313565b6102cf565b610276565b61021d565b61018b565b60e01c90565b60405190565b5f80fd5b5f80fd5b5f91031261010a57565b6100fc565b1c90565b60018060a01b031690565b61012e906008610133930261010f565b610113565b90565b90610141915461011e565b90565b61014f5f5f90610136565b90565b60018060a01b031690565b61016690610152565b90565b6101729061015d565b9052565b9190610189905f60208501940190610169565b565b346101bb5761019b366004610100565b6101b76101a6610144565b6101ae6100f2565b91829182610176565b0390f35b6100f8565b90565b6101d39060086101d8930261010f565b6101c0565b90565b906101e691546101c3565b90565b6101f560055f906101db565b90565b90565b610204906101f8565b9052565b919061021b905f602085019401906101fb565b565b3461024d5761022d366004610100565b6102496102386101e9565b6102406100f2565b91829182610208565b0390f35b6100f8565b7f000000000000000000000000000000000000000000000000000000000000000090565b346102a657610286366004610100565b6102a2610291610252565b6102996100f2565b91829182610176565b0390f35b6100f8565b7f000000000000000000000000000000000000000000000000000000000000000090565b346102ff576102df366004610100565b6102fb6102ea6102ab565b6102f26100f2565b91829182610176565b0390f35b6100f8565b61031060065f906101db565b90565b3461034357610323366004610100565b61033f61032e610304565b6103366100f2565b91829182610208565b0390f35b6100f8565b61035460015f906101db565b90565b3461038757610367366004610100565b610383610372610348565b61037a6100f2565b91829182610208565b0390f35b6100f8565b7f000000000000000000000000000000000000000000000000000000000000000090565b346103e0576103c0366004610100565b6103dc6103cb61038c565b6103d36100f2565b91829182610176565b0390f35b6100f8565b60ff1690565b6103fb906008610400930261010f565b6103e5565b90565b9061040e91546103eb565b90565b61041d60025f90610403565b90565b151590565b61042e90610420565b9052565b9190610445905f60208501940190610425565b565b3461047757610457366004610100565b610473610462610411565b61046a6100f2565b91829182610432565b0390f35b6100f8565b610485816101f8565b0361048c57565b5f80fd5b9050359061049d8261047c565b565b60e08183031261050a576104b5825f8301610490565b926104c38360208401610490565b926104d18160408501610490565b926104df8260608301610490565b926105076104f08460808501610490565b936104fe8160a08601610490565b9360c001610490565b90565b6100fc565b5f0190565b346105495761053361052736600461049f565b95949094939193610c90565b61053b6100f2565b806105458161050f565b0390f35b6100f8565b61055a60035f906101db565b90565b3461058d5761056d366004610100565b61058961057861054e565b6105806100f2565b91829182610208565b0390f35b6100f8565b5f80fd5b919060206002028301116105a657565b610592565b919060406002028301116105bb57565b610592565b61012081830312610602576105d7825f8301610490565b926105ff6105e88460208501610596565b936105f681606086016105ab565b9360e001610596565b90565b6100fc565b346106395761062361061a3660046105c0565b929190916114d8565b61062b6100f2565b806106358161050f565b0390f35b6100f8565b7f000000000000000000000000000000000000000000000000000000000000000090565b3461069257610672366004610100565b61068e61067d61063e565b6106856100f2565b91829182610176565b0390f35b6100f8565b6106a360045f906101db565b90565b346106d6576106b6366004610100565b6106d26106c1610697565b6106c96100f2565b91829182610208565b0390f35b6100f8565b5f80fd5b5f1c90565b6106f06106f5916106df565b610113565b90565b61070290546106e4565b90565b9594939291903361072661072061071b5f6106f8565b61015d565b9161015d565b036107365761073496610afe565b565b5f634f6429f360e11b81528061074e6004820161050f565b0390fd5b61075e610763916106df565b6101c0565b90565b6107709054610752565b90565b90565b90565b61078d61078861079292610773565b610776565b6101f8565b90565b60209181520190565b5f7f54616c6c79206e6f7420636f6d70757465640000000000000000000000000000910152565b6107d26012602092610795565b6107db8161079e565b0190565b6107f49060208101905f8183039101526107c5565b90565b156107fe57565b6108066100f2565b62461bcd60e51b81528061081c600482016107df565b0390fd5b90565b601f801991011690565b634e487b7160e01b5f52604160045260245ffd5b9061084b90610823565b810190811067ffffffffffffffff82111761086557604052565b61082d565b9061087d6108766100f2565b9283610841565b565b67ffffffffffffffff81116108945760200290565b61082d565b6108a56108aa9161087f565b61086a565b90565b906108b7906101f8565b9052565b60e01b90565b905051906108ce8261047c565b565b906020828203126108e9576108e6915f016108c1565b90565b6100fc565b50600390565b905090565b90565b610905906101f8565b9052565b90610916816020936108fc565b0190565b60200190565b61093c61093661092f836108ee565b80946108f4565b916108f9565b5f915b83831061094c5750505050565b61096261095c6001928451610909565b9261091a565b9201919061093f565b919061097e905f60608501940190610920565b565b6109886100f2565b3d5f823e3d90fd5b5f7f54616c6c7920636f6d6d69746d656e74206d69736d6174636800000000000000910152565b6109c46019602092610795565b6109cd81610990565b0190565b6109e69060208101905f8183039101526109b7565b90565b156109f057565b6109f86100f2565b62461bcd60e51b815280610a0e600482016109d1565b0390fd5b5f1b90565b90610a235f1991610a12565b9181191691161790565b610a41610a3c610a46926101f8565b610776565b6101f8565b90565b90565b90610a61610a5c610a6892610a2d565b610a49565b8254610a17565b9055565b90610a7860ff91610a12565b9181191691161790565b610a8b90610420565b90565b90565b90610aa6610aa1610aad92610a82565b610a8e565b8254610a6c565b9055565b90959492610afc94610aeb610af592610ae1608096610ad760a088019c5f8901906101fb565b60208701906101fb565b60408501906101fb565b60608301906101fb565b01906101fb565b565b919493610ba39396610b9860209396610b33610b1a6001610766565b610b2c610b265f610779565b916101f8565b14156107f7565b610b84610b5373__$e6593f94c90cc379e27dbde2e547f9549a$__610820565b93610b7b6320cf0a3793610b73610b6a6003610899565b985f8a016108ad565b8888016108ad565b604086016108ad565b610b8c6100f2565b968794859384936108bb565b83526004830161096b565b03915af4918215610c8b57610c5892610bdf915f91610c5d575b50610bd9610bd3610bce6001610766565b6101f8565b916101f8565b146109e9565b610bea816003610a4c565b610bf5836004610a4c565b610c00846005610a4c565b610c0b856006610a4c565b610c1760016002610a91565b919293610c246001610766565b907f1a87e699009c30092e650d734c3d2a0cbda2227c553ae56e71790afacf04d31595610c4f6100f2565b95869586610ab1565b0390a1565b610c7e915060203d8111610c84575b610c768183610841565b8101906108d0565b5f610bbd565b503d610c6c565b610980565b90610c9f969594939291610705565b565b92919033610cbf610cb9610cb45f6106f8565b61015d565b9161015d565b03610ccf57610ccd936111de565b565b5f634f6429f360e11b815280610ce76004820161050f565b0390fd5b610cff610cfa610d0492610152565b610776565b610152565b90565b610d1090610ceb565b90565b610d1c90610d07565b90565b610d2890610ceb565b90565b610d3490610d1f565b90565b610d4081610420565b03610d4757565b5f80fd5b90505190610d5882610d37565b565b90602082820312610d7357610d70915f01610d4b565b90565b6100fc565b5f7f50726f63657373696e67206e6f7420646f6e6500000000000000000000000000910152565b610dac6013602092610795565b610db581610d78565b0190565b610dce9060208101905f818303910152610d9f565b90565b15610dd857565b610de06100f2565b62461bcd60e51b815280610df660048201610db9565b0390fd5b90565b610e09610e0e916101f8565b610dfa565b9052565b60209392610e318583610e298295610e3997610dfd565b018092610dfd565b018092610dfd565b0190565b5190565b905090565b90825f9392825e0152565b610e76610e6d92602092610e6481610e3d565b94858093610e41565b93849101610e46565b0190565b610e8391610e51565b90565b610e92610e97916106df565b610a2d565b90565b90565b610eb1610eac610eb692610e9a565b610776565b6101f8565b90565b610ee27f30644e72e131a029b85045b68181585d2833e84879b9709143e1f593f0000001610e9d565b90565b634e487b7160e01b5f52601260045260245ffd5b610f05610f0b916101f8565b916101f8565b908115610f16570690565b610ee5565b90565b610f32610f2d610f3792610f1b565b610776565b6101f8565b90565b67ffffffffffffffff8111610f525760208091020190565b61082d565b90610f69610f6483610f3a565b61086a565b918252565b369037565b90610f98610f8083610f57565b92602080610f8e8693610f3a565b9201910390610f6e565b565b634e487b7160e01b5f52603260045260245ffd5b5190565b90610fbc82610fae565b811015610fcd576020809102010190565b610f9a565b610fdb90610ceb565b90565b610fe790610fd2565b90565b610ff390610d1f565b90565b9037565b61100691604091610ff6565b565b50600290565b905090565b90565b61102291604091610ff6565b565b9061103181604093611016565b0190565b5090565b60400190565b61105b61105561104e83611008565b809461100e565b91611013565b805f925b84841061106d575050505050565b61108b6110856001926110808686611035565b611024565b93611039565b9301929161105f565b60209181520190565b60200190565b6110ac906101f8565b9052565b906110bd816020936110a3565b0190565b60200190565b906110e46110de6110d784610fae565b8093611094565b9261109d565b905f5b8181106110f45750505090565b90919261110d61110760019286516110b0565b946110c1565b91019190916110e7565b909261114b9061114161115996946111376101208601975f870190610ffa565b604085019061103f565b60c0830190610ffa565b6101008184039101526110c7565b90565b5f7f496e76616c69642074616c6c792070726f6f6600000000000000000000000000910152565b6111906013602092610795565b6111998161115c565b0190565b6111b29060208101905f818303910152611183565b90565b156111bc57565b6111c46100f2565b62461bcd60e51b8152806111da6004820161119d565b0390fd5b929161122c60206112166112117f0000000000000000000000000000000000000000000000000000000000000000610d13565b610d2b565b638763d0c4906112246100f2565b9384926108bb565b8252818061123c6004820161050f565b03915afa80156114d357611257915f916114a5575b50610dd1565b6112a3602061128d6112887f0000000000000000000000000000000000000000000000000000000000000000610d13565b610d2b565b63ec9289a89061129b6100f2565b9384926108bb565b825281806112b36004820161050f565b03915afa80156114a0576113115f916020938391611473575b506113006112da6001610766565b916112f28a6112e76100f2565b948593898501610e12565b868201810382520382610841565b6113086100f2565b91829182610e7a565b039060025afa1561146e576020916113c56113456113376113325f51610a12565b610e86565b61133f610eb9565b90610ef9565b9161137461135b6113566001610f1e565b610f73565b9361136f856113695f610779565b90610fb2565b6108ad565b6113d06113a86113a37f0000000000000000000000000000000000000000000000000000000000000000610fde565b610fea565b9363c32e370e9295976113b96100f2565b988997889687966108bb565b865260048601611117565b03915afa8015611469576113eb915f9161143b575b506111b5565b6113f6816001610a4c565b5f6114366114247f2cd46686ba2b1dcdcf21f90868790f28defcdbdecf463ff91008b2602bae6fd092610779565b9261142d6100f2565b91829182610208565b0390a2565b61145c915060203d8111611462575b6114548183610841565b810190610d5a565b5f6113e5565b503d61144a565b610980565b610980565b6114939150843d8111611499575b61148b8183610841565b8101906108d0565b5f6112cc565b503d611481565b610980565b6114c6915060203d81116114cc575b6114be8183610841565b810190610d5a565b5f611251565b503d6114b4565b610980565b906114e4939291610ca1565b56fea2646970667358221220808c8bccffae547c459f6389e6a1f689c421aa4fb92f5a3d09e6a50b67ae617d64736f6c63430008210033","linkReferences":{"node_modules/poseidon-solidity/PoseidonT4.sol":{"PoseidonT4":[{"start":3425,"length":20}]}}},"methodIdentifiers":{"abstainVotes()":"0be48894","againstVotes()":"d6b225be","coordinator()":"0a009097","forVotes()":"bd108fd4","messageProcessor()":"d0380fe2","poll()":"a1175279","publishResults(uint256,uint256,uint256,uint256,uint256,uint256,uint256)":"bc359e3c","tallyCommitment()":"61750293","tallyVerified()":"ab1e4d90","tallyVotes(uint256,uint256[2],uint256[2][2],uint256[2])":"cd482080","totalVoters()":"5f5300ff","verifier()":"2b7ac3f3","vkRegistry()":"13fb8932"},"id":10}