{"abi":[{"type":"constructor","inputs":[{"name":"_verifierD1","type":"address","internalType":"address"},{"name":"_verifierD2","type":"address","internalType":"address"},{"name":"_tonToken","type":"address","internalType":"address"},{"name":"_treasury","type":"address","internalType":"address"}],"stateMutability":"nonpayable"},{"type":"function","name":"CHOICE_ABSTAIN","inputs":[],"outputs":[{"name":"","type":"uint256","internalType":"uint256"}],"stateMutability":"view"},{"type":"function","name":"CHOICE_AGAINST","inputs":[],"outputs":[{"name":"","type":"uint256","internalType":"uint256"}],"stateMutability":"view"},{"type":"function","name":"CHOICE_FOR","inputs":[],"outputs":[{"name":"","type":"uint256","internalType":"uint256"}],"stateMutability":"view"},{"type":"function","name":"INITIAL_CREDITS","inputs":[],"outputs":[{"name":"","type":"uint256","internalType":"uint256"}],"stateMutability":"view"},{"type":"function","name":"calculateQuadraticCost","inputs":[{"name":"numVotes","type":"uint256","internalType":"uint256"}],"outputs":[{"name":"","type":"uint256","internalType":"uint256"}],"stateMutability":"pure"},{"type":"function","name":"castVoteD1","inputs":[{"name":"_proposalId","type":"uint256","internalType":"uint256"},{"name":"_commitment","type":"uint256","internalType":"uint256"},{"name":"_votingPower","type":"uint256","internalType":"uint256"},{"name":"_nullifier","type":"uint256","internalType":"uint256"},{"name":"_pA","type":"uint256[2]","internalType":"uint256[2]"},{"name":"_pB","type":"uint256[2][2]","internalType":"uint256[2][2]"},{"name":"_pC","type":"uint256[2]","internalType":"uint256[2]"}],"outputs":[],"stateMutability":"nonpayable"},{"type":"function","name":"castVoteD2","inputs":[{"name":"_proposalId","type":"uint256","internalType":"uint256"},{"name":"_commitment","type":"uint256","internalType":"uint256"},{"name":"_numVotes","type":"uint256","internalType":"uint256"},{"name":"_creditsSpent","type":"uint256","internalType":"uint256"},{"name":"_nullifier","type":"uint256","internalType":"uint256"},{"name":"_pA","type":"uint256[2]","internalType":"uint256[2]"},{"name":"_pB","type":"uint256[2][2]","internalType":"uint256[2][2]"},{"name":"_pC","type":"uint256[2]","internalType":"uint256[2]"}],"outputs":[],"stateMutability":"nonpayable"},{"type":"function","name":"commitmentsD1","inputs":[{"name":"","type":"uint256","internalType":"uint256"},{"name":"","type":"uint256","internalType":"uint256"}],"outputs":[{"name":"commitment","type":"uint256","internalType":"uint256"},{"name":"votingPower","type":"uint256","internalType":"uint256"},{"name":"nullifier","type":"uint256","internalType":"uint256"},{"name":"timestamp","type":"uint256","internalType":"uint256"},{"name":"revealed","type":"bool","internalType":"bool"},{"name":"revealedChoice","type":"uint256","internalType":"uint256"},{"name":"exists","type":"bool","internalType":"bool"}],"stateMutability":"view"},{"type":"function","name":"commitmentsD2","inputs":[{"name":"","type":"uint256","internalType":"uint256"},{"name":"","type":"uint256","internalType":"uint256"}],"outputs":[{"name":"commitment","type":"uint256","internalType":"uint256"},{"name":"creditsSpent","type":"uint256","internalType":"uint256"},{"name":"numVotes","type":"uint256","internalType":"uint256"},{"name":"nullifier","type":"uint256","internalType":"uint256"},{"name":"timestamp","type":"uint256","internalType":"uint256"},{"name":"revealed","type":"bool","internalType":"bool"},{"name":"revealedChoice","type":"uint256","internalType":"uint256"},{"name":"exists","type":"bool","internalType":"bool"}],"stateMutability":"view"},{"type":"function","name":"createProposalD1","inputs":[{"name":"_title","type":"string","internalType":"string"},{"name":"_description","type":"string","internalType":"string"},{"name":"_merkleRoot","type":"uint256","internalType":"uint256"},{"name":"_votingDuration","type":"uint256","internalType":"uint256"},{"name":"_revealDuration","type":"uint256","internalType":"uint256"}],"outputs":[{"name":"","type":"uint256","internalType":"uint256"}],"stateMutability":"nonpayable"},{"type":"function","name":"createProposalD2","inputs":[{"name":"_title","type":"string","internalType":"string"},{"name":"_description","type":"string","internalType":"string"},{"name":"_creditRoot","type":"uint256","internalType":"uint256"},{"name":"_votingDuration","type":"uint256","internalType":"uint256"},{"name":"_revealDuration","type":"uint256","internalType":"uint256"}],"outputs":[{"name":"","type":"uint256","internalType":"uint256"}],"stateMutability":"nonpayable"},{"type":"function","name":"creditRootHistory","inputs":[{"name":"","type":"uint256","internalType":"uint256"}],"outputs":[{"name":"","type":"uint256","internalType":"uint256"}],"stateMutability":"view"},{"type":"function","name":"getAvailableCredits","inputs":[{"name":"user","type":"address","internalType":"address"}],"outputs":[{"name":"","type":"uint256","internalType":"uint256"}],"stateMutability":"view"},{"type":"function","name":"getPhaseD2","inputs":[{"name":"_proposalId","type":"uint256","internalType":"uint256"}],"outputs":[{"name":"","type":"uint8","internalType":"uint8"}],"stateMutability":"view"},{"type":"function","name":"getProposalD1","inputs":[{"name":"_proposalId","type":"uint256","internalType":"uint256"}],"outputs":[{"name":"id","type":"uint256","internalType":"uint256"},{"name":"title","type":"string","internalType":"string"},{"name":"description","type":"string","internalType":"string"},{"name":"proposer","type":"address","internalType":"address"},{"name":"merkleRoot","type":"uint256","internalType":"uint256"},{"name":"endTime","type":"uint256","internalType":"uint256"},{"name":"revealEndTime","type":"uint256","internalType":"uint256"},{"name":"forVotes","type":"uint256","internalType":"uint256"},{"name":"againstVotes","type":"uint256","internalType":"uint256"},{"name":"abstainVotes","type":"uint256","internalType":"uint256"},{"name":"totalCommitments","type":"uint256","internalType":"uint256"},{"name":"revealedVotes","type":"uint256","internalType":"uint256"},{"name":"phase","type":"uint8","internalType":"uint8"}],"stateMutability":"view"},{"type":"function","name":"getProposalD2","inputs":[{"name":"_proposalId","type":"uint256","internalType":"uint256"}],"outputs":[{"name":"id","type":"uint256","internalType":"uint256"},{"name":"title","type":"string","internalType":"string"},{"name":"description","type":"string","internalType":"string"},{"name":"proposer","type":"address","internalType":"address"},{"name":"creditRoot","type":"uint256","internalType":"uint256"},{"name":"endTime","type":"uint256","internalType":"uint256"},{"name":"revealEndTime","type":"uint256","internalType":"uint256"},{"name":"forVotes","type":"uint256","internalType":"uint256"},{"name":"againstVotes","type":"uint256","internalType":"uint256"},{"name":"abstainVotes","type":"uint256","internalType":"uint256"},{"name":"totalCreditsSpent","type":"uint256","internalType":"uint256"},{"name":"totalCommitments","type":"uint256","internalType":"uint256"},{"name":"revealedVotes","type":"uint256","internalType":"uint256"},{"name":"phase","type":"uint8","internalType":"uint8"}],"stateMutability":"view"},{"type":"function","name":"getRegisteredCreditNotes","inputs":[],"outputs":[{"name":"","type":"uint256[]","internalType":"uint256[]"}],"stateMutability":"view"},{"type":"function","name":"getRegisteredVoters","inputs":[],"outputs":[{"name":"","type":"uint256[]","internalType":"uint256[]"}],"stateMutability":"view"},{"type":"function","name":"getVoterCount","inputs":[],"outputs":[{"name":"","type":"uint256","internalType":"uint256"}],"stateMutability":"view"},{"type":"function","name":"initializeCredits","inputs":[],"outputs":[],"stateMutability":"nonpayable"},{"type":"function","name":"isCreditNoteRegistered","inputs":[{"name":"","type":"uint256","internalType":"uint256"}],"outputs":[{"name":"","type":"bool","internalType":"bool"}],"stateMutability":"view"},{"type":"function","name":"isCreditRootValid","inputs":[{"name":"_creditRoot","type":"uint256","internalType":"uint256"}],"outputs":[{"name":"","type":"bool","internalType":"bool"}],"stateMutability":"view"},{"type":"function","name":"isMerkleRootValid","inputs":[{"name":"_merkleRoot","type":"uint256","internalType":"uint256"}],"outputs":[{"name":"","type":"bool","internalType":"bool"}],"stateMutability":"view"},{"type":"function","name":"isVoterRegistered","inputs":[{"name":"","type":"uint256","internalType":"uint256"}],"outputs":[{"name":"","type":"bool","internalType":"bool"}],"stateMutability":"view"},{"type":"function","name":"merkleRootHistory","inputs":[{"name":"","type":"uint256","internalType":"uint256"}],"outputs":[{"name":"","type":"uint256","internalType":"uint256"}],"stateMutability":"view"},{"type":"function","name":"mintTestTokens","inputs":[{"name":"amount","type":"uint256","internalType":"uint256"}],"outputs":[],"stateMutability":"nonpayable"},{"type":"function","name":"nullifierUsedD1","inputs":[{"name":"","type":"uint256","internalType":"uint256"},{"name":"","type":"uint256","internalType":"uint256"}],"outputs":[{"name":"","type":"bool","internalType":"bool"}],"stateMutability":"view"},{"type":"function","name":"nullifierUsedD2","inputs":[{"name":"","type":"uint256","internalType":"uint256"},{"name":"","type":"uint256","internalType":"uint256"}],"outputs":[{"name":"","type":"bool","internalType":"bool"}],"stateMutability":"view"},{"type":"function","name":"onApprove","inputs":[{"name":"owner","type":"address","internalType":"address"},{"name":"spender","type":"address","internalType":"address"},{"name":"amount","type":"uint256","internalType":"uint256"},{"name":"data","type":"bytes","internalType":"bytes"}],"outputs":[{"name":"","type":"bool","internalType":"bool"}],"stateMutability":"nonpayable"},{"type":"function","name":"proposalCountD1","inputs":[],"outputs":[{"name":"","type":"uint256","internalType":"uint256"}],"stateMutability":"view"},{"type":"function","name":"proposalCountD2","inputs":[],"outputs":[{"name":"","type":"uint256","internalType":"uint256"}],"stateMutability":"view"},{"type":"function","name":"proposalVoterSnapshots","inputs":[{"name":"","type":"uint256","internalType":"uint256"},{"name":"","type":"uint256","internalType":"uint256"}],"outputs":[{"name":"","type":"uint256","internalType":"uint256"}],"stateMutability":"view"},{"type":"function","name":"proposalsD1","inputs":[{"name":"","type":"uint256","internalType":"uint256"}],"outputs":[{"name":"id","type":"uint256","internalType":"uint256"},{"name":"title","type":"string","internalType":"string"},{"name":"description","type":"string","internalType":"string"},{"name":"proposer","type":"address","internalType":"address"},{"name":"startTime","type":"uint256","internalType":"uint256"},{"name":"endTime","type":"uint256","internalType":"uint256"},{"name":"revealEndTime","type":"uint256","internalType":"uint256"},{"name":"merkleRoot","type":"uint256","internalType":"uint256"},{"name":"forVotes","type":"uint256","internalType":"uint256"},{"name":"againstVotes","type":"uint256","internalType":"uint256"},{"name":"abstainVotes","type":"uint256","internalType":"uint256"},{"name":"totalCommitments","type":"uint256","internalType":"uint256"},{"name":"revealedVotes","type":"uint256","internalType":"uint256"},{"name":"exists","type":"bool","internalType":"bool"}],"stateMutability":"view"},{"type":"function","name":"proposalsD2","inputs":[{"name":"","type":"uint256","internalType":"uint256"}],"outputs":[{"name":"id","type":"uint256","internalType":"uint256"},{"name":"title","type":"string","internalType":"string"},{"name":"description","type":"string","internalType":"string"},{"name":"proposer","type":"address","internalType":"address"},{"name":"startTime","type":"uint256","internalType":"uint256"},{"name":"endTime","type":"uint256","internalType":"uint256"},{"name":"revealEndTime","type":"uint256","internalType":"uint256"},{"name":"creditRoot","type":"uint256","internalType":"uint256"},{"name":"forVotes","type":"uint256","internalType":"uint256"},{"name":"againstVotes","type":"uint256","internalType":"uint256"},{"name":"abstainVotes","type":"uint256","internalType":"uint256"},{"name":"totalCreditsSpent","type":"uint256","internalType":"uint256"},{"name":"totalCommitments","type":"uint256","internalType":"uint256"},{"name":"revealedVotes","type":"uint256","internalType":"uint256"},{"name":"exists","type":"bool","internalType":"bool"}],"stateMutability":"view"},{"type":"function","name":"registerCreditNote","inputs":[{"name":"_creditNoteHash","type":"uint256","internalType":"uint256"}],"outputs":[],"stateMutability":"nonpayable"},{"type":"function","name":"registerCreditRoot","inputs":[{"name":"_creditRoot","type":"uint256","internalType":"uint256"}],"outputs":[],"stateMutability":"nonpayable"},{"type":"function","name":"registerMerkleRoot","inputs":[{"name":"_merkleRoot","type":"uint256","internalType":"uint256"}],"outputs":[],"stateMutability":"nonpayable"},{"type":"function","name":"registerVoter","inputs":[{"name":"_noteHash","type":"uint256","internalType":"uint256"}],"outputs":[],"stateMutability":"nonpayable"},{"type":"function","name":"registeredCreditNotes","inputs":[{"name":"","type":"uint256","internalType":"uint256"}],"outputs":[{"name":"","type":"uint256","internalType":"uint256"}],"stateMutability":"view"},{"type":"function","name":"registeredVoters","inputs":[{"name":"","type":"uint256","internalType":"uint256"}],"outputs":[{"name":"","type":"uint256","internalType":"uint256"}],"stateMutability":"view"},{"type":"function","name":"revealVoteD1","inputs":[{"name":"_proposalId","type":"uint256","internalType":"uint256"},{"name":"_nullifier","type":"uint256","internalType":"uint256"},{"name":"_choice","type":"uint256","internalType":"uint256"},{"name":"_voteSalt","type":"uint256","internalType":"uint256"}],"outputs":[],"stateMutability":"nonpayable"},{"type":"function","name":"revealVoteD2","inputs":[{"name":"_proposalId","type":"uint256","internalType":"uint256"},{"name":"_nullifier","type":"uint256","internalType":"uint256"},{"name":"_choice","type":"uint256","internalType":"uint256"},{"name":"_numVotes","type":"uint256","internalType":"uint256"},{"name":"_voteSalt","type":"uint256","internalType":"uint256"}],"outputs":[],"stateMutability":"nonpayable"},{"type":"function","name":"supportsInterface","inputs":[{"name":"interfaceId","type":"bytes4","internalType":"bytes4"}],"outputs":[{"name":"","type":"bool","internalType":"bool"}],"stateMutability":"pure"},{"type":"function","name":"tonToken","inputs":[],"outputs":[{"name":"","type":"address","internalType":"contract IERC20"}],"stateMutability":"view"},{"type":"function","name":"treasury","inputs":[],"outputs":[{"name":"","type":"address","internalType":"address"}],"stateMutability":"view"},{"type":"function","name":"updateProposalVoters","inputs":[{"name":"_proposalId","type":"uint256","internalType":"uint256"},{"name":"_newMerkleRoot","type":"uint256","internalType":"uint256"}],"outputs":[],"stateMutability":"nonpayable"},{"type":"function","name":"userCredits","inputs":[{"name":"","type":"address","internalType":"address"}],"outputs":[{"name":"totalCredits","type":"uint256","internalType":"uint256"},{"name":"usedCredits","type":"uint256","internalType":"uint256"},{"name":"initialized","type":"bool","internalType":"bool"}],"stateMutability":"view"},{"type":"function","name":"validCreditRoots","inputs":[{"name":"","type":"uint256","internalType":"uint256"}],"outputs":[{"name":"","type":"bool","internalType":"bool"}],"stateMutability":"view"},{"type":"function","name":"validMerkleRoots","inputs":[{"name":"","type":"uint256","internalType":"uint256"}],"outputs":[{"name":"","type":"bool","internalType":"bool"}],"stateMutability":"view"},{"type":"function","name":"verifierD1","inputs":[],"outputs":[{"name":"","type":"address","internalType":"contract IVerifierD1"}],"stateMutability":"view"},{"type":"function","name":"verifierD2","inputs":[],"outputs":[{"name":"","type":"address","internalType":"contract IVerifierD2"}],"stateMutability":"view"},{"type":"event","name":"CreditNoteRegistered","inputs":[{"name":"creditNoteHash","type":"uint256","indexed":true,"internalType":"uint256"},{"name":"timestamp","type":"uint256","indexed":false,"internalType":"uint256"}],"anonymous":false},{"type":"event","name":"CreditRootRegistered","inputs":[{"name":"creditRoot","type":"uint256","indexed":true,"internalType":"uint256"},{"name":"timestamp","type":"uint256","indexed":false,"internalType":"uint256"}],"anonymous":false},{"type":"event","name":"CreditsBurned","inputs":[{"name":"user","type":"address","indexed":true,"internalType":"address"},{"name":"amount","type":"uint256","indexed":false,"internalType":"uint256"},{"name":"remaining","type":"uint256","indexed":false,"internalType":"uint256"}],"anonymous":false},{"type":"event","name":"CreditsInitialized","inputs":[{"name":"user","type":"address","indexed":true,"internalType":"address"},{"name":"credits","type":"uint256","indexed":false,"internalType":"uint256"}],"anonymous":false},{"type":"event","name":"CreditsMinted","inputs":[{"name":"user","type":"address","indexed":true,"internalType":"address"},{"name":"amount","type":"uint256","indexed":false,"internalType":"uint256"},{"name":"total","type":"uint256","indexed":false,"internalType":"uint256"}],"anonymous":false},{"type":"event","name":"MerkleRootRegistered","inputs":[{"name":"merkleRoot","type":"uint256","indexed":true,"internalType":"uint256"},{"name":"timestamp","type":"uint256","indexed":false,"internalType":"uint256"}],"anonymous":false},{"type":"event","name":"ProposalCreatedD1","inputs":[{"name":"proposalId","type":"uint256","indexed":true,"internalType":"uint256"},{"name":"title","type":"string","indexed":false,"internalType":"string"},{"name":"proposer","type":"address","indexed":true,"internalType":"address"},{"name":"merkleRoot","type":"uint256","indexed":false,"internalType":"uint256"},{"name":"endTime","type":"uint256","indexed":false,"internalType":"uint256"},{"name":"revealEndTime","type":"uint256","indexed":false,"internalType":"uint256"}],"anonymous":false},{"type":"event","name":"ProposalCreatedD2","inputs":[{"name":"proposalId","type":"uint256","indexed":true,"internalType":"uint256"},{"name":"title","type":"string","indexed":false,"internalType":"string"},{"name":"proposer","type":"address","indexed":true,"internalType":"address"},{"name":"creditRoot","type":"uint256","indexed":false,"internalType":"uint256"},{"name":"endTime","type":"uint256","indexed":false,"internalType":"uint256"},{"name":"revealEndTime","type":"uint256","indexed":false,"internalType":"uint256"}],"anonymous":false},{"type":"event","name":"VoteCommittedD1","inputs":[{"name":"proposalId","type":"uint256","indexed":true,"internalType":"uint256"},{"name":"nullifier","type":"uint256","indexed":true,"internalType":"uint256"},{"name":"commitment","type":"uint256","indexed":false,"internalType":"uint256"},{"name":"votingPower","type":"uint256","indexed":false,"internalType":"uint256"}],"anonymous":false},{"type":"event","name":"VoteCommittedD2","inputs":[{"name":"proposalId","type":"uint256","indexed":true,"internalType":"uint256"},{"name":"nullifier","type":"uint256","indexed":true,"internalType":"uint256"},{"name":"commitment","type":"uint256","indexed":false,"internalType":"uint256"},{"name":"numVotes","type":"uint256","indexed":false,"internalType":"uint256"},{"name":"creditsSpent","type":"uint256","indexed":false,"internalType":"uint256"}],"anonymous":false},{"type":"event","name":"VoteRevealedD1","inputs":[{"name":"proposalId","type":"uint256","indexed":true,"internalType":"uint256"},{"name":"nullifier","type":"uint256","indexed":true,"internalType":"uint256"},{"name":"choice","type":"uint256","indexed":false,"internalType":"uint256"},{"name":"votingPower","type":"uint256","indexed":false,"internalType":"uint256"}],"anonymous":false},{"type":"event","name":"VoteRevealedD2","inputs":[{"name":"proposalId","type":"uint256","indexed":true,"internalType":"uint256"},{"name":"nullifier","type":"uint256","indexed":true,"internalType":"uint256"},{"name":"choice","type":"uint256","indexed":false,"internalType":"uint256"},{"name":"numVotes","type":"uint256","indexed":false,"internalType":"uint256"},{"name":"creditsSpent","type":"uint256","indexed":false,"internalType":"uint256"}],"anonymous":false},{"type":"event","name":"VoterRegistered","inputs":[{"name":"noteHash","type":"uint256","indexed":true,"internalType":"uint256"},{"name":"timestamp","type":"uint256","indexed":false,"internalType":"uint256"}],"anonymous":false},{"type":"error","name":"AlreadyRevealed","inputs":[]},{"type":"error","name":"CommitmentNotFound","inputs":[]},{"type":"error","name":"InsufficientCredits","inputs":[]},{"type":"error","name":"InvalidChoice","inputs":[]},{"type":"error","name":"InvalidCreditRoot","inputs":[]},{"type":"error","name":"InvalidMerkleRoot","inputs":[]},{"type":"error","name":"InvalidProof","inputs":[]},{"type":"error","name":"InvalidQuadraticCost","inputs":[]},{"type":"error","name":"InvalidReveal","inputs":[]},{"type":"error","name":"NotInCommitPhase","inputs":[]},{"type":"error","name":"NotInRevealPhase","inputs":[]},{"type":"error","name":"NullifierAlreadyUsed","inputs":[]},{"type":"error","name":"ProposalNotFound","inputs":[]},{"type":"error","name":"ZeroVotingPower","inputs":[]}],"bytecode":{"object":"0x60e06040523461008d5761001d61001461017a565b92919091610260565b610025610092565b61600c61029182396080518181816121b90152612d58015260a05181818161155301528181613cad0152614eca015260c0518181816113bf01528181613b1001528181613d2001528181613da101528181614cf801528181614f5b0152614fdc015261600c90f35b610098565b60405190565b5f80fd5b601f801991011690565b634e487b7160e01b5f52604160045260245ffd5b906100c49061009c565b810190811060018060401b038211176100dc57604052565b6100a6565b906100f46100ed610092565b92836100ba565b565b5f80fd5b60018060a01b031690565b61010e906100fa565b90565b61011a81610105565b0361012157565b5f80fd5b9050519061013282610111565b565b6080818303126101755761014a825f8301610125565b9261017261015b8460208501610125565b936101698160408601610125565b93606001610125565b90565b6100f6565b61019861629d8038038061018d816100e1565b928339810190610134565b90919293565b90565b6101b56101b06101ba926100fa565b61019e565b6100fa565b90565b6101c6906101a1565b90565b6101d2906101bd565b90565b6101de906101a1565b90565b6101ea906101d5565b90565b6101f6906101a1565b90565b610202906101ed565b90565b5f1b90565b9061021b60018060a01b0391610205565b9181191691161790565b61022e906101a1565b90565b61023a90610225565b90565b90565b9061025561025061025c92610231565b61023d565b825461020a565b9055565b9161027d6102859261027561028e96956101c9565b6080526101e1565b60a0526101f9565b60c0525f610240565b56fe60806040526004361015610013575b6122b5565b61001d5f3561034c565b806301ffc9a71461034757806303a229f7146103425780630572c8011461033d5780630d70ece81461033857806311174a291461033357806313703e661461032e57806318dbeb4c1461032957806320babb92146103245780632436e06b1461031f5780632bbe44fd1461031a5780632bc4a6e7146103155780632c5317c014610310578063315401c01461030b578063417e70c8146103065780634273ca16146103015780634275e031146102fc5780634a9284fb146102f75780634d09b49f146102f257806352a48c56146102ed5780635938862f146102e857806361d027b3146102e3578063697aa8e8146102de5780636d3cba61146102d957806374dd0fea146102d4578063781a4852146102cf578063833722c5146102ca578063850099cd146102c55780638ea7a274146102c057806394ffe6a0146102bb578063974f7aa3146102b6578063a13f2f8d146102b1578063a1c7574a146102ac578063a329b313146102a7578063a4cae8f8146102a2578063aa6098481461029d578063b065a8e514610298578063b4e0d6af14610293578063b5770c331461028e578063b5ad921514610289578063badbc2ed14610284578063cb1bb0331461027f578063d54443361461027a578063d54bb70b14610275578063d55d533e14610270578063d90292a31461026b578063db5bd60114610266578063ef3a2b3914610261578063f025d0821461025c578063f58789ae14610257578063f9058741146102525763fb9607d30361000e57612282565b61224d565b612209565b61216f565b611f87565b611f4b565b611f16565b611ea8565b611e0a565b611cfc565b611cc7565b611c71565b611bba565b611b59565b611ad7565b611769565b611735565b611702565b6116cd565b61166c565b611639565b611604565b6115a3565b61151c565b6114b0565b611465565b61140f565b611388565b611353565b611305565b611298565b61120e565b6111a4565b611168565b61106a565b61102d565b610ef1565b610e15565b610db7565b610c42565b610bc2565b610af0565b610abb565b610a0e565b6108ce565b6107ee565b610624565b6105ef565b610520565b61047d565b6103d8565b60e01c90565b60405190565b5f80fd5b5f80fd5b5f80fd5b63ffffffff60e01b1690565b61037981610364565b0361038057565b5f80fd5b9050359061039182610370565b565b906020828203126103ac576103a9915f01610384565b90565b61035c565b151590565b6103bf906103b1565b9052565b91906103d6905f602085019401906103b6565b565b34610408576104046103f36103ee366004610393565b61232a565b6103fb610352565b918291826103c3565b0390f35b610358565b5f91031261041757565b61035c565b1c90565b90565b610433906008610438930261041c565b610420565b90565b906104469154610423565b90565b61045560025f9061043b565b90565b90565b61046490610458565b9052565b919061047b905f6020850194019061045b565b565b346104ad5761048d36600461040d565b6104a9610498610449565b6104a0610352565b91829182610468565b0390f35b610358565b6104bb81610458565b036104c257565b5f80fd5b905035906104d3826104b2565b565b608081830312610516576104eb825f83016104c6565b926105136104fc84602085016104c6565b9361050a81604086016104c6565b936060016104c6565b90565b61035c565b5f0190565b346105525761053c6105333660046104d5565b929190916125a0565b610544610352565b8061054e8161051b565b0390f35b610358565b906020828203126105705761056d915f016104c6565b90565b61035c565b90565b61058c61058761059192610458565b610575565b610458565b90565b9061059e90610578565b5f5260205260405f2090565b60ff1690565b6105c09060086105c5930261041c565b6105aa565b90565b906105d391546105b0565b90565b6105ec906105e76011915f92610594565b6105c8565b90565b3461061f5761061b61060a610605366004610557565b6105d6565b610612610352565b918291826103c3565b0390f35b610358565b346106545761063436600461040d565b61065061063f61299d565b610647610352565b91829182610468565b0390f35b610358565b9190604083820312610681578061067561067e925f86016104c6565b936020016104c6565b90565b61035c565b9061069090610578565b5f5260205260405f2090565b906106a690610578565b5f5260205260405f2090565b5f1c90565b6106c36106c8916106b2565b610420565b90565b6106d590546106b7565b90565b6106e46106e9916106b2565b6105aa565b90565b6106f690546106d8565b90565b9061070861070d92600c610686565b61069c565b906107195f83016106cb565b91610726600182016106cb565b91610733600283016106cb565b91610740600382016106cb565b9161074d600483016106cb565b9161075a600582016106ec565b91610773600761076c600685016106cb565b93016106ec565b90565b959391989796949290986101008701995f88016107929161045b565b6020870161079f9161045b565b604086016107ac9161045b565b606085016107b99161045b565b608084016107c69161045b565b60a083016107d3916103b6565b60c082016107e09161045b565b60e0016107ec916103b6565b565b346108295761082561080a610804366004610659565b906106f9565b9461081c989698949194939293610352565b98899889610776565b0390f35b610358565b5f80fd5b9190602060020283011161084257565b61082e565b9190604060020283011161085757565b61082e565b610180818303126108c957610873825f83016104c6565b9261088183602084016104c6565b9261088f81604085016104c6565b9261089d82606083016104c6565b926108c66108ae8460808501610832565b936108bc8160c08601610847565b9361014001610832565b90565b61035c565b34610903576108ed6108e136600461085c565b95949094939193612c63565b6108f5610352565b806108ff8161051b565b0390f35b610358565b60018060a01b031690565b61091c90610908565b90565b61092881610913565b0361092f57565b5f80fd5b905035906109408261091f565b565b9060208282031261095b57610958915f01610933565b90565b61035c565b61097461096f61097992610908565b610575565b610908565b90565b61098590610960565b90565b6109919061097c565b90565b9061099e90610988565b5f5260205260405f2090565b6109b5906012610994565b6109c05f82016106cb565b916109d960026109d2600185016106cb565b93016106ec565b90565b604090610a05610a0c94969593966109fb60608401985f85019061045b565b602083019061045b565b01906103b6565b565b34610a4157610a3d610a29610a24366004610942565b6109aa565b610a34939193610352565b938493846109dc565b0390f35b610358565b634e487b7160e01b5f52603260045260245ffd5b5490565b5f5260205f2090565b610a7081610a5a565b821015610a8a57610a82600191610a5e565b910201905f90565b610a46565b6008610a9a81610a5a565b821015610ab757610ab491610aae91610a67565b9061043b565b90565b5f80fd5b34610aeb57610ae7610ad6610ad1366004610557565b610a8f565b610ade610352565b91829182610468565b0390f35b610358565b34610b1e57610b08610b03366004610557565b61306b565b610b10610352565b80610b1a8161051b565b0390f35b610358565b5190565b60209181520190565b60200190565b610b3f90610458565b9052565b90610b5081602093610b36565b0190565b60200190565b90610b77610b71610b6a84610b23565b8093610b27565b92610b30565b905f5b818110610b875750505090565b909192610ba0610b9a6001928651610b43565b94610b54565b9101919091610b7a565b610bbf9160208201915f818403910152610b5a565b90565b34610bf257610bd236600461040d565b610bee610bdd6131a9565b610be5610352565b91829182610baa565b0390f35b610358565b90610c0190610578565b5f5260205260405f2090565b610c1890600a610bf7565b610c2181610a5a565b821015610c3e57610c3b91610c3591610a67565b9061043b565b90565b5f80fd5b34610c7357610c6f610c5e610c58366004610659565b90610c0d565b610c66610352565b91829182610468565b0390f35b610358565b5190565b60209181520190565b90825f9392825e0152565b601f801991011690565b610cb9610cc2602093610cc793610cb081610c78565b93848093610c7c565b95869101610c85565b610c90565b0190565b610cd490610913565b9052565b60ff1690565b610ce790610cd8565b9052565b9a9896949291909d9c9b999795939d6101a08c01905f8d01610d0c9161045b565b8b810360208d0152610d1d91610c9a565b8a810360408c0152610d2e91610c9a565b9b60608a01610d3c91610ccb565b60808901610d499161045b565b60a08801610d569161045b565b60c08701610d639161045b565b60e08601610d709161045b565b6101008501610d7e9161045b565b6101208401610d8c9161045b565b6101408301610d9a9161045b565b6101608201610da89161045b565b61018001610db591610cde565b565b34610df757610df3610dd2610dcd366004610557565b61322c565b99610dea9d9b9d999199989298979397969496610352565b9d8e9d8e610ceb565b0390f35b610358565b610e1290610e0d600e915f92610594565b6105c8565b90565b34610e4557610e41610e30610e2b366004610557565b610dfc565b610e38610352565b918291826103c3565b0390f35b610358565b5f80fd5b5f80fd5b909182601f83011215610e8c5781359167ffffffffffffffff8311610e87576020019260018302840111610e8257565b61082e565b610e4e565b610e4a565b90608082820312610eec57610ea8815f8401610933565b92610eb68260208501610933565b92610ec483604083016104c6565b92606082013567ffffffffffffffff8111610ee757610ee39201610e52565b9091565b610360565b61035c565b34610f2557610f21610f10610f07366004610e91565b93929092613aed565b610f18610352565b918291826103c3565b0390f35b610358565b90610f3490610578565b5f5260205260405f2090565b90610f4a90610578565b5f5260205260405f2090565b90610f65610f6a926004610f2a565b610f40565b610f755f82016106cb565b91610f82600183016106cb565b91610f8f600282016106cb565b91610f9c600383016106cb565b91610fa9600482016106ec565b91610fc26006610fbb600585016106cb565b93016106ec565b90565b949290979695939160e08601985f8701610fde9161045b565b60208601610feb9161045b565b60408501610ff89161045b565b606084016110059161045b565b60808301611012916103b6565b60a0820161101f9161045b565b60c00161102b916103b6565b565b3461106557611061611049611043366004610659565b90610f56565b93611058979597939193610352565b97889788610fc5565b0390f35b610358565b3461109a57611096611085611080366004610557565b6140f0565b61108d610352565b918291826103c3565b0390f35b610358565b909182601f830112156110d95781359167ffffffffffffffff83116110d45760200192600183028401116110cf57565b61082e565b610e4e565b610e4a565b909160a082840312611163575f82013567ffffffffffffffff811161115e578361110991840161109f565b929093602082013567ffffffffffffffff8111611159578161112c91840161109f565b92909361115661113f84604085016104c6565b9361114d81606086016104c6565b936080016104c6565b90565b610360565b610360565b61035c565b3461119f5761119b61118a61117e3660046110de565b9594909493919361457d565b611192610352565b91829182610468565b0390f35b610358565b346111d2576111bc6111b7366004610557565b614838565b6111c4610352565b806111ce8161051b565b0390f35b610358565b906111e190610578565b5f5260205260405f2090565b61120661120b926112016005935f946111d7565b610594565b6105c8565b90565b3461123f5761123b61122a611224366004610659565b906111ed565b611232610352565b918291826103c3565b0390f35b610358565b60018060a01b031690565b61125f906008611264930261041c565b611244565b90565b90611272915461124f565b90565b6112805f5f90611267565b90565b9190611296905f60208501940190610ccb565b565b346112c8576112a836600461040d565b6112c46112b3611275565b6112bb610352565b91829182611283565b0390f35b610358565b90565b6112e46112df6112e9926112cd565b610575565b610458565b90565b6112f76127106112d0565b90565b6113026112ec565b90565b346113355761131536600461040d565b6113316113206112fa565b611328610352565b91829182610468565b0390f35b610358565b6113509061134b6009915f92610594565b6105c8565b90565b346113835761137f61136e611369366004610557565b61133a565b611376610352565b918291826103c3565b0390f35b610358565b346113b8576113b46113a361139e366004610557565b61490d565b6113ab610352565b91829182610468565b0390f35b610358565b7f000000000000000000000000000000000000000000000000000000000000000090565b6113ea9061097c565b90565b6113f6906113e1565b9052565b919061140d905f602085019401906113ed565b565b3461143f5761141f36600461040d565b61143b61142a6113bd565b611432610352565b918291826113fa565b0390f35b610358565b61145d61146292611458600d935f946111d7565b610594565b6105c8565b90565b346114965761149261148161147b366004610659565b90611444565b611489610352565b918291826103c3565b0390f35b610358565b91906114ae905f60208501940190610cde565b565b346114e0576114dc6114cb6114c6366004610557565b614923565b6114d3610352565b9182918261149b565b0390f35b610358565b90565b6114fc6114f7611501926114e5565b610575565b610458565b90565b61150e60016114e8565b90565b611519611504565b90565b3461154c5761152c36600461040d565b611548611537611511565b61153f610352565b91829182610468565b0390f35b610358565b7f000000000000000000000000000000000000000000000000000000000000000090565b61157e9061097c565b90565b61158a90611575565b9052565b91906115a1905f60208501940190611581565b565b346115d3576115b336600461040d565b6115cf6115be611551565b6115c6610352565b9182918261158e565b0390f35b610358565b60106115e381610a5a565b821015611600576115fd916115f791610a67565b9061043b565b90565b5f80fd5b346116345761163061161f61161a366004610557565b6115d8565b611627610352565b91829182610468565b0390f35b610358565b346116675761165161164c366004610557565b6149e3565b611659610352565b806116638161051b565b0390f35b610358565b3461169c5761167c36600461040d565b611698611687614a6e565b61168f610352565b91829182610baa565b0390f35b610358565b600f6116ac81610a5a565b8210156116c9576116c6916116c091610a67565b9061043b565b90565b5f80fd5b346116fd576116f96116e86116e3366004610557565b6116a1565b6116f0610352565b91829182610468565b0390f35b610358565b346117305761171a611715366004610557565b614a84565b611722610352565b8061172c8161051b565b0390f35b610358565b346117645761174e611748366004610659565b90614bb4565b611756610352565b806117608161051b565b0390f35b610358565b346117995761179561178461177f366004610942565b614ce4565b61178c610352565b91829182610468565b0390f35b610358565b906117a890610578565b5f5260205260405f2090565b634e487b7160e01b5f52602260045260245ffd5b90600160028304921680156117e8575b60208310146117e357565b6117b4565b91607f16916117d8565b60209181520190565b5f5260205f2090565b905f929180549061181e611817836117c8565b80946117f2565b916001811690815f146118755750600114611839575b505050565b61184691929394506117fb565b915f925b81841061185d57505001905f8080611834565b6001816020929593955484860152019101929061184a565b92949550505060ff19168252151560200201905f8080611834565b9061189a91611804565b90565b634e487b7160e01b5f52604160045260245ffd5b906118bb90610c90565b810190811067ffffffffffffffff8211176118d557604052565b61189d565b906118fa6118f3926118ea610352565b93848092611890565b03836118b1565b565b61190861190d916106b2565b611244565b90565b61191a90546118fc565b90565b61192890600b61179e565b6119335f82016106cb565b91611940600183016118da565b9161194d600282016118da565b9161195a60038301611910565b91611967600482016106cb565b91611974600583016106cb565b91611981600682016106cb565b9161198e600783016106cb565b9161199b600882016106cb565b916119a8600983016106cb565b916119b5600a82016106cb565b916119c2600b83016106cb565b916119cf600c82016106cb565b916119e8600e6119e1600d85016106cb565b93016106ec565b90565b939f9e9d9b99979593809d9b9997959392916101e08201915f01611a0e9161045b565b8d8082039060200152611a2091610c9a565b8c8082039060400152611a3291610c9a565b9d60608c01611a4091610ccb565b60808b01611a4d9161045b565b60a08a01611a5a9161045b565b60c08901611a679161045b565b60e08801611a749161045b565b6101008701611a829161045b565b6101208601611a909161045b565b6101408501611a9e9161045b565b6101608401611aac9161045b565b6101808301611aba9161045b565b6101a08201611ac89161045b565b6101c001611ad5916103b6565b565b34611b1e5736611ae8906004610557565b611af19061191d565b9a611b0c9e9c9e9a919a999299989398979497969596610352565b9e8f9e8f9e611b1a9f6119eb565b0390f35b610358565b90565b611b3a611b35611b3f92611b23565b610575565b610458565b90565b611b4b5f611b26565b90565b611b56611b42565b90565b34611b8957611b6936600461040d565b611b85611b74611b4e565b611b7c610352565b91829182610468565b0390f35b610358565b6007611b9981610a5a565b821015611bb657611bb391611bad91610a67565b9061043b565b90565b5f80fd5b34611bea57611be6611bd5611bd0366004610557565b611b8e565b611bdd610352565b91829182610468565b0390f35b610358565b91906101a083820312611c6c57611c08815f85016104c6565b92611c1682602083016104c6565b92611c2483604084016104c6565b92611c3281606085016104c6565b92611c4082608083016104c6565b92611c69611c518460a08501610832565b93611c5f8160e08601610847565b9361016001610832565b90565b61035c565b34611ca957611c93611c84366004611bef565b96959095949194939293614dcb565b611c9b610352565b80611ca58161051b565b0390f35b610358565b611cc490611cbf6006915f92610594565b6105c8565b90565b34611cf757611cf3611ce2611cdd366004610557565b611cae565b611cea610352565b918291826103c3565b0390f35b610358565b34611d2a57611d14611d0f366004610557565b615365565b611d1c610352565b80611d268161051b565b0390f35b610358565b809c9a9896949f9e9d9b9997959392916101c08201915f01611d509161045b565b8c8082039060200152611d6291610c9a565b8b810360408d0152611d7391610c9a565b9c60608b01611d8191610ccb565b60808a01611d8e9161045b565b60a08901611d9b9161045b565b60c08801611da89161045b565b60e08701611db59161045b565b6101008601611dc39161045b565b6101208501611dd19161045b565b6101408401611ddf9161045b565b6101608301611ded9161045b565b6101808201611dfb9161045b565b6101a001611e0891610cde565b565b34611e4d57611e49611e25611e20366004610557565b6153d5565b9a611e409e9c9e9a919a999299989398979497969596610352565b9e8f9e8f611d2f565b0390f35b610358565b919060a083820312611ea357611e6a815f85016104c6565b92611e7882602083016104c6565b92611ea0611e8984604085016104c6565b93611e9781606086016104c6565b936080016104c6565b90565b61035c565b34611eda57611ec4611ebb366004611e52565b939290926155d8565b611ecc610352565b80611ed68161051b565b0390f35b610358565b90565b611ef6611ef1611efb92611edf565b610575565b610458565b90565b611f086002611ee2565b90565b611f13611efe565b90565b34611f4657611f2636600461040d565b611f42611f31611f0b565b611f39610352565b91829182610468565b0390f35b610358565b34611f8257611f7e611f6d611f613660046110de565b95949094939193615c30565b611f75610352565b91829182610468565b0390f35b610358565b34611fb757611fb3611fa2611f9d366004610557565b615e86565b611faa610352565b918291826103c3565b0390f35b610358565b90611fc690610578565b5f5260205260405f2090565b611fdd906003611fbc565b90611fe95f83016106cb565b91611ff6600182016118da565b91612003600283016118da565b9161201060038201611910565b9161201d600483016106cb565b9161202a600582016106cb565b91612037600683016106cb565b91612044600782016106cb565b91612051600883016106cb565b9161205e600982016106cb565b9161206b600a83016106cb565b91612078600b82016106cb565b91612091600d61208a600c85016106cb565b93016106ec565b90565b809c9a9896949f9e9d9b9997959392916101c08201915f016120b59161045b565b8c80820390602001526120c791610c9a565b8b810360408d01526120d891610c9a565b9c60608b016120e691610ccb565b60808a016120f39161045b565b60a089016121009161045b565b60c0880161210d9161045b565b60e0870161211a9161045b565b61010086016121289161045b565b61012085016121369161045b565b61014084016121449161045b565b61016083016121529161045b565b61018082016121609161045b565b6101a00161216d916103b6565b565b346121b2576121ae61218a612185366004610557565b611fd2565b9a6121a59e9c9e9a919a999299989398979497969596610352565b9e8f9e8f612094565b0390f35b610358565b7f000000000000000000000000000000000000000000000000000000000000000090565b6121e49061097c565b90565b6121f0906121db565b9052565b9190612207905f602085019401906121e7565b565b346122395761221936600461040d565b6122356122246121b7565b61222c610352565b918291826121f4565b0390f35b610358565b61224a60015f9061043b565b90565b3461227d5761225d36600461040d565b61227961226861223e565b612270610352565b91829182610468565b0390f35b610358565b346122b05761229236600461040d565b61229a615f0a565b6122a2610352565b806122ac8161051b565b0390f35b610358565b5f80fd5b5f90565b6122c690610364565b90565b6122f27f4273ca16e32229270629d776700e1c07e4a1080fc9b26d21f6608efc2b31dc4d6122bd565b90565b90565b60e01b90565b61231261230d612317926122f5565b6122f8565b610364565b90565b6123276301ffc9a76122fe565b90565b6123326122b9565b508061234d6123476123426122c9565b610364565b91610364565b1490811561235a575b5090565b905061237561236f61236a61231a565b610364565b91610364565b145f612356565b90565b90565b90565b90612398612391610352565b92836118b1565b565b67ffffffffffffffff81116123af5760200290565b61189d565b6123c06123c59161239a565b612385565b90565b906123d290610458565b9052565b905051906123e3826104b2565b565b906020828203126123fe576123fb915f016123d6565b90565b61035c565b50600490565b905090565b90565b61241a90610458565b9052565b9061242b81602093612411565b0190565b60200190565b61245161244b61244483612403565b8094612409565b9161240e565b5f915b8383106124615750505050565b612477612471600192845161241e565b9261242f565b92019190612454565b9190612493905f60808501940190612435565b565b61249d610352565b3d5f823e3d90fd5b5f1b90565b906124b660ff916124a5565b9181191691161790565b6124c9906103b1565b90565b90565b906124e46124df6124eb926124c0565b6124cc565b82546124aa565b9055565b906124fb5f19916124a5565b9181191691161790565b90565b9061251d61251861252492610578565b612505565b82546124ef565b9055565b634e487b7160e01b5f52601160045260245ffd5b61254b61255191939293610458565b92610458565b820180921161255c57565b612528565b61256a90610458565b5f1981146125785760010190565b612528565b91602061259e92949361259760408201965f83019061045b565b019061045b565b565b6125b46125af60038390611fbc565b61237c565b6125d26125cd6125c660048590610f2a565b8590610f40565b61237f565b946125e86125e2600d84016106ec565b156103b1565b61297d574261260a6126046125ff600586016106cb565b610458565b91610458565b1115612961574261262e612628612623600686016106cb565b610458565b91610458565b1161294557612648612642600688016106ec565b156103b1565b61292957612658600487016106ec565b61290d578461267661267061266b611efe565b610458565b91610458565b116128f15760208561270e92612703896126ef6126a673__$0daf1669a85ce10529e05b8a030b9567e1$__612382565b936126d96126d16001638709cd8c956126cb6126c260046123b4565b9a5f8c016123c8565b016106cb565b8888016123c8565b6126e68a604088016123c8565b606086016123c8565b6126f7610352565b958694859384936122f8565b835260048301612480565b03915af49081156128ec575f916128be575b5061273d6127376127325f89016106cb565b610458565b91610458565b036128a2576127d5916127cc600c60019361275b8560048b016124cf565b6127688860058b01612508565b8761278261277c612777611504565b610458565b91610458565b145f14612822576127b3612797868b016106cb565b6127ad60088401916127a8836106cb565b61253c565b90612508565b5b016127c66127c1826106cb565b612561565b90612508565b929394016106cb565b6128086128027f48b18ffd0d20ac6e0c916dc382bdea3de3108e2b71d66318ff2bdc7aa10a562893610578565b93610578565b9361281d612814610352565b9283928361257d565b0390a3565b8761283c612836612831611b42565b610458565b91610458565b145f146128735761286d612851868b016106cb565b6128676009840191612862836106cb565b61253c565b90612508565b5b6127b4565b61289d612881868b016106cb565b612897600a840191612892836106cb565b61253c565b90612508565b61286e565b5f639ea6d12760e01b8152806128ba6004820161051b565b0390fd5b6128df915060203d81116128e5575b6128d781836118b1565b8101906123e5565b5f612720565b503d6128cd565b612495565b5f639c45400160e01b8152806129096004820161051b565b0390fd5b5f63a89ac15160e01b8152806129256004820161051b565b0390fd5b5f635b34156960e11b8152806129416004820161051b565b0390fd5b5f6374683d7160e01b81528061295d6004820161051b565b0390fd5b5f6374683d7160e01b8152806129796004820161051b565b0390fd5b5f63635e873760e01b8152806129956004820161051b565b0390fd5b5f90565b6129a5612999565b506129b06008610a5a565b90565b67ffffffffffffffff81116129c85760200290565b61189d565b6129d96129de916129b3565b612385565b90565b6129ea816103b1565b036129f157565b5f80fd5b90505190612a02826129e1565b565b90602082820312612a1d57612a1a915f016129f5565b90565b61035c565b9037565b612a3291604091612a22565b565b50600290565b905090565b90565b612a4e91604091612a22565b565b90612a5d81604093612a42565b0190565b5090565b60400190565b612a87612a81612a7a83612a34565b8094612a3a565b91612a3f565b805f925b848410612a99575050505050565b612ab7612ab1600192612aac8686612a61565b612a50565b93612a65565b93019291612a8b565b50600590565b905090565b90565b60200190565b612af0612aea612ae383612ac0565b8094612ac6565b91612acb565b5f915b838310612b005750505050565b612b16612b106001928451610b43565b92612ace565b92019190612af3565b612b56612b5d94612b4c61010094989795612b426101a086019a5f870190612a26565b6040850190612a6b565b60c0830190612a26565b0190612ad4565b565b612b6960e0612385565b90565b90612b76906103b1565b9052565b634e487b7160e01b5f525f60045260245ffd5b612b979051610458565b90565b612ba490516103b1565b90565b90612c4f60c06006612c5594612bca5f8201612bc45f8801612b8d565b90612508565b612be360018201612bdd60208801612b8d565b90612508565b612bfc60028201612bf660408801612b8d565b90612508565b612c1560038201612c0f60608801612b8d565b90612508565b612c2e60048201612c2860808801612b9a565b906124cf565b612c4760058201612c4160a08801612b8d565b90612508565b019201612b9a565b906124cf565b565b90612c6191612ba7565b565b92939590949195612c7e612c7960038690611fbc565b61237c565b92612c94612c8e600d86016106ec565b156103b1565b612f975742612cb6612cb0612cab600588016106cb565b610458565b91610458565b11612f7b57612cd9612cd4612ccd600588906111d7565b8890610594565b6106ec565b612f5f5787612cf0612cea5f611b26565b91610458565b14612f4357602091612d99612d0560056129cd565b612d11895f83016123c8565b612d1d8a8683016123c8565b612d2a88604083016123c8565b612d378b606083016123c8565b612d4f612d46600789016106cb565b608083016123c8565b91612da4612d7c7f00000000000000000000000000000000000000000000000000000000000000006121db565b936334baeab9929597612d8d610352565b988997889687966122f8565b865260048601612b1f565b03915afa8015612f3e57612dc0915f91612f10575b50156103b1565b612ef4576001600583612dd2916111d7565b84612ddc91610594565b90612de6916124cf565b838584425f905f92600194612df9612b5f565b965f880190612e07916123c8565b6020870190612e15916123c8565b6040860190612e23916123c8565b6060850190612e31916123c8565b6080840190612e3f91612b6c565b612e4890611b26565b60a0830190612e56916123c8565b60c0820190612e6491612b6c565b600483612e7091610f2a565b84612e7a91610f40565b90612e8491612c57565b600b01612e90816106cb565b612e9990612561565b612ea291612508565b90917f049e5146cbefb4fff5586b703de455cb45794712230253d13f2d8c57da85a32391612ecf90610578565b92612ed990610578565b93612ee2610352565b918291612eef918361257d565b0390a3565b5f6309bde33960e01b815280612f0c6004820161051b565b0390fd5b612f31915060203d8111612f37575b612f2981836118b1565b810190612a04565b5f612db9565b503d612f1f565b612495565b5f6343c891cf60e11b815280612f5b6004820161051b565b0390fd5b5f636569570160e11b815280612f776004820161051b565b0390fd5b5f63abfb7dc360e01b815280612f936004820161051b565b0390fd5b5f63635e873760e01b815280612faf6004820161051b565b0390fd5b90565b5f5260205f2090565b5490565b612fcc81612fbf565b821015612fe657612fde600191612fb6565b910201905f90565b610a46565b1b90565b9190600861300a9102916130045f1984612feb565b92612feb565b9181191691161790565b919061302a61302561303293610578565b612505565b908354612fef565b9055565b9081549168010000000000000000831015613066578261305e91600161306495018155612fc3565b90613014565b565b61189d565b61307f61307a60118390610594565b6106ec565b6130f357613099600161309460118490610594565b6124cf565b6130ad6130a66010612fb3565b8290613036565b42906130ee6130dc7f1926a241ba9d59467ac0063e2cb861452b93ab650fff5378a82e86befecc27ab92610578565b926130e5610352565b91829182610468565b0390a2565b50565b606090565b60209181520190565b61310e90546106b7565b90565b60010190565b9061313461312e61312784610a5a565b80936130fb565b92610a5e565b905f5b8181106131445750505090565b90919261316461315e60019261315987613104565b610b43565b94613111565b9101919091613137565b9061317891613117565b90565b9061319b6131949261318b610352565b9384809261316e565b03836118b1565b565b6131a69061317b565b90565b6131b16130f6565b506131bc600861319d565b90565b606090565b5f90565b5f90565b6131e06131db6131e592611edf565b610575565b610cd8565b90565b6131fc6131f7613201926114e5565b610575565b610cd8565b90565b61321861321361321d92611b23565b610575565b610cd8565b90565b613229906118da565b90565b6132af6132b49161323b612999565b506132446131bf565b5061324d6131bf565b506132566131c4565b5061325f612999565b50613268612999565b50613271612999565b5061327a612999565b50613283612999565b5061328c612999565b50613295612999565b5061329e612999565b506132a76131c8565b506003611fbc565b61237c565b6132c96132c3600d83016106ec565b156103b1565b6133f4576132d56131c8565b50426132f46132ee6132e9600585016106cb565b610458565b91610458565b11155f146133af576133055f613204565b5b6133115f83016106cb565b6001830193600284019361332760038201611910565b93613334600783016106cb565b93613341600584016106cb565b9361334e600685016106cb565b9361335b600882016106cb565b93613368600983016106cb565b93613375600a84016106cb565b936133a261339c613394600c61338d600b89016106cb565b97016106cb565b94939e613220565b9c613220565b9a99989796959493929190565b426133cd6133c76133c2600685016106cb565b610458565b91610458565b11155f146133e5576133df60016131e8565b5b613306565b6133ef60026131cc565b6133e0565b5f63635e873760e01b81528061340c6004820161051b565b0390fd5b5f7f4f6e6c7920544f4e20746f6b656e2063616e2063616c6c000000000000000000910152565b6134446017602092610c7c565b61344d81613410565b0190565b6134669060208101905f818303910152613437565b90565b1561347057565b613478610352565b62461bcd60e51b81528061348e60048201613451565b0390fd5b61349b9061097c565b90565b5f7f496e76616c6964207370656e6465720000000000000000000000000000000000910152565b6134d2600f602092610c7c565b6134db8161349e565b0190565b6134f49060208101905f8183039101526134c5565b90565b156134fe57565b613506610352565b62461bcd60e51b81528061351c600482016134df565b0390fd5b67ffffffffffffffff81116135355760200290565b61189d565b9092919261354f61354a82613520565b612385565b93602085920283019281841161358757915b83831061356e5750505050565b6020809161357c84866104c6565b815201920191613561565b61082e565b9080601f830112156135a7576135a49160029061353a565b90565b610e4a565b67ffffffffffffffff81116135c15760200290565b61189d565b909291926135db6135d6826135ac565b612385565b93604085920283019281841161361457915b8383106135fa5750505050565b6020604091613609848661358c565b8152019201916135ed565b61082e565b9080601f8301121561363457613631916002906135c6565b90565b610e4a565b91906101a0838203126136b657613652815f85016104c6565b9261366082602083016104c6565b9261366e83604084016104c6565b9261367c81606085016104c6565b9261368a82608083016104c6565b926136b361369b8460a0850161358c565b936136a98160e08601613619565b936101600161358c565b90565b61035c565b90565b90565b6136d56136d06136da926136be565b610575565b610458565b90565b6136ec6136f291939293610458565b92610458565b916136fe838202610458565b92818404149015171561370d57565b612528565b5f7f496e73756666696369656e7420617070726f76656420616d6f756e7400000000910152565b613746601c602092610c7c565b61374f81613712565b0190565b6137689060208101905f818303910152613739565b90565b1561377257565b61377a610352565b62461bcd60e51b81528061379060048201613753565b0390fd5b50600290565b905090565b90565b60200190565b6137c46137be6137b783613794565b809461379a565b9161379f565b5f915b8383106137d45750505050565b6137ea6137e46001928451610b43565b926137a2565b920191906137c7565b50600290565b90565b905090565b61381d61381761381083613794565b80946137fc565b9161379f565b5f915b83831061382d5750505050565b61384361383d6001928451610b43565b926137a2565b92019190613820565b9061385981604093613801565b0190565b60200190565b61387f613879613872836137f3565b8094612a3a565b916137f9565b5f915b83831061388f5750505050565b6138a561389f600192845161384c565b9261385d565b92019190613882565b6138e56138ec946138db610100949897956138d16101a086019a5f8701906137a8565b6040850190613863565b60c08301906137a8565b0190612ad4565b565b60409061391761391e949695939661390d60608401985f850190610ccb565b6020830190610ccb565b019061045b565b565b5f7f544f4e207472616e73666572206661696c656400000000000000000000000000910152565b6139546013602092610c7c565b61395d81613920565b0190565b6139769060208101905f818303910152613947565b90565b1561398057565b613988610352565b62461bcd60e51b81528061399e60048201613961565b0390fd5b634e487b7160e01b5f52601260045260245ffd5b6139c26139c891610458565b91610458565b9081156139d3570490565b6139a2565b6139e3610100612385565b90565b90613aa760e06007613aad94613a095f8201613a035f8801612b8d565b90612508565b613a2260018201613a1c60208801612b8d565b90612508565b613a3b60028201613a3560408801612b8d565b90612508565b613a5460038201613a4e60608801612b8d565b90612508565b613a6d60048201613a6760808801612b8d565b90612508565b613a8660058201613a8060a08801612b9a565b906124cf565b613a9f60068201613a9960c08801612b8d565b90612508565b019201612b9a565b906124cf565b565b90613ab9916139e6565b565b604090613ae4613aeb9496959396613ada60608401985f85019061045b565b602083019061045b565b019061045b565b565b939092613b65613b6e9394613b006122b9565b50613b4533613b3f613b39613b347f00000000000000000000000000000000000000000000000000000000000000006113e1565b610913565b91610913565b14613469565b613b5f613b59613b5430613492565b610913565b91610913565b146134f7565b90810190613639565b93989295949791969497989596909390613b92613b8d600b889061179e565b6136bb565b94613ba8613ba2600e88016106ec565b156103b1565b6140d45742613bca613bc4613bbf60058a016106cb565b610458565b91610458565b116140b857613bed613be8613be1600d8a906111d7565b8b90610594565b6106ec565b61409c57613bfa8b61490d565b613c0d613c078a92610458565b91610458565b0361408057602091613c4d613c338a613c2d670de0b6b3a76400006136c1565b906136dd565b95613c46613c4088610458565b91610458565b101561376b565b613cee613c5a60056129cd565b613c668c5f83016123c8565b613c728d8683016123c8565b613c7f8a604083016123c8565b613c8c8b606083016123c8565b613ca4613c9b60078b016106cb565b608083016123c8565b91613cf9613cd17f0000000000000000000000000000000000000000000000000000000000000000611575565b936334baeab9929597613ce2610352565b988997889687966122f8565b8652600486016138ae565b03915afa801561407b57613d15915f9161404d575b50156103b1565b614031576020613d447f00000000000000000000000000000000000000000000000000000000000000006113e1565b6323b872dd90613d715f8693613d7c613d5c83611910565b97613d65610352565b988997889687956122f8565b8552600485016138ee565b03925af1801561402c57613d97915f91613ffe575b50613979565b613def6020613dc57f00000000000000000000000000000000000000000000000000000000000000006113e1565b6370a0823190613de48592613dd8610352565b958694859384936122f8565b835260048301611283565b03915afa908115613ff9575f91613fcb575b50908491670de0b6b3a7640000613e17906136c1565b613e20916139b6565b917f380f4b80ac5d183ff04f143a097611558815196006b7297cae774c0b5680a5ee91613e4c90610988565b92613e55610352565b918291613e62918361257d565b0390a26001600d83613e73916111d7565b85613e7d91610594565b90613e87916124cf565b84838786425f915f93600195613e9b6139d8565b975f890190613ea9916123c8565b6020880190613eb7916123c8565b6040870190613ec5916123c8565b6060860190613ed3916123c8565b6080850190613ee1916123c8565b60a0840190613eef91612b6c565b613ef890611b26565b60c0830190613f06916123c8565b60e0820190613f1491612b6c565b600c83613f2091610686565b85613f2a9161069c565b90613f3491613aaf565b80600c01613f41816106cb565b613f4a90612561565b613f5391612508565b8290600b0190613f62826106cb565b90613f6c9161253c565b613f7591612508565b9192937fbcf4fa36949e1955af2c6b6b628e50db0e23ec473b26480f3a584dd5a5d8953b92613fa390610578565b93613fad90610578565b94613fb6610352565b928392613fc39284613abb565b0390a3600190565b613fec915060203d8111613ff2575b613fe481836118b1565b8101906123e5565b5f613e01565b503d613fda565b612495565b61401f915060203d8111614025575b61401781836118b1565b810190612a04565b5f613d91565b503d61400d565b612495565b5f6309bde33960e01b8152806140496004820161051b565b0390fd5b61406e915060203d8111614074575b61406681836118b1565b810190612a04565b5f613d0e565b503d61405c565b612495565b5f6315252a2960e21b8152806140986004820161051b565b0390fd5b5f636569570160e11b8152806140b46004820161051b565b0390fd5b5f63abfb7dc360e01b8152806140d06004820161051b565b0390fd5b5f63635e873760e01b8152806140ec6004820161051b565b0390fd5b61410761410c916140ff6122b9565b506006610594565b6106ec565b90565b61411a6101c0612385565b90565b5f80fd5b67ffffffffffffffff811161413f5761413b602091610c90565b0190565b61189d565b90825f939282370152565b9092919261416461415f82614121565b612385565b938185526020850190828401116141805761417e92614144565b565b61411d565b61419091369161414f565b90565b52565b906141a090610913565b9052565b5190565b601f602091010490565b6141c4916141be612999565b91613014565b565b5f5b8281106141d457505050565b806141e35f60019385016141b2565b016141c8565b9190601f81116141f9575b505050565b818111614206575b6141f4565b61421b614215614239946117fb565b916141a8565b916020614227826141a8565b9110614241575b8091019103906141c6565b5f8080614201565b505f61422e565b90614258905f199060080261041c565b191690565b8161426791614248565b906002021790565b9061427981610c78565b9067ffffffffffffffff82116143395761429d8261429785546117c8565b856141e9565b602090601f83116001146142d1579180916142c0935f926142c5575b505061425d565b90555b565b90915001515f806142b9565b601f198316916142e0856117fb565b925f5b81811061432157509160029391856001969410614307575b505050020190556142c3565b614317910151601f841690614248565b90555f80806142fb565b919360206001819287870151815501950192016142e3565b61189d565b906143489161426f565b565b6143549051610913565b90565b9061436860018060a01b03916124a5565b9181191691161790565b90565b9061438a61438561439192610988565b614372565b8254614357565b9055565b906144f26101a0600d6144f8946143b95f82016143b35f8801612b8d565b90612508565b6143d2600182016143cc602088016141a4565b9061433e565b6143eb600282016143e5604088016141a4565b9061433e565b614404600382016143fe6060880161434a565b90614375565b61441d6004820161441760808801612b8d565b90612508565b6144366005820161443060a08801612b8d565b90612508565b61444f6006820161444960c08801612b8d565b90612508565b6144686007820161446260e08801612b8d565b90612508565b6144826008820161447c6101008801612b8d565b90612508565b61449c600982016144966101208801612b8d565b90612508565b6144b6600a82016144b06101408801612b8d565b90612508565b6144d0600b82016144ca6101608801612b8d565b90612508565b6144ea600c82016144e46101808801612b8d565b90612508565b019201612b9a565b906124cf565b565b9061450491614395565b565b60016145129101610458565b90565b919061452f816145288161453495610c7c565b8095614144565b610c90565b0190565b9061457b9461456a61455f614574936060969a99979a60808701918783035f890152614515565b98602085019061045b565b604083019061045b565b019061045b565b565b919593929694909661458d612999565b506145ab6145a56145a060068790610594565b6106ec565b156103b1565b614819576145b960016106cb565b6145c290612561565b6145cd906001612508565b6145d760016106cb565b96879184908a92334242886145eb9161253c565b42896145f69161253c565b8c6146009161253c565b918b935f955f975f995f9b61461361410f565b9d5f8f0190614621916123c8565b61462a91614185565b60208d019061463891614193565b61464191614185565b60408b019061464f91614193565b60608a019061465d91614196565b608089019061466b916123c8565b60a0880190614679916123c8565b60c0870190614687916123c8565b60e0860190614695916123c8565b61469e90611b26565b6101008501906146ad916123c8565b6146b690611b26565b6101208401906146c5916123c8565b6146ce90611b26565b6101408301906146dd916123c8565b6146e690611b26565b6101608201906146f5916123c8565b6146fe5f611b26565b61018082019061470d916123c8565b6101a08101600161471d91612b6c565b60038761472991611fbc565b90614733916144fa565b5f61473d90611b26565b5b8061475a61475461474f6008610a5a565b610458565b91610458565b10156147a05761479b9061479661477b614776600a8b90610bf7565b612fb3565b61479061478a60088590610a67565b9061043b565b90613036565b614506565b61473e565b509091929395614813869391926147cd3396976147c86147c142859061253c565b934261253c565b61253c565b906148016147fb7f16356ec948fe2183cece6a7b111beef5be873032e9698d3fbf0e0168d0fc91a897610578565b97610988565b9761480a610352565b95869586614538565b0390a390565b5f639dd854d360e01b8152806148316004820161051b565b0390fd5b90565b61484c61484760123390610994565b614835565b9061486261485c600284016106ec565b156103b1565b5f146148e957614874815f8401612508565b6148896148805f611b26565b60018401612508565b6148976001600284016124cf565b5b6148a55f339293016106cb565b6148cf7fc8bc4842cf61a3f6cbf597029d937fdf158ef4959a9616594587a0fb8c6b871192610988565b926148e46148db610352565b9283928361257d565b0390a2565b614908816149025f8501916148fd836106cb565b61253c565b90612508565b614898565b61492090614919612999565b50806136dd565b90565b61493a61493f916149326131c8565b50600b61179e565b6136bb565b61495461494e600e83016106ec565b156103b1565b6149c7574261497661497061496b600585016106cb565b610458565b91610458565b11156149ba5761499a61499461498f60064294016106cb565b610458565b91610458565b11156149ad576149aa60026131cc565b90565b6149b760016131e8565b90565b506149c45f613204565b90565b5f63635e873760e01b8152806149df6004820161051b565b0390fd5b6149f76149f260098390610594565b6106ec565b614a6b57614a116001614a0c60098490610594565b6124cf565b614a25614a1e6008612fb3565b8290613036565b4290614a66614a547f85238313f6b4aa1ea470340fc24bc06d68e734cd21411160c06714eb547571af92610578565b92614a5d610352565b91829182610468565b0390a2565b50565b614a766130f6565b50614a81601061319d565b90565b614a9a6001614a9560068490610594565b6124cf565b614aae614aa76007612fb3565b8290613036565b4290614aef614add7fcb23ed79d0d407699762f186152925a6b8dd62fc4b2223f50a16534af8c883f892610578565b92614ae6610352565b91829182610468565b0390a2565b600190818003010490565b5f5b828110614b0d57505050565b80614b1c5f60019385016141b2565b01614b01565b9190808210614b31575b505050565b614b5b92614b4a614b44614b5293614af4565b93614af4565b918291610a5e565b01910390614aff565b5f8080614b2c565b90680100000000000000008111614b8c5781614b81614b8a93610a5a565b90828155614b22565b565b61189d565b5f614b9b91614b63565b565b905f03614baf57614bad90614b91565b565b612b7a565b91614bc9614bc460038590611fbc565b61237c565b614bde614bd8600d83016106ec565b156103b1565b614cc857614bf0906007849101612508565b614c055f614c00600a8690610bf7565b614b9d565b614c0e5f611b26565b5b80614c2b614c25614c206008610a5a565b610458565b91610458565b1015614c7157614c6c90614c67614c4c614c47600a8890610bf7565b612fb3565b614c61614c5b60088590610a67565b9061043b565b90613036565b614506565b614c0f565b509150614c91614c8b614c8660068490610594565b6106ec565b156103b1565b614c99575b50565b614cc290614cb36001614cae60068490610594565b6124cf565b614cbd6007612fb3565b613036565b5f614c96565b5f63635e873760e01b815280614ce06004820161051b565b0390fd5b6020614d4391614cf2612999565b50614d1c7f00000000000000000000000000000000000000000000000000000000000000006113e1565b614d386370a08231614d2c610352565b958694859384936122f8565b835260048301611283565b03915afa8015614da157614d70915f91614d73575b50614d6a670de0b6b3a76400006136c1565b906139b6565b90565b614d94915060203d8111614d9a575b614d8c81836118b1565b8101906123e5565b5f614d58565b503d614d82565b612495565b614db5614dbb91939293610458565b92610458565b8203918211614dc657565b612528565b9293949690959196614de7614de2600b869061179e565b6136bb565b92614dfd614df7600e86016106ec565b156103b1565b6153495742614e1f614e19614e14600588016106cb565b610458565b91610458565b1161532d57614e42614e3d614e36600d88906111d7565b8990610594565b6106ec565b61531157614e4f8961490d565b614e62614e5c8892610458565b91610458565b036152f557602091614f0b614e7760056129cd565b614e838a5f83016123c8565b614e8f8b8683016123c8565b614e9c88604083016123c8565b614ea989606083016123c8565b614ec1614eb8600789016106cb565b608083016123c8565b91614f16614eee7f0000000000000000000000000000000000000000000000000000000000000000611575565b936334baeab9929597614eff610352565b988997889687966122f8565b865260048601612b1f565b03915afa80156152f057614f32915f916152c2575b50156103b1565b6152a657614f5183614f4b670de0b6b3a76400006136c1565b906136dd565b614fa96020614f7f7f00000000000000000000000000000000000000000000000000000000000000006113e1565b6370a0823190614f9e3392614f92610352565b958694859384936122f8565b835260048301611283565b03915afa9081156152a1575f91615273575b509081614fd0614fca83610458565b91610458565b106152575760206150007f00000000000000000000000000000000000000000000000000000000000000006113e1565b6323b872dd9061502d5f339361503861501883611910565b97615021610352565b988997889687956122f8565b8552600485016138ee565b03925af1908115615252575f91615224575b5061505490613979565b338491670de0b6b3a7640000615069906136c1565b615072916139b6565b8561507c91614da6565b917f380f4b80ac5d183ff04f143a097611558815196006b7297cae774c0b5680a5ee916150a890610988565b926150b1610352565b9182916150be918361257d565b0390a26001600d836150cf916111d7565b856150d991610594565b906150e3916124cf565b84838786425f915f936001956150f76139d8565b975f890190615105916123c8565b6020880190615113916123c8565b6040870190615121916123c8565b606086019061512f916123c8565b608085019061513d916123c8565b60a084019061514b91612b6c565b61515490611b26565b60c0830190615162916123c8565b60e082019061517091612b6c565b600c8361517c91610686565b856151869161069c565b9061519091613aaf565b80600c0161519d816106cb565b6151a690612561565b6151af91612508565b8290600b01906151be826106cb565b906151c89161253c565b6151d191612508565b9192937fbcf4fa36949e1955af2c6b6b628e50db0e23ec473b26480f3a584dd5a5d8953b926151ff90610578565b9361520990610578565b94615212610352565b92839261521f9284613abb565b0390a3565b615245915060203d811161524b575b61523d81836118b1565b810190612a04565b5f61504a565b503d615233565b612495565b5f6343fb945360e01b81528061526f6004820161051b565b0390fd5b615294915060203d811161529a575b61528c81836118b1565b8101906123e5565b5f614fbb565b503d615282565b612495565b5f6309bde33960e01b8152806152be6004820161051b565b0390fd5b6152e3915060203d81116152e9575b6152db81836118b1565b810190612a04565b5f614f2b565b503d6152d1565b612495565b5f6315252a2960e21b81528061530d6004820161051b565b0390fd5b5f636569570160e11b8152806153296004820161051b565b0390fd5b5f63abfb7dc360e01b8152806153456004820161051b565b0390fd5b5f63635e873760e01b8152806153616004820161051b565b0390fd5b61537b6001615376600e8490610594565b6124cf565b61538f615388600f612fb3565b8290613036565b42906153d06153be7fc437041eca78e842ff32dc1036255a23da98c52b2f3bd3a875923aadb0276b3d92610578565b926153c7610352565b91829182610468565b0390a2565b615461615466916153e4612999565b506153ed6131bf565b506153f66131bf565b506153ff6131c4565b50615408612999565b50615411612999565b5061541a612999565b50615423612999565b5061542c612999565b50615435612999565b5061543e612999565b50615447612999565b50615450612999565b506154596131c8565b50600b61179e565b6136bb565b9061547c615476600e84016106ec565b156103b1565b6155b9576154886131c8565b50426154a76154a161549c600586016106cb565b610458565b91610458565b11155f14615572576154b85f613204565b915b6154c55f82016106cb565b92600182019360028301936154dc60038501611910565b936154e9600782016106cb565b936154f6600583016106cb565b93615503600684016106cb565b93615510600885016106cb565b9361551d600982016106cb565b9361552a600a83016106cb565b93615537600b84016106cb565b9361556461555e615556600d61554f600c89016106cb565b97016106cb565b94939f613220565b9d613220565b9b9a99989796959493929190565b4261559061558a615585600686016106cb565b610458565b91610458565b11155f146155a9576155a260016131e8565b915b6154ba565b6155b360026131cc565b916155a4565b5f63635e873760e01b8152806155d16004820161051b565b0390fd5b90565b93909192936155f16155ec600b839061179e565b6136bb565b61560f61560a615603600c8590610686565b869061069c565b6155d5565b9261562561561f600e84016106ec565b156103b1565b615a7b574261564761564161563c600586016106cb565b610458565b91610458565b1115615a5f574261566b615665615660600686016106cb565b610458565b91610458565b11615a435761568561567f600786016106ec565b156103b1565b615a2757615695600585016106ec565b615a0b57856156b36156ad6156a8611efe565b610458565b91610458565b116159ef5761574a60206156da73__$0daf1669a85ce10529e05b8a030b9567e1$__612382565b638709cd8c9061573f6156ed60046123b4565b926156fa8c5f86016123c8565b6157068d8686016123c8565b61571e61571560018c016106cb565b604086016123c8565b61572b89606086016123c8565b615733610352565b958694859384936122f8565b835260048301612480565b03915af49182156159ea576157f6926020925f916159bd575b50906157eb61578573__$0daf1669a85ce10529e05b8a030b9567e1$__612382565b916157ad638709cd8c916157a561579c60046123b4565b965f88016123c8565b8686016123c8565b6157c26157b95f611b26565b604086016123c8565b6157d76157ce5f611b26565b606086016123c8565b6157df610352565b958694859384936122f8565b835260048301612480565b03915af49081156159b8575f9161598a575b5061582561581f61581a5f87016106cb565b610458565b91610458565b0361596e576158b4916158aa600d60019361584385600589016124cf565b6158508960068901612508565b8861586a61586461585f611504565b610458565b91610458565b145f14615902576158918a61588b6008840191615886836106cb565b61253c565b90612508565b5b016158a461589f826106cb565b612561565b90612508565b93949592016106cb565b936158fd6158eb6158e57f3c283986862ad16cc4d3240256474e99bfc9df697a62f7351373cbdefb3d14f895610578565b95610578565b956158f4610352565b93849384613abb565b0390a3565b8861591c615916615911611b42565b610458565b91610458565b145f14615949576159438a61593d6009840191615938836106cb565b61253c565b90612508565b5b615892565b6159698a615963600a84019161595e836106cb565b61253c565b90612508565b615944565b5f639ea6d12760e01b8152806159866004820161051b565b0390fd5b6159ab915060203d81116159b1575b6159a381836118b1565b8101906123e5565b5f615808565b503d615999565b612495565b6159dd9150833d81116159e3575b6159d581836118b1565b8101906123e5565b5f615763565b503d6159cb565b612495565b5f639c45400160e01b815280615a076004820161051b565b0390fd5b5f63a89ac15160e01b815280615a236004820161051b565b0390fd5b5f635b34156960e11b815280615a3f6004820161051b565b0390fd5b5f6374683d7160e01b815280615a5b6004820161051b565b0390fd5b5f6374683d7160e01b815280615a776004820161051b565b0390fd5b5f63635e873760e01b815280615a936004820161051b565b0390fd5b615aa26101e0612385565b90565b90615c1c6101c0600e615c2294615ac95f8201615ac35f8801612b8d565b90612508565b615ae260018201615adc602088016141a4565b9061433e565b615afb60028201615af5604088016141a4565b9061433e565b615b1460038201615b0e6060880161434a565b90614375565b615b2d60048201615b2760808801612b8d565b90612508565b615b4660058201615b4060a08801612b8d565b90612508565b615b5f60068201615b5960c08801612b8d565b90612508565b615b7860078201615b7260e08801612b8d565b90612508565b615b9260088201615b8c6101008801612b8d565b90612508565b615bac60098201615ba66101208801612b8d565b90612508565b615bc6600a8201615bc06101408801612b8d565b90612508565b615be0600b8201615bda6101608801612b8d565b90612508565b615bfa600c8201615bf46101808801612b8d565b90612508565b615c14600d8201615c0e6101a08801612b8d565b90612508565b019201612b9a565b906124cf565b565b90615c2e91615aa5565b565b92959195615c3c612999565b50615c5a615c54615c4f600e8890610594565b6106ec565b156103b1565b615e6a57615c6860026106cb565b615c7190612561565b615c7c906002612508565b615c8660026106cb565b96879185908492428a615c989161253c565b91428b615ca49161253c565b88615cae9161253c565b938a95615cb9615a97565b975f890190615cc7916123c8565b615cd091614185565b6020870190615cde91614193565b615ce791614185565b6040850190615cf591614193565b336060850190615d0491614196565b426080850190615d13916123c8565b60a0840190615d21916123c8565b60c0830190615d2f916123c8565b60e0820190615d3d916123c8565b615d465f611b26565b610100820190615d55916123c8565b615d5e5f611b26565b610120820190615d6d916123c8565b615d765f611b26565b610140820190615d85916123c8565b615d8e5f611b26565b610160820190615d9d916123c8565b615da65f611b26565b610180820190615db5916123c8565b615dbe5f611b26565b6101a0820190615dcd916123c8565b6101c081016001615ddd91612b6c565b600b87615de99161179e565b90615df391615c24565b85923394924287615e039161253c565b964290615e0f9161253c565b90615e199161253c565b7f4742ce2d5f823dbde60d41925bff9b938299879eba7f67fa0029c8633d92b65494615e4490610578565b95615e4e90610988565b96615e57610352565b948594615e649486614538565b0390a390565b5f633398105560e01b815280615e826004820161051b565b0390fd5b615e9d615ea291615e956122b9565b50600e610594565b6106ec565b90565b615eaf6060612385565b90565b90615ef660406002615efc94615ed55f8201615ecf5f8801612b8d565b90612508565b615eee60018201615ee860208801612b8d565b90612508565b019201612b9a565b906124cf565b565b90615f0891615eb2565b565b615f2a615f246002615f1e60123390610994565b016106ec565b156103b1565b615f31575b565b615f85615f3c6112ec565b615f745f615f6b615f62600192615f5d615f54615ea5565b965f88016123c8565b611b26565b602085016123c8565b60408301612b6c565b615f8060123390610994565b615efe565b33615f8e6112ec565b90615fce615fbc7f840108f8f5f45d25a166719fa7440c37016845a955726b639e64fb325f73100792610988565b92615fc5610352565b91829182610468565b0390a2615f2f56fea264697066735822122073bdbc1a2243a61a3587d1f8790a3eab886b5e06522b71b595efd68cb92b4baf64736f6c63430008210033","linkReferences":{"contracts/PoseidonT5.sol":{"PoseidonT5":[{"start":10527,"length":20},{"start":22867,"length":20},{"start":23038,"length":20}]}}},"methodIdentifiers":{"CHOICE_ABSTAIN()":"d90292a3","CHOICE_AGAINST()":"b5770c33","CHOICE_FOR()":"8ea7a274","INITIAL_CREDITS()":"697aa8e8","calculateQuadraticCost(uint256)":"74dd0fea","castVoteD1(uint256,uint256,uint256,uint256,uint256[2],uint256[2][2],uint256[2])":"18dbeb4c","castVoteD2(uint256,uint256,uint256,uint256,uint256,uint256[2],uint256[2][2],uint256[2])":"badbc2ed","commitmentsD1(uint256,uint256)":"4275e031","commitmentsD2(uint256,uint256)":"13703e66","createProposalD1(string,string,uint256,uint256,uint256)":"4d09b49f","createProposalD2(string,string,uint256,uint256,uint256)":"db5bd601","creditRootHistory(uint256)":"a329b313","getAvailableCredits(address)":"b065a8e5","getPhaseD2(uint256)":"850099cd","getProposalD1(uint256)":"315401c0","getProposalD2(uint256)":"d54bb70b","getRegisteredCreditNotes()":"a1c7574a","getRegisteredVoters()":"2bc4a6e7","getVoterCount()":"11174a29","initializeCredits()":"fb9607d3","isCreditNoteRegistered(uint256)":"0d70ece8","isCreditRootValid(uint256)":"ef3a2b39","isMerkleRootValid(uint256)":"4a9284fb","isVoterRegistered(uint256)":"6d3cba61","merkleRootHistory(uint256)":"b5ad9215","mintTestTokens(uint256)":"52a48c56","nullifierUsedD1(uint256,uint256)":"5938862f","nullifierUsedD2(uint256,uint256)":"833722c5","onApprove(address,address,uint256,bytes)":"4273ca16","proposalCountD1()":"f9058741","proposalCountD2()":"03a229f7","proposalVoterSnapshots(uint256,uint256)":"2c5317c0","proposalsD1(uint256)":"f025d082","proposalsD2(uint256)":"b4e0d6af","registerCreditNote(uint256)":"2bbe44fd","registerCreditRoot(uint256)":"d5444336","registerMerkleRoot(uint256)":"a4cae8f8","registerVoter(uint256)":"a13f2f8d","registeredCreditNotes(uint256)":"974f7aa3","registeredVoters(uint256)":"2436e06b","revealVoteD1(uint256,uint256,uint256,uint256)":"0572c801","revealVoteD2(uint256,uint256,uint256,uint256,uint256)":"d55d533e","supportsInterface(bytes4)":"01ffc9a7","tonToken()":"781a4852","treasury()":"61d027b3","updateProposalVoters(uint256,uint256)":"aa609848","userCredits(address)":"20babb92","validCreditRoots(uint256)":"417e70c8","validMerkleRoots(uint256)":"cb1bb033","verifierD1()":"f58789ae","verifierD2()":"94ffe6a0"},"id":1}