{"abi":[{"type":"constructor","inputs":[{"name":"_verifier","type":"address","internalType":"address"}],"stateMutability":"nonpayable"},{"type":"function","name":"CHOICE_ABSTAIN","inputs":[],"outputs":[{"name":"","type":"uint256","internalType":"uint256"}],"stateMutability":"view"},{"type":"function","name":"CHOICE_AGAINST","inputs":[],"outputs":[{"name":"","type":"uint256","internalType":"uint256"}],"stateMutability":"view"},{"type":"function","name":"CHOICE_FOR","inputs":[],"outputs":[{"name":"","type":"uint256","internalType":"uint256"}],"stateMutability":"view"},{"type":"function","name":"commitVote","inputs":[{"name":"_proposalId","type":"uint256","internalType":"uint256"},{"name":"_commitment","type":"uint256","internalType":"uint256"},{"name":"_votingPower","type":"uint256","internalType":"uint256"},{"name":"_nullifier","type":"uint256","internalType":"uint256"},{"name":"_pA","type":"uint256[2]","internalType":"uint256[2]"},{"name":"_pB","type":"uint256[2][2]","internalType":"uint256[2][2]"},{"name":"_pC","type":"uint256[2]","internalType":"uint256[2]"}],"outputs":[],"stateMutability":"nonpayable"},{"type":"function","name":"commitments","inputs":[{"name":"","type":"uint256","internalType":"uint256"},{"name":"","type":"uint256","internalType":"uint256"}],"outputs":[{"name":"commitment","type":"uint256","internalType":"uint256"},{"name":"votingPower","type":"uint256","internalType":"uint256"},{"name":"nullifier","type":"uint256","internalType":"uint256"},{"name":"timestamp","type":"uint256","internalType":"uint256"},{"name":"revealed","type":"bool","internalType":"bool"},{"name":"revealedChoice","type":"uint256","internalType":"uint256"},{"name":"exists","type":"bool","internalType":"bool"}],"stateMutability":"view"},{"type":"function","name":"createProposal","inputs":[{"name":"_title","type":"string","internalType":"string"},{"name":"_description","type":"string","internalType":"string"},{"name":"_merkleRoot","type":"uint256","internalType":"uint256"},{"name":"_votingDuration","type":"uint256","internalType":"uint256"},{"name":"_revealDuration","type":"uint256","internalType":"uint256"}],"outputs":[{"name":"","type":"uint256","internalType":"uint256"}],"stateMutability":"nonpayable"},{"type":"function","name":"deleteProposal","inputs":[{"name":"_proposalId","type":"uint256","internalType":"uint256"}],"outputs":[],"stateMutability":"nonpayable"},{"type":"function","name":"getCommitment","inputs":[{"name":"_proposalId","type":"uint256","internalType":"uint256"},{"name":"_nullifier","type":"uint256","internalType":"uint256"}],"outputs":[{"name":"commitment","type":"uint256","internalType":"uint256"},{"name":"votingPower","type":"uint256","internalType":"uint256"},{"name":"revealed","type":"bool","internalType":"bool"},{"name":"revealedChoice","type":"uint256","internalType":"uint256"}],"stateMutability":"view"},{"type":"function","name":"getMerkleRoots","inputs":[],"outputs":[{"name":"","type":"uint256[]","internalType":"uint256[]"}],"stateMutability":"view"},{"type":"function","name":"getPhase","inputs":[{"name":"_proposalId","type":"uint256","internalType":"uint256"}],"outputs":[{"name":"","type":"uint8","internalType":"uint8"}],"stateMutability":"view"},{"type":"function","name":"getProposal","inputs":[{"name":"_proposalId","type":"uint256","internalType":"uint256"}],"outputs":[{"name":"id","type":"uint256","internalType":"uint256"},{"name":"title","type":"string","internalType":"string"},{"name":"description","type":"string","internalType":"string"},{"name":"proposer","type":"address","internalType":"address"},{"name":"merkleRoot","type":"uint256","internalType":"uint256"},{"name":"endTime","type":"uint256","internalType":"uint256"},{"name":"revealEndTime","type":"uint256","internalType":"uint256"},{"name":"forVotes","type":"uint256","internalType":"uint256"},{"name":"againstVotes","type":"uint256","internalType":"uint256"},{"name":"abstainVotes","type":"uint256","internalType":"uint256"},{"name":"totalCommitments","type":"uint256","internalType":"uint256"},{"name":"revealedVotes","type":"uint256","internalType":"uint256"},{"name":"phase","type":"uint8","internalType":"uint8"}],"stateMutability":"view"},{"type":"function","name":"getProposalVoterSnapshot","inputs":[{"name":"_proposalId","type":"uint256","internalType":"uint256"}],"outputs":[{"name":"","type":"uint256[]","internalType":"uint256[]"}],"stateMutability":"view"},{"type":"function","name":"getRegisteredVoters","inputs":[],"outputs":[{"name":"","type":"uint256[]","internalType":"uint256[]"}],"stateMutability":"view"},{"type":"function","name":"getVoterCount","inputs":[],"outputs":[{"name":"","type":"uint256","internalType":"uint256"}],"stateMutability":"view"},{"type":"function","name":"isMerkleRootValid","inputs":[{"name":"_merkleRoot","type":"uint256","internalType":"uint256"}],"outputs":[{"name":"","type":"bool","internalType":"bool"}],"stateMutability":"view"},{"type":"function","name":"isNullifierUsed","inputs":[{"name":"_proposalId","type":"uint256","internalType":"uint256"},{"name":"_nullifier","type":"uint256","internalType":"uint256"}],"outputs":[{"name":"","type":"bool","internalType":"bool"}],"stateMutability":"view"},{"type":"function","name":"isVoterRegistered","inputs":[{"name":"","type":"uint256","internalType":"uint256"}],"outputs":[{"name":"","type":"bool","internalType":"bool"}],"stateMutability":"view"},{"type":"function","name":"merkleRootHistory","inputs":[{"name":"","type":"uint256","internalType":"uint256"}],"outputs":[{"name":"","type":"uint256","internalType":"uint256"}],"stateMutability":"view"},{"type":"function","name":"nullifierUsed","inputs":[{"name":"","type":"uint256","internalType":"uint256"},{"name":"","type":"uint256","internalType":"uint256"}],"outputs":[{"name":"","type":"bool","internalType":"bool"}],"stateMutability":"view"},{"type":"function","name":"proposalCount","inputs":[],"outputs":[{"name":"","type":"uint256","internalType":"uint256"}],"stateMutability":"view"},{"type":"function","name":"proposalVoterSnapshots","inputs":[{"name":"","type":"uint256","internalType":"uint256"},{"name":"","type":"uint256","internalType":"uint256"}],"outputs":[{"name":"","type":"uint256","internalType":"uint256"}],"stateMutability":"view"},{"type":"function","name":"proposals","inputs":[{"name":"","type":"uint256","internalType":"uint256"}],"outputs":[{"name":"id","type":"uint256","internalType":"uint256"},{"name":"title","type":"string","internalType":"string"},{"name":"description","type":"string","internalType":"string"},{"name":"proposer","type":"address","internalType":"address"},{"name":"startTime","type":"uint256","internalType":"uint256"},{"name":"endTime","type":"uint256","internalType":"uint256"},{"name":"revealEndTime","type":"uint256","internalType":"uint256"},{"name":"merkleRoot","type":"uint256","internalType":"uint256"},{"name":"forVotes","type":"uint256","internalType":"uint256"},{"name":"againstVotes","type":"uint256","internalType":"uint256"},{"name":"abstainVotes","type":"uint256","internalType":"uint256"},{"name":"totalCommitments","type":"uint256","internalType":"uint256"},{"name":"revealedVotes","type":"uint256","internalType":"uint256"},{"name":"exists","type":"bool","internalType":"bool"}],"stateMutability":"view"},{"type":"function","name":"registerMerkleRoot","inputs":[{"name":"_merkleRoot","type":"uint256","internalType":"uint256"}],"outputs":[],"stateMutability":"nonpayable"},{"type":"function","name":"registerVoter","inputs":[{"name":"_noteHash","type":"uint256","internalType":"uint256"}],"outputs":[],"stateMutability":"nonpayable"},{"type":"function","name":"registeredVoters","inputs":[{"name":"","type":"uint256","internalType":"uint256"}],"outputs":[{"name":"","type":"uint256","internalType":"uint256"}],"stateMutability":"view"},{"type":"function","name":"revealVote","inputs":[{"name":"_proposalId","type":"uint256","internalType":"uint256"},{"name":"_nullifier","type":"uint256","internalType":"uint256"},{"name":"_choice","type":"uint256","internalType":"uint256"},{"name":"_voteSalt","type":"uint256","internalType":"uint256"}],"outputs":[],"stateMutability":"nonpayable"},{"type":"function","name":"updateProposalVoters","inputs":[{"name":"_proposalId","type":"uint256","internalType":"uint256"},{"name":"_newMerkleRoot","type":"uint256","internalType":"uint256"}],"outputs":[],"stateMutability":"nonpayable"},{"type":"function","name":"validMerkleRoots","inputs":[{"name":"","type":"uint256","internalType":"uint256"}],"outputs":[{"name":"","type":"bool","internalType":"bool"}],"stateMutability":"view"},{"type":"function","name":"verifier","inputs":[],"outputs":[{"name":"","type":"address","internalType":"contract IVerifier"}],"stateMutability":"view"},{"type":"event","name":"MerkleRootRegistered","inputs":[{"name":"merkleRoot","type":"uint256","indexed":true,"internalType":"uint256"},{"name":"timestamp","type":"uint256","indexed":false,"internalType":"uint256"}],"anonymous":false},{"type":"event","name":"ProposalCreated","inputs":[{"name":"proposalId","type":"uint256","indexed":true,"internalType":"uint256"},{"name":"title","type":"string","indexed":false,"internalType":"string"},{"name":"proposer","type":"address","indexed":true,"internalType":"address"},{"name":"merkleRoot","type":"uint256","indexed":false,"internalType":"uint256"},{"name":"endTime","type":"uint256","indexed":false,"internalType":"uint256"},{"name":"revealEndTime","type":"uint256","indexed":false,"internalType":"uint256"}],"anonymous":false},{"type":"event","name":"VoteCommitted","inputs":[{"name":"proposalId","type":"uint256","indexed":true,"internalType":"uint256"},{"name":"nullifier","type":"uint256","indexed":true,"internalType":"uint256"},{"name":"commitment","type":"uint256","indexed":false,"internalType":"uint256"},{"name":"votingPower","type":"uint256","indexed":false,"internalType":"uint256"}],"anonymous":false},{"type":"event","name":"VoteRevealed","inputs":[{"name":"proposalId","type":"uint256","indexed":true,"internalType":"uint256"},{"name":"nullifier","type":"uint256","indexed":true,"internalType":"uint256"},{"name":"choice","type":"uint256","indexed":false,"internalType":"uint256"},{"name":"votingPower","type":"uint256","indexed":false,"internalType":"uint256"}],"anonymous":false},{"type":"event","name":"VoterRegistered","inputs":[{"name":"noteHash","type":"uint256","indexed":true,"internalType":"uint256"},{"name":"timestamp","type":"uint256","indexed":false,"internalType":"uint256"}],"anonymous":false},{"type":"error","name":"AlreadyRevealed","inputs":[]},{"type":"error","name":"CommitmentNotFound","inputs":[]},{"type":"error","name":"InvalidChoice","inputs":[]},{"type":"error","name":"InvalidMerkleRoot","inputs":[]},{"type":"error","name":"InvalidProof","inputs":[]},{"type":"error","name":"InvalidReveal","inputs":[]},{"type":"error","name":"NotInCommitPhase","inputs":[]},{"type":"error","name":"NotInRevealPhase","inputs":[]},{"type":"error","name":"NotProposer","inputs":[]},{"type":"error","name":"NullifierAlreadyUsed","inputs":[]},{"type":"error","name":"ProposalHasVotes","inputs":[]},{"type":"error","name":"ProposalNotFound","inputs":[]},{"type":"error","name":"ZeroVotingPower","inputs":[]}],"bytecode":{"object":"0x60a06040523461003f57610019610014610104565b61015c565b610021610044565b61340a61016b82396080518181816108480152612371015261340a90f35b61004a565b60405190565b5f80fd5b601f801991011690565b634e487b7160e01b5f52604160045260245ffd5b906100769061004e565b810190811060018060401b0382111761008e57604052565b610058565b906100a661009f610044565b928361006c565b565b5f80fd5b60018060a01b031690565b6100c0906100ac565b90565b6100cc816100b7565b036100d357565b5f80fd5b905051906100e4826100c3565b565b906020828203126100ff576100fc915f016100d7565b90565b6100a8565b6101226135758038038061011781610093565b9283398101906100e6565b90565b90565b61013c610137610141926100ac565b610125565b6100ac565b90565b61014d90610128565b90565b61015990610144565b90565b61016590610150565b60805256fe60806040526004361015610013575b61148c565b61001d5f356101ec565b8063013cf08b146101e757806311174a29146101e257806316ef376b146101dd5780632436e06b146101d85780632b7ac3f3146101d35780632bc4a6e7146101ce5780632c5317c0146101c957806333423c06146101c45780634a9284fb146101bf57806351fce2e6146101ba5780636d3cba61146101b55780637164f0d6146101b05780638259d553146101ab57806385135a1a146101a657806385c74296146101a15780638ea7a2741461019c578063a13f2f8d14610197578063a4cae8f814610192578063aa6098481461018d578063b30c510b14610188578063b5770c3314610183578063b5ad92151461017e578063b719051614610179578063c7f758a814610174578063cb1bb0331461016f578063d13e2e601461016a578063d90292a314610165578063da35c664146101605763e78ffc960361000e57611456565b6113ea565b6113a7565b611333565b6111fb565b61119d565b61109c565b611067565b611006565b610f99565b610f1f565b610eec565b610eb9565b610e84565b610e17565b610de2565b610daf565b610d75565b610d02565b610c73565b610b9d565b610b4c565b610a41565b610994565b6108c0565b610811565b61073d565b6106e0565b610674565b60e01c90565b60405190565b5f80fd5b5f80fd5b5f80fd5b90565b61021081610204565b0361021757565b5f80fd5b9050359061022882610207565b565b9060208282031261024357610240915f0161021b565b90565b6101fc565b90565b61025f61025a61026492610204565b610248565b610204565b90565b906102719061024b565b5f5260205260405f2090565b5f1c90565b90565b6102916102969161027d565b610282565b90565b6102a39054610285565b90565b634e487b7160e01b5f52602260045260245ffd5b90600160028304921680156102da575b60208310146102d557565b6102a6565b91607f16916102ca565b60209181520190565b5f5260205f2090565b905f9291805490610310610309836102ba565b80946102e4565b916001811690815f14610367575060011461032b575b505050565b61033891929394506102ed565b915f925b81841061034f57505001905f8080610326565b6001816020929593955484860152019101929061033c565b92949550505060ff19168252151560200201905f8080610326565b9061038c916102f6565b90565b601f801991011690565b634e487b7160e01b5f52604160045260245ffd5b906103b79061038f565b810190811067ffffffffffffffff8211176103d157604052565b610399565b906103f66103ef926103e66101f2565b93848092610382565b03836103ad565b565b60018060a01b031690565b61040f6104149161027d565b6103f8565b90565b6104219054610403565b90565b60ff1690565b61043661043b9161027d565b610424565b90565b610448905461042a565b90565b610456906001610267565b906104625f8301610299565b9161046f600182016103d6565b9161047c600283016103d6565b9161048960038201610417565b9161049660048301610299565b916104a360058201610299565b916104b060068301610299565b916104bd60078201610299565b916104ca60088301610299565b916104d760098201610299565b916104e4600a8301610299565b916104f1600b8201610299565b9161050a600d610503600c8501610299565b930161043e565b90565b61051690610204565b9052565b5190565b60209181520190565b90825f9392825e0152565b61055161055a60209361055f936105488161051a565b9384809361051e565b95869101610527565b61038f565b0190565b60018060a01b031690565b61057790610563565b90565b6105839061056e565b9052565b151590565b61059590610587565b9052565b809c9a9896949f9e9d9b9997959392916101c08201915f016105ba9161050d565b8c80820390602001526105cc91610532565b8b810360408d01526105dd91610532565b9c60608b016105eb9161057a565b60808a016105f89161050d565b60a089016106059161050d565b60c088016106129161050d565b60e0870161061f9161050d565b610100860161062d9161050d565b610120850161063b9161050d565b61014084016106499161050d565b61016083016106579161050d565b61018082016106659161050d565b6101a0016106729161058c565b565b346106b7576106b361068f61068a36600461022a565b61044b565b9a6106aa9e9c9e9a919a9992999893989794979695966101f2565b9e8f9e8f610599565b0390f35b6101f8565b5f9103126106c657565b6101fc565b91906106de905f6020850194019061050d565b565b34610710576106f03660046106bc565b61070c6106fb611494565b6107036101f2565b918291826106cb565b0390f35b6101f8565b60ff1690565b61072490610715565b9052565b919061073b905f6020850194019061071b565b565b3461076d5761076961075861075336600461022a565b611505565b6107606101f2565b91829182610728565b0390f35b6101f8565b634e487b7160e01b5f52603260045260245ffd5b5490565b5f5260205f2090565b61079c81610786565b8210156107b6576107ae60019161078a565b910201905f90565b610772565b1c90565b6107cf9060086107d493026107bb565b610282565b90565b906107e291546107bf565b90565b60066107f081610786565b82101561080d5761080a9161080491610793565b906107d7565b90565b5f80fd5b346108415761083d61082c61082736600461022a565b6107e5565b6108346101f2565b918291826106cb565b0390f35b6101f8565b7f000000000000000000000000000000000000000000000000000000000000000090565b61087e61087961088392610563565b610248565b610563565b90565b61088f9061086a565b90565b61089b90610886565b90565b6108a790610892565b9052565b91906108be905f6020850194019061089e565b565b346108f0576108d03660046106bc565b6108ec6108db610846565b6108e36101f2565b918291826108ab565b0390f35b6101f8565b5190565b60209181520190565b60200190565b61091190610204565b9052565b9061092281602093610908565b0190565b60200190565b9061094961094361093c846108f5565b80936108f9565b92610902565b905f5b8181106109595750505090565b90919261097261096c6001928651610915565b94610926565b910191909161094c565b6109919160208201915f81840391015261092c565b90565b346109c4576109a43660046106bc565b6109c06109af611678565b6109b76101f2565b9182918261097c565b0390f35b6101f8565b91906040838203126109f157806109e56109ee925f860161021b565b9360200161021b565b90565b6101fc565b90610a009061024b565b5f5260205260405f2090565b610a179060086109f6565b610a2081610786565b821015610a3d57610a3a91610a3491610793565b906107d7565b90565b5f80fd5b34610a7257610a6e610a5d610a573660046109c9565b90610a0c565b610a656101f2565b918291826106cb565b0390f35b6101f8565b5f80fd5b5f80fd5b5f80fd5b909182601f83011215610abd5781359167ffffffffffffffff8311610ab8576020019260018302840111610ab357565b610a7f565b610a7b565b610a77565b909160a082840312610b47575f82013567ffffffffffffffff8111610b425783610aed918401610a83565b929093602082013567ffffffffffffffff8111610b3d5781610b10918401610a83565b929093610b3a610b23846040850161021b565b93610b31816060860161021b565b9360800161021b565b90565b610200565b610200565b6101fc565b34610b8357610b7f610b6e610b62366004610ac2565b95949094939193611cf6565b610b766101f2565b918291826106cb565b0390f35b6101f8565b9190610b9b905f6020850194019061058c565b565b34610bcd57610bc9610bb8610bb336600461022a565b611faf565b610bc06101f2565b91829182610b88565b0390f35b6101f8565b91906020600202830111610be257565b610a7f565b91906040600202830111610bf757565b610a7f565b61018081830312610c6957610c13825f830161021b565b92610c21836020840161021b565b92610c2f816040850161021b565b92610c3d826060830161021b565b92610c66610c4e8460808501610bd2565b93610c5c8160c08601610be7565b9361014001610bd2565b90565b6101fc565b5f0190565b34610ca857610c92610c86366004610bfc565b9594909493919361227c565b610c9a6101f2565b80610ca481610c6e565b0390f35b6101f8565b90610cb79061024b565b5f5260205260405f2090565b610cd3906008610cd893026107bb565b610424565b90565b90610ce69154610cc3565b90565b610cff90610cfa6007915f92610cad565b610cdb565b90565b34610d3257610d2e610d1d610d1836600461022a565b610ce9565b610d256101f2565b91829182610b88565b0390f35b6101f8565b610d6c610d7394610d62606094989795610d58608086019a5f87019061050d565b602085019061050d565b604083019061058c565b019061050d565b565b34610daa57610da6610d91610d8b3660046109c9565b906125cf565b90610d9d9492946101f2565b94859485610d37565b0390f35b6101f8565b34610ddd57610dc7610dc236600461022a565b6128f0565b610dcf6101f2565b80610dd981610c6e565b0390f35b6101f8565b34610e1257610df23660046106bc565b610e0e610dfd6129cd565b610e056101f2565b9182918261097c565b0390f35b6101f8565b34610e4857610e44610e33610e2d3660046109c9565b906129e3565b610e3b6101f2565b91829182610b88565b0390f35b6101f8565b90565b610e64610e5f610e6992610e4d565b610248565b610204565b90565b610e766001610e50565b90565b610e81610e6c565b90565b34610eb457610e943660046106bc565b610eb0610e9f610e79565b610ea76101f2565b918291826106cb565b0390f35b6101f8565b34610ee757610ed1610ecc36600461022a565b612a0b565b610ed96101f2565b80610ee381610c6e565b0390f35b6101f8565b34610f1a57610f04610eff36600461022a565b612a96565b610f0c6101f2565b80610f1681610c6e565b0390f35b6101f8565b34610f4e57610f38610f323660046109c9565b90612ba3565b610f406101f2565b80610f4a81610c6e565b0390f35b6101f8565b608081830312610f9457610f69825f830161021b565b92610f91610f7a846020850161021b565b93610f88816040860161021b565b9360600161021b565b90565b6101fc565b34610fcb57610fb5610fac366004610f53565b92919091612dc3565b610fbd6101f2565b80610fc781610c6e565b0390f35b6101f8565b90565b610fe7610fe2610fec92610fd0565b610248565b610204565b90565b610ff85f610fd3565b90565b611003610fef565b90565b34611036576110163660046106bc565b611032611021610ffb565b6110296101f2565b918291826106cb565b0390f35b6101f8565b600561104681610786565b821015611063576110609161105a91610793565b906107d7565b90565b5f80fd5b346110975761109361108261107d36600461022a565b61103b565b61108a6101f2565b918291826106cb565b0390f35b6101f8565b346110cc576110c86110b76110b236600461022a565b6131bc565b6110bf6101f2565b9182918261097c565b0390f35b6101f8565b9a9896949291909d9c9b999795939d6101a08c01905f8d016110f29161050d565b8b810360208d015261110391610532565b8a810360408c015261111491610532565b9b60608a016111229161057a565b6080890161112f9161050d565b60a0880161113c9161050d565b60c087016111499161050d565b60e086016111569161050d565b61010085016111649161050d565b61012084016111729161050d565b61014083016111809161050d565b610160820161118e9161050d565b6101800161119b9161071b565b565b346111dd576111d96111b86111b336600461022a565b6131f0565b996111d09d9b9d9991999892989793979694966101f2565b9d8e9d8e6110d1565b0390f35b6101f8565b6111f8906111f36004915f92610cad565b610cdb565b90565b3461122b5761122761121661121136600461022a565b6111e2565b61121e6101f2565b91829182610b88565b0390f35b6101f8565b9061123a9061024b565b5f5260205260405f2090565b906112509061024b565b5f5260205260405f2090565b9061126b611270926002611230565b611246565b61127b5f8201610299565b9161128860018301610299565b9161129560028201610299565b916112a260038301610299565b916112af6004820161043e565b916112c860066112c160058501610299565b930161043e565b90565b949290979695939160e08601985f87016112e49161050d565b602086016112f19161050d565b604085016112fe9161050d565b6060840161130b9161050d565b608083016113189161058c565b60a082016113259161050d565b60c0016113319161058c565b565b3461136b5761136761134f6113493660046109c9565b9061125c565b9361135e9795979391936101f2565b978897886112cb565b0390f35b6101f8565b90565b61138761138261138c92611370565b610248565b610204565b90565b6113996002611373565b90565b6113a461138f565b90565b346113d7576113b73660046106bc565b6113d36113c261139c565b6113ca6101f2565b918291826106cb565b0390f35b6101f8565b6113e75f5f906107d7565b90565b3461141a576113fa3660046106bc565b6114166114056113dc565b61140d6101f2565b918291826106cb565b0390f35b6101f8565b906114299061024b565b5f5260205260405f2090565b61144e611453926114496003935f9461141f565b610cad565b610cdb565b90565b346114875761148361147261146c3660046109c9565b90611435565b61147a6101f2565b91829182610b88565b0390f35b6101f8565b5f80fd5b5f90565b61149c611490565b506114a76006610786565b90565b5f90565b90565b6114c56114c06114ca92610fd0565b610248565b610715565b90565b6114e16114dc6114e692610e4d565b610248565b610715565b90565b6114fd6114f861150292611370565b610248565b610715565b90565b61151c611521916115146114aa565b506001610267565b6114ae565b611536611530600d830161043e565b15610587565b6115a9574261155861155261154d60058501610299565b610204565b91610204565b111561159c5761157c6115766115716006429401610299565b610204565b91610204565b111561158f5761158c60026114e9565b90565b61159960016114cd565b90565b506115a65f6114b1565b90565b5f63635e873760e01b8152806115c160048201610c6e565b0390fd5b606090565b60209181520190565b6115dd9054610285565b90565b60010190565b906116036115fd6115f684610786565b80936115ca565b9261078a565b905f5b8181106116135750505090565b90919261163361162d600192611628876115d3565b610915565b946115e0565b9101919091611606565b90611647916115e6565b90565b9061166a6116639261165a6101f2565b9384809261163d565b03836103ad565b565b6116759061164a565b90565b6116806115c5565b5061168b600661166c565b90565b634e487b7160e01b5f52601160045260245ffd5b6116ab90610204565b5f1981146116b95760010190565b61168e565b5f1b90565b906116cf5f19916116be565b9181191691161790565b90565b906116f16116ec6116f89261024b565b6116d9565b82546116c3565b9055565b61170b61171191939293610204565b92610204565b820180921161171c57565b61168e565b9061173461172d6101f2565b92836103ad565b565b6117416101c0611721565b90565b9061174e90610204565b9052565b5f80fd5b67ffffffffffffffff81116117745761177060209161038f565b0190565b610399565b90825f939282370152565b9092919261179961179482611756565b611721565b938185526020850190828401116117b5576117b392611779565b565b611752565b6117c5913691611784565b90565b52565b906117d59061056e565b9052565b906117e390610587565b9052565b634e487b7160e01b5f525f60045260245ffd5b6118049051610204565b90565b5190565b601f602091010490565b1b90565b9190600861183491029161182e5f1984611815565b92611815565b9181191691161790565b919061185461184f61185c9361024b565b6116d9565b908354611819565b9055565b6118729161186c611490565b9161183e565b565b5f5b82811061188257505050565b806118915f6001938501611860565b01611876565b9190601f81116118a7575b505050565b8181116118b4575b6118a2565b6118c96118c36118e7946102ed565b9161180b565b9160206118d58261180b565b91106118ef575b809101910390611874565b5f80806118af565b505f6118dc565b90611906905f19906008026107bb565b191690565b81611915916118f6565b906002021790565b906119278161051a565b9067ffffffffffffffff82116119e75761194b8261194585546102ba565b85611897565b602090601f831160011461197f5791809161196e935f92611973575b505061190b565b90555b565b90915001515f80611967565b601f1983169161198e856102ed565b925f5b8181106119cf575091600293918560019694106119b5575b50505002019055611971565b6119c5910151601f8416906118f6565b90555f80806119a9565b91936020600181928787015181550195019201611991565b610399565b906119f69161191d565b565b611a02905161056e565b90565b90611a1660018060a01b03916116be565b9181191691161790565b611a2990610886565b90565b90565b90611a44611a3f611a4b92611a20565b611a2c565b8254611a05565b9055565b611a599051610587565b90565b90611a6860ff916116be565b9181191691161790565b611a7b90610587565b90565b90565b90611a96611a91611a9d92611a72565b611a7e565b8254611a5c565b9055565b90611bfe6101a0600d611c0494611ac55f8201611abf5f88016117fa565b906116dc565b611ade60018201611ad860208801611807565b906119ec565b611af760028201611af160408801611807565b906119ec565b611b1060038201611b0a606088016119f8565b90611a2f565b611b2960048201611b23608088016117fa565b906116dc565b611b4260058201611b3c60a088016117fa565b906116dc565b611b5b60068201611b5560c088016117fa565b906116dc565b611b7460078201611b6e60e088016117fa565b906116dc565b611b8e60088201611b8861010088016117fa565b906116dc565b611ba860098201611ba261012088016117fa565b906116dc565b611bc2600a8201611bbc61014088016117fa565b906116dc565b611bdc600b8201611bd661016088016117fa565b906116dc565b611bf6600c8201611bf061018088016117fa565b906116dc565b019201611a4f565b90611a81565b565b90611c1091611aa1565b565b6001611c1e9101610204565b90565b90565b5f5260205f2090565b5490565b611c3a81611c2d565b821015611c5457611c4c600191611c24565b910201905f90565b610772565b9081549168010000000000000000831015611c895782611c81916001611c8795018155611c31565b9061183e565b565b610399565b9190611ca881611ca181611cad9561051e565b8095611779565b61038f565b0190565b90611cf494611ce3611cd8611ced936060969a99979a60808701918783035f890152611c8e565b98602085019061050d565b604083019061050d565b019061050d565b565b9195939296949096611d06611490565b50611d24611d1e611d1960048790610cad565b61043e565b15610587565b611f8f57611d315f610299565b611d3a906116a2565b611d44905f6116dc565b611d4d5f610299565b96879184908a9233424288611d61916116fc565b4289611d6c916116fc565b8c611d76916116fc565b918b935f955f975f995f9b611d89611736565b9d5f8f0190611d9791611744565b611da0916117ba565b60208d0190611dae916117c8565b611db7916117ba565b60408b0190611dc5916117c8565b60608a0190611dd3916117cb565b6080890190611de191611744565b60a0880190611def91611744565b60c0870190611dfd91611744565b60e0860190611e0b91611744565b611e1490610fd3565b610100850190611e2391611744565b611e2c90610fd3565b610120840190611e3b91611744565b611e4490610fd3565b610140830190611e5391611744565b611e5c90610fd3565b610160820190611e6b91611744565b611e745f610fd3565b610180820190611e8391611744565b6101a081016001611e93916117d9565b600187611e9f91610267565b90611ea991611c06565b5f611eb390610fd3565b5b80611ed0611eca611ec56006610786565b610204565b91610204565b1015611f1657611f1190611f0c611ef1611eec60088b906109f6565b611c21565b611f06611f0060068590610793565b906107d7565b90611c59565b611c12565b611eb4565b509091929395611f8986939192611f43339697611f3e611f374285906116fc565b93426116fc565b6116fc565b90611f77611f717f28528fa183090d38f4c35574bb13fb455a547bda31d9bc9520957c9558f52f8e9761024b565b97611a20565b97611f806101f2565b95869586611cb1565b0390a390565b5f639dd854d360e01b815280611fa760048201610c6e565b0390fd5b5f90565b611fc6611fcb91611fbe611fab565b506004610cad565b61043e565b90565b67ffffffffffffffff8111611fe35760200290565b610399565b611ff4611ff991611fce565b611721565b90565b60e01b90565b61200b81610587565b0361201257565b5f80fd5b9050519061202382612002565b565b9060208282031261203e5761203b915f01612016565b90565b6101fc565b9037565b61205391604091612043565b565b50600290565b905090565b90565b61206f91604091612043565b565b9061207e81604093612063565b0190565b5090565b60400190565b6120a86120a261209b83612055565b809461205b565b91612060565b805f925b8484106120ba575050505050565b6120d86120d26001926120cd8686612082565b612071565b93612086565b930192916120ac565b50600590565b905090565b90565b60200190565b61211161210b612104836120e1565b80946120e7565b916120ec565b5f915b8383106121215750505050565b6121376121316001928451610915565b926120ef565b92019190612114565b61217761217e9461216d610100949897956121636101a086019a5f870190612047565b604085019061208c565b60c0830190612047565b01906120f5565b565b6121886101f2565b3d5f823e3d90fd5b61219a60e0611721565b90565b9061224560c0600661224b946121c05f82016121ba5f88016117fa565b906116dc565b6121d9600182016121d3602088016117fa565b906116dc565b6121f2600282016121ec604088016117fa565b906116dc565b61220b60038201612205606088016117fa565b906116dc565b6122246004820161221e60808801611a4f565b90611a81565b61223d6005820161223760a088016117fa565b906116dc565b019201611a4f565b90611a81565b565b906122579161219d565b565b91602061227a92949361227360408201965f83019061050d565b019061050d565b565b9293959094919561229761229260018690610267565b6114ae565b926122ad6122a7600d860161043e565b15610587565b6125b057426122cf6122c96122c460058801610299565b610204565b91610204565b11612594576122f26122ed6122e66003889061141f565b8890610cad565b61043e565b61257857876123096123035f610fd3565b91610204565b1461255c576020916123b261231e6005611fe8565b61232a895f8301611744565b6123368a868301611744565b6123438860408301611744565b6123508b60608301611744565b61236861235f60078901610299565b60808301611744565b916123bd6123957f0000000000000000000000000000000000000000000000000000000000000000610892565b936334baeab99295976123a66101f2565b98899788968796611ffc565b865260048601612140565b03915afa8015612557576123d9915f91612529575b5015610587565b61250d5760016003836123eb9161141f565b846123f591610cad565b906123ff91611a81565b838584425f905f92600194612412612190565b965f88019061242091611744565b602087019061242e91611744565b604086019061243c91611744565b606085019061244a91611744565b6080840190612458916117d9565b61246190610fd3565b60a083019061246f91611744565b60c082019061247d916117d9565b60028361248991611230565b8461249391611246565b9061249d9161224d565b600b016124a981610299565b6124b2906116a2565b6124bb916116dc565b90917f816254a0f23b2b8d4a1d9574bd8a5adabe872881137f71912e7c52e0c6f179df916124e89061024b565b926124f29061024b565b936124fb6101f2565b9182916125089183612259565b0390a3565b5f6309bde33960e01b81528061252560048201610c6e565b0390fd5b61254a915060203d8111612550575b61254281836103ad565b810190612025565b5f6123d2565b503d612538565b612180565b5f6343c891cf60e11b81528061257460048201610c6e565b0390fd5b5f636569570160e11b81528061259060048201610c6e565b0390fd5b5f63abfb7dc360e01b8152806125ac60048201610c6e565b0390fd5b5f63635e873760e01b8152806125c860048201610c6e565b0390fd5b90565b61260f9161260561260a926125e2611490565b506125eb611490565b506125f4611fab565b506125fd611490565b506002611230565b611246565b6125cc565b61261a5f8201610299565b61262660018301610299565b9261263f60056126386004860161043e565b9401610299565b9193929190565b90612659905f19906020036008026107bb565b8154169055565b905f9161267761266f826102ed565b92835461190b565b905555565b919290602082105f146126d557601f84116001146126a55761269f92935061190b565b90555b5b565b50906126cb6126d0936001806126c36126bd866102ed565b9361180b565b039101611874565b612660565b6126a2565b50600191926126ec6126e68361180b565b9161180b565b90806126f7866102ed565b0190601f84168061272d575b5080831161271a575b5050506002021790556126a3565b612725920390611874565b5f808061270c565b61273990868403612646565b5f612703565b92909168010000000000000000821161279f576020115f1461279057602081105f146127745761276e9161190b565b90555b5b565b60019160ff1916612784846102ed565b55600202019055612771565b60019150600202019055612772565b610399565b9081546127b0816102ba565b908183116127d9575b8183106127c7575b50505050565b6127d09361267c565b5f8080806127c1565b6127e58383838761273f565b6127b9565b5f5b8281106127f857505050565b806128075f6001938501611860565b016127ec565b5f612817916127a4565b565b905f0361282b576128299061280d565b565b6117e7565b600d5f9161284083808301611860565b61284d8360018301612819565b61285a8360028301612819565b82600382015561286d8360048301611860565b61287a8360058301611860565b6128878360068301611860565b6128948360078301611860565b6128a18360088301611860565b6128ae8360098301611860565b6128bb83600a8301611860565b6128c883600b8301611860565b6128d583600c8301611860565b0155565b905f036128eb576128e990612830565b565b6117e7565b6129046128ff60018390610267565b6114ae565b612919612913600d830161043e565b15610587565b6129b15761292960038201610417565b61293b6129353361056e565b9161056e565b0361299557600b61294c9101610299565b61295e6129585f610fd3565b91610204565b11612979575f612972612977926001610267565b6128d9565b565b5f63811e73ff60e01b81528061299160048201610c6e565b0390fd5b5f637d1b73b960e01b8152806129ad60048201610c6e565b0390fd5b5f63635e873760e01b8152806129c960048201610c6e565b0390fd5b6129d56115c5565b506129e0600561166c565b90565b612a08916129fe612a03926129f6611fab565b50600361141f565b610cad565b61043e565b90565b612a1f612a1a60078390610cad565b61043e565b612a9357612a396001612a3460078490610cad565b611a81565b612a4d612a466006611c21565b8290611c59565b4290612a8e612a7c7f85238313f6b4aa1ea470340fc24bc06d68e734cd21411160c06714eb547571af9261024b565b92612a856101f2565b918291826106cb565b0390a2565b50565b612aac6001612aa760048490610cad565b611a81565b612ac0612ab96005611c21565b8290611c59565b4290612b01612aef7fcb23ed79d0d407699762f186152925a6b8dd62fc4b2223f50a16534af8c883f89261024b565b92612af86101f2565b918291826106cb565b0390a2565b600190818003010490565b9190808210612b20575b505050565b612b4a92612b39612b33612b4193612b06565b93612b06565b91829161078a565b019103906127ea565b5f8080612b1b565b90680100000000000000008111612b7b5781612b70612b7993610786565b90828155612b11565b565b610399565b5f612b8a91612b52565b565b905f03612b9e57612b9c90612b80565b565b6117e7565b91612bb8612bb360018590610267565b6114ae565b612bcd612bc7600d830161043e565b15610587565b612cb757612bdf9060078491016116dc565b612bf45f612bef600886906109f6565b612b8c565b612bfd5f610fd3565b5b80612c1a612c14612c0f6006610786565b610204565b91610204565b1015612c6057612c5b90612c56612c3b612c36600888906109f6565b611c21565b612c50612c4a60068590610793565b906107d7565b90611c59565b611c12565b612bfe565b509150612c80612c7a612c7560048490610cad565b61043e565b15610587565b612c88575b50565b612cb190612ca26001612c9d60048490610cad565b611a81565b612cac6005611c21565b611c59565b5f612c85565b5f63635e873760e01b815280612ccf60048201610c6e565b0390fd5b90565b67ffffffffffffffff8111612ceb5760200290565b610399565b612cfc612d0191612cd6565b611721565b90565b90505190612d1182610207565b565b90602082820312612d2c57612d29915f01612d04565b90565b6101fc565b50600490565b905090565b90565b612d4890610204565b9052565b90612d5981602093612d3f565b0190565b60200190565b612d7f612d79612d7283612d31565b8094612d37565b91612d3c565b5f915b838310612d8f5750505050565b612da5612d9f6001928451612d4c565b92612d5d565b92019190612d82565b9190612dc1905f60808501940190612d63565b565b612dd7612dd260018390610267565b6114ae565b612df5612df0612de960028590611230565b8590611246565b6125cc565b94612e0b612e05600d840161043e565b15610587565b6131a05742612e2d612e27612e2260058601610299565b610204565b91610204565b11156131845742612e51612e4b612e4660068601610299565b610204565b91610204565b1161316857612e6b612e656006880161043e565b15610587565b61314c57612e7b6004870161043e565b6131305784612e99612e93612e8e61138f565b610204565b91610204565b1161311457602085612f3192612f2689612f12612ec973__$0daf1669a85ce10529e05b8a030b9567e1$__612cd3565b93612efc612ef46001638709cd8c95612eee612ee56004612cf0565b9a5f8c01611744565b01610299565b888801611744565b612f098a60408801611744565b60608601611744565b612f1a6101f2565b95869485938493611ffc565b835260048301612dae565b03915af490811561310f575f916130e1575b50612f60612f5a612f555f8901610299565b610204565b91610204565b036130c557612ff891612fef600c600193612f7e8560048b01611a81565b612f8b8860058b016116dc565b87612fa5612f9f612f9a610e6c565b610204565b91610204565b145f1461304557612fd6612fba868b01610299565b612fd06008840191612fcb83610299565b6116fc565b906116dc565b5b01612fe9612fe482610299565b6116a2565b906116dc565b92939401610299565b61302b6130257fa8b3b9b1cdff40715f0311250e16b2a920dcd19105796dc1d4258b8163c5a3fa9361024b565b9361024b565b936130406130376101f2565b92839283612259565b0390a3565b8761305f613059613054610fef565b610204565b91610204565b145f1461309657613090613074868b01610299565b61308a600984019161308583610299565b6116fc565b906116dc565b5b612fd7565b6130c06130a4868b01610299565b6130ba600a8401916130b583610299565b6116fc565b906116dc565b613091565b5f639ea6d12760e01b8152806130dd60048201610c6e565b0390fd5b613102915060203d8111613108575b6130fa81836103ad565b810190612d13565b5f612f43565b503d6130f0565b612180565b5f639c45400160e01b81528061312c60048201610c6e565b0390fd5b5f63a89ac15160e01b81528061314860048201610c6e565b0390fd5b5f635b34156960e11b81528061316460048201610c6e565b0390fd5b5f6374683d7160e01b81528061318060048201610c6e565b0390fd5b5f6374683d7160e01b81528061319c60048201610c6e565b0390fd5b5f63635e873760e01b8152806131b860048201610c6e565b0390fd5b6131d36131d8916131cb6115c5565b5060086109f6565b61166c565b90565b606090565b5f90565b6131ed906103d6565b90565b613273613278916131ff611490565b506132086131db565b506132116131db565b5061321a6131e0565b50613223611490565b5061322c611490565b50613235611490565b5061323e611490565b50613247611490565b50613250611490565b50613259611490565b50613262611490565b5061326b6114aa565b506001610267565b6114ae565b61328d613287600d830161043e565b15610587565b6133b8576132996114aa565b50426132b86132b26132ad60058501610299565b610204565b91610204565b11155f14613373576132c95f6114b1565b5b6132d55f8301610299565b600183019360028401936132eb60038201610417565b936132f860078301610299565b9361330560058401610299565b9361331260068501610299565b9361331f60088201610299565b9361332c60098301610299565b93613339600a8401610299565b93613366613360613358600c613351600b8901610299565b9701610299565b94939e6131e4565b9c6131e4565b9a99989796959493929190565b4261339161338b61338660068501610299565b610204565b91610204565b11155f146133a9576133a360016114cd565b5b6132ca565b6133b360026114e9565b6133a4565b5f63635e873760e01b8152806133d060048201610c6e565b0390fdfea264697066735822122047cc4343a1cfe9d895e11988e34dd997f7d527e73dcb48f7eca2157b4682056364736f6c63430008210033","linkReferences":{"contracts/PoseidonT5.sol":{"PoseidonT5":[{"start":12316,"length":20}]}}},"methodIdentifiers":{"CHOICE_ABSTAIN()":"d90292a3","CHOICE_AGAINST()":"b5770c33","CHOICE_FOR()":"8ea7a274","commitVote(uint256,uint256,uint256,uint256,uint256[2],uint256[2][2],uint256[2])":"51fce2e6","commitments(uint256,uint256)":"d13e2e60","createProposal(string,string,uint256,uint256,uint256)":"33423c06","deleteProposal(uint256)":"8259d553","getCommitment(uint256,uint256)":"7164f0d6","getMerkleRoots()":"85135a1a","getPhase(uint256)":"16ef376b","getProposal(uint256)":"c7f758a8","getProposalVoterSnapshot(uint256)":"b7190516","getRegisteredVoters()":"2bc4a6e7","getVoterCount()":"11174a29","isMerkleRootValid(uint256)":"4a9284fb","isNullifierUsed(uint256,uint256)":"85c74296","isVoterRegistered(uint256)":"6d3cba61","merkleRootHistory(uint256)":"b5ad9215","nullifierUsed(uint256,uint256)":"e78ffc96","proposalCount()":"da35c664","proposalVoterSnapshots(uint256,uint256)":"2c5317c0","proposals(uint256)":"013cf08b","registerMerkleRoot(uint256)":"a4cae8f8","registerVoter(uint256)":"a13f2f8d","registeredVoters(uint256)":"2436e06b","revealVote(uint256,uint256,uint256,uint256)":"b30c510b","updateProposalVoters(uint256,uint256)":"aa609848","validMerkleRoots(uint256)":"cb1bb033","verifier()":"2b7ac3f3"},"id":3}