{"abi":[{"type":"function","name":"commitVote","inputs":[{"name":"_proposalId","type":"uint256","internalType":"uint256"},{"name":"_commitment","type":"bytes32","internalType":"bytes32"},{"name":"_votingPower","type":"uint256","internalType":"uint256"}],"outputs":[],"stateMutability":"nonpayable"},{"type":"function","name":"createProposal","inputs":[{"name":"_title","type":"string","internalType":"string"},{"name":"_description","type":"string","internalType":"string"},{"name":"_votingDuration","type":"uint256","internalType":"uint256"},{"name":"_revealDuration","type":"uint256","internalType":"uint256"}],"outputs":[{"name":"","type":"uint256","internalType":"uint256"}],"stateMutability":"nonpayable"},{"type":"function","name":"getProposal","inputs":[{"name":"_proposalId","type":"uint256","internalType":"uint256"}],"outputs":[{"name":"id","type":"uint256","internalType":"uint256"},{"name":"title","type":"string","internalType":"string"},{"name":"description","type":"string","internalType":"string"},{"name":"proposer","type":"address","internalType":"address"},{"name":"endTime","type":"uint256","internalType":"uint256"},{"name":"revealEndTime","type":"uint256","internalType":"uint256"},{"name":"forVotes","type":"uint256","internalType":"uint256"},{"name":"againstVotes","type":"uint256","internalType":"uint256"},{"name":"abstainVotes","type":"uint256","internalType":"uint256"},{"name":"totalVoters","type":"uint256","internalType":"uint256"},{"name":"revealedVoters","type":"uint256","internalType":"uint256"},{"name":"phase","type":"uint8","internalType":"uint8"}],"stateMutability":"view"},{"type":"function","name":"getProposalVoters","inputs":[{"name":"_proposalId","type":"uint256","internalType":"uint256"}],"outputs":[{"name":"","type":"address[]","internalType":"address[]"}],"stateMutability":"view"},{"type":"function","name":"getVoteCommitment","inputs":[{"name":"_proposalId","type":"uint256","internalType":"uint256"},{"name":"_voter","type":"address","internalType":"address"}],"outputs":[{"name":"commitment","type":"bytes32","internalType":"bytes32"},{"name":"votingPower","type":"uint256","internalType":"uint256"},{"name":"revealed","type":"bool","internalType":"bool"},{"name":"revealedChoice","type":"uint8","internalType":"uint8"}],"stateMutability":"view"},{"type":"function","name":"hasRevealed","inputs":[{"name":"_proposalId","type":"uint256","internalType":"uint256"},{"name":"_voter","type":"address","internalType":"address"}],"outputs":[{"name":"","type":"bool","internalType":"bool"}],"stateMutability":"view"},{"type":"function","name":"hasVoted","inputs":[{"name":"_proposalId","type":"uint256","internalType":"uint256"},{"name":"_voter","type":"address","internalType":"address"}],"outputs":[{"name":"","type":"bool","internalType":"bool"}],"stateMutability":"view"},{"type":"function","name":"proposalCount","inputs":[],"outputs":[{"name":"","type":"uint256","internalType":"uint256"}],"stateMutability":"view"},{"type":"function","name":"proposalVoters","inputs":[{"name":"","type":"uint256","internalType":"uint256"},{"name":"","type":"uint256","internalType":"uint256"}],"outputs":[{"name":"","type":"address","internalType":"address"}],"stateMutability":"view"},{"type":"function","name":"proposals","inputs":[{"name":"","type":"uint256","internalType":"uint256"}],"outputs":[{"name":"id","type":"uint256","internalType":"uint256"},{"name":"title","type":"string","internalType":"string"},{"name":"description","type":"string","internalType":"string"},{"name":"proposer","type":"address","internalType":"address"},{"name":"startTime","type":"uint256","internalType":"uint256"},{"name":"endTime","type":"uint256","internalType":"uint256"},{"name":"revealEndTime","type":"uint256","internalType":"uint256"},{"name":"forVotes","type":"uint256","internalType":"uint256"},{"name":"againstVotes","type":"uint256","internalType":"uint256"},{"name":"abstainVotes","type":"uint256","internalType":"uint256"},{"name":"totalVoters","type":"uint256","internalType":"uint256"},{"name":"revealedVoters","type":"uint256","internalType":"uint256"},{"name":"exists","type":"bool","internalType":"bool"}],"stateMutability":"view"},{"type":"function","name":"revealVote","inputs":[{"name":"_proposalId","type":"uint256","internalType":"uint256"},{"name":"_choice","type":"uint8","internalType":"uint8"},{"name":"_salt","type":"bytes32","internalType":"bytes32"}],"outputs":[],"stateMutability":"nonpayable"},{"type":"function","name":"voteCommitments","inputs":[{"name":"","type":"uint256","internalType":"uint256"},{"name":"","type":"address","internalType":"address"}],"outputs":[{"name":"commitment","type":"bytes32","internalType":"bytes32"},{"name":"votingPower","type":"uint256","internalType":"uint256"},{"name":"timestamp","type":"uint256","internalType":"uint256"},{"name":"revealed","type":"bool","internalType":"bool"},{"name":"revealedChoice","type":"uint8","internalType":"uint8"},{"name":"exists","type":"bool","internalType":"bool"}],"stateMutability":"view"},{"type":"event","name":"ProposalCreated","inputs":[{"name":"proposalId","type":"uint256","indexed":true,"internalType":"uint256"},{"name":"title","type":"string","indexed":false,"internalType":"string"},{"name":"proposer","type":"address","indexed":true,"internalType":"address"},{"name":"endTime","type":"uint256","indexed":false,"internalType":"uint256"},{"name":"revealEndTime","type":"uint256","indexed":false,"internalType":"uint256"}],"anonymous":false},{"type":"event","name":"VoteCommitted","inputs":[{"name":"proposalId","type":"uint256","indexed":true,"internalType":"uint256"},{"name":"voter","type":"address","indexed":true,"internalType":"address"},{"name":"commitment","type":"bytes32","indexed":false,"internalType":"bytes32"},{"name":"votingPower","type":"uint256","indexed":false,"internalType":"uint256"}],"anonymous":false},{"type":"event","name":"VoteRevealed","inputs":[{"name":"proposalId","type":"uint256","indexed":true,"internalType":"uint256"},{"name":"voter","type":"address","indexed":true,"internalType":"address"},{"name":"choice","type":"uint8","indexed":false,"internalType":"uint8"},{"name":"votingPower","type":"uint256","indexed":false,"internalType":"uint256"}],"anonymous":false},{"type":"error","name":"AlreadyRevealed","inputs":[]},{"type":"error","name":"AlreadyVoted","inputs":[]},{"type":"error","name":"InvalidChoice","inputs":[]},{"type":"error","name":"InvalidReveal","inputs":[]},{"type":"error","name":"InvalidVotingPower","inputs":[]},{"type":"error","name":"NotInRevealPhase","inputs":[]},{"type":"error","name":"NotVoted","inputs":[]},{"type":"error","name":"ProposalNotActive","inputs":[]},{"type":"error","name":"ProposalNotFound","inputs":[]}],"bytecode":{"object":"0x608060405234601c57600e6020565b61233061002b823961233090f35b6026565b60405190565b5f80fdfe60806040526004361015610013575b610e8d565b61001d5f356100dc565b8063013cf08b146100d75780630b05b14f146100d257806316b5551d146100cd57806343859632146100c85780636b5e1766146100c3578063a68f34f7146100be578063ab89437c146100b9578063bc9d3ed9146100b4578063c202dbf7146100af578063c7f758a8146100aa578063da35c664146100a55763fa07153a0361000e57610e59565b610dea565b610d62565b610c6c565b610bf1565b610a0c565b6108d7565b6107fc565b6106e9565b6106b3565b61061a565b610547565b60e01c90565b60405190565b5f80fd5b5f80fd5b5f80fd5b90565b610100816100f4565b0361010757565b5f80fd5b90503590610118826100f7565b565b9060208282031261013357610130915f0161010b565b90565b6100ec565b90565b61014f61014a610154926100f4565b610138565b6100f4565b90565b906101619061013b565b5f5260205260405f2090565b5f1c90565b90565b6101816101869161016d565b610172565b90565b6101939054610175565b90565b634e487b7160e01b5f52602260045260245ffd5b90600160028304921680156101ca575b60208310146101c557565b610196565b91607f16916101ba565b60209181520190565b5f5260205f2090565b905f92918054906102006101f9836101aa565b80946101d4565b916001811690815f14610257575060011461021b575b505050565b61022891929394506101dd565b915f925b81841061023f57505001905f8080610216565b6001816020929593955484860152019101929061022c565b92949550505060ff19168252151560200201905f8080610216565b9061027c916101e6565b90565b601f801991011690565b634e487b7160e01b5f52604160045260245ffd5b906102a79061027f565b810190811067ffffffffffffffff8211176102c157604052565b610289565b906102e66102df926102d66100e2565b93848092610272565b038361029d565b565b60018060a01b031690565b6102ff6103049161016d565b6102e8565b90565b61031190546102f3565b90565b60ff1690565b61032661032b9161016d565b610314565b90565b610338905461031a565b90565b610346906001610157565b6103515f8201610189565b9161035e600183016102c6565b9161036b600282016102c6565b9161037860038301610307565b9161038560048201610189565b9161039260058301610189565b9161039f60068201610189565b916103ac60078301610189565b916103b960088201610189565b916103c660098301610189565b916103d3600a8201610189565b916103ec600c6103e5600b8501610189565b930161032e565b90565b6103f8906100f4565b9052565b5190565b60209181520190565b90825f9392825e0152565b61043361043c6020936104419361042a816103fc565b93848093610400565b95869101610409565b61027f565b0190565b60018060a01b031690565b61045990610445565b90565b61046590610450565b9052565b151590565b61047790610469565b9052565b9a9896949291909d9c9b999795939d6101a08c01905f8d0161049c916103ef565b8b810360208d01526104ad91610414565b8a810360408c01526104be91610414565b9b60608a016104cc9161045c565b608089016104d9916103ef565b60a088016104e6916103ef565b60c087016104f3916103ef565b60e08601610500916103ef565b610100850161050e916103ef565b610120840161051c916103ef565b610140830161052a916103ef565b6101608201610538916103ef565b610180016105459161046e565b565b346105875761058361056261055d36600461011a565b61033b565b9961057a9d9b9d9991999892989793979694966100e2565b9d8e9d8e61047b565b0390f35b6100e8565b60ff1690565b61059b8161058c565b036105a257565b5f80fd5b905035906105b382610592565b565b90565b6105c1816105b5565b036105c857565b5f80fd5b905035906105d9826105b8565b565b90916060828403126106105761060d6105f6845f850161010b565b9361060481602086016105a6565b936040016105cc565b90565b6100ec565b5f0190565b346106495761063361062d3660046105db565b916110b3565b61063b6100e2565b8061064581610615565b0390f35b6100e8565b61065781610450565b0361065e57565b5f80fd5b9050359061066f8261064e565b565b9190604083820312610699578061068d610696925f860161010b565b93602001610662565b90565b6100ec565b91906106b1905f6020850194019061046e565b565b346106e4576106e06106cf6106c9366004610671565b90611427565b6106d76100e2565b9182918261069e565b0390f35b6100e8565b3461071a576107166107056106ff366004610671565b90611452565b61070d6100e2565b9182918261069e565b0390f35b6100e8565b5f80fd5b5f80fd5b5f80fd5b909182601f830112156107655781359167ffffffffffffffff831161076057602001926001830284011161075b57565b610727565b610723565b61071f565b91906080838203126107e2575f83013567ffffffffffffffff81116107dd578161079591850161072b565b92909360208101359167ffffffffffffffff83116107d8576107bc846107d594840161072b565b9390946107cc816040860161010b565b9360600161010b565b90565b6100f0565b6100f0565b6100ec565b91906107fa905f602085019401906103ef565b565b346108335761082f61081e61081236600461076a565b9493909392919261196b565b6108266100e2565b918291826107e7565b0390f35b6100e8565b5190565b60209181520190565b60200190565b61085490610450565b9052565b906108658160209361084b565b0190565b60200190565b9061088c61088661087f84610838565b809361083c565b92610845565b905f5b81811061089c5750505090565b9091926108b56108af6001928651610858565b94610869565b910191909161088f565b6108d49160208201915f81840391015261086f565b90565b34610907576109036108f26108ed36600461011a565b611c1b565b6108fa6100e2565b918291826108bf565b0390f35b6100e8565b91906040838203126109345780610928610931925f860161010b565b9360200161010b565b90565b6100ec565b906109439061013b565b5f5260205260405f2090565b634e487b7160e01b5f52603260045260245ffd5b5490565b5f5260205f2090565b61097981610963565b8210156109935761098b600191610967565b910201905f90565b61094f565b1c90565b6109ac9060086109b19302610998565b6102e8565b90565b906109bf915461099c565b90565b6109cd906003610939565b6109d681610963565b8210156109f3576109f0916109ea91610970565b906109b4565b90565b5f80fd5b9190610a0a905f6020850194019061045c565b565b34610a3d57610a39610a28610a2236600461090c565b906109c2565b610a306100e2565b918291826109f7565b0390f35b6100e8565b90610a4c9061013b565b5f5260205260405f2090565b610a6c610a67610a7192610445565b610138565b610445565b90565b610a7d90610a58565b90565b610a8990610a74565b90565b90610a9690610a80565b5f5260205260405f2090565b90565b610ab1610ab69161016d565b610aa2565b90565b610ac39054610aa5565b90565b60081c90565b60ff1690565b610ade610ae391610ac6565b610acc565b90565b610af09054610ad2565b90565b60101c90565b610b05610b0a91610af3565b610314565b90565b610b179054610af9565b90565b90610b29610b2e926002610a42565b610a8c565b90610b3a5f8301610ab9565b91610b4760018201610189565b91610b5460028301610189565b91610b616003820161032e565b91610b796003610b72818501610ae6565b9301610b0d565b90565b610b85906105b5565b9052565b610b929061058c565b9052565b9194610bde610be892989795610bd460a096610bca610bef9a610bc060c08a019e5f8b0190610b7c565b60208901906103ef565b60408701906103ef565b606085019061046e565b6080830190610b89565b019061046e565b565b34610c2957610c25610c0d610c07366004610671565b90610b1a565b92610c1c9694969291926100e2565b96879687610b96565b0390f35b6100e8565b610c63610c6a94610c59606094989795610c4f608086019a5f870190610b7c565b60208501906103ef565b604083019061046e565b0190610b89565b565b34610ca157610c9d610c88610c82366004610671565b90611c42565b90610c949492946100e2565b94859485610c2e565b0390f35b6100e8565b999795939c9b9a9896949291906101808b01905f8c01610cc5916103ef565b8a810360208c0152610cd691610414565b89810360408b0152610ce791610414565b9a60608901610cf59161045c565b60808801610d02916103ef565b60a08701610d0f916103ef565b60c08601610d1c916103ef565b60e08501610d29916103ef565b6101008401610d37916103ef565b6101208301610d45916103ef565b6101408201610d53916103ef565b61016001610d6091610b89565b565b34610da257610d9e610d7d610d7836600461011a565b611ce9565b98610d959c9a9c9891989792979693969594956100e2565b9c8d9c8d610ca6565b0390f35b6100e8565b5f910312610db157565b6100ec565b610dc6906008610dcb9302610998565b610172565b90565b90610dd99154610db6565b90565b610de75f5f90610dce565b90565b34610e1a57610dfa366004610da7565b610e16610e05610ddc565b610e0d6100e2565b918291826107e7565b0390f35b6100e8565b9091606082840312610e5457610e51610e3a845f850161010b565b93610e4881602086016105cc565b9360400161010b565b90565b6100ec565b34610e8857610e72610e6c366004610e1f565b916120f1565b610e7a6100e2565b80610e8481610615565b0390f35b6100e8565b5f80fd5b90565b90565b90565b610eae610ea9610eb392610e97565b610138565b61058c565b90565b90565b610ecd610ec8610ed292610eb6565b610138565b61058c565b90565b60f81b90565b610ee490610ed5565b90565b610ef3610ef89161058c565b610edb565b9052565b90565b610f0b610f10916105b5565b610efc565b9052565b600181610f27610f2f9360209695610ee7565b018092610eff565b0190565b60200190565b5190565b5f1b90565b90610f4e60ff91610f3d565b9181191691161790565b610f6190610469565b90565b90565b90610f7c610f77610f8392610f58565b610f64565b8254610f42565b9055565b60081b90565b90610f9a61ff0091610f87565b9181191691161790565b610fb8610fb3610fbd9261058c565b610138565b61058c565b90565b90565b90610fd8610fd3610fdf92610fa4565b610fc0565b8254610f8d565b9055565b90565b610ffa610ff5610fff92610fe3565b610138565b61058c565b90565b634e487b7160e01b5f52601160045260245ffd5b61102561102b919392936100f4565b926100f4565b820180921161103657565b611002565b906110475f1991610f3d565b9181191691161790565b90565b906110696110646110709261013b565b611051565b825461103b565b9055565b61107d906100f4565b5f19811461108b5760010190565b611002565b9160206110b19294936110aa60408201965f830190610b89565b01906103ef565b565b6110c76110c260018390610157565b610e91565b6110e56110e06110d960028590610a42565b3390610a8c565b610e94565b936110fb6110f5600c840161032e565b15610469565b611407574261111d61111761111260058601610189565b6100f4565b916100f4565b11156113eb574261114161113b61113660068601610189565b6100f4565b916100f4565b116113cf5761115b61115560038701610b0d565b15610469565b6113b35761116b6003860161032e565b611397578361118361117d6001610e9a565b9161058c565b10801561137c575b611360576111b9846111aa61119e6100e2565b93849260208401610f14565b6020820181038252038261029d565b6111cb6111c582610f39565b91610f33565b206111e86111e26111dd5f8801610ab9565b6105b5565b916105b5565b0361134457600b61126d91611201600160038801610f67565b61120e8560038801610fc3565b8461122261121c6001610e9a565b9161058c565b145f146112c85761125461123860018801610189565b61124e600784019161124983610189565b611016565b90611054565b5b0161126761126282610189565b611074565b90611054565b61127b600133939401610189565b6112ae6112a87f9e760a61e129b94e03a7b497c0e85c91334288c2e9f60e11b1a176294c8e39919361013b565b93610a80565b936112c36112ba6100e2565b92839283611090565b0390a3565b846112dc6112d66002610fe6565b9161058c565b145f146113145761130e6112f260018801610189565b611308600884019161130383610189565b611016565b90611054565b5b611255565b61133f61132360018801610189565b611339600984019161133483610189565b611016565b90611054565b61130f565b5f639ea6d12760e01b81528061135c60048201610615565b0390fd5b5f639c45400160e01b81528061137860048201610615565b0390fd5b508361139161138b6003610eb9565b9161058c565b1161118b565b5f63a89ac15160e01b8152806113af60048201610615565b0390fd5b5f63f8d49bcd60e01b8152806113cb60048201610615565b0390fd5b5f6374683d7160e01b8152806113e760048201610615565b0390fd5b5f6374683d7160e01b81528061140360048201610615565b0390fd5b5f63635e873760e01b81528061141f60048201610615565b0390fd5b5f90565b61144961144f9261144460039361143c611423565b506002610a42565b610a8c565b0161032e565b90565b61147461147a9261146f600393611467611423565b506002610a42565b610a8c565b01610b0d565b90565b5f90565b9061149461148d6100e2565b928361029d565b565b6114a16101a0611481565b90565b906114ae906100f4565b9052565b5f80fd5b67ffffffffffffffff81116114d4576114d060209161027f565b0190565b610289565b90825f939282370152565b909291926114f96114f4826114b6565b611481565b9381855260208501908284011161151557611513926114d9565b565b6114b2565b6115259136916114e4565b90565b52565b9061153590610450565b9052565b90565b61155061154b61155592611539565b610138565b6100f4565b90565b9061156290610469565b9052565b61157090516100f4565b90565b5190565b601f602091010490565b1b90565b919060086115a091029161159a5f1984611581565b92611581565b9181191691161790565b91906115c06115bb6115c89361013b565b611051565b908354611585565b9055565b6115de916115d861147d565b916115aa565b565b5f5b8281106115ee57505050565b806115fd5f60019385016115cc565b016115e2565b9190601f8111611613575b505050565b818111611620575b61160e565b61163561162f611653946101dd565b91611577565b91602061164182611577565b911061165b575b8091019103906115e0565b5f808061161b565b505f611648565b90611672905f1990600802610998565b191690565b8161168191611662565b906002021790565b90611693816103fc565b9067ffffffffffffffff8211611753576116b7826116b185546101aa565b85611603565b602090601f83116001146116eb579180916116da935f926116df575b5050611677565b90555b565b90915001515f806116d3565b601f198316916116fa856101dd565b925f5b81811061173b57509160029391856001969410611721575b505050020190556116dd565b611731910151601f841690611662565b90555f8080611715565b919360206001819287870151815501950192016116fd565b610289565b9061176291611689565b565b61176e9051610450565b90565b9061178260018060a01b0391610f3d565b9181191691161790565b90565b906117a461179f6117ab92610a80565b61178c565b8254611771565b9055565b6117b99051610469565b90565b906118ff610180600c611905946117e05f82016117da5f8801611566565b90611054565b6117f9600182016117f360208801611573565b90611758565b6118126002820161180c60408801611573565b90611758565b61182b6003820161182560608801611764565b9061178f565b6118446004820161183e60808801611566565b90611054565b61185d6005820161185760a08801611566565b90611054565b6118766006820161187060c08801611566565b90611054565b61188f6007820161188960e08801611566565b90611054565b6118a9600882016118a36101008801611566565b90611054565b6118c3600982016118bd6101208801611566565b90611054565b6118dd600a82016118d76101408801611566565b90611054565b6118f7600b82016118f16101608801611566565b90611054565b0192016117af565b90610f67565b565b90611911916117bc565b565b919061192d816119268161193295610400565b80956114d9565b61027f565b0190565b6119626119576040936119699698979560608501918583035f870152611913565b9660208301906103ef565b01906103ef565b565b9194929493909361197a61147d565b506119845f610189565b61198d90611074565b611997905f611054565b6119a05f610189565b958684918793334242886119b391611016565b42896119be91611016565b8b6119c891611016565b905f925f945f965f985f9a60019c6119de611496565b9e8f925f8401906119ee916114a4565b6119f79161151a565b9060200190611a0591611528565b611a0e9161151a565b60408c0190611a1c91611528565b60608b0190611a2a9161152b565b60808a0190611a38916114a4565b60a0890190611a46916114a4565b60c0880190611a54916114a4565b611a5d9061153c565b60e0870190611a6b916114a4565b611a749061153c565b610100860190611a83916114a4565b611a8c9061153c565b610120850190611a9b916114a4565b611aa49061153c565b610140840190611ab3916114a4565b611abc9061153c565b610160830190611acb916114a4565b610180820190611ada91611558565b600186611ae691610157565b90611af091611907565b84919333934283611b0091611016565b924290611b0c91611016565b90611b1691611016565b947f331b791e5a0526c6d6f17a46c1d4139542c8579c245d9f8082d0b1462942f4fa93611b429061013b565b94611b4c90610a80565b95611b556100e2565b938493611b629385611936565b0390a390565b606090565b60209181520190565b611b8090546102f3565b90565b60010190565b90611ba6611ba0611b9984610963565b8093611b6d565b92610967565b905f5b818110611bb65750505090565b909192611bd6611bd0600192611bcb87611b76565b610858565b94611b83565b9101919091611ba9565b90611bea91611b89565b90565b90611c0d611c0692611bfd6100e2565b93848092611be0565b038361029d565b565b611c1890611bed565b90565b611c32611c3791611c2a611b68565b506003610939565b611c0f565b90565b5f90565b5f90565b611c8291611c78611c7d92611c55611c3a565b50611c5e61147d565b50611c67611423565b50611c70611c3e565b506002610a42565b610a8c565b610e94565b611c8d5f8201610ab9565b611c9960018301610189565b92611cb16003611caa81860161032e565b9401610ae6565b9193929190565b606090565b5f90565b611cd5611cd0611cda92611539565b610138565b61058c565b90565b611ce6906102c6565b90565b611d63611d6891611cf861147d565b50611d01611cb8565b50611d0a611cb8565b50611d13611cbd565b50611d1c61147d565b50611d2561147d565b50611d2e61147d565b50611d3761147d565b50611d4061147d565b50611d4961147d565b50611d5261147d565b50611d5b611c3e565b506001610157565b610e91565b90611d7e611d78600c840161032e565b15610469565b611e9f57611d8a611c3e565b5042611da9611da3611d9e60058601610189565b6100f4565b916100f4565b11155f14611e5857611dba5f611cc1565b905b611dc75f8401610189565b9060018401936002810193611dde60038301610307565b93611deb60058401610189565b93611df860068501610189565b93611e0560078201610189565b93611e1260088301610189565b93611e1f60098401610189565b93611e4c611e46611e3e600b611e37600a8901610189565b9701610189565b94939d611cdd565b9b611cdd565b99989796959493929190565b42611e76611e70611e6b60068601610189565b6100f4565b916100f4565b11155f14611e8f57611e886001610e9a565b905b611dbc565b611e996002610fe6565b90611e8a565b5f63635e873760e01b815280611eb760048201610615565b0390fd5b611ec560c0611481565b90565b90611ed2906105b5565b9052565b90611ee09061058c565b9052565b611eee90516105b5565b90565b611efa906105b5565b90565b611f069061016d565b90565b90611f1e611f19611f2592611ef1565b611efd565b825461103b565b9055565b611f33905161058c565b90565b60101b90565b90611f4a62ff000091611f36565b9181191691161790565b90611f69611f64611f7092610f58565b610f64565b8254611f3c565b9055565b9061200160a0600361200794611f975f8201611f915f8801611ee4565b90611f09565b611fb060018201611faa60208801611566565b90611054565b611fc960028201611fc360408801611566565b90611054565b611fe1828201611fdb606088016117af565b90610f67565b611ff9828201611ff360808801611f29565b90610fc3565b0192016117af565b90611f54565b565b9061201391611f74565b565b90565b5f5260205f2090565b5490565b61202e81612021565b82101561204857612040600191612018565b910201905f90565b61094f565b9190600861206d91029161206760018060a01b0384611581565b92611581565b9181191691161790565b919061208d61208861209593610a80565b61178c565b90835461204d565b9055565b90815491680100000000000000008310156120c957826120c19160016120c795018155612025565b90612077565b565b610289565b9160206120ef9294936120e860408201965f830190610b7c565b01906103ef565b565b61210561210060018390610157565b610e91565b61211a612114600c830161032e565b15610469565b6122de574261213c61213661213160058501610189565b6100f4565b916100f4565b116122c257612162600361215c61215560028690610a42565b3390610a8c565b01610b0d565b6122a657836121796121735f61153c565b916100f4565b1461228a57600a61223a916122045f6121e9876121e06121d78b6121d2426121c988916121c08a956121b760019a6121af611ebb565b9d8e01611ec8565b60208c016114a4565b60408a016114a4565b60608801611558565b611cc1565b60808501611ed6565b60a08301611558565b6121ff6121f860028890610a42565b3390610a8c565b612009565b61222261221b61221660038790610939565b612015565b3390612099565b0161223461222f82610189565b611074565b90611054565b33919261227061226a7ff2dbd2ebdd7385bf137294ba1ac03500744ceef41ca96bd3c0914b95c8b0294d9361013b565b93610a80565b9361228561227c6100e2565b928392836120ce565b0390a3565b5f631ee7b5bd60e21b8152806122a260048201610615565b0390fd5b5f637c9a1cf960e01b8152806122be60048201610615565b0390fd5b5f637becc13f60e01b8152806122da60048201610615565b0390fd5b5f63635e873760e01b8152806122f660048201610615565b0390fdfea2646970667358221220cdd6dc556f3519f4b414c5fe1b5b1c0d6d6cf3f495efdf9b307de9472645d41864736f6c63430008210033","linkReferences":{}},"methodIdentifiers":{"commitVote(uint256,bytes32,uint256)":"fa07153a","createProposal(string,string,uint256,uint256)":"6b5e1766","getProposal(uint256)":"c7f758a8","getProposalVoters(uint256)":"a68f34f7","getVoteCommitment(uint256,address)":"c202dbf7","hasRevealed(uint256,address)":"16b5551d","hasVoted(uint256,address)":"43859632","proposalCount()":"da35c664","proposalVoters(uint256,uint256)":"ab89437c","proposals(uint256)":"013cf08b","revealVote(uint256,uint8,bytes32)":"0b05b14f","voteCommitments(uint256,address)":"bc9d3ed9"},"id":0}