{"abi":[{"type":"function","name":"createProposal","inputs":[{"name":"_title","type":"string","internalType":"string"},{"name":"_description","type":"string","internalType":"string"},{"name":"_duration","type":"uint256","internalType":"uint256"}],"outputs":[{"name":"","type":"uint256","internalType":"uint256"}],"stateMutability":"nonpayable"},{"type":"function","name":"getProposal","inputs":[{"name":"_proposalId","type":"uint256","internalType":"uint256"}],"outputs":[{"name":"id","type":"uint256","internalType":"uint256"},{"name":"title","type":"string","internalType":"string"},{"name":"description","type":"string","internalType":"string"},{"name":"proposer","type":"address","internalType":"address"},{"name":"startTime","type":"uint256","internalType":"uint256"},{"name":"endTime","type":"uint256","internalType":"uint256"},{"name":"totalVoters","type":"uint256","internalType":"uint256"},{"name":"isActive","type":"bool","internalType":"bool"}],"stateMutability":"view"},{"type":"function","name":"getProposalVoters","inputs":[{"name":"_proposalId","type":"uint256","internalType":"uint256"}],"outputs":[{"name":"","type":"address[]","internalType":"address[]"}],"stateMutability":"view"},{"type":"function","name":"getVoteCommitment","inputs":[{"name":"_proposalId","type":"uint256","internalType":"uint256"},{"name":"_voter","type":"address","internalType":"address"}],"outputs":[{"name":"commitment","type":"bytes32","internalType":"bytes32"},{"name":"votingPower","type":"uint256","internalType":"uint256"},{"name":"timestamp","type":"uint256","internalType":"uint256"},{"name":"hasVoted","type":"bool","internalType":"bool"}],"stateMutability":"view"},{"type":"function","name":"hasVoted","inputs":[{"name":"_proposalId","type":"uint256","internalType":"uint256"},{"name":"_voter","type":"address","internalType":"address"}],"outputs":[{"name":"","type":"bool","internalType":"bool"}],"stateMutability":"view"},{"type":"function","name":"proposalCount","inputs":[],"outputs":[{"name":"","type":"uint256","internalType":"uint256"}],"stateMutability":"view"},{"type":"function","name":"proposalVoters","inputs":[{"name":"","type":"uint256","internalType":"uint256"},{"name":"","type":"uint256","internalType":"uint256"}],"outputs":[{"name":"","type":"address","internalType":"address"}],"stateMutability":"view"},{"type":"function","name":"proposals","inputs":[{"name":"","type":"uint256","internalType":"uint256"}],"outputs":[{"name":"id","type":"uint256","internalType":"uint256"},{"name":"title","type":"string","internalType":"string"},{"name":"description","type":"string","internalType":"string"},{"name":"proposer","type":"address","internalType":"address"},{"name":"startTime","type":"uint256","internalType":"uint256"},{"name":"endTime","type":"uint256","internalType":"uint256"},{"name":"forVotes","type":"uint256","internalType":"uint256"},{"name":"againstVotes","type":"uint256","internalType":"uint256"},{"name":"abstainVotes","type":"uint256","internalType":"uint256"},{"name":"totalVoters","type":"uint256","internalType":"uint256"},{"name":"exists","type":"bool","internalType":"bool"}],"stateMutability":"view"},{"type":"function","name":"submitVoteCommitment","inputs":[{"name":"_proposalId","type":"uint256","internalType":"uint256"},{"name":"_commitment","type":"bytes32","internalType":"bytes32"},{"name":"_votingPower","type":"uint256","internalType":"uint256"}],"outputs":[],"stateMutability":"nonpayable"},{"type":"function","name":"voteCommitments","inputs":[{"name":"","type":"uint256","internalType":"uint256"},{"name":"","type":"address","internalType":"address"}],"outputs":[{"name":"commitment","type":"bytes32","internalType":"bytes32"},{"name":"votingPower","type":"uint256","internalType":"uint256"},{"name":"timestamp","type":"uint256","internalType":"uint256"},{"name":"exists","type":"bool","internalType":"bool"}],"stateMutability":"view"},{"type":"event","name":"ProposalCreated","inputs":[{"name":"proposalId","type":"uint256","indexed":true,"internalType":"uint256"},{"name":"title","type":"string","indexed":false,"internalType":"string"},{"name":"proposer","type":"address","indexed":true,"internalType":"address"},{"name":"startTime","type":"uint256","indexed":false,"internalType":"uint256"},{"name":"endTime","type":"uint256","indexed":false,"internalType":"uint256"}],"anonymous":false},{"type":"event","name":"VoteCommitted","inputs":[{"name":"proposalId","type":"uint256","indexed":true,"internalType":"uint256"},{"name":"voter","type":"address","indexed":true,"internalType":"address"},{"name":"commitment","type":"bytes32","indexed":false,"internalType":"bytes32"},{"name":"votingPower","type":"uint256","indexed":false,"internalType":"uint256"},{"name":"timestamp","type":"uint256","indexed":false,"internalType":"uint256"}],"anonymous":false},{"type":"error","name":"AlreadyVoted","inputs":[]},{"type":"error","name":"InvalidVotingPower","inputs":[]},{"type":"error","name":"ProposalNotActive","inputs":[]},{"type":"error","name":"ProposalNotFound","inputs":[]}],"bytecode":{"object":"0x6080604052348015600e575f5ffd5b506117ef8061001c5f395ff3fe608060405234801561000f575f5ffd5b506004361061009c575f3560e01c8063ab89437c11610064578063ab89437c14610186578063bc9d3ed9146101b6578063c202dbf7146101e9578063c7f758a81461021c578063da35c664146102535761009c565b8063013cf08b146100a05780630ce0ebf4146100da578063438596321461010a578063839bf9651461013a578063a68f34f714610156575b5f5ffd5b6100ba60048036038101906100b59190610d88565b610271565b6040516100d19b9a99989796959493929190610e8b565b60405180910390f35b6100f460048036038101906100ef9190610fa3565b6103fe565b6040516101019190611034565b60405180910390f35b610124600480360381019061011f9190611077565b610669565b60405161013191906110b5565b60405180910390f35b610154600480360381019061014f9190611101565b6106ce565b005b610170600480360381019061016b9190610d88565b6109c2565b60405161017d9190611208565b60405180910390f35b6101a0600480360381019061019b9190611228565b610a5e565b6040516101ad9190611266565b60405180910390f35b6101d060048036038101906101cb9190611077565b610aa6565b6040516101e0949392919061128e565b60405180910390f35b61020360048036038101906101fe9190611077565b610ae9565b604051610213949392919061128e565b60405180910390f35b61023660048036038101906102319190610d88565b610b6d565b60405161024a9897969594939291906112d1565b60405180910390f35b61025b610d48565b6040516102689190611034565b60405180910390f35b6001602052805f5260405f205f91509050805f01549080600101805461029690611388565b80601f01602080910402602001604051908101604052809291908181526020018280546102c290611388565b801561030d5780601f106102e45761010080835404028352916020019161030d565b820191905f5260205f20905b8154815290600101906020018083116102f057829003601f168201915b50505050509080600201805461032290611388565b80601f016020809104026020016040519081016040528092919081815260200182805461034e90611388565b80156103995780601f1061037057610100808354040283529160200191610399565b820191905f5260205f20905b81548152906001019060200180831161037c57829003601f168201915b505050505090806003015f9054906101000a900473ffffffffffffffffffffffffffffffffffffffff169080600401549080600501549080600601549080600701549080600801549080600901549080600a015f9054906101000a900460ff1690508b565b5f5f5f815480929190610410906113e5565b91905055505f5f54905060405180610160016040528082815260200188888080601f0160208091040260200160405190810160405280939291908181526020018383808284375f81840152601f19601f82011690508083019250505050505050815260200186868080601f0160208091040260200160405190810160405280939291908181526020018383808284375f81840152601f19601f8201169050808301925050505050505081526020013373ffffffffffffffffffffffffffffffffffffffff16815260200142815260200184426104ec919061142c565b81526020015f81526020015f81526020015f81526020015f81526020016001151581525060015f8381526020019081526020015f205f820151815f0155602082015181600101908161053e919061163d565b506040820151816002019081610554919061163d565b506060820151816003015f6101000a81548173ffffffffffffffffffffffffffffffffffffffff021916908373ffffffffffffffffffffffffffffffffffffffff1602179055506080820151816004015560a0820151816005015560c0820151816006015560e082015181600701556101008201518160080155610120820151816009015561014082015181600a015f6101000a81548160ff0219169083151502179055509050503373ffffffffffffffffffffffffffffffffffffffff16817f331b791e5a0526c6d6f17a46c1d4139542c8579c245d9f8082d0b1462942f4fa8989428842610644919061142c565b6040516106549493929190611746565b60405180910390a38091505095945050505050565b5f60025f8481526020019081526020015f205f8373ffffffffffffffffffffffffffffffffffffffff1673ffffffffffffffffffffffffffffffffffffffff1681526020019081526020015f206003015f9054906101000a900460ff16905092915050565b5f60015f8581526020019081526020015f20905080600a015f9054906101000a900460ff16610729576040517f635e873700000000000000000000000000000000000000000000000000000000815260040160405180910390fd5b8060050154421115610767576040517f7becc13f00000000000000000000000000000000000000000000000000000000815260040160405180910390fd5b60025f8581526020019081526020015f205f3373ffffffffffffffffffffffffffffffffffffffff1673ffffffffffffffffffffffffffffffffffffffff1681526020019081526020015f206003015f9054906101000a900460ff16156107fa576040517f7c9a1cf900000000000000000000000000000000000000000000000000000000815260040160405180910390fd5b5f8203610833576040517f7b9ed6f400000000000000000000000000000000000000000000000000000000815260040160405180910390fd5b60405180608001604052808481526020018381526020014281526020016001151581525060025f8681526020019081526020015f205f3373ffffffffffffffffffffffffffffffffffffffff1673ffffffffffffffffffffffffffffffffffffffff1681526020019081526020015f205f820151815f015560208201518160010155604082015181600201556060820151816003015f6101000a81548160ff02191690831515021790555090505060035f8581526020019081526020015f2033908060018154018082558091505060019003905f5260205f20015f9091909190916101000a81548173ffffffffffffffffffffffffffffffffffffffff021916908373ffffffffffffffffffffffffffffffffffffffff160217905550806009015f815480929190610964906113e5565b91905055503373ffffffffffffffffffffffffffffffffffffffff16847f5a043b1af3859e9f966f96e29e61a5c23bbb5e6a1f7fb432beb5ae4b3aefe24f8585426040516109b493929190611784565b60405180910390a350505050565b606060035f8381526020019081526020015f20805480602002602001604051908101604052809291908181526020018280548015610a5257602002820191905f5260205f20905b815f9054906101000a900473ffffffffffffffffffffffffffffffffffffffff1673ffffffffffffffffffffffffffffffffffffffff1681526020019060010190808311610a09575b50505050509050919050565b6003602052815f5260405f208181548110610a77575f80fd5b905f5260205f20015f915091509054906101000a900473ffffffffffffffffffffffffffffffffffffffff1681565b6002602052815f5260405f20602052805f5260405f205f9150915050805f015490806001015490806002015490806003015f9054906101000a900460ff16905084565b5f5f5f5f5f60025f8881526020019081526020015f205f8773ffffffffffffffffffffffffffffffffffffffff1673ffffffffffffffffffffffffffffffffffffffff1681526020019081526020015f209050805f015481600101548260020154836003015f9054906101000a900460ff1694509450945094505092959194509250565b5f6060805f5f5f5f5f5f60015f8b81526020019081526020015f20905080600a015f9054906101000a900460ff16610bd1576040517f635e873700000000000000000000000000000000000000000000000000000000815260040160405180910390fd5b805f01548160010182600201836003015f9054906101000a900473ffffffffffffffffffffffffffffffffffffffff168460040154856005015486600901548760050154421115868054610c2490611388565b80601f0160208091040260200160405190810160405280929190818152602001828054610c5090611388565b8015610c9b5780601f10610c7257610100808354040283529160200191610c9b565b820191905f5260205f20905b815481529060010190602001808311610c7e57829003601f168201915b50505050509650858054610cae90611388565b80601f0160208091040260200160405190810160405280929190818152602001828054610cda90611388565b8015610d255780601f10610cfc57610100808354040283529160200191610d25565b820191905f5260205f20905b815481529060010190602001808311610d0857829003601f168201915b505050505095509850985098509850985098509850985050919395975091939597565b5f5481565b5f5ffd5b5f5ffd5b5f819050919050565b610d6781610d55565b8114610d71575f5ffd5b50565b5f81359050610d8281610d5e565b92915050565b5f60208284031215610d9d57610d9c610d4d565b5b5f610daa84828501610d74565b91505092915050565b610dbc81610d55565b82525050565b5f81519050919050565b5f82825260208201905092915050565b8281835e5f83830152505050565b5f601f19601f8301169050919050565b5f610e0482610dc2565b610e0e8185610dcc565b9350610e1e818560208601610ddc565b610e2781610dea565b840191505092915050565b5f73ffffffffffffffffffffffffffffffffffffffff82169050919050565b5f610e5b82610e32565b9050919050565b610e6b81610e51565b82525050565b5f8115159050919050565b610e8581610e71565b82525050565b5f61016082019050610e9f5f83018e610db3565b8181036020830152610eb1818d610dfa565b90508181036040830152610ec5818c610dfa565b9050610ed4606083018b610e62565b610ee1608083018a610db3565b610eee60a0830189610db3565b610efb60c0830188610db3565b610f0860e0830187610db3565b610f16610100830186610db3565b610f24610120830185610db3565b610f32610140830184610e7c565b9c9b505050505050505050505050565b5f5ffd5b5f5ffd5b5f5ffd5b5f5f83601f840112610f6357610f62610f42565b5b8235905067ffffffffffffffff811115610f8057610f7f610f46565b5b602083019150836001820283011115610f9c57610f9b610f4a565b5b9250929050565b5f5f5f5f5f60608688031215610fbc57610fbb610d4d565b5b5f86013567ffffffffffffffff811115610fd957610fd8610d51565b5b610fe588828901610f4e565b9550955050602086013567ffffffffffffffff81111561100857611007610d51565b5b61101488828901610f4e565b9350935050604061102788828901610d74565b9150509295509295909350565b5f6020820190506110475f830184610db3565b92915050565b61105681610e51565b8114611060575f5ffd5b50565b5f813590506110718161104d565b92915050565b5f5f6040838503121561108d5761108c610d4d565b5b5f61109a85828601610d74565b92505060206110ab85828601611063565b9150509250929050565b5f6020820190506110c85f830184610e7c565b92915050565b5f819050919050565b6110e0816110ce565b81146110ea575f5ffd5b50565b5f813590506110fb816110d7565b92915050565b5f5f5f6060848603121561111857611117610d4d565b5b5f61112586828701610d74565b9350506020611136868287016110ed565b925050604061114786828701610d74565b9150509250925092565b5f81519050919050565b5f82825260208201905092915050565b5f819050602082019050919050565b61118381610e51565b82525050565b5f611194838361117a565b60208301905092915050565b5f602082019050919050565b5f6111b682611151565b6111c0818561115b565b93506111cb8361116b565b805f5b838110156111fb5781516111e28882611189565b97506111ed836111a0565b9250506001810190506111ce565b5085935050505092915050565b5f6020820190508181035f83015261122081846111ac565b905092915050565b5f5f6040838503121561123e5761123d610d4d565b5b5f61124b85828601610d74565b925050602061125c85828601610d74565b9150509250929050565b5f6020820190506112795f830184610e62565b92915050565b611288816110ce565b82525050565b5f6080820190506112a15f83018761127f565b6112ae6020830186610db3565b6112bb6040830185610db3565b6112c86060830184610e7c565b95945050505050565b5f610100820190506112e55f83018b610db3565b81810360208301526112f7818a610dfa565b9050818103604083015261130b8189610dfa565b905061131a6060830188610e62565b6113276080830187610db3565b61133460a0830186610db3565b61134160c0830185610db3565b61134e60e0830184610e7c565b9998505050505050505050565b7f4e487b71000000000000000000000000000000000000000000000000000000005f52602260045260245ffd5b5f600282049050600182168061139f57607f821691505b6020821081036113b2576113b161135b565b5b50919050565b7f4e487b71000000000000000000000000000000000000000000000000000000005f52601160045260245ffd5b5f6113ef82610d55565b91507fffffffffffffffffffffffffffffffffffffffffffffffffffffffffffffffff8203611421576114206113b8565b5b600182019050919050565b5f61143682610d55565b915061144183610d55565b9250828201905080821115611459576114586113b8565b5b92915050565b7f4e487b71000000000000000000000000000000000000000000000000000000005f52604160045260245ffd5b5f819050815f5260205f209050919050565b5f6020601f8301049050919050565b5f82821b905092915050565b5f600883026114e87fffffffffffffffffffffffffffffffffffffffffffffffffffffffffffffffff826114ad565b6114f286836114ad565b95508019841693508086168417925050509392505050565b5f819050919050565b5f61152d61152861152384610d55565b61150a565b610d55565b9050919050565b5f819050919050565b61154683611513565b61155a61155282611534565b8484546114b9565b825550505050565b5f5f905090565b611571611562565b61157c81848461153d565b505050565b5f5b828110156115a2576115975f828401611569565b600181019050611583565b505050565b601f8211156115f557828211156115f4576115c18161148c565b6115ca8361149e565b6115d38561149e565b60208610156115e0575f90505b8083016115ef82840382611581565b505050505b5b505050565b5f82821c905092915050565b5f6116155f19846008026115fa565b1980831691505092915050565b5f61162d8383611606565b9150826002028217905092915050565b61164682610dc2565b67ffffffffffffffff81111561165f5761165e61145f565b5b6116698254611388565b6116748282856115a7565b5f60209050601f8311600181146116a5575f8415611693578287015190505b61169d8582611622565b865550611704565b601f1984166116b38661148c565b5f5b828110156116da578489015182556001820191506020850194506020810190506116b5565b868310156116f757848901516116f3601f891682611606565b8355505b6001600288020188555050505b505050505050565b828183375f83830152505050565b5f6117258385610dcc565b935061173283858461170c565b61173b83610dea565b840190509392505050565b5f6060820190508181035f83015261175f81868861171a565b905061176e6020830185610db3565b61177b6040830184610db3565b95945050505050565b5f6060820190506117975f83018661127f565b6117a46020830185610db3565b6117b16040830184610db3565b94935050505056fea264697066735822122099333582aca8e779c92d00ccd675af2e82393ce884e8166f0a8c0b9bb337504864736f6c63430008210033","linkReferences":{}},"methodIdentifiers":{"createProposal(string,string,uint256)":"0ce0ebf4","getProposal(uint256)":"c7f758a8","getProposalVoters(uint256)":"a68f34f7","getVoteCommitment(uint256,address)":"c202dbf7","hasVoted(uint256,address)":"43859632","proposalCount()":"da35c664","proposalVoters(uint256,uint256)":"ab89437c","proposals(uint256)":"013cf08b","submitVoteCommitment(uint256,bytes32,uint256)":"839bf965","voteCommitments(uint256,address)":"bc9d3ed9"},"id":0}