{"abi":[{"type":"constructor","inputs":[{"name":"_arity","type":"uint256","internalType":"uint256"},{"name":"_subDepth","type":"uint256","internalType":"uint256"}],"stateMutability":"nonpayable"},{"type":"function","name":"ARITY","inputs":[],"outputs":[{"name":"","type":"uint256","internalType":"uint256"}],"stateMutability":"view"},{"type":"function","name":"HASH_LENGTH","inputs":[],"outputs":[{"name":"","type":"uint256","internalType":"uint256"}],"stateMutability":"view"},{"type":"function","name":"LEAVES_PER_SUBTREE","inputs":[],"outputs":[{"name":"","type":"uint256","internalType":"uint256"}],"stateMutability":"view"},{"type":"function","name":"SUB_DEPTH","inputs":[],"outputs":[{"name":"","type":"uint256","internalType":"uint256"}],"stateMutability":"view"},{"type":"function","name":"currentSubtreeLeafCount","inputs":[],"outputs":[{"name":"","type":"uint256","internalType":"uint256"}],"stateMutability":"view"},{"type":"function","name":"enqueue","inputs":[{"name":"_leaf","type":"uint256","internalType":"uint256"}],"outputs":[{"name":"leafIndex","type":"uint256","internalType":"uint256"}],"stateMutability":"nonpayable"},{"type":"function","name":"getMainRoot","inputs":[],"outputs":[{"name":"","type":"uint256","internalType":"uint256"}],"stateMutability":"view"},{"type":"function","name":"getNumLeaves","inputs":[],"outputs":[{"name":"","type":"uint256","internalType":"uint256"}],"stateMutability":"view"},{"type":"function","name":"getNumSubRoots","inputs":[],"outputs":[{"name":"","type":"uint256","internalType":"uint256"}],"stateMutability":"view"},{"type":"function","name":"getSubRoot","inputs":[{"name":"_index","type":"uint256","internalType":"uint256"}],"outputs":[{"name":"","type":"uint256","internalType":"uint256"}],"stateMutability":"view"},{"type":"function","name":"isMerged","inputs":[],"outputs":[{"name":"","type":"bool","internalType":"bool"}],"stateMutability":"view"},{"type":"function","name":"leaves","inputs":[{"name":"","type":"uint256","internalType":"uint256"}],"outputs":[{"name":"","type":"uint256","internalType":"uint256"}],"stateMutability":"view"},{"type":"function","name":"mainRoot","inputs":[],"outputs":[{"name":"","type":"uint256","internalType":"uint256"}],"stateMutability":"view"},{"type":"function","name":"merge","inputs":[],"outputs":[],"stateMutability":"nonpayable"},{"type":"function","name":"mergeSubRoots","inputs":[{"name":"_numSrQueueOps","type":"uint256","internalType":"uint256"}],"outputs":[],"stateMutability":"nonpayable"},{"type":"function","name":"merged","inputs":[],"outputs":[{"name":"","type":"bool","internalType":"bool"}],"stateMutability":"view"},{"type":"function","name":"numLeaves","inputs":[],"outputs":[{"name":"","type":"uint256","internalType":"uint256"}],"stateMutability":"view"},{"type":"function","name":"subRoots","inputs":[{"name":"","type":"uint256","internalType":"uint256"}],"outputs":[{"name":"","type":"uint256","internalType":"uint256"}],"stateMutability":"view"},{"type":"function","name":"subRootsMerged","inputs":[],"outputs":[{"name":"","type":"bool","internalType":"bool"}],"stateMutability":"view"},{"type":"function","name":"zeros","inputs":[{"name":"","type":"uint256","internalType":"uint256"}],"outputs":[{"name":"","type":"uint256","internalType":"uint256"}],"stateMutability":"view"},{"type":"event","name":"Enqueued","inputs":[{"name":"index","type":"uint256","indexed":true,"internalType":"uint256"},{"name":"leaf","type":"uint256","indexed":false,"internalType":"uint256"}],"anonymous":false},{"type":"event","name":"Merged","inputs":[{"name":"mainRoot","type":"uint256","indexed":false,"internalType":"uint256"}],"anonymous":false},{"type":"event","name":"SubTreeMerged","inputs":[{"name":"subTreeIndex","type":"uint256","indexed":true,"internalType":"uint256"},{"name":"subTreeRoot","type":"uint256","indexed":false,"internalType":"uint256"}],"anonymous":false}],"bytecode":{"object":"0x610100604052346100b05761001b610015610170565b906105ac565b6100236100b5565b611f4b6107e5823960805181818161059c0152818161159e015281816116c4015281816117240152818161190401528181611aaf0152611b0f015260a0518181816104ff015281816116510152611a79015260c051816105f5015260e0518181816104a601528181610f15015281816119d401528181611d3101528181611dbe0152611e6a0152611f4b90f35b6100bb565b60405190565b5f80fd5b601f801991011690565b634e487b7160e01b5f52604160045260245ffd5b906100e7906100bf565b810190811060018060401b038211176100ff57604052565b6100c9565b906101176101106100b5565b92836100dd565b565b5f80fd5b90565b6101298161011d565b0361013057565b5f80fd5b9050519061014182610120565b565b919060408382031261016b578061015f610168925f8601610134565b93602001610134565b90565b610119565b61018e6127308038038061018381610104565b928339810190610143565b9091565b90565b90565b6101ac6101a76101b192610192565b610195565b61011d565b90565b60209181520190565b5f7f4f6e6c79207175696e617279202861726974793d352920737570706f72746564910152565b6101f0602080926101b4565b6101f9816101bd565b0190565b6102129060208101905f8183039101526101e4565b90565b1561021c57565b6102246100b5565b62461bcd60e51b81528061023a600482016101fd565b0390fd5b90565b61025561025061025a9261023e565b610195565b61011d565b90565b90565b61027461026f6102799261025d565b610195565b61011d565b90565b5f7f5375624465707468206d75737420626520312d34000000000000000000000000910152565b6102b060146020926101b4565b6102b98161027c565b0190565b6102d29060208101905f8183039101526102a3565b90565b156102dc57565b6102e46100b5565b62461bcd60e51b8152806102fa600482016102bd565b0390fd5b90565b61031561031061031a926102fe565b610195565b61011d565b90565b6001610329910161011d565b90565b634e487b7160e01b5f52601160045260245ffd5b61034f6103559193929361011d565b9261011d565b9161036183820261011d565b92818404149015171561037057565b61032c565b9061037f90610241565b5f5260205260405f2090565b5f1b90565b9061039c5f199161038b565b9181191691161790565b6103ba6103b56103bf9261011d565b610195565b61011d565b90565b90565b906103da6103d56103e1926103a6565b6103c2565b8254610390565b9055565b6103ee9061011d565b5f1981146103fc5760010190565b61032c565b90565b61041861041361041d92610401565b610195565b61011d565b90565b61042f6104359193929361011d565b9261011d565b820180921161044057565b61032c565b61045461045a9193929361011d565b9261011d565b820391821161046557565b61032c565b90610474906103a6565b5f5260205260405f2090565b5f1c90565b90565b61049461049991610480565b610485565b90565b6104a69054610488565b90565b90565b60018060401b0381116104bf5760200290565b6100c9565b6104d06104d5916104ac565b610104565b90565b906104e29061011d565b9052565b60e01b90565b9060208282031261050557610502915f01610134565b90565b610119565b50600590565b905090565b90565b6105219061011d565b9052565b9061053281602093610518565b0190565b60200190565b61055861055261054b8361050a565b8094610510565b91610515565b5f915b8383106105685750505050565b61057e6105786001928451610525565b92610536565b9201919061055b565b919061059a905f60a0850194019061053c565b565b6105a46100b5565b3d5f823e3d90fd5b916105ca836105c46105be6005610198565b9161011d565b14610215565b816105dd6105d75f610241565b9161011d565b11806107c3575b6105ed906102d5565b826080528160a0528260c0526106036001610301565b9061060d5f610241565b915b8261062261061c8661011d565b9161011d565b10156106425761063661063c918690610340565b9261031d565b9161060f565b9150925060e0526106666106555f610241565b61066160085f90610375565b6103c5565b6106706001610301565b5b8061069761069161068c85610686600a610404565b90610420565b61011d565b9161011d565b116107bf576107569060206106c96106c460086106be856106b86001610301565b90610445565b9061046a565b61049c565b6106e673__$d3dfaecd4f377921e100880c714d789c29$__6104a9565b61074b637fe238e26107376106fb60056104c4565b94610708815f88016104d8565b610714818888016104d8565b61072181604088016104d8565b61072e81606088016104d8565b608086016104d8565b61073f6100b5565b968794859384936104e6565b835260048301610587565b03915af49182156107ba5761078792610782915f9161078c575b5061077d6008849061046a565b6103c5565b6103e5565b610671565b6107ad915060203d81116107b3575b6107a581836100dd565b8101906104ec565b5f610770565b503d61079b565b61059c565b5050565b506105ed826107db6107d56004610260565b9161011d565b111590506105e456fe60806040526004361015610013575b610854565b61001d5f3561015c565b80630b65108b14610157578063198e3c17146101525780631ffc735d1461014d5780632ecf52e8146101485780634a690ef91461014357806360fd40101461013e5780636bc1fb5314610139578063927d52ab14610134578063974da14e1461012f578063a03cb3a41461012a578063a58475b714610125578063b4885ec314610120578063b66c84a11461011b578063c15da65b14610116578063d455a79d14610111578063d80fef141461010c578063dda89a6e14610107578063e829558814610102578063e93fb4d4146100fd5763f13827af0361000e5761081f565b6107db565b6107a6565b610723565b6106df565b6106aa565b61064c565b610617565b6105be565b610565565b610521565b6104c8565b61046f565b61043a565b6103a2565b6102f8565b6102c3565b610252565b6101dc565b610184565b60e01c90565b60405190565b5f80fd5b5f80fd5b5f91031261017a57565b61016c565b5f0190565b346101b257610194366004610170565b61019c610afe565b6101a4610162565b806101ae8161017f565b0390f35b610168565b90565b6101c3906101b7565b9052565b91906101da905f602085019401906101ba565b565b3461020c576101ec366004610170565b6102086101f7610c39565b6101ff610162565b918291826101c7565b0390f35b610168565b61021a816101b7565b0361022157565b5f80fd5b9050359061023282610211565b565b9060208282031261024d5761024a915f01610225565b90565b61016c565b346102825761027e61026d610268366004610234565b610e6e565b610275610162565b918291826101c7565b0390f35b610168565b1c90565b90565b61029e9060086102a39302610287565b61028b565b90565b906102b1915461028e565b90565b6102c060055f906102a6565b90565b346102f3576102d3366004610170565b6102ef6102de6102b4565b6102e6610162565b918291826101c7565b0390f35b610168565b3461032857610308366004610170565b61032461031361102e565b61031b610162565b918291826101c7565b0390f35b610168565b634e487b7160e01b5f52603260045260245ffd5b5490565b5f5260205f2090565b61035781610341565b82101561037157610369600191610345565b910201905f90565b61032d565b600161038181610341565b82101561039e5761039b916103959161034e565b906102a6565b90565b5f80fd5b346103d2576103ce6103bd6103b8366004610234565b610376565b6103c5610162565b918291826101c7565b0390f35b610168565b60ff1690565b6103ed9060086103f29302610287565b6103d7565b90565b9061040091546103dd565b90565b61041060066001906103f5565b90565b151590565b61042190610413565b9052565b9190610438905f60208501940190610418565b565b3461046a5761044a366004610170565b610466610455610403565b61045d610162565b91829182610425565b0390f35b610168565b3461049f5761047f366004610170565b61049b61048a611044565b610492610162565b918291826101c7565b0390f35b610168565b7f000000000000000000000000000000000000000000000000000000000000000090565b346104f8576104d8366004610170565b6104f46104e36104a4565b6104eb610162565b918291826101c7565b0390f35b610168565b7f000000000000000000000000000000000000000000000000000000000000000090565b3461055157610531366004610170565b61054d61053c6104fd565b610544610162565b918291826101c7565b0390f35b610168565b61056260065f906103f5565b90565b3461059557610575366004610170565b610591610580610556565b610588610162565b91829182610425565b0390f35b610168565b7f000000000000000000000000000000000000000000000000000000000000000090565b346105ee576105ce366004610170565b6105ea6105d961059a565b6105e1610162565b918291826101c7565b0390f35b610168565b7f000000000000000000000000000000000000000000000000000000000000000090565b3461064757610627366004610170565b6106436106326105f3565b61063a610162565b918291826101c7565b0390f35b610168565b3461067a5761066461065f366004610234565b611090565b61066c610162565b806106768161017f565b0390f35b610168565b5f61068981610341565b8210156106a6576106a39161069d9161034e565b906102a6565b90565b5f80fd5b346106da576106d66106c56106c0366004610234565b61067f565b6106cd610162565b918291826101c7565b0390f35b610168565b3461070f576106ef366004610170565b61070b6106fa611109565b610702610162565b91829182610425565b0390f35b610168565b61072060075f906102a6565b90565b3461075357610733366004610170565b61074f61073e610714565b610746610162565b918291826101c7565b0390f35b610168565b90565b61076f61076a610774926101b7565b610758565b6101b7565b90565b906107819061075b565b5f5260205260405f2090565b6107a39061079e6008915f92610777565b6102a6565b90565b346107d6576107d26107c16107bc366004610234565b61078d565b6107c9610162565b918291826101c7565b0390f35b610168565b3461080b576108076107f66107f1366004610234565b6111a1565b6107fe610162565b918291826101c7565b0390f35b610168565b61081c60025f906102a6565b90565b3461084f5761082f366004610170565b61084b61083a610810565b610842610162565b918291826101c7565b0390f35b610168565b5f80fd5b5f1c90565b61086961086e91610858565b6103d7565b90565b61087b905461085d565b90565b60209181520190565b5f7f537562526f6f7473206e6f74206d657267656420796574000000000000000000910152565b6108bb601760209261087e565b6108c481610887565b0190565b6108dd9060208101905f8183039101526108ae565b90565b156108e757565b6108ef610162565b62461bcd60e51b815280610905600482016108c8565b0390fd5b60081c90565b61091b61092091610909565b6103d7565b90565b61092d905461090f565b90565b5f7f416c7265616479206d6572676564000000000000000000000000000000000000910152565b610964600e60209261087e565b61096d81610930565b0190565b6109869060208101905f818303910152610957565b90565b1561099057565b610998610162565b62461bcd60e51b8152806109ae60048201610971565b0390fd5b90565b6109c96109c46109ce926109b2565b610758565b6101b7565b90565b5f7f4e6f20737562747265657320746f206d65726765000000000000000000000000910152565b610a05601460209261087e565b610a0e816109d1565b0190565b610a279060208101905f8183039101526109f8565b90565b15610a3157565b610a39610162565b62461bcd60e51b815280610a4f60048201610a12565b0390fd5b5f1b90565b90610a645f1991610a53565b9181191691161790565b90565b90610a86610a81610a8d9261075b565b610a6e565b8254610a58565b9055565b60081b90565b90610aa461ff0091610a91565b9181191691161790565b610ab790610413565b90565b90565b90610ad2610acd610ad992610aae565b610aba565b8254610a97565b9055565b610ae9610aee91610858565b61028b565b90565b610afb9054610add565b90565b610b10610b0b6006610871565b6108e0565b610b2b610b26610b206006610923565b15610413565b610989565b610b50610b386001610341565b610b4a610b445f6109b5565b916101b7565b11610a2a565b610b62610b5b6114f1565b6005610a71565b610b6e60016006610abd565b610b786005610af1565b610bae7f9143563a1146bcf02f74f1971c1e1ea3bf6867a00da047bdf9259dc3a4e9e4c991610ba5610162565b918291826101c7565b0390a1565b5f90565b5f7f4e6f74206d657267656420796574000000000000000000000000000000000000910152565b610beb600e60209261087e565b610bf481610bb7565b0190565b610c0d9060208101905f818303910152610bde565b90565b15610c1757565b610c1f610162565b62461bcd60e51b815280610c3560048201610bf8565b0390fd5b610c41610bb3565b50610c54610c4f6006610923565b610c10565b610c5e6005610af1565b90565b90565b610c78610c73610c7d92610c61565b610758565b6101b7565b90565b610ca97f30644e72e131a029b85045b68181585d2833e84879b9709143e1f593f0000001610c64565b90565b5f7f4c65616620746f6f206c61726765000000000000000000000000000000000000910152565b610ce0600e60209261087e565b610ce981610cac565b0190565b610d029060208101905f818303910152610cd3565b90565b15610d0c57565b610d14610162565b62461bcd60e51b815280610d2a60048201610ced565b0390fd5b90565b634e487b7160e01b5f52604160045260245ffd5b5f5260205f2090565b5490565b610d5b81610d4e565b821015610d7557610d6d600191610d45565b910201905f90565b61032d565b1b90565b91906008610d99910291610d935f1984610d7a565b92610d7a565b9181191691161790565b9190610db9610db4610dc19361075b565b610a6e565b908354610d7e565b9055565b9081549168010000000000000000831015610df55782610ded916001610df395018155610d52565b90610da3565b565b610d31565b634e487b7160e01b5f52601160045260245ffd5b610e17906101b7565b5f198114610e255760010190565b610dfa565b90565b610e41610e3c610e4692610e2a565b610758565b6101b7565b90565b610e58610e5e919392936101b7565b926101b7565b8203918211610e6957565b610dfa565b90610e77610bb3565b50610e9b82610e95610e8f610e8a610c80565b6101b7565b916101b7565b10610d05565b610eb6610eb1610eab6006610923565b15610413565b610989565b610ec06007610af1565b91610ed4610ecd5f610d2e565b8290610dc5565b610ee7610ee16002610af1565b82611980565b610f03610efc610ef76002610af1565b610e0e565b6002610a71565b610f0d6002610af1565b610f3f610f397f00000000000000000000000000000000000000000000000000000000000000006101b7565b916101b7565b14610fa6575b610f61610f5a610f556007610af1565b610e0e565b6007610a71565b82610fa1610f8f7f5a660ec3cce7c3a71461d1f7a64dd55380bd81f9a0316458a5aa2e5afe2f0da59261075b565b92610f98610162565b918291826101c7565b0390a2565b610fae6119c9565b610fc2610fbb6001610d2e565b8290610dc5565b610fdf610fcf6001610341565b610fd96001610e2d565b90610e49565b61101e61100c7f6a297a526c1c42df9853983b50ef14c2cb409494aeaa7528416b270bc116c4279261075b565b92611015610162565b918291826101c7565b0390a2611029611d1e565b610f45565b611036610bb3565b506110416001610341565b90565b61104c610bb3565b506110576007610af1565b90565b9061106660ff91610a53565b9181191691161790565b9061108561108061108c92610aae565b610aba565b825461105a565b9055565b6110ab6110a66110a06006610923565b15610413565b610989565b6110b56002610af1565b6110c76110c15f6109b5565b916101b7565b116110f8575b6110df6110d95f6109b5565b916101b7565b116110f3575b6110f160016006611070565b565b6110e5565b611100611db9565b6110cd565b5f90565b611111611105565b5061111c6006610923565b90565b5f7f496e646578206f7574206f6620626f756e647300000000000000000000000000910152565b611153601360209261087e565b61115c8161111f565b0190565b6111759060208101905f818303910152611146565b90565b1561117f57565b611187610162565b62461bcd60e51b81528061119d60048201611160565b0390fd5b6111dd6111e3916111b0610bb3565b506111d6816111d06111ca6111c56001610341565b6101b7565b916101b7565b10611178565b600161034e565b906102a6565b90565b601f801991011690565b906111fa906111e6565b810190811067ffffffffffffffff82111761121457604052565b610d31565b9061122c611225610162565b92836111f0565b565b67ffffffffffffffff81116112465760208091020190565b610d31565b9061125d6112588361122e565b611219565b918252565b369037565b9061128c6112748361124b565b92602080611282869361122e565b9201910390611262565b565b600161129a91016101b7565b90565b5190565b906112ab8261129d565b8110156112bc576020809102010190565b61032d565b906112cb906101b7565b9052565b634e487b7160e01b5f52601260045260245ffd5b6112ef6112f5916101b7565b916101b7565b908115611300570690565b6112cf565b61131461131a919392936101b7565b926101b7565b820180921161132557565b610dfa565b61133490516101b7565b90565b611343611349916101b7565b916101b7565b908115611354570490565b6112cf565b61136861136e919392936101b7565b926101b7565b9161137a8382026101b7565b92818404149015171561138957565b610dfa565b90565b67ffffffffffffffff81116113a65760200290565b610d31565b6113b76113bc91611391565b611219565b90565b90565b6113d66113d16113db926113bf565b610758565b6101b7565b90565b90565b6113f56113f06113fa926113de565b610758565b6101b7565b90565b90565b61141461140f611419926113fd565b610758565b6101b7565b90565b60e01b90565b9050519061142f82610211565b565b9060208282031261144a57611447915f01611422565b90565b61016c565b50600590565b905090565b90565b611466906101b7565b9052565b906114778160209361145d565b0190565b60200190565b61149d6114976114908361144f565b8094611455565b9161145a565b5f915b8383106114ad5750505050565b6114c36114bd600192845161146a565b9261147b565b920191906114a0565b91906114df905f60a08501940190611481565b565b6114e9610162565b3d5f823e3d90fd5b6114f9610bb3565b5061150c6115076001610341565b611267565b906115165f6109b5565b5b8061153361152d6115286001610341565b6101b7565b916101b7565b10156115715761156c9061156761155561154f6001849061034e565b906102a6565b61156286918490926112a1565b6112c1565b61128e565b611517565b509061157c8161129d565b905b8161159261158c6001610e2d565b916101b7565b1115611934576115c3827f0000000000000000000000000000000000000000000000000000000000000000906112e3565b8290806115d86115d25f6109b5565b916101b7565b036118f8575b506115e881611267565b936115f25f6109b5565b5b80611606611600876101b7565b916101b7565b10156116425761163d906116386116266116218784906112a1565b61132a565b61163389918490926112a1565b6112c1565b61128e565b6115f3565b509092915061167b61167660087f000000000000000000000000000000000000000000000000000000000000000090610777565b610af1565b915b8061169061168a866101b7565b916101b7565b10156116ba576116b5906116b0846116ab88918490926112a1565b6112c1565b61128e565b61167d565b5092916116e991507f000000000000000000000000000000000000000000000000000000000000000090611337565b906116f382611267565b926116fd5f6109b5565b5b8061171161170b866101b7565b916101b7565b10156118eb5780602084611749611881947f000000000000000000000000000000000000000000000000000000000000000090611359565b61187661176973__$d3dfaecd4f377921e100880c714d789c29$__61138e565b91611862611859611854637fe238e29361183961183061182b61178c60056113ab565b9a6117ac8c5f6117a56117a0858a906112a1565b61132a565b91016112c1565b6117de8c8e6117d76117d2856117cc8b6117c66001610e2d565b90611305565b906112a1565b61132a565b91016112c1565b6118118c604061180a611805856117ff8b6117f960026113c2565b90611305565b906112a1565b61132a565b91016112c1565b6118258561181f60036113e1565b90611305565b906112a1565b61132a565b60608a016112c1565b61184e8d916118486004611400565b90611305565b906112a1565b61132a565b608086016112c1565b61186a610162565b9687948593849361141c565b8352600483016114cc565b03915af49182156118e6576118b3926118ae915f916118b8575b506118a988918490926112a1565b6112c1565b61128e565b6116fe565b6118d9915060203d81116118df575b6118d181836111f0565b810190611431565b5f61189b565b503d6118c7565b6114e1565b509192905091909161157e565b61192e915061192884917f0000000000000000000000000000000000000000000000000000000000000000610e49565b90611305565b5f6115de565b611951915061194c906119465f6109b5565b906112a1565b61132a565b90565b9061195e906109b5565b5f5260205260405f2090565b90611974906109b5565b5f5260205260405f2090565b6119c7916119a66119b6926119a161199a60035f90611954565b8490610777565b610a71565b6119b06001610e2d565b90611305565b6119c260045f9061196a565b610a71565b565b6119d1610bb3565b507f0000000000000000000000000000000000000000000000000000000000000000906119fd82611267565b90611a075f6109b5565b5b80611a1b611a15866101b7565b916101b7565b1015611a6257611a5d90611a58611a46611a41611a3a60035f90611954565b8490610777565b610af1565b611a5386918490926112a1565b6112c1565b61128e565b611a08565b509190611a6e5f6109b5565b915b82611aa3611a9d7f00000000000000000000000000000000000000000000000000000000000000006101b7565b916101b7565b1015611ce957611ad4907f000000000000000000000000000000000000000000000000000000000000000090611337565b91611ade83611267565b93611ae85f6109b5565b5b80611afc611af6876101b7565b916101b7565b1015611cd35780602085611b34611c69947f000000000000000000000000000000000000000000000000000000000000000090611359565b611c5e611b5473__$d3dfaecd4f377921e100880c714d789c29$__61138e565b91611c4a611c41611c3c637fe238e293611c36611b7160056113ab565b98611b90611b88611b838386906112a1565b61132a565b5f8c016112c1565b611bc1611bb9611bb483611bae87611ba86001610e2d565b90611305565b906112a1565b61132a565b8c8c016112c1565b611bf3611bea611be583611bdf87611bd960026113c2565b90611305565b906112a1565b61132a565b60408c016112c1565b611c25611c1c611c1783611c1187611c0b60036113e1565b90611305565b906112a1565b61132a565b60608c016112c1565b91611c306004611400565b90611305565b906112a1565b61132a565b608086016112c1565b611c52610162565b9687948593849361141c565b8352600483016114cc565b03915af4918215611cce57611c9b92611c96915f91611ca0575b50611c9189918490926112a1565b6112c1565b61128e565b611ae9565b611cc1915060203d8111611cc7575b611cb981836111f0565b810190611431565b5f611c83565b503d611caf565b6114e1565b5093611ce2919250929161128e565b9190611a70565b50611d079150611d0290611cfc5f6109b5565b906112a1565b61132a565b90565b611d1c91611d16610bb3565b91610da3565b565b611d275f6109b5565b5b80611d5b611d557f00000000000000000000000000000000000000000000000000000000000000006101b7565b916101b7565b1015611d8e57611d8990611d845f611d7f611d7860038390611954565b8490610777565b611d0a565b61128e565b611d28565b50611da2611d9b5f6109b5565b6002610a71565b611db75f611db26004829061196a565b611d0a565b565b611ded7f0000000000000000000000000000000000000000000000000000000000000000611de76002610af1565b90610e49565b611df65f6109b5565b5b80611e0a611e04846101b7565b916101b7565b1015611e6357611e5e90611e59611e2b611e2660085f9061196a565b610af1565b611e54611e3a60035f90611954565b611e4e611e476002610af1565b8690611305565b90610777565b610a71565b61128e565b611df7565b5050611e907f00000000000000000000000000000000000000000000000000000000000000006002610a71565b611e986119c9565b611eac611ea56001610d2e565b8290610dc5565b611ec9611eb96001610341565b611ec36001610e2d565b90610e49565b611f08611ef67f6a297a526c1c42df9853983b50ef14c2cb409494aeaa7528416b270bc116c4279261075b565b92611eff610162565b918291826101c7565b0390a2611f13611d1e565b56fea2646970667358221220a43f7e53e16e7227736a4ca191f9fc8cfabb06bbc60b02172474d27a64da1fe664736f6c63430008210033","linkReferences":{"node_modules/poseidon-solidity/PoseidonT6.sol":{"PoseidonT6":[{"start":1742,"length":20},{"start":7990,"length":20},{"start":8993,"length":20}]}}},"methodIdentifiers":{"ARITY()":"b4885ec3","HASH_LENGTH()":"b66c84a1","LEAVES_PER_SUBTREE()":"974da14e","SUB_DEPTH()":"a03cb3a4","currentSubtreeLeafCount()":"f13827af","enqueue(uint256)":"1ffc735d","getMainRoot()":"198e3c17","getNumLeaves()":"927d52ab","getNumSubRoots()":"4a690ef9","getSubRoot(uint256)":"e93fb4d4","isMerged()":"d80fef14","leaves(uint256)":"d455a79d","mainRoot()":"2ecf52e8","merge()":"0b65108b","mergeSubRoots(uint256)":"c15da65b","merged()":"6bc1fb53","numLeaves()":"dda89a6e","subRoots(uint256)":"60fd4010","subRootsMerged()":"a58475b7","zeros(uint256)":"e8295588"},"id":0}