{
  "_format": "hh-sol-artifact-1",
  "contractName": "ZkVotingFinal",
  "sourceName": "contracts/ZkVotingFinal.sol",
  "abi": [
    {
      "inputs": [
        {
          "internalType": "address",
          "name": "_verifierD1",
          "type": "address"
        },
        {
          "internalType": "address",
          "name": "_verifierD2",
          "type": "address"
        },
        {
          "internalType": "address",
          "name": "_tonToken",
          "type": "address"
        },
        {
          "internalType": "address",
          "name": "_treasury",
          "type": "address"
        }
      ],
      "stateMutability": "nonpayable",
      "type": "constructor"
    },
    {
      "inputs": [],
      "name": "AlreadyRevealed",
      "type": "error"
    },
    {
      "inputs": [],
      "name": "CommitmentNotFound",
      "type": "error"
    },
    {
      "inputs": [],
      "name": "InsufficientCredits",
      "type": "error"
    },
    {
      "inputs": [],
      "name": "InvalidChoice",
      "type": "error"
    },
    {
      "inputs": [],
      "name": "InvalidCreditRoot",
      "type": "error"
    },
    {
      "inputs": [],
      "name": "InvalidMerkleRoot",
      "type": "error"
    },
    {
      "inputs": [],
      "name": "InvalidProof",
      "type": "error"
    },
    {
      "inputs": [],
      "name": "InvalidQuadraticCost",
      "type": "error"
    },
    {
      "inputs": [],
      "name": "InvalidReveal",
      "type": "error"
    },
    {
      "inputs": [],
      "name": "NotInCommitPhase",
      "type": "error"
    },
    {
      "inputs": [],
      "name": "NotInRevealPhase",
      "type": "error"
    },
    {
      "inputs": [],
      "name": "NullifierAlreadyUsed",
      "type": "error"
    },
    {
      "inputs": [],
      "name": "ProposalNotFound",
      "type": "error"
    },
    {
      "inputs": [],
      "name": "ZeroVotingPower",
      "type": "error"
    },
    {
      "anonymous": false,
      "inputs": [
        {
          "indexed": true,
          "internalType": "uint256",
          "name": "creditNoteHash",
          "type": "uint256"
        },
        {
          "indexed": false,
          "internalType": "uint256",
          "name": "timestamp",
          "type": "uint256"
        }
      ],
      "name": "CreditNoteRegistered",
      "type": "event"
    },
    {
      "anonymous": false,
      "inputs": [
        {
          "indexed": true,
          "internalType": "uint256",
          "name": "creditRoot",
          "type": "uint256"
        },
        {
          "indexed": false,
          "internalType": "uint256",
          "name": "timestamp",
          "type": "uint256"
        }
      ],
      "name": "CreditRootRegistered",
      "type": "event"
    },
    {
      "anonymous": false,
      "inputs": [
        {
          "indexed": true,
          "internalType": "address",
          "name": "user",
          "type": "address"
        },
        {
          "indexed": false,
          "internalType": "uint256",
          "name": "amount",
          "type": "uint256"
        },
        {
          "indexed": false,
          "internalType": "uint256",
          "name": "remaining",
          "type": "uint256"
        }
      ],
      "name": "CreditsBurned",
      "type": "event"
    },
    {
      "anonymous": false,
      "inputs": [
        {
          "indexed": true,
          "internalType": "address",
          "name": "user",
          "type": "address"
        },
        {
          "indexed": false,
          "internalType": "uint256",
          "name": "credits",
          "type": "uint256"
        }
      ],
      "name": "CreditsInitialized",
      "type": "event"
    },
    {
      "anonymous": false,
      "inputs": [
        {
          "indexed": true,
          "internalType": "address",
          "name": "user",
          "type": "address"
        },
        {
          "indexed": false,
          "internalType": "uint256",
          "name": "amount",
          "type": "uint256"
        },
        {
          "indexed": false,
          "internalType": "uint256",
          "name": "total",
          "type": "uint256"
        }
      ],
      "name": "CreditsMinted",
      "type": "event"
    },
    {
      "anonymous": false,
      "inputs": [
        {
          "indexed": true,
          "internalType": "uint256",
          "name": "merkleRoot",
          "type": "uint256"
        },
        {
          "indexed": false,
          "internalType": "uint256",
          "name": "timestamp",
          "type": "uint256"
        }
      ],
      "name": "MerkleRootRegistered",
      "type": "event"
    },
    {
      "anonymous": false,
      "inputs": [
        {
          "indexed": true,
          "internalType": "uint256",
          "name": "proposalId",
          "type": "uint256"
        },
        {
          "indexed": false,
          "internalType": "string",
          "name": "title",
          "type": "string"
        },
        {
          "indexed": true,
          "internalType": "address",
          "name": "proposer",
          "type": "address"
        },
        {
          "indexed": false,
          "internalType": "uint256",
          "name": "merkleRoot",
          "type": "uint256"
        },
        {
          "indexed": false,
          "internalType": "uint256",
          "name": "endTime",
          "type": "uint256"
        },
        {
          "indexed": false,
          "internalType": "uint256",
          "name": "revealEndTime",
          "type": "uint256"
        }
      ],
      "name": "ProposalCreatedD1",
      "type": "event"
    },
    {
      "anonymous": false,
      "inputs": [
        {
          "indexed": true,
          "internalType": "uint256",
          "name": "proposalId",
          "type": "uint256"
        },
        {
          "indexed": false,
          "internalType": "string",
          "name": "title",
          "type": "string"
        },
        {
          "indexed": true,
          "internalType": "address",
          "name": "proposer",
          "type": "address"
        },
        {
          "indexed": false,
          "internalType": "uint256",
          "name": "creditRoot",
          "type": "uint256"
        },
        {
          "indexed": false,
          "internalType": "uint256",
          "name": "endTime",
          "type": "uint256"
        },
        {
          "indexed": false,
          "internalType": "uint256",
          "name": "revealEndTime",
          "type": "uint256"
        }
      ],
      "name": "ProposalCreatedD2",
      "type": "event"
    },
    {
      "anonymous": false,
      "inputs": [
        {
          "indexed": true,
          "internalType": "uint256",
          "name": "proposalId",
          "type": "uint256"
        },
        {
          "indexed": true,
          "internalType": "uint256",
          "name": "nullifier",
          "type": "uint256"
        },
        {
          "indexed": false,
          "internalType": "uint256",
          "name": "commitment",
          "type": "uint256"
        },
        {
          "indexed": false,
          "internalType": "uint256",
          "name": "votingPower",
          "type": "uint256"
        }
      ],
      "name": "VoteCommittedD1",
      "type": "event"
    },
    {
      "anonymous": false,
      "inputs": [
        {
          "indexed": true,
          "internalType": "uint256",
          "name": "proposalId",
          "type": "uint256"
        },
        {
          "indexed": true,
          "internalType": "uint256",
          "name": "nullifier",
          "type": "uint256"
        },
        {
          "indexed": false,
          "internalType": "uint256",
          "name": "commitment",
          "type": "uint256"
        },
        {
          "indexed": false,
          "internalType": "uint256",
          "name": "numVotes",
          "type": "uint256"
        },
        {
          "indexed": false,
          "internalType": "uint256",
          "name": "creditsSpent",
          "type": "uint256"
        }
      ],
      "name": "VoteCommittedD2",
      "type": "event"
    },
    {
      "anonymous": false,
      "inputs": [
        {
          "indexed": true,
          "internalType": "uint256",
          "name": "proposalId",
          "type": "uint256"
        },
        {
          "indexed": true,
          "internalType": "uint256",
          "name": "nullifier",
          "type": "uint256"
        },
        {
          "indexed": false,
          "internalType": "uint256",
          "name": "choice",
          "type": "uint256"
        },
        {
          "indexed": false,
          "internalType": "uint256",
          "name": "votingPower",
          "type": "uint256"
        }
      ],
      "name": "VoteRevealedD1",
      "type": "event"
    },
    {
      "anonymous": false,
      "inputs": [
        {
          "indexed": true,
          "internalType": "uint256",
          "name": "proposalId",
          "type": "uint256"
        },
        {
          "indexed": true,
          "internalType": "uint256",
          "name": "nullifier",
          "type": "uint256"
        },
        {
          "indexed": false,
          "internalType": "uint256",
          "name": "choice",
          "type": "uint256"
        },
        {
          "indexed": false,
          "internalType": "uint256",
          "name": "numVotes",
          "type": "uint256"
        },
        {
          "indexed": false,
          "internalType": "uint256",
          "name": "creditsSpent",
          "type": "uint256"
        }
      ],
      "name": "VoteRevealedD2",
      "type": "event"
    },
    {
      "anonymous": false,
      "inputs": [
        {
          "indexed": true,
          "internalType": "uint256",
          "name": "noteHash",
          "type": "uint256"
        },
        {
          "indexed": false,
          "internalType": "uint256",
          "name": "timestamp",
          "type": "uint256"
        }
      ],
      "name": "VoterRegistered",
      "type": "event"
    },
    {
      "inputs": [],
      "name": "CHOICE_ABSTAIN",
      "outputs": [
        {
          "internalType": "uint256",
          "name": "",
          "type": "uint256"
        }
      ],
      "stateMutability": "view",
      "type": "function"
    },
    {
      "inputs": [],
      "name": "CHOICE_AGAINST",
      "outputs": [
        {
          "internalType": "uint256",
          "name": "",
          "type": "uint256"
        }
      ],
      "stateMutability": "view",
      "type": "function"
    },
    {
      "inputs": [],
      "name": "CHOICE_FOR",
      "outputs": [
        {
          "internalType": "uint256",
          "name": "",
          "type": "uint256"
        }
      ],
      "stateMutability": "view",
      "type": "function"
    },
    {
      "inputs": [],
      "name": "INITIAL_CREDITS",
      "outputs": [
        {
          "internalType": "uint256",
          "name": "",
          "type": "uint256"
        }
      ],
      "stateMutability": "view",
      "type": "function"
    },
    {
      "inputs": [
        {
          "internalType": "uint256",
          "name": "numVotes",
          "type": "uint256"
        }
      ],
      "name": "calculateQuadraticCost",
      "outputs": [
        {
          "internalType": "uint256",
          "name": "",
          "type": "uint256"
        }
      ],
      "stateMutability": "pure",
      "type": "function"
    },
    {
      "inputs": [
        {
          "internalType": "uint256",
          "name": "_proposalId",
          "type": "uint256"
        },
        {
          "internalType": "uint256",
          "name": "_commitment",
          "type": "uint256"
        },
        {
          "internalType": "uint256",
          "name": "_votingPower",
          "type": "uint256"
        },
        {
          "internalType": "uint256",
          "name": "_nullifier",
          "type": "uint256"
        },
        {
          "internalType": "uint256[2]",
          "name": "_pA",
          "type": "uint256[2]"
        },
        {
          "internalType": "uint256[2][2]",
          "name": "_pB",
          "type": "uint256[2][2]"
        },
        {
          "internalType": "uint256[2]",
          "name": "_pC",
          "type": "uint256[2]"
        }
      ],
      "name": "castVoteD1",
      "outputs": [],
      "stateMutability": "nonpayable",
      "type": "function"
    },
    {
      "inputs": [
        {
          "internalType": "uint256",
          "name": "_proposalId",
          "type": "uint256"
        },
        {
          "internalType": "uint256",
          "name": "_commitment",
          "type": "uint256"
        },
        {
          "internalType": "uint256",
          "name": "_numVotes",
          "type": "uint256"
        },
        {
          "internalType": "uint256",
          "name": "_creditsSpent",
          "type": "uint256"
        },
        {
          "internalType": "uint256",
          "name": "_nullifier",
          "type": "uint256"
        },
        {
          "internalType": "uint256[2]",
          "name": "_pA",
          "type": "uint256[2]"
        },
        {
          "internalType": "uint256[2][2]",
          "name": "_pB",
          "type": "uint256[2][2]"
        },
        {
          "internalType": "uint256[2]",
          "name": "_pC",
          "type": "uint256[2]"
        }
      ],
      "name": "castVoteD2",
      "outputs": [],
      "stateMutability": "nonpayable",
      "type": "function"
    },
    {
      "inputs": [
        {
          "internalType": "uint256",
          "name": "",
          "type": "uint256"
        },
        {
          "internalType": "uint256",
          "name": "",
          "type": "uint256"
        }
      ],
      "name": "commitmentsD1",
      "outputs": [
        {
          "internalType": "uint256",
          "name": "commitment",
          "type": "uint256"
        },
        {
          "internalType": "uint256",
          "name": "votingPower",
          "type": "uint256"
        },
        {
          "internalType": "uint256",
          "name": "nullifier",
          "type": "uint256"
        },
        {
          "internalType": "uint256",
          "name": "timestamp",
          "type": "uint256"
        },
        {
          "internalType": "bool",
          "name": "revealed",
          "type": "bool"
        },
        {
          "internalType": "uint256",
          "name": "revealedChoice",
          "type": "uint256"
        },
        {
          "internalType": "bool",
          "name": "exists",
          "type": "bool"
        }
      ],
      "stateMutability": "view",
      "type": "function"
    },
    {
      "inputs": [
        {
          "internalType": "uint256",
          "name": "",
          "type": "uint256"
        },
        {
          "internalType": "uint256",
          "name": "",
          "type": "uint256"
        }
      ],
      "name": "commitmentsD2",
      "outputs": [
        {
          "internalType": "uint256",
          "name": "commitment",
          "type": "uint256"
        },
        {
          "internalType": "uint256",
          "name": "creditsSpent",
          "type": "uint256"
        },
        {
          "internalType": "uint256",
          "name": "numVotes",
          "type": "uint256"
        },
        {
          "internalType": "uint256",
          "name": "nullifier",
          "type": "uint256"
        },
        {
          "internalType": "uint256",
          "name": "timestamp",
          "type": "uint256"
        },
        {
          "internalType": "bool",
          "name": "revealed",
          "type": "bool"
        },
        {
          "internalType": "uint256",
          "name": "revealedChoice",
          "type": "uint256"
        },
        {
          "internalType": "bool",
          "name": "exists",
          "type": "bool"
        }
      ],
      "stateMutability": "view",
      "type": "function"
    },
    {
      "inputs": [
        {
          "internalType": "string",
          "name": "_title",
          "type": "string"
        },
        {
          "internalType": "string",
          "name": "_description",
          "type": "string"
        },
        {
          "internalType": "uint256",
          "name": "_merkleRoot",
          "type": "uint256"
        },
        {
          "internalType": "uint256",
          "name": "_votingDuration",
          "type": "uint256"
        },
        {
          "internalType": "uint256",
          "name": "_revealDuration",
          "type": "uint256"
        }
      ],
      "name": "createProposalD1",
      "outputs": [
        {
          "internalType": "uint256",
          "name": "",
          "type": "uint256"
        }
      ],
      "stateMutability": "nonpayable",
      "type": "function"
    },
    {
      "inputs": [
        {
          "internalType": "string",
          "name": "_title",
          "type": "string"
        },
        {
          "internalType": "string",
          "name": "_description",
          "type": "string"
        },
        {
          "internalType": "uint256",
          "name": "_creditRoot",
          "type": "uint256"
        },
        {
          "internalType": "uint256",
          "name": "_votingDuration",
          "type": "uint256"
        },
        {
          "internalType": "uint256",
          "name": "_revealDuration",
          "type": "uint256"
        }
      ],
      "name": "createProposalD2",
      "outputs": [
        {
          "internalType": "uint256",
          "name": "",
          "type": "uint256"
        }
      ],
      "stateMutability": "nonpayable",
      "type": "function"
    },
    {
      "inputs": [
        {
          "internalType": "uint256",
          "name": "",
          "type": "uint256"
        }
      ],
      "name": "creditRootHistory",
      "outputs": [
        {
          "internalType": "uint256",
          "name": "",
          "type": "uint256"
        }
      ],
      "stateMutability": "view",
      "type": "function"
    },
    {
      "inputs": [
        {
          "internalType": "address",
          "name": "user",
          "type": "address"
        }
      ],
      "name": "getAvailableCredits",
      "outputs": [
        {
          "internalType": "uint256",
          "name": "",
          "type": "uint256"
        }
      ],
      "stateMutability": "view",
      "type": "function"
    },
    {
      "inputs": [
        {
          "internalType": "uint256",
          "name": "_proposalId",
          "type": "uint256"
        }
      ],
      "name": "getPhaseD2",
      "outputs": [
        {
          "internalType": "uint8",
          "name": "",
          "type": "uint8"
        }
      ],
      "stateMutability": "view",
      "type": "function"
    },
    {
      "inputs": [
        {
          "internalType": "uint256",
          "name": "_proposalId",
          "type": "uint256"
        }
      ],
      "name": "getProposalD1",
      "outputs": [
        {
          "internalType": "uint256",
          "name": "id",
          "type": "uint256"
        },
        {
          "internalType": "string",
          "name": "title",
          "type": "string"
        },
        {
          "internalType": "string",
          "name": "description",
          "type": "string"
        },
        {
          "internalType": "address",
          "name": "proposer",
          "type": "address"
        },
        {
          "internalType": "uint256",
          "name": "merkleRoot",
          "type": "uint256"
        },
        {
          "internalType": "uint256",
          "name": "endTime",
          "type": "uint256"
        },
        {
          "internalType": "uint256",
          "name": "revealEndTime",
          "type": "uint256"
        },
        {
          "internalType": "uint256",
          "name": "forVotes",
          "type": "uint256"
        },
        {
          "internalType": "uint256",
          "name": "againstVotes",
          "type": "uint256"
        },
        {
          "internalType": "uint256",
          "name": "abstainVotes",
          "type": "uint256"
        },
        {
          "internalType": "uint256",
          "name": "totalCommitments",
          "type": "uint256"
        },
        {
          "internalType": "uint256",
          "name": "revealedVotes",
          "type": "uint256"
        },
        {
          "internalType": "uint8",
          "name": "phase",
          "type": "uint8"
        }
      ],
      "stateMutability": "view",
      "type": "function"
    },
    {
      "inputs": [
        {
          "internalType": "uint256",
          "name": "_proposalId",
          "type": "uint256"
        }
      ],
      "name": "getProposalD2",
      "outputs": [
        {
          "internalType": "uint256",
          "name": "id",
          "type": "uint256"
        },
        {
          "internalType": "string",
          "name": "title",
          "type": "string"
        },
        {
          "internalType": "string",
          "name": "description",
          "type": "string"
        },
        {
          "internalType": "address",
          "name": "proposer",
          "type": "address"
        },
        {
          "internalType": "uint256",
          "name": "creditRoot",
          "type": "uint256"
        },
        {
          "internalType": "uint256",
          "name": "endTime",
          "type": "uint256"
        },
        {
          "internalType": "uint256",
          "name": "revealEndTime",
          "type": "uint256"
        },
        {
          "internalType": "uint256",
          "name": "forVotes",
          "type": "uint256"
        },
        {
          "internalType": "uint256",
          "name": "againstVotes",
          "type": "uint256"
        },
        {
          "internalType": "uint256",
          "name": "abstainVotes",
          "type": "uint256"
        },
        {
          "internalType": "uint256",
          "name": "totalCreditsSpent",
          "type": "uint256"
        },
        {
          "internalType": "uint256",
          "name": "totalCommitments",
          "type": "uint256"
        },
        {
          "internalType": "uint256",
          "name": "revealedVotes",
          "type": "uint256"
        },
        {
          "internalType": "uint8",
          "name": "phase",
          "type": "uint8"
        }
      ],
      "stateMutability": "view",
      "type": "function"
    },
    {
      "inputs": [],
      "name": "getRegisteredCreditNotes",
      "outputs": [
        {
          "internalType": "uint256[]",
          "name": "",
          "type": "uint256[]"
        }
      ],
      "stateMutability": "view",
      "type": "function"
    },
    {
      "inputs": [],
      "name": "getRegisteredVoters",
      "outputs": [
        {
          "internalType": "uint256[]",
          "name": "",
          "type": "uint256[]"
        }
      ],
      "stateMutability": "view",
      "type": "function"
    },
    {
      "inputs": [],
      "name": "getVoterCount",
      "outputs": [
        {
          "internalType": "uint256",
          "name": "",
          "type": "uint256"
        }
      ],
      "stateMutability": "view",
      "type": "function"
    },
    {
      "inputs": [],
      "name": "initializeCredits",
      "outputs": [],
      "stateMutability": "nonpayable",
      "type": "function"
    },
    {
      "inputs": [
        {
          "internalType": "uint256",
          "name": "",
          "type": "uint256"
        }
      ],
      "name": "isCreditNoteRegistered",
      "outputs": [
        {
          "internalType": "bool",
          "name": "",
          "type": "bool"
        }
      ],
      "stateMutability": "view",
      "type": "function"
    },
    {
      "inputs": [
        {
          "internalType": "uint256",
          "name": "_creditRoot",
          "type": "uint256"
        }
      ],
      "name": "isCreditRootValid",
      "outputs": [
        {
          "internalType": "bool",
          "name": "",
          "type": "bool"
        }
      ],
      "stateMutability": "view",
      "type": "function"
    },
    {
      "inputs": [
        {
          "internalType": "uint256",
          "name": "_merkleRoot",
          "type": "uint256"
        }
      ],
      "name": "isMerkleRootValid",
      "outputs": [
        {
          "internalType": "bool",
          "name": "",
          "type": "bool"
        }
      ],
      "stateMutability": "view",
      "type": "function"
    },
    {
      "inputs": [
        {
          "internalType": "uint256",
          "name": "",
          "type": "uint256"
        }
      ],
      "name": "isVoterRegistered",
      "outputs": [
        {
          "internalType": "bool",
          "name": "",
          "type": "bool"
        }
      ],
      "stateMutability": "view",
      "type": "function"
    },
    {
      "inputs": [
        {
          "internalType": "uint256",
          "name": "",
          "type": "uint256"
        }
      ],
      "name": "merkleRootHistory",
      "outputs": [
        {
          "internalType": "uint256",
          "name": "",
          "type": "uint256"
        }
      ],
      "stateMutability": "view",
      "type": "function"
    },
    {
      "inputs": [
        {
          "internalType": "uint256",
          "name": "amount",
          "type": "uint256"
        }
      ],
      "name": "mintTestTokens",
      "outputs": [],
      "stateMutability": "nonpayable",
      "type": "function"
    },
    {
      "inputs": [
        {
          "internalType": "uint256",
          "name": "",
          "type": "uint256"
        },
        {
          "internalType": "uint256",
          "name": "",
          "type": "uint256"
        }
      ],
      "name": "nullifierUsedD1",
      "outputs": [
        {
          "internalType": "bool",
          "name": "",
          "type": "bool"
        }
      ],
      "stateMutability": "view",
      "type": "function"
    },
    {
      "inputs": [
        {
          "internalType": "uint256",
          "name": "",
          "type": "uint256"
        },
        {
          "internalType": "uint256",
          "name": "",
          "type": "uint256"
        }
      ],
      "name": "nullifierUsedD2",
      "outputs": [
        {
          "internalType": "bool",
          "name": "",
          "type": "bool"
        }
      ],
      "stateMutability": "view",
      "type": "function"
    },
    {
      "inputs": [
        {
          "internalType": "address",
          "name": "owner",
          "type": "address"
        },
        {
          "internalType": "address",
          "name": "spender",
          "type": "address"
        },
        {
          "internalType": "uint256",
          "name": "amount",
          "type": "uint256"
        },
        {
          "internalType": "bytes",
          "name": "data",
          "type": "bytes"
        }
      ],
      "name": "onApprove",
      "outputs": [
        {
          "internalType": "bool",
          "name": "",
          "type": "bool"
        }
      ],
      "stateMutability": "nonpayable",
      "type": "function"
    },
    {
      "inputs": [],
      "name": "proposalCountD1",
      "outputs": [
        {
          "internalType": "uint256",
          "name": "",
          "type": "uint256"
        }
      ],
      "stateMutability": "view",
      "type": "function"
    },
    {
      "inputs": [],
      "name": "proposalCountD2",
      "outputs": [
        {
          "internalType": "uint256",
          "name": "",
          "type": "uint256"
        }
      ],
      "stateMutability": "view",
      "type": "function"
    },
    {
      "inputs": [
        {
          "internalType": "uint256",
          "name": "",
          "type": "uint256"
        },
        {
          "internalType": "uint256",
          "name": "",
          "type": "uint256"
        }
      ],
      "name": "proposalVoterSnapshots",
      "outputs": [
        {
          "internalType": "uint256",
          "name": "",
          "type": "uint256"
        }
      ],
      "stateMutability": "view",
      "type": "function"
    },
    {
      "inputs": [
        {
          "internalType": "uint256",
          "name": "",
          "type": "uint256"
        }
      ],
      "name": "proposalsD1",
      "outputs": [
        {
          "internalType": "uint256",
          "name": "id",
          "type": "uint256"
        },
        {
          "internalType": "string",
          "name": "title",
          "type": "string"
        },
        {
          "internalType": "string",
          "name": "description",
          "type": "string"
        },
        {
          "internalType": "address",
          "name": "proposer",
          "type": "address"
        },
        {
          "internalType": "uint256",
          "name": "startTime",
          "type": "uint256"
        },
        {
          "internalType": "uint256",
          "name": "endTime",
          "type": "uint256"
        },
        {
          "internalType": "uint256",
          "name": "revealEndTime",
          "type": "uint256"
        },
        {
          "internalType": "uint256",
          "name": "merkleRoot",
          "type": "uint256"
        },
        {
          "internalType": "uint256",
          "name": "forVotes",
          "type": "uint256"
        },
        {
          "internalType": "uint256",
          "name": "againstVotes",
          "type": "uint256"
        },
        {
          "internalType": "uint256",
          "name": "abstainVotes",
          "type": "uint256"
        },
        {
          "internalType": "uint256",
          "name": "totalCommitments",
          "type": "uint256"
        },
        {
          "internalType": "uint256",
          "name": "revealedVotes",
          "type": "uint256"
        },
        {
          "internalType": "bool",
          "name": "exists",
          "type": "bool"
        }
      ],
      "stateMutability": "view",
      "type": "function"
    },
    {
      "inputs": [
        {
          "internalType": "uint256",
          "name": "",
          "type": "uint256"
        }
      ],
      "name": "proposalsD2",
      "outputs": [
        {
          "internalType": "uint256",
          "name": "id",
          "type": "uint256"
        },
        {
          "internalType": "string",
          "name": "title",
          "type": "string"
        },
        {
          "internalType": "string",
          "name": "description",
          "type": "string"
        },
        {
          "internalType": "address",
          "name": "proposer",
          "type": "address"
        },
        {
          "internalType": "uint256",
          "name": "startTime",
          "type": "uint256"
        },
        {
          "internalType": "uint256",
          "name": "endTime",
          "type": "uint256"
        },
        {
          "internalType": "uint256",
          "name": "revealEndTime",
          "type": "uint256"
        },
        {
          "internalType": "uint256",
          "name": "creditRoot",
          "type": "uint256"
        },
        {
          "internalType": "uint256",
          "name": "forVotes",
          "type": "uint256"
        },
        {
          "internalType": "uint256",
          "name": "againstVotes",
          "type": "uint256"
        },
        {
          "internalType": "uint256",
          "name": "abstainVotes",
          "type": "uint256"
        },
        {
          "internalType": "uint256",
          "name": "totalCreditsSpent",
          "type": "uint256"
        },
        {
          "internalType": "uint256",
          "name": "totalCommitments",
          "type": "uint256"
        },
        {
          "internalType": "uint256",
          "name": "revealedVotes",
          "type": "uint256"
        },
        {
          "internalType": "bool",
          "name": "exists",
          "type": "bool"
        }
      ],
      "stateMutability": "view",
      "type": "function"
    },
    {
      "inputs": [
        {
          "internalType": "uint256",
          "name": "_creditNoteHash",
          "type": "uint256"
        }
      ],
      "name": "registerCreditNote",
      "outputs": [],
      "stateMutability": "nonpayable",
      "type": "function"
    },
    {
      "inputs": [
        {
          "internalType": "uint256",
          "name": "_creditRoot",
          "type": "uint256"
        }
      ],
      "name": "registerCreditRoot",
      "outputs": [],
      "stateMutability": "nonpayable",
      "type": "function"
    },
    {
      "inputs": [
        {
          "internalType": "uint256",
          "name": "_merkleRoot",
          "type": "uint256"
        }
      ],
      "name": "registerMerkleRoot",
      "outputs": [],
      "stateMutability": "nonpayable",
      "type": "function"
    },
    {
      "inputs": [
        {
          "internalType": "uint256",
          "name": "_noteHash",
          "type": "uint256"
        }
      ],
      "name": "registerVoter",
      "outputs": [],
      "stateMutability": "nonpayable",
      "type": "function"
    },
    {
      "inputs": [
        {
          "internalType": "uint256",
          "name": "",
          "type": "uint256"
        }
      ],
      "name": "registeredCreditNotes",
      "outputs": [
        {
          "internalType": "uint256",
          "name": "",
          "type": "uint256"
        }
      ],
      "stateMutability": "view",
      "type": "function"
    },
    {
      "inputs": [
        {
          "internalType": "uint256",
          "name": "",
          "type": "uint256"
        }
      ],
      "name": "registeredVoters",
      "outputs": [
        {
          "internalType": "uint256",
          "name": "",
          "type": "uint256"
        }
      ],
      "stateMutability": "view",
      "type": "function"
    },
    {
      "inputs": [
        {
          "internalType": "uint256",
          "name": "_proposalId",
          "type": "uint256"
        },
        {
          "internalType": "uint256",
          "name": "_nullifier",
          "type": "uint256"
        },
        {
          "internalType": "uint256",
          "name": "_choice",
          "type": "uint256"
        },
        {
          "internalType": "uint256",
          "name": "_voteSalt",
          "type": "uint256"
        }
      ],
      "name": "revealVoteD1",
      "outputs": [],
      "stateMutability": "nonpayable",
      "type": "function"
    },
    {
      "inputs": [
        {
          "internalType": "uint256",
          "name": "_proposalId",
          "type": "uint256"
        },
        {
          "internalType": "uint256",
          "name": "_nullifier",
          "type": "uint256"
        },
        {
          "internalType": "uint256",
          "name": "_choice",
          "type": "uint256"
        },
        {
          "internalType": "uint256",
          "name": "_numVotes",
          "type": "uint256"
        },
        {
          "internalType": "uint256",
          "name": "_voteSalt",
          "type": "uint256"
        }
      ],
      "name": "revealVoteD2",
      "outputs": [],
      "stateMutability": "nonpayable",
      "type": "function"
    },
    {
      "inputs": [
        {
          "internalType": "bytes4",
          "name": "interfaceId",
          "type": "bytes4"
        }
      ],
      "name": "supportsInterface",
      "outputs": [
        {
          "internalType": "bool",
          "name": "",
          "type": "bool"
        }
      ],
      "stateMutability": "pure",
      "type": "function"
    },
    {
      "inputs": [],
      "name": "tonToken",
      "outputs": [
        {
          "internalType": "contract IERC20",
          "name": "",
          "type": "address"
        }
      ],
      "stateMutability": "view",
      "type": "function"
    },
    {
      "inputs": [],
      "name": "treasury",
      "outputs": [
        {
          "internalType": "address",
          "name": "",
          "type": "address"
        }
      ],
      "stateMutability": "view",
      "type": "function"
    },
    {
      "inputs": [
        {
          "internalType": "uint256",
          "name": "_proposalId",
          "type": "uint256"
        },
        {
          "internalType": "uint256",
          "name": "_newMerkleRoot",
          "type": "uint256"
        }
      ],
      "name": "updateProposalVoters",
      "outputs": [],
      "stateMutability": "nonpayable",
      "type": "function"
    },
    {
      "inputs": [
        {
          "internalType": "address",
          "name": "",
          "type": "address"
        }
      ],
      "name": "userCredits",
      "outputs": [
        {
          "internalType": "uint256",
          "name": "totalCredits",
          "type": "uint256"
        },
        {
          "internalType": "uint256",
          "name": "usedCredits",
          "type": "uint256"
        },
        {
          "internalType": "bool",
          "name": "initialized",
          "type": "bool"
        }
      ],
      "stateMutability": "view",
      "type": "function"
    },
    {
      "inputs": [
        {
          "internalType": "uint256",
          "name": "",
          "type": "uint256"
        }
      ],
      "name": "validCreditRoots",
      "outputs": [
        {
          "internalType": "bool",
          "name": "",
          "type": "bool"
        }
      ],
      "stateMutability": "view",
      "type": "function"
    },
    {
      "inputs": [
        {
          "internalType": "uint256",
          "name": "",
          "type": "uint256"
        }
      ],
      "name": "validMerkleRoots",
      "outputs": [
        {
          "internalType": "bool",
          "name": "",
          "type": "bool"
        }
      ],
      "stateMutability": "view",
      "type": "function"
    },
    {
      "inputs": [],
      "name": "verifierD1",
      "outputs": [
        {
          "internalType": "contract IVerifierD1",
          "name": "",
          "type": "address"
        }
      ],
      "stateMutability": "view",
      "type": "function"
    },
    {
      "inputs": [],
      "name": "verifierD2",
      "outputs": [
        {
          "internalType": "contract IVerifierD2",
          "name": "",
          "type": "address"
        }
      ],
      "stateMutability": "view",
      "type": "function"
    }
  ],
  "bytecode": "0x60e0346200011257601f620036d838819003918201601f19168301916001600160401b03831184841017620001175780849260809460405283398101031262000112576200004d816200012d565b906200005c602082016200012d565b9162000079606062000071604085016200012d565b93016200012d565b6001600160a01b0391821660805292811660a05290811660c052600080546001600160a01b0319169190921617905560405161359590816200014382396080518181816103610152612a24015260a051818181610f62015281816117ea0152612140015260c051818181610fca015281816114dd015281816118ac01528181611f60015281816121c30152818161224501526122a90152f35b600080fd5b634e487b7160e01b600052604160045260246000fd5b51906001600160a01b0382168203620001125756fe608080604052600436101561001357600080fd5b60003560e01c90816301ffc9a714612e845750806303a229f714612e665780630572c80114612c9d5780630d70ece814612c6c57806311174a2914612c4e57806313703e6614612bc457806318dbeb4c1461292757806320babb92146128d15780632436e06b146128a85780632bbe44fd1461288c5780632bc4a6e7146128115780632c5317c0146127d2578063315401c0146126b6578063417e70c8146104895780634273ca1614611f0e5780634275e03114611e905780634a9284fb14610e1d5780634d09b49f14611a4157806352a48c56146119b15780635938862f1461197957806361d027b314611950578063697aa8e8146119335780636d3cba611461190257806374dd0fea146118db578063781a485214611896578063833722c51461185e578063850099cd146118355780638ea7a2741461181957806394ffe6a0146117d4578063974f7aa314611783578063a13f2f8d14611767578063a1c7574a146116dc578063a329b3131461168b578063a4cae8f814611629578063aa6098481461154e578063b065a8e51461149c578063b4e0d6af14611394578063b5770c3314611378578063b5ad921514611327578063badbc2ed14610e4e578063cb1bb03314610e1d578063d544433614610d66578063d54bb70b14610c40578063d55d533e14610962578063d90292a314610946578063db5bd601146104ba578063ef3a2b3914610489578063f025d08214610390578063f58789ae1461034b578063f90587411461032d5763fb9607d31461025057600080fd5b346103285760003660031901126103285733600052601260205260ff600260406000200154161561027d57005b604051606081018181106001600160401b03821117610312576040526102e4612710918281526002602082016000815260408301906001825233600052601260205260406000209351845551600184015551151591019060ff801983541691151516179055565b6040519081527f840108f8f5f45d25a166719fa7440c37016845a955726b639e64fb325f73100760203392a2005b634e487b7160e01b600052604160045260246000fd5b600080fd5b34610328576000366003190112610328576020600154604051908152f35b34610328576000366003190112610328576040517f00000000000000000000000000000000000000000000000000000000000000006001600160a01b03168152602090f35b3461032857602036600319011261032857600435600052600360205260406000208054600182016103c090613119565b916103cd60028201613119565b600160a01b60019003600383015416916004810154600582015460068301546007840154600885015490600986015492600a87015494600b88015496600c89015498600d015460ff16996040519d8e9d8e6101c09181528160208201520161043491612f8e565b8d810360408f015261044591612f8e565b9a60608d015260808c015260a08b015260c08a015260e089015261010088015261012087015261014086015261016085015261018084015215156101a08301520390f35b3461032857602036600319011261032857600435600052600e602052602060ff604060002054166040519015158152f35b34610328576104c836612ffb565b929482600097959793929352600e60205260ff6040600020541615610934576104f26002546131f9565b958660025561050184426131ec565b6105148661050f87426131ec565b6131ec565b91604051998a6101e08101106001600160401b036101e08d01111761031257610559916101e08c016040528a8c5261054d36878c613411565b60208d01523691613411565b60408a01523360608a01524260808a015260a089015260c08801528160e08801526000610100880152600061012088015260006101408801526000610160880152600061018088015260006101a088015260016101c088015285600052600b6020526040600020928751845560208801518051906001600160401b0382116103125781906105ea6001880154613051565b601f81116108ff575b50602090601f831160011461088d57600092610882575b50508160011b916000199060031b1c19161760018501555b6040880151938451986001600160401b038a1161031257602099899661064b6002850154613051565b601f8111610844575b508b90601f831160011461079b5793600e6101c061077695857f4742ce2d5f823dbde60d41925bff9b938299879eba7f67fa0029c8633d92b6549c9d96610762966107859b9a600092610790575b50508160011b916000199060031b1c19161760028501555b6003840160018060a01b036060830151166bffffffffffffffffffffffff60a01b8254161790556080810151600485015560a0810151600585015560c0810151600685015560e0810151600785015561010081015160088501556101208101516009850155610140810151600a850155610160810151600b850155610180810151600c8501556101a0810151600d8501550151151591019060ff801983541691151516179055565b61050f61076f84426131ec565b93426131ec565b9060405194859433998661346e565b0390a3604051908152f35b0151905038806106a2565b6002859493929a95016000528c6000209060005b601f198416811061082a57506101c061078597969460018561077698957f4742ce2d5f823dbde60d41925bff9b938299879eba7f67fa0029c8633d92b6549e9f600e9661076299601f19811610610811575b505050811b0160028501556106ba565b015160001960f88460031b161c19169055388080610801565b818c015183559a8e019a8d9a506001909201918e016107af565b61087290600286016000528d600020601f850160051c8101918f8610610878575b601f0160051c0190613457565b8c610654565b9091508190610865565b015190508a8061060a565b9250600187016000526020600020906000935b601f19841685106108e4576001945083601f198116106108cb575b505050811b016001850155610622565b015160001960f88460031b161c191690558a80806108bb565b818101518355602094850194600190930192909101906108a0565b61092e90600189016000526020600020601f850160051c8101916020861061087857601f0160051c0190613457565b8b6105f3565b604051633398105560e01b8152600490fd5b3461032857600036600319011261032857602060405160028152f35b346103285760a0366003190112610328576004356024359060443560643582600052602091600b8352604060002092600c8152604060002086600052815260406000209060ff600e8601541615610c2e576005850154421115610c1c5760068501544211610c1c5760ff60078301541615610c0a576005820160ff815416610bf85760028411610be6576040519173__$0daf1669a85ce10529e05b8a030b9567e1$__610a0e8461308b565b858452868285015260018501938454604082015289606082015260405190838280610a476321c2736360e21b94858352600483016131be565b0381865af4908115610ba7578492600092610bb3575b5092610a9b9360405192610a708461308b565b83526084358484015260006040840152600060608401526040518095819482938352600483016131be565b03915af4918215610ba757600092610b79575b5050835403610b67577f3c283986862ad16cc4d3240256474e99bfc9df697a62f7351373cbdefb3d14f895846006610b3895600d94600160ff19825416179055015560018514600014610b3d5760088101610b0a8782546131ec565b90555b01610b1881546131f9565b905554604051938493846040919493926060820195825260208201520152565b0390a3005b84610b585760098101610b518782546131ec565b9055610b0d565b600a8101610b518782546131ec565b604051639ea6d12760e01b8152600490fd5b90809250813d8311610ba0575b610b9081836130f8565b8101031261032857518980610aae565b503d610b86565b6040513d6000823e3d90fd5b8381949293503d8311610bdf575b610bcb81836130f8565b810103126103285790518391610a9b610a5d565b503d610bc1565b604051639c45400160e01b8152600490fd5b60405163a89ac15160e01b8152600490fd5b604051635b34156960e11b8152600490fd5b6040516374683d7160e01b8152600490fd5b60405163635e873760e01b8152600490fd5b3461032857602036600319011261032857600435600052600b602052604060002060ff600e8201541615610c2e576005810154428110610d4b576000905b825491600160a01b6001900360038501541691600785015490600686015460088701546009880154600a89015491600b8a015493600c8b015495600d8c01549760018d01610ccb90613119565b9c600201610cd890613119565b6040519d8e9d8e6101c091815281602082015201610cf591612f8e565b8d810360408f0152610d0691612f8e565b9a60608d015260808c015260a08b015260c08a015260e089015261010088015261012087015261014086015261016085015261018084015260ff166101a08301520390f35b60068201544211610d5e57600190610c7e565b600290610c7e565b346103285760203660031901126103285760043580600052600e6020526040600020600160ff19825416179055600f54600160401b811015610312576001810180600f55811015610e07578190600f6000527f8d1108e10bcb7c27dddfc02ed9d693a074039d026cf4ea4240b40f7d581ac80201557fc437041eca78e842ff32dc1036255a23da98c52b2f3bd3a875923aadb0276b3d6020604051428152a2005b634e487b7160e01b600052603260045260246000fd5b34610328576020366003190112610328576004356000526006602052602060ff604060002054166040519015158152f35b34610328576101a0366003190112610328576084356004356064356044356024353660e4116103285761016492368411610328576101a4903682116103285785600052602091600b835260406000209560ff600e8801541615610c2e57600587015442116113155787600052600d8452604060002089600052845260ff6040600020541661130357610ee086806133d6565b83036112f1578360405191610ef4836130a6565b8a835286828401528960408401528460608401526007890154608084015260018060a01b03936040519384926334baeab960e01b8452604060a4600486013760e46000604486015b600282106112cc57505050906040610f5e9260c4860137610104840190613220565b81857f0000000000000000000000000000000000000000000000000000000000000000165afa908115610ba7576000916112af575b501561129d57670de0b6b3a764000090818302908382048314841517156111de576040516370a0823160e01b8152336004820152917f0000000000000000000000000000000000000000000000000000000000000000821691908684602481865afa938415610ba75760009461126e575b5080841061125c57600080546040516323b872dd60e01b815233600482015293166001600160a01b031660248401526044830191909152909186918391908290816064810103925af1908115610ba75760009161122f575b50156111f457048181039081116111de577fbcf4fa36949e1955af2c6b6b628e50db0e23ec473b26480f3a584dd5a5d8953b956111a38960078a610b3897600b9660405190898252828201527f380f4b80ac5d183ff04f143a097611558815196006b7297cae774c0b5680a5ee60403392a281600052600d815260406000208460005281526040600020600160ff1982541617905561118760405194611101866130c1565b8b86528286018a81528d604088019081526060880190838252608089019242845260a08a01946000865260c08b01976000895260e08c019960018b52600052600c815260406000209160005252604060002099518a555160018a0155516002890155516003880155516004870155511515600586019060ff801983541691151516179055565b51600684015551151591019060ff801983541691151516179055565b600c81016111b181546131f9565b9055016111bf8282546131ec565b9055604051938493846040919493926060820195825260208201520152565b634e487b7160e01b600052601160045260246000fd5b60405162461bcd60e51b81526004810185905260136024820152721513d3881d1c985b9cd9995c8819985a5b1959606a1b6044820152606490fd5b61124f9150853d8711611255575b61124781836130f8565b810190613208565b8a61105c565b503d61123d565b6040516343fb945360e01b8152600490fd5b9093508681813d8311611296575b61128681836130f8565b810103126103285751928c611004565b503d61127c565b6040516309bde33960e01b8152600490fd5b6112c69150843d86116112555761124781836130f8565b89610f93565b6040919395975082949650808260019481933701930191019089959391879593610f3c565b6040516315252a2960e21b8152600490fd5b604051636569570160e11b8152600490fd5b60405163abfb7dc360e01b8152600490fd5b34610328576020366003190112610328576004356007548110156103285760209060076000527fa66cc928b5edb82af9bd49922954155ab7b0942694bea4ce44661d9a8736c6880154604051908152f35b3461032857600036600319011261032857602060405160008152f35b3461032857602036600319011261032857600435600052600b60205260406000208054600182016113c490613119565b6113d060028401613119565b92600160a01b600190036003820154169060048101546005820154600683015460078401546008850154600986015491600a87015493600b88015495600c89015497600d8a015499600e015460ff169a6040519e8f9e8f9e8f916101e0908352806020840152820161144191612f8e565b90808203906040015261145391612f8e565b9c6060015260808d015260a08c015260c08b015260e08a01526101008901526101208801526101408701526101608601526101808501526101a084015215156101c08301520390f35b3461032857602080600319360112610328576024816114b9612eed565b6040516370a0823160e01b81526001600160a01b03918216600482015292839182907f0000000000000000000000000000000000000000000000000000000000000000165afa908115610ba757600091611521575b50670de0b6b3a764000060405191048152f35b90508181813d8311611547575b61153881836130f8565b8101031261032857518261150e565b503d61152e565b346103285761155c36612ed7565b8160005260039160206003602052604060002060ff600d8201541615610c2e5760078491015581600052600a91600a60205260406000208054600082558061160d575b505060005b6008548110156115db57600190826000528484526115d560406000206115c983612f03565b9054908a1b1c90613290565b016115a4565b8480600052600660205260406000209081549160ff8316156115f957005b600161160b9360ff1916179055613248565b005b61162291600052602060002090810190613457565b858061159f565b34610328576020366003190112610328576004358060005260066020526040600020600160ff1982541617905561165f81613248565b7fcb23ed79d0d407699762f186152925a6b8dd62fc4b2223f50a16534af8c883f86020604051428152a2005b3461032857602036600319011261032857600435600f5481101561032857602090600f6000527f8d1108e10bcb7c27dddfc02ed9d693a074039d026cf4ea4240b40f7d581ac8020154604051908152f35b3461032857600036600319011261032857604051806010549182815260208091019260106000527f1b6847dc741a1b0cd08d278845f9d819d87b734759afb55fe2de5cb82a9ae672916000905b8282106117505761174c85611740818903826130f8565b60405191829182612f52565b0390f35b835486529485019460019384019390910190611729565b346103285760203660031901126103285761160b6004356134ea565b34610328576020366003190112610328576004356010548110156103285760209060106000527f1b6847dc741a1b0cd08d278845f9d819d87b734759afb55fe2de5cb82a9ae6720154604051908152f35b34610328576000366003190112610328576040517f00000000000000000000000000000000000000000000000000000000000000006001600160a01b03168152602090f35b3461032857600036600319011261032857602060405160018152f35b346103285760203660031901126103285760206118536004356134a9565b60ff60405191168152f35b346103285761186c36612ed7565b90600052600d602052604060002090600052602052602060ff604060002054166040519015158152f35b34610328576000366003190112610328576040517f00000000000000000000000000000000000000000000000000000000000000006001600160a01b03168152602090f35b346103285760203660031901126103285760206118fa600435806133d6565b604051908152f35b34610328576020366003190112610328576004356000526009602052602060ff604060002054166040519015158152f35b346103285760003660031901126103285760206040516127108152f35b34610328576000366003190112610328576000546040516001600160a01b039091168152602090f35b346103285761198736612ed7565b906000526005602052604060002090600052602052602060ff604060002054166040519015158152f35b346103285760203660031901126103285760043533600052601260205260406000206002810160ff81541615600014611a2e5782825560006001830155600160ff198254161790555b5460405191825260208201527fc8bc4842cf61a3f6cbf597029d937fdf158ef4959a9616594587a0fb8c6b871160403392a2005b50611a3a8282546131ec565b81556119fa565b3461032857611a4f36612ffb565b948260009793929752600660205260ff6040600020541615611e7e57611a766001546131f9565b9384600155611a8588426131ec565b611a938861050f8b426131ec565b9160405197886101c08101106001600160401b036101c08b01111761031257611ad8916101c08a01604052888a52611acc36878a613411565b60208b01523691613411565b604088015233606088015242608088015260a087015260c08601528160e08601526000610100860152600061012086015260006101408601526000610160860152600061018086015260016101a08601528360005260036020526040600020958551875560208601518051906001600160401b038211610312578190611b6160018b0154613051565b601f8111611e49575b50602090601f8311600114611dd757600092611dcc575b50508160011b916000199060031b1c19161760018801555b60408601518051906001600160401b038211610312578190611bbe60028b0154613051565b601f8111611d97575b50602090601f8311600114611d2557600092611d1a575b50508160011b916000199060031b1c19161760028801555b6003870160018060a01b036060880151166bffffffffffffffffffffffff60a01b8254161790556080860151600488015560a0860151600588015560c0860151600688015560e08601516007880155611ca160089761010088015160088201556101208801516009820155600d6101a0600a99610140810151600a850155610160810151600b850155610180810151600c8501550151151591019060ff801983541691151516179055565b60005b8754811015611cdc576001908660005287602052611cd66040600020611cc983612f03565b90549060031b1c90613290565b01611ca4565b5060209550917f16356ec948fe2183cece6a7b111beef5be873032e9698d3fbf0e0168d0fc91a89161078589610776889661050f61076f84426131ec565b015190508a80611bde565b925060028a016000526020600020906000935b601f1984168510611d7c576001945083601f19811610611d63575b505050811b016002880155611bf6565b015160001960f88460031b161c191690558a8080611d53565b81810151835560209485019460019093019290910190611d38565b611dc69060028c016000526020600020601f850160051c8101916020861061087857601f0160051c0190613457565b8b611bc7565b015190508a80611b81565b925060018a016000526020600020906000935b601f1984168510611e2e576001945083601f19811610611e15575b505050811b016001880155611b99565b015160001960f88460031b161c191690558a8080611e05565b81810151835560209485019460019093019290910190611dea565b611e789060018c016000526020600020601f850160051c8101916020861061087857601f0160051c0190613457565b8b611b6a565b604051639dd854d360e01b8152600490fd5b3461032857611e9e36612ed7565b90600052600460205260406000209060005260205260e060406000208054906001810154906002810154600382015460ff6004840154169160ff6006600586015495015416946040519687526020870152604086015260608501521515608084015260a0830152151560c0820152f35b3461032857608036600319011261032857611f27612eed565b6024356001600160a01b0381169190829003610328576064356001600160401b03811161032857611f5c903690600401612fce565b90927f00000000000000000000000000000000000000000000000000000000000000006001600160a01b0316330361267157300361263a576101c083828101031261032857611fb081840160c08501613391565b81840161011f850112156103285760405191611fcb836130dd565b82818601610180870111610328576101008601905b6101808701821061261e575050611ffd9085016101808601613391565b918435600052600b60205260406000209260ff600e8501541615610c2e5760058401544211611315578535600052600d6020526040600020608087013560005260205260ff604060002054166113035760a0860135600052600e60205260ff6040600020541615610934576120766040870135806133d6565b6060870135036112f1576060860135670de0b6b3a764000080820282900414901517156111de57670de0b6b3a7640000606087013502604435106125d957604051916120c1836130a6565b6080870135835260208701356020840152863560408401526060870135606084015260a08701356080840152612108604051946334baeab960e01b865260048601906133e9565b6000604485015b600282106125bb575050509061212c6121379260c48501906133e9565b610104830190613220565b6020816101a4817f00000000000000000000000000000000000000000000000000000000000000006001600160a01b03165afa908115610ba75760009161259c575b501561129d576040516323b872dd60e01b81526001600160a01b03831660048201523060248201526060840135670de0b6b3a76400000260448201526020818060648101038160007f00000000000000000000000000000000000000000000000000000000000000006001600160a01b03165af1908115610ba75760009161257d575b5015612538576000805460405163a9059cbb60e01b81526001600160a01b0391821660048201526060860135670de0b6b3a76400000260248201529160209183916044918391907f0000000000000000000000000000000000000000000000000000000000000000165af1908115610ba757600091612519575b50156124d4576040516370a0823160e01b81526001600160a01b03928316600482018190529092602090849060249082907f0000000000000000000000000000000000000000000000000000000000000000165afa928315610ba757600093612480575b507f380f4b80ac5d183ff04f143a097611558815196006b7297cae774c0b5680a5ee6040600b94670de0b6b3a764000082519160608901358352046020820152a28235600052600d602052604060002060808401356000526020526040600020600160ff198254161790556123f7604051612354816130c1565b602085013581526007602082016060870135815260408301604088013581526111876060850160808a013581526080860142815260a08701916000835260c08801946000865260e0890196600188528d35600052600c6020528d60806040600020910135600052602052604060002099518a555160018a0155516002890155516003880155516004870155511515600586019060ff801983541691151516179055565b600c810161240581546131f9565b905501612417606083013582546131ec565b9055604051907fbcf4fa36949e1955af2c6b6b628e50db0e23ec473b26480f3a584dd5a5d8953b6080820135928061247284359460608101359060206040820135910135846040919493926060820195825260208201520152565b0390a3602060405160018152f35b92506020833d6020116124cc575b8161249b602093836130f8565b81010312610328579151917f380f4b80ac5d183ff04f143a097611558815196006b7297cae774c0b5680a5ee6122da565b3d915061248e565b60405162461bcd60e51b815260206004820152601e60248201527f544f4e20666f727761726420746f207472656173757279206661696c656400006044820152606490fd5b612532915060203d6020116112555761124781836130f8565b84612276565b60405162461bcd60e51b815260206004820152601d60248201527f544f4e207472616e736665722066726f6d2075736572206661696c65640000006044820152606490fd5b612596915060203d6020116112555761124781836130f8565b846121fc565b6125b5915060203d6020116112555761124781836130f8565b84612179565b60206040826125cd60019487516133e9565b0193019101909161210f565b60405162461bcd60e51b815260206004820152601c60248201527f496e73756666696369656e7420617070726f76656420616d6f756e74000000006044820152606490fd5b602060409161262f858a0185613391565b815201910190611fe0565b60405162461bcd60e51b815260206004820152600f60248201526e24b73b30b634b21039b832b73232b960891b6044820152606490fd5b60405162461bcd60e51b815260206004820152601760248201527f4f6e6c7920544f4e20746f6b656e2063616e2063616c6c0000000000000000006044820152606490fd5b34610328576020366003190112610328576004356000526003602052604060002060ff600d8201541615610c2e5760058101544281106127b7576000905b825491600160a01b600190036003850154169160078501549060068601546008870154600988015490600a89015492600b8a015494600c8b01549660018c0161273c90613119565b9b60020161274990613119565b6040519c8d809d6101a09182918152602001528d0161276791612f8e565b8c810360408e015261277891612f8e565b9960608c015260808b015260a08a015260c089015260e088015261010087015261012086015261014085015261016084015260ff166101808301520390f35b600682015442116127ca576001906126f4565b6002906126f4565b34610328576127e036612ed7565b90600052600a602052604060002080548210156103285760209161280391612f3a565b90546040519160031b1c8152f35b3461032857600036600319011261032857604051806008549182815260208091019260086000527ff3f7a9fe364faab93b216da50a3214154f22a0a2b415b23a84c8169e8b636ee3916000905b8282106128755761174c85611740818903826130f8565b83548652948501946001938401939091019061285e565b346103285760203660031901126103285761160b6004356132cc565b346103285760203660031901126103285760043560085481101561032857612803602091612f03565b34610328576020366003190112610328576001600160a01b036128f2612eed565b1660005260126020526060604060002080549060ff600260018301549201541690604051928352602083015215156040820152f35b3461032857610180366003190112610328576064356004356024356044353660c411610328576101449136831161032857366101841161032857836000526020916003835260406000209360ff600d8601541615610c2e5760058501544211611315578560005260058452604060002087600052845260ff60406000205416611303578115612bb2576040516129bc816130a6565b878152838582015286604082015282606082015260078601546080820152604051916334baeab960e01b835260406084600485013760c46000604485015b60028210612b9c57505050906040612a1c9260c4850137610104830190613220565b83816101a4817f00000000000000000000000000000000000000000000000000000000000000006001600160a01b03165afa908115610ba757600091612b7f575b501561129d57846000526005835260406000208660005283526040600020600160ff198254161790556040519260e08401938085106001600160401b03861117610312577f049e5146cbefb4fff5586b703de455cb45794712230253d13f2d8c57da85a32395612b67600b9260068a86612b4b8e60409c8d528b86528286018b81528d87018281526060880191428352608089019360008552600460a08b01976000895260c08c019960018b52600052526040600020906000528d528f60002098518955516001890155516002880155516003870155511515600486019060ff801983541691151516179055565b51600584015551151591019060ff801983541691151516179055565b01612b7281546131f9565b90558351928352820152a3005b612b969150843d86116112555761124781836130f8565b87612a5d565b60408082818660019537019301910190916129fa565b6040516343c891cf60e11b8152600490fd5b3461032857612bd236612ed7565b90600052600c60205260406000209060005260205261010060406000208054906001810154906002810154600382015460048301549060ff6005850154169260ff6007600687015496015416956040519788526020880152604087015260608601526080850152151560a084015260c0830152151560e0820152f35b34610328576000366003190112610328576020600854604051908152f35b34610328576020366003190112610328576004356000526011602052602060ff604060002054166040519015158152f35b3461032857608036600319011261032857600435602435906044358160005260206003815260406000209160048252604060002085600052825260406000209160ff600d8501541615610c2e576005840154421115610c1c5760068401544211610c1c5760ff60068401541615610c0a576004830160ff815416610bf85760028311610be65760405190612d308261308b565b838252612d6a8360018701938454828201528960408201526064356060820152604051809381926321c2736360e21b8352600483016131be565b038173__$0daf1669a85ce10529e05b8a030b9567e1$__5af4908115610ba757600091612e39575b50855403610b67577f48b18ffd0d20ac6e0c916dc382bdea3de3108e2b71d66318ff2bdc7aa10a562895846005604097600c94600160ff19825416179055015560018514600014612e0b578254612dee600883019182546131ec565b90555b01612dfc81546131f9565b905554908351928352820152a3005b84612e28578254612e21600983019182546131ec565b9055612df1565b8254612e21600a83019182546131ec565b90508381813d8311612e5f575b612e5081836130f8565b81010312610328575189612d92565b503d612e46565b34610328576000366003190112610328576020600254604051908152f35b34610328576020366003190112610328576004359063ffffffff60e01b821680920361032857602091632139e50b60e11b8114908115612ec6575b5015158152f35b6301ffc9a760e01b14905083612ebf565b6040906003190112610328576004359060243590565b600435906001600160a01b038216820361032857565b600854811015610e075760086000527ff3f7a9fe364faab93b216da50a3214154f22a0a2b415b23a84c8169e8b636ee30190600090565b8054821015610e075760005260206000200190600090565b602090602060408183019282815285518094520193019160005b828110612f7a575050505090565b835185529381019392810192600101612f6c565b919082519283825260005b848110612fba575050826000602080949584010152601f8019910116010190565b602081830181015184830182015201612f99565b9181601f84011215610328578235916001600160401b038311610328576020838186019501011161032857565b60a0600319820112610328576001600160401b0391600435838111610328578261302791600401612fce565b939093926024359182116103285761304191600401612fce565b9091604435906064359060843590565b90600182811c92168015613081575b602083101461306b57565b634e487b7160e01b600052602260045260246000fd5b91607f1691613060565b608081019081106001600160401b0382111761031257604052565b60a081019081106001600160401b0382111761031257604052565b61010081019081106001600160401b0382111761031257604052565b604081019081106001600160401b0382111761031257604052565b90601f801991011681019081106001600160401b0382111761031257604052565b9060405191826000825461312c81613051565b9081845260209460019160018116908160001461319c575060011461315d575b50505061315b925003836130f8565b565b600090815285812095935091905b81831061318457505061315b935082010138808061314c565b8554888401850152948501948794509183019161316b565b9250505061315b94925060ff191682840152151560051b82010138808061314c565b6080810192916000915b600483106131d557505050565b6001908251815260208091019201920191906131c8565b919082018092116111de57565b60001981146111de5760010190565b90816020910312610328575180151581036103285790565b6000915b6005831061323157505050565b600190825181526020809101920192019190613224565b600754600160401b811015610312576001810180600755811015610e075760076000527fa66cc928b5edb82af9bd49922954155ab7b0942694bea4ce44661d9a8736c6880155565b90815491600160401b83101561031257826132b391600161315b95018155612f3a565b90919082549060031b91821b91600019901b1916179055565b90600091808352601160205260408320805460ff811661338a5760ff19166001179055601054600160401b811015613376576001810180601055811015613362576010829394527f1b6847dc741a1b0cd08d278845f9d819d87b734759afb55fe2de5cb82a9ae67201557f1926a241ba9d59467ac0063e2cb861452b93ab650fff5378a82e86befecc27ab6020604051428152a2565b634e487b7160e01b84526032600452602484fd5b634e487b7160e01b84526041600452602484fd5b5050509050565b9080601f8301121561032857604051916133aa836130dd565b82906040810192831161032857905b8282106133c65750505090565b81358152602091820191016133b9565b818102929181159184041417156111de57565b6000915b600283106133fa57505050565b6001908251815260208091019201920191906133ed565b9291926001600160401b038211610312576040519161343a601f8201601f1916602001846130f8565b829481845281830111610328578281602093846000960137010152565b818110613462575050565b60008155600101613457565b918060a0916060959897969360808652816080870152838601376000828286010152601f801991011683010195602083015260408201520152565b600052600b602052604060002060ff600e8201541615610c2e5760058101544211156134e457600601544211156134df57600290565b600190565b50600090565b8060005260096020526040600020805460ff811661355a5760ff19166001179055600854600160401b81101561031257816132b382600161352e9401600855612f03565b7f85238313f6b4aa1ea470340fc24bc06d68e734cd21411160c06714eb547571af6020604051428152a2565b50505056fea2646970667358221220af354e2f12987e8a19b0c17cccbe3cdfb0850ab60acc57502a5d5bae4cf21cf564736f6c63430008180033",
  "linkReferences": {
    "contracts/PoseidonT5.sol": {
      "PoseidonT5": [
        {
          "length": 20,
          "start": 2869
        },
        {
          "length": 20,
          "start": 11953
        }
      ]
    }
  },
  "deployedLinkReferences": {
    "contracts/PoseidonT5.sol": {
      "PoseidonT5": [
        {
          "length": 20,
          "start": 2546
        },
        {
          "length": 20,
          "start": 11630
        }
      ]
    }
  }
}