{
  "_format": "hh-sol-artifact-1",
  "contractName": "ZkVotingFinal",
  "sourceName": "contracts/ZkVotingFinal.sol",
  "abi": [
    {
      "inputs": [
        {
          "internalType": "address",
          "name": "_verifierD1",
          "type": "address"
        },
        {
          "internalType": "address",
          "name": "_verifierD2",
          "type": "address"
        },
        {
          "internalType": "address",
          "name": "_tonToken",
          "type": "address"
        },
        {
          "internalType": "address",
          "name": "_treasury",
          "type": "address"
        }
      ],
      "stateMutability": "nonpayable",
      "type": "constructor"
    },
    {
      "inputs": [],
      "name": "AlreadyRevealed",
      "type": "error"
    },
    {
      "inputs": [],
      "name": "CommitmentNotFound",
      "type": "error"
    },
    {
      "inputs": [],
      "name": "InsufficientCredits",
      "type": "error"
    },
    {
      "inputs": [],
      "name": "InvalidChoice",
      "type": "error"
    },
    {
      "inputs": [],
      "name": "InvalidCreditRoot",
      "type": "error"
    },
    {
      "inputs": [],
      "name": "InvalidMerkleRoot",
      "type": "error"
    },
    {
      "inputs": [],
      "name": "InvalidProof",
      "type": "error"
    },
    {
      "inputs": [],
      "name": "InvalidQuadraticCost",
      "type": "error"
    },
    {
      "inputs": [],
      "name": "InvalidReveal",
      "type": "error"
    },
    {
      "inputs": [],
      "name": "NotInCommitPhase",
      "type": "error"
    },
    {
      "inputs": [],
      "name": "NotInRevealPhase",
      "type": "error"
    },
    {
      "inputs": [],
      "name": "NullifierAlreadyUsed",
      "type": "error"
    },
    {
      "inputs": [],
      "name": "ProposalNotFound",
      "type": "error"
    },
    {
      "inputs": [],
      "name": "ZeroVotingPower",
      "type": "error"
    },
    {
      "anonymous": false,
      "inputs": [
        {
          "indexed": true,
          "internalType": "uint256",
          "name": "creditNoteHash",
          "type": "uint256"
        },
        {
          "indexed": false,
          "internalType": "uint256",
          "name": "timestamp",
          "type": "uint256"
        }
      ],
      "name": "CreditNoteRegistered",
      "type": "event"
    },
    {
      "anonymous": false,
      "inputs": [
        {
          "indexed": true,
          "internalType": "uint256",
          "name": "creditRoot",
          "type": "uint256"
        },
        {
          "indexed": false,
          "internalType": "uint256",
          "name": "timestamp",
          "type": "uint256"
        }
      ],
      "name": "CreditRootRegistered",
      "type": "event"
    },
    {
      "anonymous": false,
      "inputs": [
        {
          "indexed": true,
          "internalType": "address",
          "name": "user",
          "type": "address"
        },
        {
          "indexed": false,
          "internalType": "uint256",
          "name": "amount",
          "type": "uint256"
        },
        {
          "indexed": false,
          "internalType": "uint256",
          "name": "remaining",
          "type": "uint256"
        }
      ],
      "name": "CreditsBurned",
      "type": "event"
    },
    {
      "anonymous": false,
      "inputs": [
        {
          "indexed": true,
          "internalType": "address",
          "name": "user",
          "type": "address"
        },
        {
          "indexed": false,
          "internalType": "uint256",
          "name": "credits",
          "type": "uint256"
        }
      ],
      "name": "CreditsInitialized",
      "type": "event"
    },
    {
      "anonymous": false,
      "inputs": [
        {
          "indexed": true,
          "internalType": "address",
          "name": "user",
          "type": "address"
        },
        {
          "indexed": false,
          "internalType": "uint256",
          "name": "amount",
          "type": "uint256"
        },
        {
          "indexed": false,
          "internalType": "uint256",
          "name": "total",
          "type": "uint256"
        }
      ],
      "name": "CreditsMinted",
      "type": "event"
    },
    {
      "anonymous": false,
      "inputs": [
        {
          "indexed": true,
          "internalType": "uint256",
          "name": "merkleRoot",
          "type": "uint256"
        },
        {
          "indexed": false,
          "internalType": "uint256",
          "name": "timestamp",
          "type": "uint256"
        }
      ],
      "name": "MerkleRootRegistered",
      "type": "event"
    },
    {
      "anonymous": false,
      "inputs": [
        {
          "indexed": true,
          "internalType": "uint256",
          "name": "proposalId",
          "type": "uint256"
        },
        {
          "indexed": false,
          "internalType": "string",
          "name": "title",
          "type": "string"
        },
        {
          "indexed": true,
          "internalType": "address",
          "name": "proposer",
          "type": "address"
        },
        {
          "indexed": false,
          "internalType": "uint256",
          "name": "merkleRoot",
          "type": "uint256"
        },
        {
          "indexed": false,
          "internalType": "uint256",
          "name": "endTime",
          "type": "uint256"
        },
        {
          "indexed": false,
          "internalType": "uint256",
          "name": "revealEndTime",
          "type": "uint256"
        }
      ],
      "name": "ProposalCreatedD1",
      "type": "event"
    },
    {
      "anonymous": false,
      "inputs": [
        {
          "indexed": true,
          "internalType": "uint256",
          "name": "proposalId",
          "type": "uint256"
        },
        {
          "indexed": false,
          "internalType": "string",
          "name": "title",
          "type": "string"
        },
        {
          "indexed": true,
          "internalType": "address",
          "name": "proposer",
          "type": "address"
        },
        {
          "indexed": false,
          "internalType": "uint256",
          "name": "creditRoot",
          "type": "uint256"
        },
        {
          "indexed": false,
          "internalType": "uint256",
          "name": "endTime",
          "type": "uint256"
        },
        {
          "indexed": false,
          "internalType": "uint256",
          "name": "revealEndTime",
          "type": "uint256"
        }
      ],
      "name": "ProposalCreatedD2",
      "type": "event"
    },
    {
      "anonymous": false,
      "inputs": [
        {
          "indexed": true,
          "internalType": "uint256",
          "name": "proposalId",
          "type": "uint256"
        },
        {
          "indexed": true,
          "internalType": "uint256",
          "name": "nullifier",
          "type": "uint256"
        },
        {
          "indexed": false,
          "internalType": "uint256",
          "name": "commitment",
          "type": "uint256"
        },
        {
          "indexed": false,
          "internalType": "uint256",
          "name": "votingPower",
          "type": "uint256"
        }
      ],
      "name": "VoteCommittedD1",
      "type": "event"
    },
    {
      "anonymous": false,
      "inputs": [
        {
          "indexed": true,
          "internalType": "uint256",
          "name": "proposalId",
          "type": "uint256"
        },
        {
          "indexed": true,
          "internalType": "uint256",
          "name": "nullifier",
          "type": "uint256"
        },
        {
          "indexed": false,
          "internalType": "uint256",
          "name": "commitment",
          "type": "uint256"
        },
        {
          "indexed": false,
          "internalType": "uint256",
          "name": "numVotes",
          "type": "uint256"
        },
        {
          "indexed": false,
          "internalType": "uint256",
          "name": "creditsSpent",
          "type": "uint256"
        }
      ],
      "name": "VoteCommittedD2",
      "type": "event"
    },
    {
      "anonymous": false,
      "inputs": [
        {
          "indexed": true,
          "internalType": "uint256",
          "name": "proposalId",
          "type": "uint256"
        },
        {
          "indexed": true,
          "internalType": "uint256",
          "name": "nullifier",
          "type": "uint256"
        },
        {
          "indexed": false,
          "internalType": "uint256",
          "name": "choice",
          "type": "uint256"
        },
        {
          "indexed": false,
          "internalType": "uint256",
          "name": "votingPower",
          "type": "uint256"
        }
      ],
      "name": "VoteRevealedD1",
      "type": "event"
    },
    {
      "anonymous": false,
      "inputs": [
        {
          "indexed": true,
          "internalType": "uint256",
          "name": "proposalId",
          "type": "uint256"
        },
        {
          "indexed": true,
          "internalType": "uint256",
          "name": "nullifier",
          "type": "uint256"
        },
        {
          "indexed": false,
          "internalType": "uint256",
          "name": "choice",
          "type": "uint256"
        },
        {
          "indexed": false,
          "internalType": "uint256",
          "name": "numVotes",
          "type": "uint256"
        },
        {
          "indexed": false,
          "internalType": "uint256",
          "name": "creditsSpent",
          "type": "uint256"
        }
      ],
      "name": "VoteRevealedD2",
      "type": "event"
    },
    {
      "anonymous": false,
      "inputs": [
        {
          "indexed": true,
          "internalType": "uint256",
          "name": "noteHash",
          "type": "uint256"
        },
        {
          "indexed": false,
          "internalType": "uint256",
          "name": "timestamp",
          "type": "uint256"
        }
      ],
      "name": "VoterRegistered",
      "type": "event"
    },
    {
      "inputs": [],
      "name": "CHOICE_ABSTAIN",
      "outputs": [
        {
          "internalType": "uint256",
          "name": "",
          "type": "uint256"
        }
      ],
      "stateMutability": "view",
      "type": "function"
    },
    {
      "inputs": [],
      "name": "CHOICE_AGAINST",
      "outputs": [
        {
          "internalType": "uint256",
          "name": "",
          "type": "uint256"
        }
      ],
      "stateMutability": "view",
      "type": "function"
    },
    {
      "inputs": [],
      "name": "CHOICE_FOR",
      "outputs": [
        {
          "internalType": "uint256",
          "name": "",
          "type": "uint256"
        }
      ],
      "stateMutability": "view",
      "type": "function"
    },
    {
      "inputs": [],
      "name": "INITIAL_CREDITS",
      "outputs": [
        {
          "internalType": "uint256",
          "name": "",
          "type": "uint256"
        }
      ],
      "stateMutability": "view",
      "type": "function"
    },
    {
      "inputs": [
        {
          "internalType": "uint256",
          "name": "numVotes",
          "type": "uint256"
        }
      ],
      "name": "calculateQuadraticCost",
      "outputs": [
        {
          "internalType": "uint256",
          "name": "",
          "type": "uint256"
        }
      ],
      "stateMutability": "pure",
      "type": "function"
    },
    {
      "inputs": [
        {
          "internalType": "uint256",
          "name": "_proposalId",
          "type": "uint256"
        },
        {
          "internalType": "uint256",
          "name": "_commitment",
          "type": "uint256"
        },
        {
          "internalType": "uint256",
          "name": "_votingPower",
          "type": "uint256"
        },
        {
          "internalType": "uint256",
          "name": "_nullifier",
          "type": "uint256"
        },
        {
          "internalType": "uint256[2]",
          "name": "_pA",
          "type": "uint256[2]"
        },
        {
          "internalType": "uint256[2][2]",
          "name": "_pB",
          "type": "uint256[2][2]"
        },
        {
          "internalType": "uint256[2]",
          "name": "_pC",
          "type": "uint256[2]"
        }
      ],
      "name": "castVoteD1",
      "outputs": [],
      "stateMutability": "nonpayable",
      "type": "function"
    },
    {
      "inputs": [
        {
          "internalType": "uint256",
          "name": "_proposalId",
          "type": "uint256"
        },
        {
          "internalType": "uint256",
          "name": "_commitment",
          "type": "uint256"
        },
        {
          "internalType": "uint256",
          "name": "_numVotes",
          "type": "uint256"
        },
        {
          "internalType": "uint256",
          "name": "_creditsSpent",
          "type": "uint256"
        },
        {
          "internalType": "uint256",
          "name": "_nullifier",
          "type": "uint256"
        },
        {
          "internalType": "uint256[2]",
          "name": "_pA",
          "type": "uint256[2]"
        },
        {
          "internalType": "uint256[2][2]",
          "name": "_pB",
          "type": "uint256[2][2]"
        },
        {
          "internalType": "uint256[2]",
          "name": "_pC",
          "type": "uint256[2]"
        }
      ],
      "name": "castVoteD2",
      "outputs": [],
      "stateMutability": "nonpayable",
      "type": "function"
    },
    {
      "inputs": [
        {
          "internalType": "uint256",
          "name": "",
          "type": "uint256"
        },
        {
          "internalType": "uint256",
          "name": "",
          "type": "uint256"
        }
      ],
      "name": "commitmentsD1",
      "outputs": [
        {
          "internalType": "uint256",
          "name": "commitment",
          "type": "uint256"
        },
        {
          "internalType": "uint256",
          "name": "votingPower",
          "type": "uint256"
        },
        {
          "internalType": "uint256",
          "name": "nullifier",
          "type": "uint256"
        },
        {
          "internalType": "uint256",
          "name": "timestamp",
          "type": "uint256"
        },
        {
          "internalType": "bool",
          "name": "revealed",
          "type": "bool"
        },
        {
          "internalType": "uint256",
          "name": "revealedChoice",
          "type": "uint256"
        },
        {
          "internalType": "bool",
          "name": "exists",
          "type": "bool"
        }
      ],
      "stateMutability": "view",
      "type": "function"
    },
    {
      "inputs": [
        {
          "internalType": "uint256",
          "name": "",
          "type": "uint256"
        },
        {
          "internalType": "uint256",
          "name": "",
          "type": "uint256"
        }
      ],
      "name": "commitmentsD2",
      "outputs": [
        {
          "internalType": "uint256",
          "name": "commitment",
          "type": "uint256"
        },
        {
          "internalType": "uint256",
          "name": "creditsSpent",
          "type": "uint256"
        },
        {
          "internalType": "uint256",
          "name": "numVotes",
          "type": "uint256"
        },
        {
          "internalType": "uint256",
          "name": "nullifier",
          "type": "uint256"
        },
        {
          "internalType": "uint256",
          "name": "timestamp",
          "type": "uint256"
        },
        {
          "internalType": "bool",
          "name": "revealed",
          "type": "bool"
        },
        {
          "internalType": "uint256",
          "name": "revealedChoice",
          "type": "uint256"
        },
        {
          "internalType": "bool",
          "name": "exists",
          "type": "bool"
        }
      ],
      "stateMutability": "view",
      "type": "function"
    },
    {
      "inputs": [
        {
          "internalType": "string",
          "name": "_title",
          "type": "string"
        },
        {
          "internalType": "string",
          "name": "_description",
          "type": "string"
        },
        {
          "internalType": "uint256",
          "name": "_merkleRoot",
          "type": "uint256"
        },
        {
          "internalType": "uint256",
          "name": "_votingDuration",
          "type": "uint256"
        },
        {
          "internalType": "uint256",
          "name": "_revealDuration",
          "type": "uint256"
        }
      ],
      "name": "createProposalD1",
      "outputs": [
        {
          "internalType": "uint256",
          "name": "",
          "type": "uint256"
        }
      ],
      "stateMutability": "nonpayable",
      "type": "function"
    },
    {
      "inputs": [
        {
          "internalType": "string",
          "name": "_title",
          "type": "string"
        },
        {
          "internalType": "string",
          "name": "_description",
          "type": "string"
        },
        {
          "internalType": "uint256",
          "name": "_creditRoot",
          "type": "uint256"
        },
        {
          "internalType": "uint256",
          "name": "_votingDuration",
          "type": "uint256"
        },
        {
          "internalType": "uint256",
          "name": "_revealDuration",
          "type": "uint256"
        }
      ],
      "name": "createProposalD2",
      "outputs": [
        {
          "internalType": "uint256",
          "name": "",
          "type": "uint256"
        }
      ],
      "stateMutability": "nonpayable",
      "type": "function"
    },
    {
      "inputs": [
        {
          "internalType": "uint256",
          "name": "",
          "type": "uint256"
        }
      ],
      "name": "creditRootHistory",
      "outputs": [
        {
          "internalType": "uint256",
          "name": "",
          "type": "uint256"
        }
      ],
      "stateMutability": "view",
      "type": "function"
    },
    {
      "inputs": [
        {
          "internalType": "address",
          "name": "user",
          "type": "address"
        }
      ],
      "name": "getAvailableCredits",
      "outputs": [
        {
          "internalType": "uint256",
          "name": "",
          "type": "uint256"
        }
      ],
      "stateMutability": "view",
      "type": "function"
    },
    {
      "inputs": [
        {
          "internalType": "uint256",
          "name": "_proposalId",
          "type": "uint256"
        }
      ],
      "name": "getPhaseD2",
      "outputs": [
        {
          "internalType": "uint8",
          "name": "",
          "type": "uint8"
        }
      ],
      "stateMutability": "view",
      "type": "function"
    },
    {
      "inputs": [
        {
          "internalType": "uint256",
          "name": "_proposalId",
          "type": "uint256"
        }
      ],
      "name": "getProposalD1",
      "outputs": [
        {
          "internalType": "uint256",
          "name": "id",
          "type": "uint256"
        },
        {
          "internalType": "string",
          "name": "title",
          "type": "string"
        },
        {
          "internalType": "string",
          "name": "description",
          "type": "string"
        },
        {
          "internalType": "address",
          "name": "proposer",
          "type": "address"
        },
        {
          "internalType": "uint256",
          "name": "merkleRoot",
          "type": "uint256"
        },
        {
          "internalType": "uint256",
          "name": "endTime",
          "type": "uint256"
        },
        {
          "internalType": "uint256",
          "name": "revealEndTime",
          "type": "uint256"
        },
        {
          "internalType": "uint256",
          "name": "forVotes",
          "type": "uint256"
        },
        {
          "internalType": "uint256",
          "name": "againstVotes",
          "type": "uint256"
        },
        {
          "internalType": "uint256",
          "name": "abstainVotes",
          "type": "uint256"
        },
        {
          "internalType": "uint256",
          "name": "totalCommitments",
          "type": "uint256"
        },
        {
          "internalType": "uint256",
          "name": "revealedVotes",
          "type": "uint256"
        },
        {
          "internalType": "uint8",
          "name": "phase",
          "type": "uint8"
        }
      ],
      "stateMutability": "view",
      "type": "function"
    },
    {
      "inputs": [
        {
          "internalType": "uint256",
          "name": "_proposalId",
          "type": "uint256"
        }
      ],
      "name": "getProposalD2",
      "outputs": [
        {
          "internalType": "uint256",
          "name": "id",
          "type": "uint256"
        },
        {
          "internalType": "string",
          "name": "title",
          "type": "string"
        },
        {
          "internalType": "string",
          "name": "description",
          "type": "string"
        },
        {
          "internalType": "address",
          "name": "proposer",
          "type": "address"
        },
        {
          "internalType": "uint256",
          "name": "creditRoot",
          "type": "uint256"
        },
        {
          "internalType": "uint256",
          "name": "endTime",
          "type": "uint256"
        },
        {
          "internalType": "uint256",
          "name": "revealEndTime",
          "type": "uint256"
        },
        {
          "internalType": "uint256",
          "name": "forVotes",
          "type": "uint256"
        },
        {
          "internalType": "uint256",
          "name": "againstVotes",
          "type": "uint256"
        },
        {
          "internalType": "uint256",
          "name": "abstainVotes",
          "type": "uint256"
        },
        {
          "internalType": "uint256",
          "name": "totalCreditsSpent",
          "type": "uint256"
        },
        {
          "internalType": "uint256",
          "name": "totalCommitments",
          "type": "uint256"
        },
        {
          "internalType": "uint256",
          "name": "revealedVotes",
          "type": "uint256"
        },
        {
          "internalType": "uint8",
          "name": "phase",
          "type": "uint8"
        }
      ],
      "stateMutability": "view",
      "type": "function"
    },
    {
      "inputs": [],
      "name": "getRegisteredCreditNotes",
      "outputs": [
        {
          "internalType": "uint256[]",
          "name": "",
          "type": "uint256[]"
        }
      ],
      "stateMutability": "view",
      "type": "function"
    },
    {
      "inputs": [],
      "name": "getRegisteredVoters",
      "outputs": [
        {
          "internalType": "uint256[]",
          "name": "",
          "type": "uint256[]"
        }
      ],
      "stateMutability": "view",
      "type": "function"
    },
    {
      "inputs": [],
      "name": "getVoterCount",
      "outputs": [
        {
          "internalType": "uint256",
          "name": "",
          "type": "uint256"
        }
      ],
      "stateMutability": "view",
      "type": "function"
    },
    {
      "inputs": [],
      "name": "initializeCredits",
      "outputs": [],
      "stateMutability": "nonpayable",
      "type": "function"
    },
    {
      "inputs": [
        {
          "internalType": "uint256",
          "name": "",
          "type": "uint256"
        }
      ],
      "name": "isCreditNoteRegistered",
      "outputs": [
        {
          "internalType": "bool",
          "name": "",
          "type": "bool"
        }
      ],
      "stateMutability": "view",
      "type": "function"
    },
    {
      "inputs": [
        {
          "internalType": "uint256",
          "name": "_creditRoot",
          "type": "uint256"
        }
      ],
      "name": "isCreditRootValid",
      "outputs": [
        {
          "internalType": "bool",
          "name": "",
          "type": "bool"
        }
      ],
      "stateMutability": "view",
      "type": "function"
    },
    {
      "inputs": [
        {
          "internalType": "uint256",
          "name": "_merkleRoot",
          "type": "uint256"
        }
      ],
      "name": "isMerkleRootValid",
      "outputs": [
        {
          "internalType": "bool",
          "name": "",
          "type": "bool"
        }
      ],
      "stateMutability": "view",
      "type": "function"
    },
    {
      "inputs": [
        {
          "internalType": "uint256",
          "name": "",
          "type": "uint256"
        }
      ],
      "name": "isVoterRegistered",
      "outputs": [
        {
          "internalType": "bool",
          "name": "",
          "type": "bool"
        }
      ],
      "stateMutability": "view",
      "type": "function"
    },
    {
      "inputs": [
        {
          "internalType": "uint256",
          "name": "",
          "type": "uint256"
        }
      ],
      "name": "merkleRootHistory",
      "outputs": [
        {
          "internalType": "uint256",
          "name": "",
          "type": "uint256"
        }
      ],
      "stateMutability": "view",
      "type": "function"
    },
    {
      "inputs": [
        {
          "internalType": "uint256",
          "name": "amount",
          "type": "uint256"
        }
      ],
      "name": "mintTestTokens",
      "outputs": [],
      "stateMutability": "nonpayable",
      "type": "function"
    },
    {
      "inputs": [
        {
          "internalType": "uint256",
          "name": "",
          "type": "uint256"
        },
        {
          "internalType": "uint256",
          "name": "",
          "type": "uint256"
        }
      ],
      "name": "nullifierUsedD1",
      "outputs": [
        {
          "internalType": "bool",
          "name": "",
          "type": "bool"
        }
      ],
      "stateMutability": "view",
      "type": "function"
    },
    {
      "inputs": [
        {
          "internalType": "uint256",
          "name": "",
          "type": "uint256"
        },
        {
          "internalType": "uint256",
          "name": "",
          "type": "uint256"
        }
      ],
      "name": "nullifierUsedD2",
      "outputs": [
        {
          "internalType": "bool",
          "name": "",
          "type": "bool"
        }
      ],
      "stateMutability": "view",
      "type": "function"
    },
    {
      "inputs": [],
      "name": "proposalCountD1",
      "outputs": [
        {
          "internalType": "uint256",
          "name": "",
          "type": "uint256"
        }
      ],
      "stateMutability": "view",
      "type": "function"
    },
    {
      "inputs": [],
      "name": "proposalCountD2",
      "outputs": [
        {
          "internalType": "uint256",
          "name": "",
          "type": "uint256"
        }
      ],
      "stateMutability": "view",
      "type": "function"
    },
    {
      "inputs": [
        {
          "internalType": "uint256",
          "name": "",
          "type": "uint256"
        },
        {
          "internalType": "uint256",
          "name": "",
          "type": "uint256"
        }
      ],
      "name": "proposalVoterSnapshots",
      "outputs": [
        {
          "internalType": "uint256",
          "name": "",
          "type": "uint256"
        }
      ],
      "stateMutability": "view",
      "type": "function"
    },
    {
      "inputs": [
        {
          "internalType": "uint256",
          "name": "",
          "type": "uint256"
        }
      ],
      "name": "proposalsD1",
      "outputs": [
        {
          "internalType": "uint256",
          "name": "id",
          "type": "uint256"
        },
        {
          "internalType": "string",
          "name": "title",
          "type": "string"
        },
        {
          "internalType": "string",
          "name": "description",
          "type": "string"
        },
        {
          "internalType": "address",
          "name": "proposer",
          "type": "address"
        },
        {
          "internalType": "uint256",
          "name": "startTime",
          "type": "uint256"
        },
        {
          "internalType": "uint256",
          "name": "endTime",
          "type": "uint256"
        },
        {
          "internalType": "uint256",
          "name": "revealEndTime",
          "type": "uint256"
        },
        {
          "internalType": "uint256",
          "name": "merkleRoot",
          "type": "uint256"
        },
        {
          "internalType": "uint256",
          "name": "forVotes",
          "type": "uint256"
        },
        {
          "internalType": "uint256",
          "name": "againstVotes",
          "type": "uint256"
        },
        {
          "internalType": "uint256",
          "name": "abstainVotes",
          "type": "uint256"
        },
        {
          "internalType": "uint256",
          "name": "totalCommitments",
          "type": "uint256"
        },
        {
          "internalType": "uint256",
          "name": "revealedVotes",
          "type": "uint256"
        },
        {
          "internalType": "bool",
          "name": "exists",
          "type": "bool"
        }
      ],
      "stateMutability": "view",
      "type": "function"
    },
    {
      "inputs": [
        {
          "internalType": "uint256",
          "name": "",
          "type": "uint256"
        }
      ],
      "name": "proposalsD2",
      "outputs": [
        {
          "internalType": "uint256",
          "name": "id",
          "type": "uint256"
        },
        {
          "internalType": "string",
          "name": "title",
          "type": "string"
        },
        {
          "internalType": "string",
          "name": "description",
          "type": "string"
        },
        {
          "internalType": "address",
          "name": "proposer",
          "type": "address"
        },
        {
          "internalType": "uint256",
          "name": "startTime",
          "type": "uint256"
        },
        {
          "internalType": "uint256",
          "name": "endTime",
          "type": "uint256"
        },
        {
          "internalType": "uint256",
          "name": "revealEndTime",
          "type": "uint256"
        },
        {
          "internalType": "uint256",
          "name": "creditRoot",
          "type": "uint256"
        },
        {
          "internalType": "uint256",
          "name": "forVotes",
          "type": "uint256"
        },
        {
          "internalType": "uint256",
          "name": "againstVotes",
          "type": "uint256"
        },
        {
          "internalType": "uint256",
          "name": "abstainVotes",
          "type": "uint256"
        },
        {
          "internalType": "uint256",
          "name": "totalCreditsSpent",
          "type": "uint256"
        },
        {
          "internalType": "uint256",
          "name": "totalCommitments",
          "type": "uint256"
        },
        {
          "internalType": "uint256",
          "name": "revealedVotes",
          "type": "uint256"
        },
        {
          "internalType": "bool",
          "name": "exists",
          "type": "bool"
        }
      ],
      "stateMutability": "view",
      "type": "function"
    },
    {
      "inputs": [
        {
          "internalType": "uint256",
          "name": "_creditNoteHash",
          "type": "uint256"
        }
      ],
      "name": "registerCreditNote",
      "outputs": [],
      "stateMutability": "nonpayable",
      "type": "function"
    },
    {
      "inputs": [
        {
          "internalType": "uint256",
          "name": "_creditRoot",
          "type": "uint256"
        }
      ],
      "name": "registerCreditRoot",
      "outputs": [],
      "stateMutability": "nonpayable",
      "type": "function"
    },
    {
      "inputs": [
        {
          "internalType": "uint256",
          "name": "_merkleRoot",
          "type": "uint256"
        }
      ],
      "name": "registerMerkleRoot",
      "outputs": [],
      "stateMutability": "nonpayable",
      "type": "function"
    },
    {
      "inputs": [
        {
          "internalType": "uint256",
          "name": "_noteHash",
          "type": "uint256"
        }
      ],
      "name": "registerVoter",
      "outputs": [],
      "stateMutability": "nonpayable",
      "type": "function"
    },
    {
      "inputs": [
        {
          "internalType": "uint256",
          "name": "",
          "type": "uint256"
        }
      ],
      "name": "registeredCreditNotes",
      "outputs": [
        {
          "internalType": "uint256",
          "name": "",
          "type": "uint256"
        }
      ],
      "stateMutability": "view",
      "type": "function"
    },
    {
      "inputs": [
        {
          "internalType": "uint256",
          "name": "",
          "type": "uint256"
        }
      ],
      "name": "registeredVoters",
      "outputs": [
        {
          "internalType": "uint256",
          "name": "",
          "type": "uint256"
        }
      ],
      "stateMutability": "view",
      "type": "function"
    },
    {
      "inputs": [
        {
          "internalType": "uint256",
          "name": "_proposalId",
          "type": "uint256"
        },
        {
          "internalType": "uint256",
          "name": "_nullifier",
          "type": "uint256"
        },
        {
          "internalType": "uint256",
          "name": "_choice",
          "type": "uint256"
        },
        {
          "internalType": "uint256",
          "name": "_voteSalt",
          "type": "uint256"
        }
      ],
      "name": "revealVoteD1",
      "outputs": [],
      "stateMutability": "nonpayable",
      "type": "function"
    },
    {
      "inputs": [
        {
          "internalType": "uint256",
          "name": "_proposalId",
          "type": "uint256"
        },
        {
          "internalType": "uint256",
          "name": "_nullifier",
          "type": "uint256"
        },
        {
          "internalType": "uint256",
          "name": "_choice",
          "type": "uint256"
        },
        {
          "internalType": "uint256",
          "name": "_numVotes",
          "type": "uint256"
        },
        {
          "internalType": "uint256",
          "name": "_voteSalt",
          "type": "uint256"
        }
      ],
      "name": "revealVoteD2",
      "outputs": [],
      "stateMutability": "nonpayable",
      "type": "function"
    },
    {
      "inputs": [],
      "name": "tonToken",
      "outputs": [
        {
          "internalType": "contract IERC20",
          "name": "",
          "type": "address"
        }
      ],
      "stateMutability": "view",
      "type": "function"
    },
    {
      "inputs": [],
      "name": "treasury",
      "outputs": [
        {
          "internalType": "address",
          "name": "",
          "type": "address"
        }
      ],
      "stateMutability": "view",
      "type": "function"
    },
    {
      "inputs": [
        {
          "internalType": "uint256",
          "name": "_proposalId",
          "type": "uint256"
        },
        {
          "internalType": "uint256",
          "name": "_newMerkleRoot",
          "type": "uint256"
        }
      ],
      "name": "updateProposalVoters",
      "outputs": [],
      "stateMutability": "nonpayable",
      "type": "function"
    },
    {
      "inputs": [
        {
          "internalType": "address",
          "name": "",
          "type": "address"
        }
      ],
      "name": "userCredits",
      "outputs": [
        {
          "internalType": "uint256",
          "name": "totalCredits",
          "type": "uint256"
        },
        {
          "internalType": "uint256",
          "name": "usedCredits",
          "type": "uint256"
        },
        {
          "internalType": "bool",
          "name": "initialized",
          "type": "bool"
        }
      ],
      "stateMutability": "view",
      "type": "function"
    },
    {
      "inputs": [
        {
          "internalType": "uint256",
          "name": "",
          "type": "uint256"
        }
      ],
      "name": "validCreditRoots",
      "outputs": [
        {
          "internalType": "bool",
          "name": "",
          "type": "bool"
        }
      ],
      "stateMutability": "view",
      "type": "function"
    },
    {
      "inputs": [
        {
          "internalType": "uint256",
          "name": "",
          "type": "uint256"
        }
      ],
      "name": "validMerkleRoots",
      "outputs": [
        {
          "internalType": "bool",
          "name": "",
          "type": "bool"
        }
      ],
      "stateMutability": "view",
      "type": "function"
    },
    {
      "inputs": [],
      "name": "verifierD1",
      "outputs": [
        {
          "internalType": "contract IVerifierD1",
          "name": "",
          "type": "address"
        }
      ],
      "stateMutability": "view",
      "type": "function"
    },
    {
      "inputs": [],
      "name": "verifierD2",
      "outputs": [
        {
          "internalType": "contract IVerifierD2",
          "name": "",
          "type": "address"
        }
      ],
      "stateMutability": "view",
      "type": "function"
    }
  ],
  "bytecode": "0x60e034620000f657601f62002e8438819003918201601f19168301916001600160401b03831184841017620000fb57808492608094604052833981010312620000f6576200004d8162000111565b906200005c6020820162000111565b91620000796060620000716040850162000111565b930162000111565b6001600160a01b0391821660805292811660a05290811660c052600080546001600160a01b03191691909216179055604051612d5d908162000127823960805181818161034b0152612310015260a051818181610f4c0152611870015260c051818181610fcb0152818161105e0152818161156301526119320152f35b600080fd5b634e487b7160e01b600052604160045260246000fd5b51906001600160a01b0382168203620000f65756fe608080604052600436101561001357600080fd5b60003560e01c90816303a229f714612766575080630572c8011461259d5780630d70ece81461256c57806311174a291461254e57806313703e66146124c457806318dbeb4c1461220957806320babb92146121af5780632436e06b146121865780632bbe44fd1461216a5780632bc4a6e7146120ef5780632c5317c0146120b0578063315401c014611f94578063417e70c8146104735780634275e03114611f165780634a9284fb14610e075780634d09b49f14611ac757806352a48c5614611a375780635938862f146119ff57806361d027b3146119d6578063697aa8e8146119b95780636d3cba611461198857806374dd0fea14611961578063781a48521461191c578063833722c5146118e4578063850099cd146118bb5780638ea7a2741461189f57806394ffe6a01461185a578063974f7aa314611809578063a13f2f8d146117ed578063a1c7574a14611762578063a329b31314611711578063a4cae8f8146116af578063aa609848146115d4578063b065a8e51461151f578063b4e0d6af14611417578063b5770c33146113fb578063b5ad9215146113aa578063badbc2ed14610e38578063cb1bb03314610e07578063d544433614610d50578063d54bb70b14610c2a578063d55d533e1461094c578063d90292a314610930578063db5bd601146104a4578063ef3a2b3914610473578063f025d0821461037a578063f58789ae14610335578063f9058741146103175763fb9607d31461023a57600080fd5b346103125760003660031901126103125733600052601260205260ff600260406000200154161561026757005b604051606081018181106001600160401b038211176102fc576040526102ce612710918281526002602082016000815260408301906001825233600052601260205260406000209351845551600184015551151591019060ff801983541691151516179055565b6040519081527f840108f8f5f45d25a166719fa7440c37016845a955726b639e64fb325f73100760203392a2005b634e487b7160e01b600052604160045260246000fd5b600080fd5b34610312576000366003190112610312576020600154604051908152f35b34610312576000366003190112610312576040517f00000000000000000000000000000000000000000000000000000000000000006001600160a01b03168152602090f35b3461031257602036600319011261031257600435600052600360205260406000208054600182016103aa90612976565b916103b760028201612976565b600160a01b60019003600383015416916004810154600582015460068301546007840154600885015490600986015492600a87015494600b88015496600c89015498600d015460ff16996040519d8e9d8e6101c09181528160208201520161041e91612822565b8d810360408f015261042f91612822565b9a60608d015260808c015260a08b015260c08a015260e089015261010088015261012087015261014086015261016085015261018084015215156101a08301520390f35b3461031257602036600319011261031257600435600052600e602052602060ff604060002054166040519015158152f35b34610312576104b23661288f565b929482600097959793929352600e60205260ff604060002054161561091e576104dc600254612a56565b95866002556104eb8442612a49565b6104fe866104f98742612a49565b612a49565b91604051998a6101e08101106001600160401b036101e08d0111176102fc57610543916101e08c016040528a8c5261053736878c612bc6565b60208d01523691612bc6565b60408a01523360608a01524260808a015260a089015260c08801528160e08801526000610100880152600061012088015260006101408801526000610160880152600061018088015260006101a088015260016101c088015285600052600b6020526040600020928751845560208801518051906001600160401b0382116102fc5781906105d460018801546128e5565b601f81116108e9575b50602090601f83116001146108775760009261086c575b50508160011b916000199060031b1c19161760018501555b6040880151938451986001600160401b038a116102fc57602099899661063560028501546128e5565b601f811161082e575b508b90601f83116001146107855793600e6101c061076095857f4742ce2d5f823dbde60d41925bff9b938299879eba7f67fa0029c8633d92b6549c9d9661074c9661076f9b9a60009261077a575b50508160011b916000199060031b1c19161760028501555b6003840160018060a01b036060830151166bffffffffffffffffffffffff60a01b8254161790556080810151600485015560a0810151600585015560c0810151600685015560e0810151600785015561010081015160088501556101208101516009850155610140810151600a850155610160810151600b850155610180810151600c8501556101a0810151600d8501550151151591019060ff801983541691151516179055565b6104f96107598442612a49565b9342612a49565b90604051948594339986612c23565b0390a3604051908152f35b01519050388061068c565b6002859493929a95016000528c6000209060005b601f198416811061081457506101c061076f97969460018561076098957f4742ce2d5f823dbde60d41925bff9b938299879eba7f67fa0029c8633d92b6549e9f600e9661074c99601f198116106107fb575b505050811b0160028501556106a4565b015160001960f88460031b161c191690553880806107eb565b818c015183559a8e019a8d9a506001909201918e01610799565b61085c90600286016000528d600020601f850160051c8101918f8610610862575b601f0160051c0190612c0c565b8c61063e565b909150819061084f565b015190508a806105f4565b9250600187016000526020600020906000935b601f19841685106108ce576001945083601f198116106108b5575b505050811b01600185015561060c565b015160001960f88460031b161c191690558a80806108a5565b8181015183556020948501946001909301929091019061088a565b61091890600189016000526020600020601f850160051c8101916020861061086257601f0160051c0190612c0c565b8b6105dd565b604051633398105560e01b8152600490fd5b3461031257600036600319011261031257602060405160028152f35b346103125760a0366003190112610312576004356024359060443560643582600052602091600b8352604060002092600c8152604060002086600052815260406000209060ff600e8601541615610c18576005850154421115610c065760068501544211610c065760ff60078301541615610bf4576005820160ff815416610be25760028411610bd0576040519173__$0daf1669a85ce10529e05b8a030b9567e1$__6109f88461291f565b858452868285015260018501938454604082015289606082015260405190838280610a316321c2736360e21b9485835260048301612a1b565b0381865af4908115610b91578492600092610b9d575b5092610a859360405192610a5a8461291f565b8352608435848401526000604084015260006060840152604051809581948293835260048301612a1b565b03915af4918215610b9157600092610b63575b5050835403610b51577f3c283986862ad16cc4d3240256474e99bfc9df697a62f7351373cbdefb3d14f895846006610b2295600d94600160ff19825416179055015560018514600014610b275760088101610af4878254612a49565b90555b01610b028154612a56565b905554604051938493846040919493926060820195825260208201520152565b0390a3005b84610b425760098101610b3b878254612a49565b9055610af7565b600a8101610b3b878254612a49565b604051639ea6d12760e01b8152600490fd5b90809250813d8311610b8a575b610b7a8183612955565b8101031261031257518980610a98565b503d610b70565b6040513d6000823e3d90fd5b8381949293503d8311610bc9575b610bb58183612955565b810103126103125790518391610a85610a47565b503d610bab565b604051639c45400160e01b8152600490fd5b60405163a89ac15160e01b8152600490fd5b604051635b34156960e11b8152600490fd5b6040516374683d7160e01b8152600490fd5b60405163635e873760e01b8152600490fd5b3461031257602036600319011261031257600435600052600b602052604060002060ff600e8201541615610c18576005810154428110610d35576000905b825491600160a01b6001900360038501541691600785015490600686015460088701546009880154600a89015491600b8a015493600c8b015495600d8c01549760018d01610cb590612976565b9c600201610cc290612976565b6040519d8e9d8e6101c091815281602082015201610cdf91612822565b8d810360408f0152610cf091612822565b9a60608d015260808c015260a08b015260c08a015260e089015261010088015261012087015261014086015261016085015261018084015260ff166101a08301520390f35b60068201544211610d4857600190610c68565b600290610c68565b346103125760203660031901126103125760043580600052600e6020526040600020600160ff19825416179055600f54600160401b8110156102fc576001810180600f55811015610df1578190600f6000527f8d1108e10bcb7c27dddfc02ed9d693a074039d026cf4ea4240b40f7d581ac80201557fc437041eca78e842ff32dc1036255a23da98c52b2f3bd3a875923aadb0276b3d6020604051428152a2005b634e487b7160e01b600052603260045260246000fd5b34610312576020366003190112610312576004356000526006602052602060ff604060002054166040519015158152f35b34610312576101a0366003190112610312573660e4116103125761016436811161031257366101a41161031257600435600052600b60205260406000209060ff600e8301541615610c18576005820154421161139857600435600052600d602052604060002060843560005260205260ff6040600020541661138657610ec060443580612c5e565b6064350361137457604051610ed48161293a565b608435815260243560208201526004356040820152606435606082015260078301546080820152604051916334baeab960e01b8352604060a4600485013760e46000604485015b6002821061135e5750505060409060c4840137600061010483015b600582106113485750602091508290506101a4817f00000000000000000000000000000000000000000000000000000000000000006001600160a01b03165afa908115610b9157600091611329575b501561131757606435670de0b6b3a76400006064350204670de0b6b3a764000014606435151715611253576040516370a0823160e01b81523360048201526020816024817f00000000000000000000000000000000000000000000000000000000000000006001600160a01b03165afa908115610b91576000916112e5575b50670de0b6b3a76400006064350281106112d357600080546040516323b872dd60e01b81523360048201526001600160a01b03918216602482015260648035670de0b6b3a7640000026044830152909260209284929183917f0000000000000000000000000000000000000000000000000000000000000000165af1908115610b91576000916112a4575b501561126957670de0b6b3a7640000900460643581039081116112535760405190606435825260208201527f380f4b80ac5d183ff04f143a097611558815196006b7297cae774c0b5680a5ee60403392a2600435600052600d60205260406000206084356000526020526040600020600160ff198254161790556040519061010082018281106001600160401b038211176102fc57600b926111e391604052602435815260076020820160643581526040830160443581526111c76060850160843581526080860142815260a08701916000835260c08801946000865260e089019660018852600435600052600c6020526040600020608435600052602052604060002099518a555160018a0155516002890155516003880155516004870155511515600586019060ff801983541691151516179055565b51600684015551151591019060ff801983541691151516179055565b600c81016111f18154612a56565b9055016112016064358254612a49565b9055604051608435907fbcf4fa36949e1955af2c6b6b628e50db0e23ec473b26480f3a584dd5a5d8953b6004359180610b22606435604435602435846040919493926060820195825260208201520152565b634e487b7160e01b600052601160045260246000fd5b60405162461bcd60e51b81526020600482015260136024820152721513d3881d1c985b9cd9995c8819985a5b1959606a1b6044820152606490fd5b6112c6915060203d6020116112cc575b6112be8183612955565b810190612a65565b8361108f565b503d6112b4565b6040516343fb945360e01b8152600490fd5b90506020813d60201161130f575b8161130060209383612955565b81010312610312575182611004565b3d91506112f3565b6040516309bde33960e01b8152600490fd5b611342915060203d6020116112cc576112be8183612955565b82610f85565b6020806001928551815201930191019091610f36565b6040808281866001953701930191019091610f1b565b6040516315252a2960e21b8152600490fd5b604051636569570160e11b8152600490fd5b60405163abfb7dc360e01b8152600490fd5b34610312576020366003190112610312576004356007548110156103125760209060076000527fa66cc928b5edb82af9bd49922954155ab7b0942694bea4ce44661d9a8736c6880154604051908152f35b3461031257600036600319011261031257602060405160008152f35b3461031257602036600319011261031257600435600052600b602052604060002080546001820161144790612976565b61145360028401612976565b92600160a01b600190036003820154169060048101546005820154600683015460078401546008850154600986015491600a87015493600b88015495600c89015497600d8a015499600e015460ff169a6040519e8f9e8f9e8f916101e090835280602084015282016114c491612822565b9080820390604001526114d691612822565b9c6060015260808d015260a08c015260c08b015260e08a01526101008901526101208801526101408701526101608601526101808501526101a084015215156101c08301520390f35b3461031257602080600319360112610312576001600160a01b03600435818116908190036103125782906024604051809481936370a0823160e01b835260048301527f0000000000000000000000000000000000000000000000000000000000000000165afa908115610b91576000916115a7575b50670de0b6b3a764000060405191048152f35b90508181813d83116115cd575b6115be8183612955565b81010312610312575182611594565b503d6115b4565b34610312576115e236612781565b8160005260039160206003602052604060002060ff600d8201541615610c185760078491015581600052600a91600a602052604060002080546000825580611693575b505060005b600854811015611661576001908260005284845261165b604060002061164f83612797565b9054908a1b1c90612ac5565b0161162a565b8480600052600660205260406000209081549160ff83161561167f57005b60016116919360ff1916179055612a7d565b005b6116a891600052602060002090810190612c0c565b8580611625565b34610312576020366003190112610312576004358060005260066020526040600020600160ff198254161790556116e581612a7d565b7fcb23ed79d0d407699762f186152925a6b8dd62fc4b2223f50a16534af8c883f86020604051428152a2005b3461031257602036600319011261031257600435600f5481101561031257602090600f6000527f8d1108e10bcb7c27dddfc02ed9d693a074039d026cf4ea4240b40f7d581ac8020154604051908152f35b3461031257600036600319011261031257604051806010549182815260208091019260106000527f1b6847dc741a1b0cd08d278845f9d819d87b734759afb55fe2de5cb82a9ae672916000905b8282106117d6576117d2856117c681890382612955565b604051918291826127e6565b0390f35b8354865294850194600193840193909101906117af565b3461031257602036600319011261031257611691600435612cb2565b34610312576020366003190112610312576004356010548110156103125760209060106000527f1b6847dc741a1b0cd08d278845f9d819d87b734759afb55fe2de5cb82a9ae6720154604051908152f35b34610312576000366003190112610312576040517f00000000000000000000000000000000000000000000000000000000000000006001600160a01b03168152602090f35b3461031257600036600319011261031257602060405160018152f35b346103125760203660031901126103125760206118d9600435612c71565b60ff60405191168152f35b34610312576118f236612781565b90600052600d602052604060002090600052602052602060ff604060002054166040519015158152f35b34610312576000366003190112610312576040517f00000000000000000000000000000000000000000000000000000000000000006001600160a01b03168152602090f35b3461031257602036600319011261031257602061198060043580612c5e565b604051908152f35b34610312576020366003190112610312576004356000526009602052602060ff604060002054166040519015158152f35b346103125760003660031901126103125760206040516127108152f35b34610312576000366003190112610312576000546040516001600160a01b039091168152602090f35b3461031257611a0d36612781565b906000526005602052604060002090600052602052602060ff604060002054166040519015158152f35b346103125760203660031901126103125760043533600052601260205260406000206002810160ff81541615600014611ab45782825560006001830155600160ff198254161790555b5460405191825260208201527fc8bc4842cf61a3f6cbf597029d937fdf158ef4959a9616594587a0fb8c6b871160403392a2005b50611ac0828254612a49565b8155611a80565b3461031257611ad53661288f565b948260009793929752600660205260ff6040600020541615611f0457611afc600154612a56565b9384600155611b0b8842612a49565b611b19886104f98b42612a49565b9160405197886101c08101106001600160401b036101c08b0111176102fc57611b5e916101c08a01604052888a52611b5236878a612bc6565b60208b01523691612bc6565b604088015233606088015242608088015260a087015260c08601528160e08601526000610100860152600061012086015260006101408601526000610160860152600061018086015260016101a08601528360005260036020526040600020958551875560208601518051906001600160401b0382116102fc578190611be760018b01546128e5565b601f8111611ecf575b50602090601f8311600114611e5d57600092611e52575b50508160011b916000199060031b1c19161760018801555b60408601518051906001600160401b0382116102fc578190611c4460028b01546128e5565b601f8111611e1d575b50602090601f8311600114611dab57600092611da0575b50508160011b916000199060031b1c19161760028801555b6003870160018060a01b036060880151166bffffffffffffffffffffffff60a01b8254161790556080860151600488015560a0860151600588015560c0860151600688015560e08601516007880155611d2760089761010088015160088201556101208801516009820155600d6101a0600a99610140810151600a850155610160810151600b850155610180810151600c8501550151151591019060ff801983541691151516179055565b60005b8754811015611d62576001908660005287602052611d5c6040600020611d4f83612797565b90549060031b1c90612ac5565b01611d2a565b5060209550917f16356ec948fe2183cece6a7b111beef5be873032e9698d3fbf0e0168d0fc91a89161076f8961076088966104f96107598442612a49565b015190508a80611c64565b925060028a016000526020600020906000935b601f1984168510611e02576001945083601f19811610611de9575b505050811b016002880155611c7c565b015160001960f88460031b161c191690558a8080611dd9565b81810151835560209485019460019093019290910190611dbe565b611e4c9060028c016000526020600020601f850160051c8101916020861061086257601f0160051c0190612c0c565b8b611c4d565b015190508a80611c07565b925060018a016000526020600020906000935b601f1984168510611eb4576001945083601f19811610611e9b575b505050811b016001880155611c1f565b015160001960f88460031b161c191690558a8080611e8b565b81810151835560209485019460019093019290910190611e70565b611efe9060018c016000526020600020601f850160051c8101916020861061086257601f0160051c0190612c0c565b8b611bf0565b604051639dd854d360e01b8152600490fd5b3461031257611f2436612781565b90600052600460205260406000209060005260205260e060406000208054906001810154906002810154600382015460ff6004840154169160ff6006600586015495015416946040519687526020870152604086015260608501521515608084015260a0830152151560c0820152f35b34610312576020366003190112610312576004356000526003602052604060002060ff600d8201541615610c18576005810154428110612095576000905b825491600160a01b600190036003850154169160078501549060068601546008870154600988015490600a89015492600b8a015494600c8b01549660018c0161201a90612976565b9b60020161202790612976565b6040519c8d809d6101a09182918152602001528d0161204591612822565b8c810360408e015261205691612822565b9960608c015260808b015260a08a015260c089015260e088015261010087015261012086015261014085015261016084015260ff166101808301520390f35b600682015442116120a857600190611fd2565b600290611fd2565b34610312576120be36612781565b90600052600a60205260406000208054821015610312576020916120e1916127ce565b90546040519160031b1c8152f35b3461031257600036600319011261031257604051806008549182815260208091019260086000527ff3f7a9fe364faab93b216da50a3214154f22a0a2b415b23a84c8169e8b636ee3916000905b828210612153576117d2856117c681890382612955565b83548652948501946001938401939091019061213c565b3461031257602036600319011261031257611691600435612b01565b3461031257602036600319011261031257600435600854811015610312576120e1602091612797565b34610312576020366003190112610312576004356001600160a01b038116908190036103125760005260126020526060604060002080549060ff600260018301549201541690604051928352602083015215156040820152f35b3461031257610180366003190112610312576064356004356024356044353660c411610312576101449136831161031257366101841161031257836000526020916003835260406000209360ff600d8601541615610c18576005808601544211611398578660005260058552604060002088600052855260ff604060002054166113865782156124b25760405161229f8161293a565b888152848682015287604082015283606082015260078701546080820152604051926334baeab960e01b845260406084600486013760c46000604486015b6002821061249c5750505060409060c485013760009061010484015b878484106124885793508492506101a491508290507f00000000000000000000000000000000000000000000000000000000000000006001600160a01b03165afa908115610b915760009161246b575b501561131757846000526005835260406000208660005283526040600020600160ff198254161790556040519260e08401938085106001600160401b038611176102fc577f049e5146cbefb4fff5586b703de455cb45794712230253d13f2d8c57da85a32395612453600b9260068a866124378e60409c8d528b86528286018b81528d87018281526060880191428352608089019360008552600460a08b01976000895260c08c019960018b52600052526040600020906000528d528f60002098518955516001890155516002880155516003870155511515600486019060ff801983541691151516179055565b51600584015551151591019060ff801983541691151516179055565b0161245e8154612a56565b90558351928352820152a3005b6124829150843d86116112cc576112be8183612955565b87612349565b8060019284518152019201920191906122f9565b60408082818660019537019301910190916122dd565b6040516343c891cf60e11b8152600490fd5b34610312576124d236612781565b90600052600c60205260406000209060005260205261010060406000208054906001810154906002810154600382015460048301549060ff6005850154169260ff6007600687015496015416956040519788526020880152604087015260608601526080850152151560a084015260c0830152151560e0820152f35b34610312576000366003190112610312576020600854604051908152f35b34610312576020366003190112610312576004356000526011602052602060ff604060002054166040519015158152f35b3461031257608036600319011261031257600435602435906044358160005260206003815260406000209160048252604060002085600052825260406000209160ff600d8501541615610c18576005840154421115610c065760068401544211610c065760ff60068401541615610bf4576004830160ff815416610be25760028311610bd057604051906126308261291f565b83825261266a8360018701938454828201528960408201526064356060820152604051809381926321c2736360e21b835260048301612a1b565b038173__$0daf1669a85ce10529e05b8a030b9567e1$__5af4908115610b9157600091612739575b50855403610b51577f48b18ffd0d20ac6e0c916dc382bdea3de3108e2b71d66318ff2bdc7aa10a562895846005604097600c94600160ff1982541617905501556001851460001461270b5782546126ee60088301918254612a49565b90555b016126fc8154612a56565b905554908351928352820152a3005b8461272857825461272160098301918254612a49565b90556126f1565b8254612721600a8301918254612a49565b90508381813d831161275f575b6127508183612955565b81010312610312575189612692565b503d612746565b34610312576000366003190112610312576020906002548152f35b6040906003190112610312576004359060243590565b600854811015610df15760086000527ff3f7a9fe364faab93b216da50a3214154f22a0a2b415b23a84c8169e8b636ee30190600090565b8054821015610df15760005260206000200190600090565b602090602060408183019282815285518094520193019160005b82811061280e575050505090565b835185529381019392810192600101612800565b919082519283825260005b84811061284e575050826000602080949584010152601f8019910116010190565b60208183018101518483018201520161282d565b9181601f84011215610312578235916001600160401b038311610312576020838186019501011161031257565b60a0600319820112610312576001600160401b039160043583811161031257826128bb91600401612862565b93909392602435918211610312576128d591600401612862565b9091604435906064359060843590565b90600182811c92168015612915575b60208310146128ff57565b634e487b7160e01b600052602260045260246000fd5b91607f16916128f4565b608081019081106001600160401b038211176102fc57604052565b60a081019081106001600160401b038211176102fc57604052565b90601f801991011681019081106001600160401b038211176102fc57604052565b90604051918260008254612989816128e5565b908184526020946001916001811690816000146129f957506001146129ba575b5050506129b892500383612955565b565b600090815285812095935091905b8183106129e15750506129b893508201013880806129a9565b855488840185015294850194879450918301916129c8565b925050506129b894925060ff191682840152151560051b8201013880806129a9565b6080810192916000915b60048310612a3257505050565b600190825181526020809101920192019190612a25565b9190820180921161125357565b60001981146112535760010190565b90816020910312610312575180151581036103125790565b600754600160401b8110156102fc576001810180600755811015610df15760076000527fa66cc928b5edb82af9bd49922954155ab7b0942694bea4ce44661d9a8736c6880155565b90815491600160401b8310156102fc5782612ae89160016129b8950181556127ce565b90919082549060031b91821b91600019901b1916179055565b90600091808352601160205260408320805460ff8116612bbf5760ff19166001179055601054600160401b811015612bab576001810180601055811015612b97576010829394527f1b6847dc741a1b0cd08d278845f9d819d87b734759afb55fe2de5cb82a9ae67201557f1926a241ba9d59467ac0063e2cb861452b93ab650fff5378a82e86befecc27ab6020604051428152a2565b634e487b7160e01b84526032600452602484fd5b634e487b7160e01b84526041600452602484fd5b5050509050565b9291926001600160401b0382116102fc5760405191612bef601f8201601f191660200184612955565b829481845281830111610312578281602093846000960137010152565b818110612c17575050565b60008155600101612c0c565b918060a0916060959897969360808652816080870152838601376000828286010152601f801991011683010195602083015260408201520152565b8181029291811591840414171561125357565b600052600b602052604060002060ff600e8201541615610c18576005810154421115612cac5760060154421115612ca757600290565b600190565b50600090565b8060005260096020526040600020805460ff8116612d225760ff19166001179055600854600160401b8110156102fc5781612ae8826001612cf69401600855612797565b7f85238313f6b4aa1ea470340fc24bc06d68e734cd21411160c06714eb547571af6020604051428152a2565b50505056fea264697066735822122076e5bb1c4df17c44552f892d971f711cde956f9e032914187993743a0870118264736f6c63430008180033",
  "linkReferences": {
    "contracts/PoseidonT5.sol": {
      "PoseidonT5": [
        {
          "length": 20,
          "start": 2819
        },
        {
          "length": 20,
          "start": 10133
        }
      ]
    }
  },
  "deployedLinkReferences": {
    "contracts/PoseidonT5.sol": {
      "PoseidonT5": [
        {
          "length": 20,
          "start": 2524
        },
        {
          "length": 20,
          "start": 9838
        }
      ]
    }
  }
}