{"abi":[{"type":"function","name":"verifyProof","inputs":[{"name":"_pA","type":"uint256[2]","internalType":"uint256[2]"},{"name":"_pB","type":"uint256[2][2]","internalType":"uint256[2][2]"},{"name":"_pC","type":"uint256[2]","internalType":"uint256[2]"},{"name":"_pubSignals","type":"uint256[5]","internalType":"uint256[5]"}],"outputs":[{"name":"","type":"bool","internalType":"bool"}],"stateMutability":"view"}],"bytecode":{"object":"0x608060405234601c57600e6020565b6106a261002b82396106a290f35b6026565b60405190565b5f80fdfe60806040526004361015610013575b6100e3565b61001d5f3561002c565b6334baeab90361000e576100c5565b60e01c90565b5f80fd5b5f80fd5b5f80fd5b9190602060020283011161004e57565b61003a565b9190604060020283011161006357565b61003a565b9190602060050283011161007857565b61003a565b6101a0818303126100c057610094825f830161003e565b926100bd6100a58460408501610053565b936100b38160c0860161003e565b9361010001610068565b90565b610036565b346100de576100d536600461007d565b92919091610605565b610032565b5f80fd5b5f90565b7f30644e72e131a029b85045b68181585d2833e84879b9709143e1f593f0000001111561011457565b5f805260205ff35b919290926040519384526020840152604083015260408260608160076107d05a03fa1561016f5760806040928251848201526020830151606082015260066107d05a03fa1561016757565b5f805260205ff35b5f805260205ff35b60209394917f30644e72e131a029b85045b68181585d97816a916871ca8d3c208c16d87cfd478560609361037e60808701997f019ca79558d20450d0289cd8d67999c3f51c79daf5f4373b5e9aa0815c8ab89f7f2e47eb6557d42f50c0d49faaa8fcfc5d204391690f53aab8d72540b87c208bd660805f8b01937f1635a8c8e5c2a300de4307116e364a340fd8ff70be5a6a3e349b73d9561875a385527f1eec012ed3ed736858bec9b0191ff95c6ce19c5736dd1b60d26651bbe738cac1888601526102885f8201357f135a2d70bfd64ab85feb8ef0bba7e682cfacce5fae5b6c3f08c4c0db41a756e57f12666e0322b07ee9ce98772d47974f0be564ebee9434059ef36d2a37874d53728861011c565b6102d7888201357f1780fa4b2f0ddf4023d0fa470467e84fbd521393cb6842077fbc5549841649f37f1403cc1f8dd469aa5a0272d828c0365d6ca1a81df1c6bb7cf30ae48242b0d5828861011c565b61032760408201357f0d8e897a1cd42368acf25a5a1cb8078abe962e03a294386c53a253b036f4aa297f159e171d165f785ff10af2a339b2a2c839afab4b992b83a4a2301badb230ae4b8861011c565b6103768b8201357f1b047e9df946e26b6f33197238af35c2e7ab7627a3ac84fd2c50df3cdc7ab2047f2ad0224b3f9dbefebaba82d89c6a4220903af2ed0bfafa1808a0045cacd8f10f8861011c565b01359261011c565b8035895201358103068587015280356040870152848101358287015260408101356080870152013560a08501527f2d4d9aa7e302d9df41749d5507949d05dbea33fbb16c643b22f599a2be6df2e260c08501527f14bedd503c37ceb061d8ec60209fe345ce89830a19230301f076caff004d192660e08501527f0967032fcbf776d1afc985f88877f182d38480a653f2decaa9794cbc3bf3060c6101008501527f0e187847ad4c798374d0d6732bf501847dd68bc0e071241e0213bc7fc13db7ab6101208501527f304cfbd1e08a704a99f5e847d93f8c3caafddec46b7a0d379da69a4d112346a76101408501527f1739c1b1a457a8c7313123d24d2f9192f896b7c63eea05a9d57f06547ad0cec86101608501525f810151610180850152825f0101516101a08401527f198e9393920d483a7260bfb731fb5d25f1aa493335a9e71297e485b7aef312c26101c08401527f1800deef121f1e76426a00665e5c4479674322d4f75edadd46debd5cd992f6ed6101e08401527f090689d0585ff075ec9e99ad690c3395bc4b313370b38ef355acdadcd122975b6102008401527f12c85ea5db8c6deb4aab71808dcb408fe3d1e7690c43d37b4ce6cc0166fa7daa610220840152803561024084015201356102608201527f02bae578c4b6a4f696a1312008d9e91edd876620a5e185f1441c24418598d78a6102808201527f0508b635acf3822141d0c883193d896d2c99cfc70061a0895bece8047b8b23336102a08201527f0641da5aa430005851769a46263a60a43643a6edce01f3dfbd718147ab62ac366102c08201527f18a4f061a11c6dba9763a79fcbc7db4e37ebd7d3a0b12b44c53a8a970ca8188a6102e08201526020816103008160086107d05a03fa90511690565b9161066593916106136100e7565b5060405193610380850160405261062c5f8501356100eb565b61063960208501356100eb565b61064660408501356100eb565b61065360608501356100eb565b61066060808501356100eb565b610177565b5f5260205ff3fea2646970667358221220dd0d2f548f53e29791a03ef2194c72206ff5e192cbc8f525e5a956698d765aaa64736f6c63430008210033","linkReferences":{}},"methodIdentifiers":{"verifyProof(uint256[2],uint256[2][2],uint256[2],uint256[5])":"34baeab9"},"id":1}