{"abi":[{"type":"function","name":"register","inputs":[{"name":"","type":"address","internalType":"address"},{"name":"","type":"bytes","internalType":"bytes"}],"outputs":[],"stateMutability":"nonpayable"}],"bytecode":{"object":"0x608060405234601c57600e6020565b61021a61002b823961021a90f35b6026565b60405190565b5f80fdfe60806040526004361015610013575b6101e0565b61001d5f3561002c565b6324b8fbf60361000e576101b3565b60e01c90565b60405190565b5f80fd5b5f80fd5b5f80fd5b60018060a01b031690565b61005890610044565b90565b6100648161004f565b0361006b57565b5f80fd5b9050359061007c8261005b565b565b5f80fd5b5f80fd5b601f801991011690565b634e487b7160e01b5f52604160045260245ffd5b906100ae90610086565b810190811067ffffffffffffffff8211176100c857604052565b610090565b906100e06100d9610032565b92836100a4565b565b67ffffffffffffffff8111610100576100fc602091610086565b0190565b610090565b90825f939282370152565b90929192610125610120826100e2565b6100cd565b938185526020850190828401116101415761013f92610105565b565b610082565b9080601f830112156101645781602061016193359101610110565b90565b61007e565b9190916040818403126101a957610182835f830161006f565b92602082013567ffffffffffffffff81116101a4576101a19201610146565b90565b610040565b61003c565b5f0190565b346101db576101c3366004610169565b50506101cd610032565b806101d7816101ae565b0390f35b610038565b5f80fdfea26469706673582212200070d2f9263b376be61aae3da5b803bea0f950439f017eb665c1af947821550d64736f6c63430008210033","linkReferences":{}},"methodIdentifiers":{"register(address,bytes)":"24b8fbf6"},"id":9}