{"abi":[{"type":"constructor","inputs":[{"name":"_verifier","type":"address","internalType":"address"}],"stateMutability":"nonpayable"},{"type":"function","name":"CHOICE_ABSTAIN","inputs":[],"outputs":[{"name":"","type":"uint256","internalType":"uint256"}],"stateMutability":"view"},{"type":"function","name":"CHOICE_AGAINST","inputs":[],"outputs":[{"name":"","type":"uint256","internalType":"uint256"}],"stateMutability":"view"},{"type":"function","name":"CHOICE_FOR","inputs":[],"outputs":[{"name":"","type":"uint256","internalType":"uint256"}],"stateMutability":"view"},{"type":"function","name":"INITIAL_CREDITS","inputs":[],"outputs":[{"name":"","type":"uint256","internalType":"uint256"}],"stateMutability":"view"},{"type":"function","name":"calculateMaxVotes","inputs":[{"name":"availableCredits","type":"uint256","internalType":"uint256"}],"outputs":[{"name":"","type":"uint256","internalType":"uint256"}],"stateMutability":"pure"},{"type":"function","name":"calculateQuadraticCost","inputs":[{"name":"numVotes","type":"uint256","internalType":"uint256"}],"outputs":[{"name":"","type":"uint256","internalType":"uint256"}],"stateMutability":"pure"},{"type":"function","name":"commitVoteQuadratic","inputs":[{"name":"_proposalId","type":"uint256","internalType":"uint256"},{"name":"_commitment","type":"uint256","internalType":"uint256"},{"name":"_numVotes","type":"uint256","internalType":"uint256"},{"name":"_creditsSpent","type":"uint256","internalType":"uint256"},{"name":"_nullifier","type":"uint256","internalType":"uint256"},{"name":"_pA","type":"uint256[2]","internalType":"uint256[2]"},{"name":"_pB","type":"uint256[2][2]","internalType":"uint256[2][2]"},{"name":"_pC","type":"uint256[2]","internalType":"uint256[2]"}],"outputs":[],"stateMutability":"nonpayable"},{"type":"function","name":"commitments","inputs":[{"name":"","type":"uint256","internalType":"uint256"},{"name":"","type":"uint256","internalType":"uint256"}],"outputs":[{"name":"commitment","type":"uint256","internalType":"uint256"},{"name":"creditsSpent","type":"uint256","internalType":"uint256"},{"name":"numVotes","type":"uint256","internalType":"uint256"},{"name":"nullifier","type":"uint256","internalType":"uint256"},{"name":"timestamp","type":"uint256","internalType":"uint256"},{"name":"revealed","type":"bool","internalType":"bool"},{"name":"revealedChoice","type":"uint256","internalType":"uint256"},{"name":"exists","type":"bool","internalType":"bool"}],"stateMutability":"view"},{"type":"function","name":"createProposal","inputs":[{"name":"_title","type":"string","internalType":"string"},{"name":"_description","type":"string","internalType":"string"},{"name":"_creditRoot","type":"uint256","internalType":"uint256"},{"name":"_votingDuration","type":"uint256","internalType":"uint256"},{"name":"_revealDuration","type":"uint256","internalType":"uint256"}],"outputs":[{"name":"","type":"uint256","internalType":"uint256"}],"stateMutability":"nonpayable"},{"type":"function","name":"creditRootHistory","inputs":[{"name":"","type":"uint256","internalType":"uint256"}],"outputs":[{"name":"","type":"uint256","internalType":"uint256"}],"stateMutability":"view"},{"type":"function","name":"getAvailableCredits","inputs":[{"name":"user","type":"address","internalType":"address"}],"outputs":[{"name":"","type":"uint256","internalType":"uint256"}],"stateMutability":"view"},{"type":"function","name":"getCommitment","inputs":[{"name":"_proposalId","type":"uint256","internalType":"uint256"},{"name":"_nullifier","type":"uint256","internalType":"uint256"}],"outputs":[{"name":"commitment","type":"uint256","internalType":"uint256"},{"name":"creditsSpent","type":"uint256","internalType":"uint256"},{"name":"numVotes","type":"uint256","internalType":"uint256"},{"name":"revealed","type":"bool","internalType":"bool"},{"name":"revealedChoice","type":"uint256","internalType":"uint256"}],"stateMutability":"view"},{"type":"function","name":"getPhase","inputs":[{"name":"_proposalId","type":"uint256","internalType":"uint256"}],"outputs":[{"name":"","type":"uint8","internalType":"uint8"}],"stateMutability":"view"},{"type":"function","name":"getProposal","inputs":[{"name":"_proposalId","type":"uint256","internalType":"uint256"}],"outputs":[{"name":"id","type":"uint256","internalType":"uint256"},{"name":"title","type":"string","internalType":"string"},{"name":"description","type":"string","internalType":"string"},{"name":"proposer","type":"address","internalType":"address"},{"name":"creditRoot","type":"uint256","internalType":"uint256"},{"name":"endTime","type":"uint256","internalType":"uint256"},{"name":"revealEndTime","type":"uint256","internalType":"uint256"},{"name":"forVotes","type":"uint256","internalType":"uint256"},{"name":"againstVotes","type":"uint256","internalType":"uint256"},{"name":"abstainVotes","type":"uint256","internalType":"uint256"},{"name":"totalCreditsSpent","type":"uint256","internalType":"uint256"},{"name":"totalCommitments","type":"uint256","internalType":"uint256"},{"name":"revealedVotes","type":"uint256","internalType":"uint256"},{"name":"phase","type":"uint8","internalType":"uint8"}],"stateMutability":"view"},{"type":"function","name":"getRegisteredCreditNotes","inputs":[],"outputs":[{"name":"","type":"uint256[]","internalType":"uint256[]"}],"stateMutability":"view"},{"type":"function","name":"initializeCredits","inputs":[],"outputs":[],"stateMutability":"nonpayable"},{"type":"function","name":"isCreditNoteRegistered","inputs":[{"name":"","type":"uint256","internalType":"uint256"}],"outputs":[{"name":"","type":"bool","internalType":"bool"}],"stateMutability":"view"},{"type":"function","name":"isCreditRootValid","inputs":[{"name":"_creditRoot","type":"uint256","internalType":"uint256"}],"outputs":[{"name":"","type":"bool","internalType":"bool"}],"stateMutability":"view"},{"type":"function","name":"nullifierUsed","inputs":[{"name":"","type":"uint256","internalType":"uint256"},{"name":"","type":"uint256","internalType":"uint256"}],"outputs":[{"name":"","type":"bool","internalType":"bool"}],"stateMutability":"view"},{"type":"function","name":"proposalCount","inputs":[],"outputs":[{"name":"","type":"uint256","internalType":"uint256"}],"stateMutability":"view"},{"type":"function","name":"proposals","inputs":[{"name":"","type":"uint256","internalType":"uint256"}],"outputs":[{"name":"id","type":"uint256","internalType":"uint256"},{"name":"title","type":"string","internalType":"string"},{"name":"description","type":"string","internalType":"string"},{"name":"proposer","type":"address","internalType":"address"},{"name":"startTime","type":"uint256","internalType":"uint256"},{"name":"endTime","type":"uint256","internalType":"uint256"},{"name":"revealEndTime","type":"uint256","internalType":"uint256"},{"name":"creditRoot","type":"uint256","internalType":"uint256"},{"name":"forVotes","type":"uint256","internalType":"uint256"},{"name":"againstVotes","type":"uint256","internalType":"uint256"},{"name":"abstainVotes","type":"uint256","internalType":"uint256"},{"name":"totalCreditsSpent","type":"uint256","internalType":"uint256"},{"name":"totalCommitments","type":"uint256","internalType":"uint256"},{"name":"revealedVotes","type":"uint256","internalType":"uint256"},{"name":"exists","type":"bool","internalType":"bool"}],"stateMutability":"view"},{"type":"function","name":"registerCreditNote","inputs":[{"name":"_creditNoteHash","type":"uint256","internalType":"uint256"}],"outputs":[],"stateMutability":"nonpayable"},{"type":"function","name":"registerCreditRoot","inputs":[{"name":"_creditRoot","type":"uint256","internalType":"uint256"}],"outputs":[],"stateMutability":"nonpayable"},{"type":"function","name":"registeredCreditNotes","inputs":[{"name":"","type":"uint256","internalType":"uint256"}],"outputs":[{"name":"","type":"uint256","internalType":"uint256"}],"stateMutability":"view"},{"type":"function","name":"revealVote","inputs":[{"name":"_proposalId","type":"uint256","internalType":"uint256"},{"name":"_nullifier","type":"uint256","internalType":"uint256"},{"name":"_choice","type":"uint256","internalType":"uint256"},{"name":"_numVotes","type":"uint256","internalType":"uint256"},{"name":"_voteSalt","type":"uint256","internalType":"uint256"}],"outputs":[],"stateMutability":"nonpayable"},{"type":"function","name":"updateProposalCredits","inputs":[{"name":"_proposalId","type":"uint256","internalType":"uint256"},{"name":"_newCreditRoot","type":"uint256","internalType":"uint256"}],"outputs":[],"stateMutability":"nonpayable"},{"type":"function","name":"userCredits","inputs":[{"name":"","type":"address","internalType":"address"}],"outputs":[{"name":"totalCredits","type":"uint256","internalType":"uint256"},{"name":"usedCredits","type":"uint256","internalType":"uint256"},{"name":"initialized","type":"bool","internalType":"bool"}],"stateMutability":"view"},{"type":"function","name":"validCreditRoots","inputs":[{"name":"","type":"uint256","internalType":"uint256"}],"outputs":[{"name":"","type":"bool","internalType":"bool"}],"stateMutability":"view"},{"type":"function","name":"verifier","inputs":[],"outputs":[{"name":"","type":"address","internalType":"contract IVerifierD2"}],"stateMutability":"view"},{"type":"event","name":"CreditNoteRegistered","inputs":[{"name":"creditNoteHash","type":"uint256","indexed":true,"internalType":"uint256"},{"name":"timestamp","type":"uint256","indexed":false,"internalType":"uint256"}],"anonymous":false},{"type":"event","name":"CreditRootRegistered","inputs":[{"name":"creditRoot","type":"uint256","indexed":true,"internalType":"uint256"},{"name":"timestamp","type":"uint256","indexed":false,"internalType":"uint256"}],"anonymous":false},{"type":"event","name":"CreditsBurned","inputs":[{"name":"user","type":"address","indexed":true,"internalType":"address"},{"name":"amount","type":"uint256","indexed":false,"internalType":"uint256"},{"name":"remaining","type":"uint256","indexed":false,"internalType":"uint256"}],"anonymous":false},{"type":"event","name":"CreditsInitialized","inputs":[{"name":"user","type":"address","indexed":true,"internalType":"address"},{"name":"credits","type":"uint256","indexed":false,"internalType":"uint256"}],"anonymous":false},{"type":"event","name":"ProposalCreated","inputs":[{"name":"proposalId","type":"uint256","indexed":true,"internalType":"uint256"},{"name":"title","type":"string","indexed":false,"internalType":"string"},{"name":"proposer","type":"address","indexed":true,"internalType":"address"},{"name":"creditRoot","type":"uint256","indexed":false,"internalType":"uint256"},{"name":"endTime","type":"uint256","indexed":false,"internalType":"uint256"},{"name":"revealEndTime","type":"uint256","indexed":false,"internalType":"uint256"}],"anonymous":false},{"type":"event","name":"VoteCommitted","inputs":[{"name":"proposalId","type":"uint256","indexed":true,"internalType":"uint256"},{"name":"nullifier","type":"uint256","indexed":true,"internalType":"uint256"},{"name":"commitment","type":"uint256","indexed":false,"internalType":"uint256"},{"name":"numVotes","type":"uint256","indexed":false,"internalType":"uint256"},{"name":"creditsSpent","type":"uint256","indexed":false,"internalType":"uint256"}],"anonymous":false},{"type":"event","name":"VoteRevealed","inputs":[{"name":"proposalId","type":"uint256","indexed":true,"internalType":"uint256"},{"name":"nullifier","type":"uint256","indexed":true,"internalType":"uint256"},{"name":"choice","type":"uint256","indexed":false,"internalType":"uint256"},{"name":"numVotes","type":"uint256","indexed":false,"internalType":"uint256"},{"name":"creditsSpent","type":"uint256","indexed":false,"internalType":"uint256"}],"anonymous":false},{"type":"error","name":"AlreadyRevealed","inputs":[]},{"type":"error","name":"CommitmentNotFound","inputs":[]},{"type":"error","name":"InsufficientCredits","inputs":[]},{"type":"error","name":"InvalidChoice","inputs":[]},{"type":"error","name":"InvalidCreditRoot","inputs":[]},{"type":"error","name":"InvalidProof","inputs":[]},{"type":"error","name":"InvalidQuadraticCost","inputs":[]},{"type":"error","name":"InvalidReveal","inputs":[]},{"type":"error","name":"NotInCommitPhase","inputs":[]},{"type":"error","name":"NotInRevealPhase","inputs":[]},{"type":"error","name":"NullifierAlreadyUsed","inputs":[]},{"type":"error","name":"ProposalNotFound","inputs":[]}],"bytecode":{"object":"0x60a06040523461003f57610019610014610104565b61015c565b610021610044565b61359261016b823960805181818161097b0152612cbe015261359290f35b61004a565b60405190565b5f80fd5b601f801991011690565b634e487b7160e01b5f52604160045260245ffd5b906100769061004e565b810190811060018060401b0382111761008e57604052565b610058565b906100a661009f610044565b928361006c565b565b5f80fd5b60018060a01b031690565b6100c0906100ac565b90565b6100cc816100b7565b036100d357565b5f80fd5b905051906100e4826100c3565b565b906020828203126100ff576100fc915f016100d7565b90565b6100a8565b6101226136fd8038038061011781610093565b9283398101906100e6565b90565b90565b61013c610137610141926100ac565b610125565b6100ac565b90565b61014d90610128565b90565b61015990610144565b90565b61016590610150565b60805256fe60806040526004361015610013575b6115c7565b61001d5f356101ec565b8063013cf08b146101e7578063094243cb146101e25780630d70ece8146101dd57806316ef376b146101d857806320babb92146101d35780632b7ac3f3146101ce5780632bbe44fd146101c95780632c3556d6146101c457806333423c06146101bf578063417e70c8146101ba57806351c38f40146101b5578063697aa8e8146101b05780637164f0d6146101ab57806374dd0fea146101a65780638ea7a274146101a15780638eb609e61461019c578063974f7aa314610197578063a1c7574a14610192578063a329b3131461018d578063b065a8e514610188578063b5770c3314610183578063c7f758a81461017e578063d13e2e6014610179578063d544433614610174578063d90292a31461016f578063da35c6641461016a578063e78ffc9614610165578063ef3a2b39146101605763fb9607d30361000e57611594565b61155f565b611529565b6114bd565b61147a565b611410565b6113d0565b611267565b611157565b6110ec565b6110b7565b611056565b610f82565b610eaa565b610dc9565b610d5d565b610d23565b610ca1565b610c32565b610ba7565b610b52565b610a48565b610a00565b6109cb565b610932565b61080e565b6107b1565b61070f565b610691565b60e01c90565b60405190565b5f80fd5b5f80fd5b5f80fd5b90565b61021081610204565b0361021757565b5f80fd5b9050359061022882610207565b565b9060208282031261024357610240915f0161021b565b90565b6101fc565b90565b61025f61025a61026492610204565b610248565b610204565b90565b906102719061024b565b5f5260205260405f2090565b5f1c90565b90565b6102916102969161027d565b610282565b90565b6102a39054610285565b90565b634e487b7160e01b5f52602260045260245ffd5b90600160028304921680156102da575b60208310146102d557565b6102a6565b91607f16916102ca565b60209181520190565b5f5260205f2090565b905f9291805490610310610309836102ba565b80946102e4565b916001811690815f14610367575060011461032b575b505050565b61033891929394506102ed565b915f925b81841061034f57505001905f8080610326565b6001816020929593955484860152019101929061033c565b92949550505060ff19168252151560200201905f8080610326565b9061038c916102f6565b90565b601f801991011690565b634e487b7160e01b5f52604160045260245ffd5b906103b79061038f565b810190811067ffffffffffffffff8211176103d157604052565b610399565b906103f66103ef926103e66101f2565b93848092610382565b03836103ad565b565b60018060a01b031690565b61040f6104149161027d565b6103f8565b90565b6104219054610403565b90565b60ff1690565b61043661043b9161027d565b610424565b90565b610448905461042a565b90565b610456906001610267565b6104615f8201610299565b9161046e600183016103d6565b9161047b600282016103d6565b9161048860038301610417565b9161049560048201610299565b916104a260058301610299565b916104af60068201610299565b916104bc60078301610299565b916104c960088201610299565b916104d660098301610299565b916104e3600a8201610299565b916104f0600b8301610299565b916104fd600c8201610299565b91610516600e61050f600d8501610299565b930161043e565b90565b61052290610204565b9052565b5190565b60209181520190565b90825f9392825e0152565b61055d61056660209361056b9361055481610526565b9384809361052a565b95869101610533565b61038f565b0190565b60018060a01b031690565b6105839061056f565b90565b61058f9061057a565b9052565b151590565b6105a190610593565b9052565b939f9e9d9b99979593809d9b9997959392916101e08201915f016105c891610519565b8d80820390602001526105da9161053e565b8c80820390604001526105ec9161053e565b9d60608c016105fa91610586565b60808b0161060791610519565b60a08a0161061491610519565b60c0890161062191610519565b60e0880161062e91610519565b610100870161063c91610519565b610120860161064a91610519565b610140850161065891610519565b610160840161066691610519565b610180830161067491610519565b6101a0820161068291610519565b6101c00161068f91610598565b565b346106d857366106a290600461022a565b6106ab9061044b565b9a6106c69e9c9e9a919a9992999893989794979695966101f2565b9e8f9e8f9e6106d49f6105a5565b0390f35b6101f8565b919060408382031261070557806106f9610702925f860161021b565b9360200161021b565b90565b6101fc565b5f0190565b3461073e576107286107223660046106dd565b90611709565b6107306101f2565b8061073a8161070a565b0390f35b6101f8565b9061074d9061024b565b5f5260205260405f2090565b1c90565b61076d9060086107729302610759565b610424565b90565b90610780915461075d565b90565b610799906107946008915f92610743565b610775565b90565b91906107af905f60208501940190610598565b565b346107e1576107dd6107cc6107c736600461022a565b610783565b6107d46101f2565b9182918261079c565b0390f35b6101f8565b60ff1690565b6107f5906107e6565b9052565b919061080c905f602085019401906107ec565b565b3461083e5761083a61082961082436600461022a565b61180b565b6108316101f2565b918291826107f9565b0390f35b6101f8565b61084c8161057a565b0361085357565b5f80fd5b9050359061086482610843565b565b9060208282031261087f5761087c915f01610857565b90565b6101fc565b61089861089361089d9261056f565b610248565b61056f565b90565b6108a990610884565b90565b6108b5906108a0565b90565b906108c2906108ac565b5f5260205260405f2090565b6108d99060066108b8565b6108e45f8201610299565b916108fd60026108f660018501610299565b930161043e565b90565b604090610929610930949695939661091f60608401985f850190610519565b6020830190610519565b0190610598565b565b346109655761096161094d610948366004610866565b6108ce565b6109589391936101f2565b93849384610900565b0390f35b6101f8565b5f91031261097457565b6101fc565b7f000000000000000000000000000000000000000000000000000000000000000090565b6109a6906108a0565b90565b6109b29061099d565b9052565b91906109c9905f602085019401906109a9565b565b346109fb576109db36600461096a565b6109f76109e6610979565b6109ee6101f2565b918291826109b6565b0390f35b6101f8565b34610a2e57610a18610a1336600461022a565b6118cb565b610a206101f2565b80610a2a8161070a565b0390f35b6101f8565b9190610a46905f60208501940190610519565b565b34610a7857610a74610a63610a5e36600461022a565b6119c9565b610a6b6101f2565b91829182610a33565b0390f35b6101f8565b5f80fd5b5f80fd5b5f80fd5b909182601f83011215610ac35781359167ffffffffffffffff8311610abe576020019260018302840111610ab957565b610a85565b610a81565b610a7d565b909160a082840312610b4d575f82013567ffffffffffffffff8111610b485783610af3918401610a89565b929093602082013567ffffffffffffffff8111610b435781610b16918401610a89565b929093610b40610b29846040850161021b565b93610b37816060860161021b565b9360800161021b565b90565b610200565b610200565b6101fc565b34610b8957610b85610b74610b68366004610ac8565b95949094939193611f54565b610b7c6101f2565b91829182610a33565b0390f35b6101f8565b610ba490610b9f6004915f92610743565b610775565b90565b34610bd757610bd3610bc2610bbd36600461022a565b610b8e565b610bca6101f2565b9182918261079c565b0390f35b6101f8565b919060a083820312610c2d57610bf4815f850161021b565b92610c02826020830161021b565b92610c2a610c13846040850161021b565b93610c21816060860161021b565b9360800161021b565b90565b6101fc565b34610c6457610c4e610c45366004610bdc565b939290926122e2565b610c566101f2565b80610c608161070a565b0390f35b6101f8565b90565b610c80610c7b610c8592610c69565b610248565b610204565b90565b610c93612710610c6c565b90565b610c9e610c88565b90565b34610cd157610cb136600461096a565b610ccd610cbc610c96565b610cc46101f2565b91829182610a33565b0390f35b6101f8565b90959492610d2194610d10610d1a92610d06608096610cfc60a088019c5f890190610519565b6020870190610519565b6040850190610519565b6060830190610598565b0190610519565b565b34610d5857610d54610d3f610d393660046106dd565b906127a5565b91610d4b9593956101f2565b95869586610cd6565b0390f35b6101f8565b34610d8d57610d89610d78610d7336600461022a565b61286a565b610d806101f2565b91829182610a33565b0390f35b6101f8565b90565b610da9610da4610dae92610d92565b610248565b610204565b90565b610dbb6001610d95565b90565b610dc6610db1565b90565b34610df957610dd936600461096a565b610df5610de4610dbe565b610dec6101f2565b91829182610a33565b0390f35b6101f8565b91906020600202830111610e0e57565b610a85565b91906040600202830111610e2357565b610a85565b91906101a083820312610ea557610e41815f850161021b565b92610e4f826020830161021b565b92610e5d836040840161021b565b92610e6b816060850161021b565b92610e79826080830161021b565b92610ea2610e8a8460a08501610dfe565b93610e988160e08601610e13565b9361016001610dfe565b90565b6101fc565b34610ee257610ecc610ebd366004610e28565b96959095949194939293612bbf565b610ed46101f2565b80610ede8161070a565b0390f35b6101f8565b634e487b7160e01b5f52603260045260245ffd5b5490565b5f5260205f2090565b610f1181610efb565b821015610f2b57610f23600191610eff565b910201905f90565b610ee7565b610f40906008610f459302610759565b610282565b90565b90610f539154610f30565b90565b6007610f6181610efb565b821015610f7e57610f7b91610f7591610f08565b90610f48565b90565b5f80fd5b34610fb257610fae610f9d610f9836600461022a565b610f56565b610fa56101f2565b91829182610a33565b0390f35b6101f8565b5190565b60209181520190565b60200190565b610fd390610204565b9052565b90610fe481602093610fca565b0190565b60200190565b9061100b611005610ffe84610fb7565b8093610fbb565b92610fc4565b905f5b81811061101b5750505090565b90919261103461102e6001928651610fd7565b94610fe8565b910191909161100e565b6110539160208201915f818403910152610fee565b90565b346110865761106636600461096a565b611082611071613171565b6110796101f2565b9182918261103e565b0390f35b6101f8565b600561109681610efb565b8210156110b3576110b0916110aa91610f08565b90610f48565b90565b5f80fd5b346110e7576110e36110d26110cd36600461022a565b61108b565b6110da6101f2565b91829182610a33565b0390f35b6101f8565b3461111c57611118611107611102366004610866565b613187565b61110f6101f2565b91829182610a33565b0390f35b6101f8565b90565b61113861113361113d92611121565b610248565b610204565b90565b6111495f611124565b90565b611154611140565b90565b346111875761116736600461096a565b61118361117261114c565b61117a6101f2565b91829182610a33565b0390f35b6101f8565b809c9a9896949f9e9d9b9997959392916101c08201915f016111ad91610519565b8c80820390602001526111bf9161053e565b8b810360408d01526111d09161053e565b9c60608b016111de91610586565b60808a016111eb91610519565b60a089016111f891610519565b60c0880161120591610519565b60e0870161121291610519565b610100860161122091610519565b610120850161122e91610519565b610140840161123c91610519565b610160830161124a91610519565b610180820161125891610519565b6101a001611265916107ec565b565b346112aa576112a661128261127d36600461022a565b613201565b9a61129d9e9c9e9a919a9992999893989794979695966101f2565b9e8f9e8f61118c565b0390f35b6101f8565b906112b99061024b565b5f5260205260405f2090565b906112cf9061024b565b5f5260205260405f2090565b906112ea6112ef9260026112af565b6112c5565b906112fb5f8301610299565b9161130860018201610299565b9161131560028301610299565b9161132260038201610299565b9161132f60048301610299565b9161133c6005820161043e565b91611355600761134e60068501610299565b930161043e565b90565b959391989796949290986101008701995f880161137491610519565b6020870161138191610519565b6040860161138e91610519565b6060850161139b91610519565b608084016113a891610519565b60a083016113b591610598565b60c082016113c291610519565b60e0016113ce91610598565b565b3461140b576114076113ec6113e63660046106dd565b906112db565b946113fe9896989491949392936101f2565b98899889611358565b0390f35b6101f8565b3461143e5761142861142336600461022a565b613401565b6114306101f2565b8061143a8161070a565b0390f35b6101f8565b90565b61145a61145561145f92611443565b610248565b610204565b90565b61146c6002611446565b90565b611477611462565b90565b346114aa5761148a36600461096a565b6114a661149561146f565b61149d6101f2565b91829182610a33565b0390f35b6101f8565b6114ba5f5f90610f48565b90565b346114ed576114cd36600461096a565b6114e96114d86114af565b6114e06101f2565b91829182610a33565b0390f35b6101f8565b906114fc9061024b565b5f5260205260405f2090565b6115216115269261151c6003935f946114f2565b610743565b610775565b90565b3461155a5761155661154561153f3660046106dd565b90611508565b61154d6101f2565b9182918261079c565b0390f35b6101f8565b3461158f5761158b61157a61157536600461022a565b613471565b6115826101f2565b9182918261079c565b0390f35b6101f8565b346115c2576115a436600461096a565b6115ac613490565b6115b46101f2565b806115be8161070a565b0390f35b6101f8565b5f80fd5b90565b5f1b90565b906115df5f19916115ce565b9181191691161790565b90565b906116016115fc6116089261024b565b6115e9565b82546115d3565b9055565b9061161860ff916115ce565b9181191691161790565b61162b90610593565b90565b90565b9061164661164161164d92611622565b61162e565b825461160c565b9055565b90565b5f5260205f2090565b5490565b61166a8161165d565b8210156116845761167c600191611654565b910201905f90565b610ee7565b1b90565b919060086116a89102916116a25f1984611689565b92611689565b9181191691161790565b91906116c86116c36116d09361024b565b6115e9565b90835461168d565b9055565b908154916801000000000000000083101561170457826116fc91600161170295018155611661565b906116b2565b565b610399565b61171761171c916001610267565b6115cb565b61173161172b600e830161043e565b15610593565b611797576117439060078391016115ec565b61176061175a61175560048490610743565b61043e565b15610593565b611768575b50565b61179190611782600161177d60048490610743565b611631565b61178c6005611651565b6116d4565b5f611765565b5f63635e873760e01b8152806117af6004820161070a565b0390fd5b5f90565b6117cb6117c66117d092611121565b610248565b6107e6565b90565b6117e76117e26117ec92610d92565b610248565b6107e6565b90565b6118036117fe61180892611443565b610248565b6107e6565b90565b6118226118279161181a6117b3565b506001610267565b6115cb565b61183c611836600e830161043e565b15610593565b6118af574261185e61185861185360058501610299565b610204565b91610204565b11156118a25761188261187c6118776006429401610299565b610204565b91610204565b11156118955761189260026117ef565b90565b61189f60016117d3565b90565b506118ac5f6117b7565b90565b5f63635e873760e01b8152806118c76004820161070a565b0390fd5b6118df6118da60088390610743565b61043e565b611953576118f960016118f460088490610743565b611631565b61190d6119066007611651565b82906116d4565b429061194e61193c7f1926a241ba9d59467ac0063e2cb861452b93ab650fff5378a82e86befecc27ab9261024b565b926119456101f2565b91829182610a33565b0390a2565b50565b5f90565b634e487b7160e01b5f52601160045260245ffd5b61197d61198391939293610204565b92610204565b820180921161198e57565b61195a565b634e487b7160e01b5f52601260045260245ffd5b6119b36119b991610204565b91610204565b9081156119c4570490565b611993565b906119d2611956565b50816119e66119e05f611124565b91610204565b14611a665781611a13611a03826119fd6001610d95565b9061196e565b611a0d6002611446565b906119a7565b905b81611a28611a2283610204565b91610204565b1015611a5f575090611a58611a4883611a428686906119a7565b9061196e565b611a526002611446565b906119a7565b9091611a15565b9192505090565b9050611a715f611124565b90565b611a7d90610204565b5f198114611a8b5760010190565b61195a565b90611aa3611a9c6101f2565b92836103ad565b565b611ab06101e0611a90565b90565b90611abd90610204565b9052565b5f80fd5b67ffffffffffffffff8111611ae357611adf60209161038f565b0190565b610399565b90825f939282370152565b90929192611b08611b0382611ac5565b611a90565b93818552602085019082840111611b2457611b2292611ae8565b565b611ac1565b611b34913691611af3565b90565b52565b90611b449061057a565b9052565b90611b5290610593565b9052565b611b609051610204565b90565b5190565b601f602091010490565b611b8391611b7d611956565b916116b2565b565b5f5b828110611b9357505050565b80611ba25f6001938501611b71565b01611b87565b9190601f8111611bb8575b505050565b818111611bc5575b611bb3565b611bda611bd4611bf8946102ed565b91611b67565b916020611be682611b67565b9110611c00575b809101910390611b85565b5f8080611bc0565b505f611bed565b90611c17905f1990600802610759565b191690565b81611c2691611c07565b906002021790565b90611c3881610526565b9067ffffffffffffffff8211611cf857611c5c82611c5685546102ba565b85611ba8565b602090601f8311600114611c9057918091611c7f935f92611c84575b5050611c1c565b90555b565b90915001515f80611c78565b601f19831691611c9f856102ed565b925f5b818110611ce057509160029391856001969410611cc6575b50505002019055611c82565b611cd6910151601f841690611c07565b90555f8080611cba565b91936020600181928787015181550195019201611ca2565b610399565b90611d0791611c2e565b565b611d13905161057a565b90565b90611d2760018060a01b03916115ce565b9181191691161790565b90565b90611d49611d44611d50926108ac565b611d31565b8254611d16565b9055565b611d5e9051610593565b90565b90611ed86101c0600e611ede94611d855f8201611d7f5f8801611b56565b906115ec565b611d9e60018201611d9860208801611b63565b90611cfd565b611db760028201611db160408801611b63565b90611cfd565b611dd060038201611dca60608801611d09565b90611d34565b611de960048201611de360808801611b56565b906115ec565b611e0260058201611dfc60a08801611b56565b906115ec565b611e1b60068201611e1560c08801611b56565b906115ec565b611e3460078201611e2e60e08801611b56565b906115ec565b611e4e60088201611e486101008801611b56565b906115ec565b611e6860098201611e626101208801611b56565b906115ec565b611e82600a8201611e7c6101408801611b56565b906115ec565b611e9c600b8201611e966101608801611b56565b906115ec565b611eb6600c8201611eb06101808801611b56565b906115ec565b611ed0600d8201611eca6101a08801611b56565b906115ec565b019201611d54565b90611631565b565b90611eea91611d61565b565b9190611f0681611eff81611f0b9561052a565b8095611ae8565b61038f565b0190565b90611f5294611f41611f36611f4b936060969a99979a60808701918783035f890152611eec565b986020850190610519565b6040830190610519565b0190610519565b565b92959195611f60611956565b50611f7e611f78611f7360048890610743565b61043e565b15610593565b61218b57611f8b5f610299565b611f9490611a74565b611f9e905f6115ec565b611fa75f610299565b96879185908492428a611fb99161196e565b91428b611fc59161196e565b88611fcf9161196e565b938a95611fda611aa5565b975f890190611fe891611ab3565b611ff191611b29565b6020870190611fff91611b37565b61200891611b29565b604085019061201691611b37565b33606085019061202591611b3a565b42608085019061203491611ab3565b60a084019061204291611ab3565b60c083019061205091611ab3565b60e082019061205e91611ab3565b6120675f611124565b61010082019061207691611ab3565b61207f5f611124565b61012082019061208e91611ab3565b6120975f611124565b6101408201906120a691611ab3565b6120af5f611124565b6101608201906120be91611ab3565b6120c75f611124565b6101808201906120d691611ab3565b6120df5f611124565b6101a08201906120ee91611ab3565b6101c0810160016120fe91611b48565b60018761210a91610267565b9061211491611ee0565b859233949242876121249161196e565b9642906121309161196e565b9061213a9161196e565b7f28528fa183090d38f4c35574bb13fb455a547bda31d9bc9520957c9558f52f8e946121659061024b565b9561216f906108ac565b966121786101f2565b9485946121859486611f0f565b0390a390565b5f633398105560e01b8152806121a36004820161070a565b0390fd5b90565b90565b67ffffffffffffffff81116121c25760200290565b610399565b6121d36121d8916121ad565b611a90565b90565b60e01b90565b905051906121ee82610207565b565b9060208282031261220957612206915f016121e1565b90565b6101fc565b50600490565b905090565b90565b61222590610204565b9052565b906122368160209361221c565b0190565b60200190565b61225c61225661224f8361220e565b8094612214565b91612219565b5f915b83831061226c5750505050565b61228261227c6001928451612229565b9261223a565b9201919061225f565b919061229e905f60808501940190612240565b565b6122a86101f2565b3d5f823e3d90fd5b6040906122d96122e094969593966122cf60608401985f850190610519565b6020830190610519565b0190610519565b565b93909192936122fb6122f660018390610267565b6115cb565b61231961231461230d600285906112af565b86906112c5565b6121a7565b9261232f612329600e840161043e565b15610593565b612785574261235161234b61234660058601610299565b610204565b91610204565b1115612769574261237561236f61236a60068601610299565b610204565b91610204565b1161274d5761238f6123896007860161043e565b15610593565b6127315761239f6005850161043e565b61271557856123bd6123b76123b2611462565b610204565b91610204565b116126f95761245460206123e473__$0daf1669a85ce10529e05b8a030b9567e1$__6121aa565b638709cd8c906124496123f760046121c7565b926124048c5f8601611ab3565b6124108d868601611ab3565b61242861241f60018c01610299565b60408601611ab3565b6124358960608601611ab3565b61243d6101f2565b958694859384936121db565b83526004830161228b565b03915af49182156126f457612500926020925f916126c7575b50906124f561248f73__$0daf1669a85ce10529e05b8a030b9567e1$__6121aa565b916124b7638709cd8c916124af6124a660046121c7565b965f8801611ab3565b868601611ab3565b6124cc6124c35f611124565b60408601611ab3565b6124e16124d85f611124565b60608601611ab3565b6124e96101f2565b958694859384936121db565b83526004830161228b565b03915af49081156126c2575f91612694575b5061252f6125296125245f8701610299565b610204565b91610204565b03612678576125be916125b4600d60019361254d8560058901611631565b61255a89600689016115ec565b8861257461256e612569610db1565b610204565b91610204565b145f1461260c5761259b8a612595600884019161259083610299565b61196e565b906115ec565b5b016125ae6125a982610299565b611a74565b906115ec565b9394959201610299565b936126076125f56125ef7f30a79e72693ce3de4f5d96c7167c1cf349d2520bd766c2cfc8b684ec71ab18029561024b565b9561024b565b956125fe6101f2565b938493846122b0565b0390a3565b8861262661262061261b611140565b610204565b91610204565b145f146126535761264d8a612647600984019161264283610299565b61196e565b906115ec565b5b61259c565b6126738a61266d600a84019161266883610299565b61196e565b906115ec565b61264e565b5f639ea6d12760e01b8152806126906004820161070a565b0390fd5b6126b5915060203d81116126bb575b6126ad81836103ad565b8101906121f0565b5f612512565b503d6126a3565b6122a0565b6126e79150833d81116126ed575b6126df81836103ad565b8101906121f0565b5f61246d565b503d6126d5565b6122a0565b5f639c45400160e01b8152806127116004820161070a565b0390fd5b5f63a89ac15160e01b81528061272d6004820161070a565b0390fd5b5f635b34156960e11b8152806127496004820161070a565b0390fd5b5f6374683d7160e01b8152806127656004820161070a565b0390fd5b5f6374683d7160e01b8152806127816004820161070a565b0390fd5b5f63635e873760e01b81528061279d6004820161070a565b0390fd5b5f90565b6127ee916127e46127e9926127b8611956565b506127c1611956565b506127ca611956565b506127d36127a1565b506127dc611956565b5060026112af565b6112c5565b6121a7565b906127fa5f8301610299565b9161280760018201610299565b9261281460028301610299565b9261282d60066128266005860161043e565b9401610299565b919493929190565b61284461284a91939293610204565b92610204565b91612856838202610204565b92818404149015171561286557565b61195a565b61287d90612876611956565b5080612835565b90565b67ffffffffffffffff81116128955760200290565b610399565b6128a66128ab91612880565b611a90565b90565b6128b781610593565b036128be57565b5f80fd5b905051906128cf826128ae565b565b906020828203126128ea576128e7915f016128c2565b90565b6101fc565b9037565b6128ff916040916128ef565b565b50600290565b905090565b90565b61291b916040916128ef565b565b9061292a8160409361290f565b0190565b5090565b60400190565b61295461294e61294783612901565b8094612907565b9161290c565b805f925b848410612966575050505050565b61298461297e600192612979868661292e565b61291d565b93612932565b93019291612958565b50600590565b905090565b90565b60200190565b6129bd6129b76129b08361298d565b8094612993565b91612998565b5f915b8383106129cd5750505050565b6129e36129dd6001928451610fd7565b9261299b565b920191906129c0565b612a23612a2a94612a1961010094989795612a0f6101a086019a5f8701906128f3565b6040850190612938565b60c08301906128f3565b01906129a1565b565b612a366060611a90565b90565b90612a7d60406002612a8394612a5c5f8201612a565f8801611b56565b906115ec565b612a7560018201612a6f60208801611b56565b906115ec565b019201611d54565b90611631565b565b90612a8f91612a39565b565b90565b612aa3612aa991939293610204565b92610204565b8203918211612ab457565b61195a565b916020612ada929493612ad360408201965f830190610519565b0190610519565b565b612ae7610100611a90565b90565b90612bab60e06007612bb194612b0d5f8201612b075f8801611b56565b906115ec565b612b2660018201612b2060208801611b56565b906115ec565b612b3f60028201612b3960408801611b56565b906115ec565b612b5860038201612b5260608801611b56565b906115ec565b612b7160048201612b6b60808801611b56565b906115ec565b612b8a60058201612b8460a08801611d54565b90611631565b612ba360068201612b9d60c08801611b56565b906115ec565b019201611d54565b90611631565b565b90612bbd91612aea565b565b9293949690959196612bdb612bd660018690610267565b6115cb565b92612bf1612beb600e860161043e565b15610593565b6130a25742612c13612c0d612c0860058801610299565b610204565b91610204565b1161308657612c36612c31612c2a600388906114f2565b8990610743565b61043e565b61306a57612c438961286a565b612c56612c508892610204565b91610204565b0361304e57602091612cff612c6b600561289a565b612c778a5f8301611ab3565b612c838b868301611ab3565b612c908860408301611ab3565b612c9d8960608301611ab3565b612cb5612cac60078901610299565b60808301611ab3565b91612d0a612ce27f000000000000000000000000000000000000000000000000000000000000000061099d565b936334baeab9929597612cf36101f2565b988997889687966121db565b8652600486016129ec565b03915afa801561304957612d26915f9161301b575b5015610593565b612fff57612d4a612d446002612d3e600633906108b8565b0161043e565b15610593565b612fa6575b612d63612d5e600633906108b8565b612a91565b612d83612d715f8301610299565b612d7d60018401610299565b90612a94565b612d96612d908692610204565b91610204565b11612f8a57838160010190612daa82610299565b90612db49161196e565b612dbd916115ec565b338491805f01612dcc90610299565b90600101612dd990610299565b612de291612a94565b917f380f4b80ac5d183ff04f143a097611558815196006b7297cae774c0b5680a5ee91612e0e906108ac565b92612e176101f2565b918291612e249183612ab9565b0390a26001600383612e35916114f2565b85612e3f91610743565b90612e4991611631565b84838786425f915f93600195612e5d612adc565b975f890190612e6b91611ab3565b6020880190612e7991611ab3565b6040870190612e8791611ab3565b6060860190612e9591611ab3565b6080850190612ea391611ab3565b60a0840190612eb191611b48565b612eba90611124565b60c0830190612ec891611ab3565b60e0820190612ed691611b48565b600283612ee2916112af565b85612eec916112c5565b90612ef691612bb3565b80600c01612f0381610299565b612f0c90611a74565b612f15916115ec565b8290600b0190612f2482610299565b90612f2e9161196e565b612f37916115ec565b9192937f9b4d459382e25852cbc474f9f0a4f5bcf6a390587a897b91a8620533941685a592612f659061024b565b93612f6f9061024b565b94612f786101f2565b928392612f8592846122b0565b0390a3565b5f6343fb945360e01b815280612fa26004820161070a565b0390fd5b612ffa612fb1610c88565b612fe95f612fe0612fd7600192612fd2612fc9612a2c565b965f8801611ab3565b611124565b60208501611ab3565b60408301611b48565b612ff5600633906108b8565b612a85565b612d4f565b5f6309bde33960e01b8152806130176004820161070a565b0390fd5b61303c915060203d8111613042575b61303481836103ad565b8101906128d1565b5f612d1f565b503d61302a565b6122a0565b5f6315252a2960e21b8152806130666004820161070a565b0390fd5b5f636569570160e11b8152806130826004820161070a565b0390fd5b5f63abfb7dc360e01b81528061309e6004820161070a565b0390fd5b5f63635e873760e01b8152806130ba6004820161070a565b0390fd5b606090565b60209181520190565b6130d69054610285565b90565b60010190565b906130fc6130f66130ef84610efb565b80936130c3565b92610eff565b905f5b81811061310c5750505090565b90919261312c613126600192613121876130cc565b610fd7565b946130d9565b91019190916130ff565b90613140916130df565b90565b9061316361315c926131536101f2565b93848092613136565b03836103ad565b565b61316e90613143565b90565b6131796130be565b506131846007613165565b90565b61319e6131a391613196611956565b5060066108b8565b612a91565b6131b86131b26002830161043e565b15610593565b6131e057806131d760016131d05f6131dd9501610299565b9201610299565b90612a94565b90565b506131e9610c88565b90565b606090565b5f90565b6131fe906103d6565b90565b61328d61329291613210611956565b506132196131ec565b506132226131ec565b5061322b6131f1565b50613234611956565b5061323d611956565b50613246611956565b5061324f611956565b50613258611956565b50613261611956565b5061326a611956565b50613273611956565b5061327c611956565b506132856117b3565b506001610267565b6115cb565b906132a86132a2600e840161043e565b15610593565b6133e5576132b46117b3565b50426132d36132cd6132c860058601610299565b610204565b91610204565b11155f1461339e576132e45f6117b7565b915b6132f15f8201610299565b926001820193600283019361330860038501610417565b9361331560078201610299565b9361332260058301610299565b9361332f60068401610299565b9361333c60088501610299565b9361334960098201610299565b93613356600a8301610299565b93613363600b8401610299565b9361339061338a613382600d61337b600c8901610299565b9701610299565b94939f6131f5565b9d6131f5565b9b9a99989796959493929190565b426133bc6133b66133b160068601610299565b610204565b91610204565b11155f146133d5576133ce60016117d3565b915b6132e6565b6133df60026117ef565b916133d0565b5f63635e873760e01b8152806133fd6004820161070a565b0390fd5b613417600161341260048490610743565b611631565b61342b6134246005611651565b82906116d4565b429061346c61345a7fc437041eca78e842ff32dc1036255a23da98c52b2f3bd3a875923aadb0276b3d9261024b565b926134636101f2565b91829182610a33565b0390a2565b61348861348d916134806127a1565b506004610743565b61043e565b90565b6134b06134aa60026134a4600633906108b8565b0161043e565b15610593565b6134b7575b565b61350b6134c2610c88565b6134fa5f6134f16134e86001926134e36134da612a2c565b965f8801611ab3565b611124565b60208501611ab3565b60408301611b48565b613506600633906108b8565b612a85565b33613514610c88565b906135546135427f840108f8f5f45d25a166719fa7440c37016845a955726b639e64fb325f731007926108ac565b9261354b6101f2565b91829182610a33565b0390a26134b556fea2646970667358221220d573fba79d3ef7c64bcd333275b1553763926fdbd363b051022c219f7d3163d464736f6c63430008210033","linkReferences":{"contracts/PoseidonT5.sol":{"PoseidonT5":[{"start":9527,"length":20},{"start":9698,"length":20}]}}},"methodIdentifiers":{"CHOICE_ABSTAIN()":"d90292a3","CHOICE_AGAINST()":"b5770c33","CHOICE_FOR()":"8ea7a274","INITIAL_CREDITS()":"697aa8e8","calculateMaxVotes(uint256)":"2c3556d6","calculateQuadraticCost(uint256)":"74dd0fea","commitVoteQuadratic(uint256,uint256,uint256,uint256,uint256,uint256[2],uint256[2][2],uint256[2])":"8eb609e6","commitments(uint256,uint256)":"d13e2e60","createProposal(string,string,uint256,uint256,uint256)":"33423c06","creditRootHistory(uint256)":"a329b313","getAvailableCredits(address)":"b065a8e5","getCommitment(uint256,uint256)":"7164f0d6","getPhase(uint256)":"16ef376b","getProposal(uint256)":"c7f758a8","getRegisteredCreditNotes()":"a1c7574a","initializeCredits()":"fb9607d3","isCreditNoteRegistered(uint256)":"0d70ece8","isCreditRootValid(uint256)":"ef3a2b39","nullifierUsed(uint256,uint256)":"e78ffc96","proposalCount()":"da35c664","proposals(uint256)":"013cf08b","registerCreditNote(uint256)":"2bbe44fd","registerCreditRoot(uint256)":"d5444336","registeredCreditNotes(uint256)":"974f7aa3","revealVote(uint256,uint256,uint256,uint256,uint256)":"51c38f40","updateProposalCredits(uint256,uint256)":"094243cb","userCredits(address)":"20babb92","validCreditRoots(uint256)":"417e70c8","verifier()":"2b7ac3f3"},"id":4}