{"abi":[{"type":"constructor","inputs":[],"stateMutability":"nonpayable"},{"type":"function","name":"getProcessVk","inputs":[{"name":"_stateTreeDepth","type":"uint256","internalType":"uint256"},{"name":"_messageTreeDepth","type":"uint256","internalType":"uint256"}],"outputs":[{"name":"","type":"uint256[]","internalType":"uint256[]"}],"stateMutability":"view"},{"type":"function","name":"getTallyVk","inputs":[{"name":"_stateTreeDepth","type":"uint256","internalType":"uint256"},{"name":"_messageTreeDepth","type":"uint256","internalType":"uint256"}],"outputs":[{"name":"","type":"uint256[]","internalType":"uint256[]"}],"stateMutability":"view"},{"type":"function","name":"isProcessVkSet","inputs":[{"name":"","type":"bytes32","internalType":"bytes32"}],"outputs":[{"name":"","type":"bool","internalType":"bool"}],"stateMutability":"view"},{"type":"function","name":"isTallyVkSet","inputs":[{"name":"","type":"bytes32","internalType":"bytes32"}],"outputs":[{"name":"","type":"bool","internalType":"bool"}],"stateMutability":"view"},{"type":"function","name":"owner","inputs":[],"outputs":[{"name":"","type":"address","internalType":"address"}],"stateMutability":"view"},{"type":"function","name":"processVks","inputs":[{"name":"","type":"bytes32","internalType":"bytes32"},{"name":"","type":"uint256","internalType":"uint256"}],"outputs":[{"name":"","type":"uint256","internalType":"uint256"}],"stateMutability":"view"},{"type":"function","name":"setVerifyingKeys","inputs":[{"name":"_stateTreeDepth","type":"uint256","internalType":"uint256"},{"name":"_messageTreeDepth","type":"uint256","internalType":"uint256"},{"name":"_processVk","type":"uint256[]","internalType":"uint256[]"},{"name":"_tallyVk","type":"uint256[]","internalType":"uint256[]"}],"outputs":[],"stateMutability":"nonpayable"},{"type":"function","name":"tallyVks","inputs":[{"name":"","type":"bytes32","internalType":"bytes32"},{"name":"","type":"uint256","internalType":"uint256"}],"outputs":[{"name":"","type":"uint256","internalType":"uint256"}],"stateMutability":"view"},{"type":"event","name":"ProcessVkSet","inputs":[{"name":"stateTreeDepth","type":"uint256","indexed":false,"internalType":"uint256"},{"name":"messageTreeDepth","type":"uint256","indexed":false,"internalType":"uint256"}],"anonymous":false},{"type":"event","name":"TallyVkSet","inputs":[{"name":"stateTreeDepth","type":"uint256","indexed":false,"internalType":"uint256"},{"name":"messageTreeDepth","type":"uint256","indexed":false,"internalType":"uint256"}],"anonymous":false}],"bytecode":{"object":"0x608060405234602257600e60a3565b60146026565b610fea6100ae8239610fea90f35b602c565b60405190565b5f80fd5b5f1b90565b90604460018060a01b03916030565b9181191691161790565b60018060a01b031690565b90565b606b6067606f92604e565b6059565b604e565b90565b607990605c565b90565b6083906072565b90565b90565b9060996095609f92607c565b6086565b82546035565b9055565b60ab335f6089565b56fe60806040526004361015610013575b6106d9565b61001d5f3561009c565b80633ee1e45e1461009757806358e88fd1146100925780635dc2c5ba1461008d578063607692401461008857806375c131d0146100835780638da5cb5b1461007e578063cf0920ba146100795763db1823610361000e576106a3565b610638565b6104f7565b61043b565b6103ec565b6103b6565b6102b0565b61018a565b60e01c90565b60405190565b5f80fd5b5f80fd5b5f80fd5b90565b6100c0816100b4565b036100c757565b5f80fd5b905035906100d8826100b7565b565b906020828203126100f3576100f0915f016100cb565b90565b6100ac565b610101906100b4565b90565b9061010e906100f8565b5f5260205260405f2090565b1c90565b60ff1690565b610134906008610139930261011a565b61011e565b90565b906101479154610124565b90565b6101609061015b6004915f92610104565b61013c565b90565b151590565b61017190610163565b9052565b9190610188905f60208501940190610168565b565b346101ba576101b66101a56101a03660046100da565b61014a565b6101ad6100a2565b91829182610175565b0390f35b6100a8565b90565b6101cb816101bf565b036101d257565b5f80fd5b905035906101e3826101c2565b565b5f80fd5b5f80fd5b5f80fd5b909182601f8301121561022b5781359167ffffffffffffffff831161022657602001926020830284011161022157565b6101ed565b6101e9565b6101e5565b91906080838203126102a657610248815f85016101d6565b9261025682602083016101d6565b92604082013567ffffffffffffffff81116102a157836102779184016101f1565b929093606082013567ffffffffffffffff811161029c5761029892016101f1565b9091565b6100b0565b6100b0565b6100ac565b5f0190565b346102e5576102cf6102c3366004610230565b94939093929192610cc8565b6102d76100a2565b806102e1816102ab565b0390f35b6100a8565b9190604083820312610312578061030661030f925f86016101d6565b936020016101d6565b90565b6100ac565b5190565b60209181520190565b60200190565b610333906101bf565b9052565b906103448160209361032a565b0190565b60200190565b9061036b61036561035e84610317565b809361031b565b92610324565b905f5b81811061037b5750505090565b90919261039461038e6001928651610337565b94610348565b910191909161036e565b6103b39160208201915f81840391015261034e565b90565b346103e7576103e36103d26103cc3660046102ea565b90610e42565b6103da6100a2565b9182918261039e565b0390f35b6100a8565b3461041d576104196104086104023660046102ea565b90610f3c565b6104106100a2565b9182918261039e565b0390f35b6100a8565b610438906104336003915f92610104565b61013c565b90565b3461046b576104676104566104513660046100da565b610422565b61045e6100a2565b91829182610175565b0390f35b6100a8565b5f91031261047a57565b6100ac565b60018060a01b031690565b61049a90600861049f930261011a565b61047f565b90565b906104ad915461048a565b90565b6104bb5f5f906104a2565b90565b60018060a01b031690565b6104d2906104be565b90565b6104de906104c9565b9052565b91906104f5905f602085019401906104d5565b565b3461052757610507366004610470565b6105236105126104b0565b61051a6100a2565b918291826104e2565b0390f35b6100a8565b91906040838203126105545780610548610551925f86016100cb565b936020016101d6565b90565b6100ac565b90610563906100f8565b5f5260205260405f2090565b634e487b7160e01b5f52603260045260245ffd5b5490565b5f5260205f2090565b61059981610583565b8210156105b3576105ab600191610587565b910201905f90565b61056f565b90565b6105cb9060086105d0930261011a565b6105b8565b90565b906105de91546105bb565b90565b6105ec906001610559565b6105f581610583565b8210156106125761060f9161060991610590565b906105d3565b90565b5f80fd5b61061f906101bf565b9052565b9190610636905f60208501940190610616565b565b346106695761066561065461064e36600461052c565b906105e1565b61065c6100a2565b91829182610623565b0390f35b6100a8565b610679906002610559565b61068281610583565b82101561069f5761069c9161069691610590565b906105d3565b90565b5f80fd5b346106d4576106d06106bf6106b936600461052c565b9061066e565b6106c76100a2565b91829182610623565b0390f35b6100a8565b5f80fd5b5f1c90565b6106ee6106f3916106dd565b61047f565b90565b61070090546106e2565b90565b60209181520190565b5f7f4f6e6c79206f776e657200000000000000000000000000000000000000000000910152565b610740600a602092610703565b6107498161070c565b0190565b6107629060208101905f818303910152610733565b90565b1561076c57565b6107746100a2565b62461bcd60e51b81528061078a6004820161074d565b0390fd5b906107c095949392916107bb336107b56107af6107aa5f6106f6565b6104c9565b916104c9565b14610765565b610acf565b565b90565b6107d16107d6916101bf565b6107c2565b9052565b6020816107ec6107f4938396956107c5565b0180926107c5565b0190565b601f801991011690565b634e487b7160e01b5f52604160045260245ffd5b90610820906107f8565b810190811067ffffffffffffffff82111761083a57604052565b610802565b60200190565b5190565b600190818003010490565b1b90565b9190600861087391029161086d5f1984610854565b92610854565b9181191691161790565b90565b61089461088f610899926101bf565b61087d565b6101bf565b90565b90565b91906108b56108b06108bd93610880565b61089c565b908354610858565b9055565b5f90565b6108d7916108d16108c1565b9161089f565b565b5f5b8281106108e757505050565b806108f65f60019385016108c5565b016108db565b919080821061090b575b505050565b6109359261092461091e61092c93610849565b93610849565b918291610587565b019103906108d9565b5f8080610906565b90680100000000000000008111610966578161095b61096493610583565b908281556108fc565b565b610802565b5f6109759161093d565b565b634e487b7160e01b5f525f60045260245ffd5b905f0361099c5761099a9061096b565b565b610977565b90565b6109b86109b36109bd926109a1565b61087d565b6101bf565b90565b60016109cc91016101bf565b90565b5090565b90565b91908110156109e6576020020190565b61056f565b356109f5816101c2565b90565b5f5260205f2090565b5490565b610a0e81610a01565b821015610a2857610a206001916109f8565b910201905f90565b61056f565b9081549168010000000000000000831015610a5d5782610a55916001610a5b95018155610a05565b9061089f565b565b610802565b5f1b90565b90610a7360ff91610a62565b9181191691161790565b610a8690610163565b90565b90565b90610aa1610a9c610aa892610a7d565b610a89565b8254610a67565b9055565b916020610acd929493610ac660408201965f830190610616565b0190610616565b565b9094959293919581610b028791610af3610ae76100a2565b938492602084016107da565b60208201810382520382610816565b610b14610b0e82610845565b9161083f565b2093610b2b5f610b2660018890610559565b61098a565b610b345f6109a4565b5b80610b52610b4c610b478c8b906109cf565b6101bf565b916101bf565b1015610b9757610b9290610b8d610b73610b6e60018a90610559565b6109d3565b610b87610b828d8c86916109d6565b6109eb565b90610a2d565b6109c0565b610b35565b50929650935093610bb46001610baf60038690610104565b610a8c565b84817f62421d59026e1099968b6068a4903a6f4b64d9ca7e03e1fe21a35c98bd5155c191610bec610be36100a2565b92839283610aac565b0390a1610c045f610bff60028690610559565b61098a565b610c0d5f6109a4565b5b80610c2b610c25610c208a89906109cf565b6101bf565b916101bf565b1015610c7057610c6b90610c66610c4c610c4760028890610559565b6109d3565b610c60610c5b8b8a86916109d6565b6109eb565b90610a2d565b6109c0565b610c0e565b509392509350610c8c90610c876001916004610104565b610a8c565b907f015d55864a41388c30b89bea43fa0ea181252358c4c3e049ba5ddb69605c959e91610cc3610cba6100a2565b92839283610aac565b0390a1565b90610cd6959493929161078e565b565b606090565b610ce9610cee916106dd565b61011e565b90565b610cfb9054610cdd565b90565b5f7f50726f6365737320564b206e6f74207365740000000000000000000000000000910152565b610d326012602092610703565b610d3b81610cfe565b0190565b610d549060208101905f818303910152610d25565b90565b15610d5e57565b610d666100a2565b62461bcd60e51b815280610d7c60048201610d3f565b0390fd5b60209181520190565b610d95610d9a916106dd565b6105b8565b90565b610da79054610d89565b90565b60010190565b90610dcd610dc7610dc084610583565b8093610d80565b92610587565b905f5b818110610ddd5750505090565b909192610dfd610df7600192610df287610d9d565b610337565b94610daa565b9101919091610dd0565b90610e1191610db0565b90565b90610e34610e2d92610e246100a2565b93848092610e07565b0383610816565b565b610e3f90610e14565b90565b610eb791610e7c610eb292610e55610cd8565b50610e6d610e616100a2565b938492602084016107da565b60208201810382520382610816565b610e8e610e8882610845565b9161083f565b20610eab610ea6610ea160038490610104565b610cf1565b610d57565b6001610559565b610e36565b90565b5f7f54616c6c7920564b206e6f742073657400000000000000000000000000000000910152565b610eee6010602092610703565b610ef781610eba565b0190565b610f109060208101905f818303910152610ee1565b90565b15610f1a57565b610f226100a2565b62461bcd60e51b815280610f3860048201610efb565b0390fd5b610fb191610f76610fac92610f4f610cd8565b50610f67610f5b6100a2565b938492602084016107da565b60208201810382520382610816565b610f88610f8282610845565b9161083f565b20610fa5610fa0610f9b60048490610104565b610cf1565b610f13565b6002610559565b610e36565b9056fea2646970667358221220f8e8bd9c2c8cc75f919df18234ef032ea023cbf7b3170f89c3ed91a1f0f8d05d64736f6c63430008210033","linkReferences":{}},"methodIdentifiers":{"getProcessVk(uint256,uint256)":"5dc2c5ba","getTallyVk(uint256,uint256)":"60769240","isProcessVkSet(bytes32)":"75c131d0","isTallyVkSet(bytes32)":"3ee1e45e","owner()":"8da5cb5b","processVks(bytes32,uint256)":"cf0920ba","setVerifyingKeys(uint256,uint256,uint256[],uint256[])":"58e88fd1","tallyVks(bytes32,uint256)":"db182361"},"id":9}