{"abi":[{"type":"constructor","inputs":[{"name":"_title","type":"string","internalType":"string"},{"name":"_duration","type":"uint256","internalType":"uint256"},{"name":"_coordPubKeyX","type":"uint256","internalType":"uint256"},{"name":"_coordPubKeyY","type":"uint256","internalType":"uint256"},{"name":"_stateAq","type":"address","internalType":"address"},{"name":"_numSignUps","type":"uint256","internalType":"uint256"},{"name":"_messageTreeDepth","type":"uint8","internalType":"uint8"}],"stateMutability":"nonpayable"},{"type":"function","name":"coordinatorPubKeyX","inputs":[],"outputs":[{"name":"","type":"uint256","internalType":"uint256"}],"stateMutability":"view"},{"type":"function","name":"coordinatorPubKeyY","inputs":[],"outputs":[{"name":"","type":"uint256","internalType":"uint256"}],"stateMutability":"view"},{"type":"function","name":"deployTime","inputs":[],"outputs":[{"name":"","type":"uint256","internalType":"uint256"}],"stateMutability":"view"},{"type":"function","name":"duration","inputs":[],"outputs":[{"name":"","type":"uint256","internalType":"uint256"}],"stateMutability":"view"},{"type":"function","name":"getDeployTimeAndDuration","inputs":[],"outputs":[{"name":"","type":"uint256","internalType":"uint256"},{"name":"","type":"uint256","internalType":"uint256"}],"stateMutability":"view"},{"type":"function","name":"hashMessageAndEncPubKey","inputs":[{"name":"_msg","type":"uint256[10]","internalType":"uint256[10]"},{"name":"_encPubKeyX","type":"uint256","internalType":"uint256"},{"name":"_encPubKeyY","type":"uint256","internalType":"uint256"}],"outputs":[{"name":"","type":"uint256","internalType":"uint256"}],"stateMutability":"pure"},{"type":"function","name":"isVotingOpen","inputs":[],"outputs":[{"name":"","type":"bool","internalType":"bool"}],"stateMutability":"view"},{"type":"function","name":"mergeMaciStateAq","inputs":[],"outputs":[],"stateMutability":"nonpayable"},{"type":"function","name":"mergeMaciStateAqSubRoots","inputs":[{"name":"_numSrQueueOps","type":"uint256","internalType":"uint256"}],"outputs":[],"stateMutability":"nonpayable"},{"type":"function","name":"mergeMessageAq","inputs":[],"outputs":[],"stateMutability":"nonpayable"},{"type":"function","name":"mergeMessageAqSubRoots","inputs":[{"name":"_numSrQueueOps","type":"uint256","internalType":"uint256"}],"outputs":[],"stateMutability":"nonpayable"},{"type":"function","name":"messageAq","inputs":[],"outputs":[{"name":"","type":"address","internalType":"contract AccQueue"}],"stateMutability":"view"},{"type":"function","name":"messageAqMerged","inputs":[],"outputs":[{"name":"","type":"bool","internalType":"bool"}],"stateMutability":"view"},{"type":"function","name":"numMessages","inputs":[],"outputs":[{"name":"","type":"uint256","internalType":"uint256"}],"stateMutability":"view"},{"type":"function","name":"numSignUpsAtDeployment","inputs":[],"outputs":[{"name":"","type":"uint256","internalType":"uint256"}],"stateMutability":"view"},{"type":"function","name":"publishMessage","inputs":[{"name":"_encMessage","type":"uint256[10]","internalType":"uint256[10]"},{"name":"_encPubKeyX","type":"uint256","internalType":"uint256"},{"name":"_encPubKeyY","type":"uint256","internalType":"uint256"}],"outputs":[],"stateMutability":"nonpayable"},{"type":"function","name":"stateAqAddr","inputs":[],"outputs":[{"name":"","type":"address","internalType":"address"}],"stateMutability":"view"},{"type":"function","name":"stateAqMerged","inputs":[],"outputs":[{"name":"","type":"bool","internalType":"bool"}],"stateMutability":"view"},{"type":"function","name":"title","inputs":[],"outputs":[{"name":"","type":"string","internalType":"string"}],"stateMutability":"view"},{"type":"event","name":"MessagePublished","inputs":[{"name":"messageIndex","type":"uint256","indexed":true,"internalType":"uint256"},{"name":"encMessage","type":"uint256[10]","indexed":false,"internalType":"uint256[10]"},{"name":"encPubKeyX","type":"uint256","indexed":false,"internalType":"uint256"},{"name":"encPubKeyY","type":"uint256","indexed":false,"internalType":"uint256"}],"anonymous":false}],"bytecode":{"object":"0x60c06040523461008e5761002061001461029b565b95949094939193610692565b610028610093565b6119da610727823960805181818161072601528181610cd2015281816115fb0152818161175c01528181611860015261194e015260a05181818161031f01528181610cf30152818161161c0152818161177d01528181611882015261196f01526119da90f35b610099565b60405190565b5f80fd5b601f801991011690565b634e487b7160e01b5f52604160045260245ffd5b906100c59061009d565b810190811060018060401b038211176100dd57604052565b6100a7565b906100f56100ee610093565b92836100bb565b565b5f80fd5b5f80fd5b5f80fd5b5f80fd5b60018060401b0381116101235761011f60209161009d565b0190565b6100a7565b90825f9392825e0152565b9092919261014861014382610107565b6100e2565b938185526020850190828401116101645761016292610128565b565b610103565b9080601f830112156101875781602061018493519101610133565b90565b6100ff565b90565b6101988161018c565b0361019f57565b5f80fd5b905051906101b08261018f565b565b60018060a01b031690565b6101c6906101b2565b90565b6101d2816101bd565b036101d957565b5f80fd5b905051906101ea826101c9565b565b60ff1690565b6101fb816101ec565b0361020257565b5f80fd5b90505190610213826101f2565b565b60e081830312610296575f81015160018060401b038111610291578261023c918301610169565b9261024a83602084016101a3565b9261025881604085016101a3565b9261026682606083016101a3565b9261028e61027784608085016101dd565b936102858160a086016101a3565b9360c001610206565b90565b6100fb565b6100f7565b6102b9614831803803806102ae816100e2565b928339810190610215565b90919293949596565b5190565b634e487b7160e01b5f52602260045260245ffd5b90600160028304921680156102fa575b60208310146102f557565b6102c6565b91607f16916102ea565b5f5260205f2090565b601f602091010490565b1b90565b919060086103369102916103305f1984610317565b92610317565b9181191691161790565b90565b61035761035261035c9261018c565b610340565b61018c565b90565b90565b919061037861037361038093610343565b61035f565b90835461031b565b9055565b5f90565b61039a91610394610384565b91610362565b565b5f5b8281106103aa57505050565b806103b95f6001938501610388565b0161039e565b9190601f81116103cf575b505050565b8181116103dc575b6103ca565b6103f16103eb61040f94610304565b9161030d565b9160206103fd8261030d565b9110610417575b80910191039061039c565b5f80806103d7565b505f610404565b1c90565b90610432905f199060080261041e565b191690565b8161044191610422565b906002021790565b90610453816102c2565b9060018060401b038211610511576104758261046f85546102da565b856103bf565b602090601f83116001146104a957918091610498935f9261049d575b5050610437565b90555b565b90915001515f80610491565b601f198316916104b885610304565b925f5b8181106104f9575091600293918560019694106104df575b5050500201905561049b565b6104ef910151601f841690610422565b90555f80806104d3565b919360206001819287870151815501950192016104bb565b6100a7565b9061052091610449565b565b5f1b90565b906105335f1991610522565b9181191691161790565b9061055261054d61055992610343565b61035f565b8254610527565b9055565b9061056e60018060a01b0391610522565b9181191691161790565b61058c610587610591926101b2565b610340565b6101b2565b90565b61059d90610578565b90565b6105a990610594565b90565b90565b906105c46105bf6105cb926105a0565b6105ac565b825461055d565b9055565b90565b6105e66105e16105eb926105cf565b610340565b61018c565b90565b6105f7906105d2565b9052565b61060f61060a610614926101ec565b610340565b61018c565b90565b610620906105fb565b9052565b91602061064592949361063e60408201965f8301906105ee565b0190610617565b565b61064f610093565b3d5f823e3d90fd5b61066090610578565b90565b61066c90610657565b90565b90565b9061068761068261068e92610663565b61066f565b825461055d565b9055565b926106bb6106d09695936106c2936106ad6106c9975f610516565b4260805260a052600161053d565b600261053d565b60046105af565b600561053d565b60056106da610093565b9161273083019083821060018060401b03831117610721578392610705926127306121018639610624565b03905ff0801561071c5761071a906003610672565b565b610647565b6100a756fe60806040526004361015610013575b610a5b565b61001d5f3561014b565b8062329f2f1461014657806309d58bad146101415780630dc831771461013c5780630f4cf692146101375780630fb5a6b4146101325780632a959c9d1461012d5780632b92e2111461012857806346b27526146101235780634909229f1461011e5780634a79d50c146101195780637a40624b146101145780638ae8a05f1461010f5780639c9717291461010a578063a576832114610105578063b5f38c8114610100578063ba3e5e85146100fb578063eb0de743146100f6578063f32b5ace146100f15763fa7f1bae0361000e57610a26565b6109f1565b6109ac565b610968565b610924565b61088d565b61084b565b610816565b610748565b6106ef565b6104cd565b610477565b610425565b6103ef565b610341565b6102e8565b610258565b610223565b610173565b60e01c90565b60405190565b5f80fd5b5f80fd5b5f91031261016957565b61015b565b5f0190565b346101a15761018336600461015f565b61018b610afa565b610193610151565b8061019d8161016e565b0390f35b610157565b1c90565b60018060a01b031690565b6101c59060086101ca93026101a6565b6101aa565b90565b906101d891546101b5565b90565b6101e760045f906101cd565b90565b60018060a01b031690565b6101fe906101ea565b90565b61020a906101f5565b9052565b9190610221905f60208501940190610201565b565b346102535761023336600461015f565b61024f61023e6101db565b610246610151565b9182918261020e565b0390f35b610157565b346102865761026836600461015f565b610270610cc3565b610278610151565b806102828161016e565b0390f35b610157565b90565b61029e9060086102a393026101a6565b61028b565b90565b906102b1915461028e565b90565b6102c060065f906102a6565b90565b90565b6102cf906102c3565b9052565b91906102e6905f602085019401906102c6565b565b34610318576102f836600461015f565b6103146103036102b4565b61030b610151565b918291826102d3565b0390f35b610157565b7f000000000000000000000000000000000000000000000000000000000000000090565b346103715761035136600461015f565b61036d61035c61031d565b610364610151565b918291826102d3565b0390f35b610157565b5f80fd5b91906020600a0283011161038a57565b610376565b610398816102c3565b0361039f57565b5f80fd5b905035906103b08261038f565b565b9091610180828403126103ea576103e76103ce845f850161037a565b936103dd8161014086016103a3565b93610160016103a3565b90565b61015b565b346104205761041c61040b6104053660046103b2565b916110f4565b610413610151565b918291826102d3565b0390f35b610157565b346104545761043e6104383660046103b2565b916115ea565b610446610151565b806104508161016e565b0390f35b610157565b906020828203126104725761046f915f016103a3565b90565b61015b565b346104a55761048f61048a366004610459565b61174d565b610497610151565b806104a18161016e565b0390f35b610157565b9160206104cb9294936104c460408201965f8301906102c6565b01906102c6565b565b346104fe576104dd36600461015f565b6104e561184c565b906104fa6104f1610151565b928392836104aa565b0390f35b610157565b634e487b7160e01b5f525f60045260245ffd5b634e487b7160e01b5f52602260045260245ffd5b906001600283049216801561054a575b602083101461054557565b610516565b91607f169161053a565b60209181520190565b5f5260205f2090565b905f92918054906105806105798361052a565b8094610554565b916001811690815f146105d7575060011461059b575b505050565b6105a8919293945061055d565b915f925b8184106105bf57505001905f8080610596565b600181602092959395548486015201910192906105ac565b92949550505060ff19168252151560200201905f8080610596565b906105fc91610566565b90565b601f801991011690565b634e487b7160e01b5f52604160045260245ffd5b90610627906105ff565b810190811067ffffffffffffffff82111761064157604052565b610609565b9061066661065f92610656610151565b938480926105f2565b038361061d565b565b905f1061067b5761067890610646565b90565b610503565b61068b5f5f90610668565b90565b5190565b60209181520190565b90825f9392825e0152565b6106c56106ce6020936106d3936106bc8161068e565b93848093610692565b9586910161069b565b6105ff565b0190565b6106ec9160208201915f8184039101526106a6565b90565b3461071f576106ff36600461015f565b61071b61070a610680565b610712610151565b918291826106d7565b0390f35b610157565b7f000000000000000000000000000000000000000000000000000000000000000090565b346107785761075836600461015f565b610774610763610724565b61076b610151565b918291826102d3565b0390f35b610157565b60018060a01b031690565b61079890600861079d93026101a6565b61077d565b90565b906107ab9154610788565b90565b6107ba60035f906107a0565b90565b90565b6107d46107cf6107d9926101ea565b6107bd565b6101ea565b90565b6107e5906107c0565b90565b6107f1906107dc565b90565b6107fd906107e8565b9052565b9190610814905f602085019401906107f4565b565b346108465761082636600461015f565b6108426108316107ae565b610839610151565b91829182610801565b0390f35b610157565b346108795761086361085e366004610459565b6118a4565b61086b610151565b806108758161016e565b0390f35b610157565b61088a60015f906102a6565b90565b346108bd5761089d36600461015f565b6108b96108a861087e565b6108b0610151565b918291826102d3565b0390f35b610157565b60ff1690565b6108d89060086108dd93026101a6565b6108c2565b90565b906108eb91546108c8565b90565b6108fa60075f906108e0565b90565b151590565b61090b906108fd565b9052565b9190610922905f60208501940190610902565b565b346109545761093436600461015f565b61095061093f6108ee565b610947610151565b9182918261090f565b0390f35b610157565b61096560025f906102a6565b90565b346109985761097836600461015f565b610994610983610959565b61098b610151565b918291826102d3565b0390f35b610157565b6109a960055f906102a6565b90565b346109dc576109bc36600461015f565b6109d86109c761099d565b6109cf610151565b918291826102d3565b0390f35b610157565b6109ee60076001906108e0565b90565b34610a2157610a0136600461015f565b610a1d610a0c6109e1565b610a14610151565b9182918261090f565b0390f35b610157565b34610a5657610a3636600461015f565b610a52610a41611939565b610a49610151565b9182918261090f565b0390f35b610157565b5f80fd5b5f1c90565b610a70610a7591610a5f565b61077d565b90565b610a829054610a64565b90565b5f80fd5b60e01b90565b5f910312610a9957565b61015b565b610aa6610151565b3d5f823e3d90fd5b60081b90565b90610ac161ff0091610aae565b9181191691161790565b610ad4906108fd565b90565b90565b90610aef610aea610af692610acb565b610ad7565b8254610ab4565b9055565b610b0c610b076003610a78565b6107e8565b630b65108b90803b15610b8f57610b2f915f91610b27610151565b938492610a89565b8252818381610b406004820161016e565b03925af18015610b8a57610b5e575b50610b5c60016007610ada565b565b610b7d905f3d8111610b83575b610b75818361061d565b810190610a8f565b5f610b4f565b503d610b6b565b610a9e565b610a85565b634e487b7160e01b5f52601160045260245ffd5b610bb7610bbd919392936102c3565b926102c3565b8201809211610bc857565b610b94565b5f7f566f74696e67206e6f7420656e64656400000000000000000000000000000000910152565b610c016010602092610692565b610c0a81610bcd565b0190565b610c239060208101905f818303910152610bf4565b90565b15610c2d57565b610c35610151565b62461bcd60e51b815280610c4b60048201610c0e565b0390fd5b610c5b610c6091610a5f565b6101aa565b90565b610c6d9054610c4f565b90565b610c79906107c0565b90565b610c8590610c70565b90565b5f1b90565b90610c9960ff91610c88565b9181191691161790565b90610cb8610cb3610cbf92610acb565b610ad7565b8254610c8d565b9055565b610d2942610d23610d1d610d187f00000000000000000000000000000000000000000000000000000000000000007f000000000000000000000000000000000000000000000000000000000000000090610ba8565b6102c3565b916102c3565b11610c26565b610d43610d3e610d396004610c63565b610c7c565b6107e8565b630b65108b90803b15610dc657610d66915f91610d5e610151565b938492610a89565b8252818381610d776004820161016e565b03925af18015610dc157610d95575b50610d9360016007610ca3565b565b610db4905f3d8111610dba575b610dac818361061d565b810190610a8f565b5f610d86565b503d610da2565b610a9e565b610a85565b5f90565b90565b90610de5610dde610151565b928361061d565b565b67ffffffffffffffff8111610dfc5760200290565b610609565b610e0d610e1291610de7565b610dd2565b90565b634e487b7160e01b5f52603260045260245ffd5b90600a811015610e3a576020020190565b610e15565b90565b610e56610e51610e5b92610e3f565b6107bd565b6102c3565b90565b35610e688161038f565b90565b90610e75906102c3565b9052565b90565b610e90610e8b610e9592610e79565b6107bd565b6102c3565b90565b90565b610eaf610eaa610eb492610e98565b6107bd565b6102c3565b90565b90565b610ece610ec9610ed392610eb7565b6107bd565b6102c3565b90565b90565b610eed610ee8610ef292610ed6565b6107bd565b6102c3565b90565b90505190610f028261038f565b565b90602082820312610f1d57610f1a915f01610ef5565b90565b61015b565b50600590565b905090565b90565b610f39906102c3565b9052565b90610f4a81602093610f30565b0190565b60200190565b610f70610f6a610f6383610f22565b8094610f28565b91610f2d565b5f915b838310610f805750505050565b610f96610f906001928451610f3d565b92610f4e565b92019190610f73565b9190610fb2905f60a08501940190610f54565b565b90565b610fcb610fc6610fd092610fb4565b6107bd565b6102c3565b90565b90565b610fea610fe5610fef92610fd3565b6107bd565b6102c3565b90565b90565b61100961100461100e92610ff2565b6107bd565b6102c3565b90565b90565b61102861102361102d92611011565b6107bd565b6102c3565b90565b90565b61104761104261104c92611030565b6107bd565b6102c3565b90565b90565b67ffffffffffffffff81116110675760200290565b610609565b61107861107d91611052565b610dd2565b90565b50600490565b905090565b90565b60200190565b6110b06110aa6110a383611080565b8094611086565b9161108b565b5f915b8383106110c05750505050565b6110d66110d06001928451610f3d565b9261108e565b920191906110b3565b91906110f2905f60808501940190611094565b565b61121891611100610dcb565b50602061112073__$d3dfaecd4f377921e100880c714d789c29$__610dcf565b637fe238e29061120d6111336005610e01565b9261115a61115261114d896111475f610e42565b90610e29565b610e5e565b5f8601610e6b565b6111816111796111748961116e6001610e7c565b90610e29565b610e5e565b868601610e6b565b6111a96111a061119b896111956002610e9b565b90610e29565b610e5e565b60408601610e6b565b6111d16111c86111c3896111bd6003610eba565b90610e29565b610e5e565b60608601610e6b565b6111f96111f06111eb896111e56004610ed9565b90610e29565b610e5e565b60808601610e6b565b611201610151565b97889485938493610a89565b835260048301610f9f565b03915af492831561148957611347936020915f9161145c575b509261125073__$d3dfaecd4f377921e100880c714d789c29$__610dcf565b61133c637fe238e261132861131f61131a61126b6005610e01565b9661129361128b611286836112806005610fb7565b90610e29565b610e5e565b5f8a01610e6b565b6112ba6112b26112ad836112a76006610fd6565b90610e29565b610e5e565b8a8a01610e6b565b6112e26112d96112d4836112ce6007610ff5565b90610e29565b610e5e565b60408a01610e6b565b61130a6113016112fc836112f66008611014565b90610e29565b610e5e565b60608a01610e6b565b6113146009611033565b90610e29565b610e5e565b60808601610e6b565b611330610151565b97889485938493610a89565b835260048301610f9f565b03915af48015611457576113e1946113c26113d6926020965f9161142a575b50916113b961138873__$0daf1669a85ce10529e05b8a030b9567e1$__61104f565b956113b0638709cd8c956113a861139f600461106c565b9a5f8c01610e6b565b8a8a01610e6b565b60408801610e6b565b60608601610e6b565b6113ca610151565b95869485938493610a89565b8352600483016110df565b03915af4908115611425575f916113f7575b5090565b611418915060203d811161141e575b611410818361061d565b810190610f04565b5f6113f3565b503d611406565b610a9e565b61144a9150873d8111611450575b611442818361061d565b810190610f04565b5f611366565b503d611438565b610a9e565b61147c9150823d8111611482575b611474818361061d565b810190610f04565b5f611231565b503d61146a565b610a9e565b5f7f566f74696e6720656e6465640000000000000000000000000000000000000000910152565b6114c2600c602092610692565b6114cb8161148e565b0190565b6114e49060208101905f8183039101526114b5565b90565b156114ee57565b6114f6610151565b62461bcd60e51b81528061150c600482016114cf565b0390fd5b61151c61152191610a5f565b61028b565b90565b61152e9054611510565b90565b61154561154061154a926102c3565b6107bd565b6102c3565b90565b9037565b61155e916101409161154d565b565b6101609061158c61159394969593966115816101808401985f850190611551565b6101408301906102c6565b01906102c6565b565b61159e906102c3565b5f1981146115ac5760010190565b610b94565b906115bd5f1991610c88565b9181191691161790565b90565b906115df6115da6115e692611531565b6115c7565b82546115b1565b9055565b90916116534261164c6116466116417f00000000000000000000000000000000000000000000000000000000000000007f000000000000000000000000000000000000000000000000000000000000000090610ba8565b6102c3565b916102c3565b11156114e7565b61169e6020611664848685916110f4565b6116766116716003610a78565b6107e8565b6116935f631ffc735d611687610151565b96879586948593610a89565b8352600483016102d3565b03925af180156117485761171c575b506116b86006611524565b919290926116fb6116e97f604001005bce2ef418b9403ccb70e2e54a665dcc8d8097977a9a92e6e8c3804494611531565b946116f2610151565b93849384611560565b0390a261171a61171361170e6006611524565b611595565b60066115ca565b565b61173c9060203d8111611741575b611734818361061d565b810190610f04565b6116ad565b503d61172a565b610a9e565b6117b3426117ad6117a76117a27f00000000000000000000000000000000000000000000000000000000000000007f000000000000000000000000000000000000000000000000000000000000000090610ba8565b6102c3565b916102c3565b11610c26565b6117cd6117c86117c36004610c63565b610c7c565b6107e8565b9063c15da65b90823b1561184757611804926117f95f80946117ed610151565b96879586948593610a89565b8352600483016102d3565b03925af1801561184257611816575b50565b611835905f3d811161183b575b61182d818361061d565b810190610a8f565b5f611813565b503d611823565b610a9e565b610a85565b611854610dcb565b5061185d610dcb565b507f0000000000000000000000000000000000000000000000000000000000000000907f000000000000000000000000000000000000000000000000000000000000000090565b6118b66118b16003610a78565b6107e8565b9063c15da65b90823b15611930576118ed926118e25f80946118d6610151565b96879586948593610a89565b8352600483016102d3565b03925af1801561192b576118ff575b50565b61191e905f3d8111611924575b611916818361061d565b810190610a8f565b5f6118fc565b503d61190c565b610a9e565b610a85565b5f90565b611941611935565b504261199f6119996119947f00000000000000000000000000000000000000000000000000000000000000007f000000000000000000000000000000000000000000000000000000000000000090610ba8565b6102c3565b916102c3565b11159056fea2646970667358221220842ac52559f7455948a9904aaafa4d83cd28c6c3efe018846ddbec97e8569df164736f6c63430008210033610100604052346100b05761001b610015610170565b906105ac565b6100236100b5565b611f4b6107e5823960805181818161059c0152818161159e015281816116c4015281816117240152818161190401528181611aaf0152611b0f015260a0518181816104ff015281816116510152611a79015260c051816105f5015260e0518181816104a601528181610f15015281816119d401528181611d3101528181611dbe0152611e6a0152611f4b90f35b6100bb565b60405190565b5f80fd5b601f801991011690565b634e487b7160e01b5f52604160045260245ffd5b906100e7906100bf565b810190811060018060401b038211176100ff57604052565b6100c9565b906101176101106100b5565b92836100dd565b565b5f80fd5b90565b6101298161011d565b0361013057565b5f80fd5b9050519061014182610120565b565b919060408382031261016b578061015f610168925f8601610134565b93602001610134565b90565b610119565b61018e6127308038038061018381610104565b928339810190610143565b9091565b90565b90565b6101ac6101a76101b192610192565b610195565b61011d565b90565b60209181520190565b5f7f4f6e6c79207175696e617279202861726974793d352920737570706f72746564910152565b6101f0602080926101b4565b6101f9816101bd565b0190565b6102129060208101905f8183039101526101e4565b90565b1561021c57565b6102246100b5565b62461bcd60e51b81528061023a600482016101fd565b0390fd5b90565b61025561025061025a9261023e565b610195565b61011d565b90565b90565b61027461026f6102799261025d565b610195565b61011d565b90565b5f7f5375624465707468206d75737420626520312d34000000000000000000000000910152565b6102b060146020926101b4565b6102b98161027c565b0190565b6102d29060208101905f8183039101526102a3565b90565b156102dc57565b6102e46100b5565b62461bcd60e51b8152806102fa600482016102bd565b0390fd5b90565b61031561031061031a926102fe565b610195565b61011d565b90565b6001610329910161011d565b90565b634e487b7160e01b5f52601160045260245ffd5b61034f6103559193929361011d565b9261011d565b9161036183820261011d565b92818404149015171561037057565b61032c565b9061037f90610241565b5f5260205260405f2090565b5f1b90565b9061039c5f199161038b565b9181191691161790565b6103ba6103b56103bf9261011d565b610195565b61011d565b90565b90565b906103da6103d56103e1926103a6565b6103c2565b8254610390565b9055565b6103ee9061011d565b5f1981146103fc5760010190565b61032c565b90565b61041861041361041d92610401565b610195565b61011d565b90565b61042f6104359193929361011d565b9261011d565b820180921161044057565b61032c565b61045461045a9193929361011d565b9261011d565b820391821161046557565b61032c565b90610474906103a6565b5f5260205260405f2090565b5f1c90565b90565b61049461049991610480565b610485565b90565b6104a69054610488565b90565b90565b60018060401b0381116104bf5760200290565b6100c9565b6104d06104d5916104ac565b610104565b90565b906104e29061011d565b9052565b60e01b90565b9060208282031261050557610502915f01610134565b90565b610119565b50600590565b905090565b90565b6105219061011d565b9052565b9061053281602093610518565b0190565b60200190565b61055861055261054b8361050a565b8094610510565b91610515565b5f915b8383106105685750505050565b61057e6105786001928451610525565b92610536565b9201919061055b565b919061059a905f60a0850194019061053c565b565b6105a46100b5565b3d5f823e3d90fd5b916105ca836105c46105be6005610198565b9161011d565b14610215565b816105dd6105d75f610241565b9161011d565b11806107c3575b6105ed906102d5565b826080528160a0528260c0526106036001610301565b9061060d5f610241565b915b8261062261061c8661011d565b9161011d565b10156106425761063661063c918690610340565b9261031d565b9161060f565b9150925060e0526106666106555f610241565b61066160085f90610375565b6103c5565b6106706001610301565b5b8061069761069161068c85610686600a610404565b90610420565b61011d565b9161011d565b116107bf576107569060206106c96106c460086106be856106b86001610301565b90610445565b9061046a565b61049c565b6106e673__$d3dfaecd4f377921e100880c714d789c29$__6104a9565b61074b637fe238e26107376106fb60056104c4565b94610708815f88016104d8565b610714818888016104d8565b61072181604088016104d8565b61072e81606088016104d8565b608086016104d8565b61073f6100b5565b968794859384936104e6565b835260048301610587565b03915af49182156107ba5761078792610782915f9161078c575b5061077d6008849061046a565b6103c5565b6103e5565b610671565b6107ad915060203d81116107b3575b6107a581836100dd565b8101906104ec565b5f610770565b503d61079b565b61059c565b5050565b506105ed826107db6107d56004610260565b9161011d565b111590506105e456fe60806040526004361015610013575b610854565b61001d5f3561015c565b80630b65108b14610157578063198e3c17146101525780631ffc735d1461014d5780632ecf52e8146101485780634a690ef91461014357806360fd40101461013e5780636bc1fb5314610139578063927d52ab14610134578063974da14e1461012f578063a03cb3a41461012a578063a58475b714610125578063b4885ec314610120578063b66c84a11461011b578063c15da65b14610116578063d455a79d14610111578063d80fef141461010c578063dda89a6e14610107578063e829558814610102578063e93fb4d4146100fd5763f13827af0361000e5761081f565b6107db565b6107a6565b610723565b6106df565b6106aa565b61064c565b610617565b6105be565b610565565b610521565b6104c8565b61046f565b61043a565b6103a2565b6102f8565b6102c3565b610252565b6101dc565b610184565b60e01c90565b60405190565b5f80fd5b5f80fd5b5f91031261017a57565b61016c565b5f0190565b346101b257610194366004610170565b61019c610afe565b6101a4610162565b806101ae8161017f565b0390f35b610168565b90565b6101c3906101b7565b9052565b91906101da905f602085019401906101ba565b565b3461020c576101ec366004610170565b6102086101f7610c39565b6101ff610162565b918291826101c7565b0390f35b610168565b61021a816101b7565b0361022157565b5f80fd5b9050359061023282610211565b565b9060208282031261024d5761024a915f01610225565b90565b61016c565b346102825761027e61026d610268366004610234565b610e6e565b610275610162565b918291826101c7565b0390f35b610168565b1c90565b90565b61029e9060086102a39302610287565b61028b565b90565b906102b1915461028e565b90565b6102c060055f906102a6565b90565b346102f3576102d3366004610170565b6102ef6102de6102b4565b6102e6610162565b918291826101c7565b0390f35b610168565b3461032857610308366004610170565b61032461031361102e565b61031b610162565b918291826101c7565b0390f35b610168565b634e487b7160e01b5f52603260045260245ffd5b5490565b5f5260205f2090565b61035781610341565b82101561037157610369600191610345565b910201905f90565b61032d565b600161038181610341565b82101561039e5761039b916103959161034e565b906102a6565b90565b5f80fd5b346103d2576103ce6103bd6103b8366004610234565b610376565b6103c5610162565b918291826101c7565b0390f35b610168565b60ff1690565b6103ed9060086103f29302610287565b6103d7565b90565b9061040091546103dd565b90565b61041060066001906103f5565b90565b151590565b61042190610413565b9052565b9190610438905f60208501940190610418565b565b3461046a5761044a366004610170565b610466610455610403565b61045d610162565b91829182610425565b0390f35b610168565b3461049f5761047f366004610170565b61049b61048a611044565b610492610162565b918291826101c7565b0390f35b610168565b7f000000000000000000000000000000000000000000000000000000000000000090565b346104f8576104d8366004610170565b6104f46104e36104a4565b6104eb610162565b918291826101c7565b0390f35b610168565b7f000000000000000000000000000000000000000000000000000000000000000090565b3461055157610531366004610170565b61054d61053c6104fd565b610544610162565b918291826101c7565b0390f35b610168565b61056260065f906103f5565b90565b3461059557610575366004610170565b610591610580610556565b610588610162565b91829182610425565b0390f35b610168565b7f000000000000000000000000000000000000000000000000000000000000000090565b346105ee576105ce366004610170565b6105ea6105d961059a565b6105e1610162565b918291826101c7565b0390f35b610168565b7f000000000000000000000000000000000000000000000000000000000000000090565b3461064757610627366004610170565b6106436106326105f3565b61063a610162565b918291826101c7565b0390f35b610168565b3461067a5761066461065f366004610234565b611090565b61066c610162565b806106768161017f565b0390f35b610168565b5f61068981610341565b8210156106a6576106a39161069d9161034e565b906102a6565b90565b5f80fd5b346106da576106d66106c56106c0366004610234565b61067f565b6106cd610162565b918291826101c7565b0390f35b610168565b3461070f576106ef366004610170565b61070b6106fa611109565b610702610162565b91829182610425565b0390f35b610168565b61072060075f906102a6565b90565b3461075357610733366004610170565b61074f61073e610714565b610746610162565b918291826101c7565b0390f35b610168565b90565b61076f61076a610774926101b7565b610758565b6101b7565b90565b906107819061075b565b5f5260205260405f2090565b6107a39061079e6008915f92610777565b6102a6565b90565b346107d6576107d26107c16107bc366004610234565b61078d565b6107c9610162565b918291826101c7565b0390f35b610168565b3461080b576108076107f66107f1366004610234565b6111a1565b6107fe610162565b918291826101c7565b0390f35b610168565b61081c60025f906102a6565b90565b3461084f5761082f366004610170565b61084b61083a610810565b610842610162565b918291826101c7565b0390f35b610168565b5f80fd5b5f1c90565b61086961086e91610858565b6103d7565b90565b61087b905461085d565b90565b60209181520190565b5f7f537562526f6f7473206e6f74206d657267656420796574000000000000000000910152565b6108bb601760209261087e565b6108c481610887565b0190565b6108dd9060208101905f8183039101526108ae565b90565b156108e757565b6108ef610162565b62461bcd60e51b815280610905600482016108c8565b0390fd5b60081c90565b61091b61092091610909565b6103d7565b90565b61092d905461090f565b90565b5f7f416c7265616479206d6572676564000000000000000000000000000000000000910152565b610964600e60209261087e565b61096d81610930565b0190565b6109869060208101905f818303910152610957565b90565b1561099057565b610998610162565b62461bcd60e51b8152806109ae60048201610971565b0390fd5b90565b6109c96109c46109ce926109b2565b610758565b6101b7565b90565b5f7f4e6f20737562747265657320746f206d65726765000000000000000000000000910152565b610a05601460209261087e565b610a0e816109d1565b0190565b610a279060208101905f8183039101526109f8565b90565b15610a3157565b610a39610162565b62461bcd60e51b815280610a4f60048201610a12565b0390fd5b5f1b90565b90610a645f1991610a53565b9181191691161790565b90565b90610a86610a81610a8d9261075b565b610a6e565b8254610a58565b9055565b60081b90565b90610aa461ff0091610a91565b9181191691161790565b610ab790610413565b90565b90565b90610ad2610acd610ad992610aae565b610aba565b8254610a97565b9055565b610ae9610aee91610858565b61028b565b90565b610afb9054610add565b90565b610b10610b0b6006610871565b6108e0565b610b2b610b26610b206006610923565b15610413565b610989565b610b50610b386001610341565b610b4a610b445f6109b5565b916101b7565b11610a2a565b610b62610b5b6114f1565b6005610a71565b610b6e60016006610abd565b610b786005610af1565b610bae7f9143563a1146bcf02f74f1971c1e1ea3bf6867a00da047bdf9259dc3a4e9e4c991610ba5610162565b918291826101c7565b0390a1565b5f90565b5f7f4e6f74206d657267656420796574000000000000000000000000000000000000910152565b610beb600e60209261087e565b610bf481610bb7565b0190565b610c0d9060208101905f818303910152610bde565b90565b15610c1757565b610c1f610162565b62461bcd60e51b815280610c3560048201610bf8565b0390fd5b610c41610bb3565b50610c54610c4f6006610923565b610c10565b610c5e6005610af1565b90565b90565b610c78610c73610c7d92610c61565b610758565b6101b7565b90565b610ca97f30644e72e131a029b85045b68181585d2833e84879b9709143e1f593f0000001610c64565b90565b5f7f4c65616620746f6f206c61726765000000000000000000000000000000000000910152565b610ce0600e60209261087e565b610ce981610cac565b0190565b610d029060208101905f818303910152610cd3565b90565b15610d0c57565b610d14610162565b62461bcd60e51b815280610d2a60048201610ced565b0390fd5b90565b634e487b7160e01b5f52604160045260245ffd5b5f5260205f2090565b5490565b610d5b81610d4e565b821015610d7557610d6d600191610d45565b910201905f90565b61032d565b1b90565b91906008610d99910291610d935f1984610d7a565b92610d7a565b9181191691161790565b9190610db9610db4610dc19361075b565b610a6e565b908354610d7e565b9055565b9081549168010000000000000000831015610df55782610ded916001610df395018155610d52565b90610da3565b565b610d31565b634e487b7160e01b5f52601160045260245ffd5b610e17906101b7565b5f198114610e255760010190565b610dfa565b90565b610e41610e3c610e4692610e2a565b610758565b6101b7565b90565b610e58610e5e919392936101b7565b926101b7565b8203918211610e6957565b610dfa565b90610e77610bb3565b50610e9b82610e95610e8f610e8a610c80565b6101b7565b916101b7565b10610d05565b610eb6610eb1610eab6006610923565b15610413565b610989565b610ec06007610af1565b91610ed4610ecd5f610d2e565b8290610dc5565b610ee7610ee16002610af1565b82611980565b610f03610efc610ef76002610af1565b610e0e565b6002610a71565b610f0d6002610af1565b610f3f610f397f00000000000000000000000000000000000000000000000000000000000000006101b7565b916101b7565b14610fa6575b610f61610f5a610f556007610af1565b610e0e565b6007610a71565b82610fa1610f8f7f5a660ec3cce7c3a71461d1f7a64dd55380bd81f9a0316458a5aa2e5afe2f0da59261075b565b92610f98610162565b918291826101c7565b0390a2565b610fae6119c9565b610fc2610fbb6001610d2e565b8290610dc5565b610fdf610fcf6001610341565b610fd96001610e2d565b90610e49565b61101e61100c7f6a297a526c1c42df9853983b50ef14c2cb409494aeaa7528416b270bc116c4279261075b565b92611015610162565b918291826101c7565b0390a2611029611d1e565b610f45565b611036610bb3565b506110416001610341565b90565b61104c610bb3565b506110576007610af1565b90565b9061106660ff91610a53565b9181191691161790565b9061108561108061108c92610aae565b610aba565b825461105a565b9055565b6110ab6110a66110a06006610923565b15610413565b610989565b6110b56002610af1565b6110c76110c15f6109b5565b916101b7565b116110f8575b6110df6110d95f6109b5565b916101b7565b116110f3575b6110f160016006611070565b565b6110e5565b611100611db9565b6110cd565b5f90565b611111611105565b5061111c6006610923565b90565b5f7f496e646578206f7574206f6620626f756e647300000000000000000000000000910152565b611153601360209261087e565b61115c8161111f565b0190565b6111759060208101905f818303910152611146565b90565b1561117f57565b611187610162565b62461bcd60e51b81528061119d60048201611160565b0390fd5b6111dd6111e3916111b0610bb3565b506111d6816111d06111ca6111c56001610341565b6101b7565b916101b7565b10611178565b600161034e565b906102a6565b90565b601f801991011690565b906111fa906111e6565b810190811067ffffffffffffffff82111761121457604052565b610d31565b9061122c611225610162565b92836111f0565b565b67ffffffffffffffff81116112465760208091020190565b610d31565b9061125d6112588361122e565b611219565b918252565b369037565b9061128c6112748361124b565b92602080611282869361122e565b9201910390611262565b565b600161129a91016101b7565b90565b5190565b906112ab8261129d565b8110156112bc576020809102010190565b61032d565b906112cb906101b7565b9052565b634e487b7160e01b5f52601260045260245ffd5b6112ef6112f5916101b7565b916101b7565b908115611300570690565b6112cf565b61131461131a919392936101b7565b926101b7565b820180921161132557565b610dfa565b61133490516101b7565b90565b611343611349916101b7565b916101b7565b908115611354570490565b6112cf565b61136861136e919392936101b7565b926101b7565b9161137a8382026101b7565b92818404149015171561138957565b610dfa565b90565b67ffffffffffffffff81116113a65760200290565b610d31565b6113b76113bc91611391565b611219565b90565b90565b6113d66113d16113db926113bf565b610758565b6101b7565b90565b90565b6113f56113f06113fa926113de565b610758565b6101b7565b90565b90565b61141461140f611419926113fd565b610758565b6101b7565b90565b60e01b90565b9050519061142f82610211565b565b9060208282031261144a57611447915f01611422565b90565b61016c565b50600590565b905090565b90565b611466906101b7565b9052565b906114778160209361145d565b0190565b60200190565b61149d6114976114908361144f565b8094611455565b9161145a565b5f915b8383106114ad5750505050565b6114c36114bd600192845161146a565b9261147b565b920191906114a0565b91906114df905f60a08501940190611481565b565b6114e9610162565b3d5f823e3d90fd5b6114f9610bb3565b5061150c6115076001610341565b611267565b906115165f6109b5565b5b8061153361152d6115286001610341565b6101b7565b916101b7565b10156115715761156c9061156761155561154f6001849061034e565b906102a6565b61156286918490926112a1565b6112c1565b61128e565b611517565b509061157c8161129d565b905b8161159261158c6001610e2d565b916101b7565b1115611934576115c3827f0000000000000000000000000000000000000000000000000000000000000000906112e3565b8290806115d86115d25f6109b5565b916101b7565b036118f8575b506115e881611267565b936115f25f6109b5565b5b80611606611600876101b7565b916101b7565b10156116425761163d906116386116266116218784906112a1565b61132a565b61163389918490926112a1565b6112c1565b61128e565b6115f3565b509092915061167b61167660087f000000000000000000000000000000000000000000000000000000000000000090610777565b610af1565b915b8061169061168a866101b7565b916101b7565b10156116ba576116b5906116b0846116ab88918490926112a1565b6112c1565b61128e565b61167d565b5092916116e991507f000000000000000000000000000000000000000000000000000000000000000090611337565b906116f382611267565b926116fd5f6109b5565b5b8061171161170b866101b7565b916101b7565b10156118eb5780602084611749611881947f000000000000000000000000000000000000000000000000000000000000000090611359565b61187661176973__$d3dfaecd4f377921e100880c714d789c29$__61138e565b91611862611859611854637fe238e29361183961183061182b61178c60056113ab565b9a6117ac8c5f6117a56117a0858a906112a1565b61132a565b91016112c1565b6117de8c8e6117d76117d2856117cc8b6117c66001610e2d565b90611305565b906112a1565b61132a565b91016112c1565b6118118c604061180a611805856117ff8b6117f960026113c2565b90611305565b906112a1565b61132a565b91016112c1565b6118258561181f60036113e1565b90611305565b906112a1565b61132a565b60608a016112c1565b61184e8d916118486004611400565b90611305565b906112a1565b61132a565b608086016112c1565b61186a610162565b9687948593849361141c565b8352600483016114cc565b03915af49182156118e6576118b3926118ae915f916118b8575b506118a988918490926112a1565b6112c1565b61128e565b6116fe565b6118d9915060203d81116118df575b6118d181836111f0565b810190611431565b5f61189b565b503d6118c7565b6114e1565b509192905091909161157e565b61192e915061192884917f0000000000000000000000000000000000000000000000000000000000000000610e49565b90611305565b5f6115de565b611951915061194c906119465f6109b5565b906112a1565b61132a565b90565b9061195e906109b5565b5f5260205260405f2090565b90611974906109b5565b5f5260205260405f2090565b6119c7916119a66119b6926119a161199a60035f90611954565b8490610777565b610a71565b6119b06001610e2d565b90611305565b6119c260045f9061196a565b610a71565b565b6119d1610bb3565b507f0000000000000000000000000000000000000000000000000000000000000000906119fd82611267565b90611a075f6109b5565b5b80611a1b611a15866101b7565b916101b7565b1015611a6257611a5d90611a58611a46611a41611a3a60035f90611954565b8490610777565b610af1565b611a5386918490926112a1565b6112c1565b61128e565b611a08565b509190611a6e5f6109b5565b915b82611aa3611a9d7f00000000000000000000000000000000000000000000000000000000000000006101b7565b916101b7565b1015611ce957611ad4907f000000000000000000000000000000000000000000000000000000000000000090611337565b91611ade83611267565b93611ae85f6109b5565b5b80611afc611af6876101b7565b916101b7565b1015611cd35780602085611b34611c69947f000000000000000000000000000000000000000000000000000000000000000090611359565b611c5e611b5473__$d3dfaecd4f377921e100880c714d789c29$__61138e565b91611c4a611c41611c3c637fe238e293611c36611b7160056113ab565b98611b90611b88611b838386906112a1565b61132a565b5f8c016112c1565b611bc1611bb9611bb483611bae87611ba86001610e2d565b90611305565b906112a1565b61132a565b8c8c016112c1565b611bf3611bea611be583611bdf87611bd960026113c2565b90611305565b906112a1565b61132a565b60408c016112c1565b611c25611c1c611c1783611c1187611c0b60036113e1565b90611305565b906112a1565b61132a565b60608c016112c1565b91611c306004611400565b90611305565b906112a1565b61132a565b608086016112c1565b611c52610162565b9687948593849361141c565b8352600483016114cc565b03915af4918215611cce57611c9b92611c96915f91611ca0575b50611c9189918490926112a1565b6112c1565b61128e565b611ae9565b611cc1915060203d8111611cc7575b611cb981836111f0565b810190611431565b5f611c83565b503d611caf565b6114e1565b5093611ce2919250929161128e565b9190611a70565b50611d079150611d0290611cfc5f6109b5565b906112a1565b61132a565b90565b611d1c91611d16610bb3565b91610da3565b565b611d275f6109b5565b5b80611d5b611d557f00000000000000000000000000000000000000000000000000000000000000006101b7565b916101b7565b1015611d8e57611d8990611d845f611d7f611d7860038390611954565b8490610777565b611d0a565b61128e565b611d28565b50611da2611d9b5f6109b5565b6002610a71565b611db75f611db26004829061196a565b611d0a565b565b611ded7f0000000000000000000000000000000000000000000000000000000000000000611de76002610af1565b90610e49565b611df65f6109b5565b5b80611e0a611e04846101b7565b916101b7565b1015611e6357611e5e90611e59611e2b611e2660085f9061196a565b610af1565b611e54611e3a60035f90611954565b611e4e611e476002610af1565b8690611305565b90610777565b610a71565b61128e565b611df7565b5050611e907f00000000000000000000000000000000000000000000000000000000000000006002610a71565b611e986119c9565b611eac611ea56001610d2e565b8290610dc5565b611ec9611eb96001610341565b611ec36001610e2d565b90610e49565b611f08611ef67f6a297a526c1c42df9853983b50ef14c2cb409494aeaa7528416b270bc116c4279261075b565b92611eff610162565b918291826101c7565b0390a2611f13611d1e565b56fea2646970667358221220a43f7e53e16e7227736a4ca191f9fc8cfabb06bbc60b02172474d27a64da1fe664736f6c63430008210033","linkReferences":{"contracts/PoseidonT5.sol":{"PoseidonT5":[{"start":6807,"length":20}]},"node_modules/poseidon-solidity/PoseidonT6.sol":{"PoseidonT6":[{"start":6191,"length":20},{"start":6495,"length":20},{"start":10191,"length":20},{"start":16439,"length":20},{"start":17442,"length":20}]}}},"methodIdentifiers":{"coordinatorPubKeyX()":"a5768321","coordinatorPubKeyY()":"ba3e5e85","deployTime()":"7a40624b","duration()":"0fb5a6b4","getDeployTimeAndDuration()":"4909229f","hashMessageAndEncPubKey(uint256[10],uint256,uint256)":"2a959c9d","isVotingOpen()":"fa7f1bae","mergeMaciStateAq()":"0dc83177","mergeMaciStateAqSubRoots(uint256)":"46b27526","mergeMessageAq()":"00329f2f","mergeMessageAqSubRoots(uint256)":"9c971729","messageAq()":"8ae8a05f","messageAqMerged()":"f32b5ace","numMessages()":"0f4cf692","numSignUpsAtDeployment()":"eb0de743","publishMessage(uint256[10],uint256,uint256)":"2b92e211","stateAqAddr()":"09d58bad","stateAqMerged()":"b5f38c81","title()":"4a79d50c"},"id":5}