{"abi":[{"type":"constructor","inputs":[{"name":"_title","type":"string","internalType":"string"},{"name":"_duration","type":"uint256","internalType":"uint256"},{"name":"_coordPubKeyX","type":"uint256","internalType":"uint256"},{"name":"_coordPubKeyY","type":"uint256","internalType":"uint256"},{"name":"_stateAq","type":"address","internalType":"address"},{"name":"_numSignUps","type":"uint256","internalType":"uint256"},{"name":"_messageTreeDepth","type":"uint8","internalType":"uint8"}],"stateMutability":"nonpayable"},{"type":"function","name":"coordinatorPubKeyX","inputs":[],"outputs":[{"name":"","type":"uint256","internalType":"uint256"}],"stateMutability":"view"},{"type":"function","name":"coordinatorPubKeyY","inputs":[],"outputs":[{"name":"","type":"uint256","internalType":"uint256"}],"stateMutability":"view"},{"type":"function","name":"deployTime","inputs":[],"outputs":[{"name":"","type":"uint256","internalType":"uint256"}],"stateMutability":"view"},{"type":"function","name":"duration","inputs":[],"outputs":[{"name":"","type":"uint256","internalType":"uint256"}],"stateMutability":"view"},{"type":"function","name":"getDeployTimeAndDuration","inputs":[],"outputs":[{"name":"","type":"uint256","internalType":"uint256"},{"name":"","type":"uint256","internalType":"uint256"}],"stateMutability":"view"},{"type":"function","name":"hashMessageAndEncPubKey","inputs":[{"name":"_msg","type":"uint256[10]","internalType":"uint256[10]"},{"name":"_encPubKeyX","type":"uint256","internalType":"uint256"},{"name":"_encPubKeyY","type":"uint256","internalType":"uint256"}],"outputs":[{"name":"","type":"uint256","internalType":"uint256"}],"stateMutability":"pure"},{"type":"function","name":"isVotingOpen","inputs":[],"outputs":[{"name":"","type":"bool","internalType":"bool"}],"stateMutability":"view"},{"type":"function","name":"mergeMaciStateAq","inputs":[],"outputs":[],"stateMutability":"nonpayable"},{"type":"function","name":"mergeMaciStateAqSubRoots","inputs":[{"name":"_numSrQueueOps","type":"uint256","internalType":"uint256"}],"outputs":[],"stateMutability":"nonpayable"},{"type":"function","name":"mergeMessageAq","inputs":[],"outputs":[],"stateMutability":"nonpayable"},{"type":"function","name":"mergeMessageAqSubRoots","inputs":[{"name":"_numSrQueueOps","type":"uint256","internalType":"uint256"}],"outputs":[],"stateMutability":"nonpayable"},{"type":"function","name":"messageAq","inputs":[],"outputs":[{"name":"","type":"address","internalType":"contract AccQueue"}],"stateMutability":"view"},{"type":"function","name":"messageAqMerged","inputs":[],"outputs":[{"name":"","type":"bool","internalType":"bool"}],"stateMutability":"view"},{"type":"function","name":"numMessages","inputs":[],"outputs":[{"name":"","type":"uint256","internalType":"uint256"}],"stateMutability":"view"},{"type":"function","name":"numSignUpsAtDeployment","inputs":[],"outputs":[{"name":"","type":"uint256","internalType":"uint256"}],"stateMutability":"view"},{"type":"function","name":"publishMessage","inputs":[{"name":"_encMessage","type":"uint256[10]","internalType":"uint256[10]"},{"name":"_encPubKeyX","type":"uint256","internalType":"uint256"},{"name":"_encPubKeyY","type":"uint256","internalType":"uint256"}],"outputs":[],"stateMutability":"nonpayable"},{"type":"function","name":"stateAqAddr","inputs":[],"outputs":[{"name":"","type":"address","internalType":"address"}],"stateMutability":"view"},{"type":"function","name":"stateAqMerged","inputs":[],"outputs":[{"name":"","type":"bool","internalType":"bool"}],"stateMutability":"view"},{"type":"function","name":"title","inputs":[],"outputs":[{"name":"","type":"string","internalType":"string"}],"stateMutability":"view"},{"type":"event","name":"MessagePublished","inputs":[{"name":"messageIndex","type":"uint256","indexed":true,"internalType":"uint256"},{"name":"encMessage","type":"uint256[10]","indexed":false,"internalType":"uint256[10]"},{"name":"encPubKeyX","type":"uint256","indexed":false,"internalType":"uint256"},{"name":"encPubKeyY","type":"uint256","indexed":false,"internalType":"uint256"}],"anonymous":false}],"bytecode":{"object":"0x60c06040523461008e5761002061001461029b565b95949094939193610692565b610028610093565b6119da610727823960805181818161072601528181610cd2015281816115fb0152818161175c01528181611860015261194e015260a05181818161031f01528181610cf30152818161161c0152818161177d01528181611882015261196f01526119da90f35b610099565b60405190565b5f80fd5b601f801991011690565b634e487b7160e01b5f52604160045260245ffd5b906100c59061009d565b810190811060018060401b038211176100dd57604052565b6100a7565b906100f56100ee610093565b92836100bb565b565b5f80fd5b5f80fd5b5f80fd5b5f80fd5b60018060401b0381116101235761011f60209161009d565b0190565b6100a7565b90825f9392825e0152565b9092919261014861014382610107565b6100e2565b938185526020850190828401116101645761016292610128565b565b610103565b9080601f830112156101875781602061018493519101610133565b90565b6100ff565b90565b6101988161018c565b0361019f57565b5f80fd5b905051906101b08261018f565b565b60018060a01b031690565b6101c6906101b2565b90565b6101d2816101bd565b036101d957565b5f80fd5b905051906101ea826101c9565b565b60ff1690565b6101fb816101ec565b0361020257565b5f80fd5b90505190610213826101f2565b565b60e081830312610296575f81015160018060401b038111610291578261023c918301610169565b9261024a83602084016101a3565b9261025881604085016101a3565b9261026682606083016101a3565b9261028e61027784608085016101dd565b936102858160a086016101a3565b9360c001610206565b90565b6100fb565b6100f7565b6102b96149d4803803806102ae816100e2565b928339810190610215565b90919293949596565b5190565b634e487b7160e01b5f52602260045260245ffd5b90600160028304921680156102fa575b60208310146102f557565b6102c6565b91607f16916102ea565b5f5260205f2090565b601f602091010490565b1b90565b919060086103369102916103305f1984610317565b92610317565b9181191691161790565b90565b61035761035261035c9261018c565b610340565b61018c565b90565b90565b919061037861037361038093610343565b61035f565b90835461031b565b9055565b5f90565b61039a91610394610384565b91610362565b565b5f5b8281106103aa57505050565b806103b95f6001938501610388565b0161039e565b9190601f81116103cf575b505050565b8181116103dc575b6103ca565b6103f16103eb61040f94610304565b9161030d565b9160206103fd8261030d565b9110610417575b80910191039061039c565b5f80806103d7565b505f610404565b1c90565b90610432905f199060080261041e565b191690565b8161044191610422565b906002021790565b90610453816102c2565b9060018060401b038211610511576104758261046f85546102da565b856103bf565b602090601f83116001146104a957918091610498935f9261049d575b5050610437565b90555b565b90915001515f80610491565b601f198316916104b885610304565b925f5b8181106104f9575091600293918560019694106104df575b5050500201905561049b565b6104ef910151601f841690610422565b90555f80806104d3565b919360206001819287870151815501950192016104bb565b6100a7565b9061052091610449565b565b5f1b90565b906105335f1991610522565b9181191691161790565b9061055261054d61055992610343565b61035f565b8254610527565b9055565b9061056e60018060a01b0391610522565b9181191691161790565b61058c610587610591926101b2565b610340565b6101b2565b90565b61059d90610578565b90565b6105a990610594565b90565b90565b906105c46105bf6105cb926105a0565b6105ac565b825461055d565b9055565b90565b6105e66105e16105eb926105cf565b610340565b61018c565b90565b6105f7906105d2565b9052565b61060f61060a610614926101ec565b610340565b61018c565b90565b610620906105fb565b9052565b91602061064592949361063e60408201965f8301906105ee565b0190610617565b565b61064f610093565b3d5f823e3d90fd5b61066090610578565b90565b61066c90610657565b90565b90565b9061068761068261068e92610663565b61066f565b825461055d565b9055565b926106bb6106d09695936106c2936106ad6106c9975f610516565b4260805260a052600161053d565b600261053d565b60046105af565b600561053d565b60056106da610093565b916128d383019083821060018060401b03831117610721578392610705926128d36121018639610624565b03905ff0801561071c5761071a906003610672565b565b610647565b6100a756fe60806040526004361015610013575b610a5b565b61001d5f3561014b565b8062329f2f1461014657806309d58bad146101415780630dc831771461013c5780630f4cf692146101375780630fb5a6b4146101325780632a959c9d1461012d5780632b92e2111461012857806346b27526146101235780634909229f1461011e5780634a79d50c146101195780637a40624b146101145780638ae8a05f1461010f5780639c9717291461010a578063a576832114610105578063b5f38c8114610100578063ba3e5e85146100fb578063eb0de743146100f6578063f32b5ace146100f15763fa7f1bae0361000e57610a26565b6109f1565b6109ac565b610968565b610924565b61088d565b61084b565b610816565b610748565b6106ef565b6104cd565b610477565b610425565b6103ef565b610341565b6102e8565b610258565b610223565b610173565b60e01c90565b60405190565b5f80fd5b5f80fd5b5f91031261016957565b61015b565b5f0190565b346101a15761018336600461015f565b61018b610afa565b610193610151565b8061019d8161016e565b0390f35b610157565b1c90565b60018060a01b031690565b6101c59060086101ca93026101a6565b6101aa565b90565b906101d891546101b5565b90565b6101e760045f906101cd565b90565b60018060a01b031690565b6101fe906101ea565b90565b61020a906101f5565b9052565b9190610221905f60208501940190610201565b565b346102535761023336600461015f565b61024f61023e6101db565b610246610151565b9182918261020e565b0390f35b610157565b346102865761026836600461015f565b610270610cc3565b610278610151565b806102828161016e565b0390f35b610157565b90565b61029e9060086102a393026101a6565b61028b565b90565b906102b1915461028e565b90565b6102c060065f906102a6565b90565b90565b6102cf906102c3565b9052565b91906102e6905f602085019401906102c6565b565b34610318576102f836600461015f565b6103146103036102b4565b61030b610151565b918291826102d3565b0390f35b610157565b7f000000000000000000000000000000000000000000000000000000000000000090565b346103715761035136600461015f565b61036d61035c61031d565b610364610151565b918291826102d3565b0390f35b610157565b5f80fd5b91906020600a0283011161038a57565b610376565b610398816102c3565b0361039f57565b5f80fd5b905035906103b08261038f565b565b9091610180828403126103ea576103e76103ce845f850161037a565b936103dd8161014086016103a3565b93610160016103a3565b90565b61015b565b346104205761041c61040b6104053660046103b2565b916110f4565b610413610151565b918291826102d3565b0390f35b610157565b346104545761043e6104383660046103b2565b916115ea565b610446610151565b806104508161016e565b0390f35b610157565b906020828203126104725761046f915f016103a3565b90565b61015b565b346104a55761048f61048a366004610459565b61174d565b610497610151565b806104a18161016e565b0390f35b610157565b9160206104cb9294936104c460408201965f8301906102c6565b01906102c6565b565b346104fe576104dd36600461015f565b6104e561184c565b906104fa6104f1610151565b928392836104aa565b0390f35b610157565b634e487b7160e01b5f525f60045260245ffd5b634e487b7160e01b5f52602260045260245ffd5b906001600283049216801561054a575b602083101461054557565b610516565b91607f169161053a565b60209181520190565b5f5260205f2090565b905f92918054906105806105798361052a565b8094610554565b916001811690815f146105d7575060011461059b575b505050565b6105a8919293945061055d565b915f925b8184106105bf57505001905f8080610596565b600181602092959395548486015201910192906105ac565b92949550505060ff19168252151560200201905f8080610596565b906105fc91610566565b90565b601f801991011690565b634e487b7160e01b5f52604160045260245ffd5b90610627906105ff565b810190811067ffffffffffffffff82111761064157604052565b610609565b9061066661065f92610656610151565b938480926105f2565b038361061d565b565b905f1061067b5761067890610646565b90565b610503565b61068b5f5f90610668565b90565b5190565b60209181520190565b90825f9392825e0152565b6106c56106ce6020936106d3936106bc8161068e565b93848093610692565b9586910161069b565b6105ff565b0190565b6106ec9160208201915f8184039101526106a6565b90565b3461071f576106ff36600461015f565b61071b61070a610680565b610712610151565b918291826106d7565b0390f35b610157565b7f000000000000000000000000000000000000000000000000000000000000000090565b346107785761075836600461015f565b610774610763610724565b61076b610151565b918291826102d3565b0390f35b610157565b60018060a01b031690565b61079890600861079d93026101a6565b61077d565b90565b906107ab9154610788565b90565b6107ba60035f906107a0565b90565b90565b6107d46107cf6107d9926101ea565b6107bd565b6101ea565b90565b6107e5906107c0565b90565b6107f1906107dc565b90565b6107fd906107e8565b9052565b9190610814905f602085019401906107f4565b565b346108465761082636600461015f565b6108426108316107ae565b610839610151565b91829182610801565b0390f35b610157565b346108795761086361085e366004610459565b6118a4565b61086b610151565b806108758161016e565b0390f35b610157565b61088a60015f906102a6565b90565b346108bd5761089d36600461015f565b6108b96108a861087e565b6108b0610151565b918291826102d3565b0390f35b610157565b60ff1690565b6108d89060086108dd93026101a6565b6108c2565b90565b906108eb91546108c8565b90565b6108fa60075f906108e0565b90565b151590565b61090b906108fd565b9052565b9190610922905f60208501940190610902565b565b346109545761093436600461015f565b61095061093f6108ee565b610947610151565b9182918261090f565b0390f35b610157565b61096560025f906102a6565b90565b346109985761097836600461015f565b610994610983610959565b61098b610151565b918291826102d3565b0390f35b610157565b6109a960055f906102a6565b90565b346109dc576109bc36600461015f565b6109d86109c761099d565b6109cf610151565b918291826102d3565b0390f35b610157565b6109ee60076001906108e0565b90565b34610a2157610a0136600461015f565b610a1d610a0c6109e1565b610a14610151565b9182918261090f565b0390f35b610157565b34610a5657610a3636600461015f565b610a52610a41611939565b610a49610151565b9182918261090f565b0390f35b610157565b5f80fd5b5f1c90565b610a70610a7591610a5f565b61077d565b90565b610a829054610a64565b90565b5f80fd5b60e01b90565b5f910312610a9957565b61015b565b610aa6610151565b3d5f823e3d90fd5b60081b90565b90610ac161ff0091610aae565b9181191691161790565b610ad4906108fd565b90565b90565b90610aef610aea610af692610acb565b610ad7565b8254610ab4565b9055565b610b0c610b076003610a78565b6107e8565b630b65108b90803b15610b8f57610b2f915f91610b27610151565b938492610a89565b8252818381610b406004820161016e565b03925af18015610b8a57610b5e575b50610b5c60016007610ada565b565b610b7d905f3d8111610b83575b610b75818361061d565b810190610a8f565b5f610b4f565b503d610b6b565b610a9e565b610a85565b634e487b7160e01b5f52601160045260245ffd5b610bb7610bbd919392936102c3565b926102c3565b8201809211610bc857565b610b94565b5f7f566f74696e67206e6f7420656e64656400000000000000000000000000000000910152565b610c016010602092610692565b610c0a81610bcd565b0190565b610c239060208101905f818303910152610bf4565b90565b15610c2d57565b610c35610151565b62461bcd60e51b815280610c4b60048201610c0e565b0390fd5b610c5b610c6091610a5f565b6101aa565b90565b610c6d9054610c4f565b90565b610c79906107c0565b90565b610c8590610c70565b90565b5f1b90565b90610c9960ff91610c88565b9181191691161790565b90610cb8610cb3610cbf92610acb565b610ad7565b8254610c8d565b9055565b610d2942610d23610d1d610d187f00000000000000000000000000000000000000000000000000000000000000007f000000000000000000000000000000000000000000000000000000000000000090610ba8565b6102c3565b916102c3565b11610c26565b610d43610d3e610d396004610c63565b610c7c565b6107e8565b630b65108b90803b15610dc657610d66915f91610d5e610151565b938492610a89565b8252818381610d776004820161016e565b03925af18015610dc157610d95575b50610d9360016007610ca3565b565b610db4905f3d8111610dba575b610dac818361061d565b810190610a8f565b5f610d86565b503d610da2565b610a9e565b610a85565b5f90565b90565b90610de5610dde610151565b928361061d565b565b67ffffffffffffffff8111610dfc5760200290565b610609565b610e0d610e1291610de7565b610dd2565b90565b634e487b7160e01b5f52603260045260245ffd5b90600a811015610e3a576020020190565b610e15565b90565b610e56610e51610e5b92610e3f565b6107bd565b6102c3565b90565b35610e688161038f565b90565b90610e75906102c3565b9052565b90565b610e90610e8b610e9592610e79565b6107bd565b6102c3565b90565b90565b610eaf610eaa610eb492610e98565b6107bd565b6102c3565b90565b90565b610ece610ec9610ed392610eb7565b6107bd565b6102c3565b90565b90565b610eed610ee8610ef292610ed6565b6107bd565b6102c3565b90565b90505190610f028261038f565b565b90602082820312610f1d57610f1a915f01610ef5565b90565b61015b565b50600590565b905090565b90565b610f39906102c3565b9052565b90610f4a81602093610f30565b0190565b60200190565b610f70610f6a610f6383610f22565b8094610f28565b91610f2d565b5f915b838310610f805750505050565b610f96610f906001928451610f3d565b92610f4e565b92019190610f73565b9190610fb2905f60a08501940190610f54565b565b90565b610fcb610fc6610fd092610fb4565b6107bd565b6102c3565b90565b90565b610fea610fe5610fef92610fd3565b6107bd565b6102c3565b90565b90565b61100961100461100e92610ff2565b6107bd565b6102c3565b90565b90565b61102861102361102d92611011565b6107bd565b6102c3565b90565b90565b61104761104261104c92611030565b6107bd565b6102c3565b90565b90565b67ffffffffffffffff81116110675760200290565b610609565b61107861107d91611052565b610dd2565b90565b50600490565b905090565b90565b60200190565b6110b06110aa6110a383611080565b8094611086565b9161108b565b5f915b8383106110c05750505050565b6110d66110d06001928451610f3d565b9261108e565b920191906110b3565b91906110f2905f60808501940190611094565b565b61121891611100610dcb565b50602061112073__$d3dfaecd4f377921e100880c714d789c29$__610dcf565b637fe238e29061120d6111336005610e01565b9261115a61115261114d896111475f610e42565b90610e29565b610e5e565b5f8601610e6b565b6111816111796111748961116e6001610e7c565b90610e29565b610e5e565b868601610e6b565b6111a96111a061119b896111956002610e9b565b90610e29565b610e5e565b60408601610e6b565b6111d16111c86111c3896111bd6003610eba565b90610e29565b610e5e565b60608601610e6b565b6111f96111f06111eb896111e56004610ed9565b90610e29565b610e5e565b60808601610e6b565b611201610151565b97889485938493610a89565b835260048301610f9f565b03915af492831561148957611347936020915f9161145c575b509261125073__$d3dfaecd4f377921e100880c714d789c29$__610dcf565b61133c637fe238e261132861131f61131a61126b6005610e01565b9661129361128b611286836112806005610fb7565b90610e29565b610e5e565b5f8a01610e6b565b6112ba6112b26112ad836112a76006610fd6565b90610e29565b610e5e565b8a8a01610e6b565b6112e26112d96112d4836112ce6007610ff5565b90610e29565b610e5e565b60408a01610e6b565b61130a6113016112fc836112f66008611014565b90610e29565b610e5e565b60608a01610e6b565b6113146009611033565b90610e29565b610e5e565b60808601610e6b565b611330610151565b97889485938493610a89565b835260048301610f9f565b03915af48015611457576113e1946113c26113d6926020965f9161142a575b50916113b961138873__$0daf1669a85ce10529e05b8a030b9567e1$__61104f565b956113b0638709cd8c956113a861139f600461106c565b9a5f8c01610e6b565b8a8a01610e6b565b60408801610e6b565b60608601610e6b565b6113ca610151565b95869485938493610a89565b8352600483016110df565b03915af4908115611425575f916113f7575b5090565b611418915060203d811161141e575b611410818361061d565b810190610f04565b5f6113f3565b503d611406565b610a9e565b61144a9150873d8111611450575b611442818361061d565b810190610f04565b5f611366565b503d611438565b610a9e565b61147c9150823d8111611482575b611474818361061d565b810190610f04565b5f611231565b503d61146a565b610a9e565b5f7f566f74696e6720656e6465640000000000000000000000000000000000000000910152565b6114c2600c602092610692565b6114cb8161148e565b0190565b6114e49060208101905f8183039101526114b5565b90565b156114ee57565b6114f6610151565b62461bcd60e51b81528061150c600482016114cf565b0390fd5b61151c61152191610a5f565b61028b565b90565b61152e9054611510565b90565b61154561154061154a926102c3565b6107bd565b6102c3565b90565b9037565b61155e916101409161154d565b565b6101609061158c61159394969593966115816101808401985f850190611551565b6101408301906102c6565b01906102c6565b565b61159e906102c3565b5f1981146115ac5760010190565b610b94565b906115bd5f1991610c88565b9181191691161790565b90565b906115df6115da6115e692611531565b6115c7565b82546115b1565b9055565b90916116534261164c6116466116417f00000000000000000000000000000000000000000000000000000000000000007f000000000000000000000000000000000000000000000000000000000000000090610ba8565b6102c3565b916102c3565b11156114e7565b61169e6020611664848685916110f4565b6116766116716003610a78565b6107e8565b6116935f631ffc735d611687610151565b96879586948593610a89565b8352600483016102d3565b03925af180156117485761171c575b506116b86006611524565b919290926116fb6116e97f604001005bce2ef418b9403ccb70e2e54a665dcc8d8097977a9a92e6e8c3804494611531565b946116f2610151565b93849384611560565b0390a261171a61171361170e6006611524565b611595565b60066115ca565b565b61173c9060203d8111611741575b611734818361061d565b810190610f04565b6116ad565b503d61172a565b610a9e565b6117b3426117ad6117a76117a27f00000000000000000000000000000000000000000000000000000000000000007f000000000000000000000000000000000000000000000000000000000000000090610ba8565b6102c3565b916102c3565b11610c26565b6117cd6117c86117c36004610c63565b610c7c565b6107e8565b9063c15da65b90823b1561184757611804926117f95f80946117ed610151565b96879586948593610a89565b8352600483016102d3565b03925af1801561184257611816575b50565b611835905f3d811161183b575b61182d818361061d565b810190610a8f565b5f611813565b503d611823565b610a9e565b610a85565b611854610dcb565b5061185d610dcb565b507f0000000000000000000000000000000000000000000000000000000000000000907f000000000000000000000000000000000000000000000000000000000000000090565b6118b66118b16003610a78565b6107e8565b9063c15da65b90823b15611930576118ed926118e25f80946118d6610151565b96879586948593610a89565b8352600483016102d3565b03925af1801561192b576118ff575b50565b61191e905f3d8111611924575b611916818361061d565b810190610a8f565b5f6118fc565b503d61190c565b610a9e565b610a85565b5f90565b611941611935565b504261199f6119996119947f00000000000000000000000000000000000000000000000000000000000000007f000000000000000000000000000000000000000000000000000000000000000090610ba8565b6102c3565b916102c3565b11159056fea26469706673582212200ef8a5b420fba203ba95bc05a8454a9293bd5891b1f2760aa6e4ee8a6343efc564736f6c63430008210033610100604052346100b05761001b610015610170565b906105ac565b6100236100b5565b6120ee6107e582396080518181816105f00152818161174101528181611867015281816118c701528181611aa701528181611c520152611cb2015260a051818181610553015281816117f40152611c1c015260c05181610649015260e0518181816104fa01528181610f6901528181611b7701528181611ed401528181611f61015261200d01526120ee90f35b6100bb565b60405190565b5f80fd5b601f801991011690565b634e487b7160e01b5f52604160045260245ffd5b906100e7906100bf565b810190811060018060401b038211176100ff57604052565b6100c9565b906101176101106100b5565b92836100dd565b565b5f80fd5b90565b6101298161011d565b0361013057565b5f80fd5b9050519061014182610120565b565b919060408382031261016b578061015f610168925f8601610134565b93602001610134565b90565b610119565b61018e6128d38038038061018381610104565b928339810190610143565b9091565b90565b90565b6101ac6101a76101b192610192565b610195565b61011d565b90565b60209181520190565b5f7f4f6e6c79207175696e617279202861726974793d352920737570706f72746564910152565b6101f0602080926101b4565b6101f9816101bd565b0190565b6102129060208101905f8183039101526101e4565b90565b1561021c57565b6102246100b5565b62461bcd60e51b81528061023a600482016101fd565b0390fd5b90565b61025561025061025a9261023e565b610195565b61011d565b90565b90565b61027461026f6102799261025d565b610195565b61011d565b90565b5f7f5375624465707468206d75737420626520312d34000000000000000000000000910152565b6102b060146020926101b4565b6102b98161027c565b0190565b6102d29060208101905f8183039101526102a3565b90565b156102dc57565b6102e46100b5565b62461bcd60e51b8152806102fa600482016102bd565b0390fd5b90565b61031561031061031a926102fe565b610195565b61011d565b90565b6001610329910161011d565b90565b634e487b7160e01b5f52601160045260245ffd5b61034f6103559193929361011d565b9261011d565b9161036183820261011d565b92818404149015171561037057565b61032c565b9061037f90610241565b5f5260205260405f2090565b5f1b90565b9061039c5f199161038b565b9181191691161790565b6103ba6103b56103bf9261011d565b610195565b61011d565b90565b90565b906103da6103d56103e1926103a6565b6103c2565b8254610390565b9055565b6103ee9061011d565b5f1981146103fc5760010190565b61032c565b90565b61041861041361041d92610401565b610195565b61011d565b90565b61042f6104359193929361011d565b9261011d565b820180921161044057565b61032c565b61045461045a9193929361011d565b9261011d565b820391821161046557565b61032c565b90610474906103a6565b5f5260205260405f2090565b5f1c90565b90565b61049461049991610480565b610485565b90565b6104a69054610488565b90565b90565b60018060401b0381116104bf5760200290565b6100c9565b6104d06104d5916104ac565b610104565b90565b906104e29061011d565b9052565b60e01b90565b9060208282031261050557610502915f01610134565b90565b610119565b50600590565b905090565b90565b6105219061011d565b9052565b9061053281602093610518565b0190565b60200190565b61055861055261054b8361050a565b8094610510565b91610515565b5f915b8383106105685750505050565b61057e6105786001928451610525565b92610536565b9201919061055b565b919061059a905f60a0850194019061053c565b565b6105a46100b5565b3d5f823e3d90fd5b916105ca836105c46105be6005610198565b9161011d565b14610215565b816105dd6105d75f610241565b9161011d565b11806107c3575b6105ed906102d5565b826080528160a0528260c0526106036001610301565b9061060d5f610241565b915b8261062261061c8661011d565b9161011d565b10156106425761063661063c918690610340565b9261031d565b9161060f565b9150925060e0526106666106555f610241565b61066160095f90610375565b6103c5565b6106706001610301565b5b8061069761069161068c85610686600a610404565b90610420565b61011d565b9161011d565b116107bf576107569060206106c96106c460096106be856106b86001610301565b90610445565b9061046a565b61049c565b6106e673__$d3dfaecd4f377921e100880c714d789c29$__6104a9565b61074b637fe238e26107376106fb60056104c4565b94610708815f88016104d8565b610714818888016104d8565b61072181604088016104d8565b61072e81606088016104d8565b608086016104d8565b61073f6100b5565b968794859384936104e6565b835260048301610587565b03915af49182156107ba5761078792610782915f9161078c575b5061077d6009849061046a565b6103c5565b6103e5565b610671565b6107ad915060203d81116107b3575b6107a581836100dd565b8101906104ec565b5f610770565b503d61079b565b61059c565b5050565b506105ed826107db6107d56004610260565b9161011d565b111590506105e456fe60806040526004361015610013575b6108a8565b61001d5f3561016c565b80630b65108b14610167578063198e3c17146101625780631ffc735d1461015d5780632ecf52e81461015857806342a19f58146101535780634a690ef91461014e57806360fd4010146101495780636bc1fb5314610144578063927d52ab1461013f578063974da14e1461013a578063a03cb3a414610135578063a58475b714610130578063b4885ec31461012b578063b66c84a114610126578063c15da65b14610121578063d455a79d1461011c578063d80fef1414610117578063dda89a6e14610112578063e82955881461010d578063e93fb4d4146101085763f13827af0361000e57610873565b61082f565b6107fa565b610777565b610733565b6106fe565b6106a0565b61066b565b610612565b6105b9565b610575565b61051c565b6104c3565b61048e565b6103f6565b61034c565b610317565b6102d3565b610262565b6101ec565b610194565b60e01c90565b60405190565b5f80fd5b5f80fd5b5f91031261018a57565b61017c565b5f0190565b346101c2576101a4366004610180565b6101ac610b52565b6101b4610172565b806101be8161018f565b0390f35b610178565b90565b6101d3906101c7565b9052565b91906101ea905f602085019401906101ca565b565b3461021c576101fc366004610180565b610218610207610c8d565b61020f610172565b918291826101d7565b0390f35b610178565b61022a816101c7565b0361023157565b5f80fd5b9050359061024282610221565b565b9060208282031261025d5761025a915f01610235565b90565b61017c565b346102925761028e61027d610278366004610244565b610ec2565b610285610172565b918291826101d7565b0390f35b610178565b1c90565b90565b6102ae9060086102b39302610297565b61029b565b90565b906102c1915461029e565b90565b6102d060055f906102b6565b90565b34610303576102e3366004610180565b6102ff6102ee6102c4565b6102f6610172565b918291826101d7565b0390f35b610178565b61031460085f906102b6565b90565b3461034757610327366004610180565b610343610332610308565b61033a610172565b918291826101d7565b0390f35b610178565b3461037c5761035c366004610180565b610378610367611082565b61036f610172565b918291826101d7565b0390f35b610178565b634e487b7160e01b5f52603260045260245ffd5b5490565b5f5260205f2090565b6103ab81610395565b8210156103c5576103bd600191610399565b910201905f90565b610381565b60016103d581610395565b8210156103f2576103ef916103e9916103a2565b906102b6565b90565b5f80fd5b346104265761042261041161040c366004610244565b6103ca565b610419610172565b918291826101d7565b0390f35b610178565b60ff1690565b6104419060086104469302610297565b61042b565b90565b906104549154610431565b90565b6104646006600190610449565b90565b151590565b61047590610467565b9052565b919061048c905f6020850194019061046c565b565b346104be5761049e366004610180565b6104ba6104a9610457565b6104b1610172565b91829182610479565b0390f35b610178565b346104f3576104d3366004610180565b6104ef6104de611098565b6104e6610172565b918291826101d7565b0390f35b610178565b7f000000000000000000000000000000000000000000000000000000000000000090565b3461054c5761052c366004610180565b6105486105376104f8565b61053f610172565b918291826101d7565b0390f35b610178565b7f000000000000000000000000000000000000000000000000000000000000000090565b346105a557610585366004610180565b6105a1610590610551565b610598610172565b918291826101d7565b0390f35b610178565b6105b660065f90610449565b90565b346105e9576105c9366004610180565b6105e56105d46105aa565b6105dc610172565b91829182610479565b0390f35b610178565b7f000000000000000000000000000000000000000000000000000000000000000090565b3461064257610622366004610180565b61063e61062d6105ee565b610635610172565b918291826101d7565b0390f35b610178565b7f000000000000000000000000000000000000000000000000000000000000000090565b3461069b5761067b366004610180565b610697610686610647565b61068e610172565b918291826101d7565b0390f35b610178565b346106ce576106b86106b3366004610244565b61118b565b6106c0610172565b806106ca8161018f565b0390f35b610178565b5f6106dd81610395565b8210156106fa576106f7916106f1916103a2565b906102b6565b90565b5f80fd5b3461072e5761072a610719610714366004610244565b6106d3565b610721610172565b918291826101d7565b0390f35b610178565b3461076357610743366004610180565b61075f61074e6112d1565b610756610172565b91829182610479565b0390f35b610178565b61077460075f906102b6565b90565b346107a757610787366004610180565b6107a3610792610768565b61079a610172565b918291826101d7565b0390f35b610178565b90565b6107c36107be6107c8926101c7565b6107ac565b6101c7565b90565b906107d5906107af565b5f5260205260405f2090565b6107f7906107f26009915f926107cb565b6102b6565b90565b3461082a57610826610815610810366004610244565b6107e1565b61081d610172565b918291826101d7565b0390f35b610178565b3461085f5761085b61084a610845366004610244565b611369565b610852610172565b918291826101d7565b0390f35b610178565b61087060025f906102b6565b90565b346108a357610883366004610180565b61089f61088e610864565b610896610172565b918291826101d7565b0390f35b610178565b5f80fd5b5f1c90565b6108bd6108c2916108ac565b61042b565b90565b6108cf90546108b1565b90565b60209181520190565b5f7f537562526f6f7473206e6f74206d657267656420796574000000000000000000910152565b61090f60176020926108d2565b610918816108db565b0190565b6109319060208101905f818303910152610902565b90565b1561093b57565b610943610172565b62461bcd60e51b8152806109596004820161091c565b0390fd5b60081c90565b61096f6109749161095d565b61042b565b90565b6109819054610963565b90565b5f7f416c7265616479206d6572676564000000000000000000000000000000000000910152565b6109b8600e6020926108d2565b6109c181610984565b0190565b6109da9060208101905f8183039101526109ab565b90565b156109e457565b6109ec610172565b62461bcd60e51b815280610a02600482016109c5565b0390fd5b90565b610a1d610a18610a2292610a06565b6107ac565b6101c7565b90565b5f7f4e6f20737562747265657320746f206d65726765000000000000000000000000910152565b610a5960146020926108d2565b610a6281610a25565b0190565b610a7b9060208101905f818303910152610a4c565b90565b15610a8557565b610a8d610172565b62461bcd60e51b815280610aa360048201610a66565b0390fd5b5f1b90565b90610ab85f1991610aa7565b9181191691161790565b90565b90610ada610ad5610ae1926107af565b610ac2565b8254610aac565b9055565b60081b90565b90610af861ff0091610ae5565b9181191691161790565b610b0b90610467565b90565b90565b90610b26610b21610b2d92610b02565b610b0e565b8254610aeb565b9055565b610b3d610b42916108ac565b61029b565b90565b610b4f9054610b31565b90565b610b64610b5f60066108c5565b610934565b610b7f610b7a610b746006610977565b15610467565b6109dd565b610ba4610b8c6001610395565b610b9e610b985f610a09565b916101c7565b11610a7e565b610bb6610baf611694565b6005610ac5565b610bc260016006610b11565b610bcc6005610b45565b610c027f9143563a1146bcf02f74f1971c1e1ea3bf6867a00da047bdf9259dc3a4e9e4c991610bf9610172565b918291826101d7565b0390a1565b5f90565b5f7f4e6f74206d657267656420796574000000000000000000000000000000000000910152565b610c3f600e6020926108d2565b610c4881610c0b565b0190565b610c619060208101905f818303910152610c32565b90565b15610c6b57565b610c73610172565b62461bcd60e51b815280610c8960048201610c4c565b0390fd5b610c95610c07565b50610ca8610ca36006610977565b610c64565b610cb26005610b45565b90565b90565b610ccc610cc7610cd192610cb5565b6107ac565b6101c7565b90565b610cfd7f30644e72e131a029b85045b68181585d2833e84879b9709143e1f593f0000001610cb8565b90565b5f7f4c65616620746f6f206c61726765000000000000000000000000000000000000910152565b610d34600e6020926108d2565b610d3d81610d00565b0190565b610d569060208101905f818303910152610d27565b90565b15610d6057565b610d68610172565b62461bcd60e51b815280610d7e60048201610d41565b0390fd5b90565b634e487b7160e01b5f52604160045260245ffd5b5f5260205f2090565b5490565b610daf81610da2565b821015610dc957610dc1600191610d99565b910201905f90565b610381565b1b90565b91906008610ded910291610de75f1984610dce565b92610dce565b9181191691161790565b9190610e0d610e08610e15936107af565b610ac2565b908354610dd2565b9055565b9081549168010000000000000000831015610e495782610e41916001610e4795018155610da6565b90610df7565b565b610d85565b634e487b7160e01b5f52601160045260245ffd5b610e6b906101c7565b5f198114610e795760010190565b610e4e565b90565b610e95610e90610e9a92610e7e565b6107ac565b6101c7565b90565b610eac610eb2919392936101c7565b926101c7565b8203918211610ebd57565b610e4e565b90610ecb610c07565b50610eef82610ee9610ee3610ede610cd4565b6101c7565b916101c7565b10610d59565b610f0a610f05610eff6006610977565b15610467565b6109dd565b610f146007610b45565b91610f28610f215f610d82565b8290610e19565b610f3b610f356002610b45565b82611b23565b610f57610f50610f4b6002610b45565b610e62565b6002610ac5565b610f616002610b45565b610f93610f8d7f00000000000000000000000000000000000000000000000000000000000000006101c7565b916101c7565b14610ffa575b610fb5610fae610fa96007610b45565b610e62565b6007610ac5565b82610ff5610fe37f5a660ec3cce7c3a71461d1f7a64dd55380bd81f9a0316458a5aa2e5afe2f0da5926107af565b92610fec610172565b918291826101d7565b0390a2565b611002611b6c565b61101661100f6001610d82565b8290610e19565b6110336110236001610395565b61102d6001610e81565b90610e9d565b6110726110607f6a297a526c1c42df9853983b50ef14c2cb409494aeaa7528416b270bc116c427926107af565b92611069610172565b918291826101d7565b0390a261107d611ec1565b610f99565b61108a610c07565b506110956001610395565b90565b6110a0610c07565b506110ab6007610b45565b90565b5f7f537562526f6f747320616c7265616479206d6572676564000000000000000000910152565b6110e260176020926108d2565b6110eb816110ae565b0190565b6111049060208101905f8183039101526110d5565b90565b1561110e57565b611116610172565b62461bcd60e51b81528061112c600482016110ef565b0390fd5b61113f611145919392936101c7565b926101c7565b820180921161115057565b610e4e565b9061116160ff91610aa7565b9181191691161790565b9061118061117b61118792610b02565b610b0e565b8254611155565b9055565b6111a66111a161119b6006610977565b15610467565b6109dd565b6111c16111bc6111b660066108c5565b15610467565b611107565b6111cb6002610b45565b6111dd6111d75f610a09565b916101c7565b116112c0575b6111ed6001610395565b9061120a826112046111fe5f610a09565b916101c7565b11610a7e565b8061121d6112175f610a09565b916101c7565b145f146112675750611230816008610ac5565b5b61124d6112476112416008610b45565b926101c7565b916101c7565b1015611256575b565b6112626001600661116b565b611254565b6112ad6112b4916112828461127c6008610b45565b90610e9d565b8161129561128f836101c7565b916101c7565b105f146112b957505b6112a86008610b45565b611130565b6008610ac5565b611231565b905061129e565b6112c8611f5c565b6111e3565b5f90565b6112d96112cd565b506112e46006610977565b90565b5f7f496e646578206f7574206f6620626f756e647300000000000000000000000000910152565b61131b60136020926108d2565b611324816112e7565b0190565b61133d9060208101905f81830391015261130e565b90565b1561134757565b61134f610172565b62461bcd60e51b81528061136560048201611328565b0390fd5b6113a56113ab91611378610c07565b5061139e8161139861139261138d6001610395565b6101c7565b916101c7565b10611340565b60016103a2565b906102b6565b90565b601f801991011690565b906113c2906113ae565b810190811067ffffffffffffffff8211176113dc57604052565b610d85565b906113f46113ed610172565b92836113b8565b565b67ffffffffffffffff811161140e5760208091020190565b610d85565b90611425611420836113f6565b6113e1565b918252565b369037565b9061145461143c83611413565b9260208061144a86936113f6565b920191039061142a565b565b600161146291016101c7565b90565b5190565b9061147382611465565b811015611484576020809102010190565b610381565b90611493906101c7565b9052565b634e487b7160e01b5f52601260045260245ffd5b6114b76114bd916101c7565b916101c7565b9081156114c8570690565b611497565b6114d790516101c7565b90565b6114e66114ec916101c7565b916101c7565b9081156114f7570490565b611497565b61150b611511919392936101c7565b926101c7565b9161151d8382026101c7565b92818404149015171561152c57565b610e4e565b90565b67ffffffffffffffff81116115495760200290565b610d85565b61155a61155f91611534565b6113e1565b90565b90565b61157961157461157e92611562565b6107ac565b6101c7565b90565b90565b61159861159361159d92611581565b6107ac565b6101c7565b90565b90565b6115b76115b26115bc926115a0565b6107ac565b6101c7565b90565b60e01b90565b905051906115d282610221565b565b906020828203126115ed576115ea915f016115c5565b90565b61017c565b50600590565b905090565b90565b611609906101c7565b9052565b9061161a81602093611600565b0190565b60200190565b61164061163a611633836115f2565b80946115f8565b916115fd565b5f915b8383106116505750505050565b611666611660600192845161160d565b9261161e565b92019190611643565b9190611682905f60a08501940190611624565b565b61168c610172565b3d5f823e3d90fd5b61169c610c07565b506116af6116aa6001610395565b61142f565b906116b95f610a09565b5b806116d66116d06116cb6001610395565b6101c7565b916101c7565b10156117145761170f9061170a6116f86116f2600184906103a2565b906102b6565b6117058691849092611469565b611489565b611456565b6116ba565b509061171f81611465565b905b8161173561172f6001610e81565b916101c7565b1115611ad757611766827f0000000000000000000000000000000000000000000000000000000000000000906114ab565b82908061177b6117755f610a09565b916101c7565b03611a9b575b5061178b8161142f565b936117955f610a09565b5b806117a96117a3876101c7565b916101c7565b10156117e5576117e0906117db6117c96117c4878490611469565b6114cd565b6117d68991849092611469565b611489565b611456565b611796565b509092915061181e61181960097f0000000000000000000000000000000000000000000000000000000000000000906107cb565b610b45565b915b8061183361182d866101c7565b916101c7565b101561185d57611858906118538461184e8891849092611469565b611489565b611456565b611820565b50929161188c91507f0000000000000000000000000000000000000000000000000000000000000000906114da565b906118968261142f565b926118a05f610a09565b5b806118b46118ae866101c7565b916101c7565b1015611a8e57806020846118ec611a24947f0000000000000000000000000000000000000000000000000000000000000000906114fc565b611a1961190c73__$d3dfaecd4f377921e100880c714d789c29$__611531565b91611a056119fc6119f7637fe238e2936119dc6119d36119ce61192f600561154e565b9a61194f8c5f611948611943858a90611469565b6114cd565b9101611489565b6119818c8e61197a6119758561196f8b6119696001610e81565b90611130565b90611469565b6114cd565b9101611489565b6119b48c60406119ad6119a8856119a28b61199c6002611565565b90611130565b90611469565b6114cd565b9101611489565b6119c8856119c26003611584565b90611130565b90611469565b6114cd565b60608a01611489565b6119f18d916119eb60046115a3565b90611130565b90611469565b6114cd565b60808601611489565b611a0d610172565b968794859384936115bf565b83526004830161166f565b03915af4918215611a8957611a5692611a51915f91611a5b575b50611a4c8891849092611469565b611489565b611456565b6118a1565b611a7c915060203d8111611a82575b611a7481836113b8565b8101906115d4565b5f611a3e565b503d611a6a565b611684565b5091929050919091611721565b611ad19150611acb84917f0000000000000000000000000000000000000000000000000000000000000000610e9d565b90611130565b5f611781565b611af49150611aef90611ae95f610a09565b90611469565b6114cd565b90565b90611b0190610a09565b5f5260205260405f2090565b90611b1790610a09565b5f5260205260405f2090565b611b6a91611b49611b5992611b44611b3d60035f90611af7565b84906107cb565b610ac5565b611b536001610e81565b90611130565b611b6560045f90611b0d565b610ac5565b565b611b74610c07565b507f000000000000000000000000000000000000000000000000000000000000000090611ba08261142f565b90611baa5f610a09565b5b80611bbe611bb8866101c7565b916101c7565b1015611c0557611c0090611bfb611be9611be4611bdd60035f90611af7565b84906107cb565b610b45565b611bf68691849092611469565b611489565b611456565b611bab565b509190611c115f610a09565b915b82611c46611c407f00000000000000000000000000000000000000000000000000000000000000006101c7565b916101c7565b1015611e8c57611c77907f0000000000000000000000000000000000000000000000000000000000000000906114da565b91611c818361142f565b93611c8b5f610a09565b5b80611c9f611c99876101c7565b916101c7565b1015611e765780602085611cd7611e0c947f0000000000000000000000000000000000000000000000000000000000000000906114fc565b611e01611cf773__$d3dfaecd4f377921e100880c714d789c29$__611531565b91611ded611de4611ddf637fe238e293611dd9611d14600561154e565b98611d33611d2b611d26838690611469565b6114cd565b5f8c01611489565b611d64611d5c611d5783611d5187611d4b6001610e81565b90611130565b90611469565b6114cd565b8c8c01611489565b611d96611d8d611d8883611d8287611d7c6002611565565b90611130565b90611469565b6114cd565b60408c01611489565b611dc8611dbf611dba83611db487611dae6003611584565b90611130565b90611469565b6114cd565b60608c01611489565b91611dd360046115a3565b90611130565b90611469565b6114cd565b60808601611489565b611df5610172565b968794859384936115bf565b83526004830161166f565b03915af4918215611e7157611e3e92611e39915f91611e43575b50611e348991849092611469565b611489565b611456565b611c8c565b611e64915060203d8111611e6a575b611e5c81836113b8565b8101906115d4565b5f611e26565b503d611e52565b611684565b5093611e859192509291611456565b9190611c13565b50611eaa9150611ea590611e9f5f610a09565b90611469565b6114cd565b90565b611ebf91611eb9610c07565b91610df7565b565b611eca5f610a09565b5b80611efe611ef87f00000000000000000000000000000000000000000000000000000000000000006101c7565b916101c7565b1015611f3157611f2c90611f275f611f22611f1b60038390611af7565b84906107cb565b611ead565b611456565b611ecb565b50611f45611f3e5f610a09565b6002610ac5565b611f5a5f611f5560048290611b0d565b611ead565b565b611f907f0000000000000000000000000000000000000000000000000000000000000000611f8a6002610b45565b90610e9d565b611f995f610a09565b5b80611fad611fa7846101c7565b916101c7565b10156120065761200190611ffc611fce611fc960095f90611b0d565b610b45565b611ff7611fdd60035f90611af7565b611ff1611fea6002610b45565b8690611130565b906107cb565b610ac5565b611456565b611f9a565b50506120337f00000000000000000000000000000000000000000000000000000000000000006002610ac5565b61203b611b6c565b61204f6120486001610d82565b8290610e19565b61206c61205c6001610395565b6120666001610e81565b90610e9d565b6120ab6120997f6a297a526c1c42df9853983b50ef14c2cb409494aeaa7528416b270bc116c427926107af565b926120a2610172565b918291826101d7565b0390a26120b6611ec1565b56fea26469706673582212207f4acff9bbbea0fe35ccffd00bf68755ce190f006f06d046ee1793aa20ab12cf64736f6c63430008210033","linkReferences":{"contracts/PoseidonT5.sol":{"PoseidonT5":[{"start":6807,"length":20}]},"node_modules/poseidon-solidity/PoseidonT6.sol":{"PoseidonT6":[{"start":6191,"length":20},{"start":6495,"length":20},{"start":10191,"length":20},{"start":16858,"length":20},{"start":17861,"length":20}]}}},"methodIdentifiers":{"coordinatorPubKeyX()":"a5768321","coordinatorPubKeyY()":"ba3e5e85","deployTime()":"7a40624b","duration()":"0fb5a6b4","getDeployTimeAndDuration()":"4909229f","hashMessageAndEncPubKey(uint256[10],uint256,uint256)":"2a959c9d","isVotingOpen()":"fa7f1bae","mergeMaciStateAq()":"0dc83177","mergeMaciStateAqSubRoots(uint256)":"46b27526","mergeMessageAq()":"00329f2f","mergeMessageAqSubRoots(uint256)":"9c971729","messageAq()":"8ae8a05f","messageAqMerged()":"f32b5ace","numMessages()":"0f4cf692","numSignUpsAtDeployment()":"eb0de743","publishMessage(uint256[10],uint256,uint256)":"2b92e211","stateAqAddr()":"09d58bad","stateAqMerged()":"b5f38c81","title()":"4a79d50c"},"id":7}